{
  "_format": "hh-sol-artifact-1",
  "contractName": "TheMutantMushies",
  "sourceName": "contracts/TheMutantMushies.sol",
  "abi": [
    {
      "inputs": [
        {
          "internalType": "string",
          "name": "delayedRevealURI",
          "type": "string"
        },
        {
          "internalType": "address",
          "name": "revenueRecipient",
          "type": "address"
        }
      ],
      "stateMutability": "nonpayable",
      "type": "constructor"
    },
    {
      "anonymous": false,
      "inputs": [
        {
          "indexed": true,
          "internalType": "address",
          "name": "owner",
          "type": "address"
        },
        {
          "indexed": true,
          "internalType": "address",
          "name": "approved",
          "type": "address"
        },
        {
          "indexed": true,
          "internalType": "uint256",
          "name": "tokenId",
          "type": "uint256"
        }
      ],
      "name": "Approval",
      "type": "event"
    },
    {
      "anonymous": false,
      "inputs": [
        {
          "indexed": true,
          "internalType": "address",
          "name": "owner",
          "type": "address"
        },
        {
          "indexed": true,
          "internalType": "address",
          "name": "operator",
          "type": "address"
        },
        {
          "indexed": false,
          "internalType": "bool",
          "name": "approved",
          "type": "bool"
        }
      ],
      "name": "ApprovalForAll",
      "type": "event"
    },
    {
      "anonymous": false,
      "inputs": [
        {
          "indexed": true,
          "internalType": "address",
          "name": "previousOwner",
          "type": "address"
        },
        {
          "indexed": true,
          "internalType": "address",
          "name": "newOwner",
          "type": "address"
        }
      ],
      "name": "OwnershipTransferred",
      "type": "event"
    },
    {
      "anonymous": false,
      "inputs": [
        {
          "indexed": true,
          "internalType": "address",
          "name": "from",
          "type": "address"
        },
        {
          "indexed": true,
          "internalType": "address",
          "name": "to",
          "type": "address"
        },
        {
          "indexed": true,
          "internalType": "uint256",
          "name": "tokenId",
          "type": "uint256"
        }
      ],
      "name": "Transfer",
      "type": "event"
    },
    {
      "inputs": [],
      "name": "COLLECTION_SIZE",
      "outputs": [
        {
          "internalType": "uint256",
          "name": "",
          "type": "uint256"
        }
      ],
      "stateMutability": "view",
      "type": "function"
    },
    {
      "inputs": [],
      "name": "MINT_PRICE",
      "outputs": [
        {
          "internalType": "uint256",
          "name": "",
          "type": "uint256"
        }
      ],
      "stateMutability": "view",
      "type": "function"
    },
    {
      "inputs": [],
      "name": "TOKENS_PER_PERSON_LIMIT",
      "outputs": [
        {
          "internalType": "uint256",
          "name": "",
          "type": "uint256"
        }
      ],
      "stateMutability": "view",
      "type": "function"
    },
    {
      "inputs": [],
      "name": "TOKENS_PER_TRAN_LIMIT",
      "outputs": [
        {
          "internalType": "uint256",
          "name": "",
          "type": "uint256"
        }
      ],
      "stateMutability": "view",
      "type": "function"
    },
    {
      "inputs": [
        {
          "internalType": "address",
          "name": "to",
          "type": "address"
        },
        {
          "internalType": "uint256",
          "name": "tokenId",
          "type": "uint256"
        }
      ],
      "name": "approve",
      "outputs": [],
      "stateMutability": "nonpayable",
      "type": "function"
    },
    {
      "inputs": [
        {
          "internalType": "address",
          "name": "owner",
          "type": "address"
        }
      ],
      "name": "balanceOf",
      "outputs": [
        {
          "internalType": "uint256",
          "name": "",
          "type": "uint256"
        }
      ],
      "stateMutability": "view",
      "type": "function"
    },
    {
      "inputs": [],
      "name": "canReveal",
      "outputs": [
        {
          "internalType": "bool",
          "name": "",
          "type": "bool"
        }
      ],
      "stateMutability": "view",
      "type": "function"
    },
    {
      "inputs": [
        {
          "internalType": "uint256",
          "name": "tokenId",
          "type": "uint256"
        }
      ],
      "name": "getApproved",
      "outputs": [
        {
          "internalType": "address",
          "name": "",
          "type": "address"
        }
      ],
      "stateMutability": "view",
      "type": "function"
    },
    {
      "inputs": [
        {
          "internalType": "address",
          "name": "owner",
          "type": "address"
        },
        {
          "internalType": "address",
          "name": "operator",
          "type": "address"
        }
      ],
      "name": "isApprovedForAll",
      "outputs": [
        {
          "internalType": "bool",
          "name": "",
          "type": "bool"
        }
      ],
      "stateMutability": "view",
      "type": "function"
    },
    {
      "inputs": [
        {
          "internalType": "uint256",
          "name": "count",
          "type": "uint256"
        }
      ],
      "name": "mint",
      "outputs": [],
      "stateMutability": "payable",
      "type": "function"
    },
    {
      "inputs": [],
      "name": "name",
      "outputs": [
        {
          "internalType": "string",
          "name": "",
          "type": "string"
        }
      ],
      "stateMutability": "view",
      "type": "function"
    },
    {
      "inputs": [],
      "name": "owner",
      "outputs": [
        {
          "internalType": "address",
          "name": "",
          "type": "address"
        }
      ],
      "stateMutability": "view",
      "type": "function"
    },
    {
      "inputs": [
        {
          "internalType": "uint256",
          "name": "tokenId",
          "type": "uint256"
        }
      ],
      "name": "ownerOf",
      "outputs": [
        {
          "internalType": "address",
          "name": "",
          "type": "address"
        }
      ],
      "stateMutability": "view",
      "type": "function"
    },
    {
      "inputs": [],
      "name": "renounceOwnership",
      "outputs": [],
      "stateMutability": "nonpayable",
      "type": "function"
    },
    {
      "inputs": [
        {
          "internalType": "string",
          "name": "baseUri",
          "type": "string"
        }
      ],
      "name": "reveal",
      "outputs": [],
      "stateMutability": "nonpayable",
      "type": "function"
    },
    {
      "inputs": [
        {
          "internalType": "address",
          "name": "from",
          "type": "address"
        },
        {
          "internalType": "address",
          "name": "to",
          "type": "address"
        },
        {
          "internalType": "uint256",
          "name": "tokenId",
          "type": "uint256"
        }
      ],
      "name": "safeTransferFrom",
      "outputs": [],
      "stateMutability": "nonpayable",
      "type": "function"
    },
    {
      "inputs": [
        {
          "internalType": "address",
          "name": "from",
          "type": "address"
        },
        {
          "internalType": "address",
          "name": "to",
          "type": "address"
        },
        {
          "internalType": "uint256",
          "name": "tokenId",
          "type": "uint256"
        },
        {
          "internalType": "bytes",
          "name": "data",
          "type": "bytes"
        }
      ],
      "name": "safeTransferFrom",
      "outputs": [],
      "stateMutability": "nonpayable",
      "type": "function"
    },
    {
      "inputs": [],
      "name": "saleStatus",
      "outputs": [
        {
          "internalType": "enum TheMutantMushies.SaleStatus",
          "name": "",
          "type": "uint8"
        }
      ],
      "stateMutability": "view",
      "type": "function"
    },
    {
      "inputs": [
        {
          "internalType": "address",
          "name": "operator",
          "type": "address"
        },
        {
          "internalType": "bool",
          "name": "approved",
          "type": "bool"
        }
      ],
      "name": "setApprovalForAll",
      "outputs": [],
      "stateMutability": "nonpayable",
      "type": "function"
    },
    {
      "inputs": [
        {
          "internalType": "string",
          "name": "uri",
          "type": "string"
        }
      ],
      "name": "setHiddenUri",
      "outputs": [],
      "stateMutability": "nonpayable",
      "type": "function"
    },
    {
      "inputs": [
        {
          "internalType": "enum TheMutantMushies.SaleStatus",
          "name": "status",
          "type": "uint8"
        }
      ],
      "name": "setSaleStatus",
      "outputs": [],
      "stateMutability": "nonpayable",
      "type": "function"
    },
    {
      "inputs": [
        {
          "internalType": "bytes4",
          "name": "interfaceId",
          "type": "bytes4"
        }
      ],
      "name": "supportsInterface",
      "outputs": [
        {
          "internalType": "bool",
          "name": "",
          "type": "bool"
        }
      ],
      "stateMutability": "view",
      "type": "function"
    },
    {
      "inputs": [],
      "name": "symbol",
      "outputs": [
        {
          "internalType": "string",
          "name": "",
          "type": "string"
        }
      ],
      "stateMutability": "view",
      "type": "function"
    },
    {
      "inputs": [
        {
          "internalType": "uint256",
          "name": "tokenId",
          "type": "uint256"
        }
      ],
      "name": "tokenURI",
      "outputs": [
        {
          "internalType": "string",
          "name": "",
          "type": "string"
        }
      ],
      "stateMutability": "view",
      "type": "function"
    },
    {
      "inputs": [],
      "name": "totalSupply",
      "outputs": [
        {
          "internalType": "uint256",
          "name": "",
          "type": "uint256"
        }
      ],
      "stateMutability": "view",
      "type": "function"
    },
    {
      "inputs": [
        {
          "internalType": "address",
          "name": "from",
          "type": "address"
        },
        {
          "internalType": "address",
          "name": "to",
          "type": "address"
        },
        {
          "internalType": "uint256",
          "name": "tokenId",
          "type": "uint256"
        }
      ],
      "name": "transferFrom",
      "outputs": [],
      "stateMutability": "nonpayable",
      "type": "function"
    },
    {
      "inputs": [
        {
          "internalType": "address",
          "name": "newOwner",
          "type": "address"
        }
      ],
      "name": "transferOwnership",
      "outputs": [],
      "stateMutability": "nonpayable",
      "type": "function"
    },
    {
      "inputs": [],
      "name": "withdraw",
      "outputs": [],
      "stateMutability": "nonpayable",
      "type": "function"
    }
  ],
  "bytecode": "0x60a06040526000600860006101000a81548160ff021916908360018111156200002d576200002c62000313565b5b02179055506000600860016101000a81548160ff0219169083151502179055503480156200005a57600080fd5b5060405162003ddd38038062003ddd833981810160405281019062000080919062000544565b6040518060400160405280601081526020017f5468654d7574616e744d757368696573000000000000000000000000000000008152506040518060400160405280600381526020017f544d4d000000000000000000000000000000000000000000000000000000000081525081600090805190602001906200010492919062000263565b5080600190805190602001906200011d92919062000263565b50505062000140620001346200019560201b60201c565b6200019d60201b60201c565b81600990805190602001906200015892919062000263565b508073ffffffffffffffffffffffffffffffffffffffff1660808173ffffffffffffffffffffffffffffffffffffffff168152505050506200060e565b600033905090565b6000600660009054906101000a900473ffffffffffffffffffffffffffffffffffffffff16905081600660006101000a81548173ffffffffffffffffffffffffffffffffffffffff021916908373ffffffffffffffffffffffffffffffffffffffff1602179055508173ffffffffffffffffffffffffffffffffffffffff168173ffffffffffffffffffffffffffffffffffffffff167f8be0079c531659141344cd1fd0a4f28419497f9722a3daafe3b4186f6b6457e060405160405180910390a35050565b8280546200027190620005d9565b90600052602060002090601f016020900481019282620002955760008555620002e1565b82601f10620002b057805160ff1916838001178555620002e1565b82800160010185558215620002e1579182015b82811115620002e0578251825591602001919060010190620002c3565b5b509050620002f09190620002f4565b5090565b5b808211156200030f576000816000905550600101620002f5565b5090565b7f4e487b7100000000000000000000000000000000000000000000000000000000600052602160045260246000fd5b6000604051905090565b600080fd5b600080fd5b600080fd5b600080fd5b6000601f19601f8301169050919050565b7f4e487b7100000000000000000000000000000000000000000000000000000000600052604160045260246000fd5b620003ab8262000360565b810181811067ffffffffffffffff82111715620003cd57620003cc62000371565b5b80604052505050565b6000620003e262000342565b9050620003f08282620003a0565b919050565b600067ffffffffffffffff82111562000413576200041262000371565b5b6200041e8262000360565b9050602081019050919050565b60005b838110156200044b5780820151818401526020810190506200042e565b838111156200045b576000848401525b50505050565b6000620004786200047284620003f5565b620003d6565b9050828152602081018484840111156200049757620004966200035b565b5b620004a48482856200042b565b509392505050565b600082601f830112620004c457620004c362000356565b5b8151620004d684826020860162000461565b91505092915050565b600073ffffffffffffffffffffffffffffffffffffffff82169050919050565b60006200050c82620004df565b9050919050565b6200051e81620004ff565b81146200052a57600080fd5b50565b6000815190506200053e8162000513565b92915050565b600080604083850312156200055e576200055d6200034c565b5b600083015167ffffffffffffffff8111156200057f576200057e62000351565b5b6200058d85828601620004ac565b9250506020620005a0858286016200052d565b9150509250929050565b7f4e487b7100000000000000000000000000000000000000000000000000000000600052602260045260246000fd5b60006002820490506001821680620005f257607f821691505b602082108103620006085762000607620005aa565b5b50919050565b6080516137b36200062a6000396000610a4e01526137b36000f3fe6080604052600436106101b75760003560e01c8063715018a6116100ec578063b88d4fde1161008a578063d8258d9511610064578063d8258d95146105d7578063e985e9c514610602578063f2fde38b1461063f578063f9020e3314610668576101b7565b8063b88d4fde14610546578063c002d23d1461056f578063c87b56dd1461059a576101b7565b806395d89b41116100c657806395d89b41146104ab578063a0712d68146104d6578063a22cb465146104f2578063a98426101461051b576101b7565b8063715018a61461043e5780638da5cb5b1461045557806395c7077814610480576101b7565b8063296169d6116101595780634891ad88116101335780634891ad88146103725780634c2612471461039b5780636352211e146103c457806370a0823114610401576101b7565b8063296169d6146103075780633ccfd60b1461033257806342842e0e14610349576101b7565b8063095ea7b311610195578063095ea7b3146102615780631067fcc71461028a57806318160ddd146102b357806323b872dd146102de576101b7565b806301ffc9a7146101bc57806306fdde03146101f9578063081812fc14610224575b600080fd5b3480156101c857600080fd5b506101e360048036038101906101de9190612231565b610693565b6040516101f09190612279565b60405180910390f35b34801561020557600080fd5b5061020e610775565b60405161021b919061232d565b60405180910390f35b34801561023057600080fd5b5061024b60048036038101906102469190612385565b610807565b60405161025891906123f3565b60405180910390f35b34801561026d57600080fd5b506102886004803603810190610283919061243a565b61084d565b005b34801561029657600080fd5b506102b160048036038101906102ac91906125af565b610964565b005b3480156102bf57600080fd5b506102c8610986565b6040516102d59190612607565b60405180910390f35b3480156102ea57600080fd5b5061030560048036038101906103009190612622565b610997565b005b34801561031357600080fd5b5061031c6109f7565b6040516103299190612607565b60405180910390f35b34801561033e57600080fd5b506103476109fc565b005b34801561035557600080fd5b50610370600480360381019061036b9190612622565b610ab6565b005b34801561037e57600080fd5b506103996004803603810190610394919061269a565b610ad6565b005b3480156103a757600080fd5b506103c260048036038101906103bd91906125af565b610b0b565b005b3480156103d057600080fd5b506103eb60048036038101906103e69190612385565b610b98565b6040516103f891906123f3565b60405180910390f35b34801561040d57600080fd5b50610428600480360381019061042391906126c7565b610c49565b6040516104359190612607565b60405180910390f35b34801561044a57600080fd5b50610453610d00565b005b34801561046157600080fd5b5061046a610d14565b60405161047791906123f3565b60405180910390f35b34801561048c57600080fd5b50610495610d3e565b6040516104a29190612607565b60405180910390f35b3480156104b757600080fd5b506104c0610d43565b6040516104cd919061232d565b60405180910390f35b6104f060048036038101906104eb9190612385565b610dd5565b005b3480156104fe57600080fd5b5061051960048036038101906105149190612720565b610fea565b005b34801561052757600080fd5b50610530611000565b60405161053d9190612279565b60405180910390f35b34801561055257600080fd5b5061056d60048036038101906105689190612801565b611013565b005b34801561057b57600080fd5b50610584611075565b6040516105919190612607565b60405180910390f35b3480156105a657600080fd5b506105c160048036038101906105bc9190612385565b611080565b6040516105ce919061232d565b60405180910390f35b3480156105e357600080fd5b506105ec6111a7565b6040516105f99190612607565b60405180910390f35b34801561060e57600080fd5b5061062960048036038101906106249190612884565b6111ad565b6040516106369190612279565b60405180910390f35b34801561064b57600080fd5b50610666600480360381019061066191906126c7565b611241565b005b34801561067457600080fd5b5061067d6112c4565b60405161068a919061293b565b60405180910390f35b60007f80ac58cd000000000000000000000000000000000000000000000000000000007bffffffffffffffffffffffffffffffffffffffffffffffffffffffff1916827bffffffffffffffffffffffffffffffffffffffffffffffffffffffff1916148061075e57507f5b5e139f000000000000000000000000000000000000000000000000000000007bffffffffffffffffffffffffffffffffffffffffffffffffffffffff1916827bffffffffffffffffffffffffffffffffffffffffffffffffffffffff1916145b8061076e575061076d826112d7565b5b9050919050565b60606000805461078490612985565b80601f01602080910402602001604051908101604052809291908181526020018280546107b090612985565b80156107fd5780601f106107d2576101008083540402835291602001916107fd565b820191906000526020600020905b8154815290600101906020018083116107e057829003601f168201915b5050505050905090565b600061081282611341565b6004600083815260200190815260200160002060009054906101000a900473ffffffffffffffffffffffffffffffffffffffff169050919050565b600061085882610b98565b90508073ffffffffffffffffffffffffffffffffffffffff168373ffffffffffffffffffffffffffffffffffffffff16036108c8576040517f08c379a00000000000000000000000000000000000000000000000000000000081526004016108bf90612a28565b60405180910390fd5b8073ffffffffffffffffffffffffffffffffffffffff166108e761138c565b73ffffffffffffffffffffffffffffffffffffffff16148061091657506109158161091061138c565b6111ad565b5b610955576040517f08c379a000000000000000000000000000000000000000000000000000000000815260040161094c90612aba565b60405180910390fd5b61095f8383611394565b505050565b61096c61144d565b8060099080519060200190610982929190612122565b5050565b600061099260076114cb565b905090565b6109a86109a261138c565b826114d9565b6109e7576040517f08c379a00000000000000000000000000000000000000000000000000000000081526004016109de90612b4c565b60405180910390fd5b6109f283838361156e565b505050565b600281565b610a0461144d565b600047905060008111610a4c576040517f08c379a0000000000000000000000000000000000000000000000000000000008152600401610a4390612bb8565b60405180910390fd5b7f000000000000000000000000000000000000000000000000000000000000000073ffffffffffffffffffffffffffffffffffffffff166108fc829081150290604051600060405180830381858888f19350505050158015610ab2573d6000803e3d6000fd5b5050565b610ad183838360405180602001604052806000815250611013565b505050565b610ade61144d565b80600860006101000a81548160ff02191690836001811115610b0357610b026128c4565b5b021790555050565b610b1361144d565b600860019054906101000a900460ff1615610b63576040517f08c379a0000000000000000000000000000000000000000000000000000000008152600401610b5a90612c24565b60405180910390fd5b80600a9080519060200190610b79929190612122565b506001600860016101000a81548160ff02191690831515021790555050565b6000806002600084815260200190815260200160002060009054906101000a900473ffffffffffffffffffffffffffffffffffffffff169050600073ffffffffffffffffffffffffffffffffffffffff168173ffffffffffffffffffffffffffffffffffffffff1603610c40576040517f08c379a0000000000000000000000000000000000000000000000000000000008152600401610c3790612c90565b60405180910390fd5b80915050919050565b60008073ffffffffffffffffffffffffffffffffffffffff168273ffffffffffffffffffffffffffffffffffffffff1603610cb9576040517f08c379a0000000000000000000000000000000000000000000000000000000008152600401610cb090612d22565b60405180910390fd5b600360008373ffffffffffffffffffffffffffffffffffffffff1673ffffffffffffffffffffffffffffffffffffffff168152602001908152602001600020549050919050565b610d0861144d565b610d1260006117d4565b565b6000600660009054906101000a900473ffffffffffffffffffffffffffffffffffffffff16905090565b600281565b606060018054610d5290612985565b80601f0160208091040260200160405190810160405280929190818152602001828054610d7e90612985565b8015610dcb5780601f10610da057610100808354040283529160200191610dcb565b820191906000526020600020905b815481529060010190602001808311610dae57829003601f168201915b5050505050905090565b60006001811115610de957610de86128c4565b5b600860009054906101000a900460ff166001811115610e0b57610e0a6128c4565b5b03610e4b576040517f08c379a0000000000000000000000000000000000000000000000000000000008152600401610e4290612d8e565b60405180910390fd5b66f523226980800081610e5e9190612ddd565b341015610ea0576040517f08c379a0000000000000000000000000000000000000000000000000000000008152600401610e9790612ea9565b60405180910390fd5b6101a481610eae60076114cb565b610eb89190612ec9565b1115610ef9576040517f08c379a0000000000000000000000000000000000000000000000000000000008152600401610ef090612f91565b60405180910390fd5b600281600b60003373ffffffffffffffffffffffffffffffffffffffff1673ffffffffffffffffffffffffffffffffffffffff16815260200190815260200160002054610f469190612ec9565b1115610f87576040517f08c379a0000000000000000000000000000000000000000000000000000000008152600401610f7e90612ffd565b60405180910390fd5b80600b60003373ffffffffffffffffffffffffffffffffffffffff1673ffffffffffffffffffffffffffffffffffffffff1681526020019081526020016000206000828254610fd69190612ec9565b92505081905550610fe7338261189a565b50565b610ffc610ff561138c565b83836118e0565b5050565b600860019054906101000a900460ff1681565b61102461101e61138c565b836114d9565b611063576040517f08c379a000000000000000000000000000000000000000000000000000000000815260040161105a90612b4c565b60405180910390fd5b61106f84848484611a4c565b50505050565b66f523226980800081565b606061108b82611aa8565b6110ca576040517f08c379a00000000000000000000000000000000000000000000000000000000081526004016110c19061308f565b60405180910390fd5b600860019054906101000a900460ff1661116e57600980546110eb90612985565b80601f016020809104026020016040519081016040528092919081815260200182805461111790612985565b80156111645780601f1061113957610100808354040283529160200191611164565b820191906000526020600020905b81548152906001019060200180831161114757829003601f168201915b50505050506111a0565b611176611b14565b61117f83611ba6565b604051602001611190929190613137565b6040516020818303038152906040525b9050919050565b6101a481565b6000600560008473ffffffffffffffffffffffffffffffffffffffff1673ffffffffffffffffffffffffffffffffffffffff16815260200190815260200160002060008373ffffffffffffffffffffffffffffffffffffffff1673ffffffffffffffffffffffffffffffffffffffff16815260200190815260200160002060009054906101000a900460ff16905092915050565b61124961144d565b600073ffffffffffffffffffffffffffffffffffffffff168173ffffffffffffffffffffffffffffffffffffffff16036112b8576040517f08c379a00000000000000000000000000000000000000000000000000000000081526004016112af906131d8565b60405180910390fd5b6112c1816117d4565b50565b600860009054906101000a900460ff1681565b60007f01ffc9a7000000000000000000000000000000000000000000000000000000007bffffffffffffffffffffffffffffffffffffffffffffffffffffffff1916827bffffffffffffffffffffffffffffffffffffffffffffffffffffffff1916149050919050565b61134a81611aa8565b611389576040517f08c379a000000000000000000000000000000000000000000000000000000000815260040161138090612c90565b60405180910390fd5b50565b600033905090565b816004600083815260200190815260200160002060006101000a81548173ffffffffffffffffffffffffffffffffffffffff021916908373ffffffffffffffffffffffffffffffffffffffff160217905550808273ffffffffffffffffffffffffffffffffffffffff1661140783610b98565b73ffffffffffffffffffffffffffffffffffffffff167f8c5be1e5ebec7d5bd14f71427d1e84f3dd0314c0f7b2291e5b200ac8c7c3b92560405160405180910390a45050565b61145561138c565b73ffffffffffffffffffffffffffffffffffffffff16611473610d14565b73ffffffffffffffffffffffffffffffffffffffff16146114c9576040517f08c379a00000000000000000000000000000000000000000000000000000000081526004016114c090613244565b60405180910390fd5b565b600081600001549050919050565b6000806114e583610b98565b90508073ffffffffffffffffffffffffffffffffffffffff168473ffffffffffffffffffffffffffffffffffffffff161480611527575061152681856111ad565b5b8061156557508373ffffffffffffffffffffffffffffffffffffffff1661154d84610807565b73ffffffffffffffffffffffffffffffffffffffff16145b91505092915050565b8273ffffffffffffffffffffffffffffffffffffffff1661158e82610b98565b73ffffffffffffffffffffffffffffffffffffffff16146115e4576040517f08c379a00000000000000000000000000000000000000000000000000000000081526004016115db906132d6565b60405180910390fd5b600073ffffffffffffffffffffffffffffffffffffffff168273ffffffffffffffffffffffffffffffffffffffff1603611653576040517f08c379a000000000000000000000000000000000000000000000000000000000815260040161164a90613368565b60405180910390fd5b61165e838383611d06565b611669600082611394565b6001600360008573ffffffffffffffffffffffffffffffffffffffff1673ffffffffffffffffffffffffffffffffffffffff16815260200190815260200160002060008282546116b99190613388565b925050819055506001600360008473ffffffffffffffffffffffffffffffffffffffff1673ffffffffffffffffffffffffffffffffffffffff16815260200190815260200160002060008282546117109190612ec9565b92505081905550816002600083815260200190815260200160002060006101000a81548173ffffffffffffffffffffffffffffffffffffffff021916908373ffffffffffffffffffffffffffffffffffffffff160217905550808273ffffffffffffffffffffffffffffffffffffffff168473ffffffffffffffffffffffffffffffffffffffff167fddf252ad1be2c89b69c2b068fc378daa952ba7f163c4a11628f55a4df523b3ef60405160405180910390a46117cf838383611d0b565b505050565b6000600660009054906101000a900473ffffffffffffffffffffffffffffffffffffffff16905081600660006101000a81548173ffffffffffffffffffffffffffffffffffffffff021916908373ffffffffffffffffffffffffffffffffffffffff1602179055508173ffffffffffffffffffffffffffffffffffffffff168173ffffffffffffffffffffffffffffffffffffffff167f8be0079c531659141344cd1fd0a4f28419497f9722a3daafe3b4186f6b6457e060405160405180910390a35050565b60005b818110156118db576118af6007611d10565b60006118bb60076114cb565b90506118c78482611d26565b5080806118d3906133bc565b91505061189d565b505050565b8173ffffffffffffffffffffffffffffffffffffffff168373ffffffffffffffffffffffffffffffffffffffff160361194e576040517f08c379a000000000000000000000000000000000000000000000000000000000815260040161194590613450565b60405180910390fd5b80600560008573ffffffffffffffffffffffffffffffffffffffff1673ffffffffffffffffffffffffffffffffffffffff16815260200190815260200160002060008473ffffffffffffffffffffffffffffffffffffffff1673ffffffffffffffffffffffffffffffffffffffff16815260200190815260200160002060006101000a81548160ff0219169083151502179055508173ffffffffffffffffffffffffffffffffffffffff168373ffffffffffffffffffffffffffffffffffffffff167f17307eab39ab6107e8899845ad3d59bd9653f200f220920489ca2b5937696c3183604051611a3f9190612279565b60405180910390a3505050565b611a5784848461156e565b611a6384848484611d44565b611aa2576040517f08c379a0000000000000000000000000000000000000000000000000000000008152600401611a99906134e2565b60405180910390fd5b50505050565b60008073ffffffffffffffffffffffffffffffffffffffff166002600084815260200190815260200160002060009054906101000a900473ffffffffffffffffffffffffffffffffffffffff1673ffffffffffffffffffffffffffffffffffffffff1614159050919050565b6060600a8054611b2390612985565b80601f0160208091040260200160405190810160405280929190818152602001828054611b4f90612985565b8015611b9c5780601f10611b7157610100808354040283529160200191611b9c565b820191906000526020600020905b815481529060010190602001808311611b7f57829003601f168201915b5050505050905090565b606060008203611bed576040518060400160405280600181526020017f30000000000000000000000000000000000000000000000000000000000000008152509050611d01565b600082905060005b60008214611c1f578080611c08906133bc565b915050600a82611c189190613531565b9150611bf5565b60008167ffffffffffffffff811115611c3b57611c3a612484565b5b6040519080825280601f01601f191660200182016040528015611c6d5781602001600182028036833780820191505090505b5090505b60008514611cfa57600182611c869190613388565b9150600a85611c959190613562565b6030611ca19190612ec9565b60f81b818381518110611cb757611cb6613593565b5b60200101907effffffffffffffffffffffffffffffffffffffffffffffffffffffffffffff1916908160001a905350600a85611cf39190613531565b9450611c71565b8093505050505b919050565b505050565b505050565b6001816000016000828254019250508190555050565b611d40828260405180602001604052806000815250611ecb565b5050565b6000611d658473ffffffffffffffffffffffffffffffffffffffff16611f26565b15611ebe578373ffffffffffffffffffffffffffffffffffffffff1663150b7a02611d8e61138c565b8786866040518563ffffffff1660e01b8152600401611db09493929190613617565b6020604051808303816000875af1925050508015611dec57506040513d601f19601f82011682018060405250810190611de99190613678565b60015b611e6e573d8060008114611e1c576040519150601f19603f3d011682016040523d82523d6000602084013e611e21565b606091505b506000815103611e66576040517f08c379a0000000000000000000000000000000000000000000000000000000008152600401611e5d906134e2565b60405180910390fd5b805181602001fd5b63150b7a0260e01b7bffffffffffffffffffffffffffffffffffffffffffffffffffffffff1916817bffffffffffffffffffffffffffffffffffffffffffffffffffffffff191614915050611ec3565b600190505b949350505050565b611ed58383611f49565b611ee26000848484611d44565b611f21576040517f08c379a0000000000000000000000000000000000000000000000000000000008152600401611f18906134e2565b60405180910390fd5b505050565b6000808273ffffffffffffffffffffffffffffffffffffffff163b119050919050565b600073ffffffffffffffffffffffffffffffffffffffff168273ffffffffffffffffffffffffffffffffffffffff1603611fb8576040517f08c379a0000000000000000000000000000000000000000000000000000000008152600401611faf906136f1565b60405180910390fd5b611fc181611aa8565b15612001576040517f08c379a0000000000000000000000000000000000000000000000000000000008152600401611ff89061375d565b60405180910390fd5b61200d60008383611d06565b6001600360008473ffffffffffffffffffffffffffffffffffffffff1673ffffffffffffffffffffffffffffffffffffffff168152602001908152602001600020600082825461205d9190612ec9565b92505081905550816002600083815260200190815260200160002060006101000a81548173ffffffffffffffffffffffffffffffffffffffff021916908373ffffffffffffffffffffffffffffffffffffffff160217905550808273ffffffffffffffffffffffffffffffffffffffff16600073ffffffffffffffffffffffffffffffffffffffff167fddf252ad1be2c89b69c2b068fc378daa952ba7f163c4a11628f55a4df523b3ef60405160405180910390a461211e60008383611d0b565b5050565b82805461212e90612985565b90600052602060002090601f0160209004810192826121505760008555612197565b82601f1061216957805160ff1916838001178555612197565b82800160010185558215612197579182015b8281111561219657825182559160200191906001019061217b565b5b5090506121a491906121a8565b5090565b5b808211156121c15760008160009055506001016121a9565b5090565b6000604051905090565b600080fd5b600080fd5b60007fffffffff0000000000000000000000000000000000000000000000000000000082169050919050565b61220e816121d9565b811461221957600080fd5b50565b60008135905061222b81612205565b92915050565b600060208284031215612247576122466121cf565b5b60006122558482850161221c565b91505092915050565b60008115159050919050565b6122738161225e565b82525050565b600060208201905061228e600083018461226a565b92915050565b600081519050919050565b600082825260208201905092915050565b60005b838110156122ce5780820151818401526020810190506122b3565b838111156122dd576000848401525b50505050565b6000601f19601f8301169050919050565b60006122ff82612294565b612309818561229f565b93506123198185602086016122b0565b612322816122e3565b840191505092915050565b6000602082019050818103600083015261234781846122f4565b905092915050565b6000819050919050565b6123628161234f565b811461236d57600080fd5b50565b60008135905061237f81612359565b92915050565b60006020828403121561239b5761239a6121cf565b5b60006123a984828501612370565b91505092915050565b600073ffffffffffffffffffffffffffffffffffffffff82169050919050565b60006123dd826123b2565b9050919050565b6123ed816123d2565b82525050565b600060208201905061240860008301846123e4565b92915050565b612417816123d2565b811461242257600080fd5b50565b6000813590506124348161240e565b92915050565b60008060408385031215612451576124506121cf565b5b600061245f85828601612425565b925050602061247085828601612370565b9150509250929050565b600080fd5b600080fd5b7f4e487b7100000000000000000000000000000000000000000000000000000000600052604160045260246000fd5b6124bc826122e3565b810181811067ffffffffffffffff821117156124db576124da612484565b5b80604052505050565b60006124ee6121c5565b90506124fa82826124b3565b919050565b600067ffffffffffffffff82111561251a57612519612484565b5b612523826122e3565b9050602081019050919050565b82818337600083830152505050565b600061255261254d846124ff565b6124e4565b90508281526020810184848401111561256e5761256d61247f565b5b612579848285612530565b509392505050565b600082601f8301126125965761259561247a565b5b81356125a684826020860161253f565b91505092915050565b6000602082840312156125c5576125c46121cf565b5b600082013567ffffffffffffffff8111156125e3576125e26121d4565b5b6125ef84828501612581565b91505092915050565b6126018161234f565b82525050565b600060208201905061261c60008301846125f8565b92915050565b60008060006060848603121561263b5761263a6121cf565b5b600061264986828701612425565b935050602061265a86828701612425565b925050604061266b86828701612370565b9150509250925092565b6002811061268257600080fd5b50565b60008135905061269481612675565b92915050565b6000602082840312156126b0576126af6121cf565b5b60006126be84828501612685565b91505092915050565b6000602082840312156126dd576126dc6121cf565b5b60006126eb84828501612425565b91505092915050565b6126fd8161225e565b811461270857600080fd5b50565b60008135905061271a816126f4565b92915050565b60008060408385031215612737576127366121cf565b5b600061274585828601612425565b92505060206127568582860161270b565b9150509250929050565b600067ffffffffffffffff82111561277b5761277a612484565b5b612784826122e3565b9050602081019050919050565b60006127a461279f84612760565b6124e4565b9050828152602081018484840111156127c0576127bf61247f565b5b6127cb848285612530565b509392505050565b600082601f8301126127e8576127e761247a565b5b81356127f8848260208601612791565b91505092915050565b6000806000806080858703121561281b5761281a6121cf565b5b600061282987828801612425565b945050602061283a87828801612425565b935050604061284b87828801612370565b925050606085013567ffffffffffffffff81111561286c5761286b6121d4565b5b612878878288016127d3565b91505092959194509250565b6000806040838503121561289b5761289a6121cf565b5b60006128a985828601612425565b92505060206128ba85828601612425565b9150509250929050565b7f4e487b7100000000000000000000000000000000000000000000000000000000600052602160045260246000fd5b60028110612904576129036128c4565b5b50565b6000819050612915826128f3565b919050565b600061292582612907565b9050919050565b6129358161291a565b82525050565b6000602082019050612950600083018461292c565b92915050565b7f4e487b7100000000000000000000000000000000000000000000000000000000600052602260045260246000fd5b6000600282049050600182168061299d57607f821691505b6020821081036129b0576129af612956565b5b50919050565b7f4552433732313a20617070726f76616c20746f2063757272656e74206f776e6560008201527f7200000000000000000000000000000000000000000000000000000000000000602082015250565b6000612a1260218361229f565b9150612a1d826129b6565b604082019050919050565b60006020820190508181036000830152612a4181612a05565b9050919050565b7f4552433732313a20617070726f76652063616c6c6572206973206e6f7420746f60008201527f6b656e206f776e6572206e6f7220617070726f76656420666f7220616c6c0000602082015250565b6000612aa4603e8361229f565b9150612aaf82612a48565b604082019050919050565b60006020820190508181036000830152612ad381612a97565b9050919050565b7f4552433732313a2063616c6c6572206973206e6f7420746f6b656e206f776e6560008201527f72206e6f7220617070726f766564000000000000000000000000000000000000602082015250565b6000612b36602e8361229f565b9150612b4182612ada565b604082019050919050565b60006020820190508181036000830152612b6581612b29565b9050919050565b7f4e6f2062616c616e636500000000000000000000000000000000000000000000600082015250565b6000612ba2600a8361229f565b9150612bad82612b6c565b602082019050919050565b60006020820190508181036000830152612bd181612b95565b9050919050565b7f416c72656164792052657665616c65642e000000000000000000000000000000600082015250565b6000612c0e60118361229f565b9150612c1982612bd8565b602082019050919050565b60006020820190508181036000830152612c3d81612c01565b9050919050565b7f4552433732313a20696e76616c696420746f6b656e2049440000000000000000600082015250565b6000612c7a60188361229f565b9150612c8582612c44565b602082019050919050565b60006020820190508181036000830152612ca981612c6d565b9050919050565b7f4552433732313a2061646472657373207a65726f206973206e6f74206120766160008201527f6c6964206f776e65720000000000000000000000000000000000000000000000602082015250565b6000612d0c60298361229f565b9150612d1782612cb0565b604082019050919050565b60006020820190508181036000830152612d3b81612cff565b9050919050565b7f53616c657320617265206f666600000000000000000000000000000000000000600082015250565b6000612d78600d8361229f565b9150612d8382612d42565b602082019050919050565b60006020820190508181036000830152612da781612d6b565b9050919050565b7f4e487b7100000000000000000000000000000000000000000000000000000000600052601160045260246000fd5b6000612de88261234f565b9150612df38361234f565b9250817fffffffffffffffffffffffffffffffffffffffffffffffffffffffffffffffff0483118215151615612e2c57612e2b612dae565b5b828202905092915050565b7f45746865722076616c75652073656e74206973206e6f7420737566666963696560008201527f6e74000000000000000000000000000000000000000000000000000000000000602082015250565b6000612e9360228361229f565b9150612e9e82612e37565b604082019050919050565b60006020820190508181036000830152612ec281612e86565b9050919050565b6000612ed48261234f565b9150612edf8361234f565b9250827fffffffffffffffffffffffffffffffffffffffffffffffffffffffffffffffff03821115612f1457612f13612dae565b5b828201905092915050565b7f4e756d626572206f662072657175657374656420746f6b656e732077696c6c2060008201527f65786365656420636f6c6c656374696f6e2073697a6500000000000000000000602082015250565b6000612f7b60368361229f565b9150612f8682612f1f565b604082019050919050565b60006020820190508181036000830152612faa81612f6e565b9050919050565b7f4d6178203220746f6b656e73207065722077616c6c6574000000000000000000600082015250565b6000612fe760178361229f565b9150612ff282612fb1565b602082019050919050565b6000602082019050818103600083015261301681612fda565b9050919050565b7f4552433732314d657461646174613a2055524920717565727920666f72206e6f60008201527f6e6578697374656e7420746f6b656e0000000000000000000000000000000000602082015250565b6000613079602f8361229f565b91506130848261301d565b604082019050919050565b600060208201905081810360008301526130a88161306c565b9050919050565b600081905092915050565b60006130c582612294565b6130cf81856130af565b93506130df8185602086016122b0565b80840191505092915050565b7f2e6a736f6e000000000000000000000000000000000000000000000000000000600082015250565b60006131216005836130af565b915061312c826130eb565b600582019050919050565b600061314382856130ba565b915061314f82846130ba565b915061315a82613114565b91508190509392505050565b7f4f776e61626c653a206e6577206f776e657220697320746865207a65726f206160008201527f6464726573730000000000000000000000000000000000000000000000000000602082015250565b60006131c260268361229f565b91506131cd82613166565b604082019050919050565b600060208201905081810360008301526131f1816131b5565b9050919050565b7f4f776e61626c653a2063616c6c6572206973206e6f7420746865206f776e6572600082015250565b600061322e60208361229f565b9150613239826131f8565b602082019050919050565b6000602082019050818103600083015261325d81613221565b9050919050565b7f4552433732313a207472616e736665722066726f6d20696e636f72726563742060008201527f6f776e6572000000000000000000000000000000000000000000000000000000602082015250565b60006132c060258361229f565b91506132cb82613264565b604082019050919050565b600060208201905081810360008301526132ef816132b3565b9050919050565b7f4552433732313a207472616e7366657220746f20746865207a65726f2061646460008201527f7265737300000000000000000000000000000000000000000000000000000000602082015250565b600061335260248361229f565b915061335d826132f6565b604082019050919050565b6000602082019050818103600083015261338181613345565b9050919050565b60006133938261234f565b915061339e8361234f565b9250828210156133b1576133b0612dae565b5b828203905092915050565b60006133c78261234f565b91507fffffffffffffffffffffffffffffffffffffffffffffffffffffffffffffffff82036133f9576133f8612dae565b5b600182019050919050565b7f4552433732313a20617070726f766520746f2063616c6c657200000000000000600082015250565b600061343a60198361229f565b915061344582613404565b602082019050919050565b600060208201905081810360008301526134698161342d565b9050919050565b7f4552433732313a207472616e7366657220746f206e6f6e20455243373231526560008201527f63656976657220696d706c656d656e7465720000000000000000000000000000602082015250565b60006134cc60328361229f565b91506134d782613470565b604082019050919050565b600060208201905081810360008301526134fb816134bf565b9050919050565b7f4e487b7100000000000000000000000000000000000000000000000000000000600052601260045260246000fd5b600061353c8261234f565b91506135478361234f565b92508261355757613556613502565b5b828204905092915050565b600061356d8261234f565b91506135788361234f565b92508261358857613587613502565b5b828206905092915050565b7f4e487b7100000000000000000000000000000000000000000000000000000000600052603260045260246000fd5b600081519050919050565b600082825260208201905092915050565b60006135e9826135c2565b6135f381856135cd565b93506136038185602086016122b0565b61360c816122e3565b840191505092915050565b600060808201905061362c60008301876123e4565b61363960208301866123e4565b61364660408301856125f8565b818103606083015261365881846135de565b905095945050505050565b60008151905061367281612205565b92915050565b60006020828403121561368e5761368d6121cf565b5b600061369c84828501613663565b91505092915050565b7f4552433732313a206d696e7420746f20746865207a65726f2061646472657373600082015250565b60006136db60208361229f565b91506136e6826136a5565b602082019050919050565b6000602082019050818103600083015261370a816136ce565b9050919050565b7f4552433732313a20746f6b656e20616c7265616479206d696e74656400000000600082015250565b6000613747601c8361229f565b915061375282613711565b602082019050919050565b600060208201905081810360008301526137768161373a565b905091905056fea2646970667358221220b4e1620c3e833fff5c67e9ae6dcab7a810fdd8ff3d60db09d6c7a90711969c5a64736f6c634300080d0033",
  "linkReferences": {},
  "deployedLinkReferences": {}
}