{
  "_format": "hh-sol-artifact-1",
  "contractName": "AntonymMock",
  "sourceName": "contracts/mocks/AntonymMock.sol",
  "abi": [
    {
      "inputs": [],
      "stateMutability": "nonpayable",
      "type": "constructor"
    },
    {
      "inputs": [],
      "name": "ApprovalCallerNotOwnerNorApproved",
      "type": "error"
    },
    {
      "inputs": [],
      "name": "ApprovalQueryForNonexistentToken",
      "type": "error"
    },
    {
      "inputs": [],
      "name": "ApprovalToCurrentOwner",
      "type": "error"
    },
    {
      "inputs": [],
      "name": "ApproveToCaller",
      "type": "error"
    },
    {
      "inputs": [],
      "name": "BalanceQueryForZeroAddress",
      "type": "error"
    },
    {
      "inputs": [],
      "name": "MintToZeroAddress",
      "type": "error"
    },
    {
      "inputs": [],
      "name": "MintZeroQuantity",
      "type": "error"
    },
    {
      "inputs": [],
      "name": "OwnerIndexOutOfBounds",
      "type": "error"
    },
    {
      "inputs": [],
      "name": "OwnerQueryForNonexistentToken",
      "type": "error"
    },
    {
      "inputs": [],
      "name": "TokenIndexOutOfBounds",
      "type": "error"
    },
    {
      "inputs": [],
      "name": "TransferCallerNotOwnerNorApproved",
      "type": "error"
    },
    {
      "inputs": [],
      "name": "TransferFromIncorrectOwner",
      "type": "error"
    },
    {
      "inputs": [],
      "name": "TransferToNonERC721ReceiverImplementer",
      "type": "error"
    },
    {
      "inputs": [],
      "name": "TransferToZeroAddress",
      "type": "error"
    },
    {
      "anonymous": false,
      "inputs": [
        {
          "indexed": true,
          "internalType": "address",
          "name": "owner",
          "type": "address"
        },
        {
          "indexed": true,
          "internalType": "address",
          "name": "approved",
          "type": "address"
        },
        {
          "indexed": true,
          "internalType": "uint256",
          "name": "tokenId",
          "type": "uint256"
        }
      ],
      "name": "Approval",
      "type": "event"
    },
    {
      "anonymous": false,
      "inputs": [
        {
          "indexed": true,
          "internalType": "address",
          "name": "owner",
          "type": "address"
        },
        {
          "indexed": true,
          "internalType": "address",
          "name": "operator",
          "type": "address"
        },
        {
          "indexed": false,
          "internalType": "bool",
          "name": "approved",
          "type": "bool"
        }
      ],
      "name": "ApprovalForAll",
      "type": "event"
    },
    {
      "anonymous": false,
      "inputs": [
        {
          "indexed": true,
          "internalType": "address",
          "name": "previousOwner",
          "type": "address"
        },
        {
          "indexed": true,
          "internalType": "address",
          "name": "newOwner",
          "type": "address"
        }
      ],
      "name": "OwnershipTransferred",
      "type": "event"
    },
    {
      "anonymous": false,
      "inputs": [
        {
          "indexed": true,
          "internalType": "address",
          "name": "from",
          "type": "address"
        },
        {
          "indexed": true,
          "internalType": "address",
          "name": "to",
          "type": "address"
        },
        {
          "indexed": true,
          "internalType": "uint256",
          "name": "tokenId",
          "type": "uint256"
        }
      ],
      "name": "Transfer",
      "type": "event"
    },
    {
      "inputs": [
        {
          "internalType": "address",
          "name": "to",
          "type": "address"
        },
        {
          "internalType": "uint256",
          "name": "tokenId",
          "type": "uint256"
        }
      ],
      "name": "approve",
      "outputs": [],
      "stateMutability": "nonpayable",
      "type": "function"
    },
    {
      "inputs": [
        {
          "internalType": "address",
          "name": "owner",
          "type": "address"
        }
      ],
      "name": "balanceOf",
      "outputs": [
        {
          "internalType": "uint256",
          "name": "",
          "type": "uint256"
        }
      ],
      "stateMutability": "view",
      "type": "function"
    },
    {
      "inputs": [
        {
          "internalType": "uint256",
          "name": "tokenId",
          "type": "uint256"
        }
      ],
      "name": "getApproved",
      "outputs": [
        {
          "internalType": "address",
          "name": "",
          "type": "address"
        }
      ],
      "stateMutability": "view",
      "type": "function"
    },
    {
      "inputs": [
        {
          "internalType": "address",
          "name": "owner",
          "type": "address"
        },
        {
          "internalType": "address",
          "name": "operator",
          "type": "address"
        }
      ],
      "name": "isApprovedForAll",
      "outputs": [
        {
          "internalType": "bool",
          "name": "",
          "type": "bool"
        }
      ],
      "stateMutability": "view",
      "type": "function"
    },
    {
      "inputs": [],
      "name": "name",
      "outputs": [
        {
          "internalType": "string",
          "name": "",
          "type": "string"
        }
      ],
      "stateMutability": "view",
      "type": "function"
    },
    {
      "inputs": [],
      "name": "owner",
      "outputs": [
        {
          "internalType": "address",
          "name": "",
          "type": "address"
        }
      ],
      "stateMutability": "view",
      "type": "function"
    },
    {
      "inputs": [
        {
          "internalType": "uint256",
          "name": "tokenId",
          "type": "uint256"
        }
      ],
      "name": "ownerOf",
      "outputs": [
        {
          "internalType": "address",
          "name": "",
          "type": "address"
        }
      ],
      "stateMutability": "view",
      "type": "function"
    },
    {
      "inputs": [
        {
          "internalType": "address",
          "name": "_account",
          "type": "address"
        },
        {
          "internalType": "uint256",
          "name": "_quantity",
          "type": "uint256"
        }
      ],
      "name": "releaseReserve",
      "outputs": [],
      "stateMutability": "nonpayable",
      "type": "function"
    },
    {
      "inputs": [],
      "name": "renounceOwnership",
      "outputs": [],
      "stateMutability": "nonpayable",
      "type": "function"
    },
    {
      "inputs": [
        {
          "internalType": "address",
          "name": "from",
          "type": "address"
        },
        {
          "internalType": "address",
          "name": "to",
          "type": "address"
        },
        {
          "internalType": "uint256",
          "name": "tokenId",
          "type": "uint256"
        }
      ],
      "name": "safeTransferFrom",
      "outputs": [],
      "stateMutability": "nonpayable",
      "type": "function"
    },
    {
      "inputs": [
        {
          "internalType": "address",
          "name": "from",
          "type": "address"
        },
        {
          "internalType": "address",
          "name": "to",
          "type": "address"
        },
        {
          "internalType": "uint256",
          "name": "tokenId",
          "type": "uint256"
        },
        {
          "internalType": "bytes",
          "name": "_data",
          "type": "bytes"
        }
      ],
      "name": "safeTransferFrom",
      "outputs": [],
      "stateMutability": "nonpayable",
      "type": "function"
    },
    {
      "inputs": [
        {
          "internalType": "address",
          "name": "operator",
          "type": "address"
        },
        {
          "internalType": "bool",
          "name": "approved",
          "type": "bool"
        }
      ],
      "name": "setApprovalForAll",
      "outputs": [],
      "stateMutability": "nonpayable",
      "type": "function"
    },
    {
      "inputs": [
        {
          "internalType": "bytes4",
          "name": "interfaceId",
          "type": "bytes4"
        }
      ],
      "name": "supportsInterface",
      "outputs": [
        {
          "internalType": "bool",
          "name": "",
          "type": "bool"
        }
      ],
      "stateMutability": "view",
      "type": "function"
    },
    {
      "inputs": [],
      "name": "symbol",
      "outputs": [
        {
          "internalType": "string",
          "name": "",
          "type": "string"
        }
      ],
      "stateMutability": "view",
      "type": "function"
    },
    {
      "inputs": [
        {
          "internalType": "uint256",
          "name": "index",
          "type": "uint256"
        }
      ],
      "name": "tokenByIndex",
      "outputs": [
        {
          "internalType": "uint256",
          "name": "",
          "type": "uint256"
        }
      ],
      "stateMutability": "view",
      "type": "function"
    },
    {
      "inputs": [
        {
          "internalType": "address",
          "name": "owner",
          "type": "address"
        },
        {
          "internalType": "uint256",
          "name": "index",
          "type": "uint256"
        }
      ],
      "name": "tokenOfOwnerByIndex",
      "outputs": [
        {
          "internalType": "uint256",
          "name": "",
          "type": "uint256"
        }
      ],
      "stateMutability": "view",
      "type": "function"
    },
    {
      "inputs": [
        {
          "internalType": "uint256",
          "name": "_tokenId",
          "type": "uint256"
        }
      ],
      "name": "tokenURI",
      "outputs": [
        {
          "internalType": "string",
          "name": "",
          "type": "string"
        }
      ],
      "stateMutability": "view",
      "type": "function"
    },
    {
      "inputs": [],
      "name": "totalSupply",
      "outputs": [
        {
          "internalType": "uint256",
          "name": "",
          "type": "uint256"
        }
      ],
      "stateMutability": "view",
      "type": "function"
    },
    {
      "inputs": [
        {
          "internalType": "address",
          "name": "from",
          "type": "address"
        },
        {
          "internalType": "address",
          "name": "to",
          "type": "address"
        },
        {
          "internalType": "uint256",
          "name": "tokenId",
          "type": "uint256"
        }
      ],
      "name": "transferFrom",
      "outputs": [],
      "stateMutability": "nonpayable",
      "type": "function"
    },
    {
      "inputs": [
        {
          "internalType": "address",
          "name": "newOwner",
          "type": "address"
        }
      ],
      "name": "transferOwnership",
      "outputs": [],
      "stateMutability": "nonpayable",
      "type": "function"
    }
  ],
  "bytecode": "0x60806040523480156200001157600080fd5b506040518060400160405280600781526020017f416e746f6e796d000000000000000000000000000000000000000000000000008152506040518060400160405280600781526020017f414e544f4e594d00000000000000000000000000000000000000000000000000815250816002908051906020019062000096929190620001d8565b508060039080519060200190620000af929190620001d8565b505050620000d2620000c66200010a60201b60201c565b6200011260201b60201c565b60405180606001604052806033815260200162002e95603391396009908051906020019062000103929190620001d8565b50620002ec565b600033905090565b6000600860009054906101000a900473ffffffffffffffffffffffffffffffffffffffff16905081600860006101000a81548173ffffffffffffffffffffffffffffffffffffffff021916908373ffffffffffffffffffffffffffffffffffffffff1602179055508173ffffffffffffffffffffffffffffffffffffffff168173ffffffffffffffffffffffffffffffffffffffff167f8be0079c531659141344cd1fd0a4f28419497f9722a3daafe3b4186f6b6457e060405160405180910390a35050565b828054620001e690620002b7565b90600052602060002090601f0160209004810192826200020a576000855562000256565b82601f106200022557805160ff191683800117855562000256565b8280016001018555821562000256579182015b828111156200025557825182559160200191906001019062000238565b5b50905062000265919062000269565b5090565b5b80821115620002845760008160009055506001016200026a565b5090565b7f4e487b7100000000000000000000000000000000000000000000000000000000600052602260045260246000fd5b60006002820490506001821680620002d057607f821691505b602082108103620002e657620002e562000288565b5b50919050565b612b9980620002fc6000396000f3fe608060405234801561001057600080fd5b506004361061012c5760003560e01c806370a08231116100ad578063accb163911610071578063accb163914610343578063b88d4fde1461035f578063c87b56dd1461037b578063e985e9c5146103ab578063f2fde38b146103db5761012c565b806370a08231146102b1578063715018a6146102e15780638da5cb5b146102eb57806395d89b4114610309578063a22cb465146103275761012c565b806323b872dd116100f457806323b872dd146101e95780632f745c591461020557806342842e0e146102355780634f6ccce7146102515780636352211e146102815761012c565b806301ffc9a71461013157806306fdde0314610161578063081812fc1461017f578063095ea7b3146101af57806318160ddd146101cb575b600080fd5b61014b600480360381019061014691906120aa565b6103f7565b60405161015891906120f2565b60405180910390f35b610169610409565b60405161017691906121a6565b60405180910390f35b610199600480360381019061019491906121fe565b61049b565b6040516101a6919061226c565b60405180910390f35b6101c960048036038101906101c491906122b3565b610517565b005b6101d3610621565b6040516101e09190612302565b60405180910390f35b61020360048036038101906101fe919061231d565b61062f565b005b61021f600480360381019061021a91906122b3565b61063f565b60405161022c9190612302565b60405180910390f35b61024f600480360381019061024a919061231d565b610816565b005b61026b600480360381019061026691906121fe565b610836565b6040516102789190612302565b60405180910390f35b61029b600480360381019061029691906121fe565b61097a565b6040516102a8919061226c565b60405180910390f35b6102cb60048036038101906102c69190612370565b610990565b6040516102d89190612302565b60405180910390f35b6102e9610a5f565b005b6102f3610a73565b604051610300919061226c565b60405180910390f35b610311610a9d565b60405161031e91906121a6565b60405180910390f35b610341600480360381019061033c91906123c9565b610b2f565b005b61035d600480360381019061035891906122b3565b610ca6565b005b6103796004803603810190610374919061253e565b610cb4565b005b610395600480360381019061039091906121fe565b610d07565b6040516103a291906121a6565b60405180910390f35b6103c560048036038101906103c091906125c1565b610d83565b6040516103d291906120f2565b60405180910390f35b6103f560048036038101906103f09190612370565b610e17565b005b600061040282610e9a565b9050919050565b60606002805461041890612630565b80601f016020809104026020016040519081016040528092919081815260200182805461044490612630565b80156104915780601f1061046657610100808354040283529160200191610491565b820191906000526020600020905b81548152906001019060200180831161047457829003601f168201915b5050505050905090565b60006104a682610f7c565b6104dc576040517fcf4700e400000000000000000000000000000000000000000000000000000000815260040160405180910390fd5b6006600083815260200190815260200160002060009054906101000a900473ffffffffffffffffffffffffffffffffffffffff169050919050565b60006105228261097a565b90508073ffffffffffffffffffffffffffffffffffffffff168373ffffffffffffffffffffffffffffffffffffffff1603610589576040517f943f7b8c00000000000000000000000000000000000000000000000000000000815260040160405180910390fd5b8073ffffffffffffffffffffffffffffffffffffffff166105a8610fb6565b73ffffffffffffffffffffffffffffffffffffffff16141580156105da57506105d8816105d3610fb6565b610d83565b155b15610611576040517fcfb3b94200000000000000000000000000000000000000000000000000000000815260040160405180910390fd5b61061c838383610fbe565b505050565b600060015460005403905090565b61063a838383611070565b505050565b600061064a83610990565b8210610682576040517f0ddac30e00000000000000000000000000000000000000000000000000000000815260040160405180910390fd5b60008054905060008060005b8381101561080a576000600460008381526020019081526020016000206040518060600160405290816000820160009054906101000a900473ffffffffffffffffffffffffffffffffffffffff1673ffffffffffffffffffffffffffffffffffffffff1673ffffffffffffffffffffffffffffffffffffffff1681526020016000820160149054906101000a900467ffffffffffffffff1667ffffffffffffffff1667ffffffffffffffff16815260200160008201601c9054906101000a900460ff161515151581525050905080604001511561076b57506107fd565b600073ffffffffffffffffffffffffffffffffffffffff16816000015173ffffffffffffffffffffffffffffffffffffffff16146107ab57806000015192505b8773ffffffffffffffffffffffffffffffffffffffff168373ffffffffffffffffffffffffffffffffffffffff16036107fb578684036107f2578195505050505050610810565b83806001019450505b505b808060010191505061068e565b50600080fd5b92915050565b61083183838360405180602001604052806000815250610cb4565b505050565b60008060005490506000805b82811015610942576000600460008381526020019081526020016000206040518060600160405290816000820160009054906101000a900473ffffffffffffffffffffffffffffffffffffffff1673ffffffffffffffffffffffffffffffffffffffff1673ffffffffffffffffffffffffffffffffffffffff1681526020016000820160149054906101000a900467ffffffffffffffff1667ffffffffffffffff1667ffffffffffffffff16815260200160008201601c9054906101000a900460ff161515151581525050905080604001516109345785830361092b5781945050505050610975565b82806001019350505b508080600101915050610842565b506040517fa723001c00000000000000000000000000000000000000000000000000000000815260040160405180910390fd5b919050565b60006109858261155f565b600001519050919050565b60008073ffffffffffffffffffffffffffffffffffffffff168273ffffffffffffffffffffffffffffffffffffffff16036109f7576040517f8f4eb60400000000000000000000000000000000000000000000000000000000815260040160405180910390fd5b600560008373ffffffffffffffffffffffffffffffffffffffff1673ffffffffffffffffffffffffffffffffffffffff16815260200190815260200160002060000160009054906101000a900467ffffffffffffffff1667ffffffffffffffff169050919050565b610a676117db565b610a716000611859565b565b6000600860009054906101000a900473ffffffffffffffffffffffffffffffffffffffff16905090565b606060038054610aac90612630565b80601f0160208091040260200160405190810160405280929190818152602001828054610ad890612630565b8015610b255780601f10610afa57610100808354040283529160200191610b25565b820191906000526020600020905b815481529060010190602001808311610b0857829003601f168201915b5050505050905090565b610b37610fb6565b73ffffffffffffffffffffffffffffffffffffffff168273ffffffffffffffffffffffffffffffffffffffff1603610b9b576040517fb06307db00000000000000000000000000000000000000000000000000000000815260040160405180910390fd5b8060076000610ba8610fb6565b73ffffffffffffffffffffffffffffffffffffffff1673ffffffffffffffffffffffffffffffffffffffff16815260200190815260200160002060008473ffffffffffffffffffffffffffffffffffffffff1673ffffffffffffffffffffffffffffffffffffffff16815260200190815260200160002060006101000a81548160ff0219169083151502179055508173ffffffffffffffffffffffffffffffffffffffff16610c55610fb6565b73ffffffffffffffffffffffffffffffffffffffff167f17307eab39ab6107e8899845ad3d59bd9653f200f220920489ca2b5937696c3183604051610c9a91906120f2565b60405180910390a35050565b610cb0828261191f565b5050565b610cbf848484611070565b610ccb8484848461193d565b610d01576040517fd1a57ed600000000000000000000000000000000000000000000000000000000815260040160405180910390fd5b50505050565b6060610d1282610f7c565b610d51576040517f08c379a0000000000000000000000000000000000000000000000000000000008152600401610d48906126ad565b60405180910390fd5b6009610d5c83611abb565b604051602001610d6d92919061279d565b6040516020818303038152906040529050919050565b6000600760008473ffffffffffffffffffffffffffffffffffffffff1673ffffffffffffffffffffffffffffffffffffffff16815260200190815260200160002060008373ffffffffffffffffffffffffffffffffffffffff1673ffffffffffffffffffffffffffffffffffffffff16815260200190815260200160002060009054906101000a900460ff16905092915050565b610e1f6117db565b600073ffffffffffffffffffffffffffffffffffffffff168173ffffffffffffffffffffffffffffffffffffffff1603610e8e576040517f08c379a0000000000000000000000000000000000000000000000000000000008152600401610e8590612833565b60405180910390fd5b610e9781611859565b50565b60007f80ac58cd000000000000000000000000000000000000000000000000000000007bffffffffffffffffffffffffffffffffffffffffffffffffffffffff1916827bffffffffffffffffffffffffffffffffffffffffffffffffffffffff19161480610f6557507f5b5e139f000000000000000000000000000000000000000000000000000000007bffffffffffffffffffffffffffffffffffffffffffffffffffffffff1916827bffffffffffffffffffffffffffffffffffffffffffffffffffffffff1916145b80610f755750610f7482611c1b565b5b9050919050565b6000805482108015610faf575060046000838152602001908152602001600020600001601c9054906101000a900460ff16155b9050919050565b600033905090565b826006600084815260200190815260200160002060006101000a81548173ffffffffffffffffffffffffffffffffffffffff021916908373ffffffffffffffffffffffffffffffffffffffff160217905550818373ffffffffffffffffffffffffffffffffffffffff168273ffffffffffffffffffffffffffffffffffffffff167f8c5be1e5ebec7d5bd14f71427d1e84f3dd0314c0f7b2291e5b200ac8c7c3b92560405160405180910390a4505050565b600061107b8261155f565b90506000816000015173ffffffffffffffffffffffffffffffffffffffff166110a2610fb6565b73ffffffffffffffffffffffffffffffffffffffff1614806110d557506110d482600001516110cf610fb6565b610d83565b5b8061111a57506110e3610fb6565b73ffffffffffffffffffffffffffffffffffffffff166111028461049b565b73ffffffffffffffffffffffffffffffffffffffff16145b905080611153576040517f59c896be00000000000000000000000000000000000000000000000000000000815260040160405180910390fd5b8473ffffffffffffffffffffffffffffffffffffffff16826000015173ffffffffffffffffffffffffffffffffffffffff16146111bc576040517fa114810000000000000000000000000000000000000000000000000000000000815260040160405180910390fd5b600073ffffffffffffffffffffffffffffffffffffffff168473ffffffffffffffffffffffffffffffffffffffff1603611222576040517fea553b3400000000000000000000000000000000000000000000000000000000815260040160405180910390fd5b61122f8585856001611c85565b61123f6000848460000151610fbe565b6001600560008773ffffffffffffffffffffffffffffffffffffffff1673ffffffffffffffffffffffffffffffffffffffff16815260200190815260200160002060000160008282829054906101000a900467ffffffffffffffff160392506101000a81548167ffffffffffffffff021916908367ffffffffffffffff1602179055506001600560008673ffffffffffffffffffffffffffffffffffffffff1673ffffffffffffffffffffffffffffffffffffffff16815260200190815260200160002060000160008282829054906101000a900467ffffffffffffffff160192506101000a81548167ffffffffffffffff021916908367ffffffffffffffff160217905550836004600085815260200190815260200160002060000160006101000a81548173ffffffffffffffffffffffffffffffffffffffff021916908373ffffffffffffffffffffffffffffffffffffffff160217905550426004600085815260200190815260200160002060000160146101000a81548167ffffffffffffffff021916908367ffffffffffffffff1602179055506000600184019050600073ffffffffffffffffffffffffffffffffffffffff166004600083815260200190815260200160002060000160009054906101000a900473ffffffffffffffffffffffffffffffffffffffff1673ffffffffffffffffffffffffffffffffffffffff16036114ef576000548110156114ee5782600001516004600083815260200190815260200160002060000160006101000a81548173ffffffffffffffffffffffffffffffffffffffff021916908373ffffffffffffffffffffffffffffffffffffffff16021790555082602001516004600083815260200190815260200160002060000160146101000a81548167ffffffffffffffff021916908367ffffffffffffffff1602179055505b5b50828473ffffffffffffffffffffffffffffffffffffffff168673ffffffffffffffffffffffffffffffffffffffff167fddf252ad1be2c89b69c2b068fc378daa952ba7f163c4a11628f55a4df523b3ef60405160405180910390a46115588585856001611c8b565b5050505050565b611567611ffb565b60008290506000548110156117a4576000600460008381526020019081526020016000206040518060600160405290816000820160009054906101000a900473ffffffffffffffffffffffffffffffffffffffff1673ffffffffffffffffffffffffffffffffffffffff1673ffffffffffffffffffffffffffffffffffffffff1681526020016000820160149054906101000a900467ffffffffffffffff1667ffffffffffffffff1667ffffffffffffffff16815260200160008201601c9054906101000a900460ff161515151581525050905080604001516117a257600073ffffffffffffffffffffffffffffffffffffffff16816000015173ffffffffffffffffffffffffffffffffffffffff16146116865780925050506117d6565b5b6001156117a157818060019003925050600460008381526020019081526020016000206040518060600160405290816000820160009054906101000a900473ffffffffffffffffffffffffffffffffffffffff1673ffffffffffffffffffffffffffffffffffffffff1673ffffffffffffffffffffffffffffffffffffffff1681526020016000820160149054906101000a900467ffffffffffffffff1667ffffffffffffffff1667ffffffffffffffff16815260200160008201601c9054906101000a900460ff1615151515815250509050600073ffffffffffffffffffffffffffffffffffffffff16816000015173ffffffffffffffffffffffffffffffffffffffff161461179c5780925050506117d6565b611687565b5b505b6040517fdf2d9b4200000000000000000000000000000000000000000000000000000000815260040160405180910390fd5b919050565b6117e3610fb6565b73ffffffffffffffffffffffffffffffffffffffff16611801610a73565b73ffffffffffffffffffffffffffffffffffffffff1614611857576040517f08c379a000000000000000000000000000000000000000000000000000000000815260040161184e9061289f565b60405180910390fd5b565b6000600860009054906101000a900473ffffffffffffffffffffffffffffffffffffffff16905081600860006101000a81548173ffffffffffffffffffffffffffffffffffffffff021916908373ffffffffffffffffffffffffffffffffffffffff1602179055508173ffffffffffffffffffffffffffffffffffffffff168173ffffffffffffffffffffffffffffffffffffffff167f8be0079c531659141344cd1fd0a4f28419497f9722a3daafe3b4186f6b6457e060405160405180910390a35050565b611939828260405180602001604052806000815250611c91565b5050565b600061195e8473ffffffffffffffffffffffffffffffffffffffff16611ca3565b15611aae578373ffffffffffffffffffffffffffffffffffffffff1663150b7a02611987610fb6565b8786866040518563ffffffff1660e01b81526004016119a99493929190612914565b6020604051808303816000875af19250505080156119e557506040513d601f19601f820116820180604052508101906119e29190612975565b60015b611a5e573d8060008114611a15576040519150601f19603f3d011682016040523d82523d6000602084013e611a1a565b606091505b506000815103611a56576040517fd1a57ed600000000000000000000000000000000000000000000000000000000815260040160405180910390fd5b805181602001fd5b63150b7a0260e01b7bffffffffffffffffffffffffffffffffffffffffffffffffffffffff1916817bffffffffffffffffffffffffffffffffffffffffffffffffffffffff191614915050611ab3565b600190505b949350505050565b606060008203611b02576040518060400160405280600181526020017f30000000000000000000000000000000000000000000000000000000000000008152509050611c16565b600082905060005b60008214611b34578080611b1d906129d1565b915050600a82611b2d9190612a48565b9150611b0a565b60008167ffffffffffffffff811115611b5057611b4f612413565b5b6040519080825280601f01601f191660200182016040528015611b825781602001600182028036833780820191505090505b5090505b60008514611c0f57600182611b9b9190612a79565b9150600a85611baa9190612aad565b6030611bb69190612ade565b60f81b818381518110611bcc57611bcb612b34565b5b60200101907effffffffffffffffffffffffffffffffffffffffffffffffffffffffffffff1916908160001a905350600a85611c089190612a48565b9450611b86565b8093505050505b919050565b60007f01ffc9a7000000000000000000000000000000000000000000000000000000007bffffffffffffffffffffffffffffffffffffffffffffffffffffffff1916827bffffffffffffffffffffffffffffffffffffffffffffffffffffffff1916149050919050565b50505050565b50505050565b611c9e8383836001611cc6565b505050565b6000808273ffffffffffffffffffffffffffffffffffffffff163b119050919050565b600080549050600073ffffffffffffffffffffffffffffffffffffffff168573ffffffffffffffffffffffffffffffffffffffff1603611d32576040517f2e07630000000000000000000000000000000000000000000000000000000000815260040160405180910390fd5b60008403611d6c576040517fb562e8dd00000000000000000000000000000000000000000000000000000000815260040160405180910390fd5b611d796000868387611c85565b83600560008773ffffffffffffffffffffffffffffffffffffffff1673ffffffffffffffffffffffffffffffffffffffff16815260200190815260200160002060000160008282829054906101000a900467ffffffffffffffff160192506101000a81548167ffffffffffffffff021916908367ffffffffffffffff16021790555083600560008773ffffffffffffffffffffffffffffffffffffffff1673ffffffffffffffffffffffffffffffffffffffff16815260200190815260200160002060000160088282829054906101000a900467ffffffffffffffff160192506101000a81548167ffffffffffffffff021916908367ffffffffffffffff160217905550846004600083815260200190815260200160002060000160006101000a81548173ffffffffffffffffffffffffffffffffffffffff021916908373ffffffffffffffffffffffffffffffffffffffff160217905550426004600083815260200190815260200160002060000160146101000a81548167ffffffffffffffff021916908367ffffffffffffffff160217905550600081905060005b85811015611fde57818773ffffffffffffffffffffffffffffffffffffffff16600073ffffffffffffffffffffffffffffffffffffffff167fddf252ad1be2c89b69c2b068fc378daa952ba7f163c4a11628f55a4df523b3ef60405160405180910390a4838015611f925750611f90600088848861193d565b155b15611fc9576040517fd1a57ed600000000000000000000000000000000000000000000000000000000815260040160405180910390fd5b81806001019250508080600101915050611f17565b508060008190555050611ff46000868387611c8b565b5050505050565b6040518060600160405280600073ffffffffffffffffffffffffffffffffffffffff168152602001600067ffffffffffffffff1681526020016000151581525090565b6000604051905090565b600080fd5b600080fd5b60007fffffffff0000000000000000000000000000000000000000000000000000000082169050919050565b61208781612052565b811461209257600080fd5b50565b6000813590506120a48161207e565b92915050565b6000602082840312156120c0576120bf612048565b5b60006120ce84828501612095565b91505092915050565b60008115159050919050565b6120ec816120d7565b82525050565b600060208201905061210760008301846120e3565b92915050565b600081519050919050565b600082825260208201905092915050565b60005b8381101561214757808201518184015260208101905061212c565b83811115612156576000848401525b50505050565b6000601f19601f8301169050919050565b60006121788261210d565b6121828185612118565b9350612192818560208601612129565b61219b8161215c565b840191505092915050565b600060208201905081810360008301526121c0818461216d565b905092915050565b6000819050919050565b6121db816121c8565b81146121e657600080fd5b50565b6000813590506121f8816121d2565b92915050565b60006020828403121561221457612213612048565b5b6000612222848285016121e9565b91505092915050565b600073ffffffffffffffffffffffffffffffffffffffff82169050919050565b60006122568261222b565b9050919050565b6122668161224b565b82525050565b6000602082019050612281600083018461225d565b92915050565b6122908161224b565b811461229b57600080fd5b50565b6000813590506122ad81612287565b92915050565b600080604083850312156122ca576122c9612048565b5b60006122d88582860161229e565b92505060206122e9858286016121e9565b9150509250929050565b6122fc816121c8565b82525050565b600060208201905061231760008301846122f3565b92915050565b60008060006060848603121561233657612335612048565b5b60006123448682870161229e565b93505060206123558682870161229e565b9250506040612366868287016121e9565b9150509250925092565b60006020828403121561238657612385612048565b5b60006123948482850161229e565b91505092915050565b6123a6816120d7565b81146123b157600080fd5b50565b6000813590506123c38161239d565b92915050565b600080604083850312156123e0576123df612048565b5b60006123ee8582860161229e565b92505060206123ff858286016123b4565b9150509250929050565b600080fd5b600080fd5b7f4e487b7100000000000000000000000000000000000000000000000000000000600052604160045260246000fd5b61244b8261215c565b810181811067ffffffffffffffff8211171561246a57612469612413565b5b80604052505050565b600061247d61203e565b90506124898282612442565b919050565b600067ffffffffffffffff8211156124a9576124a8612413565b5b6124b28261215c565b9050602081019050919050565b82818337600083830152505050565b60006124e16124dc8461248e565b612473565b9050828152602081018484840111156124fd576124fc61240e565b5b6125088482856124bf565b509392505050565b600082601f83011261252557612524612409565b5b81356125358482602086016124ce565b91505092915050565b6000806000806080858703121561255857612557612048565b5b60006125668782880161229e565b94505060206125778782880161229e565b9350506040612588878288016121e9565b925050606085013567ffffffffffffffff8111156125a9576125a861204d565b5b6125b587828801612510565b91505092959194509250565b600080604083850312156125d8576125d7612048565b5b60006125e68582860161229e565b92505060206125f78582860161229e565b9150509250929050565b7f4e487b7100000000000000000000000000000000000000000000000000000000600052602260045260246000fd5b6000600282049050600182168061264857607f821691505b60208210810361265b5761265a612601565b5b50919050565b7f43616e6e6f74207175657279206e6f6e2d6578697374656e7420746f6b656e00600082015250565b6000612697601f83612118565b91506126a282612661565b602082019050919050565b600060208201905081810360008301526126c68161268a565b9050919050565b600081905092915050565b60008190508160005260206000209050919050565b600081546126fa81612630565b61270481866126cd565b9450600182166000811461271f576001811461273057612763565b60ff19831686528186019350612763565b612739856126d8565b60005b8381101561275b5781548189015260018201915060208101905061273c565b838801955050505b50505092915050565b60006127778261210d565b61278181856126cd565b9350612791818560208601612129565b80840191505092915050565b60006127a982856126ed565b91506127b5828461276c565b91508190509392505050565b7f4f776e61626c653a206e6577206f776e657220697320746865207a65726f206160008201527f6464726573730000000000000000000000000000000000000000000000000000602082015250565b600061281d602683612118565b9150612828826127c1565b604082019050919050565b6000602082019050818103600083015261284c81612810565b9050919050565b7f4f776e61626c653a2063616c6c6572206973206e6f7420746865206f776e6572600082015250565b6000612889602083612118565b915061289482612853565b602082019050919050565b600060208201905081810360008301526128b88161287c565b9050919050565b600081519050919050565b600082825260208201905092915050565b60006128e6826128bf565b6128f081856128ca565b9350612900818560208601612129565b6129098161215c565b840191505092915050565b6000608082019050612929600083018761225d565b612936602083018661225d565b61294360408301856122f3565b818103606083015261295581846128db565b905095945050505050565b60008151905061296f8161207e565b92915050565b60006020828403121561298b5761298a612048565b5b600061299984828501612960565b91505092915050565b7f4e487b7100000000000000000000000000000000000000000000000000000000600052601160045260246000fd5b60006129dc826121c8565b91507fffffffffffffffffffffffffffffffffffffffffffffffffffffffffffffffff8203612a0e57612a0d6129a2565b5b600182019050919050565b7f4e487b7100000000000000000000000000000000000000000000000000000000600052601260045260246000fd5b6000612a53826121c8565b9150612a5e836121c8565b925082612a6e57612a6d612a19565b5b828204905092915050565b6000612a84826121c8565b9150612a8f836121c8565b925082821015612aa257612aa16129a2565b5b828203905092915050565b6000612ab8826121c8565b9150612ac3836121c8565b925082612ad357612ad2612a19565b5b828206905092915050565b6000612ae9826121c8565b9150612af4836121c8565b9250827fffffffffffffffffffffffffffffffffffffffffffffffffffffffffffffffff03821115612b2957612b286129a2565b5b828201905092915050565b7f4e487b7100000000000000000000000000000000000000000000000000000000600052603260045260246000fdfea264697066735822122083535f16ef5a84e19b8248c0a96601f6da410ac319815338917ce91062e159b064736f6c634300080d003368747470733a2f2f616e746f6e796d6e66742e73332e75732d776573742d312e616d617a6f6e6177732e636f6d2f6a736f6e2f",
  "linkReferences": {},
  "deployedLinkReferences": {}
}