{
  "contracts/MerkleProofWrapper.sol": {
    "MerkleProofWrapper": {
      "abi": [
        {
          "inputs": [
            {
              "internalType": "uint256[]",
              "name": "tokenIds",
              "type": "uint256[]"
            }
          ],
          "name": "getLeaves",
          "outputs": [
            {
              "internalType": "bytes32[]",
              "name": "leaves",
              "type": "bytes32[]"
            }
          ],
          "stateMutability": "pure",
          "type": "function"
        },
        {
          "inputs": [
            {
              "internalType": "uint256[]",
              "name": "tokenIds",
              "type": "uint256[]"
            },
            {
              "internalType": "bytes32[]",
              "name": "proofs",
              "type": "bytes32[]"
            },
            {
              "internalType": "bool[]",
              "name": "proofFlag",
              "type": "bool[]"
            },
            {
              "internalType": "bytes32",
              "name": "root",
              "type": "bytes32"
            }
          ],
          "name": "multiProofVerify",
          "outputs": [
            {
              "internalType": "bool",
              "name": "",
              "type": "bool"
            }
          ],
          "stateMutability": "pure",
          "type": "function"
        },
        {
          "inputs": [
            {
              "internalType": "bytes32[]",
              "name": "proofs",
              "type": "bytes32[]"
            },
            {
              "internalType": "bool[]",
              "name": "proofFlag",
              "type": "bool[]"
            },
            {
              "internalType": "bytes32",
              "name": "root",
              "type": "bytes32"
            },
            {
              "internalType": "bytes32[]",
              "name": "leaves",
              "type": "bytes32[]"
            }
          ],
          "name": "multiProofVerifyCalldata",
          "outputs": [
            {
              "internalType": "bool",
              "name": "",
              "type": "bool"
            }
          ],
          "stateMutability": "pure",
          "type": "function"
        },
        {
          "inputs": [
            {
              "internalType": "bytes32[]",
              "name": "proofs",
              "type": "bytes32[]"
            },
            {
              "internalType": "bool[]",
              "name": "proofFlag",
              "type": "bool[]"
            },
            {
              "internalType": "bytes32[]",
              "name": "leaves",
              "type": "bytes32[]"
            }
          ],
          "name": "processMultiProof",
          "outputs": [
            {
              "internalType": "bytes32",
              "name": "",
              "type": "bytes32"
            }
          ],
          "stateMutability": "pure",
          "type": "function"
        },
        {
          "inputs": [
            {
              "internalType": "bytes32[]",
              "name": "proofs",
              "type": "bytes32[]"
            },
            {
              "internalType": "bool[]",
              "name": "proofFlag",
              "type": "bool[]"
            },
            {
              "internalType": "bytes32[]",
              "name": "leaves",
              "type": "bytes32[]"
            }
          ],
          "name": "processMultiProofCalldata",
          "outputs": [
            {
              "internalType": "bytes32",
              "name": "",
              "type": "bytes32"
            }
          ],
          "stateMutability": "pure",
          "type": "function"
        },
        {
          "inputs": [
            {
              "internalType": "bytes32[]",
              "name": "proof",
              "type": "bytes32[]"
            },
            {
              "internalType": "bytes32",
              "name": "leaf",
              "type": "bytes32"
            }
          ],
          "name": "processProof",
          "outputs": [
            {
              "internalType": "bytes32",
              "name": "",
              "type": "bytes32"
            }
          ],
          "stateMutability": "pure",
          "type": "function"
        },
        {
          "inputs": [
            {
              "internalType": "bytes32[]",
              "name": "proof",
              "type": "bytes32[]"
            },
            {
              "internalType": "bytes32",
              "name": "leaf",
              "type": "bytes32"
            }
          ],
          "name": "processProofCalldata",
          "outputs": [
            {
              "internalType": "bytes32",
              "name": "",
              "type": "bytes32"
            }
          ],
          "stateMutability": "pure",
          "type": "function"
        },
        {
          "inputs": [
            {
              "internalType": "bytes32[]",
              "name": "proof",
              "type": "bytes32[]"
            },
            {
              "internalType": "bytes32",
              "name": "root",
              "type": "bytes32"
            },
            {
              "internalType": "bytes32",
              "name": "leaf",
              "type": "bytes32"
            }
          ],
          "name": "verify",
          "outputs": [
            {
              "internalType": "bool",
              "name": "",
              "type": "bool"
            }
          ],
          "stateMutability": "pure",
          "type": "function"
        },
        {
          "inputs": [
            {
              "internalType": "bytes32[]",
              "name": "proof",
              "type": "bytes32[]"
            },
            {
              "internalType": "bytes32",
              "name": "root",
              "type": "bytes32"
            },
            {
              "internalType": "bytes32",
              "name": "leaf",
              "type": "bytes32"
            }
          ],
          "name": "verifyCalldata",
          "outputs": [
            {
              "internalType": "bool",
              "name": "",
              "type": "bool"
            }
          ],
          "stateMutability": "pure",
          "type": "function"
        }
      ],
      "evm": {
        "bytecode": {
          "linkReferences": {},
          "object": "608060405234801561001057600080fd5b50611872806100206000396000f3fe608060405234801561001057600080fd5b50600436106100935760003560e01c80637ffe9d8c116100665780637ffe9d8c14610158578063862aac9614610188578063e05cc48a146101b8578063ea5d3eb6146101e8578063f514972c1461021857610093565b806332712d221461009857806353b0f85f146100c85780635a9a49c7146100f857806362702a6b14610128575b600080fd5b6100b260048036038101906100ad9190610dbb565b610248565b6040516100bf9190610e7b565b60405180910390f35b6100e260048036038101906100dd9190610e96565b610262565b6040516100ef9190610e7b565b60405180910390f35b610112600480360381019061010d9190610ef6565b610278565b60405161011f9190610f80565b60405180910390f35b610142600480360381019061013d9190610f9b565b61028e565b60405161014f9190610e7b565b60405180910390f35b610172600480360381019061016d9190610ff7565b6102a2565b60405161017f9190610f80565b60405180910390f35b6101a2600480360381019061019d919061106b565b6102ba565b6040516101af9190610f80565b60405180910390f35b6101d260048036038101906101cd9190611227565b6102d6565b6040516101df919061132e565b60405180910390f35b61020260048036038101906101fd919061143f565b6103af565b60405161020f9190610e7b565b60405180910390f35b610232600480360381019061022d919061153c565b6103c5565b60405161023f9190610f80565b60405180910390f35b600061025786868686866104b2565b905095945050505050565b600061026f84848461076a565b90509392505050565b60006102858484846107c2565b90509392505050565b600061029a83836107d9565b905092915050565b60006102b08585858561082f565b9050949350505050565b60006102ca878787878787610848565b90509695505050505050565b6060815167ffffffffffffffff8111156102f3576102f2610c47565b5b6040519080825280602002602001820160405280156103215781602001602082028036833780820191505090505b50905060005b82518110156103a9576000838281518110610345576103446115fc565b5b6020026020010151905080604051602001610360919061163a565b60405160208183030381529060405280519060200120838381518110610389576103886115fc565b5b6020026020010181815250505080806103a190611684565b915050610327565b50919050565b60006103bc848484610865565b90509392505050565b60008086869050905060008167ffffffffffffffff8111156103ea576103e9610c47565b5b6040519080825280602002602001820160405280156104185781602001602082028036833780820191505090505b50905060005b8281101561049857888882818110610439576104386115fc565b5b9050602002013560405160200161045091906116ed565b60405160208183030381529060405280519060200120828281518110610479576104786115fc565b5b602002602001018181525050808061049090611684565b91505061041e565b506104a586868684610b0c565b9250505095945050505050565b60008082519050600085859050905080600189899050846104d39190611708565b6104dd919061175e565b1461051d576040517f08c379a0000000000000000000000000000000000000000000000000000000008152600401610514906117ef565b60405180910390fd5b60008167ffffffffffffffff81111561053957610538610c47565b5b6040519080825280602002602001820160405280156105675781602001602082028036833780820191505090505b5090506000806000805b858110156106cd5760008785106105ae5785848061058e90611684565b9550815181106105a1576105a06115fc565b5b60200260200101516105d6565b8985806105ba90611684565b9650815181106105cd576105cc6115fc565b5b60200260200101515b905060008c8c848181106105ed576105ec6115fc565b5b9050602002016020810190610602919061180f565b610631578e8e858061061390611684565b9650818110610625576106246115fc565b5b9050602002013561068d565b8886106106645786858061064490611684565b965081518110610657576106566115fc565b5b602002602001015161068c565b8a868061067090611684565b975081518110610683576106826115fc565b5b60200260200101515b5b90506106998282610b25565b8784815181106106ac576106ab6115fc565b5b602002602001018181525050505080806106c590611684565b915050610571565b50600085111561070b57836001866106e5919061175e565b815181106106f6576106f56115fc565b5b60200260200101519650505050505050610761565b600086111561073d5787600081518110610728576107276115fc565b5b60200260200101519650505050505050610761565b8b8b6000818110610751576107506115fc565b5b9050602002013596505050505050505b95945050505050565b60008082905060005b858590508110156107b6576107a182878784818110610795576107946115fc565b5b90506020020135610b25565b915080806107ae90611684565b915050610773565b50809150509392505050565b6000826107cf85846107d9565b1490509392505050565b60008082905060005b84518110156108245761080f82868381518110610802576108016115fc565b5b6020026020010151610b25565b9150808061081c90611684565b9150506107e2565b508091505092915050565b60008261083d86868561076a565b149050949350505050565b60008261085888888888876104b2565b1490509695505050505050565b600080825190506000845190508060018751846108829190611708565b61088c919061175e565b146108cc576040517f08c379a00000000000000000000000000000000000000000000000000000000081526004016108c3906117ef565b60405180910390fd5b60008167ffffffffffffffff8111156108e8576108e7610c47565b5b6040519080825280602002602001820160405280156109165781602001602082028036833780820191505090505b5090506000806000805b85811015610a7057600087851061095d5785848061093d90611684565b9550815181106109505761094f6115fc565b5b6020026020010151610985565b89858061096990611684565b96508151811061097c5761097b6115fc565b5b60200260200101515b905060008b838151811061099c5761099b6115fc565b5b60200260200101516109d4578c84806109b490611684565b9550815181106109c7576109c66115fc565b5b6020026020010151610a30565b888610610a07578685806109e790611684565b9650815181106109fa576109f96115fc565b5b6020026020010151610a2f565b8a8680610a1390611684565b975081518110610a2657610a256115fc565b5b60200260200101515b5b9050610a3c8282610b25565b878481518110610a4f57610a4e6115fc565b5b60200260200101818152505050508080610a6890611684565b915050610920565b506000851115610aae5783600186610a88919061175e565b81518110610a9957610a986115fc565b5b60200260200101519650505050505050610b05565b6000861115610ae05787600081518110610acb57610aca6115fc565b5b60200260200101519650505050505050610b05565b89600081518110610af457610af36115fc565b5b602002602001015196505050505050505b9392505050565b600082610b1a868685610865565b149050949350505050565b6000818310610b3d57610b388284610b50565b610b48565b610b478383610b50565b5b905092915050565b600082600052816020526040600020905092915050565b6000604051905090565b600080fd5b600080fd5b600080fd5b600080fd5b600080fd5b60008083601f840112610ba057610b9f610b7b565b5b8235905067ffffffffffffffff811115610bbd57610bbc610b80565b5b602083019150836020820283011115610bd957610bd8610b85565b5b9250929050565b60008083601f840112610bf657610bf5610b7b565b5b8235905067ffffffffffffffff811115610c1357610c12610b80565b5b602083019150836020820283011115610c2f57610c2e610b85565b5b9250929050565b6000601f19601f8301169050919050565b7f4e487b7100000000000000000000000000000000000000000000000000000000600052604160045260246000fd5b610c7f82610c36565b810181811067ffffffffffffffff82111715610c9e57610c9d610c47565b5b80604052505050565b6000610cb1610b67565b9050610cbd8282610c76565b919050565b600067ffffffffffffffff821115610cdd57610cdc610c47565b5b602082029050602081019050919050565b6000819050919050565b610d0181610cee565b8114610d0c57600080fd5b50565b600081359050610d1e81610cf8565b92915050565b6000610d37610d3284610cc2565b610ca7565b90508083825260208201905060208402830185811115610d5a57610d59610b85565b5b835b81811015610d835780610d6f8882610d0f565b845260208401935050602081019050610d5c565b5050509392505050565b600082601f830112610da257610da1610b7b565b5b8135610db2848260208601610d24565b91505092915050565b600080600080600060608688031215610dd757610dd6610b71565b5b600086013567ffffffffffffffff811115610df557610df4610b76565b5b610e0188828901610b8a565b9550955050602086013567ffffffffffffffff811115610e2457610e23610b76565b5b610e3088828901610be0565b9350935050604086013567ffffffffffffffff811115610e5357610e52610b76565b5b610e5f88828901610d8d565b9150509295509295909350565b610e7581610cee565b82525050565b6000602082019050610e906000830184610e6c565b92915050565b600080600060408486031215610eaf57610eae610b71565b5b600084013567ffffffffffffffff811115610ecd57610ecc610b76565b5b610ed986828701610b8a565b93509350506020610eec86828701610d0f565b9150509250925092565b600080600060608486031215610f0f57610f0e610b71565b5b600084013567ffffffffffffffff811115610f2d57610f2c610b76565b5b610f3986828701610d8d565b9350506020610f4a86828701610d0f565b9250506040610f5b86828701610d0f565b9150509250925092565b60008115159050919050565b610f7a81610f65565b82525050565b6000602082019050610f956000830184610f71565b92915050565b60008060408385031215610fb257610fb1610b71565b5b600083013567ffffffffffffffff811115610fd057610fcf610b76565b5b610fdc85828601610d8d565b9250506020610fed85828601610d0f565b9150509250929050565b6000806000806060858703121561101157611010610b71565b5b600085013567ffffffffffffffff81111561102f5761102e610b76565b5b61103b87828801610b8a565b9450945050602061104e87828801610d0f565b925050604061105f87828801610d0f565b91505092959194509250565b6000806000806000806080878903121561108857611087610b71565b5b600087013567ffffffffffffffff8111156110a6576110a5610b76565b5b6110b289828a01610b8a565b9650965050602087013567ffffffffffffffff8111156110d5576110d4610b76565b5b6110e189828a01610be0565b945094505060406110f489828a01610d0f565b925050606087013567ffffffffffffffff81111561111557611114610b76565b5b61112189828a01610d8d565b9150509295509295509295565b600067ffffffffffffffff82111561114957611148610c47565b5b602082029050602081019050919050565b6000819050919050565b61116d8161115a565b811461117857600080fd5b50565b60008135905061118a81611164565b92915050565b60006111a361119e8461112e565b610ca7565b905080838252602082019050602084028301858111156111c6576111c5610b85565b5b835b818110156111ef57806111db888261117b565b8452602084019350506020810190506111c8565b5050509392505050565b600082601f83011261120e5761120d610b7b565b5b813561121e848260208601611190565b91505092915050565b60006020828403121561123d5761123c610b71565b5b600082013567ffffffffffffffff81111561125b5761125a610b76565b5b611267848285016111f9565b91505092915050565b600081519050919050565b600082825260208201905092915050565b6000819050602082019050919050565b6112a581610cee565b82525050565b60006112b7838361129c565b60208301905092915050565b6000602082019050919050565b60006112db82611270565b6112e5818561127b565b93506112f08361128c565b8060005b8381101561132157815161130888826112ab565b9750611313836112c3565b9250506001810190506112f4565b5085935050505092915050565b6000602082019050818103600083015261134881846112d0565b905092915050565b600067ffffffffffffffff82111561136b5761136a610c47565b5b602082029050602081019050919050565b61138581610f65565b811461139057600080fd5b50565b6000813590506113a28161137c565b92915050565b60006113bb6113b684611350565b610ca7565b905080838252602082019050602084028301858111156113de576113dd610b85565b5b835b8181101561140757806113f38882611393565b8452602084019350506020810190506113e0565b5050509392505050565b600082601f83011261142657611425610b7b565b5b81356114368482602086016113a8565b91505092915050565b60008060006060848603121561145857611457610b71565b5b600084013567ffffffffffffffff81111561147657611475610b76565b5b61148286828701610d8d565b935050602084013567ffffffffffffffff8111156114a3576114a2610b76565b5b6114af86828701611411565b925050604084013567ffffffffffffffff8111156114d0576114cf610b76565b5b6114dc86828701610d8d565b9150509250925092565b60008083601f8401126114fc576114fb610b7b565b5b8235905067ffffffffffffffff81111561151957611518610b80565b5b60208301915083602082028301111561153557611534610b85565b5b9250929050565b60008060008060006080868803121561155857611557610b71565b5b600086013567ffffffffffffffff81111561157657611575610b76565b5b611582888289016114e6565b9550955050602086013567ffffffffffffffff8111156115a5576115a4610b76565b5b6115b188828901610d8d565b935050604086013567ffffffffffffffff8111156115d2576115d1610b76565b5b6115de88828901611411565b92505060606115ef88828901610d0f565b9150509295509295909350565b7f4e487b7100000000000000000000000000000000000000000000000000000000600052603260045260246000fd5b6116348161115a565b82525050565b600060208201905061164f600083018461162b565b92915050565b7f4e487b7100000000000000000000000000000000000000000000000000000000600052601160045260246000fd5b600061168f8261115a565b91507fffffffffffffffffffffffffffffffffffffffffffffffffffffffffffffffff82036116c1576116c0611655565b5b600182019050919050565b6000819050919050565b6116e76116e28261115a565b6116cc565b82525050565b60006116f982846116d6565b60208201915081905092915050565b60006117138261115a565b915061171e8361115a565b9250827fffffffffffffffffffffffffffffffffffffffffffffffffffffffffffffffff0382111561175357611752611655565b5b828201905092915050565b60006117698261115a565b91506117748361115a565b92508282101561178757611786611655565b5b828203905092915050565b600082825260208201905092915050565b7f4d65726b6c6550726f6f663a20696e76616c6964206d756c746970726f6f6600600082015250565b60006117d9601f83611792565b91506117e4826117a3565b602082019050919050565b60006020820190508181036000830152611808816117cc565b9050919050565b60006020828403121561182557611824610b71565b5b600061183384828501611393565b9150509291505056fea264697066735822122019e18100b8c692e6e4628025a6da7e8eef0d30249bafc8176cb4100f1f43dd0764736f6c634300080d0033",
          "opcodes": "PUSH1 0x80 PUSH1 0x40 MSTORE CALLVALUE DUP1 ISZERO PUSH2 0x10 JUMPI PUSH1 0x0 DUP1 REVERT JUMPDEST POP PUSH2 0x1872 DUP1 PUSH2 0x20 PUSH1 0x0 CODECOPY PUSH1 0x0 RETURN INVALID PUSH1 0x80 PUSH1 0x40 MSTORE CALLVALUE DUP1 ISZERO PUSH2 0x10 JUMPI PUSH1 0x0 DUP1 REVERT JUMPDEST POP PUSH1 0x4 CALLDATASIZE LT PUSH2 0x93 JUMPI PUSH1 0x0 CALLDATALOAD PUSH1 0xE0 SHR DUP1 PUSH4 0x7FFE9D8C GT PUSH2 0x66 JUMPI DUP1 PUSH4 0x7FFE9D8C EQ PUSH2 0x158 JUMPI DUP1 PUSH4 0x862AAC96 EQ PUSH2 0x188 JUMPI DUP1 PUSH4 0xE05CC48A EQ PUSH2 0x1B8 JUMPI DUP1 PUSH4 0xEA5D3EB6 EQ PUSH2 0x1E8 JUMPI DUP1 PUSH4 0xF514972C EQ PUSH2 0x218 JUMPI PUSH2 0x93 JUMP JUMPDEST DUP1 PUSH4 0x32712D22 EQ PUSH2 0x98 JUMPI DUP1 PUSH4 0x53B0F85F EQ PUSH2 0xC8 JUMPI DUP1 PUSH4 0x5A9A49C7 EQ PUSH2 0xF8 JUMPI DUP1 PUSH4 0x62702A6B EQ PUSH2 0x128 JUMPI JUMPDEST PUSH1 0x0 DUP1 REVERT JUMPDEST PUSH2 0xB2 PUSH1 0x4 DUP1 CALLDATASIZE SUB DUP2 ADD SWAP1 PUSH2 0xAD SWAP2 SWAP1 PUSH2 0xDBB JUMP JUMPDEST PUSH2 0x248 JUMP JUMPDEST PUSH1 0x40 MLOAD PUSH2 0xBF SWAP2 SWAP1 PUSH2 0xE7B JUMP JUMPDEST PUSH1 0x40 MLOAD DUP1 SWAP2 SUB SWAP1 RETURN JUMPDEST PUSH2 0xE2 PUSH1 0x4 DUP1 CALLDATASIZE SUB DUP2 ADD SWAP1 PUSH2 0xDD SWAP2 SWAP1 PUSH2 0xE96 JUMP JUMPDEST PUSH2 0x262 JUMP JUMPDEST PUSH1 0x40 MLOAD PUSH2 0xEF SWAP2 SWAP1 PUSH2 0xE7B JUMP JUMPDEST PUSH1 0x40 MLOAD DUP1 SWAP2 SUB SWAP1 RETURN JUMPDEST PUSH2 0x112 PUSH1 0x4 DUP1 CALLDATASIZE SUB DUP2 ADD SWAP1 PUSH2 0x10D SWAP2 SWAP1 PUSH2 0xEF6 JUMP JUMPDEST PUSH2 0x278 JUMP JUMPDEST PUSH1 0x40 MLOAD PUSH2 0x11F SWAP2 SWAP1 PUSH2 0xF80 JUMP JUMPDEST PUSH1 0x40 MLOAD DUP1 SWAP2 SUB SWAP1 RETURN JUMPDEST PUSH2 0x142 PUSH1 0x4 DUP1 CALLDATASIZE SUB DUP2 ADD SWAP1 PUSH2 0x13D SWAP2 SWAP1 PUSH2 0xF9B JUMP JUMPDEST PUSH2 0x28E JUMP JUMPDEST PUSH1 0x40 MLOAD PUSH2 0x14F SWAP2 SWAP1 PUSH2 0xE7B JUMP JUMPDEST PUSH1 0x40 MLOAD DUP1 SWAP2 SUB SWAP1 RETURN JUMPDEST PUSH2 0x172 PUSH1 0x4 DUP1 CALLDATASIZE SUB DUP2 ADD SWAP1 PUSH2 0x16D SWAP2 SWAP1 PUSH2 0xFF7 JUMP JUMPDEST PUSH2 0x2A2 JUMP JUMPDEST PUSH1 0x40 MLOAD PUSH2 0x17F SWAP2 SWAP1 PUSH2 0xF80 JUMP JUMPDEST PUSH1 0x40 MLOAD DUP1 SWAP2 SUB SWAP1 RETURN JUMPDEST PUSH2 0x1A2 PUSH1 0x4 DUP1 CALLDATASIZE SUB DUP2 ADD SWAP1 PUSH2 0x19D SWAP2 SWAP1 PUSH2 0x106B JUMP JUMPDEST PUSH2 0x2BA JUMP JUMPDEST PUSH1 0x40 MLOAD PUSH2 0x1AF SWAP2 SWAP1 PUSH2 0xF80 JUMP JUMPDEST PUSH1 0x40 MLOAD DUP1 SWAP2 SUB SWAP1 RETURN JUMPDEST PUSH2 0x1D2 PUSH1 0x4 DUP1 CALLDATASIZE SUB DUP2 ADD SWAP1 PUSH2 0x1CD SWAP2 SWAP1 PUSH2 0x1227 JUMP JUMPDEST PUSH2 0x2D6 JUMP JUMPDEST PUSH1 0x40 MLOAD PUSH2 0x1DF SWAP2 SWAP1 PUSH2 0x132E JUMP JUMPDEST PUSH1 0x40 MLOAD DUP1 SWAP2 SUB SWAP1 RETURN JUMPDEST PUSH2 0x202 PUSH1 0x4 DUP1 CALLDATASIZE SUB DUP2 ADD SWAP1 PUSH2 0x1FD SWAP2 SWAP1 PUSH2 0x143F JUMP JUMPDEST PUSH2 0x3AF JUMP JUMPDEST PUSH1 0x40 MLOAD PUSH2 0x20F SWAP2 SWAP1 PUSH2 0xE7B JUMP JUMPDEST PUSH1 0x40 MLOAD DUP1 SWAP2 SUB SWAP1 RETURN JUMPDEST PUSH2 0x232 PUSH1 0x4 DUP1 CALLDATASIZE SUB DUP2 ADD SWAP1 PUSH2 0x22D SWAP2 SWAP1 PUSH2 0x153C JUMP JUMPDEST PUSH2 0x3C5 JUMP JUMPDEST PUSH1 0x40 MLOAD PUSH2 0x23F SWAP2 SWAP1 PUSH2 0xF80 JUMP JUMPDEST PUSH1 0x40 MLOAD DUP1 SWAP2 SUB SWAP1 RETURN JUMPDEST PUSH1 0x0 PUSH2 0x257 DUP7 DUP7 DUP7 DUP7 DUP7 PUSH2 0x4B2 JUMP JUMPDEST SWAP1 POP SWAP6 SWAP5 POP POP POP POP POP JUMP JUMPDEST PUSH1 0x0 PUSH2 0x26F DUP5 DUP5 DUP5 PUSH2 0x76A JUMP JUMPDEST SWAP1 POP SWAP4 SWAP3 POP POP POP JUMP JUMPDEST PUSH1 0x0 PUSH2 0x285 DUP5 DUP5 DUP5 PUSH2 0x7C2 JUMP JUMPDEST SWAP1 POP SWAP4 SWAP3 POP POP POP JUMP JUMPDEST PUSH1 0x0 PUSH2 0x29A DUP4 DUP4 PUSH2 0x7D9 JUMP JUMPDEST SWAP1 POP SWAP3 SWAP2 POP POP JUMP JUMPDEST PUSH1 0x0 PUSH2 0x2B0 DUP6 DUP6 DUP6 DUP6 PUSH2 0x82F JUMP JUMPDEST SWAP1 POP SWAP5 SWAP4 POP POP POP POP JUMP JUMPDEST PUSH1 0x0 PUSH2 0x2CA DUP8 DUP8 DUP8 DUP8 DUP8 DUP8 PUSH2 0x848 JUMP JUMPDEST SWAP1 POP SWAP7 SWAP6 POP POP POP POP POP POP JUMP JUMPDEST PUSH1 0x60 DUP2 MLOAD PUSH8 0xFFFFFFFFFFFFFFFF DUP2 GT ISZERO PUSH2 0x2F3 JUMPI PUSH2 0x2F2 PUSH2 0xC47 JUMP JUMPDEST JUMPDEST PUSH1 0x40 MLOAD SWAP1 DUP1 DUP3 MSTORE DUP1 PUSH1 0x20 MUL PUSH1 0x20 ADD DUP3 ADD PUSH1 0x40 MSTORE DUP1 ISZERO PUSH2 0x321 JUMPI DUP2 PUSH1 0x20 ADD PUSH1 0x20 DUP3 MUL DUP1 CALLDATASIZE DUP4 CALLDATACOPY DUP1 DUP3 ADD SWAP2 POP POP SWAP1 POP JUMPDEST POP SWAP1 POP PUSH1 0x0 JUMPDEST DUP3 MLOAD DUP2 LT ISZERO PUSH2 0x3A9 JUMPI PUSH1 0x0 DUP4 DUP3 DUP2 MLOAD DUP2 LT PUSH2 0x345 JUMPI PUSH2 0x344 PUSH2 0x15FC JUMP JUMPDEST JUMPDEST PUSH1 0x20 MUL PUSH1 0x20 ADD ADD MLOAD SWAP1 POP DUP1 PUSH1 0x40 MLOAD PUSH1 0x20 ADD PUSH2 0x360 SWAP2 SWAP1 PUSH2 0x163A JUMP JUMPDEST PUSH1 0x40 MLOAD PUSH1 0x20 DUP2 DUP4 SUB SUB DUP2 MSTORE SWAP1 PUSH1 0x40 MSTORE DUP1 MLOAD SWAP1 PUSH1 0x20 ADD KECCAK256 DUP4 DUP4 DUP2 MLOAD DUP2 LT PUSH2 0x389 JUMPI PUSH2 0x388 PUSH2 0x15FC JUMP JUMPDEST JUMPDEST PUSH1 0x20 MUL PUSH1 0x20 ADD ADD DUP2 DUP2 MSTORE POP POP POP DUP1 DUP1 PUSH2 0x3A1 SWAP1 PUSH2 0x1684 JUMP JUMPDEST SWAP2 POP POP PUSH2 0x327 JUMP JUMPDEST POP SWAP2 SWAP1 POP JUMP JUMPDEST PUSH1 0x0 PUSH2 0x3BC DUP5 DUP5 DUP5 PUSH2 0x865 JUMP JUMPDEST SWAP1 POP SWAP4 SWAP3 POP POP POP JUMP JUMPDEST PUSH1 0x0 DUP1 DUP7 DUP7 SWAP1 POP SWAP1 POP PUSH1 0x0 DUP2 PUSH8 0xFFFFFFFFFFFFFFFF DUP2 GT ISZERO PUSH2 0x3EA JUMPI PUSH2 0x3E9 PUSH2 0xC47 JUMP JUMPDEST JUMPDEST PUSH1 0x40 MLOAD SWAP1 DUP1 DUP3 MSTORE DUP1 PUSH1 0x20 MUL PUSH1 0x20 ADD DUP3 ADD PUSH1 0x40 MSTORE DUP1 ISZERO PUSH2 0x418 JUMPI DUP2 PUSH1 0x20 ADD PUSH1 0x20 DUP3 MUL DUP1 CALLDATASIZE DUP4 CALLDATACOPY DUP1 DUP3 ADD SWAP2 POP POP SWAP1 POP JUMPDEST POP SWAP1 POP PUSH1 0x0 JUMPDEST DUP3 DUP2 LT ISZERO PUSH2 0x498 JUMPI DUP9 DUP9 DUP3 DUP2 DUP2 LT PUSH2 0x439 JUMPI PUSH2 0x438 PUSH2 0x15FC JUMP JUMPDEST JUMPDEST SWAP1 POP PUSH1 0x20 MUL ADD CALLDATALOAD PUSH1 0x40 MLOAD PUSH1 0x20 ADD PUSH2 0x450 SWAP2 SWAP1 PUSH2 0x16ED JUMP JUMPDEST PUSH1 0x40 MLOAD PUSH1 0x20 DUP2 DUP4 SUB SUB DUP2 MSTORE SWAP1 PUSH1 0x40 MSTORE DUP1 MLOAD SWAP1 PUSH1 0x20 ADD KECCAK256 DUP3 DUP3 DUP2 MLOAD DUP2 LT PUSH2 0x479 JUMPI PUSH2 0x478 PUSH2 0x15FC JUMP JUMPDEST JUMPDEST PUSH1 0x20 MUL PUSH1 0x20 ADD ADD DUP2 DUP2 MSTORE POP POP DUP1 DUP1 PUSH2 0x490 SWAP1 PUSH2 0x1684 JUMP JUMPDEST SWAP2 POP POP PUSH2 0x41E JUMP JUMPDEST POP PUSH2 0x4A5 DUP7 DUP7 DUP7 DUP5 PUSH2 0xB0C JUMP JUMPDEST SWAP3 POP POP POP SWAP6 SWAP5 POP POP POP POP POP JUMP JUMPDEST PUSH1 0x0 DUP1 DUP3 MLOAD SWAP1 POP PUSH1 0x0 DUP6 DUP6 SWAP1 POP SWAP1 POP DUP1 PUSH1 0x1 DUP10 DUP10 SWAP1 POP DUP5 PUSH2 0x4D3 SWAP2 SWAP1 PUSH2 0x1708 JUMP JUMPDEST PUSH2 0x4DD SWAP2 SWAP1 PUSH2 0x175E JUMP JUMPDEST EQ PUSH2 0x51D JUMPI PUSH1 0x40 MLOAD PUSH32 0x8C379A000000000000000000000000000000000000000000000000000000000 DUP2 MSTORE PUSH1 0x4 ADD PUSH2 0x514 SWAP1 PUSH2 0x17EF JUMP JUMPDEST PUSH1 0x40 MLOAD DUP1 SWAP2 SUB SWAP1 REVERT JUMPDEST PUSH1 0x0 DUP2 PUSH8 0xFFFFFFFFFFFFFFFF DUP2 GT ISZERO PUSH2 0x539 JUMPI PUSH2 0x538 PUSH2 0xC47 JUMP JUMPDEST JUMPDEST PUSH1 0x40 MLOAD SWAP1 DUP1 DUP3 MSTORE DUP1 PUSH1 0x20 MUL PUSH1 0x20 ADD DUP3 ADD PUSH1 0x40 MSTORE DUP1 ISZERO PUSH2 0x567 JUMPI DUP2 PUSH1 0x20 ADD PUSH1 0x20 DUP3 MUL DUP1 CALLDATASIZE DUP4 CALLDATACOPY DUP1 DUP3 ADD SWAP2 POP POP SWAP1 POP JUMPDEST POP SWAP1 POP PUSH1 0x0 DUP1 PUSH1 0x0 DUP1 JUMPDEST DUP6 DUP2 LT ISZERO PUSH2 0x6CD JUMPI PUSH1 0x0 DUP8 DUP6 LT PUSH2 0x5AE JUMPI DUP6 DUP5 DUP1 PUSH2 0x58E SWAP1 PUSH2 0x1684 JUMP JUMPDEST SWAP6 POP DUP2 MLOAD DUP2 LT PUSH2 0x5A1 JUMPI PUSH2 0x5A0 PUSH2 0x15FC JUMP JUMPDEST JUMPDEST PUSH1 0x20 MUL PUSH1 0x20 ADD ADD MLOAD PUSH2 0x5D6 JUMP JUMPDEST DUP10 DUP6 DUP1 PUSH2 0x5BA SWAP1 PUSH2 0x1684 JUMP JUMPDEST SWAP7 POP DUP2 MLOAD DUP2 LT PUSH2 0x5CD JUMPI PUSH2 0x5CC PUSH2 0x15FC JUMP JUMPDEST JUMPDEST PUSH1 0x20 MUL PUSH1 0x20 ADD ADD MLOAD JUMPDEST SWAP1 POP PUSH1 0x0 DUP13 DUP13 DUP5 DUP2 DUP2 LT PUSH2 0x5ED JUMPI PUSH2 0x5EC PUSH2 0x15FC JUMP JUMPDEST JUMPDEST SWAP1 POP PUSH1 0x20 MUL ADD PUSH1 0x20 DUP2 ADD SWAP1 PUSH2 0x602 SWAP2 SWAP1 PUSH2 0x180F JUMP JUMPDEST PUSH2 0x631 JUMPI DUP15 DUP15 DUP6 DUP1 PUSH2 0x613 SWAP1 PUSH2 0x1684 JUMP JUMPDEST SWAP7 POP DUP2 DUP2 LT PUSH2 0x625 JUMPI PUSH2 0x624 PUSH2 0x15FC JUMP JUMPDEST JUMPDEST SWAP1 POP PUSH1 0x20 MUL ADD CALLDATALOAD PUSH2 0x68D JUMP JUMPDEST DUP9 DUP7 LT PUSH2 0x664 JUMPI DUP7 DUP6 DUP1 PUSH2 0x644 SWAP1 PUSH2 0x1684 JUMP JUMPDEST SWAP7 POP DUP2 MLOAD DUP2 LT PUSH2 0x657 JUMPI PUSH2 0x656 PUSH2 0x15FC JUMP JUMPDEST JUMPDEST PUSH1 0x20 MUL PUSH1 0x20 ADD ADD MLOAD PUSH2 0x68C JUMP JUMPDEST DUP11 DUP7 DUP1 PUSH2 0x670 SWAP1 PUSH2 0x1684 JUMP JUMPDEST SWAP8 POP DUP2 MLOAD DUP2 LT PUSH2 0x683 JUMPI PUSH2 0x682 PUSH2 0x15FC JUMP JUMPDEST JUMPDEST PUSH1 0x20 MUL PUSH1 0x20 ADD ADD MLOAD JUMPDEST JUMPDEST SWAP1 POP PUSH2 0x699 DUP3 DUP3 PUSH2 0xB25 JUMP JUMPDEST DUP8 DUP5 DUP2 MLOAD DUP2 LT PUSH2 0x6AC JUMPI PUSH2 0x6AB PUSH2 0x15FC JUMP JUMPDEST JUMPDEST PUSH1 0x20 MUL PUSH1 0x20 ADD ADD DUP2 DUP2 MSTORE POP POP POP POP DUP1 DUP1 PUSH2 0x6C5 SWAP1 PUSH2 0x1684 JUMP JUMPDEST SWAP2 POP POP PUSH2 0x571 JUMP JUMPDEST POP PUSH1 0x0 DUP6 GT ISZERO PUSH2 0x70B JUMPI DUP4 PUSH1 0x1 DUP7 PUSH2 0x6E5 SWAP2 SWAP1 PUSH2 0x175E JUMP JUMPDEST DUP2 MLOAD DUP2 LT PUSH2 0x6F6 JUMPI PUSH2 0x6F5 PUSH2 0x15FC JUMP JUMPDEST JUMPDEST PUSH1 0x20 MUL PUSH1 0x20 ADD ADD MLOAD SWAP7 POP POP POP POP POP POP POP PUSH2 0x761 JUMP JUMPDEST PUSH1 0x0 DUP7 GT ISZERO PUSH2 0x73D JUMPI DUP8 PUSH1 0x0 DUP2 MLOAD DUP2 LT PUSH2 0x728 JUMPI PUSH2 0x727 PUSH2 0x15FC JUMP JUMPDEST JUMPDEST PUSH1 0x20 MUL PUSH1 0x20 ADD ADD MLOAD SWAP7 POP POP POP POP POP POP POP PUSH2 0x761 JUMP JUMPDEST DUP12 DUP12 PUSH1 0x0 DUP2 DUP2 LT PUSH2 0x751 JUMPI PUSH2 0x750 PUSH2 0x15FC JUMP JUMPDEST JUMPDEST SWAP1 POP PUSH1 0x20 MUL ADD CALLDATALOAD SWAP7 POP POP POP POP POP POP POP JUMPDEST SWAP6 SWAP5 POP POP POP POP POP JUMP JUMPDEST PUSH1 0x0 DUP1 DUP3 SWAP1 POP PUSH1 0x0 JUMPDEST DUP6 DUP6 SWAP1 POP DUP2 LT ISZERO PUSH2 0x7B6 JUMPI PUSH2 0x7A1 DUP3 DUP8 DUP8 DUP5 DUP2 DUP2 LT PUSH2 0x795 JUMPI PUSH2 0x794 PUSH2 0x15FC JUMP JUMPDEST JUMPDEST SWAP1 POP PUSH1 0x20 MUL ADD CALLDATALOAD PUSH2 0xB25 JUMP JUMPDEST SWAP2 POP DUP1 DUP1 PUSH2 0x7AE SWAP1 PUSH2 0x1684 JUMP JUMPDEST SWAP2 POP POP PUSH2 0x773 JUMP JUMPDEST POP DUP1 SWAP2 POP POP SWAP4 SWAP3 POP POP POP JUMP JUMPDEST PUSH1 0x0 DUP3 PUSH2 0x7CF DUP6 DUP5 PUSH2 0x7D9 JUMP JUMPDEST EQ SWAP1 POP SWAP4 SWAP3 POP POP POP JUMP JUMPDEST PUSH1 0x0 DUP1 DUP3 SWAP1 POP PUSH1 0x0 JUMPDEST DUP5 MLOAD DUP2 LT ISZERO PUSH2 0x824 JUMPI PUSH2 0x80F DUP3 DUP7 DUP4 DUP2 MLOAD DUP2 LT PUSH2 0x802 JUMPI PUSH2 0x801 PUSH2 0x15FC JUMP JUMPDEST JUMPDEST PUSH1 0x20 MUL PUSH1 0x20 ADD ADD MLOAD PUSH2 0xB25 JUMP JUMPDEST SWAP2 POP DUP1 DUP1 PUSH2 0x81C SWAP1 PUSH2 0x1684 JUMP JUMPDEST SWAP2 POP POP PUSH2 0x7E2 JUMP JUMPDEST POP DUP1 SWAP2 POP POP SWAP3 SWAP2 POP POP JUMP JUMPDEST PUSH1 0x0 DUP3 PUSH2 0x83D DUP7 DUP7 DUP6 PUSH2 0x76A JUMP JUMPDEST EQ SWAP1 POP SWAP5 SWAP4 POP POP POP POP JUMP JUMPDEST PUSH1 0x0 DUP3 PUSH2 0x858 DUP9 DUP9 DUP9 DUP9 DUP8 PUSH2 0x4B2 JUMP JUMPDEST EQ SWAP1 POP SWAP7 SWAP6 POP POP POP POP POP POP JUMP JUMPDEST PUSH1 0x0 DUP1 DUP3 MLOAD SWAP1 POP PUSH1 0x0 DUP5 MLOAD SWAP1 POP DUP1 PUSH1 0x1 DUP8 MLOAD DUP5 PUSH2 0x882 SWAP2 SWAP1 PUSH2 0x1708 JUMP JUMPDEST PUSH2 0x88C SWAP2 SWAP1 PUSH2 0x175E JUMP JUMPDEST EQ PUSH2 0x8CC JUMPI PUSH1 0x40 MLOAD PUSH32 0x8C379A000000000000000000000000000000000000000000000000000000000 DUP2 MSTORE PUSH1 0x4 ADD PUSH2 0x8C3 SWAP1 PUSH2 0x17EF JUMP JUMPDEST PUSH1 0x40 MLOAD DUP1 SWAP2 SUB SWAP1 REVERT JUMPDEST PUSH1 0x0 DUP2 PUSH8 0xFFFFFFFFFFFFFFFF DUP2 GT ISZERO PUSH2 0x8E8 JUMPI PUSH2 0x8E7 PUSH2 0xC47 JUMP JUMPDEST JUMPDEST PUSH1 0x40 MLOAD SWAP1 DUP1 DUP3 MSTORE DUP1 PUSH1 0x20 MUL PUSH1 0x20 ADD DUP3 ADD PUSH1 0x40 MSTORE DUP1 ISZERO PUSH2 0x916 JUMPI DUP2 PUSH1 0x20 ADD PUSH1 0x20 DUP3 MUL DUP1 CALLDATASIZE DUP4 CALLDATACOPY DUP1 DUP3 ADD SWAP2 POP POP SWAP1 POP JUMPDEST POP SWAP1 POP PUSH1 0x0 DUP1 PUSH1 0x0 DUP1 JUMPDEST DUP6 DUP2 LT ISZERO PUSH2 0xA70 JUMPI PUSH1 0x0 DUP8 DUP6 LT PUSH2 0x95D JUMPI DUP6 DUP5 DUP1 PUSH2 0x93D SWAP1 PUSH2 0x1684 JUMP JUMPDEST SWAP6 POP DUP2 MLOAD DUP2 LT PUSH2 0x950 JUMPI PUSH2 0x94F PUSH2 0x15FC JUMP JUMPDEST JUMPDEST PUSH1 0x20 MUL PUSH1 0x20 ADD ADD MLOAD PUSH2 0x985 JUMP JUMPDEST DUP10 DUP6 DUP1 PUSH2 0x969 SWAP1 PUSH2 0x1684 JUMP JUMPDEST SWAP7 POP DUP2 MLOAD DUP2 LT PUSH2 0x97C JUMPI PUSH2 0x97B PUSH2 0x15FC JUMP JUMPDEST JUMPDEST PUSH1 0x20 MUL PUSH1 0x20 ADD ADD MLOAD JUMPDEST SWAP1 POP PUSH1 0x0 DUP12 DUP4 DUP2 MLOAD DUP2 LT PUSH2 0x99C JUMPI PUSH2 0x99B PUSH2 0x15FC JUMP JUMPDEST JUMPDEST PUSH1 0x20 MUL PUSH1 0x20 ADD ADD MLOAD PUSH2 0x9D4 JUMPI DUP13 DUP5 DUP1 PUSH2 0x9B4 SWAP1 PUSH2 0x1684 JUMP JUMPDEST SWAP6 POP DUP2 MLOAD DUP2 LT PUSH2 0x9C7 JUMPI PUSH2 0x9C6 PUSH2 0x15FC JUMP JUMPDEST JUMPDEST PUSH1 0x20 MUL PUSH1 0x20 ADD ADD MLOAD PUSH2 0xA30 JUMP JUMPDEST DUP9 DUP7 LT PUSH2 0xA07 JUMPI DUP7 DUP6 DUP1 PUSH2 0x9E7 SWAP1 PUSH2 0x1684 JUMP JUMPDEST SWAP7 POP DUP2 MLOAD DUP2 LT PUSH2 0x9FA JUMPI PUSH2 0x9F9 PUSH2 0x15FC JUMP JUMPDEST JUMPDEST PUSH1 0x20 MUL PUSH1 0x20 ADD ADD MLOAD PUSH2 0xA2F JUMP JUMPDEST DUP11 DUP7 DUP1 PUSH2 0xA13 SWAP1 PUSH2 0x1684 JUMP JUMPDEST SWAP8 POP DUP2 MLOAD DUP2 LT PUSH2 0xA26 JUMPI PUSH2 0xA25 PUSH2 0x15FC JUMP JUMPDEST JUMPDEST PUSH1 0x20 MUL PUSH1 0x20 ADD ADD MLOAD JUMPDEST JUMPDEST SWAP1 POP PUSH2 0xA3C DUP3 DUP3 PUSH2 0xB25 JUMP JUMPDEST DUP8 DUP5 DUP2 MLOAD DUP2 LT PUSH2 0xA4F JUMPI PUSH2 0xA4E PUSH2 0x15FC JUMP JUMPDEST JUMPDEST PUSH1 0x20 MUL PUSH1 0x20 ADD ADD DUP2 DUP2 MSTORE POP POP POP POP DUP1 DUP1 PUSH2 0xA68 SWAP1 PUSH2 0x1684 JUMP JUMPDEST SWAP2 POP POP PUSH2 0x920 JUMP JUMPDEST POP PUSH1 0x0 DUP6 GT ISZERO PUSH2 0xAAE JUMPI DUP4 PUSH1 0x1 DUP7 PUSH2 0xA88 SWAP2 SWAP1 PUSH2 0x175E JUMP JUMPDEST DUP2 MLOAD DUP2 LT PUSH2 0xA99 JUMPI PUSH2 0xA98 PUSH2 0x15FC JUMP JUMPDEST JUMPDEST PUSH1 0x20 MUL PUSH1 0x20 ADD ADD MLOAD SWAP7 POP POP POP POP POP POP POP PUSH2 0xB05 JUMP JUMPDEST PUSH1 0x0 DUP7 GT ISZERO PUSH2 0xAE0 JUMPI DUP8 PUSH1 0x0 DUP2 MLOAD DUP2 LT PUSH2 0xACB JUMPI PUSH2 0xACA PUSH2 0x15FC JUMP JUMPDEST JUMPDEST PUSH1 0x20 MUL PUSH1 0x20 ADD ADD MLOAD SWAP7 POP POP POP POP POP POP POP PUSH2 0xB05 JUMP JUMPDEST DUP10 PUSH1 0x0 DUP2 MLOAD DUP2 LT PUSH2 0xAF4 JUMPI PUSH2 0xAF3 PUSH2 0x15FC JUMP JUMPDEST JUMPDEST PUSH1 0x20 MUL PUSH1 0x20 ADD ADD MLOAD SWAP7 POP POP POP POP POP POP POP JUMPDEST SWAP4 SWAP3 POP POP POP JUMP JUMPDEST PUSH1 0x0 DUP3 PUSH2 0xB1A DUP7 DUP7 DUP6 PUSH2 0x865 JUMP JUMPDEST EQ SWAP1 POP SWAP5 SWAP4 POP POP POP POP JUMP JUMPDEST PUSH1 0x0 DUP2 DUP4 LT PUSH2 0xB3D JUMPI PUSH2 0xB38 DUP3 DUP5 PUSH2 0xB50 JUMP JUMPDEST PUSH2 0xB48 JUMP JUMPDEST PUSH2 0xB47 DUP4 DUP4 PUSH2 0xB50 JUMP JUMPDEST JUMPDEST SWAP1 POP SWAP3 SWAP2 POP POP JUMP JUMPDEST PUSH1 0x0 DUP3 PUSH1 0x0 MSTORE DUP2 PUSH1 0x20 MSTORE PUSH1 0x40 PUSH1 0x0 KECCAK256 SWAP1 POP SWAP3 SWAP2 POP POP JUMP JUMPDEST PUSH1 0x0 PUSH1 0x40 MLOAD SWAP1 POP SWAP1 JUMP JUMPDEST PUSH1 0x0 DUP1 REVERT JUMPDEST PUSH1 0x0 DUP1 REVERT JUMPDEST PUSH1 0x0 DUP1 REVERT JUMPDEST PUSH1 0x0 DUP1 REVERT JUMPDEST PUSH1 0x0 DUP1 REVERT JUMPDEST PUSH1 0x0 DUP1 DUP4 PUSH1 0x1F DUP5 ADD SLT PUSH2 0xBA0 JUMPI PUSH2 0xB9F PUSH2 0xB7B JUMP JUMPDEST JUMPDEST DUP3 CALLDATALOAD SWAP1 POP PUSH8 0xFFFFFFFFFFFFFFFF DUP2 GT ISZERO PUSH2 0xBBD JUMPI PUSH2 0xBBC PUSH2 0xB80 JUMP JUMPDEST JUMPDEST PUSH1 0x20 DUP4 ADD SWAP2 POP DUP4 PUSH1 0x20 DUP3 MUL DUP4 ADD GT ISZERO PUSH2 0xBD9 JUMPI PUSH2 0xBD8 PUSH2 0xB85 JUMP JUMPDEST JUMPDEST SWAP3 POP SWAP3 SWAP1 POP JUMP JUMPDEST PUSH1 0x0 DUP1 DUP4 PUSH1 0x1F DUP5 ADD SLT PUSH2 0xBF6 JUMPI PUSH2 0xBF5 PUSH2 0xB7B JUMP JUMPDEST JUMPDEST DUP3 CALLDATALOAD SWAP1 POP PUSH8 0xFFFFFFFFFFFFFFFF DUP2 GT ISZERO PUSH2 0xC13 JUMPI PUSH2 0xC12 PUSH2 0xB80 JUMP JUMPDEST JUMPDEST PUSH1 0x20 DUP4 ADD SWAP2 POP DUP4 PUSH1 0x20 DUP3 MUL DUP4 ADD GT ISZERO PUSH2 0xC2F JUMPI PUSH2 0xC2E PUSH2 0xB85 JUMP JUMPDEST JUMPDEST SWAP3 POP SWAP3 SWAP1 POP JUMP JUMPDEST PUSH1 0x0 PUSH1 0x1F NOT PUSH1 0x1F DUP4 ADD AND SWAP1 POP SWAP2 SWAP1 POP JUMP JUMPDEST PUSH32 0x4E487B7100000000000000000000000000000000000000000000000000000000 PUSH1 0x0 MSTORE PUSH1 0x41 PUSH1 0x4 MSTORE PUSH1 0x24 PUSH1 0x0 REVERT JUMPDEST PUSH2 0xC7F DUP3 PUSH2 0xC36 JUMP JUMPDEST DUP2 ADD DUP2 DUP2 LT PUSH8 0xFFFFFFFFFFFFFFFF DUP3 GT OR ISZERO PUSH2 0xC9E JUMPI PUSH2 0xC9D PUSH2 0xC47 JUMP JUMPDEST JUMPDEST DUP1 PUSH1 0x40 MSTORE POP POP POP JUMP JUMPDEST PUSH1 0x0 PUSH2 0xCB1 PUSH2 0xB67 JUMP JUMPDEST SWAP1 POP PUSH2 0xCBD DUP3 DUP3 PUSH2 0xC76 JUMP JUMPDEST SWAP2 SWAP1 POP JUMP JUMPDEST PUSH1 0x0 PUSH8 0xFFFFFFFFFFFFFFFF DUP3 GT ISZERO PUSH2 0xCDD JUMPI PUSH2 0xCDC PUSH2 0xC47 JUMP JUMPDEST JUMPDEST PUSH1 0x20 DUP3 MUL SWAP1 POP PUSH1 0x20 DUP2 ADD SWAP1 POP SWAP2 SWAP1 POP JUMP JUMPDEST PUSH1 0x0 DUP2 SWAP1 POP SWAP2 SWAP1 POP JUMP JUMPDEST PUSH2 0xD01 DUP2 PUSH2 0xCEE JUMP JUMPDEST DUP2 EQ PUSH2 0xD0C JUMPI PUSH1 0x0 DUP1 REVERT JUMPDEST POP JUMP JUMPDEST PUSH1 0x0 DUP2 CALLDATALOAD SWAP1 POP PUSH2 0xD1E DUP2 PUSH2 0xCF8 JUMP JUMPDEST SWAP3 SWAP2 POP POP JUMP JUMPDEST PUSH1 0x0 PUSH2 0xD37 PUSH2 0xD32 DUP5 PUSH2 0xCC2 JUMP JUMPDEST PUSH2 0xCA7 JUMP JUMPDEST SWAP1 POP DUP1 DUP4 DUP3 MSTORE PUSH1 0x20 DUP3 ADD SWAP1 POP PUSH1 0x20 DUP5 MUL DUP4 ADD DUP6 DUP2 GT ISZERO PUSH2 0xD5A JUMPI PUSH2 0xD59 PUSH2 0xB85 JUMP JUMPDEST JUMPDEST DUP4 JUMPDEST DUP2 DUP2 LT ISZERO PUSH2 0xD83 JUMPI DUP1 PUSH2 0xD6F DUP9 DUP3 PUSH2 0xD0F JUMP JUMPDEST DUP5 MSTORE PUSH1 0x20 DUP5 ADD SWAP4 POP POP PUSH1 0x20 DUP2 ADD SWAP1 POP PUSH2 0xD5C JUMP JUMPDEST POP POP POP SWAP4 SWAP3 POP POP POP JUMP JUMPDEST PUSH1 0x0 DUP3 PUSH1 0x1F DUP4 ADD SLT PUSH2 0xDA2 JUMPI PUSH2 0xDA1 PUSH2 0xB7B JUMP JUMPDEST JUMPDEST DUP2 CALLDATALOAD PUSH2 0xDB2 DUP5 DUP3 PUSH1 0x20 DUP7 ADD PUSH2 0xD24 JUMP JUMPDEST SWAP2 POP POP SWAP3 SWAP2 POP POP JUMP JUMPDEST PUSH1 0x0 DUP1 PUSH1 0x0 DUP1 PUSH1 0x0 PUSH1 0x60 DUP7 DUP9 SUB SLT ISZERO PUSH2 0xDD7 JUMPI PUSH2 0xDD6 PUSH2 0xB71 JUMP JUMPDEST JUMPDEST PUSH1 0x0 DUP7 ADD CALLDATALOAD PUSH8 0xFFFFFFFFFFFFFFFF DUP2 GT ISZERO PUSH2 0xDF5 JUMPI PUSH2 0xDF4 PUSH2 0xB76 JUMP JUMPDEST JUMPDEST PUSH2 0xE01 DUP9 DUP3 DUP10 ADD PUSH2 0xB8A JUMP JUMPDEST SWAP6 POP SWAP6 POP POP PUSH1 0x20 DUP7 ADD CALLDATALOAD PUSH8 0xFFFFFFFFFFFFFFFF DUP2 GT ISZERO PUSH2 0xE24 JUMPI PUSH2 0xE23 PUSH2 0xB76 JUMP JUMPDEST JUMPDEST PUSH2 0xE30 DUP9 DUP3 DUP10 ADD PUSH2 0xBE0 JUMP JUMPDEST SWAP4 POP SWAP4 POP POP PUSH1 0x40 DUP7 ADD CALLDATALOAD PUSH8 0xFFFFFFFFFFFFFFFF DUP2 GT ISZERO PUSH2 0xE53 JUMPI PUSH2 0xE52 PUSH2 0xB76 JUMP JUMPDEST JUMPDEST PUSH2 0xE5F DUP9 DUP3 DUP10 ADD PUSH2 0xD8D JUMP JUMPDEST SWAP2 POP POP SWAP3 SWAP6 POP SWAP3 SWAP6 SWAP1 SWAP4 POP JUMP JUMPDEST PUSH2 0xE75 DUP2 PUSH2 0xCEE JUMP JUMPDEST DUP3 MSTORE POP POP JUMP JUMPDEST PUSH1 0x0 PUSH1 0x20 DUP3 ADD SWAP1 POP PUSH2 0xE90 PUSH1 0x0 DUP4 ADD DUP5 PUSH2 0xE6C JUMP JUMPDEST SWAP3 SWAP2 POP POP JUMP JUMPDEST PUSH1 0x0 DUP1 PUSH1 0x0 PUSH1 0x40 DUP5 DUP7 SUB SLT ISZERO PUSH2 0xEAF JUMPI PUSH2 0xEAE PUSH2 0xB71 JUMP JUMPDEST JUMPDEST PUSH1 0x0 DUP5 ADD CALLDATALOAD PUSH8 0xFFFFFFFFFFFFFFFF DUP2 GT ISZERO PUSH2 0xECD JUMPI PUSH2 0xECC PUSH2 0xB76 JUMP JUMPDEST JUMPDEST PUSH2 0xED9 DUP7 DUP3 DUP8 ADD PUSH2 0xB8A JUMP JUMPDEST SWAP4 POP SWAP4 POP POP PUSH1 0x20 PUSH2 0xEEC DUP7 DUP3 DUP8 ADD PUSH2 0xD0F JUMP JUMPDEST SWAP2 POP POP SWAP3 POP SWAP3 POP SWAP3 JUMP JUMPDEST PUSH1 0x0 DUP1 PUSH1 0x0 PUSH1 0x60 DUP5 DUP7 SUB SLT ISZERO PUSH2 0xF0F JUMPI PUSH2 0xF0E PUSH2 0xB71 JUMP JUMPDEST JUMPDEST PUSH1 0x0 DUP5 ADD CALLDATALOAD PUSH8 0xFFFFFFFFFFFFFFFF DUP2 GT ISZERO PUSH2 0xF2D JUMPI PUSH2 0xF2C PUSH2 0xB76 JUMP JUMPDEST JUMPDEST PUSH2 0xF39 DUP7 DUP3 DUP8 ADD PUSH2 0xD8D JUMP JUMPDEST SWAP4 POP POP PUSH1 0x20 PUSH2 0xF4A DUP7 DUP3 DUP8 ADD PUSH2 0xD0F JUMP JUMPDEST SWAP3 POP POP PUSH1 0x40 PUSH2 0xF5B DUP7 DUP3 DUP8 ADD PUSH2 0xD0F JUMP JUMPDEST SWAP2 POP POP SWAP3 POP SWAP3 POP SWAP3 JUMP JUMPDEST PUSH1 0x0 DUP2 ISZERO ISZERO SWAP1 POP SWAP2 SWAP1 POP JUMP JUMPDEST PUSH2 0xF7A DUP2 PUSH2 0xF65 JUMP JUMPDEST DUP3 MSTORE POP POP JUMP JUMPDEST PUSH1 0x0 PUSH1 0x20 DUP3 ADD SWAP1 POP PUSH2 0xF95 PUSH1 0x0 DUP4 ADD DUP5 PUSH2 0xF71 JUMP JUMPDEST SWAP3 SWAP2 POP POP JUMP JUMPDEST PUSH1 0x0 DUP1 PUSH1 0x40 DUP4 DUP6 SUB SLT ISZERO PUSH2 0xFB2 JUMPI PUSH2 0xFB1 PUSH2 0xB71 JUMP JUMPDEST JUMPDEST PUSH1 0x0 DUP4 ADD CALLDATALOAD PUSH8 0xFFFFFFFFFFFFFFFF DUP2 GT ISZERO PUSH2 0xFD0 JUMPI PUSH2 0xFCF PUSH2 0xB76 JUMP JUMPDEST JUMPDEST PUSH2 0xFDC DUP6 DUP3 DUP7 ADD PUSH2 0xD8D JUMP JUMPDEST SWAP3 POP POP PUSH1 0x20 PUSH2 0xFED DUP6 DUP3 DUP7 ADD PUSH2 0xD0F JUMP JUMPDEST SWAP2 POP POP SWAP3 POP SWAP3 SWAP1 POP JUMP JUMPDEST PUSH1 0x0 DUP1 PUSH1 0x0 DUP1 PUSH1 0x60 DUP6 DUP8 SUB SLT ISZERO PUSH2 0x1011 JUMPI PUSH2 0x1010 PUSH2 0xB71 JUMP JUMPDEST JUMPDEST PUSH1 0x0 DUP6 ADD CALLDATALOAD PUSH8 0xFFFFFFFFFFFFFFFF DUP2 GT ISZERO PUSH2 0x102F JUMPI PUSH2 0x102E PUSH2 0xB76 JUMP JUMPDEST JUMPDEST PUSH2 0x103B DUP8 DUP3 DUP9 ADD PUSH2 0xB8A JUMP JUMPDEST SWAP5 POP SWAP5 POP POP PUSH1 0x20 PUSH2 0x104E DUP8 DUP3 DUP9 ADD PUSH2 0xD0F JUMP JUMPDEST SWAP3 POP POP PUSH1 0x40 PUSH2 0x105F DUP8 DUP3 DUP9 ADD PUSH2 0xD0F JUMP JUMPDEST SWAP2 POP POP SWAP3 SWAP6 SWAP2 SWAP5 POP SWAP3 POP JUMP JUMPDEST PUSH1 0x0 DUP1 PUSH1 0x0 DUP1 PUSH1 0x0 DUP1 PUSH1 0x80 DUP8 DUP10 SUB SLT ISZERO PUSH2 0x1088 JUMPI PUSH2 0x1087 PUSH2 0xB71 JUMP JUMPDEST JUMPDEST PUSH1 0x0 DUP8 ADD CALLDATALOAD PUSH8 0xFFFFFFFFFFFFFFFF DUP2 GT ISZERO PUSH2 0x10A6 JUMPI PUSH2 0x10A5 PUSH2 0xB76 JUMP JUMPDEST JUMPDEST PUSH2 0x10B2 DUP10 DUP3 DUP11 ADD PUSH2 0xB8A JUMP JUMPDEST SWAP7 POP SWAP7 POP POP PUSH1 0x20 DUP8 ADD CALLDATALOAD PUSH8 0xFFFFFFFFFFFFFFFF DUP2 GT ISZERO PUSH2 0x10D5 JUMPI PUSH2 0x10D4 PUSH2 0xB76 JUMP JUMPDEST JUMPDEST PUSH2 0x10E1 DUP10 DUP3 DUP11 ADD PUSH2 0xBE0 JUMP JUMPDEST SWAP5 POP SWAP5 POP POP PUSH1 0x40 PUSH2 0x10F4 DUP10 DUP3 DUP11 ADD PUSH2 0xD0F JUMP JUMPDEST SWAP3 POP POP PUSH1 0x60 DUP8 ADD CALLDATALOAD PUSH8 0xFFFFFFFFFFFFFFFF DUP2 GT ISZERO PUSH2 0x1115 JUMPI PUSH2 0x1114 PUSH2 0xB76 JUMP JUMPDEST JUMPDEST PUSH2 0x1121 DUP10 DUP3 DUP11 ADD PUSH2 0xD8D JUMP JUMPDEST SWAP2 POP POP SWAP3 SWAP6 POP SWAP3 SWAP6 POP SWAP3 SWAP6 JUMP JUMPDEST PUSH1 0x0 PUSH8 0xFFFFFFFFFFFFFFFF DUP3 GT ISZERO PUSH2 0x1149 JUMPI PUSH2 0x1148 PUSH2 0xC47 JUMP JUMPDEST JUMPDEST PUSH1 0x20 DUP3 MUL SWAP1 POP PUSH1 0x20 DUP2 ADD SWAP1 POP SWAP2 SWAP1 POP JUMP JUMPDEST PUSH1 0x0 DUP2 SWAP1 POP SWAP2 SWAP1 POP JUMP JUMPDEST PUSH2 0x116D DUP2 PUSH2 0x115A JUMP JUMPDEST DUP2 EQ PUSH2 0x1178 JUMPI PUSH1 0x0 DUP1 REVERT JUMPDEST POP JUMP JUMPDEST PUSH1 0x0 DUP2 CALLDATALOAD SWAP1 POP PUSH2 0x118A DUP2 PUSH2 0x1164 JUMP JUMPDEST SWAP3 SWAP2 POP POP JUMP JUMPDEST PUSH1 0x0 PUSH2 0x11A3 PUSH2 0x119E DUP5 PUSH2 0x112E JUMP JUMPDEST PUSH2 0xCA7 JUMP JUMPDEST SWAP1 POP DUP1 DUP4 DUP3 MSTORE PUSH1 0x20 DUP3 ADD SWAP1 POP PUSH1 0x20 DUP5 MUL DUP4 ADD DUP6 DUP2 GT ISZERO PUSH2 0x11C6 JUMPI PUSH2 0x11C5 PUSH2 0xB85 JUMP JUMPDEST JUMPDEST DUP4 JUMPDEST DUP2 DUP2 LT ISZERO PUSH2 0x11EF JUMPI DUP1 PUSH2 0x11DB DUP9 DUP3 PUSH2 0x117B JUMP JUMPDEST DUP5 MSTORE PUSH1 0x20 DUP5 ADD SWAP4 POP POP PUSH1 0x20 DUP2 ADD SWAP1 POP PUSH2 0x11C8 JUMP JUMPDEST POP POP POP SWAP4 SWAP3 POP POP POP JUMP JUMPDEST PUSH1 0x0 DUP3 PUSH1 0x1F DUP4 ADD SLT PUSH2 0x120E JUMPI PUSH2 0x120D PUSH2 0xB7B JUMP JUMPDEST JUMPDEST DUP2 CALLDATALOAD PUSH2 0x121E DUP5 DUP3 PUSH1 0x20 DUP7 ADD PUSH2 0x1190 JUMP JUMPDEST SWAP2 POP POP SWAP3 SWAP2 POP POP JUMP JUMPDEST PUSH1 0x0 PUSH1 0x20 DUP3 DUP5 SUB SLT ISZERO PUSH2 0x123D JUMPI PUSH2 0x123C PUSH2 0xB71 JUMP JUMPDEST JUMPDEST PUSH1 0x0 DUP3 ADD CALLDATALOAD PUSH8 0xFFFFFFFFFFFFFFFF DUP2 GT ISZERO PUSH2 0x125B JUMPI PUSH2 0x125A PUSH2 0xB76 JUMP JUMPDEST JUMPDEST PUSH2 0x1267 DUP5 DUP3 DUP6 ADD PUSH2 0x11F9 JUMP JUMPDEST SWAP2 POP POP SWAP3 SWAP2 POP POP JUMP JUMPDEST PUSH1 0x0 DUP2 MLOAD SWAP1 POP SWAP2 SWAP1 POP JUMP JUMPDEST PUSH1 0x0 DUP3 DUP3 MSTORE PUSH1 0x20 DUP3 ADD SWAP1 POP SWAP3 SWAP2 POP POP JUMP JUMPDEST PUSH1 0x0 DUP2 SWAP1 POP PUSH1 0x20 DUP3 ADD SWAP1 POP SWAP2 SWAP1 POP JUMP JUMPDEST PUSH2 0x12A5 DUP2 PUSH2 0xCEE JUMP JUMPDEST DUP3 MSTORE POP POP JUMP JUMPDEST PUSH1 0x0 PUSH2 0x12B7 DUP4 DUP4 PUSH2 0x129C JUMP JUMPDEST PUSH1 0x20 DUP4 ADD SWAP1 POP SWAP3 SWAP2 POP POP JUMP JUMPDEST PUSH1 0x0 PUSH1 0x20 DUP3 ADD SWAP1 POP SWAP2 SWAP1 POP JUMP JUMPDEST PUSH1 0x0 PUSH2 0x12DB DUP3 PUSH2 0x1270 JUMP JUMPDEST PUSH2 0x12E5 DUP2 DUP6 PUSH2 0x127B JUMP JUMPDEST SWAP4 POP PUSH2 0x12F0 DUP4 PUSH2 0x128C JUMP JUMPDEST DUP1 PUSH1 0x0 JUMPDEST DUP4 DUP2 LT ISZERO PUSH2 0x1321 JUMPI DUP2 MLOAD PUSH2 0x1308 DUP9 DUP3 PUSH2 0x12AB JUMP JUMPDEST SWAP8 POP PUSH2 0x1313 DUP4 PUSH2 0x12C3 JUMP JUMPDEST SWAP3 POP POP PUSH1 0x1 DUP2 ADD SWAP1 POP PUSH2 0x12F4 JUMP JUMPDEST POP DUP6 SWAP4 POP POP POP POP SWAP3 SWAP2 POP POP JUMP JUMPDEST PUSH1 0x0 PUSH1 0x20 DUP3 ADD SWAP1 POP DUP2 DUP2 SUB PUSH1 0x0 DUP4 ADD MSTORE PUSH2 0x1348 DUP2 DUP5 PUSH2 0x12D0 JUMP JUMPDEST SWAP1 POP SWAP3 SWAP2 POP POP JUMP JUMPDEST PUSH1 0x0 PUSH8 0xFFFFFFFFFFFFFFFF DUP3 GT ISZERO PUSH2 0x136B JUMPI PUSH2 0x136A PUSH2 0xC47 JUMP JUMPDEST JUMPDEST PUSH1 0x20 DUP3 MUL SWAP1 POP PUSH1 0x20 DUP2 ADD SWAP1 POP SWAP2 SWAP1 POP JUMP JUMPDEST PUSH2 0x1385 DUP2 PUSH2 0xF65 JUMP JUMPDEST DUP2 EQ PUSH2 0x1390 JUMPI PUSH1 0x0 DUP1 REVERT JUMPDEST POP JUMP JUMPDEST PUSH1 0x0 DUP2 CALLDATALOAD SWAP1 POP PUSH2 0x13A2 DUP2 PUSH2 0x137C JUMP JUMPDEST SWAP3 SWAP2 POP POP JUMP JUMPDEST PUSH1 0x0 PUSH2 0x13BB PUSH2 0x13B6 DUP5 PUSH2 0x1350 JUMP JUMPDEST PUSH2 0xCA7 JUMP JUMPDEST SWAP1 POP DUP1 DUP4 DUP3 MSTORE PUSH1 0x20 DUP3 ADD SWAP1 POP PUSH1 0x20 DUP5 MUL DUP4 ADD DUP6 DUP2 GT ISZERO PUSH2 0x13DE JUMPI PUSH2 0x13DD PUSH2 0xB85 JUMP JUMPDEST JUMPDEST DUP4 JUMPDEST DUP2 DUP2 LT ISZERO PUSH2 0x1407 JUMPI DUP1 PUSH2 0x13F3 DUP9 DUP3 PUSH2 0x1393 JUMP JUMPDEST DUP5 MSTORE PUSH1 0x20 DUP5 ADD SWAP4 POP POP PUSH1 0x20 DUP2 ADD SWAP1 POP PUSH2 0x13E0 JUMP JUMPDEST POP POP POP SWAP4 SWAP3 POP POP POP JUMP JUMPDEST PUSH1 0x0 DUP3 PUSH1 0x1F DUP4 ADD SLT PUSH2 0x1426 JUMPI PUSH2 0x1425 PUSH2 0xB7B JUMP JUMPDEST JUMPDEST DUP2 CALLDATALOAD PUSH2 0x1436 DUP5 DUP3 PUSH1 0x20 DUP7 ADD PUSH2 0x13A8 JUMP JUMPDEST SWAP2 POP POP SWAP3 SWAP2 POP POP JUMP JUMPDEST PUSH1 0x0 DUP1 PUSH1 0x0 PUSH1 0x60 DUP5 DUP7 SUB SLT ISZERO PUSH2 0x1458 JUMPI PUSH2 0x1457 PUSH2 0xB71 JUMP JUMPDEST JUMPDEST PUSH1 0x0 DUP5 ADD CALLDATALOAD PUSH8 0xFFFFFFFFFFFFFFFF DUP2 GT ISZERO PUSH2 0x1476 JUMPI PUSH2 0x1475 PUSH2 0xB76 JUMP JUMPDEST JUMPDEST PUSH2 0x1482 DUP7 DUP3 DUP8 ADD PUSH2 0xD8D JUMP JUMPDEST SWAP4 POP POP PUSH1 0x20 DUP5 ADD CALLDATALOAD PUSH8 0xFFFFFFFFFFFFFFFF DUP2 GT ISZERO PUSH2 0x14A3 JUMPI PUSH2 0x14A2 PUSH2 0xB76 JUMP JUMPDEST JUMPDEST PUSH2 0x14AF DUP7 DUP3 DUP8 ADD PUSH2 0x1411 JUMP JUMPDEST SWAP3 POP POP PUSH1 0x40 DUP5 ADD CALLDATALOAD PUSH8 0xFFFFFFFFFFFFFFFF DUP2 GT ISZERO PUSH2 0x14D0 JUMPI PUSH2 0x14CF PUSH2 0xB76 JUMP JUMPDEST JUMPDEST PUSH2 0x14DC DUP7 DUP3 DUP8 ADD PUSH2 0xD8D JUMP JUMPDEST SWAP2 POP POP SWAP3 POP SWAP3 POP SWAP3 JUMP JUMPDEST PUSH1 0x0 DUP1 DUP4 PUSH1 0x1F DUP5 ADD SLT PUSH2 0x14FC JUMPI PUSH2 0x14FB PUSH2 0xB7B JUMP JUMPDEST JUMPDEST DUP3 CALLDATALOAD SWAP1 POP PUSH8 0xFFFFFFFFFFFFFFFF DUP2 GT ISZERO PUSH2 0x1519 JUMPI PUSH2 0x1518 PUSH2 0xB80 JUMP JUMPDEST JUMPDEST PUSH1 0x20 DUP4 ADD SWAP2 POP DUP4 PUSH1 0x20 DUP3 MUL DUP4 ADD GT ISZERO PUSH2 0x1535 JUMPI PUSH2 0x1534 PUSH2 0xB85 JUMP JUMPDEST JUMPDEST SWAP3 POP SWAP3 SWAP1 POP JUMP JUMPDEST PUSH1 0x0 DUP1 PUSH1 0x0 DUP1 PUSH1 0x0 PUSH1 0x80 DUP7 DUP9 SUB SLT ISZERO PUSH2 0x1558 JUMPI PUSH2 0x1557 PUSH2 0xB71 JUMP JUMPDEST JUMPDEST PUSH1 0x0 DUP7 ADD CALLDATALOAD PUSH8 0xFFFFFFFFFFFFFFFF DUP2 GT ISZERO PUSH2 0x1576 JUMPI PUSH2 0x1575 PUSH2 0xB76 JUMP JUMPDEST JUMPDEST PUSH2 0x1582 DUP9 DUP3 DUP10 ADD PUSH2 0x14E6 JUMP JUMPDEST SWAP6 POP SWAP6 POP POP PUSH1 0x20 DUP7 ADD CALLDATALOAD PUSH8 0xFFFFFFFFFFFFFFFF DUP2 GT ISZERO PUSH2 0x15A5 JUMPI PUSH2 0x15A4 PUSH2 0xB76 JUMP JUMPDEST JUMPDEST PUSH2 0x15B1 DUP9 DUP3 DUP10 ADD PUSH2 0xD8D JUMP JUMPDEST SWAP4 POP POP PUSH1 0x40 DUP7 ADD CALLDATALOAD PUSH8 0xFFFFFFFFFFFFFFFF DUP2 GT ISZERO PUSH2 0x15D2 JUMPI PUSH2 0x15D1 PUSH2 0xB76 JUMP JUMPDEST JUMPDEST PUSH2 0x15DE DUP9 DUP3 DUP10 ADD PUSH2 0x1411 JUMP JUMPDEST SWAP3 POP POP PUSH1 0x60 PUSH2 0x15EF DUP9 DUP3 DUP10 ADD PUSH2 0xD0F JUMP JUMPDEST SWAP2 POP POP SWAP3 SWAP6 POP SWAP3 SWAP6 SWAP1 SWAP4 POP JUMP JUMPDEST PUSH32 0x4E487B7100000000000000000000000000000000000000000000000000000000 PUSH1 0x0 MSTORE PUSH1 0x32 PUSH1 0x4 MSTORE PUSH1 0x24 PUSH1 0x0 REVERT JUMPDEST PUSH2 0x1634 DUP2 PUSH2 0x115A JUMP JUMPDEST DUP3 MSTORE POP POP JUMP JUMPDEST PUSH1 0x0 PUSH1 0x20 DUP3 ADD SWAP1 POP PUSH2 0x164F PUSH1 0x0 DUP4 ADD DUP5 PUSH2 0x162B JUMP JUMPDEST SWAP3 SWAP2 POP POP JUMP JUMPDEST PUSH32 0x4E487B7100000000000000000000000000000000000000000000000000000000 PUSH1 0x0 MSTORE PUSH1 0x11 PUSH1 0x4 MSTORE PUSH1 0x24 PUSH1 0x0 REVERT JUMPDEST PUSH1 0x0 PUSH2 0x168F DUP3 PUSH2 0x115A JUMP JUMPDEST SWAP2 POP PUSH32 0xFFFFFFFFFFFFFFFFFFFFFFFFFFFFFFFFFFFFFFFFFFFFFFFFFFFFFFFFFFFFFFFF DUP3 SUB PUSH2 0x16C1 JUMPI PUSH2 0x16C0 PUSH2 0x1655 JUMP JUMPDEST JUMPDEST PUSH1 0x1 DUP3 ADD SWAP1 POP SWAP2 SWAP1 POP JUMP JUMPDEST PUSH1 0x0 DUP2 SWAP1 POP SWAP2 SWAP1 POP JUMP JUMPDEST PUSH2 0x16E7 PUSH2 0x16E2 DUP3 PUSH2 0x115A JUMP JUMPDEST PUSH2 0x16CC JUMP JUMPDEST DUP3 MSTORE POP POP JUMP JUMPDEST PUSH1 0x0 PUSH2 0x16F9 DUP3 DUP5 PUSH2 0x16D6 JUMP JUMPDEST PUSH1 0x20 DUP3 ADD SWAP2 POP DUP2 SWAP1 POP SWAP3 SWAP2 POP POP JUMP JUMPDEST PUSH1 0x0 PUSH2 0x1713 DUP3 PUSH2 0x115A JUMP JUMPDEST SWAP2 POP PUSH2 0x171E DUP4 PUSH2 0x115A JUMP JUMPDEST SWAP3 POP DUP3 PUSH32 0xFFFFFFFFFFFFFFFFFFFFFFFFFFFFFFFFFFFFFFFFFFFFFFFFFFFFFFFFFFFFFFFF SUB DUP3 GT ISZERO PUSH2 0x1753 JUMPI PUSH2 0x1752 PUSH2 0x1655 JUMP JUMPDEST JUMPDEST DUP3 DUP3 ADD SWAP1 POP SWAP3 SWAP2 POP POP JUMP JUMPDEST PUSH1 0x0 PUSH2 0x1769 DUP3 PUSH2 0x115A JUMP JUMPDEST SWAP2 POP PUSH2 0x1774 DUP4 PUSH2 0x115A JUMP JUMPDEST SWAP3 POP DUP3 DUP3 LT ISZERO PUSH2 0x1787 JUMPI PUSH2 0x1786 PUSH2 0x1655 JUMP JUMPDEST JUMPDEST DUP3 DUP3 SUB SWAP1 POP SWAP3 SWAP2 POP POP JUMP JUMPDEST PUSH1 0x0 DUP3 DUP3 MSTORE PUSH1 0x20 DUP3 ADD SWAP1 POP SWAP3 SWAP2 POP POP JUMP JUMPDEST PUSH32 0x4D65726B6C6550726F6F663A20696E76616C6964206D756C746970726F6F6600 PUSH1 0x0 DUP3 ADD MSTORE POP JUMP JUMPDEST PUSH1 0x0 PUSH2 0x17D9 PUSH1 0x1F DUP4 PUSH2 0x1792 JUMP JUMPDEST SWAP2 POP PUSH2 0x17E4 DUP3 PUSH2 0x17A3 JUMP JUMPDEST PUSH1 0x20 DUP3 ADD SWAP1 POP SWAP2 SWAP1 POP JUMP JUMPDEST PUSH1 0x0 PUSH1 0x20 DUP3 ADD SWAP1 POP DUP2 DUP2 SUB PUSH1 0x0 DUP4 ADD MSTORE PUSH2 0x1808 DUP2 PUSH2 0x17CC JUMP JUMPDEST SWAP1 POP SWAP2 SWAP1 POP JUMP JUMPDEST PUSH1 0x0 PUSH1 0x20 DUP3 DUP5 SUB SLT ISZERO PUSH2 0x1825 JUMPI PUSH2 0x1824 PUSH2 0xB71 JUMP JUMPDEST JUMPDEST PUSH1 0x0 PUSH2 0x1833 DUP5 DUP3 DUP6 ADD PUSH2 0x1393 JUMP JUMPDEST SWAP2 POP POP SWAP3 SWAP2 POP POP JUMP INVALID LOG2 PUSH5 0x6970667358 0x22 SLT KECCAK256 NOT 0xE1 DUP2 STOP 0xB8 0xC6 SWAP3 0xE6 0xE4 PUSH3 0x8025A6 0xDA PUSH31 0x8EEF0D30249BAFC8176CB4100F1F43DD0764736F6C634300080D0033000000 "
        },
        "methodIdentifiers": {
          "getLeaves(uint256[])": "e05cc48a",
          "multiProofVerify(uint256[],bytes32[],bool[],bytes32)": "f514972c",
          "multiProofVerifyCalldata(bytes32[],bool[],bytes32,bytes32[])": "862aac96",
          "processMultiProof(bytes32[],bool[],bytes32[])": "ea5d3eb6",
          "processMultiProofCalldata(bytes32[],bool[],bytes32[])": "32712d22",
          "processProof(bytes32[],bytes32)": "62702a6b",
          "processProofCalldata(bytes32[],bytes32)": "53b0f85f",
          "verify(bytes32[],bytes32,bytes32)": "5a9a49c7",
          "verifyCalldata(bytes32[],bytes32,bytes32)": "7ffe9d8c"
        }
      }
    }
  }
}