{
  "contracts/MerkleProofWrapper.sol": {
    "MerkleProofWrapper": {
      "abi": [
        {
          "inputs": [
            {
              "internalType": "bytes32[]",
              "name": "proofs",
              "type": "bytes32[]"
            },
            {
              "internalType": "bool[]",
              "name": "proofFlag",
              "type": "bool[]"
            },
            {
              "internalType": "bytes32",
              "name": "root",
              "type": "bytes32"
            },
            {
              "internalType": "bytes32[]",
              "name": "leaves",
              "type": "bytes32[]"
            }
          ],
          "name": "multiProofVerify",
          "outputs": [
            {
              "internalType": "bool",
              "name": "",
              "type": "bool"
            }
          ],
          "stateMutability": "pure",
          "type": "function"
        },
        {
          "inputs": [
            {
              "internalType": "bytes32[]",
              "name": "proofs",
              "type": "bytes32[]"
            },
            {
              "internalType": "bool[]",
              "name": "proofFlag",
              "type": "bool[]"
            },
            {
              "internalType": "bytes32",
              "name": "root",
              "type": "bytes32"
            },
            {
              "internalType": "bytes32[]",
              "name": "leaves",
              "type": "bytes32[]"
            }
          ],
          "name": "multiProofVerifyCalldata",
          "outputs": [
            {
              "internalType": "bool",
              "name": "",
              "type": "bool"
            }
          ],
          "stateMutability": "pure",
          "type": "function"
        },
        {
          "inputs": [
            {
              "internalType": "bytes32[]",
              "name": "proofs",
              "type": "bytes32[]"
            },
            {
              "internalType": "bool[]",
              "name": "proofFlag",
              "type": "bool[]"
            },
            {
              "internalType": "bytes32[]",
              "name": "leaves",
              "type": "bytes32[]"
            }
          ],
          "name": "processMultiProof",
          "outputs": [
            {
              "internalType": "bytes32",
              "name": "",
              "type": "bytes32"
            }
          ],
          "stateMutability": "pure",
          "type": "function"
        },
        {
          "inputs": [
            {
              "internalType": "bytes32[]",
              "name": "proofs",
              "type": "bytes32[]"
            },
            {
              "internalType": "bool[]",
              "name": "proofFlag",
              "type": "bool[]"
            },
            {
              "internalType": "bytes32[]",
              "name": "leaves",
              "type": "bytes32[]"
            }
          ],
          "name": "processMultiProofCalldata",
          "outputs": [
            {
              "internalType": "bytes32",
              "name": "",
              "type": "bytes32"
            }
          ],
          "stateMutability": "pure",
          "type": "function"
        },
        {
          "inputs": [
            {
              "internalType": "bytes32[]",
              "name": "proof",
              "type": "bytes32[]"
            },
            {
              "internalType": "bytes32",
              "name": "leaf",
              "type": "bytes32"
            }
          ],
          "name": "processProof",
          "outputs": [
            {
              "internalType": "bytes32",
              "name": "",
              "type": "bytes32"
            }
          ],
          "stateMutability": "pure",
          "type": "function"
        },
        {
          "inputs": [
            {
              "internalType": "bytes32[]",
              "name": "proof",
              "type": "bytes32[]"
            },
            {
              "internalType": "bytes32",
              "name": "leaf",
              "type": "bytes32"
            }
          ],
          "name": "processProofCalldata",
          "outputs": [
            {
              "internalType": "bytes32",
              "name": "",
              "type": "bytes32"
            }
          ],
          "stateMutability": "pure",
          "type": "function"
        },
        {
          "inputs": [
            {
              "internalType": "bytes32[]",
              "name": "proof",
              "type": "bytes32[]"
            },
            {
              "internalType": "bytes32",
              "name": "root",
              "type": "bytes32"
            },
            {
              "internalType": "bytes32",
              "name": "leaf",
              "type": "bytes32"
            }
          ],
          "name": "verify",
          "outputs": [
            {
              "internalType": "bool",
              "name": "",
              "type": "bool"
            }
          ],
          "stateMutability": "pure",
          "type": "function"
        },
        {
          "inputs": [
            {
              "internalType": "bytes32[]",
              "name": "proof",
              "type": "bytes32[]"
            },
            {
              "internalType": "bytes32",
              "name": "root",
              "type": "bytes32"
            },
            {
              "internalType": "bytes32",
              "name": "leaf",
              "type": "bytes32"
            }
          ],
          "name": "verifyCalldata",
          "outputs": [
            {
              "internalType": "bool",
              "name": "",
              "type": "bool"
            }
          ],
          "stateMutability": "pure",
          "type": "function"
        }
      ],
      "evm": {
        "bytecode": {
          "linkReferences": {},
          "object": "608060405234801561001057600080fd5b506113b0806100206000396000f3fe608060405234801561001057600080fd5b50600436106100885760003560e01c80637ffe9d8c1161005b5780637ffe9d8c1461014d578063862aac961461017d57806386333816146101ad578063ea5d3eb6146101dd57610088565b806332712d221461008d57806353b0f85f146100bd5780635a9a49c7146100ed57806362702a6b1461011d575b600080fd5b6100a760048036038101906100a29190610bd2565b61020d565b6040516100b49190610c92565b60405180910390f35b6100d760048036038101906100d29190610cad565b610227565b6040516100e49190610c92565b60405180910390f35b61010760048036038101906101029190610d0d565b61023d565b6040516101149190610d97565b60405180910390f35b61013760048036038101906101329190610db2565b610253565b6040516101449190610c92565b60405180910390f35b61016760048036038101906101629190610e0e565b610267565b6040516101749190610d97565b60405180910390f35b61019760048036038101906101929190610e82565b61027f565b6040516101a49190610d97565b60405180910390f35b6101c760048036038101906101c29190611034565b61029b565b6040516101d49190610d97565b60405180910390f35b6101f760048036038101906101f291906110ef565b6102b3565b6040516102049190610c92565b60405180910390f35b600061021c86868686866102c9565b905095945050505050565b6000610234848484610581565b90509392505050565b600061024a8484846105d9565b90509392505050565b600061025f83836105f0565b905092915050565b600061027585858585610646565b9050949350505050565b600061028f87878787878761065f565b90509695505050505050565b60006102a98585858561067c565b9050949350505050565b60006102c0848484610695565b90509392505050565b60008082519050600085859050905080600189899050846102ea91906111cf565b6102f49190611225565b14610334576040517f08c379a000000000000000000000000000000000000000000000000000000000815260040161032b906112b6565b60405180910390fd5b60008167ffffffffffffffff8111156103505761034f610a5e565b5b60405190808252806020026020018201604052801561037e5781602001602082028036833780820191505090505b5090506000806000805b858110156104e45760008785106103c5578584806103a5906112d6565b9550815181106103b8576103b761131e565b5b60200260200101516103ed565b8985806103d1906112d6565b9650815181106103e4576103e361131e565b5b60200260200101515b905060008c8c848181106104045761040361131e565b5b9050602002016020810190610419919061134d565b610448578e8e858061042a906112d6565b965081811061043c5761043b61131e565b5b905060200201356104a4565b88861061047b5786858061045b906112d6565b96508151811061046e5761046d61131e565b5b60200260200101516104a3565b8a8680610487906112d6565b97508151811061049a5761049961131e565b5b60200260200101515b5b90506104b0828261093c565b8784815181106104c3576104c261131e565b5b602002602001018181525050505080806104dc906112d6565b915050610388565b50600085111561052257836001866104fc9190611225565b8151811061050d5761050c61131e565b5b60200260200101519650505050505050610578565b6000861115610554578760008151811061053f5761053e61131e565b5b60200260200101519650505050505050610578565b8b8b60008181106105685761056761131e565b5b9050602002013596505050505050505b95945050505050565b60008082905060005b858590508110156105cd576105b8828787848181106105ac576105ab61131e565b5b9050602002013561093c565b915080806105c5906112d6565b91505061058a565b50809150509392505050565b6000826105e685846105f0565b1490509392505050565b60008082905060005b845181101561063b57610626828683815181106106195761061861131e565b5b602002602001015161093c565b91508080610633906112d6565b9150506105f9565b508091505092915050565b600082610654868685610581565b149050949350505050565b60008261066f88888888876102c9565b1490509695505050505050565b60008261068a868685610695565b149050949350505050565b600080825190506000845190508060018751846106b291906111cf565b6106bc9190611225565b146106fc576040517f08c379a00000000000000000000000000000000000000000000000000000000081526004016106f3906112b6565b60405180910390fd5b60008167ffffffffffffffff81111561071857610717610a5e565b5b6040519080825280602002602001820160405280156107465781602001602082028036833780820191505090505b5090506000806000805b858110156108a057600087851061078d5785848061076d906112d6565b9550815181106107805761077f61131e565b5b60200260200101516107b5565b898580610799906112d6565b9650815181106107ac576107ab61131e565b5b60200260200101515b905060008b83815181106107cc576107cb61131e565b5b6020026020010151610804578c84806107e4906112d6565b9550815181106107f7576107f661131e565b5b6020026020010151610860565b88861061083757868580610817906112d6565b96508151811061082a5761082961131e565b5b602002602001015161085f565b8a8680610843906112d6565b9750815181106108565761085561131e565b5b60200260200101515b5b905061086c828261093c565b87848151811061087f5761087e61131e565b5b60200260200101818152505050508080610898906112d6565b915050610750565b5060008511156108de57836001866108b89190611225565b815181106108c9576108c861131e565b5b60200260200101519650505050505050610935565b600086111561091057876000815181106108fb576108fa61131e565b5b60200260200101519650505050505050610935565b896000815181106109245761092361131e565b5b602002602001015196505050505050505b9392505050565b60008183106109545761094f8284610967565b61095f565b61095e8383610967565b5b905092915050565b600082600052816020526040600020905092915050565b6000604051905090565b600080fd5b600080fd5b600080fd5b600080fd5b600080fd5b60008083601f8401126109b7576109b6610992565b5b8235905067ffffffffffffffff8111156109d4576109d3610997565b5b6020830191508360208202830111156109f0576109ef61099c565b5b9250929050565b60008083601f840112610a0d57610a0c610992565b5b8235905067ffffffffffffffff811115610a2a57610a29610997565b5b602083019150836020820283011115610a4657610a4561099c565b5b9250929050565b6000601f19601f8301169050919050565b7f4e487b7100000000000000000000000000000000000000000000000000000000600052604160045260246000fd5b610a9682610a4d565b810181811067ffffffffffffffff82111715610ab557610ab4610a5e565b5b80604052505050565b6000610ac861097e565b9050610ad48282610a8d565b919050565b600067ffffffffffffffff821115610af457610af3610a5e565b5b602082029050602081019050919050565b6000819050919050565b610b1881610b05565b8114610b2357600080fd5b50565b600081359050610b3581610b0f565b92915050565b6000610b4e610b4984610ad9565b610abe565b90508083825260208201905060208402830185811115610b7157610b7061099c565b5b835b81811015610b9a5780610b868882610b26565b845260208401935050602081019050610b73565b5050509392505050565b600082601f830112610bb957610bb8610992565b5b8135610bc9848260208601610b3b565b91505092915050565b600080600080600060608688031215610bee57610bed610988565b5b600086013567ffffffffffffffff811115610c0c57610c0b61098d565b5b610c18888289016109a1565b9550955050602086013567ffffffffffffffff811115610c3b57610c3a61098d565b5b610c47888289016109f7565b9350935050604086013567ffffffffffffffff811115610c6a57610c6961098d565b5b610c7688828901610ba4565b9150509295509295909350565b610c8c81610b05565b82525050565b6000602082019050610ca76000830184610c83565b92915050565b600080600060408486031215610cc657610cc5610988565b5b600084013567ffffffffffffffff811115610ce457610ce361098d565b5b610cf0868287016109a1565b93509350506020610d0386828701610b26565b9150509250925092565b600080600060608486031215610d2657610d25610988565b5b600084013567ffffffffffffffff811115610d4457610d4361098d565b5b610d5086828701610ba4565b9350506020610d6186828701610b26565b9250506040610d7286828701610b26565b9150509250925092565b60008115159050919050565b610d9181610d7c565b82525050565b6000602082019050610dac6000830184610d88565b92915050565b60008060408385031215610dc957610dc8610988565b5b600083013567ffffffffffffffff811115610de757610de661098d565b5b610df385828601610ba4565b9250506020610e0485828601610b26565b9150509250929050565b60008060008060608587031215610e2857610e27610988565b5b600085013567ffffffffffffffff811115610e4657610e4561098d565b5b610e52878288016109a1565b94509450506020610e6587828801610b26565b9250506040610e7687828801610b26565b91505092959194509250565b60008060008060008060808789031215610e9f57610e9e610988565b5b600087013567ffffffffffffffff811115610ebd57610ebc61098d565b5b610ec989828a016109a1565b9650965050602087013567ffffffffffffffff811115610eec57610eeb61098d565b5b610ef889828a016109f7565b94509450506040610f0b89828a01610b26565b925050606087013567ffffffffffffffff811115610f2c57610f2b61098d565b5b610f3889828a01610ba4565b9150509295509295509295565b600067ffffffffffffffff821115610f6057610f5f610a5e565b5b602082029050602081019050919050565b610f7a81610d7c565b8114610f8557600080fd5b50565b600081359050610f9781610f71565b92915050565b6000610fb0610fab84610f45565b610abe565b90508083825260208201905060208402830185811115610fd357610fd261099c565b5b835b81811015610ffc5780610fe88882610f88565b845260208401935050602081019050610fd5565b5050509392505050565b600082601f83011261101b5761101a610992565b5b813561102b848260208601610f9d565b91505092915050565b6000806000806080858703121561104e5761104d610988565b5b600085013567ffffffffffffffff81111561106c5761106b61098d565b5b61107887828801610ba4565b945050602085013567ffffffffffffffff8111156110995761109861098d565b5b6110a587828801611006565b93505060406110b687828801610b26565b925050606085013567ffffffffffffffff8111156110d7576110d661098d565b5b6110e387828801610ba4565b91505092959194509250565b60008060006060848603121561110857611107610988565b5b600084013567ffffffffffffffff8111156111265761112561098d565b5b61113286828701610ba4565b935050602084013567ffffffffffffffff8111156111535761115261098d565b5b61115f86828701611006565b925050604084013567ffffffffffffffff8111156111805761117f61098d565b5b61118c86828701610ba4565b9150509250925092565b6000819050919050565b7f4e487b7100000000000000000000000000000000000000000000000000000000600052601160045260246000fd5b60006111da82611196565b91506111e583611196565b9250827fffffffffffffffffffffffffffffffffffffffffffffffffffffffffffffffff0382111561121a576112196111a0565b5b828201905092915050565b600061123082611196565b915061123b83611196565b92508282101561124e5761124d6111a0565b5b828203905092915050565b600082825260208201905092915050565b7f4d65726b6c6550726f6f663a20696e76616c6964206d756c746970726f6f6600600082015250565b60006112a0601f83611259565b91506112ab8261126a565b602082019050919050565b600060208201905081810360008301526112cf81611293565b9050919050565b60006112e182611196565b91507fffffffffffffffffffffffffffffffffffffffffffffffffffffffffffffffff8203611313576113126111a0565b5b600182019050919050565b7f4e487b7100000000000000000000000000000000000000000000000000000000600052603260045260246000fd5b60006020828403121561136357611362610988565b5b600061137184828501610f88565b9150509291505056fea26469706673582212207e77a9fbe171e856a56a1ff0d4851359239828b9f1c04679ac85080a387a0cfe64736f6c634300080d0033",
          "opcodes": "PUSH1 0x80 PUSH1 0x40 MSTORE CALLVALUE DUP1 ISZERO PUSH2 0x10 JUMPI PUSH1 0x0 DUP1 REVERT JUMPDEST POP PUSH2 0x13B0 DUP1 PUSH2 0x20 PUSH1 0x0 CODECOPY PUSH1 0x0 RETURN INVALID PUSH1 0x80 PUSH1 0x40 MSTORE CALLVALUE DUP1 ISZERO PUSH2 0x10 JUMPI PUSH1 0x0 DUP1 REVERT JUMPDEST POP PUSH1 0x4 CALLDATASIZE LT PUSH2 0x88 JUMPI PUSH1 0x0 CALLDATALOAD PUSH1 0xE0 SHR DUP1 PUSH4 0x7FFE9D8C GT PUSH2 0x5B JUMPI DUP1 PUSH4 0x7FFE9D8C EQ PUSH2 0x14D JUMPI DUP1 PUSH4 0x862AAC96 EQ PUSH2 0x17D JUMPI DUP1 PUSH4 0x86333816 EQ PUSH2 0x1AD JUMPI DUP1 PUSH4 0xEA5D3EB6 EQ PUSH2 0x1DD JUMPI PUSH2 0x88 JUMP JUMPDEST DUP1 PUSH4 0x32712D22 EQ PUSH2 0x8D JUMPI DUP1 PUSH4 0x53B0F85F EQ PUSH2 0xBD JUMPI DUP1 PUSH4 0x5A9A49C7 EQ PUSH2 0xED JUMPI DUP1 PUSH4 0x62702A6B EQ PUSH2 0x11D JUMPI JUMPDEST PUSH1 0x0 DUP1 REVERT JUMPDEST PUSH2 0xA7 PUSH1 0x4 DUP1 CALLDATASIZE SUB DUP2 ADD SWAP1 PUSH2 0xA2 SWAP2 SWAP1 PUSH2 0xBD2 JUMP JUMPDEST PUSH2 0x20D JUMP JUMPDEST PUSH1 0x40 MLOAD PUSH2 0xB4 SWAP2 SWAP1 PUSH2 0xC92 JUMP JUMPDEST PUSH1 0x40 MLOAD DUP1 SWAP2 SUB SWAP1 RETURN JUMPDEST PUSH2 0xD7 PUSH1 0x4 DUP1 CALLDATASIZE SUB DUP2 ADD SWAP1 PUSH2 0xD2 SWAP2 SWAP1 PUSH2 0xCAD JUMP JUMPDEST PUSH2 0x227 JUMP JUMPDEST PUSH1 0x40 MLOAD PUSH2 0xE4 SWAP2 SWAP1 PUSH2 0xC92 JUMP JUMPDEST PUSH1 0x40 MLOAD DUP1 SWAP2 SUB SWAP1 RETURN JUMPDEST PUSH2 0x107 PUSH1 0x4 DUP1 CALLDATASIZE SUB DUP2 ADD SWAP1 PUSH2 0x102 SWAP2 SWAP1 PUSH2 0xD0D JUMP JUMPDEST PUSH2 0x23D JUMP JUMPDEST PUSH1 0x40 MLOAD PUSH2 0x114 SWAP2 SWAP1 PUSH2 0xD97 JUMP JUMPDEST PUSH1 0x40 MLOAD DUP1 SWAP2 SUB SWAP1 RETURN JUMPDEST PUSH2 0x137 PUSH1 0x4 DUP1 CALLDATASIZE SUB DUP2 ADD SWAP1 PUSH2 0x132 SWAP2 SWAP1 PUSH2 0xDB2 JUMP JUMPDEST PUSH2 0x253 JUMP JUMPDEST PUSH1 0x40 MLOAD PUSH2 0x144 SWAP2 SWAP1 PUSH2 0xC92 JUMP JUMPDEST PUSH1 0x40 MLOAD DUP1 SWAP2 SUB SWAP1 RETURN JUMPDEST PUSH2 0x167 PUSH1 0x4 DUP1 CALLDATASIZE SUB DUP2 ADD SWAP1 PUSH2 0x162 SWAP2 SWAP1 PUSH2 0xE0E JUMP JUMPDEST PUSH2 0x267 JUMP JUMPDEST PUSH1 0x40 MLOAD PUSH2 0x174 SWAP2 SWAP1 PUSH2 0xD97 JUMP JUMPDEST PUSH1 0x40 MLOAD DUP1 SWAP2 SUB SWAP1 RETURN JUMPDEST PUSH2 0x197 PUSH1 0x4 DUP1 CALLDATASIZE SUB DUP2 ADD SWAP1 PUSH2 0x192 SWAP2 SWAP1 PUSH2 0xE82 JUMP JUMPDEST PUSH2 0x27F JUMP JUMPDEST PUSH1 0x40 MLOAD PUSH2 0x1A4 SWAP2 SWAP1 PUSH2 0xD97 JUMP JUMPDEST PUSH1 0x40 MLOAD DUP1 SWAP2 SUB SWAP1 RETURN JUMPDEST PUSH2 0x1C7 PUSH1 0x4 DUP1 CALLDATASIZE SUB DUP2 ADD SWAP1 PUSH2 0x1C2 SWAP2 SWAP1 PUSH2 0x1034 JUMP JUMPDEST PUSH2 0x29B JUMP JUMPDEST PUSH1 0x40 MLOAD PUSH2 0x1D4 SWAP2 SWAP1 PUSH2 0xD97 JUMP JUMPDEST PUSH1 0x40 MLOAD DUP1 SWAP2 SUB SWAP1 RETURN JUMPDEST PUSH2 0x1F7 PUSH1 0x4 DUP1 CALLDATASIZE SUB DUP2 ADD SWAP1 PUSH2 0x1F2 SWAP2 SWAP1 PUSH2 0x10EF JUMP JUMPDEST PUSH2 0x2B3 JUMP JUMPDEST PUSH1 0x40 MLOAD PUSH2 0x204 SWAP2 SWAP1 PUSH2 0xC92 JUMP JUMPDEST PUSH1 0x40 MLOAD DUP1 SWAP2 SUB SWAP1 RETURN JUMPDEST PUSH1 0x0 PUSH2 0x21C DUP7 DUP7 DUP7 DUP7 DUP7 PUSH2 0x2C9 JUMP JUMPDEST SWAP1 POP SWAP6 SWAP5 POP POP POP POP POP JUMP JUMPDEST PUSH1 0x0 PUSH2 0x234 DUP5 DUP5 DUP5 PUSH2 0x581 JUMP JUMPDEST SWAP1 POP SWAP4 SWAP3 POP POP POP JUMP JUMPDEST PUSH1 0x0 PUSH2 0x24A DUP5 DUP5 DUP5 PUSH2 0x5D9 JUMP JUMPDEST SWAP1 POP SWAP4 SWAP3 POP POP POP JUMP JUMPDEST PUSH1 0x0 PUSH2 0x25F DUP4 DUP4 PUSH2 0x5F0 JUMP JUMPDEST SWAP1 POP SWAP3 SWAP2 POP POP JUMP JUMPDEST PUSH1 0x0 PUSH2 0x275 DUP6 DUP6 DUP6 DUP6 PUSH2 0x646 JUMP JUMPDEST SWAP1 POP SWAP5 SWAP4 POP POP POP POP JUMP JUMPDEST PUSH1 0x0 PUSH2 0x28F DUP8 DUP8 DUP8 DUP8 DUP8 DUP8 PUSH2 0x65F JUMP JUMPDEST SWAP1 POP SWAP7 SWAP6 POP POP POP POP POP POP JUMP JUMPDEST PUSH1 0x0 PUSH2 0x2A9 DUP6 DUP6 DUP6 DUP6 PUSH2 0x67C JUMP JUMPDEST SWAP1 POP SWAP5 SWAP4 POP POP POP POP JUMP JUMPDEST PUSH1 0x0 PUSH2 0x2C0 DUP5 DUP5 DUP5 PUSH2 0x695 JUMP JUMPDEST SWAP1 POP SWAP4 SWAP3 POP POP POP JUMP JUMPDEST PUSH1 0x0 DUP1 DUP3 MLOAD SWAP1 POP PUSH1 0x0 DUP6 DUP6 SWAP1 POP SWAP1 POP DUP1 PUSH1 0x1 DUP10 DUP10 SWAP1 POP DUP5 PUSH2 0x2EA SWAP2 SWAP1 PUSH2 0x11CF JUMP JUMPDEST PUSH2 0x2F4 SWAP2 SWAP1 PUSH2 0x1225 JUMP JUMPDEST EQ PUSH2 0x334 JUMPI PUSH1 0x40 MLOAD PUSH32 0x8C379A000000000000000000000000000000000000000000000000000000000 DUP2 MSTORE PUSH1 0x4 ADD PUSH2 0x32B SWAP1 PUSH2 0x12B6 JUMP JUMPDEST PUSH1 0x40 MLOAD DUP1 SWAP2 SUB SWAP1 REVERT JUMPDEST PUSH1 0x0 DUP2 PUSH8 0xFFFFFFFFFFFFFFFF DUP2 GT ISZERO PUSH2 0x350 JUMPI PUSH2 0x34F PUSH2 0xA5E JUMP JUMPDEST JUMPDEST PUSH1 0x40 MLOAD SWAP1 DUP1 DUP3 MSTORE DUP1 PUSH1 0x20 MUL PUSH1 0x20 ADD DUP3 ADD PUSH1 0x40 MSTORE DUP1 ISZERO PUSH2 0x37E JUMPI DUP2 PUSH1 0x20 ADD PUSH1 0x20 DUP3 MUL DUP1 CALLDATASIZE DUP4 CALLDATACOPY DUP1 DUP3 ADD SWAP2 POP POP SWAP1 POP JUMPDEST POP SWAP1 POP PUSH1 0x0 DUP1 PUSH1 0x0 DUP1 JUMPDEST DUP6 DUP2 LT ISZERO PUSH2 0x4E4 JUMPI PUSH1 0x0 DUP8 DUP6 LT PUSH2 0x3C5 JUMPI DUP6 DUP5 DUP1 PUSH2 0x3A5 SWAP1 PUSH2 0x12D6 JUMP JUMPDEST SWAP6 POP DUP2 MLOAD DUP2 LT PUSH2 0x3B8 JUMPI PUSH2 0x3B7 PUSH2 0x131E JUMP JUMPDEST JUMPDEST PUSH1 0x20 MUL PUSH1 0x20 ADD ADD MLOAD PUSH2 0x3ED JUMP JUMPDEST DUP10 DUP6 DUP1 PUSH2 0x3D1 SWAP1 PUSH2 0x12D6 JUMP JUMPDEST SWAP7 POP DUP2 MLOAD DUP2 LT PUSH2 0x3E4 JUMPI PUSH2 0x3E3 PUSH2 0x131E JUMP JUMPDEST JUMPDEST PUSH1 0x20 MUL PUSH1 0x20 ADD ADD MLOAD JUMPDEST SWAP1 POP PUSH1 0x0 DUP13 DUP13 DUP5 DUP2 DUP2 LT PUSH2 0x404 JUMPI PUSH2 0x403 PUSH2 0x131E JUMP JUMPDEST JUMPDEST SWAP1 POP PUSH1 0x20 MUL ADD PUSH1 0x20 DUP2 ADD SWAP1 PUSH2 0x419 SWAP2 SWAP1 PUSH2 0x134D JUMP JUMPDEST PUSH2 0x448 JUMPI DUP15 DUP15 DUP6 DUP1 PUSH2 0x42A SWAP1 PUSH2 0x12D6 JUMP JUMPDEST SWAP7 POP DUP2 DUP2 LT PUSH2 0x43C JUMPI PUSH2 0x43B PUSH2 0x131E JUMP JUMPDEST JUMPDEST SWAP1 POP PUSH1 0x20 MUL ADD CALLDATALOAD PUSH2 0x4A4 JUMP JUMPDEST DUP9 DUP7 LT PUSH2 0x47B JUMPI DUP7 DUP6 DUP1 PUSH2 0x45B SWAP1 PUSH2 0x12D6 JUMP JUMPDEST SWAP7 POP DUP2 MLOAD DUP2 LT PUSH2 0x46E JUMPI PUSH2 0x46D PUSH2 0x131E JUMP JUMPDEST JUMPDEST PUSH1 0x20 MUL PUSH1 0x20 ADD ADD MLOAD PUSH2 0x4A3 JUMP JUMPDEST DUP11 DUP7 DUP1 PUSH2 0x487 SWAP1 PUSH2 0x12D6 JUMP JUMPDEST SWAP8 POP DUP2 MLOAD DUP2 LT PUSH2 0x49A JUMPI PUSH2 0x499 PUSH2 0x131E JUMP JUMPDEST JUMPDEST PUSH1 0x20 MUL PUSH1 0x20 ADD ADD MLOAD JUMPDEST JUMPDEST SWAP1 POP PUSH2 0x4B0 DUP3 DUP3 PUSH2 0x93C JUMP JUMPDEST DUP8 DUP5 DUP2 MLOAD DUP2 LT PUSH2 0x4C3 JUMPI PUSH2 0x4C2 PUSH2 0x131E JUMP JUMPDEST JUMPDEST PUSH1 0x20 MUL PUSH1 0x20 ADD ADD DUP2 DUP2 MSTORE POP POP POP POP DUP1 DUP1 PUSH2 0x4DC SWAP1 PUSH2 0x12D6 JUMP JUMPDEST SWAP2 POP POP PUSH2 0x388 JUMP JUMPDEST POP PUSH1 0x0 DUP6 GT ISZERO PUSH2 0x522 JUMPI DUP4 PUSH1 0x1 DUP7 PUSH2 0x4FC SWAP2 SWAP1 PUSH2 0x1225 JUMP JUMPDEST DUP2 MLOAD DUP2 LT PUSH2 0x50D JUMPI PUSH2 0x50C PUSH2 0x131E JUMP JUMPDEST JUMPDEST PUSH1 0x20 MUL PUSH1 0x20 ADD ADD MLOAD SWAP7 POP POP POP POP POP POP POP PUSH2 0x578 JUMP JUMPDEST PUSH1 0x0 DUP7 GT ISZERO PUSH2 0x554 JUMPI DUP8 PUSH1 0x0 DUP2 MLOAD DUP2 LT PUSH2 0x53F JUMPI PUSH2 0x53E PUSH2 0x131E JUMP JUMPDEST JUMPDEST PUSH1 0x20 MUL PUSH1 0x20 ADD ADD MLOAD SWAP7 POP POP POP POP POP POP POP PUSH2 0x578 JUMP JUMPDEST DUP12 DUP12 PUSH1 0x0 DUP2 DUP2 LT PUSH2 0x568 JUMPI PUSH2 0x567 PUSH2 0x131E JUMP JUMPDEST JUMPDEST SWAP1 POP PUSH1 0x20 MUL ADD CALLDATALOAD SWAP7 POP POP POP POP POP POP POP JUMPDEST SWAP6 SWAP5 POP POP POP POP POP JUMP JUMPDEST PUSH1 0x0 DUP1 DUP3 SWAP1 POP PUSH1 0x0 JUMPDEST DUP6 DUP6 SWAP1 POP DUP2 LT ISZERO PUSH2 0x5CD JUMPI PUSH2 0x5B8 DUP3 DUP8 DUP8 DUP5 DUP2 DUP2 LT PUSH2 0x5AC JUMPI PUSH2 0x5AB PUSH2 0x131E JUMP JUMPDEST JUMPDEST SWAP1 POP PUSH1 0x20 MUL ADD CALLDATALOAD PUSH2 0x93C JUMP JUMPDEST SWAP2 POP DUP1 DUP1 PUSH2 0x5C5 SWAP1 PUSH2 0x12D6 JUMP JUMPDEST SWAP2 POP POP PUSH2 0x58A JUMP JUMPDEST POP DUP1 SWAP2 POP POP SWAP4 SWAP3 POP POP POP JUMP JUMPDEST PUSH1 0x0 DUP3 PUSH2 0x5E6 DUP6 DUP5 PUSH2 0x5F0 JUMP JUMPDEST EQ SWAP1 POP SWAP4 SWAP3 POP POP POP JUMP JUMPDEST PUSH1 0x0 DUP1 DUP3 SWAP1 POP PUSH1 0x0 JUMPDEST DUP5 MLOAD DUP2 LT ISZERO PUSH2 0x63B JUMPI PUSH2 0x626 DUP3 DUP7 DUP4 DUP2 MLOAD DUP2 LT PUSH2 0x619 JUMPI PUSH2 0x618 PUSH2 0x131E JUMP JUMPDEST JUMPDEST PUSH1 0x20 MUL PUSH1 0x20 ADD ADD MLOAD PUSH2 0x93C JUMP JUMPDEST SWAP2 POP DUP1 DUP1 PUSH2 0x633 SWAP1 PUSH2 0x12D6 JUMP JUMPDEST SWAP2 POP POP PUSH2 0x5F9 JUMP JUMPDEST POP DUP1 SWAP2 POP POP SWAP3 SWAP2 POP POP JUMP JUMPDEST PUSH1 0x0 DUP3 PUSH2 0x654 DUP7 DUP7 DUP6 PUSH2 0x581 JUMP JUMPDEST EQ SWAP1 POP SWAP5 SWAP4 POP POP POP POP JUMP JUMPDEST PUSH1 0x0 DUP3 PUSH2 0x66F DUP9 DUP9 DUP9 DUP9 DUP8 PUSH2 0x2C9 JUMP JUMPDEST EQ SWAP1 POP SWAP7 SWAP6 POP POP POP POP POP POP JUMP JUMPDEST PUSH1 0x0 DUP3 PUSH2 0x68A DUP7 DUP7 DUP6 PUSH2 0x695 JUMP JUMPDEST EQ SWAP1 POP SWAP5 SWAP4 POP POP POP POP JUMP JUMPDEST PUSH1 0x0 DUP1 DUP3 MLOAD SWAP1 POP PUSH1 0x0 DUP5 MLOAD SWAP1 POP DUP1 PUSH1 0x1 DUP8 MLOAD DUP5 PUSH2 0x6B2 SWAP2 SWAP1 PUSH2 0x11CF JUMP JUMPDEST PUSH2 0x6BC SWAP2 SWAP1 PUSH2 0x1225 JUMP JUMPDEST EQ PUSH2 0x6FC JUMPI PUSH1 0x40 MLOAD PUSH32 0x8C379A000000000000000000000000000000000000000000000000000000000 DUP2 MSTORE PUSH1 0x4 ADD PUSH2 0x6F3 SWAP1 PUSH2 0x12B6 JUMP JUMPDEST PUSH1 0x40 MLOAD DUP1 SWAP2 SUB SWAP1 REVERT JUMPDEST PUSH1 0x0 DUP2 PUSH8 0xFFFFFFFFFFFFFFFF DUP2 GT ISZERO PUSH2 0x718 JUMPI PUSH2 0x717 PUSH2 0xA5E JUMP JUMPDEST JUMPDEST PUSH1 0x40 MLOAD SWAP1 DUP1 DUP3 MSTORE DUP1 PUSH1 0x20 MUL PUSH1 0x20 ADD DUP3 ADD PUSH1 0x40 MSTORE DUP1 ISZERO PUSH2 0x746 JUMPI DUP2 PUSH1 0x20 ADD PUSH1 0x20 DUP3 MUL DUP1 CALLDATASIZE DUP4 CALLDATACOPY DUP1 DUP3 ADD SWAP2 POP POP SWAP1 POP JUMPDEST POP SWAP1 POP PUSH1 0x0 DUP1 PUSH1 0x0 DUP1 JUMPDEST DUP6 DUP2 LT ISZERO PUSH2 0x8A0 JUMPI PUSH1 0x0 DUP8 DUP6 LT PUSH2 0x78D JUMPI DUP6 DUP5 DUP1 PUSH2 0x76D SWAP1 PUSH2 0x12D6 JUMP JUMPDEST SWAP6 POP DUP2 MLOAD DUP2 LT PUSH2 0x780 JUMPI PUSH2 0x77F PUSH2 0x131E JUMP JUMPDEST JUMPDEST PUSH1 0x20 MUL PUSH1 0x20 ADD ADD MLOAD PUSH2 0x7B5 JUMP JUMPDEST DUP10 DUP6 DUP1 PUSH2 0x799 SWAP1 PUSH2 0x12D6 JUMP JUMPDEST SWAP7 POP DUP2 MLOAD DUP2 LT PUSH2 0x7AC JUMPI PUSH2 0x7AB PUSH2 0x131E JUMP JUMPDEST JUMPDEST PUSH1 0x20 MUL PUSH1 0x20 ADD ADD MLOAD JUMPDEST SWAP1 POP PUSH1 0x0 DUP12 DUP4 DUP2 MLOAD DUP2 LT PUSH2 0x7CC JUMPI PUSH2 0x7CB PUSH2 0x131E JUMP JUMPDEST JUMPDEST PUSH1 0x20 MUL PUSH1 0x20 ADD ADD MLOAD PUSH2 0x804 JUMPI DUP13 DUP5 DUP1 PUSH2 0x7E4 SWAP1 PUSH2 0x12D6 JUMP JUMPDEST SWAP6 POP DUP2 MLOAD DUP2 LT PUSH2 0x7F7 JUMPI PUSH2 0x7F6 PUSH2 0x131E JUMP JUMPDEST JUMPDEST PUSH1 0x20 MUL PUSH1 0x20 ADD ADD MLOAD PUSH2 0x860 JUMP JUMPDEST DUP9 DUP7 LT PUSH2 0x837 JUMPI DUP7 DUP6 DUP1 PUSH2 0x817 SWAP1 PUSH2 0x12D6 JUMP JUMPDEST SWAP7 POP DUP2 MLOAD DUP2 LT PUSH2 0x82A JUMPI PUSH2 0x829 PUSH2 0x131E JUMP JUMPDEST JUMPDEST PUSH1 0x20 MUL PUSH1 0x20 ADD ADD MLOAD PUSH2 0x85F JUMP JUMPDEST DUP11 DUP7 DUP1 PUSH2 0x843 SWAP1 PUSH2 0x12D6 JUMP JUMPDEST SWAP8 POP DUP2 MLOAD DUP2 LT PUSH2 0x856 JUMPI PUSH2 0x855 PUSH2 0x131E JUMP JUMPDEST JUMPDEST PUSH1 0x20 MUL PUSH1 0x20 ADD ADD MLOAD JUMPDEST JUMPDEST SWAP1 POP PUSH2 0x86C DUP3 DUP3 PUSH2 0x93C JUMP JUMPDEST DUP8 DUP5 DUP2 MLOAD DUP2 LT PUSH2 0x87F JUMPI PUSH2 0x87E PUSH2 0x131E JUMP JUMPDEST JUMPDEST PUSH1 0x20 MUL PUSH1 0x20 ADD ADD DUP2 DUP2 MSTORE POP POP POP POP DUP1 DUP1 PUSH2 0x898 SWAP1 PUSH2 0x12D6 JUMP JUMPDEST SWAP2 POP POP PUSH2 0x750 JUMP JUMPDEST POP PUSH1 0x0 DUP6 GT ISZERO PUSH2 0x8DE JUMPI DUP4 PUSH1 0x1 DUP7 PUSH2 0x8B8 SWAP2 SWAP1 PUSH2 0x1225 JUMP JUMPDEST DUP2 MLOAD DUP2 LT PUSH2 0x8C9 JUMPI PUSH2 0x8C8 PUSH2 0x131E JUMP JUMPDEST JUMPDEST PUSH1 0x20 MUL PUSH1 0x20 ADD ADD MLOAD SWAP7 POP POP POP POP POP POP POP PUSH2 0x935 JUMP JUMPDEST PUSH1 0x0 DUP7 GT ISZERO PUSH2 0x910 JUMPI DUP8 PUSH1 0x0 DUP2 MLOAD DUP2 LT PUSH2 0x8FB JUMPI PUSH2 0x8FA PUSH2 0x131E JUMP JUMPDEST JUMPDEST PUSH1 0x20 MUL PUSH1 0x20 ADD ADD MLOAD SWAP7 POP POP POP POP POP POP POP PUSH2 0x935 JUMP JUMPDEST DUP10 PUSH1 0x0 DUP2 MLOAD DUP2 LT PUSH2 0x924 JUMPI PUSH2 0x923 PUSH2 0x131E JUMP JUMPDEST JUMPDEST PUSH1 0x20 MUL PUSH1 0x20 ADD ADD MLOAD SWAP7 POP POP POP POP POP POP POP JUMPDEST SWAP4 SWAP3 POP POP POP JUMP JUMPDEST PUSH1 0x0 DUP2 DUP4 LT PUSH2 0x954 JUMPI PUSH2 0x94F DUP3 DUP5 PUSH2 0x967 JUMP JUMPDEST PUSH2 0x95F JUMP JUMPDEST PUSH2 0x95E DUP4 DUP4 PUSH2 0x967 JUMP JUMPDEST JUMPDEST SWAP1 POP SWAP3 SWAP2 POP POP JUMP JUMPDEST PUSH1 0x0 DUP3 PUSH1 0x0 MSTORE DUP2 PUSH1 0x20 MSTORE PUSH1 0x40 PUSH1 0x0 KECCAK256 SWAP1 POP SWAP3 SWAP2 POP POP JUMP JUMPDEST PUSH1 0x0 PUSH1 0x40 MLOAD SWAP1 POP SWAP1 JUMP JUMPDEST PUSH1 0x0 DUP1 REVERT JUMPDEST PUSH1 0x0 DUP1 REVERT JUMPDEST PUSH1 0x0 DUP1 REVERT JUMPDEST PUSH1 0x0 DUP1 REVERT JUMPDEST PUSH1 0x0 DUP1 REVERT JUMPDEST PUSH1 0x0 DUP1 DUP4 PUSH1 0x1F DUP5 ADD SLT PUSH2 0x9B7 JUMPI PUSH2 0x9B6 PUSH2 0x992 JUMP JUMPDEST JUMPDEST DUP3 CALLDATALOAD SWAP1 POP PUSH8 0xFFFFFFFFFFFFFFFF DUP2 GT ISZERO PUSH2 0x9D4 JUMPI PUSH2 0x9D3 PUSH2 0x997 JUMP JUMPDEST JUMPDEST PUSH1 0x20 DUP4 ADD SWAP2 POP DUP4 PUSH1 0x20 DUP3 MUL DUP4 ADD GT ISZERO PUSH2 0x9F0 JUMPI PUSH2 0x9EF PUSH2 0x99C JUMP JUMPDEST JUMPDEST SWAP3 POP SWAP3 SWAP1 POP JUMP JUMPDEST PUSH1 0x0 DUP1 DUP4 PUSH1 0x1F DUP5 ADD SLT PUSH2 0xA0D JUMPI PUSH2 0xA0C PUSH2 0x992 JUMP JUMPDEST JUMPDEST DUP3 CALLDATALOAD SWAP1 POP PUSH8 0xFFFFFFFFFFFFFFFF DUP2 GT ISZERO PUSH2 0xA2A JUMPI PUSH2 0xA29 PUSH2 0x997 JUMP JUMPDEST JUMPDEST PUSH1 0x20 DUP4 ADD SWAP2 POP DUP4 PUSH1 0x20 DUP3 MUL DUP4 ADD GT ISZERO PUSH2 0xA46 JUMPI PUSH2 0xA45 PUSH2 0x99C JUMP JUMPDEST JUMPDEST SWAP3 POP SWAP3 SWAP1 POP JUMP JUMPDEST PUSH1 0x0 PUSH1 0x1F NOT PUSH1 0x1F DUP4 ADD AND SWAP1 POP SWAP2 SWAP1 POP JUMP JUMPDEST PUSH32 0x4E487B7100000000000000000000000000000000000000000000000000000000 PUSH1 0x0 MSTORE PUSH1 0x41 PUSH1 0x4 MSTORE PUSH1 0x24 PUSH1 0x0 REVERT JUMPDEST PUSH2 0xA96 DUP3 PUSH2 0xA4D JUMP JUMPDEST DUP2 ADD DUP2 DUP2 LT PUSH8 0xFFFFFFFFFFFFFFFF DUP3 GT OR ISZERO PUSH2 0xAB5 JUMPI PUSH2 0xAB4 PUSH2 0xA5E JUMP JUMPDEST JUMPDEST DUP1 PUSH1 0x40 MSTORE POP POP POP JUMP JUMPDEST PUSH1 0x0 PUSH2 0xAC8 PUSH2 0x97E JUMP JUMPDEST SWAP1 POP PUSH2 0xAD4 DUP3 DUP3 PUSH2 0xA8D JUMP JUMPDEST SWAP2 SWAP1 POP JUMP JUMPDEST PUSH1 0x0 PUSH8 0xFFFFFFFFFFFFFFFF DUP3 GT ISZERO PUSH2 0xAF4 JUMPI PUSH2 0xAF3 PUSH2 0xA5E JUMP JUMPDEST JUMPDEST PUSH1 0x20 DUP3 MUL SWAP1 POP PUSH1 0x20 DUP2 ADD SWAP1 POP SWAP2 SWAP1 POP JUMP JUMPDEST PUSH1 0x0 DUP2 SWAP1 POP SWAP2 SWAP1 POP JUMP JUMPDEST PUSH2 0xB18 DUP2 PUSH2 0xB05 JUMP JUMPDEST DUP2 EQ PUSH2 0xB23 JUMPI PUSH1 0x0 DUP1 REVERT JUMPDEST POP JUMP JUMPDEST PUSH1 0x0 DUP2 CALLDATALOAD SWAP1 POP PUSH2 0xB35 DUP2 PUSH2 0xB0F JUMP JUMPDEST SWAP3 SWAP2 POP POP JUMP JUMPDEST PUSH1 0x0 PUSH2 0xB4E PUSH2 0xB49 DUP5 PUSH2 0xAD9 JUMP JUMPDEST PUSH2 0xABE JUMP JUMPDEST SWAP1 POP DUP1 DUP4 DUP3 MSTORE PUSH1 0x20 DUP3 ADD SWAP1 POP PUSH1 0x20 DUP5 MUL DUP4 ADD DUP6 DUP2 GT ISZERO PUSH2 0xB71 JUMPI PUSH2 0xB70 PUSH2 0x99C JUMP JUMPDEST JUMPDEST DUP4 JUMPDEST DUP2 DUP2 LT ISZERO PUSH2 0xB9A JUMPI DUP1 PUSH2 0xB86 DUP9 DUP3 PUSH2 0xB26 JUMP JUMPDEST DUP5 MSTORE PUSH1 0x20 DUP5 ADD SWAP4 POP POP PUSH1 0x20 DUP2 ADD SWAP1 POP PUSH2 0xB73 JUMP JUMPDEST POP POP POP SWAP4 SWAP3 POP POP POP JUMP JUMPDEST PUSH1 0x0 DUP3 PUSH1 0x1F DUP4 ADD SLT PUSH2 0xBB9 JUMPI PUSH2 0xBB8 PUSH2 0x992 JUMP JUMPDEST JUMPDEST DUP2 CALLDATALOAD PUSH2 0xBC9 DUP5 DUP3 PUSH1 0x20 DUP7 ADD PUSH2 0xB3B JUMP JUMPDEST SWAP2 POP POP SWAP3 SWAP2 POP POP JUMP JUMPDEST PUSH1 0x0 DUP1 PUSH1 0x0 DUP1 PUSH1 0x0 PUSH1 0x60 DUP7 DUP9 SUB SLT ISZERO PUSH2 0xBEE JUMPI PUSH2 0xBED PUSH2 0x988 JUMP JUMPDEST JUMPDEST PUSH1 0x0 DUP7 ADD CALLDATALOAD PUSH8 0xFFFFFFFFFFFFFFFF DUP2 GT ISZERO PUSH2 0xC0C JUMPI PUSH2 0xC0B PUSH2 0x98D JUMP JUMPDEST JUMPDEST PUSH2 0xC18 DUP9 DUP3 DUP10 ADD PUSH2 0x9A1 JUMP JUMPDEST SWAP6 POP SWAP6 POP POP PUSH1 0x20 DUP7 ADD CALLDATALOAD PUSH8 0xFFFFFFFFFFFFFFFF DUP2 GT ISZERO PUSH2 0xC3B JUMPI PUSH2 0xC3A PUSH2 0x98D JUMP JUMPDEST JUMPDEST PUSH2 0xC47 DUP9 DUP3 DUP10 ADD PUSH2 0x9F7 JUMP JUMPDEST SWAP4 POP SWAP4 POP POP PUSH1 0x40 DUP7 ADD CALLDATALOAD PUSH8 0xFFFFFFFFFFFFFFFF DUP2 GT ISZERO PUSH2 0xC6A JUMPI PUSH2 0xC69 PUSH2 0x98D JUMP JUMPDEST JUMPDEST PUSH2 0xC76 DUP9 DUP3 DUP10 ADD PUSH2 0xBA4 JUMP JUMPDEST SWAP2 POP POP SWAP3 SWAP6 POP SWAP3 SWAP6 SWAP1 SWAP4 POP JUMP JUMPDEST PUSH2 0xC8C DUP2 PUSH2 0xB05 JUMP JUMPDEST DUP3 MSTORE POP POP JUMP JUMPDEST PUSH1 0x0 PUSH1 0x20 DUP3 ADD SWAP1 POP PUSH2 0xCA7 PUSH1 0x0 DUP4 ADD DUP5 PUSH2 0xC83 JUMP JUMPDEST SWAP3 SWAP2 POP POP JUMP JUMPDEST PUSH1 0x0 DUP1 PUSH1 0x0 PUSH1 0x40 DUP5 DUP7 SUB SLT ISZERO PUSH2 0xCC6 JUMPI PUSH2 0xCC5 PUSH2 0x988 JUMP JUMPDEST JUMPDEST PUSH1 0x0 DUP5 ADD CALLDATALOAD PUSH8 0xFFFFFFFFFFFFFFFF DUP2 GT ISZERO PUSH2 0xCE4 JUMPI PUSH2 0xCE3 PUSH2 0x98D JUMP JUMPDEST JUMPDEST PUSH2 0xCF0 DUP7 DUP3 DUP8 ADD PUSH2 0x9A1 JUMP JUMPDEST SWAP4 POP SWAP4 POP POP PUSH1 0x20 PUSH2 0xD03 DUP7 DUP3 DUP8 ADD PUSH2 0xB26 JUMP JUMPDEST SWAP2 POP POP SWAP3 POP SWAP3 POP SWAP3 JUMP JUMPDEST PUSH1 0x0 DUP1 PUSH1 0x0 PUSH1 0x60 DUP5 DUP7 SUB SLT ISZERO PUSH2 0xD26 JUMPI PUSH2 0xD25 PUSH2 0x988 JUMP JUMPDEST JUMPDEST PUSH1 0x0 DUP5 ADD CALLDATALOAD PUSH8 0xFFFFFFFFFFFFFFFF DUP2 GT ISZERO PUSH2 0xD44 JUMPI PUSH2 0xD43 PUSH2 0x98D JUMP JUMPDEST JUMPDEST PUSH2 0xD50 DUP7 DUP3 DUP8 ADD PUSH2 0xBA4 JUMP JUMPDEST SWAP4 POP POP PUSH1 0x20 PUSH2 0xD61 DUP7 DUP3 DUP8 ADD PUSH2 0xB26 JUMP JUMPDEST SWAP3 POP POP PUSH1 0x40 PUSH2 0xD72 DUP7 DUP3 DUP8 ADD PUSH2 0xB26 JUMP JUMPDEST SWAP2 POP POP SWAP3 POP SWAP3 POP SWAP3 JUMP JUMPDEST PUSH1 0x0 DUP2 ISZERO ISZERO SWAP1 POP SWAP2 SWAP1 POP JUMP JUMPDEST PUSH2 0xD91 DUP2 PUSH2 0xD7C JUMP JUMPDEST DUP3 MSTORE POP POP JUMP JUMPDEST PUSH1 0x0 PUSH1 0x20 DUP3 ADD SWAP1 POP PUSH2 0xDAC PUSH1 0x0 DUP4 ADD DUP5 PUSH2 0xD88 JUMP JUMPDEST SWAP3 SWAP2 POP POP JUMP JUMPDEST PUSH1 0x0 DUP1 PUSH1 0x40 DUP4 DUP6 SUB SLT ISZERO PUSH2 0xDC9 JUMPI PUSH2 0xDC8 PUSH2 0x988 JUMP JUMPDEST JUMPDEST PUSH1 0x0 DUP4 ADD CALLDATALOAD PUSH8 0xFFFFFFFFFFFFFFFF DUP2 GT ISZERO PUSH2 0xDE7 JUMPI PUSH2 0xDE6 PUSH2 0x98D JUMP JUMPDEST JUMPDEST PUSH2 0xDF3 DUP6 DUP3 DUP7 ADD PUSH2 0xBA4 JUMP JUMPDEST SWAP3 POP POP PUSH1 0x20 PUSH2 0xE04 DUP6 DUP3 DUP7 ADD PUSH2 0xB26 JUMP JUMPDEST SWAP2 POP POP SWAP3 POP SWAP3 SWAP1 POP JUMP JUMPDEST PUSH1 0x0 DUP1 PUSH1 0x0 DUP1 PUSH1 0x60 DUP6 DUP8 SUB SLT ISZERO PUSH2 0xE28 JUMPI PUSH2 0xE27 PUSH2 0x988 JUMP JUMPDEST JUMPDEST PUSH1 0x0 DUP6 ADD CALLDATALOAD PUSH8 0xFFFFFFFFFFFFFFFF DUP2 GT ISZERO PUSH2 0xE46 JUMPI PUSH2 0xE45 PUSH2 0x98D JUMP JUMPDEST JUMPDEST PUSH2 0xE52 DUP8 DUP3 DUP9 ADD PUSH2 0x9A1 JUMP JUMPDEST SWAP5 POP SWAP5 POP POP PUSH1 0x20 PUSH2 0xE65 DUP8 DUP3 DUP9 ADD PUSH2 0xB26 JUMP JUMPDEST SWAP3 POP POP PUSH1 0x40 PUSH2 0xE76 DUP8 DUP3 DUP9 ADD PUSH2 0xB26 JUMP JUMPDEST SWAP2 POP POP SWAP3 SWAP6 SWAP2 SWAP5 POP SWAP3 POP JUMP JUMPDEST PUSH1 0x0 DUP1 PUSH1 0x0 DUP1 PUSH1 0x0 DUP1 PUSH1 0x80 DUP8 DUP10 SUB SLT ISZERO PUSH2 0xE9F JUMPI PUSH2 0xE9E PUSH2 0x988 JUMP JUMPDEST JUMPDEST PUSH1 0x0 DUP8 ADD CALLDATALOAD PUSH8 0xFFFFFFFFFFFFFFFF DUP2 GT ISZERO PUSH2 0xEBD JUMPI PUSH2 0xEBC PUSH2 0x98D JUMP JUMPDEST JUMPDEST PUSH2 0xEC9 DUP10 DUP3 DUP11 ADD PUSH2 0x9A1 JUMP JUMPDEST SWAP7 POP SWAP7 POP POP PUSH1 0x20 DUP8 ADD CALLDATALOAD PUSH8 0xFFFFFFFFFFFFFFFF DUP2 GT ISZERO PUSH2 0xEEC JUMPI PUSH2 0xEEB PUSH2 0x98D JUMP JUMPDEST JUMPDEST PUSH2 0xEF8 DUP10 DUP3 DUP11 ADD PUSH2 0x9F7 JUMP JUMPDEST SWAP5 POP SWAP5 POP POP PUSH1 0x40 PUSH2 0xF0B DUP10 DUP3 DUP11 ADD PUSH2 0xB26 JUMP JUMPDEST SWAP3 POP POP PUSH1 0x60 DUP8 ADD CALLDATALOAD PUSH8 0xFFFFFFFFFFFFFFFF DUP2 GT ISZERO PUSH2 0xF2C JUMPI PUSH2 0xF2B PUSH2 0x98D JUMP JUMPDEST JUMPDEST PUSH2 0xF38 DUP10 DUP3 DUP11 ADD PUSH2 0xBA4 JUMP JUMPDEST SWAP2 POP POP SWAP3 SWAP6 POP SWAP3 SWAP6 POP SWAP3 SWAP6 JUMP JUMPDEST PUSH1 0x0 PUSH8 0xFFFFFFFFFFFFFFFF DUP3 GT ISZERO PUSH2 0xF60 JUMPI PUSH2 0xF5F PUSH2 0xA5E JUMP JUMPDEST JUMPDEST PUSH1 0x20 DUP3 MUL SWAP1 POP PUSH1 0x20 DUP2 ADD SWAP1 POP SWAP2 SWAP1 POP JUMP JUMPDEST PUSH2 0xF7A DUP2 PUSH2 0xD7C JUMP JUMPDEST DUP2 EQ PUSH2 0xF85 JUMPI PUSH1 0x0 DUP1 REVERT JUMPDEST POP JUMP JUMPDEST PUSH1 0x0 DUP2 CALLDATALOAD SWAP1 POP PUSH2 0xF97 DUP2 PUSH2 0xF71 JUMP JUMPDEST SWAP3 SWAP2 POP POP JUMP JUMPDEST PUSH1 0x0 PUSH2 0xFB0 PUSH2 0xFAB DUP5 PUSH2 0xF45 JUMP JUMPDEST PUSH2 0xABE JUMP JUMPDEST SWAP1 POP DUP1 DUP4 DUP3 MSTORE PUSH1 0x20 DUP3 ADD SWAP1 POP PUSH1 0x20 DUP5 MUL DUP4 ADD DUP6 DUP2 GT ISZERO PUSH2 0xFD3 JUMPI PUSH2 0xFD2 PUSH2 0x99C JUMP JUMPDEST JUMPDEST DUP4 JUMPDEST DUP2 DUP2 LT ISZERO PUSH2 0xFFC JUMPI DUP1 PUSH2 0xFE8 DUP9 DUP3 PUSH2 0xF88 JUMP JUMPDEST DUP5 MSTORE PUSH1 0x20 DUP5 ADD SWAP4 POP POP PUSH1 0x20 DUP2 ADD SWAP1 POP PUSH2 0xFD5 JUMP JUMPDEST POP POP POP SWAP4 SWAP3 POP POP POP JUMP JUMPDEST PUSH1 0x0 DUP3 PUSH1 0x1F DUP4 ADD SLT PUSH2 0x101B JUMPI PUSH2 0x101A PUSH2 0x992 JUMP JUMPDEST JUMPDEST DUP2 CALLDATALOAD PUSH2 0x102B DUP5 DUP3 PUSH1 0x20 DUP7 ADD PUSH2 0xF9D JUMP JUMPDEST SWAP2 POP POP SWAP3 SWAP2 POP POP JUMP JUMPDEST PUSH1 0x0 DUP1 PUSH1 0x0 DUP1 PUSH1 0x80 DUP6 DUP8 SUB SLT ISZERO PUSH2 0x104E JUMPI PUSH2 0x104D PUSH2 0x988 JUMP JUMPDEST JUMPDEST PUSH1 0x0 DUP6 ADD CALLDATALOAD PUSH8 0xFFFFFFFFFFFFFFFF DUP2 GT ISZERO PUSH2 0x106C JUMPI PUSH2 0x106B PUSH2 0x98D JUMP JUMPDEST JUMPDEST PUSH2 0x1078 DUP8 DUP3 DUP9 ADD PUSH2 0xBA4 JUMP JUMPDEST SWAP5 POP POP PUSH1 0x20 DUP6 ADD CALLDATALOAD PUSH8 0xFFFFFFFFFFFFFFFF DUP2 GT ISZERO PUSH2 0x1099 JUMPI PUSH2 0x1098 PUSH2 0x98D JUMP JUMPDEST JUMPDEST PUSH2 0x10A5 DUP8 DUP3 DUP9 ADD PUSH2 0x1006 JUMP JUMPDEST SWAP4 POP POP PUSH1 0x40 PUSH2 0x10B6 DUP8 DUP3 DUP9 ADD PUSH2 0xB26 JUMP JUMPDEST SWAP3 POP POP PUSH1 0x60 DUP6 ADD CALLDATALOAD PUSH8 0xFFFFFFFFFFFFFFFF DUP2 GT ISZERO PUSH2 0x10D7 JUMPI PUSH2 0x10D6 PUSH2 0x98D JUMP JUMPDEST JUMPDEST PUSH2 0x10E3 DUP8 DUP3 DUP9 ADD PUSH2 0xBA4 JUMP JUMPDEST SWAP2 POP POP SWAP3 SWAP6 SWAP2 SWAP5 POP SWAP3 POP JUMP JUMPDEST PUSH1 0x0 DUP1 PUSH1 0x0 PUSH1 0x60 DUP5 DUP7 SUB SLT ISZERO PUSH2 0x1108 JUMPI PUSH2 0x1107 PUSH2 0x988 JUMP JUMPDEST JUMPDEST PUSH1 0x0 DUP5 ADD CALLDATALOAD PUSH8 0xFFFFFFFFFFFFFFFF DUP2 GT ISZERO PUSH2 0x1126 JUMPI PUSH2 0x1125 PUSH2 0x98D JUMP JUMPDEST JUMPDEST PUSH2 0x1132 DUP7 DUP3 DUP8 ADD PUSH2 0xBA4 JUMP JUMPDEST SWAP4 POP POP PUSH1 0x20 DUP5 ADD CALLDATALOAD PUSH8 0xFFFFFFFFFFFFFFFF DUP2 GT ISZERO PUSH2 0x1153 JUMPI PUSH2 0x1152 PUSH2 0x98D JUMP JUMPDEST JUMPDEST PUSH2 0x115F DUP7 DUP3 DUP8 ADD PUSH2 0x1006 JUMP JUMPDEST SWAP3 POP POP PUSH1 0x40 DUP5 ADD CALLDATALOAD PUSH8 0xFFFFFFFFFFFFFFFF DUP2 GT ISZERO PUSH2 0x1180 JUMPI PUSH2 0x117F PUSH2 0x98D JUMP JUMPDEST JUMPDEST PUSH2 0x118C DUP7 DUP3 DUP8 ADD PUSH2 0xBA4 JUMP JUMPDEST SWAP2 POP POP SWAP3 POP SWAP3 POP SWAP3 JUMP JUMPDEST PUSH1 0x0 DUP2 SWAP1 POP SWAP2 SWAP1 POP JUMP JUMPDEST PUSH32 0x4E487B7100000000000000000000000000000000000000000000000000000000 PUSH1 0x0 MSTORE PUSH1 0x11 PUSH1 0x4 MSTORE PUSH1 0x24 PUSH1 0x0 REVERT JUMPDEST PUSH1 0x0 PUSH2 0x11DA DUP3 PUSH2 0x1196 JUMP JUMPDEST SWAP2 POP PUSH2 0x11E5 DUP4 PUSH2 0x1196 JUMP JUMPDEST SWAP3 POP DUP3 PUSH32 0xFFFFFFFFFFFFFFFFFFFFFFFFFFFFFFFFFFFFFFFFFFFFFFFFFFFFFFFFFFFFFFFF SUB DUP3 GT ISZERO PUSH2 0x121A JUMPI PUSH2 0x1219 PUSH2 0x11A0 JUMP JUMPDEST JUMPDEST DUP3 DUP3 ADD SWAP1 POP SWAP3 SWAP2 POP POP JUMP JUMPDEST PUSH1 0x0 PUSH2 0x1230 DUP3 PUSH2 0x1196 JUMP JUMPDEST SWAP2 POP PUSH2 0x123B DUP4 PUSH2 0x1196 JUMP JUMPDEST SWAP3 POP DUP3 DUP3 LT ISZERO PUSH2 0x124E JUMPI PUSH2 0x124D PUSH2 0x11A0 JUMP JUMPDEST JUMPDEST DUP3 DUP3 SUB SWAP1 POP SWAP3 SWAP2 POP POP JUMP JUMPDEST PUSH1 0x0 DUP3 DUP3 MSTORE PUSH1 0x20 DUP3 ADD SWAP1 POP SWAP3 SWAP2 POP POP JUMP JUMPDEST PUSH32 0x4D65726B6C6550726F6F663A20696E76616C6964206D756C746970726F6F6600 PUSH1 0x0 DUP3 ADD MSTORE POP JUMP JUMPDEST PUSH1 0x0 PUSH2 0x12A0 PUSH1 0x1F DUP4 PUSH2 0x1259 JUMP JUMPDEST SWAP2 POP PUSH2 0x12AB DUP3 PUSH2 0x126A JUMP JUMPDEST PUSH1 0x20 DUP3 ADD SWAP1 POP SWAP2 SWAP1 POP JUMP JUMPDEST PUSH1 0x0 PUSH1 0x20 DUP3 ADD SWAP1 POP DUP2 DUP2 SUB PUSH1 0x0 DUP4 ADD MSTORE PUSH2 0x12CF DUP2 PUSH2 0x1293 JUMP JUMPDEST SWAP1 POP SWAP2 SWAP1 POP JUMP JUMPDEST PUSH1 0x0 PUSH2 0x12E1 DUP3 PUSH2 0x1196 JUMP JUMPDEST SWAP2 POP PUSH32 0xFFFFFFFFFFFFFFFFFFFFFFFFFFFFFFFFFFFFFFFFFFFFFFFFFFFFFFFFFFFFFFFF DUP3 SUB PUSH2 0x1313 JUMPI PUSH2 0x1312 PUSH2 0x11A0 JUMP JUMPDEST JUMPDEST PUSH1 0x1 DUP3 ADD SWAP1 POP SWAP2 SWAP1 POP JUMP JUMPDEST PUSH32 0x4E487B7100000000000000000000000000000000000000000000000000000000 PUSH1 0x0 MSTORE PUSH1 0x32 PUSH1 0x4 MSTORE PUSH1 0x24 PUSH1 0x0 REVERT JUMPDEST PUSH1 0x0 PUSH1 0x20 DUP3 DUP5 SUB SLT ISZERO PUSH2 0x1363 JUMPI PUSH2 0x1362 PUSH2 0x988 JUMP JUMPDEST JUMPDEST PUSH1 0x0 PUSH2 0x1371 DUP5 DUP3 DUP6 ADD PUSH2 0xF88 JUMP JUMPDEST SWAP2 POP POP SWAP3 SWAP2 POP POP JUMP INVALID LOG2 PUSH5 0x6970667358 0x22 SLT KECCAK256 PUSH31 0x77A9FBE171E856A56A1FF0D4851359239828B9F1C04679AC85080A387A0CFE PUSH5 0x736F6C6343 STOP ADDMOD 0xD STOP CALLER "
        },
        "methodIdentifiers": {
          "multiProofVerify(bytes32[],bool[],bytes32,bytes32[])": "86333816",
          "multiProofVerifyCalldata(bytes32[],bool[],bytes32,bytes32[])": "862aac96",
          "processMultiProof(bytes32[],bool[],bytes32[])": "ea5d3eb6",
          "processMultiProofCalldata(bytes32[],bool[],bytes32[])": "32712d22",
          "processProof(bytes32[],bytes32)": "62702a6b",
          "processProofCalldata(bytes32[],bytes32)": "53b0f85f",
          "verify(bytes32[],bytes32,bytes32)": "5a9a49c7",
          "verifyCalldata(bytes32[],bytes32,bytes32)": "7ffe9d8c"
        }
      }
    }
  }
}