{
  "_format": "hh-sol-artifact-1",
  "contractName": "ERC1155Metadata",
  "sourceName": "contracts/erc1155/ERC1155Metadata.sol",
  "abi": [
    {
      "anonymous": false,
      "inputs": [
        {
          "indexed": false,
          "internalType": "string",
          "name": "_uri",
          "type": "string"
        },
        {
          "indexed": true,
          "internalType": "uint256",
          "name": "_id",
          "type": "uint256"
        }
      ],
      "name": "URI",
      "type": "event"
    },
    {
      "inputs": [
        {
          "internalType": "bytes4",
          "name": "_interfaceID",
          "type": "bytes4"
        }
      ],
      "name": "supportsInterface",
      "outputs": [
        {
          "internalType": "bool",
          "name": "",
          "type": "bool"
        }
      ],
      "stateMutability": "view",
      "type": "function"
    },
    {
      "inputs": [
        {
          "internalType": "uint256",
          "name": "_id",
          "type": "uint256"
        }
      ],
      "name": "uri",
      "outputs": [
        {
          "internalType": "string",
          "name": "",
          "type": "string"
        }
      ],
      "stateMutability": "view",
      "type": "function"
    }
  ],
  "bytecode": "0x608060405234801561001057600080fd5b50610907806100206000396000f3fe608060405234801561001057600080fd5b50600436106100365760003560e01c806301ffc9a71461003b5780630e89341c1461006b575b600080fd5b6100556004803603810190610050919061038c565b61009b565b60405161006291906103d4565b60405180910390f35b61008560048036038101906100809190610425565b61011c565b60405161009291906104eb565b60405180910390f35b60007f0e89341c000000000000000000000000000000000000000000000000000000007bffffffffffffffffffffffffffffffffffffffffffffffffffffffff1916827bffffffffffffffffffffffffffffffffffffffffffffffffffffffff19160361010b5760019050610117565b61011482610150565b90505b919050565b60606000610129836101ba565b60405160200161013a929190610689565b6040516020818303038152906040529050919050565b60007f01ffc9a7000000000000000000000000000000000000000000000000000000007bffffffffffffffffffffffffffffffffffffffffffffffffffffffff1916827bffffffffffffffffffffffffffffffffffffffffffffffffffffffff1916149050919050565b606060008203610201576040518060400160405280600181526020017f3000000000000000000000000000000000000000000000000000000000000000815250905061032a565b6000829050600083905060005b60008314610238578080610221906106e7565b915050600a83610231919061075e565b925061020e565b60008167ffffffffffffffff8111156102545761025361078f565b5b6040519080825280601f01601f1916602001820160405280156102865781602001600182028036833780820191505090505b509050600060018361029891906107be565b90505b6000841461032157600a846102b091906107f2565b60306102bc9190610823565b60f81b8282806102cb90610879565b9350815181106102de576102dd6108a2565b5b60200101907effffffffffffffffffffffffffffffffffffffffffffffffffffffffffffff1916908160001a905350600a8461031a919061075e565b935061029b565b81955050505050505b919050565b600080fd5b60007fffffffff0000000000000000000000000000000000000000000000000000000082169050919050565b61036981610334565b811461037457600080fd5b50565b60008135905061038681610360565b92915050565b6000602082840312156103a2576103a161032f565b5b60006103b084828501610377565b91505092915050565b60008115159050919050565b6103ce816103b9565b82525050565b60006020820190506103e960008301846103c5565b92915050565b6000819050919050565b610402816103ef565b811461040d57600080fd5b50565b60008135905061041f816103f9565b92915050565b60006020828403121561043b5761043a61032f565b5b600061044984828501610410565b91505092915050565b600081519050919050565b600082825260208201905092915050565b60005b8381101561048c578082015181840152602081019050610471565b8381111561049b576000848401525b50505050565b6000601f19601f8301169050919050565b60006104bd82610452565b6104c7818561045d565b93506104d781856020860161046e565b6104e0816104a1565b840191505092915050565b6000602082019050818103600083015261050581846104b2565b905092915050565b7f4e487b7100000000000000000000000000000000000000000000000000000000600052602260045260246000fd5b6000600282049050600182168061055457607f821691505b6020821081036105675761056661050d565b5b50919050565b600081905092915050565b60008190508160005260206000209050919050565b6000815461059a8161053c565b6105a4818661056d565b945060018216600081146105bf57600181146105d057610603565b60ff19831686528186019350610603565b6105d985610578565b60005b838110156105fb578154818901526001820191506020810190506105dc565b838801955050505b50505092915050565b600061061782610452565b610621818561056d565b935061063181856020860161046e565b80840191505092915050565b7f2e6a736f6e000000000000000000000000000000000000000000000000000000600082015250565b600061067360058361056d565b915061067e8261063d565b600582019050919050565b6000610695828561058d565b91506106a1828461060c565b91506106ac82610666565b91508190509392505050565b7f4e487b7100000000000000000000000000000000000000000000000000000000600052601160045260246000fd5b60006106f2826103ef565b91507fffffffffffffffffffffffffffffffffffffffffffffffffffffffffffffffff8203610724576107236106b8565b5b600182019050919050565b7f4e487b7100000000000000000000000000000000000000000000000000000000600052601260045260246000fd5b6000610769826103ef565b9150610774836103ef565b9250826107845761078361072f565b5b828204905092915050565b7f4e487b7100000000000000000000000000000000000000000000000000000000600052604160045260246000fd5b60006107c9826103ef565b91506107d4836103ef565b9250828210156107e7576107e66106b8565b5b828203905092915050565b60006107fd826103ef565b9150610808836103ef565b9250826108185761081761072f565b5b828206905092915050565b600061082e826103ef565b9150610839836103ef565b9250827fffffffffffffffffffffffffffffffffffffffffffffffffffffffffffffffff0382111561086e5761086d6106b8565b5b828201905092915050565b6000610884826103ef565b915060008203610897576108966106b8565b5b600182039050919050565b7f4e487b7100000000000000000000000000000000000000000000000000000000600052603260045260246000fdfea26469706673582212206d8124e06f08337895a0f4368bd7b53c5ea604b71a08a4d2f30479c3a1b8953f64736f6c634300080d0033",
  "linkReferences": {},
  "deployedLinkReferences": {}
}