{
  "_format": "hh-sol-artifact-1",
  "contractName": "Materia",
  "sourceName": "contracts/Materia.sol",
  "abi": [
    {
      "inputs": [
        {
          "internalType": "string",
          "name": "_name",
          "type": "string"
        },
        {
          "internalType": "string",
          "name": "_symbol",
          "type": "string"
        },
        {
          "internalType": "string",
          "name": "_metadataURI",
          "type": "string"
        },
        {
          "internalType": "uint256",
          "name": "end",
          "type": "uint256"
        },
        {
          "internalType": "address",
          "name": "signer",
          "type": "address"
        },
        {
          "internalType": "address",
          "name": "antonym",
          "type": "address"
        },
        {
          "internalType": "uint256[]",
          "name": "antonym1of1Tokens",
          "type": "uint256[]"
        }
      ],
      "stateMutability": "nonpayable",
      "type": "constructor"
    },
    {
      "anonymous": false,
      "inputs": [
        {
          "indexed": true,
          "internalType": "address",
          "name": "_owner",
          "type": "address"
        },
        {
          "indexed": true,
          "internalType": "address",
          "name": "_operator",
          "type": "address"
        },
        {
          "indexed": false,
          "internalType": "bool",
          "name": "_approved",
          "type": "bool"
        }
      ],
      "name": "ApprovalForAll",
      "type": "event"
    },
    {
      "anonymous": false,
      "inputs": [
        {
          "indexed": true,
          "internalType": "address",
          "name": "previousOwner",
          "type": "address"
        },
        {
          "indexed": true,
          "internalType": "address",
          "name": "newOwner",
          "type": "address"
        }
      ],
      "name": "OwnershipTransferred",
      "type": "event"
    },
    {
      "anonymous": false,
      "inputs": [
        {
          "indexed": true,
          "internalType": "address",
          "name": "_operator",
          "type": "address"
        },
        {
          "indexed": true,
          "internalType": "address",
          "name": "_from",
          "type": "address"
        },
        {
          "indexed": true,
          "internalType": "address",
          "name": "_to",
          "type": "address"
        },
        {
          "indexed": false,
          "internalType": "uint256[]",
          "name": "_ids",
          "type": "uint256[]"
        },
        {
          "indexed": false,
          "internalType": "uint256[]",
          "name": "_amounts",
          "type": "uint256[]"
        }
      ],
      "name": "TransferBatch",
      "type": "event"
    },
    {
      "anonymous": false,
      "inputs": [
        {
          "indexed": true,
          "internalType": "address",
          "name": "_operator",
          "type": "address"
        },
        {
          "indexed": true,
          "internalType": "address",
          "name": "_from",
          "type": "address"
        },
        {
          "indexed": true,
          "internalType": "address",
          "name": "_to",
          "type": "address"
        },
        {
          "indexed": false,
          "internalType": "uint256",
          "name": "_id",
          "type": "uint256"
        },
        {
          "indexed": false,
          "internalType": "uint256",
          "name": "_amount",
          "type": "uint256"
        }
      ],
      "name": "TransferSingle",
      "type": "event"
    },
    {
      "anonymous": false,
      "inputs": [
        {
          "indexed": false,
          "internalType": "string",
          "name": "_uri",
          "type": "string"
        },
        {
          "indexed": true,
          "internalType": "uint256",
          "name": "_id",
          "type": "uint256"
        }
      ],
      "name": "URI",
      "type": "event"
    },
    {
      "inputs": [
        {
          "internalType": "bool",
          "name": "allow",
          "type": "bool"
        }
      ],
      "name": "allowMinting",
      "outputs": [],
      "stateMutability": "nonpayable",
      "type": "function"
    },
    {
      "inputs": [
        {
          "internalType": "address",
          "name": "_owner",
          "type": "address"
        },
        {
          "internalType": "uint256",
          "name": "_id",
          "type": "uint256"
        }
      ],
      "name": "balanceOf",
      "outputs": [
        {
          "internalType": "uint256",
          "name": "",
          "type": "uint256"
        }
      ],
      "stateMutability": "view",
      "type": "function"
    },
    {
      "inputs": [
        {
          "internalType": "address[]",
          "name": "_owners",
          "type": "address[]"
        },
        {
          "internalType": "uint256[]",
          "name": "_ids",
          "type": "uint256[]"
        }
      ],
      "name": "balanceOfBatch",
      "outputs": [
        {
          "internalType": "uint256[]",
          "name": "",
          "type": "uint256[]"
        }
      ],
      "stateMutability": "view",
      "type": "function"
    },
    {
      "inputs": [],
      "name": "getNextTokenID",
      "outputs": [
        {
          "internalType": "uint8",
          "name": "",
          "type": "uint8"
        }
      ],
      "stateMutability": "view",
      "type": "function"
    },
    {
      "inputs": [
        {
          "internalType": "uint256",
          "name": "",
          "type": "uint256"
        }
      ],
      "name": "isAntonymTokenUsed",
      "outputs": [
        {
          "internalType": "uint256",
          "name": "",
          "type": "uint256"
        }
      ],
      "stateMutability": "view",
      "type": "function"
    },
    {
      "inputs": [
        {
          "internalType": "address",
          "name": "_owner",
          "type": "address"
        },
        {
          "internalType": "address",
          "name": "_operator",
          "type": "address"
        }
      ],
      "name": "isApprovedForAll",
      "outputs": [
        {
          "internalType": "bool",
          "name": "isOperator",
          "type": "bool"
        }
      ],
      "stateMutability": "view",
      "type": "function"
    },
    {
      "inputs": [
        {
          "internalType": "address",
          "name": "account",
          "type": "address"
        },
        {
          "internalType": "uint256[]",
          "name": "tokenIds",
          "type": "uint256[]"
        }
      ],
      "name": "messageHash",
      "outputs": [
        {
          "internalType": "bytes32",
          "name": "",
          "type": "bytes32"
        }
      ],
      "stateMutability": "pure",
      "type": "function"
    },
    {
      "inputs": [
        {
          "internalType": "uint256[]",
          "name": "tokenIds",
          "type": "uint256[]"
        },
        {
          "internalType": "bytes",
          "name": "signature",
          "type": "bytes"
        }
      ],
      "name": "mint",
      "outputs": [],
      "stateMutability": "nonpayable",
      "type": "function"
    },
    {
      "inputs": [
        {
          "internalType": "address",
          "name": "to",
          "type": "address"
        },
        {
          "internalType": "uint256",
          "name": "amountMateria",
          "type": "uint256"
        },
        {
          "internalType": "uint256",
          "name": "amountPrimaMateria",
          "type": "uint256"
        }
      ],
      "name": "mintBatchMateria",
      "outputs": [],
      "stateMutability": "nonpayable",
      "type": "function"
    },
    {
      "inputs": [],
      "name": "name",
      "outputs": [
        {
          "internalType": "string",
          "name": "",
          "type": "string"
        }
      ],
      "stateMutability": "view",
      "type": "function"
    },
    {
      "inputs": [],
      "name": "owner",
      "outputs": [
        {
          "internalType": "address",
          "name": "",
          "type": "address"
        }
      ],
      "stateMutability": "view",
      "type": "function"
    },
    {
      "inputs": [],
      "name": "renounceOwnership",
      "outputs": [],
      "stateMutability": "nonpayable",
      "type": "function"
    },
    {
      "inputs": [
        {
          "internalType": "uint256",
          "name": "_tokenId",
          "type": "uint256"
        },
        {
          "internalType": "uint256",
          "name": "_salePrice",
          "type": "uint256"
        }
      ],
      "name": "royaltyInfo",
      "outputs": [
        {
          "internalType": "address",
          "name": "receiver",
          "type": "address"
        },
        {
          "internalType": "uint256",
          "name": "royaltyAmount",
          "type": "uint256"
        }
      ],
      "stateMutability": "view",
      "type": "function"
    },
    {
      "inputs": [
        {
          "internalType": "address",
          "name": "_from",
          "type": "address"
        },
        {
          "internalType": "address",
          "name": "_to",
          "type": "address"
        },
        {
          "internalType": "uint256[]",
          "name": "_ids",
          "type": "uint256[]"
        },
        {
          "internalType": "uint256[]",
          "name": "_amounts",
          "type": "uint256[]"
        },
        {
          "internalType": "bytes",
          "name": "_data",
          "type": "bytes"
        }
      ],
      "name": "safeBatchTransferFrom",
      "outputs": [],
      "stateMutability": "nonpayable",
      "type": "function"
    },
    {
      "inputs": [
        {
          "internalType": "address",
          "name": "_from",
          "type": "address"
        },
        {
          "internalType": "address",
          "name": "_to",
          "type": "address"
        },
        {
          "internalType": "uint256",
          "name": "_id",
          "type": "uint256"
        },
        {
          "internalType": "uint256",
          "name": "_amount",
          "type": "uint256"
        },
        {
          "internalType": "bytes",
          "name": "_data",
          "type": "bytes"
        }
      ],
      "name": "safeTransferFrom",
      "outputs": [],
      "stateMutability": "nonpayable",
      "type": "function"
    },
    {
      "inputs": [
        {
          "internalType": "address",
          "name": "_operator",
          "type": "address"
        },
        {
          "internalType": "bool",
          "name": "_approved",
          "type": "bool"
        }
      ],
      "name": "setApprovalForAll",
      "outputs": [],
      "stateMutability": "nonpayable",
      "type": "function"
    },
    {
      "inputs": [
        {
          "internalType": "string",
          "name": "_newBaseMetadataURI",
          "type": "string"
        }
      ],
      "name": "setBaseMetadataURI",
      "outputs": [],
      "stateMutability": "nonpayable",
      "type": "function"
    },
    {
      "inputs": [
        {
          "internalType": "uint256",
          "name": "end",
          "type": "uint256"
        }
      ],
      "name": "setDeadline",
      "outputs": [],
      "stateMutability": "nonpayable",
      "type": "function"
    },
    {
      "inputs": [
        {
          "internalType": "address",
          "name": "royaltyAddress",
          "type": "address"
        }
      ],
      "name": "setRoyaltyAddress",
      "outputs": [],
      "stateMutability": "nonpayable",
      "type": "function"
    },
    {
      "inputs": [
        {
          "internalType": "uint256",
          "name": "royaltyBasisPoints",
          "type": "uint256"
        }
      ],
      "name": "setRoyaltyRate",
      "outputs": [],
      "stateMutability": "nonpayable",
      "type": "function"
    },
    {
      "inputs": [
        {
          "internalType": "address",
          "name": "signer",
          "type": "address"
        }
      ],
      "name": "setSigner",
      "outputs": [],
      "stateMutability": "nonpayable",
      "type": "function"
    },
    {
      "inputs": [
        {
          "internalType": "bytes4",
          "name": "interfaceId",
          "type": "bytes4"
        }
      ],
      "name": "supportsInterface",
      "outputs": [
        {
          "internalType": "bool",
          "name": "",
          "type": "bool"
        }
      ],
      "stateMutability": "view",
      "type": "function"
    },
    {
      "inputs": [],
      "name": "symbol",
      "outputs": [
        {
          "internalType": "string",
          "name": "",
          "type": "string"
        }
      ],
      "stateMutability": "view",
      "type": "function"
    },
    {
      "inputs": [
        {
          "internalType": "uint256",
          "name": "",
          "type": "uint256"
        }
      ],
      "name": "tokenSupply",
      "outputs": [
        {
          "internalType": "uint256",
          "name": "",
          "type": "uint256"
        }
      ],
      "stateMutability": "view",
      "type": "function"
    },
    {
      "inputs": [
        {
          "internalType": "uint256",
          "name": "tokenId",
          "type": "uint256"
        }
      ],
      "name": "tokenURI",
      "outputs": [
        {
          "internalType": "string",
          "name": "",
          "type": "string"
        }
      ],
      "stateMutability": "view",
      "type": "function"
    },
    {
      "inputs": [
        {
          "internalType": "uint256",
          "name": "_id",
          "type": "uint256"
        }
      ],
      "name": "totalSupply",
      "outputs": [
        {
          "internalType": "uint256",
          "name": "",
          "type": "uint256"
        }
      ],
      "stateMutability": "view",
      "type": "function"
    },
    {
      "inputs": [
        {
          "internalType": "address",
          "name": "newOwner",
          "type": "address"
        }
      ],
      "name": "transferOwnership",
      "outputs": [],
      "stateMutability": "nonpayable",
      "type": "function"
    },
    {
      "inputs": [
        {
          "internalType": "uint256",
          "name": "_id",
          "type": "uint256"
        }
      ],
      "name": "uri",
      "outputs": [
        {
          "internalType": "string",
          "name": "",
          "type": "string"
        }
      ],
      "stateMutability": "view",
      "type": "function"
    }
  ],
  "bytecode": "0x60806040523480156200001157600080fd5b50604051620059cf380380620059cf83398181016040528101906200003791906200076d565b8686866200005a6200004e620002bb60201b60201c565b620002c360201b60201c565b826005908051906020019062000072929190620003a5565b5081600690805190602001906200008b929190620003a5565b506200009d816200038960201b60201c565b505050600073ffffffffffffffffffffffffffffffffffffffff168373ffffffffffffffffffffffffffffffffffffffff160362000112576040517f08c379a00000000000000000000000000000000000000000000000000000000081526004016200010990620008fd565b60405180910390fd5b600073ffffffffffffffffffffffffffffffffffffffff168273ffffffffffffffffffffffffffffffffffffffff160362000184576040517f08c379a00000000000000000000000000000000000000000000000000000000081526004016200017b906200096f565b60405180910390fd5b6034815114620001cb576040517f08c379a0000000000000000000000000000000000000000000000000000000008152600401620001c290620009e1565b60405180910390fd5b8360078190555082600a60006101000a81548173ffffffffffffffffffffffffffffffffffffffff021916908373ffffffffffffffffffffffffffffffffffffffff16021790555081600b60006101000a81548173ffffffffffffffffffffffffffffffffffffffff021916908373ffffffffffffffffffffffffffffffffffffffff16021790555060005b8151811015620002ad576001600c60008484815181106200027d576200027c62000a03565b5b60200260200101518152602001908152602001600020819055508080620002a49062000a61565b91505062000257565b505050505050505062000b12565b600033905090565b6000600360009054906101000a900473ffffffffffffffffffffffffffffffffffffffff16905081600360006101000a81548173ffffffffffffffffffffffffffffffffffffffff021916908373ffffffffffffffffffffffffffffffffffffffff1602179055508173ffffffffffffffffffffffffffffffffffffffff168173ffffffffffffffffffffffffffffffffffffffff167f8be0079c531659141344cd1fd0a4f28419497f9722a3daafe3b4186f6b6457e060405160405180910390a35050565b8060029080519060200190620003a1929190620003a5565b5050565b828054620003b39062000add565b90600052602060002090601f016020900481019282620003d7576000855562000423565b82601f10620003f257805160ff191683800117855562000423565b8280016001018555821562000423579182015b828111156200042257825182559160200191906001019062000405565b5b50905062000432919062000436565b5090565b5b808211156200045157600081600090555060010162000437565b5090565b6000604051905090565b600080fd5b600080fd5b600080fd5b600080fd5b6000601f19601f8301169050919050565b7f4e487b7100000000000000000000000000000000000000000000000000000000600052604160045260246000fd5b620004be8262000473565b810181811067ffffffffffffffff82111715620004e057620004df62000484565b5b80604052505050565b6000620004f562000455565b9050620005038282620004b3565b919050565b600067ffffffffffffffff82111562000526576200052562000484565b5b620005318262000473565b9050602081019050919050565b60005b838110156200055e57808201518184015260208101905062000541565b838111156200056e576000848401525b50505050565b60006200058b620005858462000508565b620004e9565b905082815260208101848484011115620005aa57620005a96200046e565b5b620005b78482856200053e565b509392505050565b600082601f830112620005d757620005d662000469565b5b8151620005e984826020860162000574565b91505092915050565b6000819050919050565b6200060781620005f2565b81146200061357600080fd5b50565b6000815190506200062781620005fc565b92915050565b600073ffffffffffffffffffffffffffffffffffffffff82169050919050565b60006200065a826200062d565b9050919050565b6200066c816200064d565b81146200067857600080fd5b50565b6000815190506200068c8162000661565b92915050565b600067ffffffffffffffff821115620006b057620006af62000484565b5b602082029050602081019050919050565b600080fd5b6000620006dd620006d78462000692565b620004e9565b90508083825260208201905060208402830185811115620007035762000702620006c1565b5b835b818110156200073057806200071b888262000616565b84526020840193505060208101905062000705565b5050509392505050565b600082601f83011262000752576200075162000469565b5b815162000764848260208601620006c6565b91505092915050565b600080600080600080600060e0888a0312156200078f576200078e6200045f565b5b600088015167ffffffffffffffff811115620007b057620007af62000464565b5b620007be8a828b01620005bf565b975050602088015167ffffffffffffffff811115620007e257620007e162000464565b5b620007f08a828b01620005bf565b965050604088015167ffffffffffffffff81111562000814576200081362000464565b5b620008228a828b01620005bf565b9550506060620008358a828b0162000616565b9450506080620008488a828b016200067b565b93505060a06200085b8a828b016200067b565b92505060c088015167ffffffffffffffff8111156200087f576200087e62000464565b5b6200088d8a828b016200073a565b91505092959891949750929550565b600082825260208201905092915050565b7f57726f6e67207369676e65720000000000000000000000000000000000000000600082015250565b6000620008e5600c836200089c565b9150620008f282620008ad565b602082019050919050565b600060208201905081810360008301526200091881620008d6565b9050919050565b7f57726f6e67204e46540000000000000000000000000000000000000000000000600082015250565b6000620009576009836200089c565b915062000964826200091f565b602082019050919050565b600060208201905081810360008301526200098a8162000948565b9050919050565b7f57726f6e672061727261792073697a6500000000000000000000000000000000600082015250565b6000620009c96010836200089c565b9150620009d68262000991565b602082019050919050565b60006020820190508181036000830152620009fc81620009ba565b9050919050565b7f4e487b7100000000000000000000000000000000000000000000000000000000600052603260045260246000fd5b7f4e487b7100000000000000000000000000000000000000000000000000000000600052601160045260246000fd5b600062000a6e82620005f2565b91507fffffffffffffffffffffffffffffffffffffffffffffffffffffffffffffffff820362000aa35762000aa262000a32565b5b600182019050919050565b7f4e487b7100000000000000000000000000000000000000000000000000000000600052602260045260246000fd5b6000600282049050600182168062000af657607f821691505b60208210810362000b0c5762000b0b62000aae565b5b50919050565b614ead8062000b226000396000f3fe608060405234801561001057600080fd5b50600436106101c35760003560e01c80636c19e783116100f9578063bd85b03911610097578063e0a0bffc11610071578063e0a0bffc14610513578063e985e9c514610543578063f242432a14610573578063f2fde38b1461058f576101c3565b8063bd85b03914610483578063c87b56dd146104b3578063d9aceeb7146104e3576101c3565b80638bb2513b116100d35780638bb2513b1461040f5780638da5cb5b1461042b57806395d89b4114610449578063a22cb46514610467576101c3565b80636c19e783146103cd578063715018a6146103e95780637e518ec8146103f3576101c3565b80632a55205a116101665780634a198119116101405780634a198119146103475780634e1273f414610365578063537782a214610395578063697b0ad4146103b1576101c3565b80632a55205a146102de5780632c5a8e861461030f5780632eb2c2d61461032b576101c3565b806306fdde03116101a257806306fdde03146102445780630e89341c14610262578063195199f6146102925780632693ebf2146102ae576101c3565b8062fdd58e146101c857806301ffc9a7146101f857806306d254da14610228575b600080fd5b6101e260048036038101906101dd9190612db6565b6105ab565b6040516101ef9190612e05565b60405180910390f35b610212600480360381019061020d9190612e78565b610605565b60405161021f9190612ec0565b60405180910390f35b610242600480360381019061023d9190612edb565b61066d565b005b61024c6106b9565b6040516102599190612fa1565b60405180910390f35b61027c60048036038101906102779190612fc3565b610747565b6040516102899190612fa1565b60405180910390f35b6102ac60048036038101906102a79190612fc3565b6107ef565b005b6102c860048036038101906102c39190612fc3565b610843565b6040516102d59190612e05565b60405180910390f35b6102f860048036038101906102f39190612ff0565b61085b565b60405161030692919061303f565b60405180910390f35b61032960048036038101906103249190613094565b6108ef565b005b610345600480360381019061034091906132be565b610914565b005b61034f610a23565b60405161035c91906133a9565b60405180910390f35b61037f600480360381019061037a9190613487565b610a46565b60405161038c91906135bd565b60405180910390f35b6103af60048036038101906103aa9190612fc3565b610ba7565b005b6103cb60048036038101906103c691906135df565b610bb9565b005b6103e760048036038101906103e29190612edb565b610e4f565b005b6103f1610f0a565b005b61040d600480360381019061040891906136d3565b610f1e565b005b6104296004803603810190610424919061371c565b610f32565b005b6104336113a3565b6040516104409190613794565b60405180910390f35b6104516113cd565b60405161045e9190612fa1565b60405180910390f35b610481600480360381019061047c91906137af565b61145b565b005b61049d60048036038101906104989190612fc3565b611558565b6040516104aa9190612e05565b60405180910390f35b6104cd60048036038101906104c89190612fc3565b611575565b6040516104da9190612fa1565b60405180910390f35b6104fd60048036038101906104f89190612fc3565b611587565b60405161050a9190612e05565b60405180910390f35b61052d600480360381019061052891906137ef565b61159f565b60405161053a9190613864565b60405180910390f35b61055d6004803603810190610558919061387f565b6115b3565b60405161056a9190612ec0565b60405180910390f35b61058d600480360381019061058891906138bf565b611647565b005b6105a960048036038101906105a49190612edb565b611756565b005b60008060008473ffffffffffffffffffffffffffffffffffffffff1673ffffffffffffffffffffffffffffffffffffffff168152602001908152602001600020600083815260200190815260200160002054905092915050565b6000632a55205a60e01b7bffffffffffffffffffffffffffffffffffffffffffffffffffffffff1916827bffffffffffffffffffffffffffffffffffffffffffffffffffffffff19160361065c5760019050610668565b610665826117d9565b90505b919050565b61067561185a565b80600960016101000a81548173ffffffffffffffffffffffffffffffffffffffff021916908373ffffffffffffffffffffffffffffffffffffffff16021790555050565b600580546106c690613985565b80601f01602080910402602001604051908101604052809291908181526020018280546106f290613985565b801561073f5780601f106107145761010080835404028352916020019161073f565b820191906000526020600020905b81548152906001019060200180831161072257829003601f168201915b505050505081565b6060610752826118d8565b610791576040517f08c379a000000000000000000000000000000000000000000000000000000000815260040161078890613a28565b60405180910390fd5b6000600280546107a090613985565b9050116107bc57604051806020016040528060008152506107e8565b60026107c7836118f7565b6040516020016107d8929190613b18565b6040516020818303038152906040525b9050919050565b6107f761185a565b428111610839576040517f08c379a000000000000000000000000000000000000000000000000000000000815260040161083090613b88565b60405180910390fd5b8060078190555050565b60046020528060005260406000206000915090505481565b600080610867846118d8565b6108a6576040517f08c379a000000000000000000000000000000000000000000000000000000000815260040161089d90613bf4565b60405180910390fd5b600960019054906101000a900473ffffffffffffffffffffffffffffffffffffffff16612710600854856108da9190613c43565b6108e49190613ccc565b915091509250929050565b6108f761185a565b80600960006101000a81548160ff02191690831515021790555050565b8473ffffffffffffffffffffffffffffffffffffffff163373ffffffffffffffffffffffffffffffffffffffff161480610954575061095385336115b3565b5b610993576040517f08c379a000000000000000000000000000000000000000000000000000000000815260040161098a90613d6f565b60405180910390fd5b600073ffffffffffffffffffffffffffffffffffffffff168473ffffffffffffffffffffffffffffffffffffffff1603610a02576040517f08c379a00000000000000000000000000000000000000000000000000000000081526004016109f990613e01565b60405180910390fd5b610a0e85858585611a57565b610a1c858585855a86611d4b565b5050505050565b60006001600360149054906101000a900460ff16610a419190613e21565b905090565b60608151835114610a8c576040517f08c379a0000000000000000000000000000000000000000000000000000000008152600401610a8390613eca565b60405180910390fd5b6000835167ffffffffffffffff811115610aa957610aa86130c6565b5b604051908082528060200260200182016040528015610ad75781602001602082028036833780820191505090505b50905060005b8451811015610b9c57600080868381518110610afc57610afb613eea565b5b602002602001015173ffffffffffffffffffffffffffffffffffffffff1673ffffffffffffffffffffffffffffffffffffffff1681526020019081526020016000206000858381518110610b5357610b52613eea565b5b6020026020010151815260200190815260200160002054828281518110610b7d57610b7c613eea565b5b6020026020010181815250508080610b9490613f19565b915050610add565b508091505092915050565b610baf61185a565b8060088190555050565b610bc161185a565b600960009054906101000a900460ff16610c10576040517f08c379a0000000000000000000000000000000000000000000000000000000008152600401610c0790613fad565b60405180910390fd5b4260075410610c54576040517f08c379a0000000000000000000000000000000000000000000000000000000008152600401610c4b90614019565b60405180910390fd5b6126dc82600460006001815260200190815260200160002054610c779190614039565b1115610cb8576040517f08c379a0000000000000000000000000000000000000000000000000000000008152600401610caf906140db565b60405180910390fd5b603481600460006002815260200190815260200160002054610cda9190614039565b1115610d1b576040517f08c379a0000000000000000000000000000000000000000000000000000000008152600401610d1290614147565b60405180910390fd5b6000600267ffffffffffffffff811115610d3857610d376130c6565b5b604051908082528060200260200182016040528015610d665781602001602082028036833780820191505090505b509050600181600081518110610d7f57610d7e613eea565b5b602002602001018181525050600281600181518110610da157610da0613eea565b5b6020026020010181815250506000600267ffffffffffffffff811115610dca57610dc96130c6565b5b604051908082528060200260200182016040528015610df85781602001602082028036833780820191505090505b5090508381600081518110610e1057610e0f613eea565b5b6020026020010181815250508281600181518110610e3157610e30613eea565b5b602002602001018181525050610e48858383611f22565b5050505050565b610e5761185a565b600073ffffffffffffffffffffffffffffffffffffffff168173ffffffffffffffffffffffffffffffffffffffff1603610ec6576040517f08c379a0000000000000000000000000000000000000000000000000000000008152600401610ebd906141b3565b60405180910390fd5b80600a60006101000a81548173ffffffffffffffffffffffffffffffffffffffff021916908373ffffffffffffffffffffffffffffffffffffffff16021790555050565b610f1261185a565b610f1c6000611fd3565b565b610f2661185a565b610f2f81612099565b50565b600960009054906101000a900460ff16610f81576040517f08c379a0000000000000000000000000000000000000000000000000000000008152600401610f7890613fad565b60405180910390fd5b4260075411610fc5576040517f08c379a0000000000000000000000000000000000000000000000000000000008152600401610fbc9061421f565b60405180910390fd5b6000610fcf6120b3565b9050610fdc8184846120bb565b61101b576040517f08c379a00000000000000000000000000000000000000000000000000000000081526004016110129061428b565b60405180910390fd5b60008351905060008111611064576040517f08c379a000000000000000000000000000000000000000000000000000000000815260040161105b906142f7565b60405180910390fd5b60008060005b8381101561125e57600087828151811061108757611086613eea565b5b602002602001015190506000600d600083815260200190815260200160002054146110e7576040517f08c379a00000000000000000000000000000000000000000000000000000000081526004016110de90614363565b60405180910390fd5b8573ffffffffffffffffffffffffffffffffffffffff16600b60009054906101000a900473ffffffffffffffffffffffffffffffffffffffff1673ffffffffffffffffffffffffffffffffffffffff16636352211e836040518263ffffffff1660e01b81526004016111599190612e05565b6020604051808303816000875af1158015611178573d6000803e3d6000fd5b505050506040513d601f19601f8201168201806040525081019061119c9190614398565b73ffffffffffffffffffffffffffffffffffffffff16146111f2576040517f08c379a00000000000000000000000000000000000000000000000000000000081526004016111e990614411565b60405180910390fd5b6001600d6000838152602001908152602001600020819055506001600c6000838152602001908152602001600020540361123a576001836112339190614039565b925061124a565b6001846112479190614039565b93505b50808061125690613f19565b91505061106a565b5060008211156112d9576126dc8260046000600181526020019081526020016000205461128b9190614039565b11156112cc576040517f08c379a00000000000000000000000000000000000000000000000000000000081526004016112c3906140db565b60405180910390fd5b6112d8846001846120f4565b5b600081111561139b576112ec60016118d8565b61132b576040517f08c379a0000000000000000000000000000000000000000000000000000000008152600401611322906144a3565b60405180910390fd5b60348160046000600281526020019081526020016000205461134d9190614039565b111561138e576040517f08c379a000000000000000000000000000000000000000000000000000000000815260040161138590614147565b60405180910390fd5b61139a846002836120f4565b5b505050505050565b6000600360009054906101000a900473ffffffffffffffffffffffffffffffffffffffff16905090565b600680546113da90613985565b80601f016020809104026020016040519081016040528092919081815260200182805461140690613985565b80156114535780601f1061142857610100808354040283529160200191611453565b820191906000526020600020905b81548152906001019060200180831161143657829003601f168201915b505050505081565b80600160003373ffffffffffffffffffffffffffffffffffffffff1673ffffffffffffffffffffffffffffffffffffffff16815260200190815260200160002060008473ffffffffffffffffffffffffffffffffffffffff1673ffffffffffffffffffffffffffffffffffffffff16815260200190815260200160002060006101000a81548160ff0219169083151502179055508173ffffffffffffffffffffffffffffffffffffffff163373ffffffffffffffffffffffffffffffffffffffff167f17307eab39ab6107e8899845ad3d59bd9653f200f220920489ca2b5937696c318360405161154c9190612ec0565b60405180910390a35050565b600060046000838152602001908152602001600020549050919050565b606061158082610747565b9050919050565b600d6020528060005260406000206000915090505481565b60006115ab8383612125565b905092915050565b6000600160008473ffffffffffffffffffffffffffffffffffffffff1673ffffffffffffffffffffffffffffffffffffffff16815260200190815260200160002060008373ffffffffffffffffffffffffffffffffffffffff1673ffffffffffffffffffffffffffffffffffffffff16815260200190815260200160002060009054906101000a900460ff16905092915050565b8473ffffffffffffffffffffffffffffffffffffffff163373ffffffffffffffffffffffffffffffffffffffff161480611687575061168685336115b3565b5b6116c6576040517f08c379a00000000000000000000000000000000000000000000000000000000081526004016116bd90614535565b60405180910390fd5b600073ffffffffffffffffffffffffffffffffffffffff168473ffffffffffffffffffffffffffffffffffffffff1603611735576040517f08c379a000000000000000000000000000000000000000000000000000000000815260040161172c906145c7565b60405180910390fd5b61174185858585612158565b61174f858585855a86612346565b5050505050565b61175e61185a565b600073ffffffffffffffffffffffffffffffffffffffff168173ffffffffffffffffffffffffffffffffffffffff16036117cd576040517f08c379a00000000000000000000000000000000000000000000000000000000081526004016117c490614659565b60405180910390fd5b6117d681611fd3565b50565b60007fd9b67a26000000000000000000000000000000000000000000000000000000007bffffffffffffffffffffffffffffffffffffffffffffffffffffffff1916827bffffffffffffffffffffffffffffffffffffffffffffffffffffffff1916036118495760019050611855565b6118528261251d565b90505b919050565b6118626120b3565b73ffffffffffffffffffffffffffffffffffffffff166118806113a3565b73ffffffffffffffffffffffffffffffffffffffff16146118d6576040517f08c379a00000000000000000000000000000000000000000000000000000000081526004016118cd906146c5565b60405180910390fd5b565b6000806004600084815260200190815260200160002054119050919050565b60606000820361193e576040518060400160405280600181526020017f30000000000000000000000000000000000000000000000000000000000000008152509050611a52565b600082905060005b6000821461197057808061195990613f19565b915050600a826119699190613ccc565b9150611946565b60008167ffffffffffffffff81111561198c5761198b6130c6565b5b6040519080825280601f01601f1916602001820160405280156119be5781602001600182028036833780820191505090505b5090505b60008514611a4b576001826119d791906146e5565b9150600a856119e69190614719565b60306119f29190614039565b60f81b818381518110611a0857611a07613eea565b5b60200101907effffffffffffffffffffffffffffffffffffffffffffffffffffffffffffff1916908160001a905350600a85611a449190613ccc565b94506119c2565b8093505050505b919050565b8051825114611a9b576040517f08c379a0000000000000000000000000000000000000000000000000000000008152600401611a92906147bc565b60405180910390fd5b60008251905060005b81811015611cc557611b42838281518110611ac257611ac1613eea565b5b60200260200101516000808973ffffffffffffffffffffffffffffffffffffffff1673ffffffffffffffffffffffffffffffffffffffff1681526020019081526020016000206000878581518110611b1d57611b1c613eea565b5b602002602001015181526020019081526020016000205461259e90919063ffffffff16565b6000808873ffffffffffffffffffffffffffffffffffffffff1673ffffffffffffffffffffffffffffffffffffffff1681526020019081526020016000206000868481518110611b9557611b94613eea565b5b6020026020010151815260200190815260200160002081905550611c45838281518110611bc557611bc4613eea565b5b60200260200101516000808873ffffffffffffffffffffffffffffffffffffffff1673ffffffffffffffffffffffffffffffffffffffff1681526020019081526020016000206000878581518110611c2057611c1f613eea565b5b60200260200101518152602001908152602001600020546125b490919063ffffffff16565b6000808773ffffffffffffffffffffffffffffffffffffffff1673ffffffffffffffffffffffffffffffffffffffff1681526020019081526020016000206000868481518110611c9857611c97613eea565b5b60200260200101518152602001908152602001600020819055508080611cbd90613f19565b915050611aa4565b508373ffffffffffffffffffffffffffffffffffffffff168573ffffffffffffffffffffffffffffffffffffffff163373ffffffffffffffffffffffffffffffffffffffff167f4a39dc06d4c0dbc64b70af90fd698a233a518aa5d07e595d983b8c0526c8f7fb8686604051611d3c9291906147dc565b60405180910390a45050505050565b611d6a8573ffffffffffffffffffffffffffffffffffffffff166125ca565b15611f1a578473ffffffffffffffffffffffffffffffffffffffff1663bc197c8133888787866040518663ffffffff1660e01b8152600401611db0959493929190614868565b6020604051808303816000875af1925050508015611dec57506040513d601f19601f82011682018060405250810190611de991906148e5565b60015b611e9157611df861491f565b806308c379a003611e545750611e0c614941565b80611e175750611e56565b806040517f08c379a0000000000000000000000000000000000000000000000000000000008152600401611e4b9190612fa1565b60405180910390fd5b505b6040517f08c379a0000000000000000000000000000000000000000000000000000000008152600401611e8890614a43565b60405180910390fd5b63bc197c8160e01b7bffffffffffffffffffffffffffffffffffffffffffffffffffffffff1916817bffffffffffffffffffffffffffffffffffffffffffffffffffffffff191614611f18576040517f08c379a0000000000000000000000000000000000000000000000000000000008152600401611f0f90614ad5565b60405180910390fd5b505b505050505050565b60005b8251811015611fb2576000838281518110611f4357611f42613eea565b5b602002602001015190506000838381518110611f6257611f61613eea565b5b602002602001015190508061ffff16600460008460ff1681526020019081526020016000206000828254611f969190614039565b9250508190555050508080611faa90613f19565b915050611f25565b50611fce838383604051806020016040528060008152506125ed565b505050565b6000600360009054906101000a900473ffffffffffffffffffffffffffffffffffffffff16905081600360006101000a81548173ffffffffffffffffffffffffffffffffffffffff021916908373ffffffffffffffffffffffffffffffffffffffff1602179055508173ffffffffffffffffffffffffffffffffffffffff168173ffffffffffffffffffffffffffffffffffffffff167f8be0079c531659141344cd1fd0a4f28419497f9722a3daafe3b4186f6b6457e060405160405180910390a35050565b80600290805190602001906120af929190612c6b565b5050565b600033905090565b60006120eb600a60009054906101000a900473ffffffffffffffffffffffffffffffffffffffff168585856127ee565b90509392505050565b6121008260ff166118d8565b6121145761210e838261284e565b50612120565b61211f8383836128a6565b5b505050565b6000828260405160200161213a929190614bcd565b60405160208183030381529060405280519060200120905092915050565b6121ba816000808773ffffffffffffffffffffffffffffffffffffffff1673ffffffffffffffffffffffffffffffffffffffff16815260200190815260200160002060008581526020019081526020016000205461259e90919063ffffffff16565b6000808673ffffffffffffffffffffffffffffffffffffffff1673ffffffffffffffffffffffffffffffffffffffff16815260200190815260200160002060008481526020019081526020016000208190555061226f816000808673ffffffffffffffffffffffffffffffffffffffff1673ffffffffffffffffffffffffffffffffffffffff1681526020019081526020016000206000858152602001908152602001600020546125b490919063ffffffff16565b6000808573ffffffffffffffffffffffffffffffffffffffff1673ffffffffffffffffffffffffffffffffffffffff1681526020019081526020016000206000848152602001908152602001600020819055508273ffffffffffffffffffffffffffffffffffffffff168473ffffffffffffffffffffffffffffffffffffffff163373ffffffffffffffffffffffffffffffffffffffff167fc3d58168c5ae7397731d063d5bbf3d657854427343f4c083240f7aacaa2d0f628585604051612338929190614bf5565b60405180910390a450505050565b6123658573ffffffffffffffffffffffffffffffffffffffff166125ca565b15612515578473ffffffffffffffffffffffffffffffffffffffff1663f23a6e6133888787866040518663ffffffff1660e01b81526004016123ab959493929190614c1e565b6020604051808303816000875af19250505080156123e757506040513d601f19601f820116820180604052508101906123e491906148e5565b60015b61248c576123f361491f565b806308c379a00361244f5750612407614941565b806124125750612451565b806040517f08c379a00000000000000000000000000000000000000000000000000000000081526004016124469190612fa1565b60405180910390fd5b505b6040517f08c379a000000000000000000000000000000000000000000000000000000000815260040161248390614a43565b60405180910390fd5b63f23a6e6160e01b7bffffffffffffffffffffffffffffffffffffffffffffffffffffffff1916817bffffffffffffffffffffffffffffffffffffffffffffffffffffffff191614612513576040517f08c379a000000000000000000000000000000000000000000000000000000000815260040161250a90614ad5565b60405180910390fd5b505b505050505050565b60007f0e89341c000000000000000000000000000000000000000000000000000000007bffffffffffffffffffffffffffffffffffffffffffffffffffffffff1916827bffffffffffffffffffffffffffffffffffffffffffffffffffffffff19160361258d5760019050612599565b612596826128f6565b90505b919050565b600081836125ac91906146e5565b905092915050565b600081836125c29190614039565b905092915050565b6000808273ffffffffffffffffffffffffffffffffffffffff163b119050919050565b8151835114612631576040517f08c379a000000000000000000000000000000000000000000000000000000000815260040161262890614cea565b60405180910390fd5b60008351905060005b81811015612758576126d884828151811061265857612657613eea565b5b60200260200101516000808973ffffffffffffffffffffffffffffffffffffffff1673ffffffffffffffffffffffffffffffffffffffff16815260200190815260200160002060008885815181106126b3576126b2613eea565b5b60200260200101518152602001908152602001600020546125b490919063ffffffff16565b6000808873ffffffffffffffffffffffffffffffffffffffff1673ffffffffffffffffffffffffffffffffffffffff168152602001908152602001600020600087848151811061272b5761272a613eea565b5b6020026020010151815260200190815260200160002081905550808061275090613f19565b91505061263a565b508473ffffffffffffffffffffffffffffffffffffffff16600073ffffffffffffffffffffffffffffffffffffffff163373ffffffffffffffffffffffffffffffffffffffff167f4a39dc06d4c0dbc64b70af90fd698a233a518aa5d07e595d983b8c0526c8f7fb87876040516127d09291906147dc565b60405180910390a46127e760008686865a87611d4b565b5050505050565b6000806127fb8585612125565b9050600061280882612977565b90508673ffffffffffffffffffffffffffffffffffffffff1661282b82866129a7565b73ffffffffffffffffffffffffffffffffffffffff161492505050949350505050565b600080612859610a23565b9050612863612a16565b612881848260ff168560405180602001604052806000815250612a50565b82600460008360ff168152602001908152602001600020819055508091505092915050565b6128c4838360ff168360405180602001604052806000815250612a50565b80600460008460ff16815260200190815260200160002060008282546128ea9190614039565b92505081905550505050565b60007fd9b67a26000000000000000000000000000000000000000000000000000000007bffffffffffffffffffffffffffffffffffffffffffffffffffffffff1916827bffffffffffffffffffffffffffffffffffffffffffffffffffffffff1916036129665760019050612972565b61296f82612b99565b90505b919050565b60008160405160200161298a9190614d77565b604051602081830303815290604052805190602001209050919050565b6000806000806129b685612c03565b925092509250600186828585604051600081526020016040526040516129df9493929190614d9d565b6020604051602081039080840390855afa158015612a01573d6000803e3d6000fd5b50505060206040510351935050505092915050565b6003601481819054906101000a900460ff1680929190612a3590614de2565b91906101000a81548160ff021916908360ff16021790555050565b612ab2826000808773ffffffffffffffffffffffffffffffffffffffff1673ffffffffffffffffffffffffffffffffffffffff1681526020019081526020016000206000868152602001908152602001600020546125b490919063ffffffff16565b6000808673ffffffffffffffffffffffffffffffffffffffff1673ffffffffffffffffffffffffffffffffffffffff1681526020019081526020016000206000858152602001908152602001600020819055508373ffffffffffffffffffffffffffffffffffffffff16600073ffffffffffffffffffffffffffffffffffffffff163373ffffffffffffffffffffffffffffffffffffffff167fc3d58168c5ae7397731d063d5bbf3d657854427343f4c083240f7aacaa2d0f628686604051612b7c929190614bf5565b60405180910390a4612b9360008585855a86612346565b50505050565b60007f01ffc9a7000000000000000000000000000000000000000000000000000000007bffffffffffffffffffffffffffffffffffffffffffffffffffffffff1916827bffffffffffffffffffffffffffffffffffffffffffffffffffffffff1916149050919050565b60008060006041845114612c4c576040517f08c379a0000000000000000000000000000000000000000000000000000000008152600401612c4390614e57565b60405180910390fd5b6020840151925060408401519150606084015160001a90509193909250565b828054612c7790613985565b90600052602060002090601f016020900481019282612c995760008555612ce0565b82601f10612cb257805160ff1916838001178555612ce0565b82800160010185558215612ce0579182015b82811115612cdf578251825591602001919060010190612cc4565b5b509050612ced9190612cf1565b5090565b5b80821115612d0a576000816000905550600101612cf2565b5090565b6000604051905090565b600080fd5b600080fd5b600073ffffffffffffffffffffffffffffffffffffffff82169050919050565b6000612d4d82612d22565b9050919050565b612d5d81612d42565b8114612d6857600080fd5b50565b600081359050612d7a81612d54565b92915050565b6000819050919050565b612d9381612d80565b8114612d9e57600080fd5b50565b600081359050612db081612d8a565b92915050565b60008060408385031215612dcd57612dcc612d18565b5b6000612ddb85828601612d6b565b9250506020612dec85828601612da1565b9150509250929050565b612dff81612d80565b82525050565b6000602082019050612e1a6000830184612df6565b92915050565b60007fffffffff0000000000000000000000000000000000000000000000000000000082169050919050565b612e5581612e20565b8114612e6057600080fd5b50565b600081359050612e7281612e4c565b92915050565b600060208284031215612e8e57612e8d612d18565b5b6000612e9c84828501612e63565b91505092915050565b60008115159050919050565b612eba81612ea5565b82525050565b6000602082019050612ed56000830184612eb1565b92915050565b600060208284031215612ef157612ef0612d18565b5b6000612eff84828501612d6b565b91505092915050565b600081519050919050565b600082825260208201905092915050565b60005b83811015612f42578082015181840152602081019050612f27565b83811115612f51576000848401525b50505050565b6000601f19601f8301169050919050565b6000612f7382612f08565b612f7d8185612f13565b9350612f8d818560208601612f24565b612f9681612f57565b840191505092915050565b60006020820190508181036000830152612fbb8184612f68565b905092915050565b600060208284031215612fd957612fd8612d18565b5b6000612fe784828501612da1565b91505092915050565b6000806040838503121561300757613006612d18565b5b600061301585828601612da1565b925050602061302685828601612da1565b9150509250929050565b61303981612d42565b82525050565b60006040820190506130546000830185613030565b6130616020830184612df6565b9392505050565b61307181612ea5565b811461307c57600080fd5b50565b60008135905061308e81613068565b92915050565b6000602082840312156130aa576130a9612d18565b5b60006130b88482850161307f565b91505092915050565b600080fd5b7f4e487b7100000000000000000000000000000000000000000000000000000000600052604160045260246000fd5b6130fe82612f57565b810181811067ffffffffffffffff8211171561311d5761311c6130c6565b5b80604052505050565b6000613130612d0e565b905061313c82826130f5565b919050565b600067ffffffffffffffff82111561315c5761315b6130c6565b5b602082029050602081019050919050565b600080fd5b600061318561318084613141565b613126565b905080838252602082019050602084028301858111156131a8576131a761316d565b5b835b818110156131d157806131bd8882612da1565b8452602084019350506020810190506131aa565b5050509392505050565b600082601f8301126131f0576131ef6130c1565b5b8135613200848260208601613172565b91505092915050565b600080fd5b600067ffffffffffffffff821115613229576132286130c6565b5b61323282612f57565b9050602081019050919050565b82818337600083830152505050565b600061326161325c8461320e565b613126565b90508281526020810184848401111561327d5761327c613209565b5b61328884828561323f565b509392505050565b600082601f8301126132a5576132a46130c1565b5b81356132b584826020860161324e565b91505092915050565b600080600080600060a086880312156132da576132d9612d18565b5b60006132e888828901612d6b565b95505060206132f988828901612d6b565b945050604086013567ffffffffffffffff81111561331a57613319612d1d565b5b613326888289016131db565b935050606086013567ffffffffffffffff81111561334757613346612d1d565b5b613353888289016131db565b925050608086013567ffffffffffffffff81111561337457613373612d1d565b5b61338088828901613290565b9150509295509295909350565b600060ff82169050919050565b6133a38161338d565b82525050565b60006020820190506133be600083018461339a565b92915050565b600067ffffffffffffffff8211156133df576133de6130c6565b5b602082029050602081019050919050565b60006134036133fe846133c4565b613126565b905080838252602082019050602084028301858111156134265761342561316d565b5b835b8181101561344f578061343b8882612d6b565b845260208401935050602081019050613428565b5050509392505050565b600082601f83011261346e5761346d6130c1565b5b813561347e8482602086016133f0565b91505092915050565b6000806040838503121561349e5761349d612d18565b5b600083013567ffffffffffffffff8111156134bc576134bb612d1d565b5b6134c885828601613459565b925050602083013567ffffffffffffffff8111156134e9576134e8612d1d565b5b6134f5858286016131db565b9150509250929050565b600081519050919050565b600082825260208201905092915050565b6000819050602082019050919050565b61353481612d80565b82525050565b6000613546838361352b565b60208301905092915050565b6000602082019050919050565b600061356a826134ff565b613574818561350a565b935061357f8361351b565b8060005b838110156135b0578151613597888261353a565b97506135a283613552565b925050600181019050613583565b5085935050505092915050565b600060208201905081810360008301526135d7818461355f565b905092915050565b6000806000606084860312156135f8576135f7612d18565b5b600061360686828701612d6b565b935050602061361786828701612da1565b925050604061362886828701612da1565b9150509250925092565b600067ffffffffffffffff82111561364d5761364c6130c6565b5b61365682612f57565b9050602081019050919050565b600061367661367184613632565b613126565b90508281526020810184848401111561369257613691613209565b5b61369d84828561323f565b509392505050565b600082601f8301126136ba576136b96130c1565b5b81356136ca848260208601613663565b91505092915050565b6000602082840312156136e9576136e8612d18565b5b600082013567ffffffffffffffff81111561370757613706612d1d565b5b613713848285016136a5565b91505092915050565b6000806040838503121561373357613732612d18565b5b600083013567ffffffffffffffff81111561375157613750612d1d565b5b61375d858286016131db565b925050602083013567ffffffffffffffff81111561377e5761377d612d1d565b5b61378a85828601613290565b9150509250929050565b60006020820190506137a96000830184613030565b92915050565b600080604083850312156137c6576137c5612d18565b5b60006137d485828601612d6b565b92505060206137e58582860161307f565b9150509250929050565b6000806040838503121561380657613805612d18565b5b600061381485828601612d6b565b925050602083013567ffffffffffffffff81111561383557613834612d1d565b5b613841858286016131db565b9150509250929050565b6000819050919050565b61385e8161384b565b82525050565b60006020820190506138796000830184613855565b92915050565b6000806040838503121561389657613895612d18565b5b60006138a485828601612d6b565b92505060206138b585828601612d6b565b9150509250929050565b600080600080600060a086880312156138db576138da612d18565b5b60006138e988828901612d6b565b95505060206138fa88828901612d6b565b945050604061390b88828901612da1565b935050606061391c88828901612da1565b925050608086013567ffffffffffffffff81111561393d5761393c612d1d565b5b61394988828901613290565b9150509295509295909350565b7f4e487b7100000000000000000000000000000000000000000000000000000000600052602260045260246000fd5b6000600282049050600182168061399d57607f821691505b6020821081036139b0576139af613956565b5b50919050565b7f45524331313535547261646561626c65237572693a204e4f4e4558495354454e60008201527f545f544f4b454e00000000000000000000000000000000000000000000000000602082015250565b6000613a12602783612f13565b9150613a1d826139b6565b604082019050919050565b60006020820190508181036000830152613a4181613a05565b9050919050565b600081905092915050565b60008190508160005260206000209050919050565b60008154613a7581613985565b613a7f8186613a48565b94506001821660008114613a9a5760018114613aab57613ade565b60ff19831686528186019350613ade565b613ab485613a53565b60005b83811015613ad657815481890152600182019150602081019050613ab7565b838801955050505b50505092915050565b6000613af282612f08565b613afc8185613a48565b9350613b0c818560208601612f24565b80840191505092915050565b6000613b248285613a68565b9150613b308284613ae7565b91508190509392505050565b7f57726f6e6720656e6420646561646c696e650000000000000000000000000000600082015250565b6000613b72601283612f13565b9150613b7d82613b3c565b602082019050919050565b60006020820190508181036000830152613ba181613b65565b9050919050565b7f494e56414c49445f544f4b454e49440000000000000000000000000000000000600082015250565b6000613bde600f83612f13565b9150613be982613ba8565b602082019050919050565b60006020820190508181036000830152613c0d81613bd1565b9050919050565b7f4e487b7100000000000000000000000000000000000000000000000000000000600052601160045260246000fd5b6000613c4e82612d80565b9150613c5983612d80565b9250817fffffffffffffffffffffffffffffffffffffffffffffffffffffffffffffffff0483118215151615613c9257613c91613c14565b5b828202905092915050565b7f4e487b7100000000000000000000000000000000000000000000000000000000600052601260045260246000fd5b6000613cd782612d80565b9150613ce283612d80565b925082613cf257613cf1613c9d565b5b828204905092915050565b7f45524331313535237361666542617463685472616e7366657246726f6d3a204960008201527f4e56414c49445f4f50455241544f520000000000000000000000000000000000602082015250565b6000613d59602f83612f13565b9150613d6482613cfd565b604082019050919050565b60006020820190508181036000830152613d8881613d4c565b9050919050565b7f45524331313535237361666542617463685472616e7366657246726f6d3a204960008201527f4e56414c49445f524543495049454e5400000000000000000000000000000000602082015250565b6000613deb603083612f13565b9150613df682613d8f565b604082019050919050565b60006020820190508181036000830152613e1a81613dde565b9050919050565b6000613e2c8261338d565b9150613e378361338d565b92508260ff03821115613e4d57613e4c613c14565b5b828201905092915050565b7f455243313135352362616c616e63654f6642617463683a20494e56414c49445f60008201527f41525241595f4c454e4754480000000000000000000000000000000000000000602082015250565b6000613eb4602c83612f13565b9150613ebf82613e58565b604082019050919050565b60006020820190508181036000830152613ee381613ea7565b9050919050565b7f4e487b7100000000000000000000000000000000000000000000000000000000600052603260045260246000fd5b6000613f2482612d80565b91507fffffffffffffffffffffffffffffffffffffffffffffffffffffffffffffffff8203613f5657613f55613c14565b5b600182019050919050565b7f4d696e74696e6720697320506175736564000000000000000000000000000000600082015250565b6000613f97601183612f13565b9150613fa282613f61565b602082019050919050565b60006020820190508181036000830152613fc681613f8a565b9050919050565b7f446561646c696e65206e6f7420796574206f7665720000000000000000000000600082015250565b6000614003601583612f13565b915061400e82613fcd565b602082019050919050565b6000602082019050818103600083015261403281613ff6565b9050919050565b600061404482612d80565b915061404f83612d80565b9250827fffffffffffffffffffffffffffffffffffffffffffffffffffffffffffffffff0382111561408457614083613c14565b5b828201905092915050565b7f416d6f756e74204d617465726961206578636565646564000000000000000000600082015250565b60006140c5601783612f13565b91506140d08261408f565b602082019050919050565b600060208201905081810360008301526140f4816140b8565b9050919050565b7f416d6f756e74205072696d61204d617465726961206578636565646564000000600082015250565b6000614131601d83612f13565b915061413c826140fb565b602082019050919050565b6000602082019050818103600083015261416081614124565b9050919050565b7f57726f6e67207369676e65720000000000000000000000000000000000000000600082015250565b600061419d600c83612f13565b91506141a882614167565b602082019050919050565b600060208201905081810360008301526141cc81614190565b9050919050565b7f4d696e74696e6720616c726561647920656e6465640000000000000000000000600082015250565b6000614209601583612f13565b9150614214826141d3565b602082019050919050565b60006020820190508181036000830152614238816141fc565b9050919050565b7f57726f6e67204d617465726961205369676e6174757265000000000000000000600082015250565b6000614275601783612f13565b91506142808261423f565b602082019050919050565b600060208201905081810360008301526142a481614268565b9050919050565b7f4e6f20746f6b656e732073706563696669656400000000000000000000000000600082015250565b60006142e1601383612f13565b91506142ec826142ab565b602082019050919050565b60006020820190508181036000830152614310816142d4565b9050919050565b7f546f6b656e20616c726561647920757365640000000000000000000000000000600082015250565b600061434d601283612f13565b915061435882614317565b602082019050919050565b6000602082019050818103600083015261437c81614340565b9050919050565b60008151905061439281612d54565b92915050565b6000602082840312156143ae576143ad612d18565b5b60006143bc84828501614383565b91505092915050565b7f4e6f7420746f6b656e206f776e65720000000000000000000000000000000000600082015250565b60006143fb600f83612f13565b9150614406826143c5565b602082019050919050565b6000602082019050818103600083015261442a816143ee565b9050919050565b7f41204d6174657269612073686f756c642062652063726561746564206669727360008201527f7400000000000000000000000000000000000000000000000000000000000000602082015250565b600061448d602183612f13565b915061449882614431565b604082019050919050565b600060208201905081810360008301526144bc81614480565b9050919050565b7f4552433131353523736166655472616e7366657246726f6d3a20494e56414c4960008201527f445f4f50455241544f5200000000000000000000000000000000000000000000602082015250565b600061451f602a83612f13565b915061452a826144c3565b604082019050919050565b6000602082019050818103600083015261454e81614512565b9050919050565b7f4552433131353523736166655472616e7366657246726f6d3a20494e56414c4960008201527f445f524543495049454e54000000000000000000000000000000000000000000602082015250565b60006145b1602b83612f13565b91506145bc82614555565b604082019050919050565b600060208201905081810360008301526145e0816145a4565b9050919050565b7f4f776e61626c653a206e6577206f776e657220697320746865207a65726f206160008201527f6464726573730000000000000000000000000000000000000000000000000000602082015250565b6000614643602683612f13565b915061464e826145e7565b604082019050919050565b6000602082019050818103600083015261467281614636565b9050919050565b7f4f776e61626c653a2063616c6c6572206973206e6f7420746865206f776e6572600082015250565b60006146af602083612f13565b91506146ba82614679565b602082019050919050565b600060208201905081810360008301526146de816146a2565b9050919050565b60006146f082612d80565b91506146fb83612d80565b92508282101561470e5761470d613c14565b5b828203905092915050565b600061472482612d80565b915061472f83612d80565b92508261473f5761473e613c9d565b5b828206905092915050565b7f45524331313535235f7361666542617463685472616e7366657246726f6d3a2060008201527f494e56414c49445f4152524159535f4c454e4754480000000000000000000000602082015250565b60006147a6603583612f13565b91506147b18261474a565b604082019050919050565b600060208201905081810360008301526147d581614799565b9050919050565b600060408201905081810360008301526147f6818561355f565b9050818103602083015261480a818461355f565b90509392505050565b600081519050919050565b600082825260208201905092915050565b600061483a82614813565b614844818561481e565b9350614854818560208601612f24565b61485d81612f57565b840191505092915050565b600060a08201905061487d6000830188613030565b61488a6020830187613030565b818103604083015261489c818661355f565b905081810360608301526148b0818561355f565b905081810360808301526148c4818461482f565b90509695505050505050565b6000815190506148df81612e4c565b92915050565b6000602082840312156148fb576148fa612d18565b5b6000614909848285016148d0565b91505092915050565b60008160e01c9050919050565b600060033d111561493e5760046000803e61493b600051614912565b90505b90565b600060443d106149ce57614953612d0e565b60043d036004823e80513d602482011167ffffffffffffffff8211171561497b5750506149ce565b808201805167ffffffffffffffff81111561499957505050506149ce565b80602083010160043d0385018111156149b65750505050506149ce565b6149c5826020018501866130f5565b82955050505050505b90565b7f455243313135353a207472616e7366657220746f206e6f6e204552433131353560008201527f526563656976657220696d706c656d656e746572000000000000000000000000602082015250565b6000614a2d603483612f13565b9150614a38826149d1565b604082019050919050565b60006020820190508181036000830152614a5c81614a20565b9050919050565b7f455243313135353a204552433131353552656365697665722072656a6563746560008201527f6420746f6b656e73000000000000000000000000000000000000000000000000602082015250565b6000614abf602883612f13565b9150614aca82614a63565b604082019050919050565b60006020820190508181036000830152614aee81614ab2565b9050919050565b60008160601b9050919050565b6000614b0d82614af5565b9050919050565b6000614b1f82614b02565b9050919050565b614b37614b3282612d42565b614b14565b82525050565b600081905092915050565b614b5181612d80565b82525050565b6000614b638383614b48565b60208301905092915050565b6000614b7a826134ff565b614b848185614b3d565b9350614b8f8361351b565b8060005b83811015614bc0578151614ba78882614b57565b9750614bb283613552565b925050600181019050614b93565b5085935050505092915050565b6000614bd98285614b26565b601482019150614be98284614b6f565b91508190509392505050565b6000604082019050614c0a6000830185612df6565b614c176020830184612df6565b9392505050565b600060a082019050614c336000830188613030565b614c406020830187613030565b614c4d6040830186612df6565b614c5a6060830185612df6565b8181036080830152614c6c818461482f565b90509695505050505050565b7f455243313135354d696e744275726e2362617463684d696e743a20494e56414c60008201527f49445f4152524159535f4c454e47544800000000000000000000000000000000602082015250565b6000614cd4603083612f13565b9150614cdf82614c78565b604082019050919050565b60006020820190508181036000830152614d0381614cc7565b9050919050565b7f19457468657265756d205369676e6564204d6573736167653a0a333200000000600082015250565b6000614d40601c83613a48565b9150614d4b82614d0a565b601c82019050919050565b6000819050919050565b614d71614d6c8261384b565b614d56565b82525050565b6000614d8282614d33565b9150614d8e8284614d60565b60208201915081905092915050565b6000608082019050614db26000830187613855565b614dbf602083018661339a565b614dcc6040830185613855565b614dd96060830184613855565b95945050505050565b6000614ded8261338d565b915060ff8203614e0057614dff613c14565b5b600182019050919050565b7f696e76616c6964207369676e6174757265206c656e6774680000000000000000600082015250565b6000614e41601883612f13565b9150614e4c82614e0b565b602082019050919050565b60006020820190508181036000830152614e7081614e34565b905091905056fea2646970667358221220af5595649eb0517973875aa8d3ae590c694cbe507b134f78e643b45440ed425564736f6c634300080d0033",
  "linkReferences": {},
  "deployedLinkReferences": {}
}