{
  "_format": "hh-sol-artifact-1",
  "contractName": "Materia",
  "sourceName": "contracts/Materia.sol",
  "abi": [
    {
      "inputs": [
        {
          "internalType": "string",
          "name": "_name",
          "type": "string"
        },
        {
          "internalType": "string",
          "name": "_symbol",
          "type": "string"
        },
        {
          "internalType": "string",
          "name": "_metadataURI",
          "type": "string"
        },
        {
          "internalType": "uint256",
          "name": "start",
          "type": "uint256"
        },
        {
          "internalType": "uint256",
          "name": "end",
          "type": "uint256"
        },
        {
          "internalType": "address",
          "name": "signer",
          "type": "address"
        },
        {
          "internalType": "address",
          "name": "antonym",
          "type": "address"
        },
        {
          "internalType": "uint256[]",
          "name": "antonym1of1Tokens",
          "type": "uint256[]"
        }
      ],
      "stateMutability": "nonpayable",
      "type": "constructor"
    },
    {
      "anonymous": false,
      "inputs": [
        {
          "indexed": true,
          "internalType": "address",
          "name": "_owner",
          "type": "address"
        },
        {
          "indexed": true,
          "internalType": "address",
          "name": "_operator",
          "type": "address"
        },
        {
          "indexed": false,
          "internalType": "bool",
          "name": "_approved",
          "type": "bool"
        }
      ],
      "name": "ApprovalForAll",
      "type": "event"
    },
    {
      "anonymous": false,
      "inputs": [
        {
          "indexed": true,
          "internalType": "address",
          "name": "previousOwner",
          "type": "address"
        },
        {
          "indexed": true,
          "internalType": "address",
          "name": "newOwner",
          "type": "address"
        }
      ],
      "name": "OwnershipTransferred",
      "type": "event"
    },
    {
      "anonymous": false,
      "inputs": [
        {
          "indexed": true,
          "internalType": "address",
          "name": "_operator",
          "type": "address"
        },
        {
          "indexed": true,
          "internalType": "address",
          "name": "_from",
          "type": "address"
        },
        {
          "indexed": true,
          "internalType": "address",
          "name": "_to",
          "type": "address"
        },
        {
          "indexed": false,
          "internalType": "uint256[]",
          "name": "_ids",
          "type": "uint256[]"
        },
        {
          "indexed": false,
          "internalType": "uint256[]",
          "name": "_amounts",
          "type": "uint256[]"
        }
      ],
      "name": "TransferBatch",
      "type": "event"
    },
    {
      "anonymous": false,
      "inputs": [
        {
          "indexed": true,
          "internalType": "address",
          "name": "_operator",
          "type": "address"
        },
        {
          "indexed": true,
          "internalType": "address",
          "name": "_from",
          "type": "address"
        },
        {
          "indexed": true,
          "internalType": "address",
          "name": "_to",
          "type": "address"
        },
        {
          "indexed": false,
          "internalType": "uint256",
          "name": "_id",
          "type": "uint256"
        },
        {
          "indexed": false,
          "internalType": "uint256",
          "name": "_amount",
          "type": "uint256"
        }
      ],
      "name": "TransferSingle",
      "type": "event"
    },
    {
      "anonymous": false,
      "inputs": [
        {
          "indexed": false,
          "internalType": "string",
          "name": "_uri",
          "type": "string"
        },
        {
          "indexed": true,
          "internalType": "uint256",
          "name": "_id",
          "type": "uint256"
        }
      ],
      "name": "URI",
      "type": "event"
    },
    {
      "inputs": [
        {
          "internalType": "bool",
          "name": "allow",
          "type": "bool"
        }
      ],
      "name": "allowMinting",
      "outputs": [],
      "stateMutability": "nonpayable",
      "type": "function"
    },
    {
      "inputs": [
        {
          "internalType": "address",
          "name": "_owner",
          "type": "address"
        },
        {
          "internalType": "uint256",
          "name": "_id",
          "type": "uint256"
        }
      ],
      "name": "balanceOf",
      "outputs": [
        {
          "internalType": "uint256",
          "name": "",
          "type": "uint256"
        }
      ],
      "stateMutability": "view",
      "type": "function"
    },
    {
      "inputs": [
        {
          "internalType": "address[]",
          "name": "_owners",
          "type": "address[]"
        },
        {
          "internalType": "uint256[]",
          "name": "_ids",
          "type": "uint256[]"
        }
      ],
      "name": "balanceOfBatch",
      "outputs": [
        {
          "internalType": "uint256[]",
          "name": "",
          "type": "uint256[]"
        }
      ],
      "stateMutability": "view",
      "type": "function"
    },
    {
      "inputs": [],
      "name": "getNextTokenID",
      "outputs": [
        {
          "internalType": "uint8",
          "name": "",
          "type": "uint8"
        }
      ],
      "stateMutability": "view",
      "type": "function"
    },
    {
      "inputs": [
        {
          "internalType": "uint256",
          "name": "",
          "type": "uint256"
        }
      ],
      "name": "isAntonymTokenUsed",
      "outputs": [
        {
          "internalType": "uint256",
          "name": "",
          "type": "uint256"
        }
      ],
      "stateMutability": "view",
      "type": "function"
    },
    {
      "inputs": [
        {
          "internalType": "address",
          "name": "_owner",
          "type": "address"
        },
        {
          "internalType": "address",
          "name": "_operator",
          "type": "address"
        }
      ],
      "name": "isApprovedForAll",
      "outputs": [
        {
          "internalType": "bool",
          "name": "isOperator",
          "type": "bool"
        }
      ],
      "stateMutability": "view",
      "type": "function"
    },
    {
      "inputs": [
        {
          "internalType": "address",
          "name": "account",
          "type": "address"
        },
        {
          "internalType": "uint256[]",
          "name": "tokenIds",
          "type": "uint256[]"
        }
      ],
      "name": "messageHash",
      "outputs": [
        {
          "internalType": "bytes32",
          "name": "",
          "type": "bytes32"
        }
      ],
      "stateMutability": "pure",
      "type": "function"
    },
    {
      "inputs": [
        {
          "internalType": "uint256[]",
          "name": "tokenIds",
          "type": "uint256[]"
        },
        {
          "internalType": "bytes",
          "name": "signature",
          "type": "bytes"
        }
      ],
      "name": "mint",
      "outputs": [],
      "stateMutability": "nonpayable",
      "type": "function"
    },
    {
      "inputs": [
        {
          "internalType": "address",
          "name": "to",
          "type": "address"
        },
        {
          "internalType": "uint256",
          "name": "amountMateria",
          "type": "uint256"
        },
        {
          "internalType": "uint256",
          "name": "amountPrimaMateria",
          "type": "uint256"
        }
      ],
      "name": "mintBatchMateria",
      "outputs": [],
      "stateMutability": "nonpayable",
      "type": "function"
    },
    {
      "inputs": [],
      "name": "name",
      "outputs": [
        {
          "internalType": "string",
          "name": "",
          "type": "string"
        }
      ],
      "stateMutability": "view",
      "type": "function"
    },
    {
      "inputs": [],
      "name": "owner",
      "outputs": [
        {
          "internalType": "address",
          "name": "",
          "type": "address"
        }
      ],
      "stateMutability": "view",
      "type": "function"
    },
    {
      "inputs": [],
      "name": "renounceOwnership",
      "outputs": [],
      "stateMutability": "nonpayable",
      "type": "function"
    },
    {
      "inputs": [
        {
          "internalType": "uint256",
          "name": "_tokenId",
          "type": "uint256"
        },
        {
          "internalType": "uint256",
          "name": "_salePrice",
          "type": "uint256"
        }
      ],
      "name": "royaltyInfo",
      "outputs": [
        {
          "internalType": "address",
          "name": "receiver",
          "type": "address"
        },
        {
          "internalType": "uint256",
          "name": "royaltyAmount",
          "type": "uint256"
        }
      ],
      "stateMutability": "view",
      "type": "function"
    },
    {
      "inputs": [
        {
          "internalType": "address",
          "name": "_from",
          "type": "address"
        },
        {
          "internalType": "address",
          "name": "_to",
          "type": "address"
        },
        {
          "internalType": "uint256[]",
          "name": "_ids",
          "type": "uint256[]"
        },
        {
          "internalType": "uint256[]",
          "name": "_amounts",
          "type": "uint256[]"
        },
        {
          "internalType": "bytes",
          "name": "_data",
          "type": "bytes"
        }
      ],
      "name": "safeBatchTransferFrom",
      "outputs": [],
      "stateMutability": "nonpayable",
      "type": "function"
    },
    {
      "inputs": [
        {
          "internalType": "address",
          "name": "_from",
          "type": "address"
        },
        {
          "internalType": "address",
          "name": "_to",
          "type": "address"
        },
        {
          "internalType": "uint256",
          "name": "_id",
          "type": "uint256"
        },
        {
          "internalType": "uint256",
          "name": "_amount",
          "type": "uint256"
        },
        {
          "internalType": "bytes",
          "name": "_data",
          "type": "bytes"
        }
      ],
      "name": "safeTransferFrom",
      "outputs": [],
      "stateMutability": "nonpayable",
      "type": "function"
    },
    {
      "inputs": [
        {
          "internalType": "address",
          "name": "_operator",
          "type": "address"
        },
        {
          "internalType": "bool",
          "name": "_approved",
          "type": "bool"
        }
      ],
      "name": "setApprovalForAll",
      "outputs": [],
      "stateMutability": "nonpayable",
      "type": "function"
    },
    {
      "inputs": [
        {
          "internalType": "string",
          "name": "_newBaseMetadataURI",
          "type": "string"
        }
      ],
      "name": "setBaseMetadataURI",
      "outputs": [],
      "stateMutability": "nonpayable",
      "type": "function"
    },
    {
      "inputs": [
        {
          "internalType": "uint256",
          "name": "end",
          "type": "uint256"
        }
      ],
      "name": "setDeadline",
      "outputs": [],
      "stateMutability": "nonpayable",
      "type": "function"
    },
    {
      "inputs": [
        {
          "internalType": "address",
          "name": "royaltyAddress",
          "type": "address"
        }
      ],
      "name": "setRoyaltyAddress",
      "outputs": [],
      "stateMutability": "nonpayable",
      "type": "function"
    },
    {
      "inputs": [
        {
          "internalType": "uint256",
          "name": "royaltyBasisPoints",
          "type": "uint256"
        }
      ],
      "name": "setRoyaltyRate",
      "outputs": [],
      "stateMutability": "nonpayable",
      "type": "function"
    },
    {
      "inputs": [
        {
          "internalType": "address",
          "name": "signer",
          "type": "address"
        }
      ],
      "name": "setSigner",
      "outputs": [],
      "stateMutability": "nonpayable",
      "type": "function"
    },
    {
      "inputs": [
        {
          "internalType": "bytes4",
          "name": "interfaceId",
          "type": "bytes4"
        }
      ],
      "name": "supportsInterface",
      "outputs": [
        {
          "internalType": "bool",
          "name": "",
          "type": "bool"
        }
      ],
      "stateMutability": "view",
      "type": "function"
    },
    {
      "inputs": [],
      "name": "symbol",
      "outputs": [
        {
          "internalType": "string",
          "name": "",
          "type": "string"
        }
      ],
      "stateMutability": "view",
      "type": "function"
    },
    {
      "inputs": [
        {
          "internalType": "uint256",
          "name": "",
          "type": "uint256"
        }
      ],
      "name": "tokenSupply",
      "outputs": [
        {
          "internalType": "uint256",
          "name": "",
          "type": "uint256"
        }
      ],
      "stateMutability": "view",
      "type": "function"
    },
    {
      "inputs": [
        {
          "internalType": "uint256",
          "name": "_id",
          "type": "uint256"
        }
      ],
      "name": "totalSupply",
      "outputs": [
        {
          "internalType": "uint256",
          "name": "",
          "type": "uint256"
        }
      ],
      "stateMutability": "view",
      "type": "function"
    },
    {
      "inputs": [
        {
          "internalType": "address",
          "name": "newOwner",
          "type": "address"
        }
      ],
      "name": "transferOwnership",
      "outputs": [],
      "stateMutability": "nonpayable",
      "type": "function"
    },
    {
      "inputs": [
        {
          "internalType": "uint256",
          "name": "_id",
          "type": "uint256"
        }
      ],
      "name": "uri",
      "outputs": [
        {
          "internalType": "string",
          "name": "",
          "type": "string"
        }
      ],
      "stateMutability": "view",
      "type": "function"
    }
  ],
  "bytecode": "0x60806040526001600a60006101000a81548160ff0219169083151502179055503480156200002c57600080fd5b5060405162005bd738038062005bd783398181016040528101906200005291906200081a565b87878762000075620000696200036860201b60201c565b6200037060201b60201c565b82600590805190602001906200008d92919062000452565b508160069080519060200190620000a692919062000452565b50620000b8816200043660201b60201c565b50505042851162000100576040517f08c379a0000000000000000000000000000000000000000000000000000000008152600401620000f790620009c0565b60405180910390fd5b84841162000145576040517f08c379a00000000000000000000000000000000000000000000000000000000081526004016200013c9062000a32565b60405180910390fd5b600073ffffffffffffffffffffffffffffffffffffffff168373ffffffffffffffffffffffffffffffffffffffff1603620001b7576040517f08c379a0000000000000000000000000000000000000000000000000000000008152600401620001ae9062000aa4565b60405180910390fd5b600073ffffffffffffffffffffffffffffffffffffffff168273ffffffffffffffffffffffffffffffffffffffff160362000229576040517f08c379a0000000000000000000000000000000000000000000000000000000008152600401620002209062000b16565b60405180910390fd5b603481511462000270576040517f08c379a0000000000000000000000000000000000000000000000000000000008152600401620002679062000b88565b60405180910390fd5b846007819055508360088190555082600b60006101000a81548173ffffffffffffffffffffffffffffffffffffffff021916908373ffffffffffffffffffffffffffffffffffffffff16021790555081600c60006101000a81548173ffffffffffffffffffffffffffffffffffffffff021916908373ffffffffffffffffffffffffffffffffffffffff16021790555060005b815181101562000359576001600d600084848151811062000329576200032862000baa565b5b60200260200101518152602001908152602001600020819055508080620003509062000c08565b91505062000303565b50505050505050505062000cb9565b600033905090565b6000600360009054906101000a900473ffffffffffffffffffffffffffffffffffffffff16905081600360006101000a81548173ffffffffffffffffffffffffffffffffffffffff021916908373ffffffffffffffffffffffffffffffffffffffff1602179055508173ffffffffffffffffffffffffffffffffffffffff168173ffffffffffffffffffffffffffffffffffffffff167f8be0079c531659141344cd1fd0a4f28419497f9722a3daafe3b4186f6b6457e060405160405180910390a35050565b80600290805190602001906200044e92919062000452565b5050565b828054620004609062000c84565b90600052602060002090601f016020900481019282620004845760008555620004d0565b82601f106200049f57805160ff1916838001178555620004d0565b82800160010185558215620004d0579182015b82811115620004cf578251825591602001919060010190620004b2565b5b509050620004df9190620004e3565b5090565b5b80821115620004fe576000816000905550600101620004e4565b5090565b6000604051905090565b600080fd5b600080fd5b600080fd5b600080fd5b6000601f19601f8301169050919050565b7f4e487b7100000000000000000000000000000000000000000000000000000000600052604160045260246000fd5b6200056b8262000520565b810181811067ffffffffffffffff821117156200058d576200058c62000531565b5b80604052505050565b6000620005a262000502565b9050620005b0828262000560565b919050565b600067ffffffffffffffff821115620005d357620005d262000531565b5b620005de8262000520565b9050602081019050919050565b60005b838110156200060b578082015181840152602081019050620005ee565b838111156200061b576000848401525b50505050565b6000620006386200063284620005b5565b62000596565b9050828152602081018484840111156200065757620006566200051b565b5b62000664848285620005eb565b509392505050565b600082601f83011262000684576200068362000516565b5b81516200069684826020860162000621565b91505092915050565b6000819050919050565b620006b4816200069f565b8114620006c057600080fd5b50565b600081519050620006d481620006a9565b92915050565b600073ffffffffffffffffffffffffffffffffffffffff82169050919050565b60006200070782620006da565b9050919050565b6200071981620006fa565b81146200072557600080fd5b50565b60008151905062000739816200070e565b92915050565b600067ffffffffffffffff8211156200075d576200075c62000531565b5b602082029050602081019050919050565b600080fd5b60006200078a62000784846200073f565b62000596565b90508083825260208201905060208402830185811115620007b057620007af6200076e565b5b835b81811015620007dd5780620007c88882620006c3565b845260208401935050602081019050620007b2565b5050509392505050565b600082601f830112620007ff57620007fe62000516565b5b81516200081184826020860162000773565b91505092915050565b600080600080600080600080610100898b0312156200083e576200083d6200050c565b5b600089015167ffffffffffffffff8111156200085f576200085e62000511565b5b6200086d8b828c016200066c565b985050602089015167ffffffffffffffff81111562000891576200089062000511565b5b6200089f8b828c016200066c565b975050604089015167ffffffffffffffff811115620008c357620008c262000511565b5b620008d18b828c016200066c565b9650506060620008e48b828c01620006c3565b9550506080620008f78b828c01620006c3565b94505060a06200090a8b828c0162000728565b93505060c06200091d8b828c0162000728565b92505060e089015167ffffffffffffffff81111562000941576200094062000511565b5b6200094f8b828c01620007e7565b9150509295985092959890939650565b600082825260208201905092915050565b7f53746172742063616e6e6f7420626520696e2074686520706173740000000000600082015250565b6000620009a8601b836200095f565b9150620009b58262000970565b602082019050919050565b60006020820190508181036000830152620009db8162000999565b9050919050565b7f57726f6e6720656e6420646561646c696e650000000000000000000000000000600082015250565b600062000a1a6012836200095f565b915062000a2782620009e2565b602082019050919050565b6000602082019050818103600083015262000a4d8162000a0b565b9050919050565b7f57726f6e67207369676e65720000000000000000000000000000000000000000600082015250565b600062000a8c600c836200095f565b915062000a998262000a54565b602082019050919050565b6000602082019050818103600083015262000abf8162000a7d565b9050919050565b7f57726f6e67204e46540000000000000000000000000000000000000000000000600082015250565b600062000afe6009836200095f565b915062000b0b8262000ac6565b602082019050919050565b6000602082019050818103600083015262000b318162000aef565b9050919050565b7f57726f6e672061727261792073697a6500000000000000000000000000000000600082015250565b600062000b706010836200095f565b915062000b7d8262000b38565b602082019050919050565b6000602082019050818103600083015262000ba38162000b61565b9050919050565b7f4e487b7100000000000000000000000000000000000000000000000000000000600052603260045260246000fd5b7f4e487b7100000000000000000000000000000000000000000000000000000000600052601160045260246000fd5b600062000c15826200069f565b91507fffffffffffffffffffffffffffffffffffffffffffffffffffffffffffffffff820362000c4a5762000c4962000bd9565b5b600182019050919050565b7f4e487b7100000000000000000000000000000000000000000000000000000000600052602260045260246000fd5b6000600282049050600182168062000c9d57607f821691505b60208210810362000cb35762000cb262000c55565b5b50919050565b614f0e8062000cc96000396000f3fe608060405234801561001057600080fd5b50600436106101a85760003560e01c8063697b0ad4116100f9578063a22cb46511610097578063e0a0bffc11610071578063e0a0bffc146104c8578063e985e9c5146104f8578063f242432a14610528578063f2fde38b14610544576101a8565b8063a22cb4651461044c578063bd85b03914610468578063d9aceeb714610498576101a8565b80637e518ec8116100d35780637e518ec8146103d85780638bb2513b146103f45780638da5cb5b1461041057806395d89b411461042e576101a8565b8063697b0ad4146103965780636c19e783146103b2578063715018a6146103ce576101a8565b80632693ebf2116101665780632eb2c2d6116101405780632eb2c2d6146103105780634a1981191461032c5780634e1273f41461034a578063537782a21461037a576101a8565b80632693ebf2146102935780632a55205a146102c35780632c5a8e86146102f4576101a8565b8062fdd58e146101ad57806301ffc9a7146101dd57806306d254da1461020d57806306fdde03146102295780630e89341c14610247578063195199f614610277575b600080fd5b6101c760048036038101906101c29190612dab565b610560565b6040516101d49190612dfa565b60405180910390f35b6101f760048036038101906101f29190612e6d565b6105ba565b6040516102049190612eb5565b60405180910390f35b61022760048036038101906102229190612ed0565b610622565b005b61023161066e565b60405161023e9190612f96565b60405180910390f35b610261600480360381019061025c9190612fb8565b6106fc565b60405161026e9190612f96565b60405180910390f35b610291600480360381019061028c9190612fb8565b6107a4565b005b6102ad60048036038101906102a89190612fb8565b610805565b6040516102ba9190612dfa565b60405180910390f35b6102dd60048036038101906102d89190612fe5565b61081d565b6040516102eb929190613034565b60405180910390f35b61030e60048036038101906103099190613089565b6108b1565b005b61032a600480360381019061032591906132b3565b6108d6565b005b6103346109e5565b604051610341919061339e565b60405180910390f35b610364600480360381019061035f919061347c565b610a08565b60405161037191906135b2565b60405180910390f35b610394600480360381019061038f9190612fb8565b610b69565b005b6103b060048036038101906103ab91906135d4565b610b7b565b005b6103cc60048036038101906103c79190612ed0565b610e11565b005b6103d6610ecc565b005b6103f260048036038101906103ed91906136c8565b610ee0565b005b61040e60048036038101906104099190613711565b610ef4565b005b6104186113aa565b6040516104259190613789565b60405180910390f35b6104366113d4565b6040516104439190612f96565b60405180910390f35b610466600480360381019061046191906137a4565b611462565b005b610482600480360381019061047d9190612fb8565b61155f565b60405161048f9190612dfa565b60405180910390f35b6104b260048036038101906104ad9190612fb8565b61157c565b6040516104bf9190612dfa565b60405180910390f35b6104e260048036038101906104dd91906137e4565b611594565b6040516104ef9190613859565b60405180910390f35b610512600480360381019061050d9190613874565b6115a8565b60405161051f9190612eb5565b60405180910390f35b610542600480360381019061053d91906138b4565b61163c565b005b61055e60048036038101906105599190612ed0565b61174b565b005b60008060008473ffffffffffffffffffffffffffffffffffffffff1673ffffffffffffffffffffffffffffffffffffffff168152602001908152602001600020600083815260200190815260200160002054905092915050565b6000632a55205a60e01b7bffffffffffffffffffffffffffffffffffffffffffffffffffffffff1916827bffffffffffffffffffffffffffffffffffffffffffffffffffffffff191603610611576001905061061d565b61061a826117ce565b90505b919050565b61062a61184f565b80600a60016101000a81548173ffffffffffffffffffffffffffffffffffffffff021916908373ffffffffffffffffffffffffffffffffffffffff16021790555050565b6005805461067b9061397a565b80601f01602080910402602001604051908101604052809291908181526020018280546106a79061397a565b80156106f45780601f106106c9576101008083540402835291602001916106f4565b820191906000526020600020905b8154815290600101906020018083116106d757829003601f168201915b505050505081565b6060610707826118cd565b610746576040517f08c379a000000000000000000000000000000000000000000000000000000000815260040161073d90613a1d565b60405180910390fd5b6000600280546107559061397a565b905011610771576040518060200160405280600081525061079d565b600261077c836118ec565b60405160200161078d929190613b0d565b6040516020818303038152906040525b9050919050565b6107ac61184f565b600754811180156107bc57504281115b6107fb576040517f08c379a00000000000000000000000000000000000000000000000000000000081526004016107f290613b7d565b60405180910390fd5b8060088190555050565b60046020528060005260406000206000915090505481565b600080610829846118cd565b610868576040517f08c379a000000000000000000000000000000000000000000000000000000000815260040161085f90613be9565b60405180910390fd5b600a60019054906101000a900473ffffffffffffffffffffffffffffffffffffffff166127106009548561089c9190613c38565b6108a69190613cc1565b915091509250929050565b6108b961184f565b80600a60006101000a81548160ff02191690831515021790555050565b8473ffffffffffffffffffffffffffffffffffffffff163373ffffffffffffffffffffffffffffffffffffffff161480610916575061091585336115a8565b5b610955576040517f08c379a000000000000000000000000000000000000000000000000000000000815260040161094c90613d64565b60405180910390fd5b600073ffffffffffffffffffffffffffffffffffffffff168473ffffffffffffffffffffffffffffffffffffffff16036109c4576040517f08c379a00000000000000000000000000000000000000000000000000000000081526004016109bb90613df6565b60405180910390fd5b6109d085858585611a4c565b6109de858585855a86611d40565b5050505050565b60006001600360149054906101000a900460ff16610a039190613e16565b905090565b60608151835114610a4e576040517f08c379a0000000000000000000000000000000000000000000000000000000008152600401610a4590613ebf565b60405180910390fd5b6000835167ffffffffffffffff811115610a6b57610a6a6130bb565b5b604051908082528060200260200182016040528015610a995781602001602082028036833780820191505090505b50905060005b8451811015610b5e57600080868381518110610abe57610abd613edf565b5b602002602001015173ffffffffffffffffffffffffffffffffffffffff1673ffffffffffffffffffffffffffffffffffffffff1681526020019081526020016000206000858381518110610b1557610b14613edf565b5b6020026020010151815260200190815260200160002054828281518110610b3f57610b3e613edf565b5b6020026020010181815250508080610b5690613f0e565b915050610a9f565b508091505092915050565b610b7161184f565b8060098190555050565b610b8361184f565b600a60009054906101000a900460ff16610bd2576040517f08c379a0000000000000000000000000000000000000000000000000000000008152600401610bc990613fa2565b60405180910390fd5b4260085410610c16576040517f08c379a0000000000000000000000000000000000000000000000000000000008152600401610c0d9061400e565b60405180910390fd5b6126dc82600460006001815260200190815260200160002054610c39919061402e565b1115610c7a576040517f08c379a0000000000000000000000000000000000000000000000000000000008152600401610c71906140d0565b60405180910390fd5b603481600460006002815260200190815260200160002054610c9c919061402e565b1115610cdd576040517f08c379a0000000000000000000000000000000000000000000000000000000008152600401610cd49061413c565b60405180910390fd5b6000600267ffffffffffffffff811115610cfa57610cf96130bb565b5b604051908082528060200260200182016040528015610d285781602001602082028036833780820191505090505b509050600181600081518110610d4157610d40613edf565b5b602002602001018181525050600281600181518110610d6357610d62613edf565b5b6020026020010181815250506000600267ffffffffffffffff811115610d8c57610d8b6130bb565b5b604051908082528060200260200182016040528015610dba5781602001602082028036833780820191505090505b5090508381600081518110610dd257610dd1613edf565b5b6020026020010181815250508281600181518110610df357610df2613edf565b5b602002602001018181525050610e0a858383611f17565b5050505050565b610e1961184f565b600073ffffffffffffffffffffffffffffffffffffffff168173ffffffffffffffffffffffffffffffffffffffff1603610e88576040517f08c379a0000000000000000000000000000000000000000000000000000000008152600401610e7f906141a8565b60405180910390fd5b80600b60006101000a81548173ffffffffffffffffffffffffffffffffffffffff021916908373ffffffffffffffffffffffffffffffffffffffff16021790555050565b610ed461184f565b610ede6000611fc8565b565b610ee861184f565b610ef18161208e565b50565b600a60009054906101000a900460ff16610f43576040517f08c379a0000000000000000000000000000000000000000000000000000000008152600401610f3a90613fa2565b60405180910390fd5b426007541115610f88576040517f08c379a0000000000000000000000000000000000000000000000000000000008152600401610f7f90614214565b60405180910390fd5b4260085411610fcc576040517f08c379a0000000000000000000000000000000000000000000000000000000008152600401610fc390614280565b60405180910390fd5b6000610fd66120a8565b9050610fe38184846120b0565b611022576040517f08c379a0000000000000000000000000000000000000000000000000000000008152600401611019906142ec565b60405180910390fd5b6000835190506000811161106b576040517f08c379a000000000000000000000000000000000000000000000000000000000815260040161106290614358565b60405180910390fd5b60008060005b8381101561126557600087828151811061108e5761108d613edf565b5b602002602001015190506000600e600083815260200190815260200160002054146110ee576040517f08c379a00000000000000000000000000000000000000000000000000000000081526004016110e5906143c4565b60405180910390fd5b8573ffffffffffffffffffffffffffffffffffffffff16600c60009054906101000a900473ffffffffffffffffffffffffffffffffffffffff1673ffffffffffffffffffffffffffffffffffffffff16636352211e836040518263ffffffff1660e01b81526004016111609190612dfa565b6020604051808303816000875af115801561117f573d6000803e3d6000fd5b505050506040513d601f19601f820116820180604052508101906111a391906143f9565b73ffffffffffffffffffffffffffffffffffffffff16146111f9576040517f08c379a00000000000000000000000000000000000000000000000000000000081526004016111f090614472565b60405180910390fd5b6001600e6000838152602001908152602001600020819055506001600d600083815260200190815260200160002054036112415760018361123a919061402e565b9250611251565b60018461124e919061402e565b93505b50808061125d90613f0e565b915050611071565b5060008211156112e0576126dc82600460006001815260200190815260200160002054611292919061402e565b11156112d3576040517f08c379a00000000000000000000000000000000000000000000000000000000081526004016112ca906140d0565b60405180910390fd5b6112df846001846120e9565b5b60008111156113a2576112f360016118cd565b611332576040517f08c379a000000000000000000000000000000000000000000000000000000000815260040161132990614504565b60405180910390fd5b603481600460006002815260200190815260200160002054611354919061402e565b1115611395576040517f08c379a000000000000000000000000000000000000000000000000000000000815260040161138c9061413c565b60405180910390fd5b6113a1846002836120e9565b5b505050505050565b6000600360009054906101000a900473ffffffffffffffffffffffffffffffffffffffff16905090565b600680546113e19061397a565b80601f016020809104026020016040519081016040528092919081815260200182805461140d9061397a565b801561145a5780601f1061142f5761010080835404028352916020019161145a565b820191906000526020600020905b81548152906001019060200180831161143d57829003601f168201915b505050505081565b80600160003373ffffffffffffffffffffffffffffffffffffffff1673ffffffffffffffffffffffffffffffffffffffff16815260200190815260200160002060008473ffffffffffffffffffffffffffffffffffffffff1673ffffffffffffffffffffffffffffffffffffffff16815260200190815260200160002060006101000a81548160ff0219169083151502179055508173ffffffffffffffffffffffffffffffffffffffff163373ffffffffffffffffffffffffffffffffffffffff167f17307eab39ab6107e8899845ad3d59bd9653f200f220920489ca2b5937696c31836040516115539190612eb5565b60405180910390a35050565b600060046000838152602001908152602001600020549050919050565b600e6020528060005260406000206000915090505481565b60006115a0838361211a565b905092915050565b6000600160008473ffffffffffffffffffffffffffffffffffffffff1673ffffffffffffffffffffffffffffffffffffffff16815260200190815260200160002060008373ffffffffffffffffffffffffffffffffffffffff1673ffffffffffffffffffffffffffffffffffffffff16815260200190815260200160002060009054906101000a900460ff16905092915050565b8473ffffffffffffffffffffffffffffffffffffffff163373ffffffffffffffffffffffffffffffffffffffff16148061167c575061167b85336115a8565b5b6116bb576040517f08c379a00000000000000000000000000000000000000000000000000000000081526004016116b290614596565b60405180910390fd5b600073ffffffffffffffffffffffffffffffffffffffff168473ffffffffffffffffffffffffffffffffffffffff160361172a576040517f08c379a000000000000000000000000000000000000000000000000000000000815260040161172190614628565b60405180910390fd5b6117368585858561214d565b611744858585855a8661233b565b5050505050565b61175361184f565b600073ffffffffffffffffffffffffffffffffffffffff168173ffffffffffffffffffffffffffffffffffffffff16036117c2576040517f08c379a00000000000000000000000000000000000000000000000000000000081526004016117b9906146ba565b60405180910390fd5b6117cb81611fc8565b50565b60007fd9b67a26000000000000000000000000000000000000000000000000000000007bffffffffffffffffffffffffffffffffffffffffffffffffffffffff1916827bffffffffffffffffffffffffffffffffffffffffffffffffffffffff19160361183e576001905061184a565b61184782612512565b90505b919050565b6118576120a8565b73ffffffffffffffffffffffffffffffffffffffff166118756113aa565b73ffffffffffffffffffffffffffffffffffffffff16146118cb576040517f08c379a00000000000000000000000000000000000000000000000000000000081526004016118c290614726565b60405180910390fd5b565b6000806004600084815260200190815260200160002054119050919050565b606060008203611933576040518060400160405280600181526020017f30000000000000000000000000000000000000000000000000000000000000008152509050611a47565b600082905060005b6000821461196557808061194e90613f0e565b915050600a8261195e9190613cc1565b915061193b565b60008167ffffffffffffffff811115611981576119806130bb565b5b6040519080825280601f01601f1916602001820160405280156119b35781602001600182028036833780820191505090505b5090505b60008514611a40576001826119cc9190614746565b9150600a856119db919061477a565b60306119e7919061402e565b60f81b8183815181106119fd576119fc613edf565b5b60200101907effffffffffffffffffffffffffffffffffffffffffffffffffffffffffffff1916908160001a905350600a85611a399190613cc1565b94506119b7565b8093505050505b919050565b8051825114611a90576040517f08c379a0000000000000000000000000000000000000000000000000000000008152600401611a879061481d565b60405180910390fd5b60008251905060005b81811015611cba57611b37838281518110611ab757611ab6613edf565b5b60200260200101516000808973ffffffffffffffffffffffffffffffffffffffff1673ffffffffffffffffffffffffffffffffffffffff1681526020019081526020016000206000878581518110611b1257611b11613edf565b5b602002602001015181526020019081526020016000205461259390919063ffffffff16565b6000808873ffffffffffffffffffffffffffffffffffffffff1673ffffffffffffffffffffffffffffffffffffffff1681526020019081526020016000206000868481518110611b8a57611b89613edf565b5b6020026020010151815260200190815260200160002081905550611c3a838281518110611bba57611bb9613edf565b5b60200260200101516000808873ffffffffffffffffffffffffffffffffffffffff1673ffffffffffffffffffffffffffffffffffffffff1681526020019081526020016000206000878581518110611c1557611c14613edf565b5b60200260200101518152602001908152602001600020546125a990919063ffffffff16565b6000808773ffffffffffffffffffffffffffffffffffffffff1673ffffffffffffffffffffffffffffffffffffffff1681526020019081526020016000206000868481518110611c8d57611c8c613edf565b5b60200260200101518152602001908152602001600020819055508080611cb290613f0e565b915050611a99565b508373ffffffffffffffffffffffffffffffffffffffff168573ffffffffffffffffffffffffffffffffffffffff163373ffffffffffffffffffffffffffffffffffffffff167f4a39dc06d4c0dbc64b70af90fd698a233a518aa5d07e595d983b8c0526c8f7fb8686604051611d3192919061483d565b60405180910390a45050505050565b611d5f8573ffffffffffffffffffffffffffffffffffffffff166125bf565b15611f0f578473ffffffffffffffffffffffffffffffffffffffff1663bc197c8133888787866040518663ffffffff1660e01b8152600401611da59594939291906148c9565b6020604051808303816000875af1925050508015611de157506040513d601f19601f82011682018060405250810190611dde9190614946565b60015b611e8657611ded614980565b806308c379a003611e495750611e016149a2565b80611e0c5750611e4b565b806040517f08c379a0000000000000000000000000000000000000000000000000000000008152600401611e409190612f96565b60405180910390fd5b505b6040517f08c379a0000000000000000000000000000000000000000000000000000000008152600401611e7d90614aa4565b60405180910390fd5b63bc197c8160e01b7bffffffffffffffffffffffffffffffffffffffffffffffffffffffff1916817bffffffffffffffffffffffffffffffffffffffffffffffffffffffff191614611f0d576040517f08c379a0000000000000000000000000000000000000000000000000000000008152600401611f0490614b36565b60405180910390fd5b505b505050505050565b60005b8251811015611fa7576000838281518110611f3857611f37613edf565b5b602002602001015190506000838381518110611f5757611f56613edf565b5b602002602001015190508061ffff16600460008460ff1681526020019081526020016000206000828254611f8b919061402e565b9250508190555050508080611f9f90613f0e565b915050611f1a565b50611fc3838383604051806020016040528060008152506125e2565b505050565b6000600360009054906101000a900473ffffffffffffffffffffffffffffffffffffffff16905081600360006101000a81548173ffffffffffffffffffffffffffffffffffffffff021916908373ffffffffffffffffffffffffffffffffffffffff1602179055508173ffffffffffffffffffffffffffffffffffffffff168173ffffffffffffffffffffffffffffffffffffffff167f8be0079c531659141344cd1fd0a4f28419497f9722a3daafe3b4186f6b6457e060405160405180910390a35050565b80600290805190602001906120a4929190612c60565b5050565b600033905090565b60006120e0600b60009054906101000a900473ffffffffffffffffffffffffffffffffffffffff168585856127e3565b90509392505050565b6120f58260ff166118cd565b612109576121038382612843565b50612115565b61211483838361289b565b5b505050565b6000828260405160200161212f929190614c2e565b60405160208183030381529060405280519060200120905092915050565b6121af816000808773ffffffffffffffffffffffffffffffffffffffff1673ffffffffffffffffffffffffffffffffffffffff16815260200190815260200160002060008581526020019081526020016000205461259390919063ffffffff16565b6000808673ffffffffffffffffffffffffffffffffffffffff1673ffffffffffffffffffffffffffffffffffffffff168152602001908152602001600020600084815260200190815260200160002081905550612264816000808673ffffffffffffffffffffffffffffffffffffffff1673ffffffffffffffffffffffffffffffffffffffff1681526020019081526020016000206000858152602001908152602001600020546125a990919063ffffffff16565b6000808573ffffffffffffffffffffffffffffffffffffffff1673ffffffffffffffffffffffffffffffffffffffff1681526020019081526020016000206000848152602001908152602001600020819055508273ffffffffffffffffffffffffffffffffffffffff168473ffffffffffffffffffffffffffffffffffffffff163373ffffffffffffffffffffffffffffffffffffffff167fc3d58168c5ae7397731d063d5bbf3d657854427343f4c083240f7aacaa2d0f62858560405161232d929190614c56565b60405180910390a450505050565b61235a8573ffffffffffffffffffffffffffffffffffffffff166125bf565b1561250a578473ffffffffffffffffffffffffffffffffffffffff1663f23a6e6133888787866040518663ffffffff1660e01b81526004016123a0959493929190614c7f565b6020604051808303816000875af19250505080156123dc57506040513d601f19601f820116820180604052508101906123d99190614946565b60015b612481576123e8614980565b806308c379a00361244457506123fc6149a2565b806124075750612446565b806040517f08c379a000000000000000000000000000000000000000000000000000000000815260040161243b9190612f96565b60405180910390fd5b505b6040517f08c379a000000000000000000000000000000000000000000000000000000000815260040161247890614aa4565b60405180910390fd5b63f23a6e6160e01b7bffffffffffffffffffffffffffffffffffffffffffffffffffffffff1916817bffffffffffffffffffffffffffffffffffffffffffffffffffffffff191614612508576040517f08c379a00000000000000000000000000000000000000000000000000000000081526004016124ff90614b36565b60405180910390fd5b505b505050505050565b60007f0e89341c000000000000000000000000000000000000000000000000000000007bffffffffffffffffffffffffffffffffffffffffffffffffffffffff1916827bffffffffffffffffffffffffffffffffffffffffffffffffffffffff191603612582576001905061258e565b61258b826128eb565b90505b919050565b600081836125a19190614746565b905092915050565b600081836125b7919061402e565b905092915050565b6000808273ffffffffffffffffffffffffffffffffffffffff163b119050919050565b8151835114612626576040517f08c379a000000000000000000000000000000000000000000000000000000000815260040161261d90614d4b565b60405180910390fd5b60008351905060005b8181101561274d576126cd84828151811061264d5761264c613edf565b5b60200260200101516000808973ffffffffffffffffffffffffffffffffffffffff1673ffffffffffffffffffffffffffffffffffffffff16815260200190815260200160002060008885815181106126a8576126a7613edf565b5b60200260200101518152602001908152602001600020546125a990919063ffffffff16565b6000808873ffffffffffffffffffffffffffffffffffffffff1673ffffffffffffffffffffffffffffffffffffffff16815260200190815260200160002060008784815181106127205761271f613edf565b5b6020026020010151815260200190815260200160002081905550808061274590613f0e565b91505061262f565b508473ffffffffffffffffffffffffffffffffffffffff16600073ffffffffffffffffffffffffffffffffffffffff163373ffffffffffffffffffffffffffffffffffffffff167f4a39dc06d4c0dbc64b70af90fd698a233a518aa5d07e595d983b8c0526c8f7fb87876040516127c592919061483d565b60405180910390a46127dc60008686865a87611d40565b5050505050565b6000806127f0858561211a565b905060006127fd8261296c565b90508673ffffffffffffffffffffffffffffffffffffffff16612820828661299c565b73ffffffffffffffffffffffffffffffffffffffff161492505050949350505050565b60008061284e6109e5565b9050612858612a0b565b612876848260ff168560405180602001604052806000815250612a45565b82600460008360ff168152602001908152602001600020819055508091505092915050565b6128b9838360ff168360405180602001604052806000815250612a45565b80600460008460ff16815260200190815260200160002060008282546128df919061402e565b92505081905550505050565b60007fd9b67a26000000000000000000000000000000000000000000000000000000007bffffffffffffffffffffffffffffffffffffffffffffffffffffffff1916827bffffffffffffffffffffffffffffffffffffffffffffffffffffffff19160361295b5760019050612967565b61296482612b8e565b90505b919050565b60008160405160200161297f9190614dd8565b604051602081830303815290604052805190602001209050919050565b6000806000806129ab85612bf8565b925092509250600186828585604051600081526020016040526040516129d49493929190614dfe565b6020604051602081039080840390855afa1580156129f6573d6000803e3d6000fd5b50505060206040510351935050505092915050565b6003601481819054906101000a900460ff1680929190612a2a90614e43565b91906101000a81548160ff021916908360ff16021790555050565b612aa7826000808773ffffffffffffffffffffffffffffffffffffffff1673ffffffffffffffffffffffffffffffffffffffff1681526020019081526020016000206000868152602001908152602001600020546125a990919063ffffffff16565b6000808673ffffffffffffffffffffffffffffffffffffffff1673ffffffffffffffffffffffffffffffffffffffff1681526020019081526020016000206000858152602001908152602001600020819055508373ffffffffffffffffffffffffffffffffffffffff16600073ffffffffffffffffffffffffffffffffffffffff163373ffffffffffffffffffffffffffffffffffffffff167fc3d58168c5ae7397731d063d5bbf3d657854427343f4c083240f7aacaa2d0f628686604051612b71929190614c56565b60405180910390a4612b8860008585855a8661233b565b50505050565b60007f01ffc9a7000000000000000000000000000000000000000000000000000000007bffffffffffffffffffffffffffffffffffffffffffffffffffffffff1916827bffffffffffffffffffffffffffffffffffffffffffffffffffffffff1916149050919050565b60008060006041845114612c41576040517f08c379a0000000000000000000000000000000000000000000000000000000008152600401612c3890614eb8565b60405180910390fd5b6020840151925060408401519150606084015160001a90509193909250565b828054612c6c9061397a565b90600052602060002090601f016020900481019282612c8e5760008555612cd5565b82601f10612ca757805160ff1916838001178555612cd5565b82800160010185558215612cd5579182015b82811115612cd4578251825591602001919060010190612cb9565b5b509050612ce29190612ce6565b5090565b5b80821115612cff576000816000905550600101612ce7565b5090565b6000604051905090565b600080fd5b600080fd5b600073ffffffffffffffffffffffffffffffffffffffff82169050919050565b6000612d4282612d17565b9050919050565b612d5281612d37565b8114612d5d57600080fd5b50565b600081359050612d6f81612d49565b92915050565b6000819050919050565b612d8881612d75565b8114612d9357600080fd5b50565b600081359050612da581612d7f565b92915050565b60008060408385031215612dc257612dc1612d0d565b5b6000612dd085828601612d60565b9250506020612de185828601612d96565b9150509250929050565b612df481612d75565b82525050565b6000602082019050612e0f6000830184612deb565b92915050565b60007fffffffff0000000000000000000000000000000000000000000000000000000082169050919050565b612e4a81612e15565b8114612e5557600080fd5b50565b600081359050612e6781612e41565b92915050565b600060208284031215612e8357612e82612d0d565b5b6000612e9184828501612e58565b91505092915050565b60008115159050919050565b612eaf81612e9a565b82525050565b6000602082019050612eca6000830184612ea6565b92915050565b600060208284031215612ee657612ee5612d0d565b5b6000612ef484828501612d60565b91505092915050565b600081519050919050565b600082825260208201905092915050565b60005b83811015612f37578082015181840152602081019050612f1c565b83811115612f46576000848401525b50505050565b6000601f19601f8301169050919050565b6000612f6882612efd565b612f728185612f08565b9350612f82818560208601612f19565b612f8b81612f4c565b840191505092915050565b60006020820190508181036000830152612fb08184612f5d565b905092915050565b600060208284031215612fce57612fcd612d0d565b5b6000612fdc84828501612d96565b91505092915050565b60008060408385031215612ffc57612ffb612d0d565b5b600061300a85828601612d96565b925050602061301b85828601612d96565b9150509250929050565b61302e81612d37565b82525050565b60006040820190506130496000830185613025565b6130566020830184612deb565b9392505050565b61306681612e9a565b811461307157600080fd5b50565b6000813590506130838161305d565b92915050565b60006020828403121561309f5761309e612d0d565b5b60006130ad84828501613074565b91505092915050565b600080fd5b7f4e487b7100000000000000000000000000000000000000000000000000000000600052604160045260246000fd5b6130f382612f4c565b810181811067ffffffffffffffff82111715613112576131116130bb565b5b80604052505050565b6000613125612d03565b905061313182826130ea565b919050565b600067ffffffffffffffff821115613151576131506130bb565b5b602082029050602081019050919050565b600080fd5b600061317a61317584613136565b61311b565b9050808382526020820190506020840283018581111561319d5761319c613162565b5b835b818110156131c657806131b28882612d96565b84526020840193505060208101905061319f565b5050509392505050565b600082601f8301126131e5576131e46130b6565b5b81356131f5848260208601613167565b91505092915050565b600080fd5b600067ffffffffffffffff82111561321e5761321d6130bb565b5b61322782612f4c565b9050602081019050919050565b82818337600083830152505050565b600061325661325184613203565b61311b565b905082815260208101848484011115613272576132716131fe565b5b61327d848285613234565b509392505050565b600082601f83011261329a576132996130b6565b5b81356132aa848260208601613243565b91505092915050565b600080600080600060a086880312156132cf576132ce612d0d565b5b60006132dd88828901612d60565b95505060206132ee88828901612d60565b945050604086013567ffffffffffffffff81111561330f5761330e612d12565b5b61331b888289016131d0565b935050606086013567ffffffffffffffff81111561333c5761333b612d12565b5b613348888289016131d0565b925050608086013567ffffffffffffffff81111561336957613368612d12565b5b61337588828901613285565b9150509295509295909350565b600060ff82169050919050565b61339881613382565b82525050565b60006020820190506133b3600083018461338f565b92915050565b600067ffffffffffffffff8211156133d4576133d36130bb565b5b602082029050602081019050919050565b60006133f86133f3846133b9565b61311b565b9050808382526020820190506020840283018581111561341b5761341a613162565b5b835b8181101561344457806134308882612d60565b84526020840193505060208101905061341d565b5050509392505050565b600082601f830112613463576134626130b6565b5b81356134738482602086016133e5565b91505092915050565b6000806040838503121561349357613492612d0d565b5b600083013567ffffffffffffffff8111156134b1576134b0612d12565b5b6134bd8582860161344e565b925050602083013567ffffffffffffffff8111156134de576134dd612d12565b5b6134ea858286016131d0565b9150509250929050565b600081519050919050565b600082825260208201905092915050565b6000819050602082019050919050565b61352981612d75565b82525050565b600061353b8383613520565b60208301905092915050565b6000602082019050919050565b600061355f826134f4565b61356981856134ff565b935061357483613510565b8060005b838110156135a557815161358c888261352f565b975061359783613547565b925050600181019050613578565b5085935050505092915050565b600060208201905081810360008301526135cc8184613554565b905092915050565b6000806000606084860312156135ed576135ec612d0d565b5b60006135fb86828701612d60565b935050602061360c86828701612d96565b925050604061361d86828701612d96565b9150509250925092565b600067ffffffffffffffff821115613642576136416130bb565b5b61364b82612f4c565b9050602081019050919050565b600061366b61366684613627565b61311b565b905082815260208101848484011115613687576136866131fe565b5b613692848285613234565b509392505050565b600082601f8301126136af576136ae6130b6565b5b81356136bf848260208601613658565b91505092915050565b6000602082840312156136de576136dd612d0d565b5b600082013567ffffffffffffffff8111156136fc576136fb612d12565b5b6137088482850161369a565b91505092915050565b6000806040838503121561372857613727612d0d565b5b600083013567ffffffffffffffff81111561374657613745612d12565b5b613752858286016131d0565b925050602083013567ffffffffffffffff81111561377357613772612d12565b5b61377f85828601613285565b9150509250929050565b600060208201905061379e6000830184613025565b92915050565b600080604083850312156137bb576137ba612d0d565b5b60006137c985828601612d60565b92505060206137da85828601613074565b9150509250929050565b600080604083850312156137fb576137fa612d0d565b5b600061380985828601612d60565b925050602083013567ffffffffffffffff81111561382a57613829612d12565b5b613836858286016131d0565b9150509250929050565b6000819050919050565b61385381613840565b82525050565b600060208201905061386e600083018461384a565b92915050565b6000806040838503121561388b5761388a612d0d565b5b600061389985828601612d60565b92505060206138aa85828601612d60565b9150509250929050565b600080600080600060a086880312156138d0576138cf612d0d565b5b60006138de88828901612d60565b95505060206138ef88828901612d60565b945050604061390088828901612d96565b935050606061391188828901612d96565b925050608086013567ffffffffffffffff81111561393257613931612d12565b5b61393e88828901613285565b9150509295509295909350565b7f4e487b7100000000000000000000000000000000000000000000000000000000600052602260045260246000fd5b6000600282049050600182168061399257607f821691505b6020821081036139a5576139a461394b565b5b50919050565b7f45524331313535547261646561626c65237572693a204e4f4e4558495354454e60008201527f545f544f4b454e00000000000000000000000000000000000000000000000000602082015250565b6000613a07602783612f08565b9150613a12826139ab565b604082019050919050565b60006020820190508181036000830152613a36816139fa565b9050919050565b600081905092915050565b60008190508160005260206000209050919050565b60008154613a6a8161397a565b613a748186613a3d565b94506001821660008114613a8f5760018114613aa057613ad3565b60ff19831686528186019350613ad3565b613aa985613a48565b60005b83811015613acb57815481890152600182019150602081019050613aac565b838801955050505b50505092915050565b6000613ae782612efd565b613af18185613a3d565b9350613b01818560208601612f19565b80840191505092915050565b6000613b198285613a5d565b9150613b258284613adc565b91508190509392505050565b7f57726f6e6720656e6420646561646c696e650000000000000000000000000000600082015250565b6000613b67601283612f08565b9150613b7282613b31565b602082019050919050565b60006020820190508181036000830152613b9681613b5a565b9050919050565b7f494e56414c49445f544f4b454e49440000000000000000000000000000000000600082015250565b6000613bd3600f83612f08565b9150613bde82613b9d565b602082019050919050565b60006020820190508181036000830152613c0281613bc6565b9050919050565b7f4e487b7100000000000000000000000000000000000000000000000000000000600052601160045260246000fd5b6000613c4382612d75565b9150613c4e83612d75565b9250817fffffffffffffffffffffffffffffffffffffffffffffffffffffffffffffffff0483118215151615613c8757613c86613c09565b5b828202905092915050565b7f4e487b7100000000000000000000000000000000000000000000000000000000600052601260045260246000fd5b6000613ccc82612d75565b9150613cd783612d75565b925082613ce757613ce6613c92565b5b828204905092915050565b7f45524331313535237361666542617463685472616e7366657246726f6d3a204960008201527f4e56414c49445f4f50455241544f520000000000000000000000000000000000602082015250565b6000613d4e602f83612f08565b9150613d5982613cf2565b604082019050919050565b60006020820190508181036000830152613d7d81613d41565b9050919050565b7f45524331313535237361666542617463685472616e7366657246726f6d3a204960008201527f4e56414c49445f524543495049454e5400000000000000000000000000000000602082015250565b6000613de0603083612f08565b9150613deb82613d84565b604082019050919050565b60006020820190508181036000830152613e0f81613dd3565b9050919050565b6000613e2182613382565b9150613e2c83613382565b92508260ff03821115613e4257613e41613c09565b5b828201905092915050565b7f455243313135352362616c616e63654f6642617463683a20494e56414c49445f60008201527f41525241595f4c454e4754480000000000000000000000000000000000000000602082015250565b6000613ea9602c83612f08565b9150613eb482613e4d565b604082019050919050565b60006020820190508181036000830152613ed881613e9c565b9050919050565b7f4e487b7100000000000000000000000000000000000000000000000000000000600052603260045260246000fd5b6000613f1982612d75565b91507fffffffffffffffffffffffffffffffffffffffffffffffffffffffffffffffff8203613f4b57613f4a613c09565b5b600182019050919050565b7f4d696e74696e6720697320506175736564000000000000000000000000000000600082015250565b6000613f8c601183612f08565b9150613f9782613f56565b602082019050919050565b60006020820190508181036000830152613fbb81613f7f565b9050919050565b7f446561646c696e65206e6f7420796574206f7665720000000000000000000000600082015250565b6000613ff8601583612f08565b915061400382613fc2565b602082019050919050565b6000602082019050818103600083015261402781613feb565b9050919050565b600061403982612d75565b915061404483612d75565b9250827fffffffffffffffffffffffffffffffffffffffffffffffffffffffffffffffff0382111561407957614078613c09565b5b828201905092915050565b7f416d6f756e74204d617465726961206578636565646564000000000000000000600082015250565b60006140ba601783612f08565b91506140c582614084565b602082019050919050565b600060208201905081810360008301526140e9816140ad565b9050919050565b7f416d6f756e74205072696d61204d617465726961206578636565646564000000600082015250565b6000614126601d83612f08565b9150614131826140f0565b602082019050919050565b6000602082019050818103600083015261415581614119565b9050919050565b7f57726f6e67207369676e65720000000000000000000000000000000000000000600082015250565b6000614192600c83612f08565b915061419d8261415c565b602082019050919050565b600060208201905081810360008301526141c181614185565b9050919050565b7f4d696e74696e67206e6f74207965742073746172746564000000000000000000600082015250565b60006141fe601783612f08565b9150614209826141c8565b602082019050919050565b6000602082019050818103600083015261422d816141f1565b9050919050565b7f4d696e74696e6720616c726561647920656e6465640000000000000000000000600082015250565b600061426a601583612f08565b915061427582614234565b602082019050919050565b600060208201905081810360008301526142998161425d565b9050919050565b7f57726f6e67204d617465726961205369676e6174757265000000000000000000600082015250565b60006142d6601783612f08565b91506142e1826142a0565b602082019050919050565b60006020820190508181036000830152614305816142c9565b9050919050565b7f4e6f20746f6b656e732073706563696669656400000000000000000000000000600082015250565b6000614342601383612f08565b915061434d8261430c565b602082019050919050565b6000602082019050818103600083015261437181614335565b9050919050565b7f546f6b656e20616c726561647920757365640000000000000000000000000000600082015250565b60006143ae601283612f08565b91506143b982614378565b602082019050919050565b600060208201905081810360008301526143dd816143a1565b9050919050565b6000815190506143f381612d49565b92915050565b60006020828403121561440f5761440e612d0d565b5b600061441d848285016143e4565b91505092915050565b7f4e6f7420746f6b656e206f776e65720000000000000000000000000000000000600082015250565b600061445c600f83612f08565b915061446782614426565b602082019050919050565b6000602082019050818103600083015261448b8161444f565b9050919050565b7f41204d6174657269612073686f756c642062652063726561746564206669727360008201527f7400000000000000000000000000000000000000000000000000000000000000602082015250565b60006144ee602183612f08565b91506144f982614492565b604082019050919050565b6000602082019050818103600083015261451d816144e1565b9050919050565b7f4552433131353523736166655472616e7366657246726f6d3a20494e56414c4960008201527f445f4f50455241544f5200000000000000000000000000000000000000000000602082015250565b6000614580602a83612f08565b915061458b82614524565b604082019050919050565b600060208201905081810360008301526145af81614573565b9050919050565b7f4552433131353523736166655472616e7366657246726f6d3a20494e56414c4960008201527f445f524543495049454e54000000000000000000000000000000000000000000602082015250565b6000614612602b83612f08565b915061461d826145b6565b604082019050919050565b6000602082019050818103600083015261464181614605565b9050919050565b7f4f776e61626c653a206e6577206f776e657220697320746865207a65726f206160008201527f6464726573730000000000000000000000000000000000000000000000000000602082015250565b60006146a4602683612f08565b91506146af82614648565b604082019050919050565b600060208201905081810360008301526146d381614697565b9050919050565b7f4f776e61626c653a2063616c6c6572206973206e6f7420746865206f776e6572600082015250565b6000614710602083612f08565b915061471b826146da565b602082019050919050565b6000602082019050818103600083015261473f81614703565b9050919050565b600061475182612d75565b915061475c83612d75565b92508282101561476f5761476e613c09565b5b828203905092915050565b600061478582612d75565b915061479083612d75565b9250826147a05761479f613c92565b5b828206905092915050565b7f45524331313535235f7361666542617463685472616e7366657246726f6d3a2060008201527f494e56414c49445f4152524159535f4c454e4754480000000000000000000000602082015250565b6000614807603583612f08565b9150614812826147ab565b604082019050919050565b60006020820190508181036000830152614836816147fa565b9050919050565b600060408201905081810360008301526148578185613554565b9050818103602083015261486b8184613554565b90509392505050565b600081519050919050565b600082825260208201905092915050565b600061489b82614874565b6148a5818561487f565b93506148b5818560208601612f19565b6148be81612f4c565b840191505092915050565b600060a0820190506148de6000830188613025565b6148eb6020830187613025565b81810360408301526148fd8186613554565b905081810360608301526149118185613554565b905081810360808301526149258184614890565b90509695505050505050565b60008151905061494081612e41565b92915050565b60006020828403121561495c5761495b612d0d565b5b600061496a84828501614931565b91505092915050565b60008160e01c9050919050565b600060033d111561499f5760046000803e61499c600051614973565b90505b90565b600060443d10614a2f576149b4612d03565b60043d036004823e80513d602482011167ffffffffffffffff821117156149dc575050614a2f565b808201805167ffffffffffffffff8111156149fa5750505050614a2f565b80602083010160043d038501811115614a17575050505050614a2f565b614a26826020018501866130ea565b82955050505050505b90565b7f455243313135353a207472616e7366657220746f206e6f6e204552433131353560008201527f526563656976657220696d706c656d656e746572000000000000000000000000602082015250565b6000614a8e603483612f08565b9150614a9982614a32565b604082019050919050565b60006020820190508181036000830152614abd81614a81565b9050919050565b7f455243313135353a204552433131353552656365697665722072656a6563746560008201527f6420746f6b656e73000000000000000000000000000000000000000000000000602082015250565b6000614b20602883612f08565b9150614b2b82614ac4565b604082019050919050565b60006020820190508181036000830152614b4f81614b13565b9050919050565b60008160601b9050919050565b6000614b6e82614b56565b9050919050565b6000614b8082614b63565b9050919050565b614b98614b9382612d37565b614b75565b82525050565b600081905092915050565b614bb281612d75565b82525050565b6000614bc48383614ba9565b60208301905092915050565b6000614bdb826134f4565b614be58185614b9e565b9350614bf083613510565b8060005b83811015614c21578151614c088882614bb8565b9750614c1383613547565b925050600181019050614bf4565b5085935050505092915050565b6000614c3a8285614b87565b601482019150614c4a8284614bd0565b91508190509392505050565b6000604082019050614c6b6000830185612deb565b614c786020830184612deb565b9392505050565b600060a082019050614c946000830188613025565b614ca16020830187613025565b614cae6040830186612deb565b614cbb6060830185612deb565b8181036080830152614ccd8184614890565b90509695505050505050565b7f455243313135354d696e744275726e2362617463684d696e743a20494e56414c60008201527f49445f4152524159535f4c454e47544800000000000000000000000000000000602082015250565b6000614d35603083612f08565b9150614d4082614cd9565b604082019050919050565b60006020820190508181036000830152614d6481614d28565b9050919050565b7f19457468657265756d205369676e6564204d6573736167653a0a333200000000600082015250565b6000614da1601c83613a3d565b9150614dac82614d6b565b601c82019050919050565b6000819050919050565b614dd2614dcd82613840565b614db7565b82525050565b6000614de382614d94565b9150614def8284614dc1565b60208201915081905092915050565b6000608082019050614e13600083018761384a565b614e20602083018661338f565b614e2d604083018561384a565b614e3a606083018461384a565b95945050505050565b6000614e4e82613382565b915060ff8203614e6157614e60613c09565b5b600182019050919050565b7f696e76616c6964207369676e6174757265206c656e6774680000000000000000600082015250565b6000614ea2601883612f08565b9150614ead82614e6c565b602082019050919050565b60006020820190508181036000830152614ed181614e95565b905091905056fea2646970667358221220d8bd3d8e6796fb2d365207669ee83965f30637297c9c2a16b4fde4d7b546186564736f6c634300080d0033",
  "linkReferences": {},
  "deployedLinkReferences": {}
}