{
  "_format": "hh-sol-artifact-1",
  "contractName": "Materia",
  "sourceName": "contracts/Materia.sol",
  "abi": [
    {
      "inputs": [
        {
          "internalType": "string",
          "name": "_name",
          "type": "string"
        },
        {
          "internalType": "string",
          "name": "_symbol",
          "type": "string"
        },
        {
          "internalType": "string",
          "name": "_metadataURI",
          "type": "string"
        },
        {
          "internalType": "uint64",
          "name": "start",
          "type": "uint64"
        },
        {
          "internalType": "uint64",
          "name": "end",
          "type": "uint64"
        },
        {
          "internalType": "bytes32",
          "name": "merkleRoot",
          "type": "bytes32"
        },
        {
          "internalType": "address",
          "name": "signer",
          "type": "address"
        },
        {
          "internalType": "address",
          "name": "antonym",
          "type": "address"
        }
      ],
      "stateMutability": "nonpayable",
      "type": "constructor"
    },
    {
      "anonymous": false,
      "inputs": [
        {
          "indexed": true,
          "internalType": "address",
          "name": "_owner",
          "type": "address"
        },
        {
          "indexed": true,
          "internalType": "address",
          "name": "_operator",
          "type": "address"
        },
        {
          "indexed": false,
          "internalType": "bool",
          "name": "_approved",
          "type": "bool"
        }
      ],
      "name": "ApprovalForAll",
      "type": "event"
    },
    {
      "anonymous": false,
      "inputs": [
        {
          "indexed": true,
          "internalType": "address",
          "name": "previousOwner",
          "type": "address"
        },
        {
          "indexed": true,
          "internalType": "address",
          "name": "newOwner",
          "type": "address"
        }
      ],
      "name": "OwnershipTransferred",
      "type": "event"
    },
    {
      "anonymous": false,
      "inputs": [
        {
          "indexed": true,
          "internalType": "address",
          "name": "_operator",
          "type": "address"
        },
        {
          "indexed": true,
          "internalType": "address",
          "name": "_from",
          "type": "address"
        },
        {
          "indexed": true,
          "internalType": "address",
          "name": "_to",
          "type": "address"
        },
        {
          "indexed": false,
          "internalType": "uint256[]",
          "name": "_ids",
          "type": "uint256[]"
        },
        {
          "indexed": false,
          "internalType": "uint256[]",
          "name": "_amounts",
          "type": "uint256[]"
        }
      ],
      "name": "TransferBatch",
      "type": "event"
    },
    {
      "anonymous": false,
      "inputs": [
        {
          "indexed": true,
          "internalType": "address",
          "name": "_operator",
          "type": "address"
        },
        {
          "indexed": true,
          "internalType": "address",
          "name": "_from",
          "type": "address"
        },
        {
          "indexed": true,
          "internalType": "address",
          "name": "_to",
          "type": "address"
        },
        {
          "indexed": false,
          "internalType": "uint256",
          "name": "_id",
          "type": "uint256"
        },
        {
          "indexed": false,
          "internalType": "uint256",
          "name": "_amount",
          "type": "uint256"
        }
      ],
      "name": "TransferSingle",
      "type": "event"
    },
    {
      "anonymous": false,
      "inputs": [
        {
          "indexed": false,
          "internalType": "string",
          "name": "_uri",
          "type": "string"
        },
        {
          "indexed": true,
          "internalType": "uint256",
          "name": "_id",
          "type": "uint256"
        }
      ],
      "name": "URI",
      "type": "event"
    },
    {
      "inputs": [
        {
          "internalType": "bool",
          "name": "allow",
          "type": "bool"
        }
      ],
      "name": "allowMinting",
      "outputs": [],
      "stateMutability": "nonpayable",
      "type": "function"
    },
    {
      "inputs": [
        {
          "internalType": "address",
          "name": "_owner",
          "type": "address"
        },
        {
          "internalType": "uint256",
          "name": "_id",
          "type": "uint256"
        }
      ],
      "name": "balanceOf",
      "outputs": [
        {
          "internalType": "uint256",
          "name": "",
          "type": "uint256"
        }
      ],
      "stateMutability": "view",
      "type": "function"
    },
    {
      "inputs": [
        {
          "internalType": "address[]",
          "name": "_owners",
          "type": "address[]"
        },
        {
          "internalType": "uint256[]",
          "name": "_ids",
          "type": "uint256[]"
        }
      ],
      "name": "balanceOfBatch",
      "outputs": [
        {
          "internalType": "uint256[]",
          "name": "",
          "type": "uint256[]"
        }
      ],
      "stateMutability": "view",
      "type": "function"
    },
    {
      "inputs": [],
      "name": "getNextTokenID",
      "outputs": [
        {
          "internalType": "uint8",
          "name": "",
          "type": "uint8"
        }
      ],
      "stateMutability": "view",
      "type": "function"
    },
    {
      "inputs": [
        {
          "internalType": "uint256",
          "name": "",
          "type": "uint256"
        }
      ],
      "name": "isAntonym1of1TokenUsed",
      "outputs": [
        {
          "internalType": "uint256",
          "name": "",
          "type": "uint256"
        }
      ],
      "stateMutability": "view",
      "type": "function"
    },
    {
      "inputs": [
        {
          "internalType": "uint256",
          "name": "",
          "type": "uint256"
        }
      ],
      "name": "isAntonymTokenUsed",
      "outputs": [
        {
          "internalType": "uint256",
          "name": "",
          "type": "uint256"
        }
      ],
      "stateMutability": "view",
      "type": "function"
    },
    {
      "inputs": [
        {
          "internalType": "address",
          "name": "_owner",
          "type": "address"
        },
        {
          "internalType": "address",
          "name": "_operator",
          "type": "address"
        }
      ],
      "name": "isApprovedForAll",
      "outputs": [
        {
          "internalType": "bool",
          "name": "isOperator",
          "type": "bool"
        }
      ],
      "stateMutability": "view",
      "type": "function"
    },
    {
      "inputs": [
        {
          "internalType": "address",
          "name": "account",
          "type": "address"
        },
        {
          "internalType": "uint256",
          "name": "tokenId",
          "type": "uint256"
        }
      ],
      "name": "messageHash",
      "outputs": [
        {
          "internalType": "bytes32",
          "name": "",
          "type": "bytes32"
        }
      ],
      "stateMutability": "pure",
      "type": "function"
    },
    {
      "inputs": [
        {
          "internalType": "address",
          "name": "to",
          "type": "address"
        },
        {
          "internalType": "uint256",
          "name": "amountMateria",
          "type": "uint256"
        },
        {
          "internalType": "uint256",
          "name": "amountPrimaMateria",
          "type": "uint256"
        }
      ],
      "name": "mintBatchMateria",
      "outputs": [],
      "stateMutability": "nonpayable",
      "type": "function"
    },
    {
      "inputs": [
        {
          "internalType": "uint256",
          "name": "antonymTokenId",
          "type": "uint256"
        },
        {
          "internalType": "bytes",
          "name": "signature",
          "type": "bytes"
        }
      ],
      "name": "mintMateria",
      "outputs": [],
      "stateMutability": "nonpayable",
      "type": "function"
    },
    {
      "inputs": [
        {
          "internalType": "uint256",
          "name": "antonymTokenId",
          "type": "uint256"
        },
        {
          "internalType": "bytes",
          "name": "signature",
          "type": "bytes"
        },
        {
          "internalType": "bytes32[]",
          "name": "proof",
          "type": "bytes32[]"
        }
      ],
      "name": "mintPrimaMateria",
      "outputs": [],
      "stateMutability": "nonpayable",
      "type": "function"
    },
    {
      "inputs": [],
      "name": "name",
      "outputs": [
        {
          "internalType": "string",
          "name": "",
          "type": "string"
        }
      ],
      "stateMutability": "view",
      "type": "function"
    },
    {
      "inputs": [],
      "name": "owner",
      "outputs": [
        {
          "internalType": "address",
          "name": "",
          "type": "address"
        }
      ],
      "stateMutability": "view",
      "type": "function"
    },
    {
      "inputs": [],
      "name": "renounceOwnership",
      "outputs": [],
      "stateMutability": "nonpayable",
      "type": "function"
    },
    {
      "inputs": [
        {
          "internalType": "address",
          "name": "_from",
          "type": "address"
        },
        {
          "internalType": "address",
          "name": "_to",
          "type": "address"
        },
        {
          "internalType": "uint256[]",
          "name": "_ids",
          "type": "uint256[]"
        },
        {
          "internalType": "uint256[]",
          "name": "_amounts",
          "type": "uint256[]"
        },
        {
          "internalType": "bytes",
          "name": "_data",
          "type": "bytes"
        }
      ],
      "name": "safeBatchTransferFrom",
      "outputs": [],
      "stateMutability": "nonpayable",
      "type": "function"
    },
    {
      "inputs": [
        {
          "internalType": "address",
          "name": "_from",
          "type": "address"
        },
        {
          "internalType": "address",
          "name": "_to",
          "type": "address"
        },
        {
          "internalType": "uint256",
          "name": "_id",
          "type": "uint256"
        },
        {
          "internalType": "uint256",
          "name": "_amount",
          "type": "uint256"
        },
        {
          "internalType": "bytes",
          "name": "_data",
          "type": "bytes"
        }
      ],
      "name": "safeTransferFrom",
      "outputs": [],
      "stateMutability": "nonpayable",
      "type": "function"
    },
    {
      "inputs": [
        {
          "internalType": "address",
          "name": "_operator",
          "type": "address"
        },
        {
          "internalType": "bool",
          "name": "_approved",
          "type": "bool"
        }
      ],
      "name": "setApprovalForAll",
      "outputs": [],
      "stateMutability": "nonpayable",
      "type": "function"
    },
    {
      "inputs": [
        {
          "internalType": "string",
          "name": "_newBaseMetadataURI",
          "type": "string"
        }
      ],
      "name": "setBaseMetadataURI",
      "outputs": [],
      "stateMutability": "nonpayable",
      "type": "function"
    },
    {
      "inputs": [
        {
          "internalType": "uint64",
          "name": "end",
          "type": "uint64"
        }
      ],
      "name": "setDeadline",
      "outputs": [],
      "stateMutability": "nonpayable",
      "type": "function"
    },
    {
      "inputs": [
        {
          "internalType": "address",
          "name": "signer",
          "type": "address"
        }
      ],
      "name": "setSigner",
      "outputs": [],
      "stateMutability": "nonpayable",
      "type": "function"
    },
    {
      "inputs": [
        {
          "internalType": "bytes4",
          "name": "_interfaceID",
          "type": "bytes4"
        }
      ],
      "name": "supportsInterface",
      "outputs": [
        {
          "internalType": "bool",
          "name": "",
          "type": "bool"
        }
      ],
      "stateMutability": "view",
      "type": "function"
    },
    {
      "inputs": [],
      "name": "symbol",
      "outputs": [
        {
          "internalType": "string",
          "name": "",
          "type": "string"
        }
      ],
      "stateMutability": "view",
      "type": "function"
    },
    {
      "inputs": [
        {
          "internalType": "uint8",
          "name": "",
          "type": "uint8"
        }
      ],
      "name": "tokenSupply",
      "outputs": [
        {
          "internalType": "uint16",
          "name": "",
          "type": "uint16"
        }
      ],
      "stateMutability": "view",
      "type": "function"
    },
    {
      "inputs": [
        {
          "internalType": "uint8",
          "name": "_id",
          "type": "uint8"
        }
      ],
      "name": "totalSupply",
      "outputs": [
        {
          "internalType": "uint16",
          "name": "",
          "type": "uint16"
        }
      ],
      "stateMutability": "view",
      "type": "function"
    },
    {
      "inputs": [
        {
          "internalType": "address",
          "name": "newOwner",
          "type": "address"
        }
      ],
      "name": "transferOwnership",
      "outputs": [],
      "stateMutability": "nonpayable",
      "type": "function"
    },
    {
      "inputs": [
        {
          "internalType": "uint256",
          "name": "_id",
          "type": "uint256"
        }
      ],
      "name": "uri",
      "outputs": [
        {
          "internalType": "string",
          "name": "",
          "type": "string"
        }
      ],
      "stateMutability": "view",
      "type": "function"
    },
    {
      "inputs": [
        {
          "internalType": "uint8",
          "name": "_id",
          "type": "uint8"
        }
      ],
      "name": "uri",
      "outputs": [
        {
          "internalType": "string",
          "name": "",
          "type": "string"
        }
      ],
      "stateMutability": "view",
      "type": "function"
    }
  ],
  "bytecode": "0x60806040526001600760106101000a81548160ff0219169083151502179055503480156200002c57600080fd5b506040516200600438038062006004833981810160405281019062000052919062000792565b87878762000075620000696200037660201b60201c565b6200037e60201b60201c565b82600590805190602001906200008d92919062000460565b508160069080519060200190620000a692919062000460565b50620000b8816200044460201b60201c565b505050428567ffffffffffffffff16116200010a576040517f08c379a0000000000000000000000000000000000000000000000000000000008152600401620001019062000919565b60405180910390fd5b8467ffffffffffffffff168467ffffffffffffffff161162000163576040517f08c379a00000000000000000000000000000000000000000000000000000000081526004016200015a906200098b565b60405180910390fd5b600073ffffffffffffffffffffffffffffffffffffffff168273ffffffffffffffffffffffffffffffffffffffff1603620001d5576040517f08c379a0000000000000000000000000000000000000000000000000000000008152600401620001cc90620009fd565b60405180910390fd5b600083036200021b576040517f08c379a0000000000000000000000000000000000000000000000000000000008152600401620002129062000a6f565b60405180910390fd5b600073ffffffffffffffffffffffffffffffffffffffff168173ffffffffffffffffffffffffffffffffffffffff16036200028d576040517f08c379a0000000000000000000000000000000000000000000000000000000008152600401620002849062000ae1565b60405180910390fd5b84600760006101000a81548167ffffffffffffffff021916908367ffffffffffffffff16021790555083600760086101000a81548167ffffffffffffffff021916908367ffffffffffffffff16021790555081600860006101000a81548173ffffffffffffffffffffffffffffffffffffffff021916908373ffffffffffffffffffffffffffffffffffffffff16021790555082600a8190555080600960006101000a81548173ffffffffffffffffffffffffffffffffffffffff021916908373ffffffffffffffffffffffffffffffffffffffff160217905550505050505050505062000b67565b600033905090565b6000600360009054906101000a900473ffffffffffffffffffffffffffffffffffffffff16905081600360006101000a81548173ffffffffffffffffffffffffffffffffffffffff021916908373ffffffffffffffffffffffffffffffffffffffff1602179055508173ffffffffffffffffffffffffffffffffffffffff168173ffffffffffffffffffffffffffffffffffffffff167f8be0079c531659141344cd1fd0a4f28419497f9722a3daafe3b4186f6b6457e060405160405180910390a35050565b80600290805190602001906200045c92919062000460565b5050565b8280546200046e9062000b32565b90600052602060002090601f016020900481019282620004925760008555620004de565b82601f10620004ad57805160ff1916838001178555620004de565b82800160010185558215620004de579182015b82811115620004dd578251825591602001919060010190620004c0565b5b509050620004ed9190620004f1565b5090565b5b808211156200050c576000816000905550600101620004f2565b5090565b6000604051905090565b600080fd5b600080fd5b600080fd5b600080fd5b6000601f19601f8301169050919050565b7f4e487b7100000000000000000000000000000000000000000000000000000000600052604160045260246000fd5b62000579826200052e565b810181811067ffffffffffffffff821117156200059b576200059a6200053f565b5b80604052505050565b6000620005b062000510565b9050620005be82826200056e565b919050565b600067ffffffffffffffff821115620005e157620005e06200053f565b5b620005ec826200052e565b9050602081019050919050565b60005b8381101562000619578082015181840152602081019050620005fc565b8381111562000629576000848401525b50505050565b6000620006466200064084620005c3565b620005a4565b90508281526020810184848401111562000665576200066462000529565b5b62000672848285620005f9565b509392505050565b600082601f83011262000692576200069162000524565b5b8151620006a48482602086016200062f565b91505092915050565b600067ffffffffffffffff82169050919050565b620006cc81620006ad565b8114620006d857600080fd5b50565b600081519050620006ec81620006c1565b92915050565b6000819050919050565b6200070781620006f2565b81146200071357600080fd5b50565b6000815190506200072781620006fc565b92915050565b600073ffffffffffffffffffffffffffffffffffffffff82169050919050565b60006200075a826200072d565b9050919050565b6200076c816200074d565b81146200077857600080fd5b50565b6000815190506200078c8162000761565b92915050565b600080600080600080600080610100898b031215620007b657620007b56200051a565b5b600089015167ffffffffffffffff811115620007d757620007d66200051f565b5b620007e58b828c016200067a565b985050602089015167ffffffffffffffff8111156200080957620008086200051f565b5b620008178b828c016200067a565b975050604089015167ffffffffffffffff8111156200083b576200083a6200051f565b5b620008498b828c016200067a565b96505060606200085c8b828c01620006db565b95505060806200086f8b828c01620006db565b94505060a0620008828b828c0162000716565b93505060c0620008958b828c016200077b565b92505060e0620008a88b828c016200077b565b9150509295985092959890939650565b600082825260208201905092915050565b7f53746172742063616e6e6f7420626520696e2074686520706173740000000000600082015250565b600062000901601b83620008b8565b91506200090e82620008c9565b602082019050919050565b600060208201905081810360008301526200093481620008f2565b9050919050565b7f57726f6e6720656e6420646561646c696e650000000000000000000000000000600082015250565b600062000973601283620008b8565b915062000980826200093b565b602082019050919050565b60006020820190508181036000830152620009a68162000964565b9050919050565b7f57726f6e67207369676e65720000000000000000000000000000000000000000600082015250565b6000620009e5600c83620008b8565b9150620009f282620009ad565b602082019050919050565b6000602082019050818103600083015262000a1881620009d6565b9050919050565b7f57726f6e67204d65726b6c65526f6f7400000000000000000000000000000000600082015250565b600062000a57601083620008b8565b915062000a648262000a1f565b602082019050919050565b6000602082019050818103600083015262000a8a8162000a48565b9050919050565b7f57726f6e67204e46540000000000000000000000000000000000000000000000600082015250565b600062000ac9600983620008b8565b915062000ad68262000a91565b602082019050919050565b6000602082019050818103600083015262000afc8162000aba565b9050919050565b7f4e487b7100000000000000000000000000000000000000000000000000000000600052602260045260246000fd5b6000600282049050600182168062000b4b57607f821691505b60208210810362000b615762000b6062000b03565b5b50919050565b61548d8062000b776000396000f3fe608060405234801561001057600080fd5b50600436106101a85760003560e01c8063715018a6116100f9578063d9aceeb711610097578063e985e9c511610071578063e985e9c5146104db578063f242432a1461050b578063f2fde38b14610527578063f7ade49114610543576101a8565b8063d9aceeb71461044b578063e11208d61461047b578063e643b2f9146104ab576101a8565b80638da5cb5b116100d35780638da5cb5b146103d757806395d89b41146103f5578063a22cb46514610413578063aebc04831461042f576101a8565b8063715018a61461039557806379e91fa81461039f5780637e518ec8146103bb576101a8565b80633e0981d7116101665780634bc85491116101405780634bc85491146102fd5780634e1273f41461032d578063697b0ad41461035d5780636c19e78314610379576101a8565b80633e0981d714610293578063496d9f44146102af5780634a198119146102df576101a8565b8062fdd58e146101ad57806301ffc9a7146101dd57806306fdde031461020d5780630e89341c1461022b5780632c5a8e861461025b5780632eb2c2d614610277575b600080fd5b6101c760048036038101906101c2919061329c565b610573565b6040516101d491906132eb565b60405180910390f35b6101f760048036038101906101f2919061335e565b6105cd565b60405161020491906133a6565b60405180910390f35b61021561064e565b604051610222919061345a565b60405180910390f35b6102456004803603810190610240919061347c565b6106dc565b604051610252919061345a565b60405180910390f35b610275600480360381019061027091906134d5565b610710565b005b610291600480360381019061028c91906136ff565b610735565b005b6102ad60048036038101906102a89190613829565b610844565b005b6102c960048036038101906102c491906138f2565b610cd2565b6040516102d6919061393c565b60405180910390f35b6102e7610d03565b6040516102f49190613966565b60405180910390f35b6103176004803603810190610312919061329c565b610d26565b604051610324919061399a565b60405180910390f35b61034760048036038101906103429190613a78565b610daa565b6040516103549190613bae565b60405180910390f35b61037760048036038101906103729190613bd0565b610f0b565b005b610393600480360381019061038e9190613c23565b6111e8565b005b61039d6112a3565b005b6103b960048036038101906103b49190613c50565b6112b7565b005b6103d560048036038101906103d09190613d4d565b611643565b005b6103df611657565b6040516103ec9190613da5565b60405180910390f35b6103fd611681565b60405161040a919061345a565b60405180910390f35b61042d60048036038101906104289190613dc0565b61170f565b005b61044960048036038101906104449190613e40565b61180c565b005b6104656004803603810190610460919061347c565b6118c1565b60405161047291906132eb565b60405180910390f35b610495600480360381019061049091906138f2565b6118d9565b6040516104a2919061345a565b60405180910390f35b6104c560048036038101906104c0919061347c565b611984565b6040516104d291906132eb565b60405180910390f35b6104f560048036038101906104f09190613e6d565b61199c565b60405161050291906133a6565b60405180910390f35b61052560048036038101906105209190613ead565b611a30565b005b610541600480360381019061053c9190613c23565b611b3f565b005b61055d600480360381019061055891906138f2565b611bc2565b60405161056a919061393c565b60405180910390f35b60008060008473ffffffffffffffffffffffffffffffffffffffff1673ffffffffffffffffffffffffffffffffffffffff168152602001908152602001600020600083815260200190815260200160002054905092915050565b60007fd9b67a26000000000000000000000000000000000000000000000000000000007bffffffffffffffffffffffffffffffffffffffffffffffffffffffff1916827bffffffffffffffffffffffffffffffffffffffffffffffffffffffff19160361063d5760019050610649565b61064682611be3565b90505b919050565b6005805461065b90613f73565b80601f016020809104026020016040519081016040528092919081815260200182805461068790613f73565b80156106d45780601f106106a9576101008083540402835291602001916106d4565b820191906000526020600020905b8154815290600101906020018083116106b757829003601f168201915b505050505081565b606060026106e983611c64565b6040516020016106fa9291906140c0565b6040516020818303038152906040529050919050565b610718611dd9565b80600760106101000a81548160ff02191690831515021790555050565b8473ffffffffffffffffffffffffffffffffffffffff163373ffffffffffffffffffffffffffffffffffffffff1614806107755750610774853361199c565b5b6107b4576040517f08c379a00000000000000000000000000000000000000000000000000000000081526004016107ab90614161565b60405180910390fd5b600073ffffffffffffffffffffffffffffffffffffffff168473ffffffffffffffffffffffffffffffffffffffff1603610823576040517f08c379a000000000000000000000000000000000000000000000000000000000815260040161081a906141f3565b60405180910390fd5b61082f85858585611e57565b61083d858585855a8661214b565b5050505050565b600760109054906101000a900460ff16610893576040517f08c379a000000000000000000000000000000000000000000000000000000000815260040161088a9061425f565b60405180910390fd5b42600760009054906101000a900467ffffffffffffffff1667ffffffffffffffff1611156108f6576040517f08c379a00000000000000000000000000000000000000000000000000000000081526004016108ed906142cb565b60405180910390fd5b42600760089054906101000a900467ffffffffffffffff1667ffffffffffffffff1611610958576040517f08c379a000000000000000000000000000000000000000000000000000000000815260040161094f90614337565b60405180910390fd5b6005600160046000600260ff16815260200190815260200160002060009054906101000a900461ffff1661098c9190614386565b61ffff1611156109d1576040517f08c379a00000000000000000000000000000000000000000000000000000000081526004016109c89061440a565b60405180910390fd5b6000600c60008681526020019081526020016000205414610a27576040517f08c379a0000000000000000000000000000000000000000000000000000000008152600401610a1e90614476565b60405180910390fd5b6000610a31612322565b90508073ffffffffffffffffffffffffffffffffffffffff16600960009054906101000a900473ffffffffffffffffffffffffffffffffffffffff1673ffffffffffffffffffffffffffffffffffffffff16636352211e876040518263ffffffff1660e01b8152600401610aa591906132eb565b602060405180830381865afa158015610ac2573d6000803e3d6000fd5b505050506040513d601f19601f82011682018060405250810190610ae691906144ab565b73ffffffffffffffffffffffffffffffffffffffff1614610b3c576040517f08c379a0000000000000000000000000000000000000000000000000000000008152600401610b3390614524565b60405180910390fd5b610b4781868661232a565b610b86576040517f08c379a0000000000000000000000000000000000000000000000000000000008152600401610b7d90614590565b60405180910390fd5b610b9060016123d5565b610bcf576040517f08c379a0000000000000000000000000000000000000000000000000000000008152600401610bc690614622565b60405180910390fd5b600085604051602001610be29190614663565b604051602081830303815290604052805190602001209050610c4581858580806020026020016040519081016040528093929190818152602001838360200280828437600081840152601f19601f8201169050808301925050505050505061240c565b610c84576040517f08c379a0000000000000000000000000000000000000000000000000000000008152600401610c7b906146ca565b60405180910390fd5b6001600c600088815260200190815260200160002081905550610ca760026123d5565b610cbc57610cb6826001612423565b50610cca565b610cc98260026001612498565b5b505050505050565b6000600460008360ff1660ff16815260200190815260200160002060009054906101000a900461ffff169050919050565b60006001600360149054906101000a900460ff16610d2191906146ea565b905090565b600073__$02e186eabd1b45946603c47d7b4fe74301$__63512c91df84846040518363ffffffff1660e01b8152600401610d6192919061473f565b602060405180830381865af4158015610d7e573d6000803e3d6000fd5b505050506040513d601f19601f82011682018060405250810190610da29190614794565b905092915050565b60608151835114610df0576040517f08c379a0000000000000000000000000000000000000000000000000000000008152600401610de790614833565b60405180910390fd5b6000835167ffffffffffffffff811115610e0d57610e0c613507565b5b604051908082528060200260200182016040528015610e3b5781602001602082028036833780820191505090505b50905060005b8451811015610f0057600080868381518110610e6057610e5f614853565b5b602002602001015173ffffffffffffffffffffffffffffffffffffffff1673ffffffffffffffffffffffffffffffffffffffff1681526020019081526020016000206000858381518110610eb757610eb6614853565b5b6020026020010151815260200190815260200160002054828281518110610ee157610ee0614853565b5b6020026020010181815250508080610ef890614882565b915050610e41565b508091505092915050565b610f13611dd9565b600760109054906101000a900460ff16610f62576040517f08c379a0000000000000000000000000000000000000000000000000000000008152600401610f599061425f565b60405180910390fd5b42600760089054906101000a900467ffffffffffffffff1667ffffffffffffffff1610610fc4576040517f08c379a0000000000000000000000000000000000000000000000000000000008152600401610fbb90614916565b60405180910390fd5b60648260046000600160ff16815260200190815260200160002060009054906101000a900461ffff1661ffff16610ffb9190614936565b111561103c576040517f08c379a0000000000000000000000000000000000000000000000000000000008152600401611033906149d8565b60405180910390fd5b60058160046000600260ff16815260200190815260200160002060009054906101000a900461ffff1661ffff166110739190614936565b11156110b4576040517f08c379a00000000000000000000000000000000000000000000000000000000081526004016110ab9061440a565b60405180910390fd5b6000600267ffffffffffffffff8111156110d1576110d0613507565b5b6040519080825280602002602001820160405280156110ff5781602001602082028036833780820191505090505b50905060018160008151811061111857611117614853565b5b60200260200101818152505060028160018151811061113a57611139614853565b5b6020026020010181815250506000600267ffffffffffffffff81111561116357611162613507565b5b6040519080825280602002602001820160405280156111915781602001602082028036833780820191505090505b50905083816000815181106111a9576111a8614853565b5b60200260200101818152505082816001815181106111ca576111c9614853565b5b6020026020010181815250506111e185838361250f565b5050505050565b6111f0611dd9565b600073ffffffffffffffffffffffffffffffffffffffff168173ffffffffffffffffffffffffffffffffffffffff160361125f576040517f08c379a000000000000000000000000000000000000000000000000000000000815260040161125690614a44565b60405180910390fd5b80600860006101000a81548173ffffffffffffffffffffffffffffffffffffffff021916908373ffffffffffffffffffffffffffffffffffffffff16021790555050565b6112ab611dd9565b6112b560006125df565b565b600760109054906101000a900460ff16611306576040517f08c379a00000000000000000000000000000000000000000000000000000000081526004016112fd9061425f565b60405180910390fd5b42600760009054906101000a900467ffffffffffffffff1667ffffffffffffffff161115611369576040517f08c379a0000000000000000000000000000000000000000000000000000000008152600401611360906142cb565b60405180910390fd5b42600760089054906101000a900467ffffffffffffffff1667ffffffffffffffff16116113cb576040517f08c379a00000000000000000000000000000000000000000000000000000000081526004016113c290614337565b60405180910390fd5b6064600160046000600160ff16815260200190815260200160002060009054906101000a900461ffff166113ff9190614386565b61ffff161115611444576040517f08c379a000000000000000000000000000000000000000000000000000000000815260040161143b906149d8565b60405180910390fd5b6000600b6000848152602001908152602001600020541461149a576040517f08c379a000000000000000000000000000000000000000000000000000000000815260040161149190614476565b60405180910390fd5b60006114a4612322565b90508073ffffffffffffffffffffffffffffffffffffffff16600960009054906101000a900473ffffffffffffffffffffffffffffffffffffffff1673ffffffffffffffffffffffffffffffffffffffff16636352211e856040518263ffffffff1660e01b815260040161151891906132eb565b602060405180830381865afa158015611535573d6000803e3d6000fd5b505050506040513d601f19601f8201168201806040525081019061155991906144ab565b73ffffffffffffffffffffffffffffffffffffffff16146115af576040517f08c379a00000000000000000000000000000000000000000000000000000000081526004016115a690614524565b60405180910390fd5b6115ba81848461232a565b6115f9576040517f08c379a00000000000000000000000000000000000000000000000000000000081526004016115f090614590565b60405180910390fd5b6001600b60008581526020019081526020016000208190555061161c60016123d5565b6116315761162b816001612423565b5061163e565b61163d81600180612498565b5b505050565b61164b611dd9565b611654816126a5565b50565b6000600360009054906101000a900473ffffffffffffffffffffffffffffffffffffffff16905090565b6006805461168e90613f73565b80601f01602080910402602001604051908101604052809291908181526020018280546116ba90613f73565b80156117075780601f106116dc57610100808354040283529160200191611707565b820191906000526020600020905b8154815290600101906020018083116116ea57829003601f168201915b505050505081565b80600160003373ffffffffffffffffffffffffffffffffffffffff1673ffffffffffffffffffffffffffffffffffffffff16815260200190815260200160002060008473ffffffffffffffffffffffffffffffffffffffff1673ffffffffffffffffffffffffffffffffffffffff16815260200190815260200160002060006101000a81548160ff0219169083151502179055508173ffffffffffffffffffffffffffffffffffffffff163373ffffffffffffffffffffffffffffffffffffffff167f17307eab39ab6107e8899845ad3d59bd9653f200f220920489ca2b5937696c318360405161180091906133a6565b60405180910390a35050565b611814611dd9565b600760009054906101000a900467ffffffffffffffff1667ffffffffffffffff168167ffffffffffffffff161180156118565750428167ffffffffffffffff16115b611895576040517f08c379a000000000000000000000000000000000000000000000000000000000815260040161188c90614ab0565b60405180910390fd5b80600760086101000a81548167ffffffffffffffff021916908367ffffffffffffffff16021790555050565b600b6020528060005260406000206000915090505481565b60606118e4826123d5565b611923576040517f08c379a000000000000000000000000000000000000000000000000000000000815260040161191a90614b42565b60405180910390fd5b60006002805461193290613f73565b90501161194e576040518060200160405280600081525061197d565b600261195c8360ff166126bf565b60405160200161196d929190614b62565b6040516020818303038152906040525b9050919050565b600c6020528060005260406000206000915090505481565b6000600160008473ffffffffffffffffffffffffffffffffffffffff1673ffffffffffffffffffffffffffffffffffffffff16815260200190815260200160002060008373ffffffffffffffffffffffffffffffffffffffff1673ffffffffffffffffffffffffffffffffffffffff16815260200190815260200160002060009054906101000a900460ff16905092915050565b8473ffffffffffffffffffffffffffffffffffffffff163373ffffffffffffffffffffffffffffffffffffffff161480611a705750611a6f853361199c565b5b611aaf576040517f08c379a0000000000000000000000000000000000000000000000000000000008152600401611aa690614bf8565b60405180910390fd5b600073ffffffffffffffffffffffffffffffffffffffff168473ffffffffffffffffffffffffffffffffffffffff1603611b1e576040517f08c379a0000000000000000000000000000000000000000000000000000000008152600401611b1590614c8a565b60405180910390fd5b611b2a8585858561281f565b611b38858585855a86612a0d565b5050505050565b611b47611dd9565b600073ffffffffffffffffffffffffffffffffffffffff168173ffffffffffffffffffffffffffffffffffffffff1603611bb6576040517f08c379a0000000000000000000000000000000000000000000000000000000008152600401611bad90614d1c565b60405180910390fd5b611bbf816125df565b50565b60046020528060005260406000206000915054906101000a900461ffff1681565b60007f0e89341c000000000000000000000000000000000000000000000000000000007bffffffffffffffffffffffffffffffffffffffffffffffffffffffff1916827bffffffffffffffffffffffffffffffffffffffffffffffffffffffff191603611c535760019050611c5f565b611c5c82612be4565b90505b919050565b606060008203611cab576040518060400160405280600181526020017f30000000000000000000000000000000000000000000000000000000000000008152509050611dd4565b6000829050600083905060005b60008314611ce2578080611ccb90614882565b915050600a83611cdb9190614d6b565b9250611cb8565b60008167ffffffffffffffff811115611cfe57611cfd613507565b5b6040519080825280601f01601f191660200182016040528015611d305781602001600182028036833780820191505090505b5090506000600183611d429190614d9c565b90505b60008414611dcb57600a84611d5a9190614dd0565b6030611d669190614936565b60f81b828280611d7590614e01565b935081518110611d8857611d87614853565b5b60200101907effffffffffffffffffffffffffffffffffffffffffffffffffffffffffffff1916908160001a905350600a84611dc49190614d6b565b9350611d45565b81955050505050505b919050565b611de1612322565b73ffffffffffffffffffffffffffffffffffffffff16611dff611657565b73ffffffffffffffffffffffffffffffffffffffff1614611e55576040517f08c379a0000000000000000000000000000000000000000000000000000000008152600401611e4c90614e76565b60405180910390fd5b565b8051825114611e9b576040517f08c379a0000000000000000000000000000000000000000000000000000000008152600401611e9290614f08565b60405180910390fd5b60008251905060005b818110156120c557611f42838281518110611ec257611ec1614853565b5b60200260200101516000808973ffffffffffffffffffffffffffffffffffffffff1673ffffffffffffffffffffffffffffffffffffffff1681526020019081526020016000206000878581518110611f1d57611f1c614853565b5b6020026020010151815260200190815260200160002054612c6590919063ffffffff16565b6000808873ffffffffffffffffffffffffffffffffffffffff1673ffffffffffffffffffffffffffffffffffffffff1681526020019081526020016000206000868481518110611f9557611f94614853565b5b6020026020010151815260200190815260200160002081905550612045838281518110611fc557611fc4614853565b5b60200260200101516000808873ffffffffffffffffffffffffffffffffffffffff1673ffffffffffffffffffffffffffffffffffffffff16815260200190815260200160002060008785815181106120205761201f614853565b5b6020026020010151815260200190815260200160002054612c7b90919063ffffffff16565b6000808773ffffffffffffffffffffffffffffffffffffffff1673ffffffffffffffffffffffffffffffffffffffff168152602001908152602001600020600086848151811061209857612097614853565b5b602002602001015181526020019081526020016000208190555080806120bd90614882565b915050611ea4565b508373ffffffffffffffffffffffffffffffffffffffff168573ffffffffffffffffffffffffffffffffffffffff163373ffffffffffffffffffffffffffffffffffffffff167f4a39dc06d4c0dbc64b70af90fd698a233a518aa5d07e595d983b8c0526c8f7fb868660405161213c929190614f28565b60405180910390a45050505050565b61216a8573ffffffffffffffffffffffffffffffffffffffff16612c91565b1561231a578473ffffffffffffffffffffffffffffffffffffffff1663bc197c8133888787866040518663ffffffff1660e01b81526004016121b0959493929190614fb4565b6020604051808303816000875af19250505080156121ec57506040513d601f19601f820116820180604052508101906121e99190615031565b60015b612291576121f861506b565b806308c379a003612254575061220c61508d565b806122175750612256565b806040517f08c379a000000000000000000000000000000000000000000000000000000000815260040161224b919061345a565b60405180910390fd5b505b6040517f08c379a00000000000000000000000000000000000000000000000000000000081526004016122889061518f565b60405180910390fd5b63bc197c8160e01b7bffffffffffffffffffffffffffffffffffffffffffffffffffffffff1916817bffffffffffffffffffffffffffffffffffffffffffffffffffffffff191614612318576040517f08c379a000000000000000000000000000000000000000000000000000000000815260040161230f90615221565b60405180910390fd5b505b505050505050565b600033905090565b600073__$02e186eabd1b45946603c47d7b4fe74301$__6393e9f8fc600860009054906101000a900473ffffffffffffffffffffffffffffffffffffffff168686866040518563ffffffff1660e01b815260040161238b949392919061528b565b602060405180830381865af41580156123a8573d6000803e3d6000fd5b505050506040513d601f19601f820116820180604052508101906123cc91906152ec565b90509392505050565b600080600460008460ff1660ff16815260200190815260200160002060009054906101000a900461ffff1661ffff16119050919050565b600061241b82600a5485612cb4565b905092915050565b60008061242e610d03565b9050612438612ccb565b61245a848260ff168561ffff1660405180602001604052806000815250612d05565b82600460008360ff1660ff16815260200190815260200160002060006101000a81548161ffff021916908361ffff1602179055508091505092915050565b6124ba838360ff168361ffff1660405180602001604052806000815250612d05565b80600460008460ff1660ff16815260200190815260200160002060008282829054906101000a900461ffff166124f09190614386565b92506101000a81548161ffff021916908361ffff160217905550505050565b60005b82518110156125be5760008382815181106125305761252f614853565b5b60200260200101519050600083838151811061254f5761254e614853565b5b6020026020010151905080600460008460ff1660ff16815260200190815260200160002060008282829054906101000a900461ffff1661258f9190614386565b92506101000a81548161ffff021916908361ffff160217905550505080806125b690614882565b915050612512565b506125da83838360405180602001604052806000815250612e4e565b505050565b6000600360009054906101000a900473ffffffffffffffffffffffffffffffffffffffff16905081600360006101000a81548173ffffffffffffffffffffffffffffffffffffffff021916908373ffffffffffffffffffffffffffffffffffffffff1602179055508173ffffffffffffffffffffffffffffffffffffffff168173ffffffffffffffffffffffffffffffffffffffff167f8be0079c531659141344cd1fd0a4f28419497f9722a3daafe3b4186f6b6457e060405160405180910390a35050565b80600290805190602001906126bb929190613151565b5050565b606060008203612706576040518060400160405280600181526020017f3000000000000000000000000000000000000000000000000000000000000000815250905061281a565b600082905060005b6000821461273857808061272190614882565b915050600a826127319190614d6b565b915061270e565b60008167ffffffffffffffff81111561275457612753613507565b5b6040519080825280601f01601f1916602001820160405280156127865781602001600182028036833780820191505090505b5090505b600085146128135760018261279f9190614d9c565b9150600a856127ae9190614dd0565b60306127ba9190614936565b60f81b8183815181106127d0576127cf614853565b5b60200101907effffffffffffffffffffffffffffffffffffffffffffffffffffffffffffff1916908160001a905350600a8561280c9190614d6b565b945061278a565b8093505050505b919050565b612881816000808773ffffffffffffffffffffffffffffffffffffffff1673ffffffffffffffffffffffffffffffffffffffff168152602001908152602001600020600085815260200190815260200160002054612c6590919063ffffffff16565b6000808673ffffffffffffffffffffffffffffffffffffffff1673ffffffffffffffffffffffffffffffffffffffff168152602001908152602001600020600084815260200190815260200160002081905550612936816000808673ffffffffffffffffffffffffffffffffffffffff1673ffffffffffffffffffffffffffffffffffffffff168152602001908152602001600020600085815260200190815260200160002054612c7b90919063ffffffff16565b6000808573ffffffffffffffffffffffffffffffffffffffff1673ffffffffffffffffffffffffffffffffffffffff1681526020019081526020016000206000848152602001908152602001600020819055508273ffffffffffffffffffffffffffffffffffffffff168473ffffffffffffffffffffffffffffffffffffffff163373ffffffffffffffffffffffffffffffffffffffff167fc3d58168c5ae7397731d063d5bbf3d657854427343f4c083240f7aacaa2d0f6285856040516129ff929190615319565b60405180910390a450505050565b612a2c8573ffffffffffffffffffffffffffffffffffffffff16612c91565b15612bdc578473ffffffffffffffffffffffffffffffffffffffff1663f23a6e6133888787866040518663ffffffff1660e01b8152600401612a72959493929190615342565b6020604051808303816000875af1925050508015612aae57506040513d601f19601f82011682018060405250810190612aab9190615031565b60015b612b5357612aba61506b565b806308c379a003612b165750612ace61508d565b80612ad95750612b18565b806040517f08c379a0000000000000000000000000000000000000000000000000000000008152600401612b0d919061345a565b60405180910390fd5b505b6040517f08c379a0000000000000000000000000000000000000000000000000000000008152600401612b4a9061518f565b60405180910390fd5b63f23a6e6160e01b7bffffffffffffffffffffffffffffffffffffffffffffffffffffffff1916817bffffffffffffffffffffffffffffffffffffffffffffffffffffffff191614612bda576040517f08c379a0000000000000000000000000000000000000000000000000000000008152600401612bd190615221565b60405180910390fd5b505b505050505050565b60007fd9b67a26000000000000000000000000000000000000000000000000000000007bffffffffffffffffffffffffffffffffffffffffffffffffffffffff1916827bffffffffffffffffffffffffffffffffffffffffffffffffffffffff191603612c545760019050612c60565b612c5d8261304f565b90505b919050565b60008183612c739190614d9c565b905092915050565b60008183612c899190614936565b905092915050565b6000808273ffffffffffffffffffffffffffffffffffffffff163b119050919050565b600082612cc185846130b9565b1490509392505050565b6003601481819054906101000a900460ff1680929190612cea9061539c565b91906101000a81548160ff021916908360ff16021790555050565b612d67826000808773ffffffffffffffffffffffffffffffffffffffff1673ffffffffffffffffffffffffffffffffffffffff168152602001908152602001600020600086815260200190815260200160002054612c7b90919063ffffffff16565b6000808673ffffffffffffffffffffffffffffffffffffffff1673ffffffffffffffffffffffffffffffffffffffff1681526020019081526020016000206000858152602001908152602001600020819055508373ffffffffffffffffffffffffffffffffffffffff16600073ffffffffffffffffffffffffffffffffffffffff163373ffffffffffffffffffffffffffffffffffffffff167fc3d58168c5ae7397731d063d5bbf3d657854427343f4c083240f7aacaa2d0f628686604051612e31929190615319565b60405180910390a4612e4860008585855a86612a0d565b50505050565b8151835114612e92576040517f08c379a0000000000000000000000000000000000000000000000000000000008152600401612e8990615437565b60405180910390fd5b60008351905060005b81811015612fb957612f39848281518110612eb957612eb8614853565b5b60200260200101516000808973ffffffffffffffffffffffffffffffffffffffff1673ffffffffffffffffffffffffffffffffffffffff1681526020019081526020016000206000888581518110612f1457612f13614853565b5b6020026020010151815260200190815260200160002054612c7b90919063ffffffff16565b6000808873ffffffffffffffffffffffffffffffffffffffff1673ffffffffffffffffffffffffffffffffffffffff1681526020019081526020016000206000878481518110612f8c57612f8b614853565b5b60200260200101518152602001908152602001600020819055508080612fb190614882565b915050612e9b565b508473ffffffffffffffffffffffffffffffffffffffff16600073ffffffffffffffffffffffffffffffffffffffff163373ffffffffffffffffffffffffffffffffffffffff167f4a39dc06d4c0dbc64b70af90fd698a233a518aa5d07e595d983b8c0526c8f7fb8787604051613031929190614f28565b60405180910390a461304860008686865a8761214b565b5050505050565b60007f01ffc9a7000000000000000000000000000000000000000000000000000000007bffffffffffffffffffffffffffffffffffffffffffffffffffffffff1916827bffffffffffffffffffffffffffffffffffffffffffffffffffffffff1916149050919050565b60008082905060005b8451811015613104576130ef828683815181106130e2576130e1614853565b5b602002602001015161310f565b915080806130fc90614882565b9150506130c2565b508091505092915050565b600081831061312757613122828461313a565b613132565b613131838361313a565b5b905092915050565b600082600052816020526040600020905092915050565b82805461315d90613f73565b90600052602060002090601f01602090048101928261317f57600085556131c6565b82601f1061319857805160ff19168380011785556131c6565b828001600101855582156131c6579182015b828111156131c55782518255916020019190600101906131aa565b5b5090506131d391906131d7565b5090565b5b808211156131f05760008160009055506001016131d8565b5090565b6000604051905090565b600080fd5b600080fd5b600073ffffffffffffffffffffffffffffffffffffffff82169050919050565b600061323382613208565b9050919050565b61324381613228565b811461324e57600080fd5b50565b6000813590506132608161323a565b92915050565b6000819050919050565b61327981613266565b811461328457600080fd5b50565b60008135905061329681613270565b92915050565b600080604083850312156132b3576132b26131fe565b5b60006132c185828601613251565b92505060206132d285828601613287565b9150509250929050565b6132e581613266565b82525050565b600060208201905061330060008301846132dc565b92915050565b60007fffffffff0000000000000000000000000000000000000000000000000000000082169050919050565b61333b81613306565b811461334657600080fd5b50565b60008135905061335881613332565b92915050565b600060208284031215613374576133736131fe565b5b600061338284828501613349565b91505092915050565b60008115159050919050565b6133a08161338b565b82525050565b60006020820190506133bb6000830184613397565b92915050565b600081519050919050565b600082825260208201905092915050565b60005b838110156133fb5780820151818401526020810190506133e0565b8381111561340a576000848401525b50505050565b6000601f19601f8301169050919050565b600061342c826133c1565b61343681856133cc565b93506134468185602086016133dd565b61344f81613410565b840191505092915050565b600060208201905081810360008301526134748184613421565b905092915050565b600060208284031215613492576134916131fe565b5b60006134a084828501613287565b91505092915050565b6134b28161338b565b81146134bd57600080fd5b50565b6000813590506134cf816134a9565b92915050565b6000602082840312156134eb576134ea6131fe565b5b60006134f9848285016134c0565b91505092915050565b600080fd5b7f4e487b7100000000000000000000000000000000000000000000000000000000600052604160045260246000fd5b61353f82613410565b810181811067ffffffffffffffff8211171561355e5761355d613507565b5b80604052505050565b60006135716131f4565b905061357d8282613536565b919050565b600067ffffffffffffffff82111561359d5761359c613507565b5b602082029050602081019050919050565b600080fd5b60006135c66135c184613582565b613567565b905080838252602082019050602084028301858111156135e9576135e86135ae565b5b835b8181101561361257806135fe8882613287565b8452602084019350506020810190506135eb565b5050509392505050565b600082601f83011261363157613630613502565b5b81356136418482602086016135b3565b91505092915050565b600080fd5b600067ffffffffffffffff82111561366a57613669613507565b5b61367382613410565b9050602081019050919050565b82818337600083830152505050565b60006136a261369d8461364f565b613567565b9050828152602081018484840111156136be576136bd61364a565b5b6136c9848285613680565b509392505050565b600082601f8301126136e6576136e5613502565b5b81356136f684826020860161368f565b91505092915050565b600080600080600060a0868803121561371b5761371a6131fe565b5b600061372988828901613251565b955050602061373a88828901613251565b945050604086013567ffffffffffffffff81111561375b5761375a613203565b5b6137678882890161361c565b935050606086013567ffffffffffffffff81111561378857613787613203565b5b6137948882890161361c565b925050608086013567ffffffffffffffff8111156137b5576137b4613203565b5b6137c1888289016136d1565b9150509295509295909350565b600080fd5b60008083601f8401126137e9576137e8613502565b5b8235905067ffffffffffffffff811115613806576138056137ce565b5b602083019150836020820283011115613822576138216135ae565b5b9250929050565b60008060008060608587031215613843576138426131fe565b5b600061385187828801613287565b945050602085013567ffffffffffffffff81111561387257613871613203565b5b61387e878288016136d1565b935050604085013567ffffffffffffffff81111561389f5761389e613203565b5b6138ab878288016137d3565b925092505092959194509250565b600060ff82169050919050565b6138cf816138b9565b81146138da57600080fd5b50565b6000813590506138ec816138c6565b92915050565b600060208284031215613908576139076131fe565b5b6000613916848285016138dd565b91505092915050565b600061ffff82169050919050565b6139368161391f565b82525050565b6000602082019050613951600083018461392d565b92915050565b613960816138b9565b82525050565b600060208201905061397b6000830184613957565b92915050565b6000819050919050565b61399481613981565b82525050565b60006020820190506139af600083018461398b565b92915050565b600067ffffffffffffffff8211156139d0576139cf613507565b5b602082029050602081019050919050565b60006139f46139ef846139b5565b613567565b90508083825260208201905060208402830185811115613a1757613a166135ae565b5b835b81811015613a405780613a2c8882613251565b845260208401935050602081019050613a19565b5050509392505050565b600082601f830112613a5f57613a5e613502565b5b8135613a6f8482602086016139e1565b91505092915050565b60008060408385031215613a8f57613a8e6131fe565b5b600083013567ffffffffffffffff811115613aad57613aac613203565b5b613ab985828601613a4a565b925050602083013567ffffffffffffffff811115613ada57613ad9613203565b5b613ae68582860161361c565b9150509250929050565b600081519050919050565b600082825260208201905092915050565b6000819050602082019050919050565b613b2581613266565b82525050565b6000613b378383613b1c565b60208301905092915050565b6000602082019050919050565b6000613b5b82613af0565b613b658185613afb565b9350613b7083613b0c565b8060005b83811015613ba1578151613b888882613b2b565b9750613b9383613b43565b925050600181019050613b74565b5085935050505092915050565b60006020820190508181036000830152613bc88184613b50565b905092915050565b600080600060608486031215613be957613be86131fe565b5b6000613bf786828701613251565b9350506020613c0886828701613287565b9250506040613c1986828701613287565b9150509250925092565b600060208284031215613c3957613c386131fe565b5b6000613c4784828501613251565b91505092915050565b60008060408385031215613c6757613c666131fe565b5b6000613c7585828601613287565b925050602083013567ffffffffffffffff811115613c9657613c95613203565b5b613ca2858286016136d1565b9150509250929050565b600067ffffffffffffffff821115613cc757613cc6613507565b5b613cd082613410565b9050602081019050919050565b6000613cf0613ceb84613cac565b613567565b905082815260208101848484011115613d0c57613d0b61364a565b5b613d17848285613680565b509392505050565b600082601f830112613d3457613d33613502565b5b8135613d44848260208601613cdd565b91505092915050565b600060208284031215613d6357613d626131fe565b5b600082013567ffffffffffffffff811115613d8157613d80613203565b5b613d8d84828501613d1f565b91505092915050565b613d9f81613228565b82525050565b6000602082019050613dba6000830184613d96565b92915050565b60008060408385031215613dd757613dd66131fe565b5b6000613de585828601613251565b9250506020613df6858286016134c0565b9150509250929050565b600067ffffffffffffffff82169050919050565b613e1d81613e00565b8114613e2857600080fd5b50565b600081359050613e3a81613e14565b92915050565b600060208284031215613e5657613e556131fe565b5b6000613e6484828501613e2b565b91505092915050565b60008060408385031215613e8457613e836131fe565b5b6000613e9285828601613251565b9250506020613ea385828601613251565b9150509250929050565b600080600080600060a08688031215613ec957613ec86131fe565b5b6000613ed788828901613251565b9550506020613ee888828901613251565b9450506040613ef988828901613287565b9350506060613f0a88828901613287565b925050608086013567ffffffffffffffff811115613f2b57613f2a613203565b5b613f37888289016136d1565b9150509295509295909350565b7f4e487b7100000000000000000000000000000000000000000000000000000000600052602260045260246000fd5b60006002820490506001821680613f8b57607f821691505b602082108103613f9e57613f9d613f44565b5b50919050565b600081905092915050565b60008190508160005260206000209050919050565b60008154613fd181613f73565b613fdb8186613fa4565b94506001821660008114613ff657600181146140075761403a565b60ff1983168652818601935061403a565b61401085613faf565b60005b8381101561403257815481890152600182019150602081019050614013565b838801955050505b50505092915050565b600061404e826133c1565b6140588185613fa4565b93506140688185602086016133dd565b80840191505092915050565b7f2e6a736f6e000000000000000000000000000000000000000000000000000000600082015250565b60006140aa600583613fa4565b91506140b582614074565b600582019050919050565b60006140cc8285613fc4565b91506140d88284614043565b91506140e38261409d565b91508190509392505050565b7f45524331313535237361666542617463685472616e7366657246726f6d3a204960008201527f4e56414c49445f4f50455241544f520000000000000000000000000000000000602082015250565b600061414b602f836133cc565b9150614156826140ef565b604082019050919050565b6000602082019050818103600083015261417a8161413e565b9050919050565b7f45524331313535237361666542617463685472616e7366657246726f6d3a204960008201527f4e56414c49445f524543495049454e5400000000000000000000000000000000602082015250565b60006141dd6030836133cc565b91506141e882614181565b604082019050919050565b6000602082019050818103600083015261420c816141d0565b9050919050565b7f4d696e74696e6720697320506175736564000000000000000000000000000000600082015250565b60006142496011836133cc565b915061425482614213565b602082019050919050565b600060208201905081810360008301526142788161423c565b9050919050565b7f4d696e74696e67206e6f74207965742073746172746564000000000000000000600082015250565b60006142b56017836133cc565b91506142c08261427f565b602082019050919050565b600060208201905081810360008301526142e4816142a8565b9050919050565b7f4d696e74696e6720616c726561647920656e6465640000000000000000000000600082015250565b60006143216015836133cc565b915061432c826142eb565b602082019050919050565b6000602082019050818103600083015261435081614314565b9050919050565b7f4e487b7100000000000000000000000000000000000000000000000000000000600052601160045260246000fd5b60006143918261391f565b915061439c8361391f565b92508261ffff038211156143b3576143b2614357565b5b828201905092915050565b7f416d6f756e74205072696d61204d617465726961206578636565646564000000600082015250565b60006143f4601d836133cc565b91506143ff826143be565b602082019050919050565b60006020820190508181036000830152614423816143e7565b9050919050565b7f546f6b656e20616c726561647920757365640000000000000000000000000000600082015250565b60006144606012836133cc565b915061446b8261442a565b602082019050919050565b6000602082019050818103600083015261448f81614453565b9050919050565b6000815190506144a58161323a565b92915050565b6000602082840312156144c1576144c06131fe565b5b60006144cf84828501614496565b91505092915050565b7f4e6f7420746f6b656e206f776e65720000000000000000000000000000000000600082015250565b600061450e600f836133cc565b9150614519826144d8565b602082019050919050565b6000602082019050818103600083015261453d81614501565b9050919050565b7f57726f6e67207369676e61747572650000000000000000000000000000000000600082015250565b600061457a600f836133cc565b915061458582614544565b602082019050919050565b600060208201905081810360008301526145a98161456d565b9050919050565b7f41204d6174657269612073686f756c642062652063726561746564206669727360008201527f7400000000000000000000000000000000000000000000000000000000000000602082015250565b600061460c6021836133cc565b9150614617826145b0565b604082019050919050565b6000602082019050818103600083015261463b816145ff565b9050919050565b6000819050919050565b61465d61465882613266565b614642565b82525050565b600061466f828461464c565b60208201915081905092915050565b7f496e76616c6964206d65726b6c652070726f6f66000000000000000000000000600082015250565b60006146b46014836133cc565b91506146bf8261467e565b602082019050919050565b600060208201905081810360008301526146e3816146a7565b9050919050565b60006146f5826138b9565b9150614700836138b9565b92508260ff0382111561471657614715614357565b5b828201905092915050565b61472a81613228565b82525050565b61473981613266565b82525050565b60006040820190506147546000830185614721565b6147616020830184614730565b9392505050565b61477181613981565b811461477c57600080fd5b50565b60008151905061478e81614768565b92915050565b6000602082840312156147aa576147a96131fe565b5b60006147b88482850161477f565b91505092915050565b7f455243313135352362616c616e63654f6642617463683a20494e56414c49445f60008201527f41525241595f4c454e4754480000000000000000000000000000000000000000602082015250565b600061481d602c836133cc565b9150614828826147c1565b604082019050919050565b6000602082019050818103600083015261484c81614810565b9050919050565b7f4e487b7100000000000000000000000000000000000000000000000000000000600052603260045260246000fd5b600061488d82613266565b91507fffffffffffffffffffffffffffffffffffffffffffffffffffffffffffffffff82036148bf576148be614357565b5b600182019050919050565b7f446561646c696e65206e6f7420796574206f7665720000000000000000000000600082015250565b60006149006015836133cc565b915061490b826148ca565b602082019050919050565b6000602082019050818103600083015261492f816148f3565b9050919050565b600061494182613266565b915061494c83613266565b9250827fffffffffffffffffffffffffffffffffffffffffffffffffffffffffffffffff0382111561498157614980614357565b5b828201905092915050565b7f416d6f756e74204d617465726961206578636565646564000000000000000000600082015250565b60006149c26017836133cc565b91506149cd8261498c565b602082019050919050565b600060208201905081810360008301526149f1816149b5565b9050919050565b7f57726f6e67207369676e65720000000000000000000000000000000000000000600082015250565b6000614a2e600c836133cc565b9150614a39826149f8565b602082019050919050565b60006020820190508181036000830152614a5d81614a21565b9050919050565b7f57726f6e6720656e6420646561646c696e650000000000000000000000000000600082015250565b6000614a9a6012836133cc565b9150614aa582614a64565b602082019050919050565b60006020820190508181036000830152614ac981614a8d565b9050919050565b7f4552433732315472616461626c65237572693a204e4f4e4558495354454e545f60008201527f544f4b454e000000000000000000000000000000000000000000000000000000602082015250565b6000614b2c6025836133cc565b9150614b3782614ad0565b604082019050919050565b60006020820190508181036000830152614b5b81614b1f565b9050919050565b6000614b6e8285613fc4565b9150614b7a8284614043565b91508190509392505050565b7f4552433131353523736166655472616e7366657246726f6d3a20494e56414c4960008201527f445f4f50455241544f5200000000000000000000000000000000000000000000602082015250565b6000614be2602a836133cc565b9150614bed82614b86565b604082019050919050565b60006020820190508181036000830152614c1181614bd5565b9050919050565b7f4552433131353523736166655472616e7366657246726f6d3a20494e56414c4960008201527f445f524543495049454e54000000000000000000000000000000000000000000602082015250565b6000614c74602b836133cc565b9150614c7f82614c18565b604082019050919050565b60006020820190508181036000830152614ca381614c67565b9050919050565b7f4f776e61626c653a206e6577206f776e657220697320746865207a65726f206160008201527f6464726573730000000000000000000000000000000000000000000000000000602082015250565b6000614d066026836133cc565b9150614d1182614caa565b604082019050919050565b60006020820190508181036000830152614d3581614cf9565b9050919050565b7f4e487b7100000000000000000000000000000000000000000000000000000000600052601260045260246000fd5b6000614d7682613266565b9150614d8183613266565b925082614d9157614d90614d3c565b5b828204905092915050565b6000614da782613266565b9150614db283613266565b925082821015614dc557614dc4614357565b5b828203905092915050565b6000614ddb82613266565b9150614de683613266565b925082614df657614df5614d3c565b5b828206905092915050565b6000614e0c82613266565b915060008203614e1f57614e1e614357565b5b600182039050919050565b7f4f776e61626c653a2063616c6c6572206973206e6f7420746865206f776e6572600082015250565b6000614e606020836133cc565b9150614e6b82614e2a565b602082019050919050565b60006020820190508181036000830152614e8f81614e53565b9050919050565b7f45524331313535235f7361666542617463685472616e7366657246726f6d3a2060008201527f494e56414c49445f4152524159535f4c454e4754480000000000000000000000602082015250565b6000614ef26035836133cc565b9150614efd82614e96565b604082019050919050565b60006020820190508181036000830152614f2181614ee5565b9050919050565b60006040820190508181036000830152614f428185613b50565b90508181036020830152614f568184613b50565b90509392505050565b600081519050919050565b600082825260208201905092915050565b6000614f8682614f5f565b614f908185614f6a565b9350614fa08185602086016133dd565b614fa981613410565b840191505092915050565b600060a082019050614fc96000830188613d96565b614fd66020830187613d96565b8181036040830152614fe88186613b50565b90508181036060830152614ffc8185613b50565b905081810360808301526150108184614f7b565b90509695505050505050565b60008151905061502b81613332565b92915050565b600060208284031215615047576150466131fe565b5b60006150558482850161501c565b91505092915050565b60008160e01c9050919050565b600060033d111561508a5760046000803e61508760005161505e565b90505b90565b600060443d1061511a5761509f6131f4565b60043d036004823e80513d602482011167ffffffffffffffff821117156150c757505061511a565b808201805167ffffffffffffffff8111156150e5575050505061511a565b80602083010160043d03850181111561510257505050505061511a565b61511182602001850186613536565b82955050505050505b90565b7f455243313135353a207472616e7366657220746f206e6f6e204552433131353560008201527f526563656976657220696d706c656d656e746572000000000000000000000000602082015250565b60006151796034836133cc565b91506151848261511d565b604082019050919050565b600060208201905081810360008301526151a88161516c565b9050919050565b7f455243313135353a204552433131353552656365697665722072656a6563746560008201527f6420746f6b656e73000000000000000000000000000000000000000000000000602082015250565b600061520b6028836133cc565b9150615216826151af565b604082019050919050565b6000602082019050818103600083015261523a816151fe565b9050919050565b600082825260208201905092915050565b600061525d82614f5f565b6152678185615241565b93506152778185602086016133dd565b61528081613410565b840191505092915050565b60006080820190506152a06000830187614721565b6152ad6020830186614721565b6152ba6040830185614730565b81810360608301526152cc8184615252565b905095945050505050565b6000815190506152e6816134a9565b92915050565b600060208284031215615302576153016131fe565b5b6000615310848285016152d7565b91505092915050565b600060408201905061532e60008301856132dc565b61533b60208301846132dc565b9392505050565b600060a0820190506153576000830188613d96565b6153646020830187613d96565b61537160408301866132dc565b61537e60608301856132dc565b81810360808301526153908184614f7b565b90509695505050505050565b60006153a7826138b9565b915060ff82036153ba576153b9614357565b5b600182019050919050565b7f455243313135354d696e744275726e2362617463684d696e743a20494e56414c60008201527f49445f4152524159535f4c454e47544800000000000000000000000000000000602082015250565b60006154216030836133cc565b915061542c826153c5565b604082019050919050565b6000602082019050818103600083015261545081615414565b905091905056fea2646970667358221220b74bb1786baae602b333a7c533bc3ff343c77f34802dfad50d4d3f5fc29471ab64736f6c634300080d0033",
  "linkReferences": {
    "contracts/VerifySignature.sol": {
      "VerifySignature": [
        {
          "length": 20,
          "start": 6305
        },
        {
          "length": 20,
          "start": 11941
        }
      ]
    }
  },
  "deployedLinkReferences": {
    "contracts/VerifySignature.sol": {
      "VerifySignature": [
        {
          "length": 20,
          "start": 3370
        },
        {
          "length": 20,
          "start": 9006
        }
      ]
    }
  }
}