{
  "_format": "hh-sol-artifact-1",
  "contractName": "Materia",
  "sourceName": "contracts/Materia.sol",
  "abi": [
    {
      "inputs": [
        {
          "internalType": "string",
          "name": "_name",
          "type": "string"
        },
        {
          "internalType": "string",
          "name": "_symbol",
          "type": "string"
        },
        {
          "internalType": "string",
          "name": "_metadataURI",
          "type": "string"
        },
        {
          "internalType": "uint256",
          "name": "start",
          "type": "uint256"
        },
        {
          "internalType": "uint256",
          "name": "end",
          "type": "uint256"
        },
        {
          "internalType": "bytes32",
          "name": "merkleRoot",
          "type": "bytes32"
        },
        {
          "internalType": "address",
          "name": "signer",
          "type": "address"
        },
        {
          "internalType": "address",
          "name": "antonym",
          "type": "address"
        }
      ],
      "stateMutability": "nonpayable",
      "type": "constructor"
    },
    {
      "anonymous": false,
      "inputs": [
        {
          "indexed": true,
          "internalType": "address",
          "name": "_owner",
          "type": "address"
        },
        {
          "indexed": true,
          "internalType": "address",
          "name": "_operator",
          "type": "address"
        },
        {
          "indexed": false,
          "internalType": "bool",
          "name": "_approved",
          "type": "bool"
        }
      ],
      "name": "ApprovalForAll",
      "type": "event"
    },
    {
      "anonymous": false,
      "inputs": [
        {
          "indexed": true,
          "internalType": "address",
          "name": "previousOwner",
          "type": "address"
        },
        {
          "indexed": true,
          "internalType": "address",
          "name": "newOwner",
          "type": "address"
        }
      ],
      "name": "OwnershipTransferred",
      "type": "event"
    },
    {
      "anonymous": false,
      "inputs": [
        {
          "indexed": true,
          "internalType": "address",
          "name": "_operator",
          "type": "address"
        },
        {
          "indexed": true,
          "internalType": "address",
          "name": "_from",
          "type": "address"
        },
        {
          "indexed": true,
          "internalType": "address",
          "name": "_to",
          "type": "address"
        },
        {
          "indexed": false,
          "internalType": "uint256[]",
          "name": "_ids",
          "type": "uint256[]"
        },
        {
          "indexed": false,
          "internalType": "uint256[]",
          "name": "_amounts",
          "type": "uint256[]"
        }
      ],
      "name": "TransferBatch",
      "type": "event"
    },
    {
      "anonymous": false,
      "inputs": [
        {
          "indexed": true,
          "internalType": "address",
          "name": "_operator",
          "type": "address"
        },
        {
          "indexed": true,
          "internalType": "address",
          "name": "_from",
          "type": "address"
        },
        {
          "indexed": true,
          "internalType": "address",
          "name": "_to",
          "type": "address"
        },
        {
          "indexed": false,
          "internalType": "uint256",
          "name": "_id",
          "type": "uint256"
        },
        {
          "indexed": false,
          "internalType": "uint256",
          "name": "_amount",
          "type": "uint256"
        }
      ],
      "name": "TransferSingle",
      "type": "event"
    },
    {
      "anonymous": false,
      "inputs": [
        {
          "indexed": false,
          "internalType": "string",
          "name": "_uri",
          "type": "string"
        },
        {
          "indexed": true,
          "internalType": "uint256",
          "name": "_id",
          "type": "uint256"
        }
      ],
      "name": "URI",
      "type": "event"
    },
    {
      "inputs": [
        {
          "internalType": "bool",
          "name": "allow",
          "type": "bool"
        }
      ],
      "name": "allowMinting",
      "outputs": [],
      "stateMutability": "nonpayable",
      "type": "function"
    },
    {
      "inputs": [
        {
          "internalType": "address",
          "name": "_owner",
          "type": "address"
        },
        {
          "internalType": "uint256",
          "name": "_id",
          "type": "uint256"
        }
      ],
      "name": "balanceOf",
      "outputs": [
        {
          "internalType": "uint256",
          "name": "",
          "type": "uint256"
        }
      ],
      "stateMutability": "view",
      "type": "function"
    },
    {
      "inputs": [
        {
          "internalType": "address[]",
          "name": "_owners",
          "type": "address[]"
        },
        {
          "internalType": "uint256[]",
          "name": "_ids",
          "type": "uint256[]"
        }
      ],
      "name": "balanceOfBatch",
      "outputs": [
        {
          "internalType": "uint256[]",
          "name": "",
          "type": "uint256[]"
        }
      ],
      "stateMutability": "view",
      "type": "function"
    },
    {
      "inputs": [],
      "name": "getNextTokenID",
      "outputs": [
        {
          "internalType": "uint8",
          "name": "",
          "type": "uint8"
        }
      ],
      "stateMutability": "view",
      "type": "function"
    },
    {
      "inputs": [
        {
          "internalType": "uint256",
          "name": "",
          "type": "uint256"
        }
      ],
      "name": "isAntonym1of1TokenUsed",
      "outputs": [
        {
          "internalType": "uint256",
          "name": "",
          "type": "uint256"
        }
      ],
      "stateMutability": "view",
      "type": "function"
    },
    {
      "inputs": [
        {
          "internalType": "uint256",
          "name": "",
          "type": "uint256"
        }
      ],
      "name": "isAntonymTokenUsed",
      "outputs": [
        {
          "internalType": "uint256",
          "name": "",
          "type": "uint256"
        }
      ],
      "stateMutability": "view",
      "type": "function"
    },
    {
      "inputs": [
        {
          "internalType": "address",
          "name": "_owner",
          "type": "address"
        },
        {
          "internalType": "address",
          "name": "_operator",
          "type": "address"
        }
      ],
      "name": "isApprovedForAll",
      "outputs": [
        {
          "internalType": "bool",
          "name": "isOperator",
          "type": "bool"
        }
      ],
      "stateMutability": "view",
      "type": "function"
    },
    {
      "inputs": [
        {
          "internalType": "address",
          "name": "account",
          "type": "address"
        },
        {
          "internalType": "uint256[]",
          "name": "tokenIds",
          "type": "uint256[]"
        }
      ],
      "name": "messageHash",
      "outputs": [
        {
          "internalType": "bytes32",
          "name": "",
          "type": "bytes32"
        }
      ],
      "stateMutability": "pure",
      "type": "function"
    },
    {
      "inputs": [
        {
          "internalType": "uint256[]",
          "name": "antonymTokenIds",
          "type": "uint256[]"
        },
        {
          "internalType": "uint256[]",
          "name": "antonym1of1TokensIds",
          "type": "uint256[]"
        },
        {
          "internalType": "bytes",
          "name": "antonymSignature",
          "type": "bytes"
        },
        {
          "internalType": "bytes",
          "name": "antonym1of1Signature",
          "type": "bytes"
        },
        {
          "internalType": "bytes32[]",
          "name": "proof",
          "type": "bytes32[]"
        },
        {
          "internalType": "bytes32[]",
          "name": "leaves",
          "type": "bytes32[]"
        },
        {
          "internalType": "bool[]",
          "name": "proofFlag",
          "type": "bool[]"
        }
      ],
      "name": "mint",
      "outputs": [],
      "stateMutability": "nonpayable",
      "type": "function"
    },
    {
      "inputs": [
        {
          "internalType": "address",
          "name": "to",
          "type": "address"
        },
        {
          "internalType": "uint256",
          "name": "amountMateria",
          "type": "uint256"
        },
        {
          "internalType": "uint256",
          "name": "amountPrimaMateria",
          "type": "uint256"
        }
      ],
      "name": "mintBatchMateria",
      "outputs": [],
      "stateMutability": "nonpayable",
      "type": "function"
    },
    {
      "inputs": [],
      "name": "name",
      "outputs": [
        {
          "internalType": "string",
          "name": "",
          "type": "string"
        }
      ],
      "stateMutability": "view",
      "type": "function"
    },
    {
      "inputs": [],
      "name": "owner",
      "outputs": [
        {
          "internalType": "address",
          "name": "",
          "type": "address"
        }
      ],
      "stateMutability": "view",
      "type": "function"
    },
    {
      "inputs": [],
      "name": "renounceOwnership",
      "outputs": [],
      "stateMutability": "nonpayable",
      "type": "function"
    },
    {
      "inputs": [
        {
          "internalType": "uint256",
          "name": "_tokenId",
          "type": "uint256"
        },
        {
          "internalType": "uint256",
          "name": "_salePrice",
          "type": "uint256"
        }
      ],
      "name": "royaltyInfo",
      "outputs": [
        {
          "internalType": "address",
          "name": "receiver",
          "type": "address"
        },
        {
          "internalType": "uint256",
          "name": "royaltyAmount",
          "type": "uint256"
        }
      ],
      "stateMutability": "view",
      "type": "function"
    },
    {
      "inputs": [
        {
          "internalType": "address",
          "name": "_from",
          "type": "address"
        },
        {
          "internalType": "address",
          "name": "_to",
          "type": "address"
        },
        {
          "internalType": "uint256[]",
          "name": "_ids",
          "type": "uint256[]"
        },
        {
          "internalType": "uint256[]",
          "name": "_amounts",
          "type": "uint256[]"
        },
        {
          "internalType": "bytes",
          "name": "_data",
          "type": "bytes"
        }
      ],
      "name": "safeBatchTransferFrom",
      "outputs": [],
      "stateMutability": "nonpayable",
      "type": "function"
    },
    {
      "inputs": [
        {
          "internalType": "address",
          "name": "_from",
          "type": "address"
        },
        {
          "internalType": "address",
          "name": "_to",
          "type": "address"
        },
        {
          "internalType": "uint256",
          "name": "_id",
          "type": "uint256"
        },
        {
          "internalType": "uint256",
          "name": "_amount",
          "type": "uint256"
        },
        {
          "internalType": "bytes",
          "name": "_data",
          "type": "bytes"
        }
      ],
      "name": "safeTransferFrom",
      "outputs": [],
      "stateMutability": "nonpayable",
      "type": "function"
    },
    {
      "inputs": [
        {
          "internalType": "address",
          "name": "_operator",
          "type": "address"
        },
        {
          "internalType": "bool",
          "name": "_approved",
          "type": "bool"
        }
      ],
      "name": "setApprovalForAll",
      "outputs": [],
      "stateMutability": "nonpayable",
      "type": "function"
    },
    {
      "inputs": [
        {
          "internalType": "string",
          "name": "_newBaseMetadataURI",
          "type": "string"
        }
      ],
      "name": "setBaseMetadataURI",
      "outputs": [],
      "stateMutability": "nonpayable",
      "type": "function"
    },
    {
      "inputs": [
        {
          "internalType": "uint256",
          "name": "end",
          "type": "uint256"
        }
      ],
      "name": "setDeadline",
      "outputs": [],
      "stateMutability": "nonpayable",
      "type": "function"
    },
    {
      "inputs": [
        {
          "internalType": "address",
          "name": "royaltyAddress",
          "type": "address"
        }
      ],
      "name": "setRoyaltyAddress",
      "outputs": [],
      "stateMutability": "nonpayable",
      "type": "function"
    },
    {
      "inputs": [
        {
          "internalType": "uint256",
          "name": "royaltyBasisPoints",
          "type": "uint256"
        }
      ],
      "name": "setRoyaltyRate",
      "outputs": [],
      "stateMutability": "nonpayable",
      "type": "function"
    },
    {
      "inputs": [
        {
          "internalType": "address",
          "name": "signer",
          "type": "address"
        }
      ],
      "name": "setSigner",
      "outputs": [],
      "stateMutability": "nonpayable",
      "type": "function"
    },
    {
      "inputs": [
        {
          "internalType": "bytes4",
          "name": "interfaceId",
          "type": "bytes4"
        }
      ],
      "name": "supportsInterface",
      "outputs": [
        {
          "internalType": "bool",
          "name": "",
          "type": "bool"
        }
      ],
      "stateMutability": "view",
      "type": "function"
    },
    {
      "inputs": [],
      "name": "symbol",
      "outputs": [
        {
          "internalType": "string",
          "name": "",
          "type": "string"
        }
      ],
      "stateMutability": "view",
      "type": "function"
    },
    {
      "inputs": [
        {
          "internalType": "uint256",
          "name": "",
          "type": "uint256"
        }
      ],
      "name": "tokenSupply",
      "outputs": [
        {
          "internalType": "uint256",
          "name": "",
          "type": "uint256"
        }
      ],
      "stateMutability": "view",
      "type": "function"
    },
    {
      "inputs": [
        {
          "internalType": "uint256",
          "name": "_id",
          "type": "uint256"
        }
      ],
      "name": "totalSupply",
      "outputs": [
        {
          "internalType": "uint256",
          "name": "",
          "type": "uint256"
        }
      ],
      "stateMutability": "view",
      "type": "function"
    },
    {
      "inputs": [
        {
          "internalType": "address",
          "name": "newOwner",
          "type": "address"
        }
      ],
      "name": "transferOwnership",
      "outputs": [],
      "stateMutability": "nonpayable",
      "type": "function"
    },
    {
      "inputs": [
        {
          "internalType": "uint256",
          "name": "_id",
          "type": "uint256"
        }
      ],
      "name": "uri",
      "outputs": [
        {
          "internalType": "string",
          "name": "",
          "type": "string"
        }
      ],
      "stateMutability": "view",
      "type": "function"
    }
  ],
  "bytecode": "0x60806040526001600a60006101000a81548160ff0219169083151502179055503480156200002c57600080fd5b506040516200645838038062006458833981810160405281019062000052919062000726565b87878762000075620000696200031460201b60201c565b6200031c60201b60201c565b82600590805190602001906200008d929190620003fe565b508160069080519060200190620000a6929190620003fe565b50620000b881620003e260201b60201c565b50505042851162000100576040517f08c379a0000000000000000000000000000000000000000000000000000000008152600401620000f790620008ad565b60405180910390fd5b84841162000145576040517f08c379a00000000000000000000000000000000000000000000000000000000081526004016200013c906200091f565b60405180910390fd5b600073ffffffffffffffffffffffffffffffffffffffff168273ffffffffffffffffffffffffffffffffffffffff1603620001b7576040517f08c379a0000000000000000000000000000000000000000000000000000000008152600401620001ae9062000991565b60405180910390fd5b60008303620001fd576040517f08c379a0000000000000000000000000000000000000000000000000000000008152600401620001f49062000a03565b60405180910390fd5b600073ffffffffffffffffffffffffffffffffffffffff168173ffffffffffffffffffffffffffffffffffffffff16036200026f576040517f08c379a0000000000000000000000000000000000000000000000000000000008152600401620002669062000a75565b60405180910390fd5b846007819055508360088190555081600b60006101000a81548173ffffffffffffffffffffffffffffffffffffffff021916908373ffffffffffffffffffffffffffffffffffffffff16021790555082600d8190555080600c60006101000a81548173ffffffffffffffffffffffffffffffffffffffff021916908373ffffffffffffffffffffffffffffffffffffffff160217905550505050505050505062000afb565b600033905090565b6000600360009054906101000a900473ffffffffffffffffffffffffffffffffffffffff16905081600360006101000a81548173ffffffffffffffffffffffffffffffffffffffff021916908373ffffffffffffffffffffffffffffffffffffffff1602179055508173ffffffffffffffffffffffffffffffffffffffff168173ffffffffffffffffffffffffffffffffffffffff167f8be0079c531659141344cd1fd0a4f28419497f9722a3daafe3b4186f6b6457e060405160405180910390a35050565b8060029080519060200190620003fa929190620003fe565b5050565b8280546200040c9062000ac6565b90600052602060002090601f0160209004810192826200043057600085556200047c565b82601f106200044b57805160ff19168380011785556200047c565b828001600101855582156200047c579182015b828111156200047b5782518255916020019190600101906200045e565b5b5090506200048b91906200048f565b5090565b5b80821115620004aa57600081600090555060010162000490565b5090565b6000604051905090565b600080fd5b600080fd5b600080fd5b600080fd5b6000601f19601f8301169050919050565b7f4e487b7100000000000000000000000000000000000000000000000000000000600052604160045260246000fd5b6200051782620004cc565b810181811067ffffffffffffffff82111715620005395762000538620004dd565b5b80604052505050565b60006200054e620004ae565b90506200055c82826200050c565b919050565b600067ffffffffffffffff8211156200057f576200057e620004dd565b5b6200058a82620004cc565b9050602081019050919050565b60005b83811015620005b75780820151818401526020810190506200059a565b83811115620005c7576000848401525b50505050565b6000620005e4620005de8462000561565b62000542565b905082815260208101848484011115620006035762000602620004c7565b5b6200061084828562000597565b509392505050565b600082601f83011262000630576200062f620004c2565b5b815162000642848260208601620005cd565b91505092915050565b6000819050919050565b62000660816200064b565b81146200066c57600080fd5b50565b600081519050620006808162000655565b92915050565b6000819050919050565b6200069b8162000686565b8114620006a757600080fd5b50565b600081519050620006bb8162000690565b92915050565b600073ffffffffffffffffffffffffffffffffffffffff82169050919050565b6000620006ee82620006c1565b9050919050565b6200070081620006e1565b81146200070c57600080fd5b50565b6000815190506200072081620006f5565b92915050565b600080600080600080600080610100898b0312156200074a5762000749620004b8565b5b600089015167ffffffffffffffff8111156200076b576200076a620004bd565b5b620007798b828c0162000618565b985050602089015167ffffffffffffffff8111156200079d576200079c620004bd565b5b620007ab8b828c0162000618565b975050604089015167ffffffffffffffff811115620007cf57620007ce620004bd565b5b620007dd8b828c0162000618565b9650506060620007f08b828c016200066f565b9550506080620008038b828c016200066f565b94505060a0620008168b828c01620006aa565b93505060c0620008298b828c016200070f565b92505060e06200083c8b828c016200070f565b9150509295985092959890939650565b600082825260208201905092915050565b7f53746172742063616e6e6f7420626520696e2074686520706173740000000000600082015250565b600062000895601b836200084c565b9150620008a2826200085d565b602082019050919050565b60006020820190508181036000830152620008c88162000886565b9050919050565b7f57726f6e6720656e6420646561646c696e650000000000000000000000000000600082015250565b6000620009076012836200084c565b91506200091482620008cf565b602082019050919050565b600060208201905081810360008301526200093a81620008f8565b9050919050565b7f57726f6e67207369676e65720000000000000000000000000000000000000000600082015250565b600062000979600c836200084c565b9150620009868262000941565b602082019050919050565b60006020820190508181036000830152620009ac816200096a565b9050919050565b7f57726f6e67204d65726b6c65526f6f7400000000000000000000000000000000600082015250565b6000620009eb6010836200084c565b9150620009f882620009b3565b602082019050919050565b6000602082019050818103600083015262000a1e81620009dc565b9050919050565b7f57726f6e67204e46540000000000000000000000000000000000000000000000600082015250565b600062000a5d6009836200084c565b915062000a6a8262000a25565b602082019050919050565b6000602082019050818103600083015262000a908162000a4e565b9050919050565b7f4e487b7100000000000000000000000000000000000000000000000000000000600052602260045260246000fd5b6000600282049050600182168062000adf57607f821691505b60208210810362000af55762000af462000a97565b5b50919050565b61594d8062000b0b6000396000f3fe608060405234801561001057600080fd5b50600436106101c35760003560e01c8063697b0ad4116100f9578063bd85b03911610097578063e643b2f911610071578063e643b2f914610513578063e985e9c514610543578063f242432a14610573578063f2fde38b1461058f576101c3565b8063bd85b03914610483578063d9aceeb7146104b3578063e0a0bffc146104e3576101c3565b80637e518ec8116100d35780637e518ec81461040f5780638da5cb5b1461042b57806395d89b4114610449578063a22cb46514610467576101c3565b8063697b0ad4146103cd5780636c19e783146103e9578063715018a614610405576101c3565b80632a55205a116101665780633bee6f49116101405780633bee6f49146103475780634a198119146103635780634e1273f414610381578063537782a2146103b1576101c3565b80632a55205a146102de5780632c5a8e861461030f5780632eb2c2d61461032b576101c3565b806306fdde03116101a257806306fdde03146102445780630e89341c14610262578063195199f6146102925780632693ebf2146102ae576101c3565b8062fdd58e146101c857806301ffc9a7146101f857806306d254da14610228575b600080fd5b6101e260048036038101906101dd919061333b565b6105ab565b6040516101ef919061338a565b60405180910390f35b610212600480360381019061020d91906133fd565b610605565b60405161021f9190613445565b60405180910390f35b610242600480360381019061023d9190613460565b61066d565b005b61024c6106b9565b6040516102599190613526565b60405180910390f35b61027c60048036038101906102779190613548565b610747565b6040516102899190613526565b60405180910390f35b6102ac60048036038101906102a79190613548565b6107ef565b005b6102c860048036038101906102c39190613548565b610850565b6040516102d5919061338a565b60405180910390f35b6102f860048036038101906102f39190613575565b610868565b6040516103069291906135c4565b60405180910390f35b61032960048036038101906103249190613619565b6108fc565b005b61034560048036038101906103409190613843565b610921565b005b610361600480360381019061035c9190613b29565b610a30565b005b61036b6110f9565b6040516103789190613caf565b60405180910390f35b61039b60048036038101906103969190613d8d565b61111c565b6040516103a89190613ec3565b60405180910390f35b6103cb60048036038101906103c69190613548565b61127d565b005b6103e760048036038101906103e29190613ee5565b61128f565b005b61040360048036038101906103fe9190613460565b611524565b005b61040d6115df565b005b61042960048036038101906104249190613fd9565b6115f3565b005b610433611607565b6040516104409190614022565b60405180910390f35b610451611631565b60405161045e9190613526565b60405180910390f35b610481600480360381019061047c919061403d565b6116bf565b005b61049d60048036038101906104989190613548565b6117bc565b6040516104aa919061338a565b60405180910390f35b6104cd60048036038101906104c89190613548565b6117d9565b6040516104da919061338a565b60405180910390f35b6104fd60048036038101906104f8919061407d565b6117f1565b60405161050a91906140e8565b60405180910390f35b61052d60048036038101906105289190613548565b611805565b60405161053a919061338a565b60405180910390f35b61055d60048036038101906105589190614103565b61181d565b60405161056a9190613445565b60405180910390f35b61058d60048036038101906105889190614143565b6118b1565b005b6105a960048036038101906105a49190613460565b6119c0565b005b60008060008473ffffffffffffffffffffffffffffffffffffffff1673ffffffffffffffffffffffffffffffffffffffff168152602001908152602001600020600083815260200190815260200160002054905092915050565b6000632a55205a60e01b7bffffffffffffffffffffffffffffffffffffffffffffffffffffffff1916827bffffffffffffffffffffffffffffffffffffffffffffffffffffffff19160361065c5760019050610668565b61066582611a43565b90505b919050565b610675611ac4565b80600a60016101000a81548173ffffffffffffffffffffffffffffffffffffffff021916908373ffffffffffffffffffffffffffffffffffffffff16021790555050565b600580546106c690614209565b80601f01602080910402602001604051908101604052809291908181526020018280546106f290614209565b801561073f5780601f106107145761010080835404028352916020019161073f565b820191906000526020600020905b81548152906001019060200180831161072257829003601f168201915b505050505081565b606061075282611b42565b610791576040517f08c379a0000000000000000000000000000000000000000000000000000000008152600401610788906142ac565b60405180910390fd5b6000600280546107a090614209565b9050116107bc57604051806020016040528060008152506107e8565b60026107c783611b61565b6040516020016107d892919061439c565b6040516020818303038152906040525b9050919050565b6107f7611ac4565b6007548111801561080757504281115b610846576040517f08c379a000000000000000000000000000000000000000000000000000000000815260040161083d9061440c565b60405180910390fd5b8060088190555050565b60046020528060005260406000206000915090505481565b60008061087484611b42565b6108b3576040517f08c379a00000000000000000000000000000000000000000000000000000000081526004016108aa90614478565b60405180910390fd5b600a60019054906101000a900473ffffffffffffffffffffffffffffffffffffffff16612710600954856108e791906144c7565b6108f19190614550565b915091509250929050565b610904611ac4565b80600a60006101000a81548160ff02191690831515021790555050565b8473ffffffffffffffffffffffffffffffffffffffff163373ffffffffffffffffffffffffffffffffffffffff1614806109615750610960853361181d565b5b6109a0576040517f08c379a0000000000000000000000000000000000000000000000000000000008152600401610997906145f3565b60405180910390fd5b600073ffffffffffffffffffffffffffffffffffffffff168473ffffffffffffffffffffffffffffffffffffffff1603610a0f576040517f08c379a0000000000000000000000000000000000000000000000000000000008152600401610a0690614685565b60405180910390fd5b610a1b85858585611cc1565b610a29858585855a86611fb5565b5050505050565b600a60009054906101000a900460ff16610a7f576040517f08c379a0000000000000000000000000000000000000000000000000000000008152600401610a76906146f1565b60405180910390fd5b426007541115610ac4576040517f08c379a0000000000000000000000000000000000000000000000000000000008152600401610abb9061475d565b60405180910390fd5b4260085411610b08576040517f08c379a0000000000000000000000000000000000000000000000000000000008152600401610aff906147c9565b60405180910390fd5b6000610b1261218c565b90506000895190506000811115610d9657606481600460006001815260200190815260200160002054610b4591906147e9565b1115610b86576040517f08c379a0000000000000000000000000000000000000000000000000000000008152600401610b7d9061488b565b60405180910390fd5b610b91828b8a612194565b610bd0576040517f08c379a0000000000000000000000000000000000000000000000000000000008152600401610bc7906148f7565b60405180910390fd5b60005b81811015610d885760008b8281518110610bf057610bef614917565b5b602002602001015190506000600e60008381526020019081526020016000205414610c50576040517f08c379a0000000000000000000000000000000000000000000000000000000008152600401610c4790614992565b60405180910390fd5b8373ffffffffffffffffffffffffffffffffffffffff16600c60009054906101000a900473ffffffffffffffffffffffffffffffffffffffff1673ffffffffffffffffffffffffffffffffffffffff16636352211e836040518263ffffffff1660e01b8152600401610cc2919061338a565b6020604051808303816000875af1158015610ce1573d6000803e3d6000fd5b505050506040513d601f19601f82011682018060405250810190610d0591906149c7565b73ffffffffffffffffffffffffffffffffffffffff1614610d5b576040517f08c379a0000000000000000000000000000000000000000000000000000000008152600401610d5290614a40565b60405180910390fd5b6001600e600083815260200190815260200160002081905550508080610d8090614a60565b915050610bd3565b50610d95826001836121cd565b5b60008951905060008111156110ec57610daf6001611b42565b610dee576040517f08c379a0000000000000000000000000000000000000000000000000000000008152600401610de590614b1a565b60405180910390fd5b600581600460006002815260200190815260200160002054610e1091906147e9565b1115610e51576040517f08c379a0000000000000000000000000000000000000000000000000000000008152600401610e4890614b86565b60405180910390fd5b610e5c838b8a612194565b610e9b576040517f08c379a0000000000000000000000000000000000000000000000000000000008152600401610e9290614bf2565b60405180910390fd5b60005b818110156110de5760008b8281518110610ebb57610eba614917565b5b602002602001015190506000600f60008381526020019081526020016000205414610f1b576040517f08c379a0000000000000000000000000000000000000000000000000000000008152600401610f1290614c5e565b60405180910390fd5b8473ffffffffffffffffffffffffffffffffffffffff16600c60009054906101000a900473ffffffffffffffffffffffffffffffffffffffff1673ffffffffffffffffffffffffffffffffffffffff16636352211e836040518263ffffffff1660e01b8152600401610f8d919061338a565b6020604051808303816000875af1158015610fac573d6000803e3d6000fd5b505050506040513d601f19601f82011682018060405250810190610fd091906149c7565b73ffffffffffffffffffffffffffffffffffffffff1614611026576040517f08c379a000000000000000000000000000000000000000000000000000000000815260040161101d90614cca565b60405180910390fd5b611072898980806020026020016040519081016040528093929190818152602001838360200280828437600081840152601f19601f8201169050808301925050505050505087896121fe565b6110b1576040517f08c379a00000000000000000000000000000000000000000000000000000000081526004016110a890614d36565b60405180910390fd5b6001600f6000838152602001908152602001600020819055505080806110d690614a60565b915050610e9e565b506110eb836002836121cd565b5b5050505050505050505050565b60006001600360149054906101000a900460ff166111179190614d56565b905090565b60608151835114611162576040517f08c379a000000000000000000000000000000000000000000000000000000000815260040161115990614dff565b60405180910390fd5b6000835167ffffffffffffffff81111561117f5761117e61364b565b5b6040519080825280602002602001820160405280156111ad5781602001602082028036833780820191505090505b50905060005b8451811015611272576000808683815181106111d2576111d1614917565b5b602002602001015173ffffffffffffffffffffffffffffffffffffffff1673ffffffffffffffffffffffffffffffffffffffff168152602001908152602001600020600085838151811061122957611228614917565b5b602002602001015181526020019081526020016000205482828151811061125357611252614917565b5b602002602001018181525050808061126a90614a60565b9150506111b3565b508091505092915050565b611285611ac4565b8060098190555050565b611297611ac4565b600a60009054906101000a900460ff166112e6576040517f08c379a00000000000000000000000000000000000000000000000000000000081526004016112dd906146f1565b60405180910390fd5b426008541061132a576040517f08c379a000000000000000000000000000000000000000000000000000000000815260040161132190614e6b565b60405180910390fd5b60648260046000600181526020019081526020016000205461134c91906147e9565b111561138d576040517f08c379a00000000000000000000000000000000000000000000000000000000081526004016113849061488b565b60405180910390fd5b6005816004600060028152602001908152602001600020546113af91906147e9565b11156113f0576040517f08c379a00000000000000000000000000000000000000000000000000000000081526004016113e790614b86565b60405180910390fd5b6000600267ffffffffffffffff81111561140d5761140c61364b565b5b60405190808252806020026020018201604052801561143b5781602001602082028036833780820191505090505b50905060018160008151811061145457611453614917565b5b60200260200101818152505060028160018151811061147657611475614917565b5b6020026020010181815250506000600267ffffffffffffffff81111561149f5761149e61364b565b5b6040519080825280602002602001820160405280156114cd5781602001602082028036833780820191505090505b50905083816000815181106114e5576114e4614917565b5b602002602001018181525050828160018151811061150657611505614917565b5b60200260200101818152505061151d858383612217565b5050505050565b61152c611ac4565b600073ffffffffffffffffffffffffffffffffffffffff168173ffffffffffffffffffffffffffffffffffffffff160361159b576040517f08c379a000000000000000000000000000000000000000000000000000000000815260040161159290614ed7565b60405180910390fd5b80600b60006101000a81548173ffffffffffffffffffffffffffffffffffffffff021916908373ffffffffffffffffffffffffffffffffffffffff16021790555050565b6115e7611ac4565b6115f160006122c8565b565b6115fb611ac4565b6116048161238e565b50565b6000600360009054906101000a900473ffffffffffffffffffffffffffffffffffffffff16905090565b6006805461163e90614209565b80601f016020809104026020016040519081016040528092919081815260200182805461166a90614209565b80156116b75780601f1061168c576101008083540402835291602001916116b7565b820191906000526020600020905b81548152906001019060200180831161169a57829003601f168201915b505050505081565b80600160003373ffffffffffffffffffffffffffffffffffffffff1673ffffffffffffffffffffffffffffffffffffffff16815260200190815260200160002060008473ffffffffffffffffffffffffffffffffffffffff1673ffffffffffffffffffffffffffffffffffffffff16815260200190815260200160002060006101000a81548160ff0219169083151502179055508173ffffffffffffffffffffffffffffffffffffffff163373ffffffffffffffffffffffffffffffffffffffff167f17307eab39ab6107e8899845ad3d59bd9653f200f220920489ca2b5937696c31836040516117b09190613445565b60405180910390a35050565b600060046000838152602001908152602001600020549050919050565b600e6020528060005260406000206000915090505481565b60006117fd83836123a8565b905092915050565b600f6020528060005260406000206000915090505481565b6000600160008473ffffffffffffffffffffffffffffffffffffffff1673ffffffffffffffffffffffffffffffffffffffff16815260200190815260200160002060008373ffffffffffffffffffffffffffffffffffffffff1673ffffffffffffffffffffffffffffffffffffffff16815260200190815260200160002060009054906101000a900460ff16905092915050565b8473ffffffffffffffffffffffffffffffffffffffff163373ffffffffffffffffffffffffffffffffffffffff1614806118f157506118f0853361181d565b5b611930576040517f08c379a000000000000000000000000000000000000000000000000000000000815260040161192790614f69565b60405180910390fd5b600073ffffffffffffffffffffffffffffffffffffffff168473ffffffffffffffffffffffffffffffffffffffff160361199f576040517f08c379a000000000000000000000000000000000000000000000000000000000815260040161199690614ffb565b60405180910390fd5b6119ab858585856123db565b6119b9858585855a866125c9565b5050505050565b6119c8611ac4565b600073ffffffffffffffffffffffffffffffffffffffff168173ffffffffffffffffffffffffffffffffffffffff1603611a37576040517f08c379a0000000000000000000000000000000000000000000000000000000008152600401611a2e9061508d565b60405180910390fd5b611a40816122c8565b50565b60007fd9b67a26000000000000000000000000000000000000000000000000000000007bffffffffffffffffffffffffffffffffffffffffffffffffffffffff1916827bffffffffffffffffffffffffffffffffffffffffffffffffffffffff191603611ab35760019050611abf565b611abc826127a0565b90505b919050565b611acc61218c565b73ffffffffffffffffffffffffffffffffffffffff16611aea611607565b73ffffffffffffffffffffffffffffffffffffffff1614611b40576040517f08c379a0000000000000000000000000000000000000000000000000000000008152600401611b37906150f9565b60405180910390fd5b565b6000806004600084815260200190815260200160002054119050919050565b606060008203611ba8576040518060400160405280600181526020017f30000000000000000000000000000000000000000000000000000000000000008152509050611cbc565b600082905060005b60008214611bda578080611bc390614a60565b915050600a82611bd39190614550565b9150611bb0565b60008167ffffffffffffffff811115611bf657611bf561364b565b5b6040519080825280601f01601f191660200182016040528015611c285781602001600182028036833780820191505090505b5090505b60008514611cb557600182611c419190615119565b9150600a85611c50919061514d565b6030611c5c91906147e9565b60f81b818381518110611c7257611c71614917565b5b60200101907effffffffffffffffffffffffffffffffffffffffffffffffffffffffffffff1916908160001a905350600a85611cae9190614550565b9450611c2c565b8093505050505b919050565b8051825114611d05576040517f08c379a0000000000000000000000000000000000000000000000000000000008152600401611cfc906151f0565b60405180910390fd5b60008251905060005b81811015611f2f57611dac838281518110611d2c57611d2b614917565b5b60200260200101516000808973ffffffffffffffffffffffffffffffffffffffff1673ffffffffffffffffffffffffffffffffffffffff1681526020019081526020016000206000878581518110611d8757611d86614917565b5b602002602001015181526020019081526020016000205461282190919063ffffffff16565b6000808873ffffffffffffffffffffffffffffffffffffffff1673ffffffffffffffffffffffffffffffffffffffff1681526020019081526020016000206000868481518110611dff57611dfe614917565b5b6020026020010151815260200190815260200160002081905550611eaf838281518110611e2f57611e2e614917565b5b60200260200101516000808873ffffffffffffffffffffffffffffffffffffffff1673ffffffffffffffffffffffffffffffffffffffff1681526020019081526020016000206000878581518110611e8a57611e89614917565b5b602002602001015181526020019081526020016000205461283790919063ffffffff16565b6000808773ffffffffffffffffffffffffffffffffffffffff1673ffffffffffffffffffffffffffffffffffffffff1681526020019081526020016000206000868481518110611f0257611f01614917565b5b60200260200101518152602001908152602001600020819055508080611f2790614a60565b915050611d0e565b508373ffffffffffffffffffffffffffffffffffffffff168573ffffffffffffffffffffffffffffffffffffffff163373ffffffffffffffffffffffffffffffffffffffff167f4a39dc06d4c0dbc64b70af90fd698a233a518aa5d07e595d983b8c0526c8f7fb8686604051611fa6929190615210565b60405180910390a45050505050565b611fd48573ffffffffffffffffffffffffffffffffffffffff1661284d565b15612184578473ffffffffffffffffffffffffffffffffffffffff1663bc197c8133888787866040518663ffffffff1660e01b815260040161201a95949392919061529c565b6020604051808303816000875af192505050801561205657506040513d601f19601f820116820180604052508101906120539190615319565b60015b6120fb57612062615353565b806308c379a0036120be5750612076615375565b8061208157506120c0565b806040517f08c379a00000000000000000000000000000000000000000000000000000000081526004016120b59190613526565b60405180910390fd5b505b6040517f08c379a00000000000000000000000000000000000000000000000000000000081526004016120f290615477565b60405180910390fd5b63bc197c8160e01b7bffffffffffffffffffffffffffffffffffffffffffffffffffffffff1916817bffffffffffffffffffffffffffffffffffffffffffffffffffffffff191614612182576040517f08c379a000000000000000000000000000000000000000000000000000000000815260040161217990615509565b60405180910390fd5b505b505050505050565b600033905090565b60006121c4600b60009054906101000a900473ffffffffffffffffffffffffffffffffffffffff16858585612870565b90509392505050565b6121d98260ff16611b42565b6121ed576121e783826128d0565b506121f9565b6121f8838383612928565b5b505050565b600061220e8484600d5485612978565b90509392505050565b60005b82518110156122a757600083828151811061223857612237614917565b5b60200260200101519050600083838151811061225757612256614917565b5b602002602001015190508061ffff16600460008460ff168152602001908152602001600020600082825461228b91906147e9565b925050819055505050808061229f90614a60565b91505061221a565b506122c383838360405180602001604052806000815250612991565b505050565b6000600360009054906101000a900473ffffffffffffffffffffffffffffffffffffffff16905081600360006101000a81548173ffffffffffffffffffffffffffffffffffffffff021916908373ffffffffffffffffffffffffffffffffffffffff1602179055508173ffffffffffffffffffffffffffffffffffffffff168173ffffffffffffffffffffffffffffffffffffffff167f8be0079c531659141344cd1fd0a4f28419497f9722a3daafe3b4186f6b6457e060405160405180910390a35050565b80600290805190602001906123a49291906131f0565b5050565b600082826040516020016123bd929190615601565b60405160208183030381529060405280519060200120905092915050565b61243d816000808773ffffffffffffffffffffffffffffffffffffffff1673ffffffffffffffffffffffffffffffffffffffff16815260200190815260200160002060008581526020019081526020016000205461282190919063ffffffff16565b6000808673ffffffffffffffffffffffffffffffffffffffff1673ffffffffffffffffffffffffffffffffffffffff1681526020019081526020016000206000848152602001908152602001600020819055506124f2816000808673ffffffffffffffffffffffffffffffffffffffff1673ffffffffffffffffffffffffffffffffffffffff16815260200190815260200160002060008581526020019081526020016000205461283790919063ffffffff16565b6000808573ffffffffffffffffffffffffffffffffffffffff1673ffffffffffffffffffffffffffffffffffffffff1681526020019081526020016000206000848152602001908152602001600020819055508273ffffffffffffffffffffffffffffffffffffffff168473ffffffffffffffffffffffffffffffffffffffff163373ffffffffffffffffffffffffffffffffffffffff167fc3d58168c5ae7397731d063d5bbf3d657854427343f4c083240f7aacaa2d0f6285856040516125bb929190615629565b60405180910390a450505050565b6125e88573ffffffffffffffffffffffffffffffffffffffff1661284d565b15612798578473ffffffffffffffffffffffffffffffffffffffff1663f23a6e6133888787866040518663ffffffff1660e01b815260040161262e959493929190615652565b6020604051808303816000875af192505050801561266a57506040513d601f19601f820116820180604052508101906126679190615319565b60015b61270f57612676615353565b806308c379a0036126d2575061268a615375565b8061269557506126d4565b806040517f08c379a00000000000000000000000000000000000000000000000000000000081526004016126c99190613526565b60405180910390fd5b505b6040517f08c379a000000000000000000000000000000000000000000000000000000000815260040161270690615477565b60405180910390fd5b63f23a6e6160e01b7bffffffffffffffffffffffffffffffffffffffffffffffffffffffff1916817bffffffffffffffffffffffffffffffffffffffffffffffffffffffff191614612796576040517f08c379a000000000000000000000000000000000000000000000000000000000815260040161278d90615509565b60405180910390fd5b505b505050505050565b60007f0e89341c000000000000000000000000000000000000000000000000000000007bffffffffffffffffffffffffffffffffffffffffffffffffffffffff1916827bffffffffffffffffffffffffffffffffffffffffffffffffffffffff191603612810576001905061281c565b61281982612b92565b90505b919050565b6000818361282f9190615119565b905092915050565b6000818361284591906147e9565b905092915050565b6000808273ffffffffffffffffffffffffffffffffffffffff163b119050919050565b60008061287d85856123a8565b9050600061288a82612c13565b90508673ffffffffffffffffffffffffffffffffffffffff166128ad8286612c43565b73ffffffffffffffffffffffffffffffffffffffff161492505050949350505050565b6000806128db6110f9565b90506128e5612cb2565b612903848260ff168560405180602001604052806000815250612cec565b82600460008360ff168152602001908152602001600020819055508091505092915050565b612946838360ff168360405180602001604052806000815250612cec565b80600460008460ff168152602001908152602001600020600082825461296c91906147e9565b92505081905550505050565b600082612986868685612e35565b149050949350505050565b81518351146129d5576040517f08c379a00000000000000000000000000000000000000000000000000000000081526004016129cc9061571e565b60405180910390fd5b60008351905060005b81811015612afc57612a7c8482815181106129fc576129fb614917565b5b60200260200101516000808973ffffffffffffffffffffffffffffffffffffffff1673ffffffffffffffffffffffffffffffffffffffff1681526020019081526020016000206000888581518110612a5757612a56614917565b5b602002602001015181526020019081526020016000205461283790919063ffffffff16565b6000808873ffffffffffffffffffffffffffffffffffffffff1673ffffffffffffffffffffffffffffffffffffffff1681526020019081526020016000206000878481518110612acf57612ace614917565b5b60200260200101518152602001908152602001600020819055508080612af490614a60565b9150506129de565b508473ffffffffffffffffffffffffffffffffffffffff16600073ffffffffffffffffffffffffffffffffffffffff163373ffffffffffffffffffffffffffffffffffffffff167f4a39dc06d4c0dbc64b70af90fd698a233a518aa5d07e595d983b8c0526c8f7fb8787604051612b74929190615210565b60405180910390a4612b8b60008686865a87611fb5565b5050505050565b60007fd9b67a26000000000000000000000000000000000000000000000000000000007bffffffffffffffffffffffffffffffffffffffffffffffffffffffff1916827bffffffffffffffffffffffffffffffffffffffffffffffffffffffff191603612c025760019050612c0e565b612c0b826130dc565b90505b919050565b600081604051602001612c2691906157ab565b604051602081830303815290604052805190602001209050919050565b600080600080612c5285613146565b92509250925060018682858560405160008152602001604052604051612c7b94939291906157d1565b6020604051602081039080840390855afa158015612c9d573d6000803e3d6000fd5b50505060206040510351935050505092915050565b6003601481819054906101000a900460ff1680929190612cd190615816565b91906101000a81548160ff021916908360ff16021790555050565b612d4e826000808773ffffffffffffffffffffffffffffffffffffffff1673ffffffffffffffffffffffffffffffffffffffff16815260200190815260200160002060008681526020019081526020016000205461283790919063ffffffff16565b6000808673ffffffffffffffffffffffffffffffffffffffff1673ffffffffffffffffffffffffffffffffffffffff1681526020019081526020016000206000858152602001908152602001600020819055508373ffffffffffffffffffffffffffffffffffffffff16600073ffffffffffffffffffffffffffffffffffffffff163373ffffffffffffffffffffffffffffffffffffffff167fc3d58168c5ae7397731d063d5bbf3d657854427343f4c083240f7aacaa2d0f628686604051612e18929190615629565b60405180910390a4612e2f60008585855a866125c9565b50505050565b60008082519050600084519050806001875184612e5291906147e9565b612e5c9190615119565b14612e9c576040517f08c379a0000000000000000000000000000000000000000000000000000000008152600401612e939061588b565b60405180910390fd5b60008167ffffffffffffffff811115612eb857612eb761364b565b5b604051908082528060200260200182016040528015612ee65781602001602082028036833780820191505090505b5090506000806000805b85811015613040576000878510612f2d57858480612f0d90614a60565b955081518110612f2057612f1f614917565b5b6020026020010151612f55565b898580612f3990614a60565b965081518110612f4c57612f4b614917565b5b60200260200101515b905060008b8381518110612f6c57612f6b614917565b5b6020026020010151612fa4578c8480612f8490614a60565b955081518110612f9757612f96614917565b5b6020026020010151613000565b888610612fd757868580612fb790614a60565b965081518110612fca57612fc9614917565b5b6020026020010151612fff565b8a8680612fe390614a60565b975081518110612ff657612ff5614917565b5b60200260200101515b5b905061300c82826131ae565b87848151811061301f5761301e614917565b5b6020026020010181815250505050808061303890614a60565b915050612ef0565b50600085111561307e57836001866130589190615119565b8151811061306957613068614917565b5b602002602001015196505050505050506130d5565b60008611156130b0578760008151811061309b5761309a614917565b5b602002602001015196505050505050506130d5565b896000815181106130c4576130c3614917565b5b602002602001015196505050505050505b9392505050565b60007f01ffc9a7000000000000000000000000000000000000000000000000000000007bffffffffffffffffffffffffffffffffffffffffffffffffffffffff1916827bffffffffffffffffffffffffffffffffffffffffffffffffffffffff1916149050919050565b6000806000604184511461318f576040517f08c379a0000000000000000000000000000000000000000000000000000000008152600401613186906158f7565b60405180910390fd5b6020840151925060408401519150606084015160001a90509193909250565b60008183106131c6576131c182846131d9565b6131d1565b6131d083836131d9565b5b905092915050565b600082600052816020526040600020905092915050565b8280546131fc90614209565b90600052602060002090601f01602090048101928261321e5760008555613265565b82601f1061323757805160ff1916838001178555613265565b82800160010185558215613265579182015b82811115613264578251825591602001919060010190613249565b5b5090506132729190613276565b5090565b5b8082111561328f576000816000905550600101613277565b5090565b6000604051905090565b600080fd5b600080fd5b600073ffffffffffffffffffffffffffffffffffffffff82169050919050565b60006132d2826132a7565b9050919050565b6132e2816132c7565b81146132ed57600080fd5b50565b6000813590506132ff816132d9565b92915050565b6000819050919050565b61331881613305565b811461332357600080fd5b50565b6000813590506133358161330f565b92915050565b600080604083850312156133525761335161329d565b5b6000613360858286016132f0565b925050602061337185828601613326565b9150509250929050565b61338481613305565b82525050565b600060208201905061339f600083018461337b565b92915050565b60007fffffffff0000000000000000000000000000000000000000000000000000000082169050919050565b6133da816133a5565b81146133e557600080fd5b50565b6000813590506133f7816133d1565b92915050565b6000602082840312156134135761341261329d565b5b6000613421848285016133e8565b91505092915050565b60008115159050919050565b61343f8161342a565b82525050565b600060208201905061345a6000830184613436565b92915050565b6000602082840312156134765761347561329d565b5b6000613484848285016132f0565b91505092915050565b600081519050919050565b600082825260208201905092915050565b60005b838110156134c75780820151818401526020810190506134ac565b838111156134d6576000848401525b50505050565b6000601f19601f8301169050919050565b60006134f88261348d565b6135028185613498565b93506135128185602086016134a9565b61351b816134dc565b840191505092915050565b6000602082019050818103600083015261354081846134ed565b905092915050565b60006020828403121561355e5761355d61329d565b5b600061356c84828501613326565b91505092915050565b6000806040838503121561358c5761358b61329d565b5b600061359a85828601613326565b92505060206135ab85828601613326565b9150509250929050565b6135be816132c7565b82525050565b60006040820190506135d960008301856135b5565b6135e6602083018461337b565b9392505050565b6135f68161342a565b811461360157600080fd5b50565b600081359050613613816135ed565b92915050565b60006020828403121561362f5761362e61329d565b5b600061363d84828501613604565b91505092915050565b600080fd5b7f4e487b7100000000000000000000000000000000000000000000000000000000600052604160045260246000fd5b613683826134dc565b810181811067ffffffffffffffff821117156136a2576136a161364b565b5b80604052505050565b60006136b5613293565b90506136c1828261367a565b919050565b600067ffffffffffffffff8211156136e1576136e061364b565b5b602082029050602081019050919050565b600080fd5b600061370a613705846136c6565b6136ab565b9050808382526020820190506020840283018581111561372d5761372c6136f2565b5b835b8181101561375657806137428882613326565b84526020840193505060208101905061372f565b5050509392505050565b600082601f83011261377557613774613646565b5b81356137858482602086016136f7565b91505092915050565b600080fd5b600067ffffffffffffffff8211156137ae576137ad61364b565b5b6137b7826134dc565b9050602081019050919050565b82818337600083830152505050565b60006137e66137e184613793565b6136ab565b9050828152602081018484840111156138025761380161378e565b5b61380d8482856137c4565b509392505050565b600082601f83011261382a57613829613646565b5b813561383a8482602086016137d3565b91505092915050565b600080600080600060a0868803121561385f5761385e61329d565b5b600061386d888289016132f0565b955050602061387e888289016132f0565b945050604086013567ffffffffffffffff81111561389f5761389e6132a2565b5b6138ab88828901613760565b935050606086013567ffffffffffffffff8111156138cc576138cb6132a2565b5b6138d888828901613760565b925050608086013567ffffffffffffffff8111156138f9576138f86132a2565b5b61390588828901613815565b9150509295509295909350565b600080fd5b60008083601f84011261392d5761392c613646565b5b8235905067ffffffffffffffff81111561394a57613949613912565b5b602083019150836020820283011115613966576139656136f2565b5b9250929050565b600067ffffffffffffffff8211156139885761398761364b565b5b602082029050602081019050919050565b6000819050919050565b6139ac81613999565b81146139b757600080fd5b50565b6000813590506139c9816139a3565b92915050565b60006139e26139dd8461396d565b6136ab565b90508083825260208201905060208402830185811115613a0557613a046136f2565b5b835b81811015613a2e5780613a1a88826139ba565b845260208401935050602081019050613a07565b5050509392505050565b600082601f830112613a4d57613a4c613646565b5b8135613a5d8482602086016139cf565b91505092915050565b600067ffffffffffffffff821115613a8157613a8061364b565b5b602082029050602081019050919050565b6000613aa5613aa084613a66565b6136ab565b90508083825260208201905060208402830185811115613ac857613ac76136f2565b5b835b81811015613af15780613add8882613604565b845260208401935050602081019050613aca565b5050509392505050565b600082601f830112613b1057613b0f613646565b5b8135613b20848260208601613a92565b91505092915050565b60008060008060008060008060e0898b031215613b4957613b4861329d565b5b600089013567ffffffffffffffff811115613b6757613b666132a2565b5b613b738b828c01613760565b985050602089013567ffffffffffffffff811115613b9457613b936132a2565b5b613ba08b828c01613760565b975050604089013567ffffffffffffffff811115613bc157613bc06132a2565b5b613bcd8b828c01613815565b965050606089013567ffffffffffffffff811115613bee57613bed6132a2565b5b613bfa8b828c01613815565b955050608089013567ffffffffffffffff811115613c1b57613c1a6132a2565b5b613c278b828c01613917565b945094505060a089013567ffffffffffffffff811115613c4a57613c496132a2565b5b613c568b828c01613a38565b92505060c089013567ffffffffffffffff811115613c7757613c766132a2565b5b613c838b828c01613afb565b9150509295985092959890939650565b600060ff82169050919050565b613ca981613c93565b82525050565b6000602082019050613cc46000830184613ca0565b92915050565b600067ffffffffffffffff821115613ce557613ce461364b565b5b602082029050602081019050919050565b6000613d09613d0484613cca565b6136ab565b90508083825260208201905060208402830185811115613d2c57613d2b6136f2565b5b835b81811015613d555780613d4188826132f0565b845260208401935050602081019050613d2e565b5050509392505050565b600082601f830112613d7457613d73613646565b5b8135613d84848260208601613cf6565b91505092915050565b60008060408385031215613da457613da361329d565b5b600083013567ffffffffffffffff811115613dc257613dc16132a2565b5b613dce85828601613d5f565b925050602083013567ffffffffffffffff811115613def57613dee6132a2565b5b613dfb85828601613760565b9150509250929050565b600081519050919050565b600082825260208201905092915050565b6000819050602082019050919050565b613e3a81613305565b82525050565b6000613e4c8383613e31565b60208301905092915050565b6000602082019050919050565b6000613e7082613e05565b613e7a8185613e10565b9350613e8583613e21565b8060005b83811015613eb6578151613e9d8882613e40565b9750613ea883613e58565b925050600181019050613e89565b5085935050505092915050565b60006020820190508181036000830152613edd8184613e65565b905092915050565b600080600060608486031215613efe57613efd61329d565b5b6000613f0c868287016132f0565b9350506020613f1d86828701613326565b9250506040613f2e86828701613326565b9150509250925092565b600067ffffffffffffffff821115613f5357613f5261364b565b5b613f5c826134dc565b9050602081019050919050565b6000613f7c613f7784613f38565b6136ab565b905082815260208101848484011115613f9857613f9761378e565b5b613fa38482856137c4565b509392505050565b600082601f830112613fc057613fbf613646565b5b8135613fd0848260208601613f69565b91505092915050565b600060208284031215613fef57613fee61329d565b5b600082013567ffffffffffffffff81111561400d5761400c6132a2565b5b61401984828501613fab565b91505092915050565b600060208201905061403760008301846135b5565b92915050565b600080604083850312156140545761405361329d565b5b6000614062858286016132f0565b925050602061407385828601613604565b9150509250929050565b600080604083850312156140945761409361329d565b5b60006140a2858286016132f0565b925050602083013567ffffffffffffffff8111156140c3576140c26132a2565b5b6140cf85828601613760565b9150509250929050565b6140e281613999565b82525050565b60006020820190506140fd60008301846140d9565b92915050565b6000806040838503121561411a5761411961329d565b5b6000614128858286016132f0565b9250506020614139858286016132f0565b9150509250929050565b600080600080600060a0868803121561415f5761415e61329d565b5b600061416d888289016132f0565b955050602061417e888289016132f0565b945050604061418f88828901613326565b93505060606141a088828901613326565b925050608086013567ffffffffffffffff8111156141c1576141c06132a2565b5b6141cd88828901613815565b9150509295509295909350565b7f4e487b7100000000000000000000000000000000000000000000000000000000600052602260045260246000fd5b6000600282049050600182168061422157607f821691505b602082108103614234576142336141da565b5b50919050565b7f45524331313535547261646561626c65237572693a204e4f4e4558495354454e60008201527f545f544f4b454e00000000000000000000000000000000000000000000000000602082015250565b6000614296602783613498565b91506142a18261423a565b604082019050919050565b600060208201905081810360008301526142c581614289565b9050919050565b600081905092915050565b60008190508160005260206000209050919050565b600081546142f981614209565b61430381866142cc565b9450600182166000811461431e576001811461432f57614362565b60ff19831686528186019350614362565b614338856142d7565b60005b8381101561435a5781548189015260018201915060208101905061433b565b838801955050505b50505092915050565b60006143768261348d565b61438081856142cc565b93506143908185602086016134a9565b80840191505092915050565b60006143a882856142ec565b91506143b4828461436b565b91508190509392505050565b7f57726f6e6720656e6420646561646c696e650000000000000000000000000000600082015250565b60006143f6601283613498565b9150614401826143c0565b602082019050919050565b60006020820190508181036000830152614425816143e9565b9050919050565b7f494e56414c49445f544f4b454e49440000000000000000000000000000000000600082015250565b6000614462600f83613498565b915061446d8261442c565b602082019050919050565b6000602082019050818103600083015261449181614455565b9050919050565b7f4e487b7100000000000000000000000000000000000000000000000000000000600052601160045260246000fd5b60006144d282613305565b91506144dd83613305565b9250817fffffffffffffffffffffffffffffffffffffffffffffffffffffffffffffffff048311821515161561451657614515614498565b5b828202905092915050565b7f4e487b7100000000000000000000000000000000000000000000000000000000600052601260045260246000fd5b600061455b82613305565b915061456683613305565b92508261457657614575614521565b5b828204905092915050565b7f45524331313535237361666542617463685472616e7366657246726f6d3a204960008201527f4e56414c49445f4f50455241544f520000000000000000000000000000000000602082015250565b60006145dd602f83613498565b91506145e882614581565b604082019050919050565b6000602082019050818103600083015261460c816145d0565b9050919050565b7f45524331313535237361666542617463685472616e7366657246726f6d3a204960008201527f4e56414c49445f524543495049454e5400000000000000000000000000000000602082015250565b600061466f603083613498565b915061467a82614613565b604082019050919050565b6000602082019050818103600083015261469e81614662565b9050919050565b7f4d696e74696e6720697320506175736564000000000000000000000000000000600082015250565b60006146db601183613498565b91506146e6826146a5565b602082019050919050565b6000602082019050818103600083015261470a816146ce565b9050919050565b7f4d696e74696e67206e6f74207965742073746172746564000000000000000000600082015250565b6000614747601783613498565b915061475282614711565b602082019050919050565b600060208201905081810360008301526147768161473a565b9050919050565b7f4d696e74696e6720616c726561647920656e6465640000000000000000000000600082015250565b60006147b3601583613498565b91506147be8261477d565b602082019050919050565b600060208201905081810360008301526147e2816147a6565b9050919050565b60006147f482613305565b91506147ff83613305565b9250827fffffffffffffffffffffffffffffffffffffffffffffffffffffffffffffffff0382111561483457614833614498565b5b828201905092915050565b7f416d6f756e74204d617465726961206578636565646564000000000000000000600082015250565b6000614875601783613498565b91506148808261483f565b602082019050919050565b600060208201905081810360008301526148a481614868565b9050919050565b7f57726f6e67204d617465726961205369676e6174757265000000000000000000600082015250565b60006148e1601783613498565b91506148ec826148ab565b602082019050919050565b60006020820190508181036000830152614910816148d4565b9050919050565b7f4e487b7100000000000000000000000000000000000000000000000000000000600052603260045260246000fd5b7f546f6b656e20616c726561647920757365640000000000000000000000000000600082015250565b600061497c601283613498565b915061498782614946565b602082019050919050565b600060208201905081810360008301526149ab8161496f565b9050919050565b6000815190506149c1816132d9565b92915050565b6000602082840312156149dd576149dc61329d565b5b60006149eb848285016149b2565b91505092915050565b7f4e6f7420746f6b656e206f776e65720000000000000000000000000000000000600082015250565b6000614a2a600f83613498565b9150614a35826149f4565b602082019050919050565b60006020820190508181036000830152614a5981614a1d565b9050919050565b6000614a6b82613305565b91507fffffffffffffffffffffffffffffffffffffffffffffffffffffffffffffffff8203614a9d57614a9c614498565b5b600182019050919050565b7f41204d6174657269612073686f756c642062652063726561746564206669727360008201527f7400000000000000000000000000000000000000000000000000000000000000602082015250565b6000614b04602183613498565b9150614b0f82614aa8565b604082019050919050565b60006020820190508181036000830152614b3381614af7565b9050919050565b7f416d6f756e74205072696d61204d617465726961206578636565646564000000600082015250565b6000614b70601d83613498565b9150614b7b82614b3a565b602082019050919050565b60006020820190508181036000830152614b9f81614b63565b9050919050565b7f57726f6e67205072696d61205369676e61747572650000000000000000000000600082015250565b6000614bdc601583613498565b9150614be782614ba6565b602082019050919050565b60006020820190508181036000830152614c0b81614bcf565b9050919050565b7f5072696d6120546f6b656e20616c726561647920757365640000000000000000600082015250565b6000614c48601883613498565b9150614c5382614c12565b602082019050919050565b60006020820190508181036000830152614c7781614c3b565b9050919050565b7f4e6f74205072696d6120746f6b656e206f776e65720000000000000000000000600082015250565b6000614cb4601583613498565b9150614cbf82614c7e565b602082019050919050565b60006020820190508181036000830152614ce381614ca7565b9050919050565b7f496e76616c6964206d65726b6c652070726f6f66000000000000000000000000600082015250565b6000614d20601483613498565b9150614d2b82614cea565b602082019050919050565b60006020820190508181036000830152614d4f81614d13565b9050919050565b6000614d6182613c93565b9150614d6c83613c93565b92508260ff03821115614d8257614d81614498565b5b828201905092915050565b7f455243313135352362616c616e63654f6642617463683a20494e56414c49445f60008201527f41525241595f4c454e4754480000000000000000000000000000000000000000602082015250565b6000614de9602c83613498565b9150614df482614d8d565b604082019050919050565b60006020820190508181036000830152614e1881614ddc565b9050919050565b7f446561646c696e65206e6f7420796574206f7665720000000000000000000000600082015250565b6000614e55601583613498565b9150614e6082614e1f565b602082019050919050565b60006020820190508181036000830152614e8481614e48565b9050919050565b7f57726f6e67207369676e65720000000000000000000000000000000000000000600082015250565b6000614ec1600c83613498565b9150614ecc82614e8b565b602082019050919050565b60006020820190508181036000830152614ef081614eb4565b9050919050565b7f4552433131353523736166655472616e7366657246726f6d3a20494e56414c4960008201527f445f4f50455241544f5200000000000000000000000000000000000000000000602082015250565b6000614f53602a83613498565b9150614f5e82614ef7565b604082019050919050565b60006020820190508181036000830152614f8281614f46565b9050919050565b7f4552433131353523736166655472616e7366657246726f6d3a20494e56414c4960008201527f445f524543495049454e54000000000000000000000000000000000000000000602082015250565b6000614fe5602b83613498565b9150614ff082614f89565b604082019050919050565b6000602082019050818103600083015261501481614fd8565b9050919050565b7f4f776e61626c653a206e6577206f776e657220697320746865207a65726f206160008201527f6464726573730000000000000000000000000000000000000000000000000000602082015250565b6000615077602683613498565b91506150828261501b565b604082019050919050565b600060208201905081810360008301526150a68161506a565b9050919050565b7f4f776e61626c653a2063616c6c6572206973206e6f7420746865206f776e6572600082015250565b60006150e3602083613498565b91506150ee826150ad565b602082019050919050565b60006020820190508181036000830152615112816150d6565b9050919050565b600061512482613305565b915061512f83613305565b92508282101561514257615141614498565b5b828203905092915050565b600061515882613305565b915061516383613305565b92508261517357615172614521565b5b828206905092915050565b7f45524331313535235f7361666542617463685472616e7366657246726f6d3a2060008201527f494e56414c49445f4152524159535f4c454e4754480000000000000000000000602082015250565b60006151da603583613498565b91506151e58261517e565b604082019050919050565b60006020820190508181036000830152615209816151cd565b9050919050565b6000604082019050818103600083015261522a8185613e65565b9050818103602083015261523e8184613e65565b90509392505050565b600081519050919050565b600082825260208201905092915050565b600061526e82615247565b6152788185615252565b93506152888185602086016134a9565b615291816134dc565b840191505092915050565b600060a0820190506152b160008301886135b5565b6152be60208301876135b5565b81810360408301526152d08186613e65565b905081810360608301526152e48185613e65565b905081810360808301526152f88184615263565b90509695505050505050565b600081519050615313816133d1565b92915050565b60006020828403121561532f5761532e61329d565b5b600061533d84828501615304565b91505092915050565b60008160e01c9050919050565b600060033d11156153725760046000803e61536f600051615346565b90505b90565b600060443d1061540257615387613293565b60043d036004823e80513d602482011167ffffffffffffffff821117156153af575050615402565b808201805167ffffffffffffffff8111156153cd5750505050615402565b80602083010160043d0385018111156153ea575050505050615402565b6153f98260200185018661367a565b82955050505050505b90565b7f455243313135353a207472616e7366657220746f206e6f6e204552433131353560008201527f526563656976657220696d706c656d656e746572000000000000000000000000602082015250565b6000615461603483613498565b915061546c82615405565b604082019050919050565b6000602082019050818103600083015261549081615454565b9050919050565b7f455243313135353a204552433131353552656365697665722072656a6563746560008201527f6420746f6b656e73000000000000000000000000000000000000000000000000602082015250565b60006154f3602883613498565b91506154fe82615497565b604082019050919050565b60006020820190508181036000830152615522816154e6565b9050919050565b60008160601b9050919050565b600061554182615529565b9050919050565b600061555382615536565b9050919050565b61556b615566826132c7565b615548565b82525050565b600081905092915050565b61558581613305565b82525050565b6000615597838361557c565b60208301905092915050565b60006155ae82613e05565b6155b88185615571565b93506155c383613e21565b8060005b838110156155f45781516155db888261558b565b97506155e683613e58565b9250506001810190506155c7565b5085935050505092915050565b600061560d828561555a565b60148201915061561d82846155a3565b91508190509392505050565b600060408201905061563e600083018561337b565b61564b602083018461337b565b9392505050565b600060a08201905061566760008301886135b5565b61567460208301876135b5565b615681604083018661337b565b61568e606083018561337b565b81810360808301526156a08184615263565b90509695505050505050565b7f455243313135354d696e744275726e2362617463684d696e743a20494e56414c60008201527f49445f4152524159535f4c454e47544800000000000000000000000000000000602082015250565b6000615708603083613498565b9150615713826156ac565b604082019050919050565b60006020820190508181036000830152615737816156fb565b9050919050565b7f19457468657265756d205369676e6564204d6573736167653a0a333200000000600082015250565b6000615774601c836142cc565b915061577f8261573e565b601c82019050919050565b6000819050919050565b6157a56157a082613999565b61578a565b82525050565b60006157b682615767565b91506157c28284615794565b60208201915081905092915050565b60006080820190506157e660008301876140d9565b6157f36020830186613ca0565b61580060408301856140d9565b61580d60608301846140d9565b95945050505050565b600061582182613c93565b915060ff820361583457615833614498565b5b600182019050919050565b7f4d65726b6c6550726f6f663a20696e76616c6964206d756c746970726f6f6600600082015250565b6000615875601f83613498565b91506158808261583f565b602082019050919050565b600060208201905081810360008301526158a481615868565b9050919050565b7f696e76616c6964207369676e6174757265206c656e6774680000000000000000600082015250565b60006158e1601883613498565b91506158ec826158ab565b602082019050919050565b60006020820190508181036000830152615910816158d4565b905091905056fea264697066735822122044be80f2e5098ccd010e86238086e8a6bf9a758730d60d38345fa04f643ea45864736f6c634300080d0033",
  "linkReferences": {},
  "deployedLinkReferences": {}
}