{
  "_format": "hh-sol-artifact-1",
  "contractName": "Materia",
  "sourceName": "contracts/Materia.sol",
  "abi": [
    {
      "inputs": [
        {
          "internalType": "string",
          "name": "_name",
          "type": "string"
        },
        {
          "internalType": "string",
          "name": "_symbol",
          "type": "string"
        },
        {
          "internalType": "string",
          "name": "_metadataURI",
          "type": "string"
        },
        {
          "internalType": "uint64",
          "name": "start",
          "type": "uint64"
        },
        {
          "internalType": "uint64",
          "name": "end",
          "type": "uint64"
        },
        {
          "internalType": "bytes32",
          "name": "merkleRoot",
          "type": "bytes32"
        },
        {
          "internalType": "address",
          "name": "signer",
          "type": "address"
        },
        {
          "internalType": "address",
          "name": "antonym",
          "type": "address"
        }
      ],
      "stateMutability": "nonpayable",
      "type": "constructor"
    },
    {
      "anonymous": false,
      "inputs": [
        {
          "indexed": true,
          "internalType": "address",
          "name": "_owner",
          "type": "address"
        },
        {
          "indexed": true,
          "internalType": "address",
          "name": "_operator",
          "type": "address"
        },
        {
          "indexed": false,
          "internalType": "bool",
          "name": "_approved",
          "type": "bool"
        }
      ],
      "name": "ApprovalForAll",
      "type": "event"
    },
    {
      "anonymous": false,
      "inputs": [
        {
          "indexed": true,
          "internalType": "address",
          "name": "previousOwner",
          "type": "address"
        },
        {
          "indexed": true,
          "internalType": "address",
          "name": "newOwner",
          "type": "address"
        }
      ],
      "name": "OwnershipTransferred",
      "type": "event"
    },
    {
      "anonymous": false,
      "inputs": [
        {
          "indexed": true,
          "internalType": "address",
          "name": "_operator",
          "type": "address"
        },
        {
          "indexed": true,
          "internalType": "address",
          "name": "_from",
          "type": "address"
        },
        {
          "indexed": true,
          "internalType": "address",
          "name": "_to",
          "type": "address"
        },
        {
          "indexed": false,
          "internalType": "uint256[]",
          "name": "_ids",
          "type": "uint256[]"
        },
        {
          "indexed": false,
          "internalType": "uint256[]",
          "name": "_amounts",
          "type": "uint256[]"
        }
      ],
      "name": "TransferBatch",
      "type": "event"
    },
    {
      "anonymous": false,
      "inputs": [
        {
          "indexed": true,
          "internalType": "address",
          "name": "_operator",
          "type": "address"
        },
        {
          "indexed": true,
          "internalType": "address",
          "name": "_from",
          "type": "address"
        },
        {
          "indexed": true,
          "internalType": "address",
          "name": "_to",
          "type": "address"
        },
        {
          "indexed": false,
          "internalType": "uint256",
          "name": "_id",
          "type": "uint256"
        },
        {
          "indexed": false,
          "internalType": "uint256",
          "name": "_amount",
          "type": "uint256"
        }
      ],
      "name": "TransferSingle",
      "type": "event"
    },
    {
      "anonymous": false,
      "inputs": [
        {
          "indexed": false,
          "internalType": "string",
          "name": "_uri",
          "type": "string"
        },
        {
          "indexed": true,
          "internalType": "uint256",
          "name": "_id",
          "type": "uint256"
        }
      ],
      "name": "URI",
      "type": "event"
    },
    {
      "inputs": [
        {
          "internalType": "address",
          "name": "_owner",
          "type": "address"
        },
        {
          "internalType": "uint256",
          "name": "_id",
          "type": "uint256"
        }
      ],
      "name": "balanceOf",
      "outputs": [
        {
          "internalType": "uint256",
          "name": "",
          "type": "uint256"
        }
      ],
      "stateMutability": "view",
      "type": "function"
    },
    {
      "inputs": [
        {
          "internalType": "address[]",
          "name": "_owners",
          "type": "address[]"
        },
        {
          "internalType": "uint256[]",
          "name": "_ids",
          "type": "uint256[]"
        }
      ],
      "name": "balanceOfBatch",
      "outputs": [
        {
          "internalType": "uint256[]",
          "name": "",
          "type": "uint256[]"
        }
      ],
      "stateMutability": "view",
      "type": "function"
    },
    {
      "inputs": [
        {
          "internalType": "uint8",
          "name": "tokenId",
          "type": "uint8"
        }
      ],
      "name": "getAmountMinted",
      "outputs": [
        {
          "internalType": "uint16",
          "name": "",
          "type": "uint16"
        }
      ],
      "stateMutability": "view",
      "type": "function"
    },
    {
      "inputs": [],
      "name": "getNextTokenID",
      "outputs": [
        {
          "internalType": "uint8",
          "name": "",
          "type": "uint8"
        }
      ],
      "stateMutability": "view",
      "type": "function"
    },
    {
      "inputs": [
        {
          "internalType": "address",
          "name": "_owner",
          "type": "address"
        },
        {
          "internalType": "address",
          "name": "_operator",
          "type": "address"
        }
      ],
      "name": "isApprovedForAll",
      "outputs": [
        {
          "internalType": "bool",
          "name": "isOperator",
          "type": "bool"
        }
      ],
      "stateMutability": "view",
      "type": "function"
    },
    {
      "inputs": [
        {
          "internalType": "address",
          "name": "to",
          "type": "address"
        }
      ],
      "name": "mintBatch",
      "outputs": [],
      "stateMutability": "nonpayable",
      "type": "function"
    },
    {
      "inputs": [
        {
          "internalType": "uint256",
          "name": "antonymTokenId",
          "type": "uint256"
        },
        {
          "internalType": "bytes",
          "name": "signature",
          "type": "bytes"
        }
      ],
      "name": "mintMateria",
      "outputs": [],
      "stateMutability": "nonpayable",
      "type": "function"
    },
    {
      "inputs": [
        {
          "internalType": "uint256",
          "name": "antonymTokenId",
          "type": "uint256"
        },
        {
          "internalType": "bytes",
          "name": "signature",
          "type": "bytes"
        },
        {
          "internalType": "bytes32[]",
          "name": "proof",
          "type": "bytes32[]"
        }
      ],
      "name": "mintPrimaMateria",
      "outputs": [],
      "stateMutability": "nonpayable",
      "type": "function"
    },
    {
      "inputs": [],
      "name": "name",
      "outputs": [
        {
          "internalType": "string",
          "name": "",
          "type": "string"
        }
      ],
      "stateMutability": "view",
      "type": "function"
    },
    {
      "inputs": [],
      "name": "owner",
      "outputs": [
        {
          "internalType": "address",
          "name": "",
          "type": "address"
        }
      ],
      "stateMutability": "view",
      "type": "function"
    },
    {
      "inputs": [],
      "name": "renounceOwnership",
      "outputs": [],
      "stateMutability": "nonpayable",
      "type": "function"
    },
    {
      "inputs": [
        {
          "internalType": "address",
          "name": "_from",
          "type": "address"
        },
        {
          "internalType": "address",
          "name": "_to",
          "type": "address"
        },
        {
          "internalType": "uint256[]",
          "name": "_ids",
          "type": "uint256[]"
        },
        {
          "internalType": "uint256[]",
          "name": "_amounts",
          "type": "uint256[]"
        },
        {
          "internalType": "bytes",
          "name": "_data",
          "type": "bytes"
        }
      ],
      "name": "safeBatchTransferFrom",
      "outputs": [],
      "stateMutability": "nonpayable",
      "type": "function"
    },
    {
      "inputs": [
        {
          "internalType": "address",
          "name": "_from",
          "type": "address"
        },
        {
          "internalType": "address",
          "name": "_to",
          "type": "address"
        },
        {
          "internalType": "uint256",
          "name": "_id",
          "type": "uint256"
        },
        {
          "internalType": "uint256",
          "name": "_amount",
          "type": "uint256"
        },
        {
          "internalType": "bytes",
          "name": "_data",
          "type": "bytes"
        }
      ],
      "name": "safeTransferFrom",
      "outputs": [],
      "stateMutability": "nonpayable",
      "type": "function"
    },
    {
      "inputs": [
        {
          "internalType": "bool",
          "name": "allow",
          "type": "bool"
        }
      ],
      "name": "setAllowMinting",
      "outputs": [],
      "stateMutability": "nonpayable",
      "type": "function"
    },
    {
      "inputs": [
        {
          "internalType": "address",
          "name": "_operator",
          "type": "address"
        },
        {
          "internalType": "bool",
          "name": "_approved",
          "type": "bool"
        }
      ],
      "name": "setApprovalForAll",
      "outputs": [],
      "stateMutability": "nonpayable",
      "type": "function"
    },
    {
      "inputs": [
        {
          "internalType": "string",
          "name": "_newBaseMetadataURI",
          "type": "string"
        }
      ],
      "name": "setBaseMetadataURI",
      "outputs": [],
      "stateMutability": "nonpayable",
      "type": "function"
    },
    {
      "inputs": [
        {
          "internalType": "uint64",
          "name": "end",
          "type": "uint64"
        }
      ],
      "name": "setDeadline",
      "outputs": [],
      "stateMutability": "nonpayable",
      "type": "function"
    },
    {
      "inputs": [
        {
          "internalType": "address",
          "name": "signer",
          "type": "address"
        }
      ],
      "name": "setSigner",
      "outputs": [],
      "stateMutability": "nonpayable",
      "type": "function"
    },
    {
      "inputs": [
        {
          "internalType": "uint64",
          "name": "start",
          "type": "uint64"
        }
      ],
      "name": "setStart",
      "outputs": [],
      "stateMutability": "nonpayable",
      "type": "function"
    },
    {
      "inputs": [
        {
          "internalType": "bytes4",
          "name": "_interfaceID",
          "type": "bytes4"
        }
      ],
      "name": "supportsInterface",
      "outputs": [
        {
          "internalType": "bool",
          "name": "",
          "type": "bool"
        }
      ],
      "stateMutability": "view",
      "type": "function"
    },
    {
      "inputs": [],
      "name": "symbol",
      "outputs": [
        {
          "internalType": "string",
          "name": "",
          "type": "string"
        }
      ],
      "stateMutability": "view",
      "type": "function"
    },
    {
      "inputs": [
        {
          "internalType": "uint8",
          "name": "",
          "type": "uint8"
        }
      ],
      "name": "tokenSupply",
      "outputs": [
        {
          "internalType": "uint16",
          "name": "",
          "type": "uint16"
        }
      ],
      "stateMutability": "view",
      "type": "function"
    },
    {
      "inputs": [
        {
          "internalType": "uint8",
          "name": "_id",
          "type": "uint8"
        }
      ],
      "name": "totalSupply",
      "outputs": [
        {
          "internalType": "uint16",
          "name": "",
          "type": "uint16"
        }
      ],
      "stateMutability": "view",
      "type": "function"
    },
    {
      "inputs": [
        {
          "internalType": "address",
          "name": "newOwner",
          "type": "address"
        }
      ],
      "name": "transferOwnership",
      "outputs": [],
      "stateMutability": "nonpayable",
      "type": "function"
    },
    {
      "inputs": [
        {
          "internalType": "uint256",
          "name": "_id",
          "type": "uint256"
        }
      ],
      "name": "uri",
      "outputs": [
        {
          "internalType": "string",
          "name": "",
          "type": "string"
        }
      ],
      "stateMutability": "view",
      "type": "function"
    },
    {
      "inputs": [
        {
          "internalType": "uint8",
          "name": "_id",
          "type": "uint8"
        }
      ],
      "name": "uri",
      "outputs": [
        {
          "internalType": "string",
          "name": "",
          "type": "string"
        }
      ],
      "stateMutability": "view",
      "type": "function"
    }
  ],
  "bytecode": "0x60806040523480156200001157600080fd5b50604051620061d6380380620061d683398181016040528101906200003791906200078d565b8787876200005a6200004e6200037160201b60201c565b6200037960201b60201c565b8260059080519060200190620000729291906200045b565b5081600690805190602001906200008b9291906200045b565b506200009d816200043f60201b60201c565b505050428567ffffffffffffffff1611620000ef576040517f08c379a0000000000000000000000000000000000000000000000000000000008152600401620000e69062000914565b60405180910390fd5b8467ffffffffffffffff168467ffffffffffffffff161180156200011c5750428467ffffffffffffffff16115b6200015e576040517f08c379a0000000000000000000000000000000000000000000000000000000008152600401620001559062000986565b60405180910390fd5b600073ffffffffffffffffffffffffffffffffffffffff168273ffffffffffffffffffffffffffffffffffffffff1603620001d0576040517f08c379a0000000000000000000000000000000000000000000000000000000008152600401620001c790620009f8565b60405180910390fd5b6000830362000216576040517f08c379a00000000000000000000000000000000000000000000000000000000081526004016200020d9062000a6a565b60405180910390fd5b600073ffffffffffffffffffffffffffffffffffffffff168173ffffffffffffffffffffffffffffffffffffffff160362000288576040517f08c379a00000000000000000000000000000000000000000000000000000000081526004016200027f9062000adc565b60405180910390fd5b84600760006101000a81548167ffffffffffffffff021916908367ffffffffffffffff16021790555083600760086101000a81548167ffffffffffffffff021916908367ffffffffffffffff16021790555081600960006101000a81548173ffffffffffffffffffffffffffffffffffffffff021916908373ffffffffffffffffffffffffffffffffffffffff1602179055508260088190555080600a60006101000a81548173ffffffffffffffffffffffffffffffffffffffff021916908373ffffffffffffffffffffffffffffffffffffffff160217905550505050505050505062000b62565b600033905090565b6000600360009054906101000a900473ffffffffffffffffffffffffffffffffffffffff16905081600360006101000a81548173ffffffffffffffffffffffffffffffffffffffff021916908373ffffffffffffffffffffffffffffffffffffffff1602179055508173ffffffffffffffffffffffffffffffffffffffff168173ffffffffffffffffffffffffffffffffffffffff167f8be0079c531659141344cd1fd0a4f28419497f9722a3daafe3b4186f6b6457e060405160405180910390a35050565b8060029080519060200190620004579291906200045b565b5050565b828054620004699062000b2d565b90600052602060002090601f0160209004810192826200048d5760008555620004d9565b82601f10620004a857805160ff1916838001178555620004d9565b82800160010185558215620004d9579182015b82811115620004d8578251825591602001919060010190620004bb565b5b509050620004e89190620004ec565b5090565b5b8082111562000507576000816000905550600101620004ed565b5090565b6000604051905090565b600080fd5b600080fd5b600080fd5b600080fd5b6000601f19601f8301169050919050565b7f4e487b7100000000000000000000000000000000000000000000000000000000600052604160045260246000fd5b620005748262000529565b810181811067ffffffffffffffff821117156200059657620005956200053a565b5b80604052505050565b6000620005ab6200050b565b9050620005b9828262000569565b919050565b600067ffffffffffffffff821115620005dc57620005db6200053a565b5b620005e78262000529565b9050602081019050919050565b60005b8381101562000614578082015181840152602081019050620005f7565b8381111562000624576000848401525b50505050565b6000620006416200063b84620005be565b6200059f565b90508281526020810184848401111562000660576200065f62000524565b5b6200066d848285620005f4565b509392505050565b600082601f8301126200068d576200068c6200051f565b5b81516200069f8482602086016200062a565b91505092915050565b600067ffffffffffffffff82169050919050565b620006c781620006a8565b8114620006d357600080fd5b50565b600081519050620006e781620006bc565b92915050565b6000819050919050565b6200070281620006ed565b81146200070e57600080fd5b50565b6000815190506200072281620006f7565b92915050565b600073ffffffffffffffffffffffffffffffffffffffff82169050919050565b6000620007558262000728565b9050919050565b620007678162000748565b81146200077357600080fd5b50565b60008151905062000787816200075c565b92915050565b600080600080600080600080610100898b031215620007b157620007b062000515565b5b600089015167ffffffffffffffff811115620007d257620007d16200051a565b5b620007e08b828c0162000675565b985050602089015167ffffffffffffffff8111156200080457620008036200051a565b5b620008128b828c0162000675565b975050604089015167ffffffffffffffff8111156200083657620008356200051a565b5b620008448b828c0162000675565b9650506060620008578b828c01620006d6565b95505060806200086a8b828c01620006d6565b94505060a06200087d8b828c0162000711565b93505060c0620008908b828c0162000776565b92505060e0620008a38b828c0162000776565b9150509295985092959890939650565b600082825260208201905092915050565b7f53746172742063616e6e6f7420626520696e2074686520706173740000000000600082015250565b6000620008fc601b83620008b3565b91506200090982620008c4565b602082019050919050565b600060208201905081810360008301526200092f81620008ed565b9050919050565b7f57726f6e6720656e6420646561646c696e650000000000000000000000000000600082015250565b60006200096e601283620008b3565b91506200097b8262000936565b602082019050919050565b60006020820190508181036000830152620009a1816200095f565b9050919050565b7f57726f6e67207369676e65720000000000000000000000000000000000000000600082015250565b6000620009e0600c83620008b3565b9150620009ed82620009a8565b602082019050919050565b6000602082019050818103600083015262000a1381620009d1565b9050919050565b7f57726f6e67204d65726b6c65526f6f7400000000000000000000000000000000600082015250565b600062000a52601083620008b3565b915062000a5f8262000a1a565b602082019050919050565b6000602082019050818103600083015262000a858162000a43565b9050919050565b7f57726f6e67204e46540000000000000000000000000000000000000000000000600082015250565b600062000ac4600983620008b3565b915062000ad18262000a8c565b602082019050919050565b6000602082019050818103600083015262000af78162000ab5565b9050919050565b7f4e487b7100000000000000000000000000000000000000000000000000000000600052602260045260246000fd5b6000600282049050600182168062000b4657607f821691505b60208210810362000b5c5762000b5b62000afe565b5b50919050565b6156648062000b726000396000f3fe608060405234801561001057600080fd5b506004361061018d5760003560e01c80637e518ec8116100de578063aebc048311610097578063e985e9c511610071578063e985e9c51461047c578063f242432a146104ac578063f2fde38b146104c8578063f7ade491146104e45761018d565b8063aebc048314610414578063b34cd6af14610430578063e11208d61461044c5761018d565b80637e518ec8146103685780638d562866146103845780638da5cb5b146103a057806390ffedf0146103be57806395d89b41146103da578063a22cb465146103f85761018d565b80633e0981d71161014b5780634e1273f4116101255780634e1273f4146102f65780636c19e78314610326578063715018a61461034257806379e91fa81461034c5761018d565b80633e0981d71461028c578063496d9f44146102a85780634a198119146102d85761018d565b8062fdd58e1461019257806301ffc9a7146101c257806306fdde03146101f25780630e89341c146102105780632eb2c2d61461024057806330a9e7f41461025c575b600080fd5b6101ac60048036038101906101a791906134e0565b610514565b6040516101b9919061352f565b60405180910390f35b6101dc60048036038101906101d791906135a2565b61056e565b6040516101e991906135ea565b60405180910390f35b6101fa6105ef565b604051610207919061369e565b60405180910390f35b61022a600480360381019061022591906136c0565b61067d565b604051610237919061369e565b60405180910390f35b61025a600480360381019061025591906138ea565b6106b1565b005b610276600480360381019061027191906139f2565b6107c0565b6040516102839190613a3c565b60405180910390f35b6102a660048036038101906102a19190613ab2565b610846565b005b6102c260048036038101906102bd91906139f2565b610c04565b6040516102cf9190613a3c565b60405180910390f35b6102e0610c35565b6040516102ed9190613b51565b60405180910390f35b610310600480360381019061030b9190613c2f565b610c58565b60405161031d9190613d65565b60405180910390f35b610340600480360381019061033b9190613d87565b610db9565b005b61034a610e74565b005b61036660048036038101906103619190613db4565b610e88565b005b610382600480360381019061037d9190613eb1565b61118d565b005b61039e60048036038101906103999190613f3a565b6111a1565b005b6103a861128d565b6040516103b59190613f76565b60405180910390f35b6103d860048036038101906103d39190613d87565b6112b7565b005b6103e2611525565b6040516103ef919061369e565b60405180910390f35b610412600480360381019061040d9190613fbd565b6115b3565b005b61042e60048036038101906104299190613f3a565b6116b0565b005b61044a60048036038101906104459190613ffd565b611765565b005b610466600480360381019061046191906139f2565b61178a565b604051610473919061369e565b60405180910390f35b6104966004803603810190610491919061402a565b611835565b6040516104a391906135ea565b60405180910390f35b6104c660048036038101906104c1919061406a565b6118c9565b005b6104e260048036038101906104dd9190613d87565b6119d8565b005b6104fe60048036038101906104f991906139f2565b611a5b565b60405161050b9190613a3c565b60405180910390f35b60008060008473ffffffffffffffffffffffffffffffffffffffff1673ffffffffffffffffffffffffffffffffffffffff168152602001908152602001600020600083815260200190815260200160002054905092915050565b60007fd9b67a26000000000000000000000000000000000000000000000000000000007bffffffffffffffffffffffffffffffffffffffffffffffffffffffff1916827bffffffffffffffffffffffffffffffffffffffffffffffffffffffff1916036105de57600190506105ea565b6105e782611a7c565b90505b919050565b600580546105fc90614130565b80601f016020809104026020016040519081016040528092919081815260200182805461062890614130565b80156106755780601f1061064a57610100808354040283529160200191610675565b820191906000526020600020905b81548152906001019060200180831161065857829003601f168201915b505050505081565b6060600261068a83611afd565b60405160200161069b92919061427d565b6040516020818303038152906040529050919050565b8473ffffffffffffffffffffffffffffffffffffffff163373ffffffffffffffffffffffffffffffffffffffff1614806106f157506106f08533611835565b5b610730576040517f08c379a00000000000000000000000000000000000000000000000000000000081526004016107279061431e565b60405180910390fd5b600073ffffffffffffffffffffffffffffffffffffffff168473ffffffffffffffffffffffffffffffffffffffff160361079f576040517f08c379a0000000000000000000000000000000000000000000000000000000008152600401610796906143b0565b60405180910390fd5b6107ab85858585611c72565b6107b9858585855a86611f66565b5050505050565b6000808260ff161180156107d8575060028260ff1611155b610817576040517f08c379a000000000000000000000000000000000000000000000000000000000815260040161080e9061441c565b60405180910390fd5b600460008360ff1660ff16815260200190815260200160002060009054906101000a900461ffff169050919050565b600a60149054906101000a900460ff16610895576040517f08c379a000000000000000000000000000000000000000000000000000000000815260040161088c90614488565b60405180910390fd5b42600760009054906101000a900467ffffffffffffffff1667ffffffffffffffff1610156108f8576040517f08c379a00000000000000000000000000000000000000000000000000000000081526004016108ef906144f4565b60405180910390fd5b42600760089054906101000a900467ffffffffffffffff1667ffffffffffffffff161061095a576040517f08c379a000000000000000000000000000000000000000000000000000000000815260040161095190614560565b60405180910390fd5b600c600085815260200190815260200160002060009054906101000a900460ff16156109bb576040517f08c379a00000000000000000000000000000000000000000000000000000000081526004016109b2906145cc565b60405180910390fd5b60006109c561213d565b90508073ffffffffffffffffffffffffffffffffffffffff16600a60009054906101000a900473ffffffffffffffffffffffffffffffffffffffff1673ffffffffffffffffffffffffffffffffffffffff16636352211e876040518263ffffffff1660e01b8152600401610a39919061352f565b602060405180830381865afa158015610a56573d6000803e3d6000fd5b505050506040513d601f19601f82011682018060405250810190610a7a9190614601565b73ffffffffffffffffffffffffffffffffffffffff1614610ad0576040517f08c379a0000000000000000000000000000000000000000000000000000000008152600401610ac79061467a565b60405180910390fd5b610adb818686612145565b610b1a576040517f08c379a0000000000000000000000000000000000000000000000000000000008152600401610b11906146e6565b60405180910390fd5b600085604051602001610b2d9190614727565b604051602081830303815290604052805190602001209050610b9081858580806020026020016040519081016040528093929190818152602001838360200280828437600081840152601f19601f820116905080830192505050505050506121ca565b610bcf576040517f08c379a0000000000000000000000000000000000000000000000000000000008152600401610bc69061478e565b60405180910390fd5b610bd960026121e1565b610bee57610be8826001612218565b50610bfc565b610bfb826002600161228d565b5b505050505050565b6000600460008360ff1660ff16815260200190815260200160002060009054906101000a900461ffff169050919050565b60006001600360149054906101000a900460ff16610c5391906147dd565b905090565b60608151835114610c9e576040517f08c379a0000000000000000000000000000000000000000000000000000000008152600401610c9590614886565b60405180910390fd5b6000835167ffffffffffffffff811115610cbb57610cba6136f2565b5b604051908082528060200260200182016040528015610ce95781602001602082028036833780820191505090505b50905060005b8451811015610dae57600080868381518110610d0e57610d0d6148a6565b5b602002602001015173ffffffffffffffffffffffffffffffffffffffff1673ffffffffffffffffffffffffffffffffffffffff1681526020019081526020016000206000858381518110610d6557610d646148a6565b5b6020026020010151815260200190815260200160002054828281518110610d8f57610d8e6148a6565b5b6020026020010181815250508080610da6906148d5565b915050610cef565b508091505092915050565b610dc1612304565b600073ffffffffffffffffffffffffffffffffffffffff168173ffffffffffffffffffffffffffffffffffffffff1603610e30576040517f08c379a0000000000000000000000000000000000000000000000000000000008152600401610e2790614969565b60405180910390fd5b80600960006101000a81548173ffffffffffffffffffffffffffffffffffffffff021916908373ffffffffffffffffffffffffffffffffffffffff16021790555050565b610e7c612304565b610e866000612382565b565b600a60149054906101000a900460ff16610ed7576040517f08c379a0000000000000000000000000000000000000000000000000000000008152600401610ece90614488565b60405180910390fd5b42600760009054906101000a900467ffffffffffffffff1667ffffffffffffffff161015610f3a576040517f08c379a0000000000000000000000000000000000000000000000000000000008152600401610f31906144f4565b60405180910390fd5b42600760089054906101000a900467ffffffffffffffff1667ffffffffffffffff1610610f9c576040517f08c379a0000000000000000000000000000000000000000000000000000000008152600401610f9390614560565b60405180910390fd5b600b600083815260200190815260200160002060009054906101000a900460ff1615610ffd576040517f08c379a0000000000000000000000000000000000000000000000000000000008152600401610ff4906145cc565b60405180910390fd5b600061100761213d565b90508073ffffffffffffffffffffffffffffffffffffffff16600a60009054906101000a900473ffffffffffffffffffffffffffffffffffffffff1673ffffffffffffffffffffffffffffffffffffffff16636352211e856040518263ffffffff1660e01b815260040161107b919061352f565b602060405180830381865afa158015611098573d6000803e3d6000fd5b505050506040513d601f19601f820116820180604052508101906110bc9190614601565b73ffffffffffffffffffffffffffffffffffffffff1614611112576040517f08c379a00000000000000000000000000000000000000000000000000000000081526004016111099061467a565b60405180910390fd5b61111d818484612145565b61115c576040517f08c379a0000000000000000000000000000000000000000000000000000000008152600401611153906146e6565b60405180910390fd5b61116660016121e1565b61117b57611175816001612218565b50611188565b6111878160018061228d565b5b505050565b611195612304565b61119e81612448565b50565b6111a9612304565b428167ffffffffffffffff16116111f5576040517f08c379a00000000000000000000000000000000000000000000000000000000081526004016111ec906149d5565b60405180910390fd5b8067ffffffffffffffff16600760089054906101000a900467ffffffffffffffff1667ffffffffffffffff1611611261576040517f08c379a000000000000000000000000000000000000000000000000000000000815260040161125890614a41565b60405180910390fd5b80600760006101000a81548167ffffffffffffffff021916908367ffffffffffffffff16021790555050565b6000600360009054906101000a900473ffffffffffffffffffffffffffffffffffffffff16905090565b6112bf612304565b600a60149054906101000a900460ff1661130e576040517f08c379a000000000000000000000000000000000000000000000000000000000815260040161130590614488565b60405180910390fd5b42600760089054906101000a900467ffffffffffffffff1667ffffffffffffffff1610611370576040517f08c379a000000000000000000000000000000000000000000000000000000000815260040161136790614aad565b60405180910390fd5b600060046000600160ff16815260200190815260200160002060009054906101000a900461ffff1690506000816127106113aa9190614acd565b61ffff169050600060046000600260ff16815260200190815260200160002060009054906101000a900461ffff1661ffff16905060008160346113ed9190614b01565b90506000600267ffffffffffffffff81111561140c5761140b6136f2565b5b60405190808252806020026020018201604052801561143a5781602001602082028036833780820191505090505b509050600181600081518110611453576114526148a6565b5b602002602001018181525050600281600181518110611475576114746148a6565b5b6020026020010181815250506000600267ffffffffffffffff81111561149e5761149d6136f2565b5b6040519080825280602002602001820160405280156114cc5781602001602082028036833780820191505090505b50905084816000815181106114e4576114e36148a6565b5b6020026020010181815250508281600181518110611505576115046148a6565b5b60200260200101818152505061151c878383612462565b50505050505050565b6006805461153290614130565b80601f016020809104026020016040519081016040528092919081815260200182805461155e90614130565b80156115ab5780601f10611580576101008083540402835291602001916115ab565b820191906000526020600020905b81548152906001019060200180831161158e57829003601f168201915b505050505081565b80600160003373ffffffffffffffffffffffffffffffffffffffff1673ffffffffffffffffffffffffffffffffffffffff16815260200190815260200160002060008473ffffffffffffffffffffffffffffffffffffffff1673ffffffffffffffffffffffffffffffffffffffff16815260200190815260200160002060006101000a81548160ff0219169083151502179055508173ffffffffffffffffffffffffffffffffffffffff163373ffffffffffffffffffffffffffffffffffffffff167f17307eab39ab6107e8899845ad3d59bd9653f200f220920489ca2b5937696c31836040516116a491906135ea565b60405180910390a35050565b6116b8612304565b600760009054906101000a900467ffffffffffffffff1667ffffffffffffffff168167ffffffffffffffff161180156116fa5750428167ffffffffffffffff16115b611739576040517f08c379a000000000000000000000000000000000000000000000000000000000815260040161173090614b81565b60405180910390fd5b80600760086101000a81548167ffffffffffffffff021916908367ffffffffffffffff16021790555050565b61176d612304565b80600a60146101000a81548160ff02191690831515021790555050565b6060611795826121e1565b6117d4576040517f08c379a00000000000000000000000000000000000000000000000000000000081526004016117cb90614c13565b60405180910390fd5b6000600280546117e390614130565b9050116117ff576040518060200160405280600081525061182e565b600261180d8360ff16612532565b60405160200161181e929190614c33565b6040516020818303038152906040525b9050919050565b6000600160008473ffffffffffffffffffffffffffffffffffffffff1673ffffffffffffffffffffffffffffffffffffffff16815260200190815260200160002060008373ffffffffffffffffffffffffffffffffffffffff1673ffffffffffffffffffffffffffffffffffffffff16815260200190815260200160002060009054906101000a900460ff16905092915050565b8473ffffffffffffffffffffffffffffffffffffffff163373ffffffffffffffffffffffffffffffffffffffff16148061190957506119088533611835565b5b611948576040517f08c379a000000000000000000000000000000000000000000000000000000000815260040161193f90614cc9565b60405180910390fd5b600073ffffffffffffffffffffffffffffffffffffffff168473ffffffffffffffffffffffffffffffffffffffff16036119b7576040517f08c379a00000000000000000000000000000000000000000000000000000000081526004016119ae90614d5b565b60405180910390fd5b6119c385858585612692565b6119d1858585855a86612880565b5050505050565b6119e0612304565b600073ffffffffffffffffffffffffffffffffffffffff168173ffffffffffffffffffffffffffffffffffffffff1603611a4f576040517f08c379a0000000000000000000000000000000000000000000000000000000008152600401611a4690614ded565b60405180910390fd5b611a5881612382565b50565b60046020528060005260406000206000915054906101000a900461ffff1681565b60007f0e89341c000000000000000000000000000000000000000000000000000000007bffffffffffffffffffffffffffffffffffffffffffffffffffffffff1916827bffffffffffffffffffffffffffffffffffffffffffffffffffffffff191603611aec5760019050611af8565b611af582612a57565b90505b919050565b606060008203611b44576040518060400160405280600181526020017f30000000000000000000000000000000000000000000000000000000000000008152509050611c6d565b6000829050600083905060005b60008314611b7b578080611b64906148d5565b915050600a83611b749190614e3c565b9250611b51565b60008167ffffffffffffffff811115611b9757611b966136f2565b5b6040519080825280601f01601f191660200182016040528015611bc95781602001600182028036833780820191505090505b5090506000600183611bdb9190614b01565b90505b60008414611c6457600a84611bf39190614e6d565b6030611bff9190614e9e565b60f81b828280611c0e90614ef4565b935081518110611c2157611c206148a6565b5b60200101907effffffffffffffffffffffffffffffffffffffffffffffffffffffffffffff1916908160001a905350600a84611c5d9190614e3c565b9350611bde565b81955050505050505b919050565b8051825114611cb6576040517f08c379a0000000000000000000000000000000000000000000000000000000008152600401611cad90614f8f565b60405180910390fd5b60008251905060005b81811015611ee057611d5d838281518110611cdd57611cdc6148a6565b5b60200260200101516000808973ffffffffffffffffffffffffffffffffffffffff1673ffffffffffffffffffffffffffffffffffffffff1681526020019081526020016000206000878581518110611d3857611d376148a6565b5b6020026020010151815260200190815260200160002054612ad890919063ffffffff16565b6000808873ffffffffffffffffffffffffffffffffffffffff1673ffffffffffffffffffffffffffffffffffffffff1681526020019081526020016000206000868481518110611db057611daf6148a6565b5b6020026020010151815260200190815260200160002081905550611e60838281518110611de057611ddf6148a6565b5b60200260200101516000808873ffffffffffffffffffffffffffffffffffffffff1673ffffffffffffffffffffffffffffffffffffffff1681526020019081526020016000206000878581518110611e3b57611e3a6148a6565b5b6020026020010151815260200190815260200160002054612aee90919063ffffffff16565b6000808773ffffffffffffffffffffffffffffffffffffffff1673ffffffffffffffffffffffffffffffffffffffff1681526020019081526020016000206000868481518110611eb357611eb26148a6565b5b60200260200101518152602001908152602001600020819055508080611ed8906148d5565b915050611cbf565b508373ffffffffffffffffffffffffffffffffffffffff168573ffffffffffffffffffffffffffffffffffffffff163373ffffffffffffffffffffffffffffffffffffffff167f4a39dc06d4c0dbc64b70af90fd698a233a518aa5d07e595d983b8c0526c8f7fb8686604051611f57929190614faf565b60405180910390a45050505050565b611f858573ffffffffffffffffffffffffffffffffffffffff16612b04565b15612135578473ffffffffffffffffffffffffffffffffffffffff1663bc197c8133888787866040518663ffffffff1660e01b8152600401611fcb95949392919061503b565b6020604051808303816000875af192505050801561200757506040513d601f19601f8201168201806040525081019061200491906150b8565b60015b6120ac576120136150f2565b806308c379a00361206f5750612027615114565b806120325750612071565b806040517f08c379a0000000000000000000000000000000000000000000000000000000008152600401612066919061369e565b60405180910390fd5b505b6040517f08c379a00000000000000000000000000000000000000000000000000000000081526004016120a390615216565b60405180910390fd5b63bc197c8160e01b7bffffffffffffffffffffffffffffffffffffffffffffffffffffffff1916817bffffffffffffffffffffffffffffffffffffffffffffffffffffffff191614612133576040517f08c379a000000000000000000000000000000000000000000000000000000000815260040161212a906152a8565b60405180910390fd5b505b505050505050565b600033905090565b600080848460405160200161215b929190615310565b6040516020818303038152906040528051906020012090506121c08184600960009054906101000a900473ffffffffffffffffffffffffffffffffffffffff1673ffffffffffffffffffffffffffffffffffffffff16612b279092919063ffffffff16565b9150509392505050565b60006121d98260085485612d0c565b905092915050565b600080600460008460ff1660ff16815260200190815260200160002060009054906101000a900461ffff1661ffff16119050919050565b600080612223610c35565b905061222d612d23565b61224f848260ff168561ffff1660405180602001604052806000815250612d5d565b82600460008360ff1660ff16815260200190815260200160002060006101000a81548161ffff021916908361ffff1602179055508091505092915050565b6122af838360ff168361ffff1660405180602001604052806000815250612d5d565b80600460008460ff1660ff16815260200190815260200160002060008282829054906101000a900461ffff166122e5919061533c565b92506101000a81548161ffff021916908361ffff160217905550505050565b61230c61213d565b73ffffffffffffffffffffffffffffffffffffffff1661232a61128d565b73ffffffffffffffffffffffffffffffffffffffff1614612380576040517f08c379a0000000000000000000000000000000000000000000000000000000008152600401612377906153c0565b60405180910390fd5b565b6000600360009054906101000a900473ffffffffffffffffffffffffffffffffffffffff16905081600360006101000a81548173ffffffffffffffffffffffffffffffffffffffff021916908373ffffffffffffffffffffffffffffffffffffffff1602179055508173ffffffffffffffffffffffffffffffffffffffff168173ffffffffffffffffffffffffffffffffffffffff167f8be0079c531659141344cd1fd0a4f28419497f9722a3daafe3b4186f6b6457e060405160405180910390a35050565b806002908051906020019061245e929190613395565b5050565b60005b8251811015612511576000838281518110612483576124826148a6565b5b6020026020010151905060008383815181106124a2576124a16148a6565b5b6020026020010151905080600460008460ff1660ff16815260200190815260200160002060008282829054906101000a900461ffff166124e2919061533c565b92506101000a81548161ffff021916908361ffff16021790555050508080612509906148d5565b915050612465565b5061252d83838360405180602001604052806000815250612ea6565b505050565b606060008203612579576040518060400160405280600181526020017f3000000000000000000000000000000000000000000000000000000000000000815250905061268d565b600082905060005b600082146125ab578080612594906148d5565b915050600a826125a49190614e3c565b9150612581565b60008167ffffffffffffffff8111156125c7576125c66136f2565b5b6040519080825280601f01601f1916602001820160405280156125f95781602001600182028036833780820191505090505b5090505b60008514612686576001826126129190614b01565b9150600a856126219190614e6d565b603061262d9190614e9e565b60f81b818381518110612643576126426148a6565b5b60200101907effffffffffffffffffffffffffffffffffffffffffffffffffffffffffffff1916908160001a905350600a8561267f9190614e3c565b94506125fd565b8093505050505b919050565b6126f4816000808773ffffffffffffffffffffffffffffffffffffffff1673ffffffffffffffffffffffffffffffffffffffff168152602001908152602001600020600085815260200190815260200160002054612ad890919063ffffffff16565b6000808673ffffffffffffffffffffffffffffffffffffffff1673ffffffffffffffffffffffffffffffffffffffff1681526020019081526020016000206000848152602001908152602001600020819055506127a9816000808673ffffffffffffffffffffffffffffffffffffffff1673ffffffffffffffffffffffffffffffffffffffff168152602001908152602001600020600085815260200190815260200160002054612aee90919063ffffffff16565b6000808573ffffffffffffffffffffffffffffffffffffffff1673ffffffffffffffffffffffffffffffffffffffff1681526020019081526020016000206000848152602001908152602001600020819055508273ffffffffffffffffffffffffffffffffffffffff168473ffffffffffffffffffffffffffffffffffffffff163373ffffffffffffffffffffffffffffffffffffffff167fc3d58168c5ae7397731d063d5bbf3d657854427343f4c083240f7aacaa2d0f6285856040516128729291906153e0565b60405180910390a450505050565b61289f8573ffffffffffffffffffffffffffffffffffffffff16612b04565b15612a4f578473ffffffffffffffffffffffffffffffffffffffff1663f23a6e6133888787866040518663ffffffff1660e01b81526004016128e5959493929190615409565b6020604051808303816000875af192505050801561292157506040513d601f19601f8201168201806040525081019061291e91906150b8565b60015b6129c65761292d6150f2565b806308c379a0036129895750612941615114565b8061294c575061298b565b806040517f08c379a0000000000000000000000000000000000000000000000000000000008152600401612980919061369e565b60405180910390fd5b505b6040517f08c379a00000000000000000000000000000000000000000000000000000000081526004016129bd90615216565b60405180910390fd5b63f23a6e6160e01b7bffffffffffffffffffffffffffffffffffffffffffffffffffffffff1916817bffffffffffffffffffffffffffffffffffffffffffffffffffffffff191614612a4d576040517f08c379a0000000000000000000000000000000000000000000000000000000008152600401612a44906152a8565b60405180910390fd5b505b505050505050565b60007fd9b67a26000000000000000000000000000000000000000000000000000000007bffffffffffffffffffffffffffffffffffffffffffffffffffffffff1916827bffffffffffffffffffffffffffffffffffffffffffffffffffffffff191603612ac75760019050612ad3565b612ad0826130a7565b90505b919050565b60008183612ae69190614b01565b905092915050565b60008183612afc9190614e9e565b905092915050565b6000808273ffffffffffffffffffffffffffffffffffffffff163b119050919050565b6000806000612b368585613111565b9150915060006004811115612b4e57612b4d615463565b5b816004811115612b6157612b60615463565b5b148015612b9957508573ffffffffffffffffffffffffffffffffffffffff168273ffffffffffffffffffffffffffffffffffffffff16145b15612ba957600192505050612d05565b6000808773ffffffffffffffffffffffffffffffffffffffff16631626ba7e60e01b8888604051602401612bde9291906154ab565b604051602081830303815290604052907bffffffffffffffffffffffffffffffffffffffffffffffffffffffff19166020820180517bffffffffffffffffffffffffffffffffffffffffffffffffffffffff8381831617835250505050604051612c489190615517565b600060405180830381855afa9150503d8060008114612c83576040519150601f19603f3d011682016040523d82523d6000602084013e612c88565b606091505b5091509150818015612c9b575060208151145b8015612cfe5750631626ba7e60e01b7bffffffffffffffffffffffffffffffffffffffffffffffffffffffff191681806020019051810190612cdd91906150b8565b7bffffffffffffffffffffffffffffffffffffffffffffffffffffffff1916145b9450505050505b9392505050565b600082612d198584613192565b1490509392505050565b6003601481819054906101000a900460ff1680929190612d429061552e565b91906101000a81548160ff021916908360ff16021790555050565b612dbf826000808773ffffffffffffffffffffffffffffffffffffffff1673ffffffffffffffffffffffffffffffffffffffff168152602001908152602001600020600086815260200190815260200160002054612aee90919063ffffffff16565b6000808673ffffffffffffffffffffffffffffffffffffffff1673ffffffffffffffffffffffffffffffffffffffff1681526020019081526020016000206000858152602001908152602001600020819055508373ffffffffffffffffffffffffffffffffffffffff16600073ffffffffffffffffffffffffffffffffffffffff163373ffffffffffffffffffffffffffffffffffffffff167fc3d58168c5ae7397731d063d5bbf3d657854427343f4c083240f7aacaa2d0f628686604051612e899291906153e0565b60405180910390a4612ea060008585855a86612880565b50505050565b8151835114612eea576040517f08c379a0000000000000000000000000000000000000000000000000000000008152600401612ee1906155c9565b60405180910390fd5b60008351905060005b8181101561301157612f91848281518110612f1157612f106148a6565b5b60200260200101516000808973ffffffffffffffffffffffffffffffffffffffff1673ffffffffffffffffffffffffffffffffffffffff1681526020019081526020016000206000888581518110612f6c57612f6b6148a6565b5b6020026020010151815260200190815260200160002054612aee90919063ffffffff16565b6000808873ffffffffffffffffffffffffffffffffffffffff1673ffffffffffffffffffffffffffffffffffffffff1681526020019081526020016000206000878481518110612fe457612fe36148a6565b5b60200260200101518152602001908152602001600020819055508080613009906148d5565b915050612ef3565b508473ffffffffffffffffffffffffffffffffffffffff16600073ffffffffffffffffffffffffffffffffffffffff163373ffffffffffffffffffffffffffffffffffffffff167f4a39dc06d4c0dbc64b70af90fd698a233a518aa5d07e595d983b8c0526c8f7fb8787604051613089929190614faf565b60405180910390a46130a060008686865a87611f66565b5050505050565b60007f01ffc9a7000000000000000000000000000000000000000000000000000000007bffffffffffffffffffffffffffffffffffffffffffffffffffffffff1916827bffffffffffffffffffffffffffffffffffffffffffffffffffffffff1916149050919050565b60008060418351036131525760008060006020860151925060408601519150606086015160001a9050613146878285856131e8565b9450945050505061318b565b60408351036131825760008060208501519150604085015190506131778683836132f4565b93509350505061318b565b60006002915091505b9250929050565b60008082905060005b84518110156131dd576131c8828683815181106131bb576131ba6148a6565b5b6020026020010151613353565b915080806131d5906148d5565b91505061319b565b508091505092915050565b6000807f7fffffffffffffffffffffffffffffff5d576e7357a4501ddfe92f46681b20a08360001c11156132235760006003915091506132eb565b601b8560ff161415801561323b5750601c8560ff1614155b1561324d5760006004915091506132eb565b60006001878787876040516000815260200160405260405161327294939291906155e9565b6020604051602081039080840390855afa158015613294573d6000803e3d6000fd5b505050602060405103519050600073ffffffffffffffffffffffffffffffffffffffff168173ffffffffffffffffffffffffffffffffffffffff16036132e2576000600192509250506132eb565b80600092509250505b94509492505050565b60008060007f7fffffffffffffffffffffffffffffffffffffffffffffffffffffffffffffff60001b841690506000601b60ff8660001c901c6133379190614e9e565b9050613345878288856131e8565b935093505050935093915050565b600081831061336b57613366828461337e565b613376565b613375838361337e565b5b905092915050565b600082600052816020526040600020905092915050565b8280546133a190614130565b90600052602060002090601f0160209004810192826133c3576000855561340a565b82601f106133dc57805160ff191683800117855561340a565b8280016001018555821561340a579182015b828111156134095782518255916020019190600101906133ee565b5b509050613417919061341b565b5090565b5b8082111561343457600081600090555060010161341c565b5090565b6000604051905090565b600080fd5b600080fd5b600073ffffffffffffffffffffffffffffffffffffffff82169050919050565b60006134778261344c565b9050919050565b6134878161346c565b811461349257600080fd5b50565b6000813590506134a48161347e565b92915050565b6000819050919050565b6134bd816134aa565b81146134c857600080fd5b50565b6000813590506134da816134b4565b92915050565b600080604083850312156134f7576134f6613442565b5b600061350585828601613495565b9250506020613516858286016134cb565b9150509250929050565b613529816134aa565b82525050565b60006020820190506135446000830184613520565b92915050565b60007fffffffff0000000000000000000000000000000000000000000000000000000082169050919050565b61357f8161354a565b811461358a57600080fd5b50565b60008135905061359c81613576565b92915050565b6000602082840312156135b8576135b7613442565b5b60006135c68482850161358d565b91505092915050565b60008115159050919050565b6135e4816135cf565b82525050565b60006020820190506135ff60008301846135db565b92915050565b600081519050919050565b600082825260208201905092915050565b60005b8381101561363f578082015181840152602081019050613624565b8381111561364e576000848401525b50505050565b6000601f19601f8301169050919050565b600061367082613605565b61367a8185613610565b935061368a818560208601613621565b61369381613654565b840191505092915050565b600060208201905081810360008301526136b88184613665565b905092915050565b6000602082840312156136d6576136d5613442565b5b60006136e4848285016134cb565b91505092915050565b600080fd5b7f4e487b7100000000000000000000000000000000000000000000000000000000600052604160045260246000fd5b61372a82613654565b810181811067ffffffffffffffff82111715613749576137486136f2565b5b80604052505050565b600061375c613438565b90506137688282613721565b919050565b600067ffffffffffffffff821115613788576137876136f2565b5b602082029050602081019050919050565b600080fd5b60006137b16137ac8461376d565b613752565b905080838252602082019050602084028301858111156137d4576137d3613799565b5b835b818110156137fd57806137e988826134cb565b8452602084019350506020810190506137d6565b5050509392505050565b600082601f83011261381c5761381b6136ed565b5b813561382c84826020860161379e565b91505092915050565b600080fd5b600067ffffffffffffffff821115613855576138546136f2565b5b61385e82613654565b9050602081019050919050565b82818337600083830152505050565b600061388d6138888461383a565b613752565b9050828152602081018484840111156138a9576138a8613835565b5b6138b484828561386b565b509392505050565b600082601f8301126138d1576138d06136ed565b5b81356138e184826020860161387a565b91505092915050565b600080600080600060a0868803121561390657613905613442565b5b600061391488828901613495565b955050602061392588828901613495565b945050604086013567ffffffffffffffff81111561394657613945613447565b5b61395288828901613807565b935050606086013567ffffffffffffffff81111561397357613972613447565b5b61397f88828901613807565b925050608086013567ffffffffffffffff8111156139a05761399f613447565b5b6139ac888289016138bc565b9150509295509295909350565b600060ff82169050919050565b6139cf816139b9565b81146139da57600080fd5b50565b6000813590506139ec816139c6565b92915050565b600060208284031215613a0857613a07613442565b5b6000613a16848285016139dd565b91505092915050565b600061ffff82169050919050565b613a3681613a1f565b82525050565b6000602082019050613a516000830184613a2d565b92915050565b600080fd5b60008083601f840112613a7257613a716136ed565b5b8235905067ffffffffffffffff811115613a8f57613a8e613a57565b5b602083019150836020820283011115613aab57613aaa613799565b5b9250929050565b60008060008060608587031215613acc57613acb613442565b5b6000613ada878288016134cb565b945050602085013567ffffffffffffffff811115613afb57613afa613447565b5b613b07878288016138bc565b935050604085013567ffffffffffffffff811115613b2857613b27613447565b5b613b3487828801613a5c565b925092505092959194509250565b613b4b816139b9565b82525050565b6000602082019050613b666000830184613b42565b92915050565b600067ffffffffffffffff821115613b8757613b866136f2565b5b602082029050602081019050919050565b6000613bab613ba684613b6c565b613752565b90508083825260208201905060208402830185811115613bce57613bcd613799565b5b835b81811015613bf75780613be38882613495565b845260208401935050602081019050613bd0565b5050509392505050565b600082601f830112613c1657613c156136ed565b5b8135613c26848260208601613b98565b91505092915050565b60008060408385031215613c4657613c45613442565b5b600083013567ffffffffffffffff811115613c6457613c63613447565b5b613c7085828601613c01565b925050602083013567ffffffffffffffff811115613c9157613c90613447565b5b613c9d85828601613807565b9150509250929050565b600081519050919050565b600082825260208201905092915050565b6000819050602082019050919050565b613cdc816134aa565b82525050565b6000613cee8383613cd3565b60208301905092915050565b6000602082019050919050565b6000613d1282613ca7565b613d1c8185613cb2565b9350613d2783613cc3565b8060005b83811015613d58578151613d3f8882613ce2565b9750613d4a83613cfa565b925050600181019050613d2b565b5085935050505092915050565b60006020820190508181036000830152613d7f8184613d07565b905092915050565b600060208284031215613d9d57613d9c613442565b5b6000613dab84828501613495565b91505092915050565b60008060408385031215613dcb57613dca613442565b5b6000613dd9858286016134cb565b925050602083013567ffffffffffffffff811115613dfa57613df9613447565b5b613e06858286016138bc565b9150509250929050565b600067ffffffffffffffff821115613e2b57613e2a6136f2565b5b613e3482613654565b9050602081019050919050565b6000613e54613e4f84613e10565b613752565b905082815260208101848484011115613e7057613e6f613835565b5b613e7b84828561386b565b509392505050565b600082601f830112613e9857613e976136ed565b5b8135613ea8848260208601613e41565b91505092915050565b600060208284031215613ec757613ec6613442565b5b600082013567ffffffffffffffff811115613ee557613ee4613447565b5b613ef184828501613e83565b91505092915050565b600067ffffffffffffffff82169050919050565b613f1781613efa565b8114613f2257600080fd5b50565b600081359050613f3481613f0e565b92915050565b600060208284031215613f5057613f4f613442565b5b6000613f5e84828501613f25565b91505092915050565b613f708161346c565b82525050565b6000602082019050613f8b6000830184613f67565b92915050565b613f9a816135cf565b8114613fa557600080fd5b50565b600081359050613fb781613f91565b92915050565b60008060408385031215613fd457613fd3613442565b5b6000613fe285828601613495565b9250506020613ff385828601613fa8565b9150509250929050565b60006020828403121561401357614012613442565b5b600061402184828501613fa8565b91505092915050565b6000806040838503121561404157614040613442565b5b600061404f85828601613495565b925050602061406085828601613495565b9150509250929050565b600080600080600060a0868803121561408657614085613442565b5b600061409488828901613495565b95505060206140a588828901613495565b94505060406140b6888289016134cb565b93505060606140c7888289016134cb565b925050608086013567ffffffffffffffff8111156140e8576140e7613447565b5b6140f4888289016138bc565b9150509295509295909350565b7f4e487b7100000000000000000000000000000000000000000000000000000000600052602260045260246000fd5b6000600282049050600182168061414857607f821691505b60208210810361415b5761415a614101565b5b50919050565b600081905092915050565b60008190508160005260206000209050919050565b6000815461418e81614130565b6141988186614161565b945060018216600081146141b357600181146141c4576141f7565b60ff198316865281860193506141f7565b6141cd8561416c565b60005b838110156141ef578154818901526001820191506020810190506141d0565b838801955050505b50505092915050565b600061420b82613605565b6142158185614161565b9350614225818560208601613621565b80840191505092915050565b7f2e6a736f6e000000000000000000000000000000000000000000000000000000600082015250565b6000614267600583614161565b915061427282614231565b600582019050919050565b60006142898285614181565b91506142958284614200565b91506142a08261425a565b91508190509392505050565b7f45524331313535237361666542617463685472616e7366657246726f6d3a204960008201527f4e56414c49445f4f50455241544f520000000000000000000000000000000000602082015250565b6000614308602f83613610565b9150614313826142ac565b604082019050919050565b60006020820190508181036000830152614337816142fb565b9050919050565b7f45524331313535237361666542617463685472616e7366657246726f6d3a204960008201527f4e56414c49445f524543495049454e5400000000000000000000000000000000602082015250565b600061439a603083613610565b91506143a58261433e565b604082019050919050565b600060208201905081810360008301526143c98161438d565b9050919050565b7f57726f6e6720746f6b656e206964000000000000000000000000000000000000600082015250565b6000614406600e83613610565b9150614411826143d0565b602082019050919050565b60006020820190508181036000830152614435816143f9565b9050919050565b7f4d696e74696e6720697320506175736564000000000000000000000000000000600082015250565b6000614472601183613610565b915061447d8261443c565b602082019050919050565b600060208201905081810360008301526144a181614465565b9050919050565b7f4d696e74696e67206e6f74207965742073746172746564000000000000000000600082015250565b60006144de601783613610565b91506144e9826144a8565b602082019050919050565b6000602082019050818103600083015261450d816144d1565b9050919050565b7f4d696e74696e6720616c726561647920656e6465640000000000000000000000600082015250565b600061454a601583613610565b915061455582614514565b602082019050919050565b600060208201905081810360008301526145798161453d565b9050919050565b7f546f6b656e20616c726561647920757365640000000000000000000000000000600082015250565b60006145b6601283613610565b91506145c182614580565b602082019050919050565b600060208201905081810360008301526145e5816145a9565b9050919050565b6000815190506145fb8161347e565b92915050565b60006020828403121561461757614616613442565b5b6000614625848285016145ec565b91505092915050565b7f4e6f7420746f6b656e206f776e65720000000000000000000000000000000000600082015250565b6000614664600f83613610565b915061466f8261462e565b602082019050919050565b6000602082019050818103600083015261469381614657565b9050919050565b7f57726f6e67207369676e61747572650000000000000000000000000000000000600082015250565b60006146d0600f83613610565b91506146db8261469a565b602082019050919050565b600060208201905081810360008301526146ff816146c3565b9050919050565b6000819050919050565b61472161471c826134aa565b614706565b82525050565b60006147338284614710565b60208201915081905092915050565b7f496e76616c6964206d65726b6c652070726f6f66000000000000000000000000600082015250565b6000614778601483613610565b915061478382614742565b602082019050919050565b600060208201905081810360008301526147a78161476b565b9050919050565b7f4e487b7100000000000000000000000000000000000000000000000000000000600052601160045260246000fd5b60006147e8826139b9565b91506147f3836139b9565b92508260ff03821115614809576148086147ae565b5b828201905092915050565b7f455243313135352362616c616e63654f6642617463683a20494e56414c49445f60008201527f41525241595f4c454e4754480000000000000000000000000000000000000000602082015250565b6000614870602c83613610565b915061487b82614814565b604082019050919050565b6000602082019050818103600083015261489f81614863565b9050919050565b7f4e487b7100000000000000000000000000000000000000000000000000000000600052603260045260246000fd5b60006148e0826134aa565b91507fffffffffffffffffffffffffffffffffffffffffffffffffffffffffffffffff8203614912576149116147ae565b5b600182019050919050565b7f57726f6e67207369676e65720000000000000000000000000000000000000000600082015250565b6000614953600c83613610565b915061495e8261491d565b602082019050919050565b6000602082019050818103600083015261498281614946565b9050919050565b7f53746172742063616e6e6f7420626520696e2074686520706173740000000000600082015250565b60006149bf601b83613610565b91506149ca82614989565b602082019050919050565b600060208201905081810360008301526149ee816149b2565b9050919050565b7f53746172742069732067726561746572207468616e20656e6400000000000000600082015250565b6000614a2b601983613610565b9150614a36826149f5565b602082019050919050565b60006020820190508181036000830152614a5a81614a1e565b9050919050565b7f446561646c696e65206e6f7420796574206f7665720000000000000000000000600082015250565b6000614a97601583613610565b9150614aa282614a61565b602082019050919050565b60006020820190508181036000830152614ac681614a8a565b9050919050565b6000614ad882613a1f565b9150614ae383613a1f565b925082821015614af657614af56147ae565b5b828203905092915050565b6000614b0c826134aa565b9150614b17836134aa565b925082821015614b2a57614b296147ae565b5b828203905092915050565b7f57726f6e6720656e6420646561646c696e650000000000000000000000000000600082015250565b6000614b6b601283613610565b9150614b7682614b35565b602082019050919050565b60006020820190508181036000830152614b9a81614b5e565b9050919050565b7f4552433732315472616461626c65237572693a204e4f4e4558495354454e545f60008201527f544f4b454e000000000000000000000000000000000000000000000000000000602082015250565b6000614bfd602583613610565b9150614c0882614ba1565b604082019050919050565b60006020820190508181036000830152614c2c81614bf0565b9050919050565b6000614c3f8285614181565b9150614c4b8284614200565b91508190509392505050565b7f4552433131353523736166655472616e7366657246726f6d3a20494e56414c4960008201527f445f4f50455241544f5200000000000000000000000000000000000000000000602082015250565b6000614cb3602a83613610565b9150614cbe82614c57565b604082019050919050565b60006020820190508181036000830152614ce281614ca6565b9050919050565b7f4552433131353523736166655472616e7366657246726f6d3a20494e56414c4960008201527f445f524543495049454e54000000000000000000000000000000000000000000602082015250565b6000614d45602b83613610565b9150614d5082614ce9565b604082019050919050565b60006020820190508181036000830152614d7481614d38565b9050919050565b7f4f776e61626c653a206e6577206f776e657220697320746865207a65726f206160008201527f6464726573730000000000000000000000000000000000000000000000000000602082015250565b6000614dd7602683613610565b9150614de282614d7b565b604082019050919050565b60006020820190508181036000830152614e0681614dca565b9050919050565b7f4e487b7100000000000000000000000000000000000000000000000000000000600052601260045260246000fd5b6000614e47826134aa565b9150614e52836134aa565b925082614e6257614e61614e0d565b5b828204905092915050565b6000614e78826134aa565b9150614e83836134aa565b925082614e9357614e92614e0d565b5b828206905092915050565b6000614ea9826134aa565b9150614eb4836134aa565b9250827fffffffffffffffffffffffffffffffffffffffffffffffffffffffffffffffff03821115614ee957614ee86147ae565b5b828201905092915050565b6000614eff826134aa565b915060008203614f1257614f116147ae565b5b600182039050919050565b7f45524331313535235f7361666542617463685472616e7366657246726f6d3a2060008201527f494e56414c49445f4152524159535f4c454e4754480000000000000000000000602082015250565b6000614f79603583613610565b9150614f8482614f1d565b604082019050919050565b60006020820190508181036000830152614fa881614f6c565b9050919050565b60006040820190508181036000830152614fc98185613d07565b90508181036020830152614fdd8184613d07565b90509392505050565b600081519050919050565b600082825260208201905092915050565b600061500d82614fe6565b6150178185614ff1565b9350615027818560208601613621565b61503081613654565b840191505092915050565b600060a0820190506150506000830188613f67565b61505d6020830187613f67565b818103604083015261506f8186613d07565b905081810360608301526150838185613d07565b905081810360808301526150978184615002565b90509695505050505050565b6000815190506150b281613576565b92915050565b6000602082840312156150ce576150cd613442565b5b60006150dc848285016150a3565b91505092915050565b60008160e01c9050919050565b600060033d11156151115760046000803e61510e6000516150e5565b90505b90565b600060443d106151a157615126613438565b60043d036004823e80513d602482011167ffffffffffffffff8211171561514e5750506151a1565b808201805167ffffffffffffffff81111561516c57505050506151a1565b80602083010160043d0385018111156151895750505050506151a1565b61519882602001850186613721565b82955050505050505b90565b7f455243313135353a207472616e7366657220746f206e6f6e204552433131353560008201527f526563656976657220696d706c656d656e746572000000000000000000000000602082015250565b6000615200603483613610565b915061520b826151a4565b604082019050919050565b6000602082019050818103600083015261522f816151f3565b9050919050565b7f455243313135353a204552433131353552656365697665722072656a6563746560008201527f6420746f6b656e73000000000000000000000000000000000000000000000000602082015250565b6000615292602883613610565b915061529d82615236565b604082019050919050565b600060208201905081810360008301526152c181615285565b9050919050565b60008160601b9050919050565b60006152e0826152c8565b9050919050565b60006152f2826152d5565b9050919050565b61530a6153058261346c565b6152e7565b82525050565b600061531c82856152f9565b60148201915061532c8284614710565b6020820191508190509392505050565b600061534782613a1f565b915061535283613a1f565b92508261ffff03821115615369576153686147ae565b5b828201905092915050565b7f4f776e61626c653a2063616c6c6572206973206e6f7420746865206f776e6572600082015250565b60006153aa602083613610565b91506153b582615374565b602082019050919050565b600060208201905081810360008301526153d98161539d565b9050919050565b60006040820190506153f56000830185613520565b6154026020830184613520565b9392505050565b600060a08201905061541e6000830188613f67565b61542b6020830187613f67565b6154386040830186613520565b6154456060830185613520565b81810360808301526154578184615002565b90509695505050505050565b7f4e487b7100000000000000000000000000000000000000000000000000000000600052602160045260246000fd5b6000819050919050565b6154a581615492565b82525050565b60006040820190506154c0600083018561549c565b81810360208301526154d28184615002565b90509392505050565b600081905092915050565b60006154f182614fe6565b6154fb81856154db565b935061550b818560208601613621565b80840191505092915050565b600061552382846154e6565b915081905092915050565b6000615539826139b9565b915060ff820361554c5761554b6147ae565b5b600182019050919050565b7f455243313135354d696e744275726e2362617463684d696e743a20494e56414c60008201527f49445f4152524159535f4c454e47544800000000000000000000000000000000602082015250565b60006155b3603083613610565b91506155be82615557565b604082019050919050565b600060208201905081810360008301526155e2816155a6565b9050919050565b60006080820190506155fe600083018761549c565b61560b6020830186613b42565b615618604083018561549c565b615625606083018461549c565b9594505050505056fea264697066735822122059be96b9d0119f00564a9cb68b2a00c39ad4fad9c63f66fdfb041afc8baee55264736f6c634300080d0033",
  "linkReferences": {},
  "deployedLinkReferences": {}
}