{
  "_format": "hh-sol-artifact-1",
  "contractName": "Materia",
  "sourceName": "contracts/Materia.sol",
  "abi": [
    {
      "inputs": [
        {
          "internalType": "string",
          "name": "_name",
          "type": "string"
        },
        {
          "internalType": "string",
          "name": "_symbol",
          "type": "string"
        },
        {
          "internalType": "string",
          "name": "_metadataURI",
          "type": "string"
        },
        {
          "internalType": "uint64",
          "name": "start",
          "type": "uint64"
        },
        {
          "internalType": "uint64",
          "name": "end",
          "type": "uint64"
        },
        {
          "internalType": "bytes32",
          "name": "merkleRoot",
          "type": "bytes32"
        },
        {
          "internalType": "address",
          "name": "signer",
          "type": "address"
        },
        {
          "internalType": "address",
          "name": "antonym",
          "type": "address"
        }
      ],
      "stateMutability": "nonpayable",
      "type": "constructor"
    },
    {
      "anonymous": false,
      "inputs": [
        {
          "indexed": true,
          "internalType": "address",
          "name": "_owner",
          "type": "address"
        },
        {
          "indexed": true,
          "internalType": "address",
          "name": "_operator",
          "type": "address"
        },
        {
          "indexed": false,
          "internalType": "bool",
          "name": "_approved",
          "type": "bool"
        }
      ],
      "name": "ApprovalForAll",
      "type": "event"
    },
    {
      "anonymous": false,
      "inputs": [
        {
          "indexed": true,
          "internalType": "address",
          "name": "previousOwner",
          "type": "address"
        },
        {
          "indexed": true,
          "internalType": "address",
          "name": "newOwner",
          "type": "address"
        }
      ],
      "name": "OwnershipTransferred",
      "type": "event"
    },
    {
      "anonymous": false,
      "inputs": [
        {
          "indexed": true,
          "internalType": "address",
          "name": "_operator",
          "type": "address"
        },
        {
          "indexed": true,
          "internalType": "address",
          "name": "_from",
          "type": "address"
        },
        {
          "indexed": true,
          "internalType": "address",
          "name": "_to",
          "type": "address"
        },
        {
          "indexed": false,
          "internalType": "uint256[]",
          "name": "_ids",
          "type": "uint256[]"
        },
        {
          "indexed": false,
          "internalType": "uint256[]",
          "name": "_amounts",
          "type": "uint256[]"
        }
      ],
      "name": "TransferBatch",
      "type": "event"
    },
    {
      "anonymous": false,
      "inputs": [
        {
          "indexed": true,
          "internalType": "address",
          "name": "_operator",
          "type": "address"
        },
        {
          "indexed": true,
          "internalType": "address",
          "name": "_from",
          "type": "address"
        },
        {
          "indexed": true,
          "internalType": "address",
          "name": "_to",
          "type": "address"
        },
        {
          "indexed": false,
          "internalType": "uint256",
          "name": "_id",
          "type": "uint256"
        },
        {
          "indexed": false,
          "internalType": "uint256",
          "name": "_amount",
          "type": "uint256"
        }
      ],
      "name": "TransferSingle",
      "type": "event"
    },
    {
      "anonymous": false,
      "inputs": [
        {
          "indexed": false,
          "internalType": "string",
          "name": "_uri",
          "type": "string"
        },
        {
          "indexed": true,
          "internalType": "uint256",
          "name": "_id",
          "type": "uint256"
        }
      ],
      "name": "URI",
      "type": "event"
    },
    {
      "inputs": [
        {
          "internalType": "address",
          "name": "_owner",
          "type": "address"
        },
        {
          "internalType": "uint256",
          "name": "_id",
          "type": "uint256"
        }
      ],
      "name": "balanceOf",
      "outputs": [
        {
          "internalType": "uint256",
          "name": "",
          "type": "uint256"
        }
      ],
      "stateMutability": "view",
      "type": "function"
    },
    {
      "inputs": [
        {
          "internalType": "address[]",
          "name": "_owners",
          "type": "address[]"
        },
        {
          "internalType": "uint256[]",
          "name": "_ids",
          "type": "uint256[]"
        }
      ],
      "name": "balanceOfBatch",
      "outputs": [
        {
          "internalType": "uint256[]",
          "name": "",
          "type": "uint256[]"
        }
      ],
      "stateMutability": "view",
      "type": "function"
    },
    {
      "inputs": [],
      "name": "getNextTokenID",
      "outputs": [
        {
          "internalType": "uint8",
          "name": "",
          "type": "uint8"
        }
      ],
      "stateMutability": "view",
      "type": "function"
    },
    {
      "inputs": [
        {
          "internalType": "address",
          "name": "_owner",
          "type": "address"
        },
        {
          "internalType": "address",
          "name": "_operator",
          "type": "address"
        }
      ],
      "name": "isApprovedForAll",
      "outputs": [
        {
          "internalType": "bool",
          "name": "isOperator",
          "type": "bool"
        }
      ],
      "stateMutability": "view",
      "type": "function"
    },
    {
      "inputs": [
        {
          "internalType": "address",
          "name": "to",
          "type": "address"
        }
      ],
      "name": "mintBatch",
      "outputs": [],
      "stateMutability": "nonpayable",
      "type": "function"
    },
    {
      "inputs": [
        {
          "internalType": "uint256",
          "name": "antonymTokenId",
          "type": "uint256"
        },
        {
          "internalType": "bytes",
          "name": "signature",
          "type": "bytes"
        }
      ],
      "name": "mintMateria",
      "outputs": [],
      "stateMutability": "nonpayable",
      "type": "function"
    },
    {
      "inputs": [
        {
          "internalType": "uint256",
          "name": "antonymTokenId",
          "type": "uint256"
        },
        {
          "internalType": "bytes",
          "name": "signature",
          "type": "bytes"
        },
        {
          "internalType": "bytes32[]",
          "name": "proof",
          "type": "bytes32[]"
        }
      ],
      "name": "mintPrimaMateria",
      "outputs": [],
      "stateMutability": "nonpayable",
      "type": "function"
    },
    {
      "inputs": [],
      "name": "name",
      "outputs": [
        {
          "internalType": "string",
          "name": "",
          "type": "string"
        }
      ],
      "stateMutability": "view",
      "type": "function"
    },
    {
      "inputs": [],
      "name": "owner",
      "outputs": [
        {
          "internalType": "address",
          "name": "",
          "type": "address"
        }
      ],
      "stateMutability": "view",
      "type": "function"
    },
    {
      "inputs": [],
      "name": "renounceOwnership",
      "outputs": [],
      "stateMutability": "nonpayable",
      "type": "function"
    },
    {
      "inputs": [
        {
          "internalType": "address",
          "name": "_from",
          "type": "address"
        },
        {
          "internalType": "address",
          "name": "_to",
          "type": "address"
        },
        {
          "internalType": "uint256[]",
          "name": "_ids",
          "type": "uint256[]"
        },
        {
          "internalType": "uint256[]",
          "name": "_amounts",
          "type": "uint256[]"
        },
        {
          "internalType": "bytes",
          "name": "_data",
          "type": "bytes"
        }
      ],
      "name": "safeBatchTransferFrom",
      "outputs": [],
      "stateMutability": "nonpayable",
      "type": "function"
    },
    {
      "inputs": [
        {
          "internalType": "address",
          "name": "_from",
          "type": "address"
        },
        {
          "internalType": "address",
          "name": "_to",
          "type": "address"
        },
        {
          "internalType": "uint256",
          "name": "_id",
          "type": "uint256"
        },
        {
          "internalType": "uint256",
          "name": "_amount",
          "type": "uint256"
        },
        {
          "internalType": "bytes",
          "name": "_data",
          "type": "bytes"
        }
      ],
      "name": "safeTransferFrom",
      "outputs": [],
      "stateMutability": "nonpayable",
      "type": "function"
    },
    {
      "inputs": [
        {
          "internalType": "bool",
          "name": "allow",
          "type": "bool"
        }
      ],
      "name": "setAllowMinting",
      "outputs": [],
      "stateMutability": "nonpayable",
      "type": "function"
    },
    {
      "inputs": [
        {
          "internalType": "address",
          "name": "_operator",
          "type": "address"
        },
        {
          "internalType": "bool",
          "name": "_approved",
          "type": "bool"
        }
      ],
      "name": "setApprovalForAll",
      "outputs": [],
      "stateMutability": "nonpayable",
      "type": "function"
    },
    {
      "inputs": [
        {
          "internalType": "string",
          "name": "_newBaseMetadataURI",
          "type": "string"
        }
      ],
      "name": "setBaseMetadataURI",
      "outputs": [],
      "stateMutability": "nonpayable",
      "type": "function"
    },
    {
      "inputs": [
        {
          "internalType": "uint64",
          "name": "end",
          "type": "uint64"
        }
      ],
      "name": "setDeadline",
      "outputs": [],
      "stateMutability": "nonpayable",
      "type": "function"
    },
    {
      "inputs": [
        {
          "internalType": "address",
          "name": "signer",
          "type": "address"
        }
      ],
      "name": "setSigner",
      "outputs": [],
      "stateMutability": "nonpayable",
      "type": "function"
    },
    {
      "inputs": [
        {
          "internalType": "bytes4",
          "name": "_interfaceID",
          "type": "bytes4"
        }
      ],
      "name": "supportsInterface",
      "outputs": [
        {
          "internalType": "bool",
          "name": "",
          "type": "bool"
        }
      ],
      "stateMutability": "view",
      "type": "function"
    },
    {
      "inputs": [],
      "name": "symbol",
      "outputs": [
        {
          "internalType": "string",
          "name": "",
          "type": "string"
        }
      ],
      "stateMutability": "view",
      "type": "function"
    },
    {
      "inputs": [
        {
          "internalType": "uint8",
          "name": "",
          "type": "uint8"
        }
      ],
      "name": "tokenSupply",
      "outputs": [
        {
          "internalType": "uint16",
          "name": "",
          "type": "uint16"
        }
      ],
      "stateMutability": "view",
      "type": "function"
    },
    {
      "inputs": [
        {
          "internalType": "uint8",
          "name": "_id",
          "type": "uint8"
        }
      ],
      "name": "totalSupply",
      "outputs": [
        {
          "internalType": "uint16",
          "name": "",
          "type": "uint16"
        }
      ],
      "stateMutability": "view",
      "type": "function"
    },
    {
      "inputs": [
        {
          "internalType": "address",
          "name": "newOwner",
          "type": "address"
        }
      ],
      "name": "transferOwnership",
      "outputs": [],
      "stateMutability": "nonpayable",
      "type": "function"
    },
    {
      "inputs": [
        {
          "internalType": "uint256",
          "name": "_id",
          "type": "uint256"
        }
      ],
      "name": "uri",
      "outputs": [
        {
          "internalType": "string",
          "name": "",
          "type": "string"
        }
      ],
      "stateMutability": "view",
      "type": "function"
    },
    {
      "inputs": [
        {
          "internalType": "uint8",
          "name": "_id",
          "type": "uint8"
        }
      ],
      "name": "uri",
      "outputs": [
        {
          "internalType": "string",
          "name": "",
          "type": "string"
        }
      ],
      "stateMutability": "view",
      "type": "function"
    }
  ],
  "bytecode": "0x60806040523480156200001157600080fd5b5060405162005e9e38038062005e9e83398181016040528101906200003791906200078d565b8787876200005a6200004e6200037160201b60201c565b6200037960201b60201c565b8260059080519060200190620000729291906200045b565b5081600690805190602001906200008b9291906200045b565b506200009d816200043f60201b60201c565b505050428567ffffffffffffffff1611620000ef576040517f08c379a0000000000000000000000000000000000000000000000000000000008152600401620000e69062000914565b60405180910390fd5b8467ffffffffffffffff168467ffffffffffffffff161180156200011c5750428467ffffffffffffffff16115b6200015e576040517f08c379a0000000000000000000000000000000000000000000000000000000008152600401620001559062000986565b60405180910390fd5b600073ffffffffffffffffffffffffffffffffffffffff168273ffffffffffffffffffffffffffffffffffffffff1603620001d0576040517f08c379a0000000000000000000000000000000000000000000000000000000008152600401620001c790620009f8565b60405180910390fd5b6000830362000216576040517f08c379a00000000000000000000000000000000000000000000000000000000081526004016200020d9062000a6a565b60405180910390fd5b600073ffffffffffffffffffffffffffffffffffffffff168173ffffffffffffffffffffffffffffffffffffffff160362000288576040517f08c379a00000000000000000000000000000000000000000000000000000000081526004016200027f9062000adc565b60405180910390fd5b84600760006101000a81548167ffffffffffffffff021916908367ffffffffffffffff16021790555083600760086101000a81548167ffffffffffffffff021916908367ffffffffffffffff16021790555081600960006101000a81548173ffffffffffffffffffffffffffffffffffffffff021916908373ffffffffffffffffffffffffffffffffffffffff1602179055508260088190555080600a60006101000a81548173ffffffffffffffffffffffffffffffffffffffff021916908373ffffffffffffffffffffffffffffffffffffffff160217905550505050505050505062000b62565b600033905090565b6000600360009054906101000a900473ffffffffffffffffffffffffffffffffffffffff16905081600360006101000a81548173ffffffffffffffffffffffffffffffffffffffff021916908373ffffffffffffffffffffffffffffffffffffffff1602179055508173ffffffffffffffffffffffffffffffffffffffff168173ffffffffffffffffffffffffffffffffffffffff167f8be0079c531659141344cd1fd0a4f28419497f9722a3daafe3b4186f6b6457e060405160405180910390a35050565b8060029080519060200190620004579291906200045b565b5050565b828054620004699062000b2d565b90600052602060002090601f0160209004810192826200048d5760008555620004d9565b82601f10620004a857805160ff1916838001178555620004d9565b82800160010185558215620004d9579182015b82811115620004d8578251825591602001919060010190620004bb565b5b509050620004e89190620004ec565b5090565b5b8082111562000507576000816000905550600101620004ed565b5090565b6000604051905090565b600080fd5b600080fd5b600080fd5b600080fd5b6000601f19601f8301169050919050565b7f4e487b7100000000000000000000000000000000000000000000000000000000600052604160045260246000fd5b620005748262000529565b810181811067ffffffffffffffff821117156200059657620005956200053a565b5b80604052505050565b6000620005ab6200050b565b9050620005b9828262000569565b919050565b600067ffffffffffffffff821115620005dc57620005db6200053a565b5b620005e78262000529565b9050602081019050919050565b60005b8381101562000614578082015181840152602081019050620005f7565b8381111562000624576000848401525b50505050565b6000620006416200063b84620005be565b6200059f565b90508281526020810184848401111562000660576200065f62000524565b5b6200066d848285620005f4565b509392505050565b600082601f8301126200068d576200068c6200051f565b5b81516200069f8482602086016200062a565b91505092915050565b600067ffffffffffffffff82169050919050565b620006c781620006a8565b8114620006d357600080fd5b50565b600081519050620006e781620006bc565b92915050565b6000819050919050565b6200070281620006ed565b81146200070e57600080fd5b50565b6000815190506200072281620006f7565b92915050565b600073ffffffffffffffffffffffffffffffffffffffff82169050919050565b6000620007558262000728565b9050919050565b620007678162000748565b81146200077357600080fd5b50565b60008151905062000787816200075c565b92915050565b600080600080600080600080610100898b031215620007b157620007b062000515565b5b600089015167ffffffffffffffff811115620007d257620007d16200051a565b5b620007e08b828c0162000675565b985050602089015167ffffffffffffffff8111156200080457620008036200051a565b5b620008128b828c0162000675565b975050604089015167ffffffffffffffff8111156200083657620008356200051a565b5b620008448b828c0162000675565b9650506060620008578b828c01620006d6565b95505060806200086a8b828c01620006d6565b94505060a06200087d8b828c0162000711565b93505060c0620008908b828c0162000776565b92505060e0620008a38b828c0162000776565b9150509295985092959890939650565b600082825260208201905092915050565b7f53746172742063616e6e6f7420626520696e2074686520706173740000000000600082015250565b6000620008fc601b83620008b3565b91506200090982620008c4565b602082019050919050565b600060208201905081810360008301526200092f81620008ed565b9050919050565b7f57726f6e6720656e6420646561646c696e650000000000000000000000000000600082015250565b60006200096e601283620008b3565b91506200097b8262000936565b602082019050919050565b60006020820190508181036000830152620009a1816200095f565b9050919050565b7f57726f6e67207369676e65720000000000000000000000000000000000000000600082015250565b6000620009e0600c83620008b3565b9150620009ed82620009a8565b602082019050919050565b6000602082019050818103600083015262000a1381620009d1565b9050919050565b7f57726f6e67204d65726b6c65526f6f7400000000000000000000000000000000600082015250565b600062000a52601083620008b3565b915062000a5f8262000a1a565b602082019050919050565b6000602082019050818103600083015262000a858162000a43565b9050919050565b7f57726f6e67204e46540000000000000000000000000000000000000000000000600082015250565b600062000ac4600983620008b3565b915062000ad18262000a8c565b602082019050919050565b6000602082019050818103600083015262000af78162000ab5565b9050919050565b7f4e487b7100000000000000000000000000000000000000000000000000000000600052602260045260246000fd5b6000600282049050600182168062000b4657607f821691505b60208210810362000b5c5762000b5b62000afe565b5b50919050565b61532c8062000b726000396000f3fe608060405234801561001057600080fd5b50600436106101575760003560e01c80637e518ec8116100c3578063b34cd6af1161007c578063b34cd6af146103ae578063e11208d6146103ca578063e985e9c5146103fa578063f242432a1461042a578063f2fde38b14610446578063f7ade4911461046257610157565b80637e518ec8146103025780638da5cb5b1461031e57806390ffedf01461033c57806395d89b4114610358578063a22cb46514610376578063aebc04831461039257610157565b8063496d9f4411610115578063496d9f44146102425780634a198119146102725780634e1273f4146102905780636c19e783146102c0578063715018a6146102dc57806379e91fa8146102e657610157565b8062fdd58e1461015c57806301ffc9a71461018c57806306fdde03146101bc5780630e89341c146101da5780632eb2c2d61461020a5780633e0981d714610226575b600080fd5b610176600480360381019061017191906132ec565b610492565b604051610183919061333b565b60405180910390f35b6101a660048036038101906101a191906133ae565b6104ec565b6040516101b391906133f6565b60405180910390f35b6101c461056d565b6040516101d191906134aa565b60405180910390f35b6101f460048036038101906101ef91906134cc565b6105fb565b60405161020191906134aa565b60405180910390f35b610224600480360381019061021f91906136f6565b61062f565b005b610240600480360381019061023b9190613820565b61073e565b005b61025c600480360381019061025791906138e9565b610afc565b6040516102699190613933565b60405180910390f35b61027a610b2d565b604051610287919061395d565b60405180910390f35b6102aa60048036038101906102a59190613a3b565b610b50565b6040516102b79190613b71565b60405180910390f35b6102da60048036038101906102d59190613b93565b610cb1565b005b6102e4610d6c565b005b61030060048036038101906102fb9190613bc0565b610d80565b005b61031c60048036038101906103179190613cbd565b611085565b005b610326611099565b6040516103339190613d15565b60405180910390f35b61035660048036038101906103519190613b93565b6110c3565b005b610360611331565b60405161036d91906134aa565b60405180910390f35b610390600480360381019061038b9190613d5c565b6113bf565b005b6103ac60048036038101906103a79190613ddc565b6114bc565b005b6103c860048036038101906103c39190613e09565b611571565b005b6103e460048036038101906103df91906138e9565b611596565b6040516103f191906134aa565b60405180910390f35b610414600480360381019061040f9190613e36565b611641565b60405161042191906133f6565b60405180910390f35b610444600480360381019061043f9190613e76565b6116d5565b005b610460600480360381019061045b9190613b93565b6117e4565b005b61047c600480360381019061047791906138e9565b611867565b6040516104899190613933565b60405180910390f35b60008060008473ffffffffffffffffffffffffffffffffffffffff1673ffffffffffffffffffffffffffffffffffffffff168152602001908152602001600020600083815260200190815260200160002054905092915050565b60007fd9b67a26000000000000000000000000000000000000000000000000000000007bffffffffffffffffffffffffffffffffffffffffffffffffffffffff1916827bffffffffffffffffffffffffffffffffffffffffffffffffffffffff19160361055c5760019050610568565b61056582611888565b90505b919050565b6005805461057a90613f3c565b80601f01602080910402602001604051908101604052809291908181526020018280546105a690613f3c565b80156105f35780601f106105c8576101008083540402835291602001916105f3565b820191906000526020600020905b8154815290600101906020018083116105d657829003601f168201915b505050505081565b6060600261060883611909565b604051602001610619929190614089565b6040516020818303038152906040529050919050565b8473ffffffffffffffffffffffffffffffffffffffff163373ffffffffffffffffffffffffffffffffffffffff16148061066f575061066e8533611641565b5b6106ae576040517f08c379a00000000000000000000000000000000000000000000000000000000081526004016106a59061412a565b60405180910390fd5b600073ffffffffffffffffffffffffffffffffffffffff168473ffffffffffffffffffffffffffffffffffffffff160361071d576040517f08c379a0000000000000000000000000000000000000000000000000000000008152600401610714906141bc565b60405180910390fd5b61072985858585611a7e565b610737858585855a86611d72565b5050505050565b600a60149054906101000a900460ff1661078d576040517f08c379a000000000000000000000000000000000000000000000000000000000815260040161078490614228565b60405180910390fd5b42600760009054906101000a900467ffffffffffffffff1667ffffffffffffffff1610156107f0576040517f08c379a00000000000000000000000000000000000000000000000000000000081526004016107e790614294565b60405180910390fd5b42600760089054906101000a900467ffffffffffffffff1667ffffffffffffffff1610610852576040517f08c379a000000000000000000000000000000000000000000000000000000000815260040161084990614300565b60405180910390fd5b600c600085815260200190815260200160002060009054906101000a900460ff16156108b3576040517f08c379a00000000000000000000000000000000000000000000000000000000081526004016108aa9061436c565b60405180910390fd5b60006108bd611f49565b90508073ffffffffffffffffffffffffffffffffffffffff16600a60009054906101000a900473ffffffffffffffffffffffffffffffffffffffff1673ffffffffffffffffffffffffffffffffffffffff16636352211e876040518263ffffffff1660e01b8152600401610931919061333b565b602060405180830381865afa15801561094e573d6000803e3d6000fd5b505050506040513d601f19601f8201168201806040525081019061097291906143a1565b73ffffffffffffffffffffffffffffffffffffffff16146109c8576040517f08c379a00000000000000000000000000000000000000000000000000000000081526004016109bf9061441a565b60405180910390fd5b6109d3818686611f51565b610a12576040517f08c379a0000000000000000000000000000000000000000000000000000000008152600401610a0990614486565b60405180910390fd5b600085604051602001610a2591906144c7565b604051602081830303815290604052805190602001209050610a8881858580806020026020016040519081016040528093929190818152602001838360200280828437600081840152601f19601f82011690508083019250505050505050611fd6565b610ac7576040517f08c379a0000000000000000000000000000000000000000000000000000000008152600401610abe9061452e565b60405180910390fd5b610ad16002611fed565b610ae657610ae0826001612024565b50610af4565b610af38260026001612099565b5b505050505050565b6000600460008360ff1660ff16815260200190815260200160002060009054906101000a900461ffff169050919050565b60006001600360149054906101000a900460ff16610b4b919061457d565b905090565b60608151835114610b96576040517f08c379a0000000000000000000000000000000000000000000000000000000008152600401610b8d90614626565b60405180910390fd5b6000835167ffffffffffffffff811115610bb357610bb26134fe565b5b604051908082528060200260200182016040528015610be15781602001602082028036833780820191505090505b50905060005b8451811015610ca657600080868381518110610c0657610c05614646565b5b602002602001015173ffffffffffffffffffffffffffffffffffffffff1673ffffffffffffffffffffffffffffffffffffffff1681526020019081526020016000206000858381518110610c5d57610c5c614646565b5b6020026020010151815260200190815260200160002054828281518110610c8757610c86614646565b5b6020026020010181815250508080610c9e90614675565b915050610be7565b508091505092915050565b610cb9612110565b600073ffffffffffffffffffffffffffffffffffffffff168173ffffffffffffffffffffffffffffffffffffffff1603610d28576040517f08c379a0000000000000000000000000000000000000000000000000000000008152600401610d1f90614709565b60405180910390fd5b80600960006101000a81548173ffffffffffffffffffffffffffffffffffffffff021916908373ffffffffffffffffffffffffffffffffffffffff16021790555050565b610d74612110565b610d7e600061218e565b565b600a60149054906101000a900460ff16610dcf576040517f08c379a0000000000000000000000000000000000000000000000000000000008152600401610dc690614228565b60405180910390fd5b42600760009054906101000a900467ffffffffffffffff1667ffffffffffffffff161015610e32576040517f08c379a0000000000000000000000000000000000000000000000000000000008152600401610e2990614294565b60405180910390fd5b42600760089054906101000a900467ffffffffffffffff1667ffffffffffffffff1610610e94576040517f08c379a0000000000000000000000000000000000000000000000000000000008152600401610e8b90614300565b60405180910390fd5b600b600083815260200190815260200160002060009054906101000a900460ff1615610ef5576040517f08c379a0000000000000000000000000000000000000000000000000000000008152600401610eec9061436c565b60405180910390fd5b6000610eff611f49565b90508073ffffffffffffffffffffffffffffffffffffffff16600a60009054906101000a900473ffffffffffffffffffffffffffffffffffffffff1673ffffffffffffffffffffffffffffffffffffffff16636352211e856040518263ffffffff1660e01b8152600401610f73919061333b565b602060405180830381865afa158015610f90573d6000803e3d6000fd5b505050506040513d601f19601f82011682018060405250810190610fb491906143a1565b73ffffffffffffffffffffffffffffffffffffffff161461100a576040517f08c379a00000000000000000000000000000000000000000000000000000000081526004016110019061441a565b60405180910390fd5b611015818484611f51565b611054576040517f08c379a000000000000000000000000000000000000000000000000000000000815260040161104b90614486565b60405180910390fd5b61105e6001611fed565b6110735761106d816001612024565b50611080565b61107f81600180612099565b5b505050565b61108d612110565b61109681612254565b50565b6000600360009054906101000a900473ffffffffffffffffffffffffffffffffffffffff16905090565b6110cb612110565b600a60149054906101000a900460ff1661111a576040517f08c379a000000000000000000000000000000000000000000000000000000000815260040161111190614228565b60405180910390fd5b42600760089054906101000a900467ffffffffffffffff1667ffffffffffffffff161061117c576040517f08c379a000000000000000000000000000000000000000000000000000000000815260040161117390614775565b60405180910390fd5b600060046000600160ff16815260200190815260200160002060009054906101000a900461ffff1690506000816127106111b69190614795565b61ffff169050600060046000600260ff16815260200190815260200160002060009054906101000a900461ffff1661ffff16905060008160346111f991906147c9565b90506000600267ffffffffffffffff811115611218576112176134fe565b5b6040519080825280602002602001820160405280156112465781602001602082028036833780820191505090505b50905060018160008151811061125f5761125e614646565b5b60200260200101818152505060028160018151811061128157611280614646565b5b6020026020010181815250506000600267ffffffffffffffff8111156112aa576112a96134fe565b5b6040519080825280602002602001820160405280156112d85781602001602082028036833780820191505090505b50905084816000815181106112f0576112ef614646565b5b602002602001018181525050828160018151811061131157611310614646565b5b60200260200101818152505061132887838361226e565b50505050505050565b6006805461133e90613f3c565b80601f016020809104026020016040519081016040528092919081815260200182805461136a90613f3c565b80156113b75780601f1061138c576101008083540402835291602001916113b7565b820191906000526020600020905b81548152906001019060200180831161139a57829003601f168201915b505050505081565b80600160003373ffffffffffffffffffffffffffffffffffffffff1673ffffffffffffffffffffffffffffffffffffffff16815260200190815260200160002060008473ffffffffffffffffffffffffffffffffffffffff1673ffffffffffffffffffffffffffffffffffffffff16815260200190815260200160002060006101000a81548160ff0219169083151502179055508173ffffffffffffffffffffffffffffffffffffffff163373ffffffffffffffffffffffffffffffffffffffff167f17307eab39ab6107e8899845ad3d59bd9653f200f220920489ca2b5937696c31836040516114b091906133f6565b60405180910390a35050565b6114c4612110565b600760009054906101000a900467ffffffffffffffff1667ffffffffffffffff168167ffffffffffffffff161180156115065750428167ffffffffffffffff16115b611545576040517f08c379a000000000000000000000000000000000000000000000000000000000815260040161153c90614849565b60405180910390fd5b80600760086101000a81548167ffffffffffffffff021916908367ffffffffffffffff16021790555050565b611579612110565b80600a60146101000a81548160ff02191690831515021790555050565b60606115a182611fed565b6115e0576040517f08c379a00000000000000000000000000000000000000000000000000000000081526004016115d7906148db565b60405180910390fd5b6000600280546115ef90613f3c565b90501161160b576040518060200160405280600081525061163a565b60026116198360ff1661233e565b60405160200161162a9291906148fb565b6040516020818303038152906040525b9050919050565b6000600160008473ffffffffffffffffffffffffffffffffffffffff1673ffffffffffffffffffffffffffffffffffffffff16815260200190815260200160002060008373ffffffffffffffffffffffffffffffffffffffff1673ffffffffffffffffffffffffffffffffffffffff16815260200190815260200160002060009054906101000a900460ff16905092915050565b8473ffffffffffffffffffffffffffffffffffffffff163373ffffffffffffffffffffffffffffffffffffffff16148061171557506117148533611641565b5b611754576040517f08c379a000000000000000000000000000000000000000000000000000000000815260040161174b90614991565b60405180910390fd5b600073ffffffffffffffffffffffffffffffffffffffff168473ffffffffffffffffffffffffffffffffffffffff16036117c3576040517f08c379a00000000000000000000000000000000000000000000000000000000081526004016117ba90614a23565b60405180910390fd5b6117cf8585858561249e565b6117dd858585855a8661268c565b5050505050565b6117ec612110565b600073ffffffffffffffffffffffffffffffffffffffff168173ffffffffffffffffffffffffffffffffffffffff160361185b576040517f08c379a000000000000000000000000000000000000000000000000000000000815260040161185290614ab5565b60405180910390fd5b6118648161218e565b50565b60046020528060005260406000206000915054906101000a900461ffff1681565b60007f0e89341c000000000000000000000000000000000000000000000000000000007bffffffffffffffffffffffffffffffffffffffffffffffffffffffff1916827bffffffffffffffffffffffffffffffffffffffffffffffffffffffff1916036118f85760019050611904565b61190182612863565b90505b919050565b606060008203611950576040518060400160405280600181526020017f30000000000000000000000000000000000000000000000000000000000000008152509050611a79565b6000829050600083905060005b6000831461198757808061197090614675565b915050600a836119809190614b04565b925061195d565b60008167ffffffffffffffff8111156119a3576119a26134fe565b5b6040519080825280601f01601f1916602001820160405280156119d55781602001600182028036833780820191505090505b50905060006001836119e791906147c9565b90505b60008414611a7057600a846119ff9190614b35565b6030611a0b9190614b66565b60f81b828280611a1a90614bbc565b935081518110611a2d57611a2c614646565b5b60200101907effffffffffffffffffffffffffffffffffffffffffffffffffffffffffffff1916908160001a905350600a84611a699190614b04565b93506119ea565b81955050505050505b919050565b8051825114611ac2576040517f08c379a0000000000000000000000000000000000000000000000000000000008152600401611ab990614c57565b60405180910390fd5b60008251905060005b81811015611cec57611b69838281518110611ae957611ae8614646565b5b60200260200101516000808973ffffffffffffffffffffffffffffffffffffffff1673ffffffffffffffffffffffffffffffffffffffff1681526020019081526020016000206000878581518110611b4457611b43614646565b5b60200260200101518152602001908152602001600020546128e490919063ffffffff16565b6000808873ffffffffffffffffffffffffffffffffffffffff1673ffffffffffffffffffffffffffffffffffffffff1681526020019081526020016000206000868481518110611bbc57611bbb614646565b5b6020026020010151815260200190815260200160002081905550611c6c838281518110611bec57611beb614646565b5b60200260200101516000808873ffffffffffffffffffffffffffffffffffffffff1673ffffffffffffffffffffffffffffffffffffffff1681526020019081526020016000206000878581518110611c4757611c46614646565b5b60200260200101518152602001908152602001600020546128fa90919063ffffffff16565b6000808773ffffffffffffffffffffffffffffffffffffffff1673ffffffffffffffffffffffffffffffffffffffff1681526020019081526020016000206000868481518110611cbf57611cbe614646565b5b60200260200101518152602001908152602001600020819055508080611ce490614675565b915050611acb565b508373ffffffffffffffffffffffffffffffffffffffff168573ffffffffffffffffffffffffffffffffffffffff163373ffffffffffffffffffffffffffffffffffffffff167f4a39dc06d4c0dbc64b70af90fd698a233a518aa5d07e595d983b8c0526c8f7fb8686604051611d63929190614c77565b60405180910390a45050505050565b611d918573ffffffffffffffffffffffffffffffffffffffff16612910565b15611f41578473ffffffffffffffffffffffffffffffffffffffff1663bc197c8133888787866040518663ffffffff1660e01b8152600401611dd7959493929190614d03565b6020604051808303816000875af1925050508015611e1357506040513d601f19601f82011682018060405250810190611e109190614d80565b60015b611eb857611e1f614dba565b806308c379a003611e7b5750611e33614ddc565b80611e3e5750611e7d565b806040517f08c379a0000000000000000000000000000000000000000000000000000000008152600401611e7291906134aa565b60405180910390fd5b505b6040517f08c379a0000000000000000000000000000000000000000000000000000000008152600401611eaf90614ede565b60405180910390fd5b63bc197c8160e01b7bffffffffffffffffffffffffffffffffffffffffffffffffffffffff1916817bffffffffffffffffffffffffffffffffffffffffffffffffffffffff191614611f3f576040517f08c379a0000000000000000000000000000000000000000000000000000000008152600401611f3690614f70565b60405180910390fd5b505b505050505050565b600033905090565b6000808484604051602001611f67929190614fd8565b604051602081830303815290604052805190602001209050611fcc8184600960009054906101000a900473ffffffffffffffffffffffffffffffffffffffff1673ffffffffffffffffffffffffffffffffffffffff166129339092919063ffffffff16565b9150509392505050565b6000611fe58260085485612b18565b905092915050565b600080600460008460ff1660ff16815260200190815260200160002060009054906101000a900461ffff1661ffff16119050919050565b60008061202f610b2d565b9050612039612b2f565b61205b848260ff168561ffff1660405180602001604052806000815250612b69565b82600460008360ff1660ff16815260200190815260200160002060006101000a81548161ffff021916908361ffff1602179055508091505092915050565b6120bb838360ff168361ffff1660405180602001604052806000815250612b69565b80600460008460ff1660ff16815260200190815260200160002060008282829054906101000a900461ffff166120f19190615004565b92506101000a81548161ffff021916908361ffff160217905550505050565b612118611f49565b73ffffffffffffffffffffffffffffffffffffffff16612136611099565b73ffffffffffffffffffffffffffffffffffffffff161461218c576040517f08c379a000000000000000000000000000000000000000000000000000000000815260040161218390615088565b60405180910390fd5b565b6000600360009054906101000a900473ffffffffffffffffffffffffffffffffffffffff16905081600360006101000a81548173ffffffffffffffffffffffffffffffffffffffff021916908373ffffffffffffffffffffffffffffffffffffffff1602179055508173ffffffffffffffffffffffffffffffffffffffff168173ffffffffffffffffffffffffffffffffffffffff167f8be0079c531659141344cd1fd0a4f28419497f9722a3daafe3b4186f6b6457e060405160405180910390a35050565b806002908051906020019061226a9291906131a1565b5050565b60005b825181101561231d57600083828151811061228f5761228e614646565b5b6020026020010151905060008383815181106122ae576122ad614646565b5b6020026020010151905080600460008460ff1660ff16815260200190815260200160002060008282829054906101000a900461ffff166122ee9190615004565b92506101000a81548161ffff021916908361ffff1602179055505050808061231590614675565b915050612271565b5061233983838360405180602001604052806000815250612cb2565b505050565b606060008203612385576040518060400160405280600181526020017f30000000000000000000000000000000000000000000000000000000000000008152509050612499565b600082905060005b600082146123b75780806123a090614675565b915050600a826123b09190614b04565b915061238d565b60008167ffffffffffffffff8111156123d3576123d26134fe565b5b6040519080825280601f01601f1916602001820160405280156124055781602001600182028036833780820191505090505b5090505b600085146124925760018261241e91906147c9565b9150600a8561242d9190614b35565b60306124399190614b66565b60f81b81838151811061244f5761244e614646565b5b60200101907effffffffffffffffffffffffffffffffffffffffffffffffffffffffffffff1916908160001a905350600a8561248b9190614b04565b9450612409565b8093505050505b919050565b612500816000808773ffffffffffffffffffffffffffffffffffffffff1673ffffffffffffffffffffffffffffffffffffffff1681526020019081526020016000206000858152602001908152602001600020546128e490919063ffffffff16565b6000808673ffffffffffffffffffffffffffffffffffffffff1673ffffffffffffffffffffffffffffffffffffffff1681526020019081526020016000206000848152602001908152602001600020819055506125b5816000808673ffffffffffffffffffffffffffffffffffffffff1673ffffffffffffffffffffffffffffffffffffffff1681526020019081526020016000206000858152602001908152602001600020546128fa90919063ffffffff16565b6000808573ffffffffffffffffffffffffffffffffffffffff1673ffffffffffffffffffffffffffffffffffffffff1681526020019081526020016000206000848152602001908152602001600020819055508273ffffffffffffffffffffffffffffffffffffffff168473ffffffffffffffffffffffffffffffffffffffff163373ffffffffffffffffffffffffffffffffffffffff167fc3d58168c5ae7397731d063d5bbf3d657854427343f4c083240f7aacaa2d0f62858560405161267e9291906150a8565b60405180910390a450505050565b6126ab8573ffffffffffffffffffffffffffffffffffffffff16612910565b1561285b578473ffffffffffffffffffffffffffffffffffffffff1663f23a6e6133888787866040518663ffffffff1660e01b81526004016126f19594939291906150d1565b6020604051808303816000875af192505050801561272d57506040513d601f19601f8201168201806040525081019061272a9190614d80565b60015b6127d257612739614dba565b806308c379a003612795575061274d614ddc565b806127585750612797565b806040517f08c379a000000000000000000000000000000000000000000000000000000000815260040161278c91906134aa565b60405180910390fd5b505b6040517f08c379a00000000000000000000000000000000000000000000000000000000081526004016127c990614ede565b60405180910390fd5b63f23a6e6160e01b7bffffffffffffffffffffffffffffffffffffffffffffffffffffffff1916817bffffffffffffffffffffffffffffffffffffffffffffffffffffffff191614612859576040517f08c379a000000000000000000000000000000000000000000000000000000000815260040161285090614f70565b60405180910390fd5b505b505050505050565b60007fd9b67a26000000000000000000000000000000000000000000000000000000007bffffffffffffffffffffffffffffffffffffffffffffffffffffffff1916827bffffffffffffffffffffffffffffffffffffffffffffffffffffffff1916036128d357600190506128df565b6128dc82612eb3565b90505b919050565b600081836128f291906147c9565b905092915050565b600081836129089190614b66565b905092915050565b6000808273ffffffffffffffffffffffffffffffffffffffff163b119050919050565b60008060006129428585612f1d565b915091506000600481111561295a5761295961512b565b5b81600481111561296d5761296c61512b565b5b1480156129a557508573ffffffffffffffffffffffffffffffffffffffff168273ffffffffffffffffffffffffffffffffffffffff16145b156129b557600192505050612b11565b6000808773ffffffffffffffffffffffffffffffffffffffff16631626ba7e60e01b88886040516024016129ea929190615173565b604051602081830303815290604052907bffffffffffffffffffffffffffffffffffffffffffffffffffffffff19166020820180517bffffffffffffffffffffffffffffffffffffffffffffffffffffffff8381831617835250505050604051612a5491906151df565b600060405180830381855afa9150503d8060008114612a8f576040519150601f19603f3d011682016040523d82523d6000602084013e612a94565b606091505b5091509150818015612aa7575060208151145b8015612b0a5750631626ba7e60e01b7bffffffffffffffffffffffffffffffffffffffffffffffffffffffff191681806020019051810190612ae99190614d80565b7bffffffffffffffffffffffffffffffffffffffffffffffffffffffff1916145b9450505050505b9392505050565b600082612b258584612f9e565b1490509392505050565b6003601481819054906101000a900460ff1680929190612b4e906151f6565b91906101000a81548160ff021916908360ff16021790555050565b612bcb826000808773ffffffffffffffffffffffffffffffffffffffff1673ffffffffffffffffffffffffffffffffffffffff1681526020019081526020016000206000868152602001908152602001600020546128fa90919063ffffffff16565b6000808673ffffffffffffffffffffffffffffffffffffffff1673ffffffffffffffffffffffffffffffffffffffff1681526020019081526020016000206000858152602001908152602001600020819055508373ffffffffffffffffffffffffffffffffffffffff16600073ffffffffffffffffffffffffffffffffffffffff163373ffffffffffffffffffffffffffffffffffffffff167fc3d58168c5ae7397731d063d5bbf3d657854427343f4c083240f7aacaa2d0f628686604051612c959291906150a8565b60405180910390a4612cac60008585855a8661268c565b50505050565b8151835114612cf6576040517f08c379a0000000000000000000000000000000000000000000000000000000008152600401612ced90615291565b60405180910390fd5b60008351905060005b81811015612e1d57612d9d848281518110612d1d57612d1c614646565b5b60200260200101516000808973ffffffffffffffffffffffffffffffffffffffff1673ffffffffffffffffffffffffffffffffffffffff1681526020019081526020016000206000888581518110612d7857612d77614646565b5b60200260200101518152602001908152602001600020546128fa90919063ffffffff16565b6000808873ffffffffffffffffffffffffffffffffffffffff1673ffffffffffffffffffffffffffffffffffffffff1681526020019081526020016000206000878481518110612df057612def614646565b5b60200260200101518152602001908152602001600020819055508080612e1590614675565b915050612cff565b508473ffffffffffffffffffffffffffffffffffffffff16600073ffffffffffffffffffffffffffffffffffffffff163373ffffffffffffffffffffffffffffffffffffffff167f4a39dc06d4c0dbc64b70af90fd698a233a518aa5d07e595d983b8c0526c8f7fb8787604051612e95929190614c77565b60405180910390a4612eac60008686865a87611d72565b5050505050565b60007f01ffc9a7000000000000000000000000000000000000000000000000000000007bffffffffffffffffffffffffffffffffffffffffffffffffffffffff1916827bffffffffffffffffffffffffffffffffffffffffffffffffffffffff1916149050919050565b6000806041835103612f5e5760008060006020860151925060408601519150606086015160001a9050612f5287828585612ff4565b94509450505050612f97565b6040835103612f8e576000806020850151915060408501519050612f83868383613100565b935093505050612f97565b60006002915091505b9250929050565b60008082905060005b8451811015612fe957612fd482868381518110612fc757612fc6614646565b5b602002602001015161315f565b91508080612fe190614675565b915050612fa7565b508091505092915050565b6000807f7fffffffffffffffffffffffffffffff5d576e7357a4501ddfe92f46681b20a08360001c111561302f5760006003915091506130f7565b601b8560ff16141580156130475750601c8560ff1614155b156130595760006004915091506130f7565b60006001878787876040516000815260200160405260405161307e94939291906152b1565b6020604051602081039080840390855afa1580156130a0573d6000803e3d6000fd5b505050602060405103519050600073ffffffffffffffffffffffffffffffffffffffff168173ffffffffffffffffffffffffffffffffffffffff16036130ee576000600192509250506130f7565b80600092509250505b94509492505050565b60008060007f7fffffffffffffffffffffffffffffffffffffffffffffffffffffffffffffff60001b841690506000601b60ff8660001c901c6131439190614b66565b905061315187828885612ff4565b935093505050935093915050565b600081831061317757613172828461318a565b613182565b613181838361318a565b5b905092915050565b600082600052816020526040600020905092915050565b8280546131ad90613f3c565b90600052602060002090601f0160209004810192826131cf5760008555613216565b82601f106131e857805160ff1916838001178555613216565b82800160010185558215613216579182015b828111156132155782518255916020019190600101906131fa565b5b5090506132239190613227565b5090565b5b80821115613240576000816000905550600101613228565b5090565b6000604051905090565b600080fd5b600080fd5b600073ffffffffffffffffffffffffffffffffffffffff82169050919050565b600061328382613258565b9050919050565b61329381613278565b811461329e57600080fd5b50565b6000813590506132b08161328a565b92915050565b6000819050919050565b6132c9816132b6565b81146132d457600080fd5b50565b6000813590506132e6816132c0565b92915050565b600080604083850312156133035761330261324e565b5b6000613311858286016132a1565b9250506020613322858286016132d7565b9150509250929050565b613335816132b6565b82525050565b6000602082019050613350600083018461332c565b92915050565b60007fffffffff0000000000000000000000000000000000000000000000000000000082169050919050565b61338b81613356565b811461339657600080fd5b50565b6000813590506133a881613382565b92915050565b6000602082840312156133c4576133c361324e565b5b60006133d284828501613399565b91505092915050565b60008115159050919050565b6133f0816133db565b82525050565b600060208201905061340b60008301846133e7565b92915050565b600081519050919050565b600082825260208201905092915050565b60005b8381101561344b578082015181840152602081019050613430565b8381111561345a576000848401525b50505050565b6000601f19601f8301169050919050565b600061347c82613411565b613486818561341c565b935061349681856020860161342d565b61349f81613460565b840191505092915050565b600060208201905081810360008301526134c48184613471565b905092915050565b6000602082840312156134e2576134e161324e565b5b60006134f0848285016132d7565b91505092915050565b600080fd5b7f4e487b7100000000000000000000000000000000000000000000000000000000600052604160045260246000fd5b61353682613460565b810181811067ffffffffffffffff82111715613555576135546134fe565b5b80604052505050565b6000613568613244565b9050613574828261352d565b919050565b600067ffffffffffffffff821115613594576135936134fe565b5b602082029050602081019050919050565b600080fd5b60006135bd6135b884613579565b61355e565b905080838252602082019050602084028301858111156135e0576135df6135a5565b5b835b8181101561360957806135f588826132d7565b8452602084019350506020810190506135e2565b5050509392505050565b600082601f830112613628576136276134f9565b5b81356136388482602086016135aa565b91505092915050565b600080fd5b600067ffffffffffffffff821115613661576136606134fe565b5b61366a82613460565b9050602081019050919050565b82818337600083830152505050565b600061369961369484613646565b61355e565b9050828152602081018484840111156136b5576136b4613641565b5b6136c0848285613677565b509392505050565b600082601f8301126136dd576136dc6134f9565b5b81356136ed848260208601613686565b91505092915050565b600080600080600060a086880312156137125761371161324e565b5b6000613720888289016132a1565b9550506020613731888289016132a1565b945050604086013567ffffffffffffffff81111561375257613751613253565b5b61375e88828901613613565b935050606086013567ffffffffffffffff81111561377f5761377e613253565b5b61378b88828901613613565b925050608086013567ffffffffffffffff8111156137ac576137ab613253565b5b6137b8888289016136c8565b9150509295509295909350565b600080fd5b60008083601f8401126137e0576137df6134f9565b5b8235905067ffffffffffffffff8111156137fd576137fc6137c5565b5b602083019150836020820283011115613819576138186135a5565b5b9250929050565b6000806000806060858703121561383a5761383961324e565b5b6000613848878288016132d7565b945050602085013567ffffffffffffffff81111561386957613868613253565b5b613875878288016136c8565b935050604085013567ffffffffffffffff81111561389657613895613253565b5b6138a2878288016137ca565b925092505092959194509250565b600060ff82169050919050565b6138c6816138b0565b81146138d157600080fd5b50565b6000813590506138e3816138bd565b92915050565b6000602082840312156138ff576138fe61324e565b5b600061390d848285016138d4565b91505092915050565b600061ffff82169050919050565b61392d81613916565b82525050565b60006020820190506139486000830184613924565b92915050565b613957816138b0565b82525050565b6000602082019050613972600083018461394e565b92915050565b600067ffffffffffffffff821115613993576139926134fe565b5b602082029050602081019050919050565b60006139b76139b284613978565b61355e565b905080838252602082019050602084028301858111156139da576139d96135a5565b5b835b81811015613a0357806139ef88826132a1565b8452602084019350506020810190506139dc565b5050509392505050565b600082601f830112613a2257613a216134f9565b5b8135613a328482602086016139a4565b91505092915050565b60008060408385031215613a5257613a5161324e565b5b600083013567ffffffffffffffff811115613a7057613a6f613253565b5b613a7c85828601613a0d565b925050602083013567ffffffffffffffff811115613a9d57613a9c613253565b5b613aa985828601613613565b9150509250929050565b600081519050919050565b600082825260208201905092915050565b6000819050602082019050919050565b613ae8816132b6565b82525050565b6000613afa8383613adf565b60208301905092915050565b6000602082019050919050565b6000613b1e82613ab3565b613b288185613abe565b9350613b3383613acf565b8060005b83811015613b64578151613b4b8882613aee565b9750613b5683613b06565b925050600181019050613b37565b5085935050505092915050565b60006020820190508181036000830152613b8b8184613b13565b905092915050565b600060208284031215613ba957613ba861324e565b5b6000613bb7848285016132a1565b91505092915050565b60008060408385031215613bd757613bd661324e565b5b6000613be5858286016132d7565b925050602083013567ffffffffffffffff811115613c0657613c05613253565b5b613c12858286016136c8565b9150509250929050565b600067ffffffffffffffff821115613c3757613c366134fe565b5b613c4082613460565b9050602081019050919050565b6000613c60613c5b84613c1c565b61355e565b905082815260208101848484011115613c7c57613c7b613641565b5b613c87848285613677565b509392505050565b600082601f830112613ca457613ca36134f9565b5b8135613cb4848260208601613c4d565b91505092915050565b600060208284031215613cd357613cd261324e565b5b600082013567ffffffffffffffff811115613cf157613cf0613253565b5b613cfd84828501613c8f565b91505092915050565b613d0f81613278565b82525050565b6000602082019050613d2a6000830184613d06565b92915050565b613d39816133db565b8114613d4457600080fd5b50565b600081359050613d5681613d30565b92915050565b60008060408385031215613d7357613d7261324e565b5b6000613d81858286016132a1565b9250506020613d9285828601613d47565b9150509250929050565b600067ffffffffffffffff82169050919050565b613db981613d9c565b8114613dc457600080fd5b50565b600081359050613dd681613db0565b92915050565b600060208284031215613df257613df161324e565b5b6000613e0084828501613dc7565b91505092915050565b600060208284031215613e1f57613e1e61324e565b5b6000613e2d84828501613d47565b91505092915050565b60008060408385031215613e4d57613e4c61324e565b5b6000613e5b858286016132a1565b9250506020613e6c858286016132a1565b9150509250929050565b600080600080600060a08688031215613e9257613e9161324e565b5b6000613ea0888289016132a1565b9550506020613eb1888289016132a1565b9450506040613ec2888289016132d7565b9350506060613ed3888289016132d7565b925050608086013567ffffffffffffffff811115613ef457613ef3613253565b5b613f00888289016136c8565b9150509295509295909350565b7f4e487b7100000000000000000000000000000000000000000000000000000000600052602260045260246000fd5b60006002820490506001821680613f5457607f821691505b602082108103613f6757613f66613f0d565b5b50919050565b600081905092915050565b60008190508160005260206000209050919050565b60008154613f9a81613f3c565b613fa48186613f6d565b94506001821660008114613fbf5760018114613fd057614003565b60ff19831686528186019350614003565b613fd985613f78565b60005b83811015613ffb57815481890152600182019150602081019050613fdc565b838801955050505b50505092915050565b600061401782613411565b6140218185613f6d565b935061403181856020860161342d565b80840191505092915050565b7f2e6a736f6e000000000000000000000000000000000000000000000000000000600082015250565b6000614073600583613f6d565b915061407e8261403d565b600582019050919050565b60006140958285613f8d565b91506140a1828461400c565b91506140ac82614066565b91508190509392505050565b7f45524331313535237361666542617463685472616e7366657246726f6d3a204960008201527f4e56414c49445f4f50455241544f520000000000000000000000000000000000602082015250565b6000614114602f8361341c565b915061411f826140b8565b604082019050919050565b6000602082019050818103600083015261414381614107565b9050919050565b7f45524331313535237361666542617463685472616e7366657246726f6d3a204960008201527f4e56414c49445f524543495049454e5400000000000000000000000000000000602082015250565b60006141a660308361341c565b91506141b18261414a565b604082019050919050565b600060208201905081810360008301526141d581614199565b9050919050565b7f4d696e74696e6720697320506175736564000000000000000000000000000000600082015250565b600061421260118361341c565b915061421d826141dc565b602082019050919050565b6000602082019050818103600083015261424181614205565b9050919050565b7f4d696e74696e67206e6f74207965742073746172746564000000000000000000600082015250565b600061427e60178361341c565b915061428982614248565b602082019050919050565b600060208201905081810360008301526142ad81614271565b9050919050565b7f4d696e74696e6720616c726561647920656e6465640000000000000000000000600082015250565b60006142ea60158361341c565b91506142f5826142b4565b602082019050919050565b60006020820190508181036000830152614319816142dd565b9050919050565b7f546f6b656e20616c726561647920757365640000000000000000000000000000600082015250565b600061435660128361341c565b915061436182614320565b602082019050919050565b6000602082019050818103600083015261438581614349565b9050919050565b60008151905061439b8161328a565b92915050565b6000602082840312156143b7576143b661324e565b5b60006143c58482850161438c565b91505092915050565b7f4e6f7420746f6b656e206f776e65720000000000000000000000000000000000600082015250565b6000614404600f8361341c565b915061440f826143ce565b602082019050919050565b60006020820190508181036000830152614433816143f7565b9050919050565b7f57726f6e67207369676e61747572650000000000000000000000000000000000600082015250565b6000614470600f8361341c565b915061447b8261443a565b602082019050919050565b6000602082019050818103600083015261449f81614463565b9050919050565b6000819050919050565b6144c16144bc826132b6565b6144a6565b82525050565b60006144d382846144b0565b60208201915081905092915050565b7f496e76616c6964206d65726b6c652070726f6f66000000000000000000000000600082015250565b600061451860148361341c565b9150614523826144e2565b602082019050919050565b600060208201905081810360008301526145478161450b565b9050919050565b7f4e487b7100000000000000000000000000000000000000000000000000000000600052601160045260246000fd5b6000614588826138b0565b9150614593836138b0565b92508260ff038211156145a9576145a861454e565b5b828201905092915050565b7f455243313135352362616c616e63654f6642617463683a20494e56414c49445f60008201527f41525241595f4c454e4754480000000000000000000000000000000000000000602082015250565b6000614610602c8361341c565b915061461b826145b4565b604082019050919050565b6000602082019050818103600083015261463f81614603565b9050919050565b7f4e487b7100000000000000000000000000000000000000000000000000000000600052603260045260246000fd5b6000614680826132b6565b91507fffffffffffffffffffffffffffffffffffffffffffffffffffffffffffffffff82036146b2576146b161454e565b5b600182019050919050565b7f57726f6e67207369676e65720000000000000000000000000000000000000000600082015250565b60006146f3600c8361341c565b91506146fe826146bd565b602082019050919050565b60006020820190508181036000830152614722816146e6565b9050919050565b7f446561646c696e65206e6f7420796574206f7665720000000000000000000000600082015250565b600061475f60158361341c565b915061476a82614729565b602082019050919050565b6000602082019050818103600083015261478e81614752565b9050919050565b60006147a082613916565b91506147ab83613916565b9250828210156147be576147bd61454e565b5b828203905092915050565b60006147d4826132b6565b91506147df836132b6565b9250828210156147f2576147f161454e565b5b828203905092915050565b7f57726f6e6720656e6420646561646c696e650000000000000000000000000000600082015250565b600061483360128361341c565b915061483e826147fd565b602082019050919050565b6000602082019050818103600083015261486281614826565b9050919050565b7f4552433732315472616461626c65237572693a204e4f4e4558495354454e545f60008201527f544f4b454e000000000000000000000000000000000000000000000000000000602082015250565b60006148c560258361341c565b91506148d082614869565b604082019050919050565b600060208201905081810360008301526148f4816148b8565b9050919050565b60006149078285613f8d565b9150614913828461400c565b91508190509392505050565b7f4552433131353523736166655472616e7366657246726f6d3a20494e56414c4960008201527f445f4f50455241544f5200000000000000000000000000000000000000000000602082015250565b600061497b602a8361341c565b91506149868261491f565b604082019050919050565b600060208201905081810360008301526149aa8161496e565b9050919050565b7f4552433131353523736166655472616e7366657246726f6d3a20494e56414c4960008201527f445f524543495049454e54000000000000000000000000000000000000000000602082015250565b6000614a0d602b8361341c565b9150614a18826149b1565b604082019050919050565b60006020820190508181036000830152614a3c81614a00565b9050919050565b7f4f776e61626c653a206e6577206f776e657220697320746865207a65726f206160008201527f6464726573730000000000000000000000000000000000000000000000000000602082015250565b6000614a9f60268361341c565b9150614aaa82614a43565b604082019050919050565b60006020820190508181036000830152614ace81614a92565b9050919050565b7f4e487b7100000000000000000000000000000000000000000000000000000000600052601260045260246000fd5b6000614b0f826132b6565b9150614b1a836132b6565b925082614b2a57614b29614ad5565b5b828204905092915050565b6000614b40826132b6565b9150614b4b836132b6565b925082614b5b57614b5a614ad5565b5b828206905092915050565b6000614b71826132b6565b9150614b7c836132b6565b9250827fffffffffffffffffffffffffffffffffffffffffffffffffffffffffffffffff03821115614bb157614bb061454e565b5b828201905092915050565b6000614bc7826132b6565b915060008203614bda57614bd961454e565b5b600182039050919050565b7f45524331313535235f7361666542617463685472616e7366657246726f6d3a2060008201527f494e56414c49445f4152524159535f4c454e4754480000000000000000000000602082015250565b6000614c4160358361341c565b9150614c4c82614be5565b604082019050919050565b60006020820190508181036000830152614c7081614c34565b9050919050565b60006040820190508181036000830152614c918185613b13565b90508181036020830152614ca58184613b13565b90509392505050565b600081519050919050565b600082825260208201905092915050565b6000614cd582614cae565b614cdf8185614cb9565b9350614cef81856020860161342d565b614cf881613460565b840191505092915050565b600060a082019050614d186000830188613d06565b614d256020830187613d06565b8181036040830152614d378186613b13565b90508181036060830152614d4b8185613b13565b90508181036080830152614d5f8184614cca565b90509695505050505050565b600081519050614d7a81613382565b92915050565b600060208284031215614d9657614d9561324e565b5b6000614da484828501614d6b565b91505092915050565b60008160e01c9050919050565b600060033d1115614dd95760046000803e614dd6600051614dad565b90505b90565b600060443d10614e6957614dee613244565b60043d036004823e80513d602482011167ffffffffffffffff82111715614e16575050614e69565b808201805167ffffffffffffffff811115614e345750505050614e69565b80602083010160043d038501811115614e51575050505050614e69565b614e608260200185018661352d565b82955050505050505b90565b7f455243313135353a207472616e7366657220746f206e6f6e204552433131353560008201527f526563656976657220696d706c656d656e746572000000000000000000000000602082015250565b6000614ec860348361341c565b9150614ed382614e6c565b604082019050919050565b60006020820190508181036000830152614ef781614ebb565b9050919050565b7f455243313135353a204552433131353552656365697665722072656a6563746560008201527f6420746f6b656e73000000000000000000000000000000000000000000000000602082015250565b6000614f5a60288361341c565b9150614f6582614efe565b604082019050919050565b60006020820190508181036000830152614f8981614f4d565b9050919050565b60008160601b9050919050565b6000614fa882614f90565b9050919050565b6000614fba82614f9d565b9050919050565b614fd2614fcd82613278565b614faf565b82525050565b6000614fe48285614fc1565b601482019150614ff482846144b0565b6020820191508190509392505050565b600061500f82613916565b915061501a83613916565b92508261ffff038211156150315761503061454e565b5b828201905092915050565b7f4f776e61626c653a2063616c6c6572206973206e6f7420746865206f776e6572600082015250565b600061507260208361341c565b915061507d8261503c565b602082019050919050565b600060208201905081810360008301526150a181615065565b9050919050565b60006040820190506150bd600083018561332c565b6150ca602083018461332c565b9392505050565b600060a0820190506150e66000830188613d06565b6150f36020830187613d06565b615100604083018661332c565b61510d606083018561332c565b818103608083015261511f8184614cca565b90509695505050505050565b7f4e487b7100000000000000000000000000000000000000000000000000000000600052602160045260246000fd5b6000819050919050565b61516d8161515a565b82525050565b60006040820190506151886000830185615164565b818103602083015261519a8184614cca565b90509392505050565b600081905092915050565b60006151b982614cae565b6151c381856151a3565b93506151d381856020860161342d565b80840191505092915050565b60006151eb82846151ae565b915081905092915050565b6000615201826138b0565b915060ff82036152145761521361454e565b5b600182019050919050565b7f455243313135354d696e744275726e2362617463684d696e743a20494e56414c60008201527f49445f4152524159535f4c454e47544800000000000000000000000000000000602082015250565b600061527b60308361341c565b91506152868261521f565b604082019050919050565b600060208201905081810360008301526152aa8161526e565b9050919050565b60006080820190506152c66000830187615164565b6152d3602083018661394e565b6152e06040830185615164565b6152ed6060830184615164565b9594505050505056fea26469706673582212202e188c2a6d33156a086eb91e8ac6458eb3924241042458acefed986c98aa28b864736f6c634300080d0033",
  "linkReferences": {},
  "deployedLinkReferences": {}
}