{
  "_format": "hh-sol-artifact-1",
  "contractName": "Materia",
  "sourceName": "contracts/Materia.sol",
  "abi": [
    {
      "inputs": [
        {
          "internalType": "string",
          "name": "_name",
          "type": "string"
        },
        {
          "internalType": "string",
          "name": "_symbol",
          "type": "string"
        },
        {
          "internalType": "string",
          "name": "_metadataURI",
          "type": "string"
        },
        {
          "internalType": "uint256",
          "name": "start",
          "type": "uint256"
        },
        {
          "internalType": "uint256",
          "name": "end",
          "type": "uint256"
        },
        {
          "internalType": "address",
          "name": "signer",
          "type": "address"
        },
        {
          "internalType": "address",
          "name": "antonym",
          "type": "address"
        },
        {
          "internalType": "uint256[]",
          "name": "antonym1of1Tokens",
          "type": "uint256[]"
        }
      ],
      "stateMutability": "nonpayable",
      "type": "constructor"
    },
    {
      "anonymous": false,
      "inputs": [
        {
          "indexed": true,
          "internalType": "address",
          "name": "_owner",
          "type": "address"
        },
        {
          "indexed": true,
          "internalType": "address",
          "name": "_operator",
          "type": "address"
        },
        {
          "indexed": false,
          "internalType": "bool",
          "name": "_approved",
          "type": "bool"
        }
      ],
      "name": "ApprovalForAll",
      "type": "event"
    },
    {
      "anonymous": false,
      "inputs": [
        {
          "indexed": true,
          "internalType": "address",
          "name": "previousOwner",
          "type": "address"
        },
        {
          "indexed": true,
          "internalType": "address",
          "name": "newOwner",
          "type": "address"
        }
      ],
      "name": "OwnershipTransferred",
      "type": "event"
    },
    {
      "anonymous": false,
      "inputs": [
        {
          "indexed": true,
          "internalType": "address",
          "name": "_operator",
          "type": "address"
        },
        {
          "indexed": true,
          "internalType": "address",
          "name": "_from",
          "type": "address"
        },
        {
          "indexed": true,
          "internalType": "address",
          "name": "_to",
          "type": "address"
        },
        {
          "indexed": false,
          "internalType": "uint256[]",
          "name": "_ids",
          "type": "uint256[]"
        },
        {
          "indexed": false,
          "internalType": "uint256[]",
          "name": "_amounts",
          "type": "uint256[]"
        }
      ],
      "name": "TransferBatch",
      "type": "event"
    },
    {
      "anonymous": false,
      "inputs": [
        {
          "indexed": true,
          "internalType": "address",
          "name": "_operator",
          "type": "address"
        },
        {
          "indexed": true,
          "internalType": "address",
          "name": "_from",
          "type": "address"
        },
        {
          "indexed": true,
          "internalType": "address",
          "name": "_to",
          "type": "address"
        },
        {
          "indexed": false,
          "internalType": "uint256",
          "name": "_id",
          "type": "uint256"
        },
        {
          "indexed": false,
          "internalType": "uint256",
          "name": "_amount",
          "type": "uint256"
        }
      ],
      "name": "TransferSingle",
      "type": "event"
    },
    {
      "anonymous": false,
      "inputs": [
        {
          "indexed": false,
          "internalType": "string",
          "name": "_uri",
          "type": "string"
        },
        {
          "indexed": true,
          "internalType": "uint256",
          "name": "_id",
          "type": "uint256"
        }
      ],
      "name": "URI",
      "type": "event"
    },
    {
      "inputs": [
        {
          "internalType": "bool",
          "name": "allow",
          "type": "bool"
        }
      ],
      "name": "allowMinting",
      "outputs": [],
      "stateMutability": "nonpayable",
      "type": "function"
    },
    {
      "inputs": [
        {
          "internalType": "address",
          "name": "_owner",
          "type": "address"
        },
        {
          "internalType": "uint256",
          "name": "_id",
          "type": "uint256"
        }
      ],
      "name": "balanceOf",
      "outputs": [
        {
          "internalType": "uint256",
          "name": "",
          "type": "uint256"
        }
      ],
      "stateMutability": "view",
      "type": "function"
    },
    {
      "inputs": [
        {
          "internalType": "address[]",
          "name": "_owners",
          "type": "address[]"
        },
        {
          "internalType": "uint256[]",
          "name": "_ids",
          "type": "uint256[]"
        }
      ],
      "name": "balanceOfBatch",
      "outputs": [
        {
          "internalType": "uint256[]",
          "name": "",
          "type": "uint256[]"
        }
      ],
      "stateMutability": "view",
      "type": "function"
    },
    {
      "inputs": [],
      "name": "getNextTokenID",
      "outputs": [
        {
          "internalType": "uint8",
          "name": "",
          "type": "uint8"
        }
      ],
      "stateMutability": "view",
      "type": "function"
    },
    {
      "inputs": [
        {
          "internalType": "uint256",
          "name": "",
          "type": "uint256"
        }
      ],
      "name": "isAntonymTokenUsed",
      "outputs": [
        {
          "internalType": "uint256",
          "name": "",
          "type": "uint256"
        }
      ],
      "stateMutability": "view",
      "type": "function"
    },
    {
      "inputs": [
        {
          "internalType": "address",
          "name": "_owner",
          "type": "address"
        },
        {
          "internalType": "address",
          "name": "_operator",
          "type": "address"
        }
      ],
      "name": "isApprovedForAll",
      "outputs": [
        {
          "internalType": "bool",
          "name": "isOperator",
          "type": "bool"
        }
      ],
      "stateMutability": "view",
      "type": "function"
    },
    {
      "inputs": [
        {
          "internalType": "address",
          "name": "account",
          "type": "address"
        },
        {
          "internalType": "uint256[]",
          "name": "tokenIds",
          "type": "uint256[]"
        }
      ],
      "name": "messageHash",
      "outputs": [
        {
          "internalType": "bytes32",
          "name": "",
          "type": "bytes32"
        }
      ],
      "stateMutability": "pure",
      "type": "function"
    },
    {
      "inputs": [
        {
          "internalType": "uint256[]",
          "name": "tokenIds",
          "type": "uint256[]"
        },
        {
          "internalType": "bytes",
          "name": "signature",
          "type": "bytes"
        }
      ],
      "name": "mint",
      "outputs": [],
      "stateMutability": "nonpayable",
      "type": "function"
    },
    {
      "inputs": [
        {
          "internalType": "address",
          "name": "to",
          "type": "address"
        },
        {
          "internalType": "uint256",
          "name": "amountMateria",
          "type": "uint256"
        },
        {
          "internalType": "uint256",
          "name": "amountPrimaMateria",
          "type": "uint256"
        }
      ],
      "name": "mintBatchMateria",
      "outputs": [],
      "stateMutability": "nonpayable",
      "type": "function"
    },
    {
      "inputs": [],
      "name": "name",
      "outputs": [
        {
          "internalType": "string",
          "name": "",
          "type": "string"
        }
      ],
      "stateMutability": "view",
      "type": "function"
    },
    {
      "inputs": [],
      "name": "owner",
      "outputs": [
        {
          "internalType": "address",
          "name": "",
          "type": "address"
        }
      ],
      "stateMutability": "view",
      "type": "function"
    },
    {
      "inputs": [],
      "name": "renounceOwnership",
      "outputs": [],
      "stateMutability": "nonpayable",
      "type": "function"
    },
    {
      "inputs": [
        {
          "internalType": "uint256",
          "name": "_tokenId",
          "type": "uint256"
        },
        {
          "internalType": "uint256",
          "name": "_salePrice",
          "type": "uint256"
        }
      ],
      "name": "royaltyInfo",
      "outputs": [
        {
          "internalType": "address",
          "name": "receiver",
          "type": "address"
        },
        {
          "internalType": "uint256",
          "name": "royaltyAmount",
          "type": "uint256"
        }
      ],
      "stateMutability": "view",
      "type": "function"
    },
    {
      "inputs": [
        {
          "internalType": "address",
          "name": "_from",
          "type": "address"
        },
        {
          "internalType": "address",
          "name": "_to",
          "type": "address"
        },
        {
          "internalType": "uint256[]",
          "name": "_ids",
          "type": "uint256[]"
        },
        {
          "internalType": "uint256[]",
          "name": "_amounts",
          "type": "uint256[]"
        },
        {
          "internalType": "bytes",
          "name": "_data",
          "type": "bytes"
        }
      ],
      "name": "safeBatchTransferFrom",
      "outputs": [],
      "stateMutability": "nonpayable",
      "type": "function"
    },
    {
      "inputs": [
        {
          "internalType": "address",
          "name": "_from",
          "type": "address"
        },
        {
          "internalType": "address",
          "name": "_to",
          "type": "address"
        },
        {
          "internalType": "uint256",
          "name": "_id",
          "type": "uint256"
        },
        {
          "internalType": "uint256",
          "name": "_amount",
          "type": "uint256"
        },
        {
          "internalType": "bytes",
          "name": "_data",
          "type": "bytes"
        }
      ],
      "name": "safeTransferFrom",
      "outputs": [],
      "stateMutability": "nonpayable",
      "type": "function"
    },
    {
      "inputs": [
        {
          "internalType": "address",
          "name": "_operator",
          "type": "address"
        },
        {
          "internalType": "bool",
          "name": "_approved",
          "type": "bool"
        }
      ],
      "name": "setApprovalForAll",
      "outputs": [],
      "stateMutability": "nonpayable",
      "type": "function"
    },
    {
      "inputs": [
        {
          "internalType": "string",
          "name": "_newBaseMetadataURI",
          "type": "string"
        }
      ],
      "name": "setBaseMetadataURI",
      "outputs": [],
      "stateMutability": "nonpayable",
      "type": "function"
    },
    {
      "inputs": [
        {
          "internalType": "uint256",
          "name": "end",
          "type": "uint256"
        }
      ],
      "name": "setDeadline",
      "outputs": [],
      "stateMutability": "nonpayable",
      "type": "function"
    },
    {
      "inputs": [
        {
          "internalType": "address",
          "name": "royaltyAddress",
          "type": "address"
        }
      ],
      "name": "setRoyaltyAddress",
      "outputs": [],
      "stateMutability": "nonpayable",
      "type": "function"
    },
    {
      "inputs": [
        {
          "internalType": "uint256",
          "name": "royaltyBasisPoints",
          "type": "uint256"
        }
      ],
      "name": "setRoyaltyRate",
      "outputs": [],
      "stateMutability": "nonpayable",
      "type": "function"
    },
    {
      "inputs": [
        {
          "internalType": "address",
          "name": "signer",
          "type": "address"
        }
      ],
      "name": "setSigner",
      "outputs": [],
      "stateMutability": "nonpayable",
      "type": "function"
    },
    {
      "inputs": [
        {
          "internalType": "bytes4",
          "name": "interfaceId",
          "type": "bytes4"
        }
      ],
      "name": "supportsInterface",
      "outputs": [
        {
          "internalType": "bool",
          "name": "",
          "type": "bool"
        }
      ],
      "stateMutability": "view",
      "type": "function"
    },
    {
      "inputs": [],
      "name": "symbol",
      "outputs": [
        {
          "internalType": "string",
          "name": "",
          "type": "string"
        }
      ],
      "stateMutability": "view",
      "type": "function"
    },
    {
      "inputs": [
        {
          "internalType": "uint256",
          "name": "",
          "type": "uint256"
        }
      ],
      "name": "tokenSupply",
      "outputs": [
        {
          "internalType": "uint256",
          "name": "",
          "type": "uint256"
        }
      ],
      "stateMutability": "view",
      "type": "function"
    },
    {
      "inputs": [
        {
          "internalType": "uint256",
          "name": "_id",
          "type": "uint256"
        }
      ],
      "name": "totalSupply",
      "outputs": [
        {
          "internalType": "uint256",
          "name": "",
          "type": "uint256"
        }
      ],
      "stateMutability": "view",
      "type": "function"
    },
    {
      "inputs": [
        {
          "internalType": "address",
          "name": "newOwner",
          "type": "address"
        }
      ],
      "name": "transferOwnership",
      "outputs": [],
      "stateMutability": "nonpayable",
      "type": "function"
    },
    {
      "inputs": [
        {
          "internalType": "uint256",
          "name": "_id",
          "type": "uint256"
        }
      ],
      "name": "uri",
      "outputs": [
        {
          "internalType": "string",
          "name": "",
          "type": "string"
        }
      ],
      "stateMutability": "view",
      "type": "function"
    }
  ],
  "bytecode": "0x60806040526001600a60006101000a81548160ff0219169083151502179055503480156200002c57600080fd5b5060405162005bbe38038062005bbe8339818101604052810190620000529190620007d3565b87878762000075620000696200032160201b60201c565b6200032960201b60201c565b82600590805190602001906200008d9291906200040b565b508160069080519060200190620000a69291906200040b565b50620000b881620003ef60201b60201c565b50505042851162000100576040517f08c379a0000000000000000000000000000000000000000000000000000000008152600401620000f79062000979565b60405180910390fd5b84841162000145576040517f08c379a00000000000000000000000000000000000000000000000000000000081526004016200013c90620009eb565b60405180910390fd5b600073ffffffffffffffffffffffffffffffffffffffff168373ffffffffffffffffffffffffffffffffffffffff1603620001b7576040517f08c379a0000000000000000000000000000000000000000000000000000000008152600401620001ae9062000a5d565b60405180910390fd5b600073ffffffffffffffffffffffffffffffffffffffff168273ffffffffffffffffffffffffffffffffffffffff160362000229576040517f08c379a0000000000000000000000000000000000000000000000000000000008152600401620002209062000acf565b60405180910390fd5b846007819055508360088190555082600b60006101000a81548173ffffffffffffffffffffffffffffffffffffffff021916908373ffffffffffffffffffffffffffffffffffffffff16021790555081600c60006101000a81548173ffffffffffffffffffffffffffffffffffffffff021916908373ffffffffffffffffffffffffffffffffffffffff16021790555060005b815181101562000312576001600d6000848481518110620002e257620002e162000af1565b5b60200260200101518152602001908152602001600020819055508080620003099062000b4f565b915050620002bc565b50505050505050505062000c00565b600033905090565b6000600360009054906101000a900473ffffffffffffffffffffffffffffffffffffffff16905081600360006101000a81548173ffffffffffffffffffffffffffffffffffffffff021916908373ffffffffffffffffffffffffffffffffffffffff1602179055508173ffffffffffffffffffffffffffffffffffffffff168173ffffffffffffffffffffffffffffffffffffffff167f8be0079c531659141344cd1fd0a4f28419497f9722a3daafe3b4186f6b6457e060405160405180910390a35050565b8060029080519060200190620004079291906200040b565b5050565b828054620004199062000bcb565b90600052602060002090601f0160209004810192826200043d576000855562000489565b82601f106200045857805160ff191683800117855562000489565b8280016001018555821562000489579182015b82811115620004885782518255916020019190600101906200046b565b5b5090506200049891906200049c565b5090565b5b80821115620004b75760008160009055506001016200049d565b5090565b6000604051905090565b600080fd5b600080fd5b600080fd5b600080fd5b6000601f19601f8301169050919050565b7f4e487b7100000000000000000000000000000000000000000000000000000000600052604160045260246000fd5b6200052482620004d9565b810181811067ffffffffffffffff82111715620005465762000545620004ea565b5b80604052505050565b60006200055b620004bb565b905062000569828262000519565b919050565b600067ffffffffffffffff8211156200058c576200058b620004ea565b5b6200059782620004d9565b9050602081019050919050565b60005b83811015620005c4578082015181840152602081019050620005a7565b83811115620005d4576000848401525b50505050565b6000620005f1620005eb846200056e565b6200054f565b90508281526020810184848401111562000610576200060f620004d4565b5b6200061d848285620005a4565b509392505050565b600082601f8301126200063d576200063c620004cf565b5b81516200064f848260208601620005da565b91505092915050565b6000819050919050565b6200066d8162000658565b81146200067957600080fd5b50565b6000815190506200068d8162000662565b92915050565b600073ffffffffffffffffffffffffffffffffffffffff82169050919050565b6000620006c08262000693565b9050919050565b620006d281620006b3565b8114620006de57600080fd5b50565b600081519050620006f281620006c7565b92915050565b600067ffffffffffffffff821115620007165762000715620004ea565b5b602082029050602081019050919050565b600080fd5b6000620007436200073d84620006f8565b6200054f565b9050808382526020820190506020840283018581111562000769576200076862000727565b5b835b818110156200079657806200078188826200067c565b8452602084019350506020810190506200076b565b5050509392505050565b600082601f830112620007b857620007b7620004cf565b5b8151620007ca8482602086016200072c565b91505092915050565b600080600080600080600080610100898b031215620007f757620007f6620004c5565b5b600089015167ffffffffffffffff811115620008185762000817620004ca565b5b620008268b828c0162000625565b985050602089015167ffffffffffffffff8111156200084a5762000849620004ca565b5b620008588b828c0162000625565b975050604089015167ffffffffffffffff8111156200087c576200087b620004ca565b5b6200088a8b828c0162000625565b96505060606200089d8b828c016200067c565b9550506080620008b08b828c016200067c565b94505060a0620008c38b828c01620006e1565b93505060c0620008d68b828c01620006e1565b92505060e089015167ffffffffffffffff811115620008fa57620008f9620004ca565b5b620009088b828c01620007a0565b9150509295985092959890939650565b600082825260208201905092915050565b7f53746172742063616e6e6f7420626520696e2074686520706173740000000000600082015250565b600062000961601b8362000918565b91506200096e8262000929565b602082019050919050565b60006020820190508181036000830152620009948162000952565b9050919050565b7f57726f6e6720656e6420646561646c696e650000000000000000000000000000600082015250565b6000620009d360128362000918565b9150620009e0826200099b565b602082019050919050565b6000602082019050818103600083015262000a0681620009c4565b9050919050565b7f57726f6e67207369676e65720000000000000000000000000000000000000000600082015250565b600062000a45600c8362000918565b915062000a528262000a0d565b602082019050919050565b6000602082019050818103600083015262000a788162000a36565b9050919050565b7f57726f6e67204e46540000000000000000000000000000000000000000000000600082015250565b600062000ab760098362000918565b915062000ac48262000a7f565b602082019050919050565b6000602082019050818103600083015262000aea8162000aa8565b9050919050565b7f4e487b7100000000000000000000000000000000000000000000000000000000600052603260045260246000fd5b7f4e487b7100000000000000000000000000000000000000000000000000000000600052601160045260246000fd5b600062000b5c8262000658565b91507fffffffffffffffffffffffffffffffffffffffffffffffffffffffffffffffff820362000b915762000b9062000b20565b5b600182019050919050565b7f4e487b7100000000000000000000000000000000000000000000000000000000600052602260045260246000fd5b6000600282049050600182168062000be457607f821691505b60208210810362000bfa5762000bf962000b9c565b5b50919050565b614fae8062000c106000396000f3fe608060405234801561001057600080fd5b50600436106101a85760003560e01c8063697b0ad4116100f9578063a22cb46511610097578063e0a0bffc11610071578063e0a0bffc146104c8578063e985e9c5146104f8578063f242432a14610528578063f2fde38b14610544576101a8565b8063a22cb4651461044c578063bd85b03914610468578063d9aceeb714610498576101a8565b80637e518ec8116100d35780637e518ec8146103d85780638bb2513b146103f45780638da5cb5b1461041057806395d89b411461042e576101a8565b8063697b0ad4146103965780636c19e783146103b2578063715018a6146103ce576101a8565b80632693ebf2116101665780632eb2c2d6116101405780632eb2c2d6146103105780634a1981191461032c5780634e1273f41461034a578063537782a21461037a576101a8565b80632693ebf2146102935780632a55205a146102c35780632c5a8e86146102f4576101a8565b8062fdd58e146101ad57806301ffc9a7146101dd57806306d254da1461020d57806306fdde03146102295780630e89341c14610247578063195199f614610277575b600080fd5b6101c760048036038101906101c29190612dec565b610560565b6040516101d49190612e3b565b60405180910390f35b6101f760048036038101906101f29190612eae565b6105ba565b6040516102049190612ef6565b60405180910390f35b61022760048036038101906102229190612f11565b610622565b005b61023161066e565b60405161023e9190612fd7565b60405180910390f35b610261600480360381019061025c9190612ff9565b6106fc565b60405161026e9190612fd7565b60405180910390f35b610291600480360381019061028c9190612ff9565b6107a4565b005b6102ad60048036038101906102a89190612ff9565b610805565b6040516102ba9190612e3b565b60405180910390f35b6102dd60048036038101906102d89190613026565b61081d565b6040516102eb929190613075565b60405180910390f35b61030e600480360381019061030991906130ca565b6108b1565b005b61032a600480360381019061032591906132f4565b6108d6565b005b6103346109e5565b60405161034191906133df565b60405180910390f35b610364600480360381019061035f91906134bd565b610a08565b60405161037191906135f3565b60405180910390f35b610394600480360381019061038f9190612ff9565b610b69565b005b6103b060048036038101906103ab9190613615565b610b7b565b005b6103cc60048036038101906103c79190612f11565b610e10565b005b6103d6610ecb565b005b6103f260048036038101906103ed9190613709565b610edf565b005b61040e600480360381019061040991906137ad565b610ef3565b005b6104186113eb565b6040516104259190613829565b60405180910390f35b610436611415565b6040516104439190612fd7565b60405180910390f35b61046660048036038101906104619190613844565b6114a3565b005b610482600480360381019061047d9190612ff9565b6115a0565b60405161048f9190612e3b565b60405180910390f35b6104b260048036038101906104ad9190612ff9565b6115bd565b6040516104bf9190612e3b565b60405180910390f35b6104e260048036038101906104dd9190613884565b6115d5565b6040516104ef91906138f9565b60405180910390f35b610512600480360381019061050d9190613914565b6115e9565b60405161051f9190612ef6565b60405180910390f35b610542600480360381019061053d9190613954565b61167d565b005b61055e60048036038101906105599190612f11565b61178c565b005b60008060008473ffffffffffffffffffffffffffffffffffffffff1673ffffffffffffffffffffffffffffffffffffffff168152602001908152602001600020600083815260200190815260200160002054905092915050565b6000632a55205a60e01b7bffffffffffffffffffffffffffffffffffffffffffffffffffffffff1916827bffffffffffffffffffffffffffffffffffffffffffffffffffffffff191603610611576001905061061d565b61061a8261180f565b90505b919050565b61062a611890565b80600a60016101000a81548173ffffffffffffffffffffffffffffffffffffffff021916908373ffffffffffffffffffffffffffffffffffffffff16021790555050565b6005805461067b90613a1a565b80601f01602080910402602001604051908101604052809291908181526020018280546106a790613a1a565b80156106f45780601f106106c9576101008083540402835291602001916106f4565b820191906000526020600020905b8154815290600101906020018083116106d757829003601f168201915b505050505081565b60606107078261190e565b610746576040517f08c379a000000000000000000000000000000000000000000000000000000000815260040161073d90613abd565b60405180910390fd5b60006002805461075590613a1a565b905011610771576040518060200160405280600081525061079d565b600261077c8361192d565b60405160200161078d929190613bad565b6040516020818303038152906040525b9050919050565b6107ac611890565b600754811180156107bc57504281115b6107fb576040517f08c379a00000000000000000000000000000000000000000000000000000000081526004016107f290613c1d565b60405180910390fd5b8060088190555050565b60046020528060005260406000206000915090505481565b6000806108298461190e565b610868576040517f08c379a000000000000000000000000000000000000000000000000000000000815260040161085f90613c89565b60405180910390fd5b600a60019054906101000a900473ffffffffffffffffffffffffffffffffffffffff166127106009548561089c9190613cd8565b6108a69190613d61565b915091509250929050565b6108b9611890565b80600a60006101000a81548160ff02191690831515021790555050565b8473ffffffffffffffffffffffffffffffffffffffff163373ffffffffffffffffffffffffffffffffffffffff161480610916575061091585336115e9565b5b610955576040517f08c379a000000000000000000000000000000000000000000000000000000000815260040161094c90613e04565b60405180910390fd5b600073ffffffffffffffffffffffffffffffffffffffff168473ffffffffffffffffffffffffffffffffffffffff16036109c4576040517f08c379a00000000000000000000000000000000000000000000000000000000081526004016109bb90613e96565b60405180910390fd5b6109d085858585611a8d565b6109de858585855a86611d81565b5050505050565b60006001600360149054906101000a900460ff16610a039190613eb6565b905090565b60608151835114610a4e576040517f08c379a0000000000000000000000000000000000000000000000000000000008152600401610a4590613f5f565b60405180910390fd5b6000835167ffffffffffffffff811115610a6b57610a6a6130fc565b5b604051908082528060200260200182016040528015610a995781602001602082028036833780820191505090505b50905060005b8451811015610b5e57600080868381518110610abe57610abd613f7f565b5b602002602001015173ffffffffffffffffffffffffffffffffffffffff1673ffffffffffffffffffffffffffffffffffffffff1681526020019081526020016000206000858381518110610b1557610b14613f7f565b5b6020026020010151815260200190815260200160002054828281518110610b3f57610b3e613f7f565b5b6020026020010181815250508080610b5690613fae565b915050610a9f565b508091505092915050565b610b71611890565b8060098190555050565b610b83611890565b600a60009054906101000a900460ff16610bd2576040517f08c379a0000000000000000000000000000000000000000000000000000000008152600401610bc990614042565b60405180910390fd5b4260085410610c16576040517f08c379a0000000000000000000000000000000000000000000000000000000008152600401610c0d906140ae565b60405180910390fd5b606482600460006001815260200190815260200160002054610c3891906140ce565b1115610c79576040517f08c379a0000000000000000000000000000000000000000000000000000000008152600401610c7090614170565b60405180910390fd5b600581600460006002815260200190815260200160002054610c9b91906140ce565b1115610cdc576040517f08c379a0000000000000000000000000000000000000000000000000000000008152600401610cd3906141dc565b60405180910390fd5b6000600267ffffffffffffffff811115610cf957610cf86130fc565b5b604051908082528060200260200182016040528015610d275781602001602082028036833780820191505090505b509050600181600081518110610d4057610d3f613f7f565b5b602002602001018181525050600281600181518110610d6257610d61613f7f565b5b6020026020010181815250506000600267ffffffffffffffff811115610d8b57610d8a6130fc565b5b604051908082528060200260200182016040528015610db95781602001602082028036833780820191505090505b5090508381600081518110610dd157610dd0613f7f565b5b6020026020010181815250508281600181518110610df257610df1613f7f565b5b602002602001018181525050610e09858383611f58565b5050505050565b610e18611890565b600073ffffffffffffffffffffffffffffffffffffffff168173ffffffffffffffffffffffffffffffffffffffff1603610e87576040517f08c379a0000000000000000000000000000000000000000000000000000000008152600401610e7e90614248565b60405180910390fd5b80600b60006101000a81548173ffffffffffffffffffffffffffffffffffffffff021916908373ffffffffffffffffffffffffffffffffffffffff16021790555050565b610ed3611890565b610edd6000612009565b565b610ee7611890565b610ef0816120cf565b50565b600a60009054906101000a900460ff16610f42576040517f08c379a0000000000000000000000000000000000000000000000000000000008152600401610f3990614042565b60405180910390fd5b426007541115610f87576040517f08c379a0000000000000000000000000000000000000000000000000000000008152600401610f7e906142b4565b60405180910390fd5b4260085411610fcb576040517f08c379a0000000000000000000000000000000000000000000000000000000008152600401610fc290614320565b60405180910390fd5b6000610fd56120e9565b905061102381858580806020026020016040519081016040528093929190818152602001838360200280828437600081840152601f19601f82011690508083019250505050505050846120f1565b611062576040517f08c379a00000000000000000000000000000000000000000000000000000000081526004016110599061438c565b60405180910390fd5b6000848490509050600081116110ad576040517f08c379a00000000000000000000000000000000000000000000000000000000081526004016110a4906143f8565b60405180910390fd5b60008060005b838110156112a65760008888838181106110d0576110cf613f7f565b5b9050602002013590506000600e6000838152602001908152602001600020541461112f576040517f08c379a000000000000000000000000000000000000000000000000000000000815260040161112690614464565b60405180910390fd5b8573ffffffffffffffffffffffffffffffffffffffff16600c60009054906101000a900473ffffffffffffffffffffffffffffffffffffffff1673ffffffffffffffffffffffffffffffffffffffff16636352211e836040518263ffffffff1660e01b81526004016111a19190612e3b565b6020604051808303816000875af11580156111c0573d6000803e3d6000fd5b505050506040513d601f19601f820116820180604052508101906111e49190614499565b73ffffffffffffffffffffffffffffffffffffffff161461123a576040517f08c379a000000000000000000000000000000000000000000000000000000000815260040161123190614512565b60405180910390fd5b6001600e6000838152602001908152602001600020819055506001600d600083815260200190815260200160002054036112825760018361127b91906140ce565b9250611292565b60018461128f91906140ce565b93505b50808061129e90613fae565b9150506110b3565b506000821115611320576064826004600060018152602001908152602001600020546112d291906140ce565b1115611313576040517f08c379a000000000000000000000000000000000000000000000000000000000815260040161130a90614170565b60405180910390fd5b61131f8460018461212a565b5b60008111156113e257611333600161190e565b611372576040517f08c379a0000000000000000000000000000000000000000000000000000000008152600401611369906145a4565b60405180910390fd5b60058160046000600281526020019081526020016000205461139491906140ce565b11156113d5576040517f08c379a00000000000000000000000000000000000000000000000000000000081526004016113cc906141dc565b60405180910390fd5b6113e18460028361212a565b5b50505050505050565b6000600360009054906101000a900473ffffffffffffffffffffffffffffffffffffffff16905090565b6006805461142290613a1a565b80601f016020809104026020016040519081016040528092919081815260200182805461144e90613a1a565b801561149b5780601f106114705761010080835404028352916020019161149b565b820191906000526020600020905b81548152906001019060200180831161147e57829003601f168201915b505050505081565b80600160003373ffffffffffffffffffffffffffffffffffffffff1673ffffffffffffffffffffffffffffffffffffffff16815260200190815260200160002060008473ffffffffffffffffffffffffffffffffffffffff1673ffffffffffffffffffffffffffffffffffffffff16815260200190815260200160002060006101000a81548160ff0219169083151502179055508173ffffffffffffffffffffffffffffffffffffffff163373ffffffffffffffffffffffffffffffffffffffff167f17307eab39ab6107e8899845ad3d59bd9653f200f220920489ca2b5937696c31836040516115949190612ef6565b60405180910390a35050565b600060046000838152602001908152602001600020549050919050565b600e6020528060005260406000206000915090505481565b60006115e1838361215b565b905092915050565b6000600160008473ffffffffffffffffffffffffffffffffffffffff1673ffffffffffffffffffffffffffffffffffffffff16815260200190815260200160002060008373ffffffffffffffffffffffffffffffffffffffff1673ffffffffffffffffffffffffffffffffffffffff16815260200190815260200160002060009054906101000a900460ff16905092915050565b8473ffffffffffffffffffffffffffffffffffffffff163373ffffffffffffffffffffffffffffffffffffffff1614806116bd57506116bc85336115e9565b5b6116fc576040517f08c379a00000000000000000000000000000000000000000000000000000000081526004016116f390614636565b60405180910390fd5b600073ffffffffffffffffffffffffffffffffffffffff168473ffffffffffffffffffffffffffffffffffffffff160361176b576040517f08c379a0000000000000000000000000000000000000000000000000000000008152600401611762906146c8565b60405180910390fd5b6117778585858561218e565b611785858585855a8661237c565b5050505050565b611794611890565b600073ffffffffffffffffffffffffffffffffffffffff168173ffffffffffffffffffffffffffffffffffffffff1603611803576040517f08c379a00000000000000000000000000000000000000000000000000000000081526004016117fa9061475a565b60405180910390fd5b61180c81612009565b50565b60007fd9b67a26000000000000000000000000000000000000000000000000000000007bffffffffffffffffffffffffffffffffffffffffffffffffffffffff1916827bffffffffffffffffffffffffffffffffffffffffffffffffffffffff19160361187f576001905061188b565b61188882612553565b90505b919050565b6118986120e9565b73ffffffffffffffffffffffffffffffffffffffff166118b66113eb565b73ffffffffffffffffffffffffffffffffffffffff161461190c576040517f08c379a0000000000000000000000000000000000000000000000000000000008152600401611903906147c6565b60405180910390fd5b565b6000806004600084815260200190815260200160002054119050919050565b606060008203611974576040518060400160405280600181526020017f30000000000000000000000000000000000000000000000000000000000000008152509050611a88565b600082905060005b600082146119a657808061198f90613fae565b915050600a8261199f9190613d61565b915061197c565b60008167ffffffffffffffff8111156119c2576119c16130fc565b5b6040519080825280601f01601f1916602001820160405280156119f45781602001600182028036833780820191505090505b5090505b60008514611a8157600182611a0d91906147e6565b9150600a85611a1c919061481a565b6030611a2891906140ce565b60f81b818381518110611a3e57611a3d613f7f565b5b60200101907effffffffffffffffffffffffffffffffffffffffffffffffffffffffffffff1916908160001a905350600a85611a7a9190613d61565b94506119f8565b8093505050505b919050565b8051825114611ad1576040517f08c379a0000000000000000000000000000000000000000000000000000000008152600401611ac8906148bd565b60405180910390fd5b60008251905060005b81811015611cfb57611b78838281518110611af857611af7613f7f565b5b60200260200101516000808973ffffffffffffffffffffffffffffffffffffffff1673ffffffffffffffffffffffffffffffffffffffff1681526020019081526020016000206000878581518110611b5357611b52613f7f565b5b60200260200101518152602001908152602001600020546125d490919063ffffffff16565b6000808873ffffffffffffffffffffffffffffffffffffffff1673ffffffffffffffffffffffffffffffffffffffff1681526020019081526020016000206000868481518110611bcb57611bca613f7f565b5b6020026020010151815260200190815260200160002081905550611c7b838281518110611bfb57611bfa613f7f565b5b60200260200101516000808873ffffffffffffffffffffffffffffffffffffffff1673ffffffffffffffffffffffffffffffffffffffff1681526020019081526020016000206000878581518110611c5657611c55613f7f565b5b60200260200101518152602001908152602001600020546125ea90919063ffffffff16565b6000808773ffffffffffffffffffffffffffffffffffffffff1673ffffffffffffffffffffffffffffffffffffffff1681526020019081526020016000206000868481518110611cce57611ccd613f7f565b5b60200260200101518152602001908152602001600020819055508080611cf390613fae565b915050611ada565b508373ffffffffffffffffffffffffffffffffffffffff168573ffffffffffffffffffffffffffffffffffffffff163373ffffffffffffffffffffffffffffffffffffffff167f4a39dc06d4c0dbc64b70af90fd698a233a518aa5d07e595d983b8c0526c8f7fb8686604051611d729291906148dd565b60405180910390a45050505050565b611da08573ffffffffffffffffffffffffffffffffffffffff16612600565b15611f50578473ffffffffffffffffffffffffffffffffffffffff1663bc197c8133888787866040518663ffffffff1660e01b8152600401611de6959493929190614969565b6020604051808303816000875af1925050508015611e2257506040513d601f19601f82011682018060405250810190611e1f91906149e6565b60015b611ec757611e2e614a20565b806308c379a003611e8a5750611e42614a42565b80611e4d5750611e8c565b806040517f08c379a0000000000000000000000000000000000000000000000000000000008152600401611e819190612fd7565b60405180910390fd5b505b6040517f08c379a0000000000000000000000000000000000000000000000000000000008152600401611ebe90614b44565b60405180910390fd5b63bc197c8160e01b7bffffffffffffffffffffffffffffffffffffffffffffffffffffffff1916817bffffffffffffffffffffffffffffffffffffffffffffffffffffffff191614611f4e576040517f08c379a0000000000000000000000000000000000000000000000000000000008152600401611f4590614bd6565b60405180910390fd5b505b505050505050565b60005b8251811015611fe8576000838281518110611f7957611f78613f7f565b5b602002602001015190506000838381518110611f9857611f97613f7f565b5b602002602001015190508061ffff16600460008460ff1681526020019081526020016000206000828254611fcc91906140ce565b9250508190555050508080611fe090613fae565b915050611f5b565b5061200483838360405180602001604052806000815250612623565b505050565b6000600360009054906101000a900473ffffffffffffffffffffffffffffffffffffffff16905081600360006101000a81548173ffffffffffffffffffffffffffffffffffffffff021916908373ffffffffffffffffffffffffffffffffffffffff1602179055508173ffffffffffffffffffffffffffffffffffffffff168173ffffffffffffffffffffffffffffffffffffffff167f8be0079c531659141344cd1fd0a4f28419497f9722a3daafe3b4186f6b6457e060405160405180910390a35050565b80600290805190602001906120e5929190612ca1565b5050565b600033905090565b6000612121600b60009054906101000a900473ffffffffffffffffffffffffffffffffffffffff16858585612824565b90509392505050565b6121368260ff1661190e565b61214a576121448382612884565b50612156565b6121558383836128dc565b5b505050565b60008282604051602001612170929190614cce565b60405160208183030381529060405280519060200120905092915050565b6121f0816000808773ffffffffffffffffffffffffffffffffffffffff1673ffffffffffffffffffffffffffffffffffffffff1681526020019081526020016000206000858152602001908152602001600020546125d490919063ffffffff16565b6000808673ffffffffffffffffffffffffffffffffffffffff1673ffffffffffffffffffffffffffffffffffffffff1681526020019081526020016000206000848152602001908152602001600020819055506122a5816000808673ffffffffffffffffffffffffffffffffffffffff1673ffffffffffffffffffffffffffffffffffffffff1681526020019081526020016000206000858152602001908152602001600020546125ea90919063ffffffff16565b6000808573ffffffffffffffffffffffffffffffffffffffff1673ffffffffffffffffffffffffffffffffffffffff1681526020019081526020016000206000848152602001908152602001600020819055508273ffffffffffffffffffffffffffffffffffffffff168473ffffffffffffffffffffffffffffffffffffffff163373ffffffffffffffffffffffffffffffffffffffff167fc3d58168c5ae7397731d063d5bbf3d657854427343f4c083240f7aacaa2d0f62858560405161236e929190614cf6565b60405180910390a450505050565b61239b8573ffffffffffffffffffffffffffffffffffffffff16612600565b1561254b578473ffffffffffffffffffffffffffffffffffffffff1663f23a6e6133888787866040518663ffffffff1660e01b81526004016123e1959493929190614d1f565b6020604051808303816000875af192505050801561241d57506040513d601f19601f8201168201806040525081019061241a91906149e6565b60015b6124c257612429614a20565b806308c379a003612485575061243d614a42565b806124485750612487565b806040517f08c379a000000000000000000000000000000000000000000000000000000000815260040161247c9190612fd7565b60405180910390fd5b505b6040517f08c379a00000000000000000000000000000000000000000000000000000000081526004016124b990614b44565b60405180910390fd5b63f23a6e6160e01b7bffffffffffffffffffffffffffffffffffffffffffffffffffffffff1916817bffffffffffffffffffffffffffffffffffffffffffffffffffffffff191614612549576040517f08c379a000000000000000000000000000000000000000000000000000000000815260040161254090614bd6565b60405180910390fd5b505b505050505050565b60007f0e89341c000000000000000000000000000000000000000000000000000000007bffffffffffffffffffffffffffffffffffffffffffffffffffffffff1916827bffffffffffffffffffffffffffffffffffffffffffffffffffffffff1916036125c357600190506125cf565b6125cc8261292c565b90505b919050565b600081836125e291906147e6565b905092915050565b600081836125f891906140ce565b905092915050565b6000808273ffffffffffffffffffffffffffffffffffffffff163b119050919050565b8151835114612667576040517f08c379a000000000000000000000000000000000000000000000000000000000815260040161265e90614deb565b60405180910390fd5b60008351905060005b8181101561278e5761270e84828151811061268e5761268d613f7f565b5b60200260200101516000808973ffffffffffffffffffffffffffffffffffffffff1673ffffffffffffffffffffffffffffffffffffffff16815260200190815260200160002060008885815181106126e9576126e8613f7f565b5b60200260200101518152602001908152602001600020546125ea90919063ffffffff16565b6000808873ffffffffffffffffffffffffffffffffffffffff1673ffffffffffffffffffffffffffffffffffffffff168152602001908152602001600020600087848151811061276157612760613f7f565b5b6020026020010151815260200190815260200160002081905550808061278690613fae565b915050612670565b508473ffffffffffffffffffffffffffffffffffffffff16600073ffffffffffffffffffffffffffffffffffffffff163373ffffffffffffffffffffffffffffffffffffffff167f4a39dc06d4c0dbc64b70af90fd698a233a518aa5d07e595d983b8c0526c8f7fb87876040516128069291906148dd565b60405180910390a461281d60008686865a87611d81565b5050505050565b600080612831858561215b565b9050600061283e826129ad565b90508673ffffffffffffffffffffffffffffffffffffffff1661286182866129dd565b73ffffffffffffffffffffffffffffffffffffffff161492505050949350505050565b60008061288f6109e5565b9050612899612a4c565b6128b7848260ff168560405180602001604052806000815250612a86565b82600460008360ff168152602001908152602001600020819055508091505092915050565b6128fa838360ff168360405180602001604052806000815250612a86565b80600460008460ff168152602001908152602001600020600082825461292091906140ce565b92505081905550505050565b60007fd9b67a26000000000000000000000000000000000000000000000000000000007bffffffffffffffffffffffffffffffffffffffffffffffffffffffff1916827bffffffffffffffffffffffffffffffffffffffffffffffffffffffff19160361299c57600190506129a8565b6129a582612bcf565b90505b919050565b6000816040516020016129c09190614e78565b604051602081830303815290604052805190602001209050919050565b6000806000806129ec85612c39565b92509250925060018682858560405160008152602001604052604051612a159493929190614e9e565b6020604051602081039080840390855afa158015612a37573d6000803e3d6000fd5b50505060206040510351935050505092915050565b6003601481819054906101000a900460ff1680929190612a6b90614ee3565b91906101000a81548160ff021916908360ff16021790555050565b612ae8826000808773ffffffffffffffffffffffffffffffffffffffff1673ffffffffffffffffffffffffffffffffffffffff1681526020019081526020016000206000868152602001908152602001600020546125ea90919063ffffffff16565b6000808673ffffffffffffffffffffffffffffffffffffffff1673ffffffffffffffffffffffffffffffffffffffff1681526020019081526020016000206000858152602001908152602001600020819055508373ffffffffffffffffffffffffffffffffffffffff16600073ffffffffffffffffffffffffffffffffffffffff163373ffffffffffffffffffffffffffffffffffffffff167fc3d58168c5ae7397731d063d5bbf3d657854427343f4c083240f7aacaa2d0f628686604051612bb2929190614cf6565b60405180910390a4612bc960008585855a8661237c565b50505050565b60007f01ffc9a7000000000000000000000000000000000000000000000000000000007bffffffffffffffffffffffffffffffffffffffffffffffffffffffff1916827bffffffffffffffffffffffffffffffffffffffffffffffffffffffff1916149050919050565b60008060006041845114612c82576040517f08c379a0000000000000000000000000000000000000000000000000000000008152600401612c7990614f58565b60405180910390fd5b6020840151925060408401519150606084015160001a90509193909250565b828054612cad90613a1a565b90600052602060002090601f016020900481019282612ccf5760008555612d16565b82601f10612ce857805160ff1916838001178555612d16565b82800160010185558215612d16579182015b82811115612d15578251825591602001919060010190612cfa565b5b509050612d239190612d27565b5090565b5b80821115612d40576000816000905550600101612d28565b5090565b6000604051905090565b600080fd5b600080fd5b600073ffffffffffffffffffffffffffffffffffffffff82169050919050565b6000612d8382612d58565b9050919050565b612d9381612d78565b8114612d9e57600080fd5b50565b600081359050612db081612d8a565b92915050565b6000819050919050565b612dc981612db6565b8114612dd457600080fd5b50565b600081359050612de681612dc0565b92915050565b60008060408385031215612e0357612e02612d4e565b5b6000612e1185828601612da1565b9250506020612e2285828601612dd7565b9150509250929050565b612e3581612db6565b82525050565b6000602082019050612e506000830184612e2c565b92915050565b60007fffffffff0000000000000000000000000000000000000000000000000000000082169050919050565b612e8b81612e56565b8114612e9657600080fd5b50565b600081359050612ea881612e82565b92915050565b600060208284031215612ec457612ec3612d4e565b5b6000612ed284828501612e99565b91505092915050565b60008115159050919050565b612ef081612edb565b82525050565b6000602082019050612f0b6000830184612ee7565b92915050565b600060208284031215612f2757612f26612d4e565b5b6000612f3584828501612da1565b91505092915050565b600081519050919050565b600082825260208201905092915050565b60005b83811015612f78578082015181840152602081019050612f5d565b83811115612f87576000848401525b50505050565b6000601f19601f8301169050919050565b6000612fa982612f3e565b612fb38185612f49565b9350612fc3818560208601612f5a565b612fcc81612f8d565b840191505092915050565b60006020820190508181036000830152612ff18184612f9e565b905092915050565b60006020828403121561300f5761300e612d4e565b5b600061301d84828501612dd7565b91505092915050565b6000806040838503121561303d5761303c612d4e565b5b600061304b85828601612dd7565b925050602061305c85828601612dd7565b9150509250929050565b61306f81612d78565b82525050565b600060408201905061308a6000830185613066565b6130976020830184612e2c565b9392505050565b6130a781612edb565b81146130b257600080fd5b50565b6000813590506130c48161309e565b92915050565b6000602082840312156130e0576130df612d4e565b5b60006130ee848285016130b5565b91505092915050565b600080fd5b7f4e487b7100000000000000000000000000000000000000000000000000000000600052604160045260246000fd5b61313482612f8d565b810181811067ffffffffffffffff82111715613153576131526130fc565b5b80604052505050565b6000613166612d44565b9050613172828261312b565b919050565b600067ffffffffffffffff821115613192576131916130fc565b5b602082029050602081019050919050565b600080fd5b60006131bb6131b684613177565b61315c565b905080838252602082019050602084028301858111156131de576131dd6131a3565b5b835b8181101561320757806131f38882612dd7565b8452602084019350506020810190506131e0565b5050509392505050565b600082601f830112613226576132256130f7565b5b81356132368482602086016131a8565b91505092915050565b600080fd5b600067ffffffffffffffff82111561325f5761325e6130fc565b5b61326882612f8d565b9050602081019050919050565b82818337600083830152505050565b600061329761329284613244565b61315c565b9050828152602081018484840111156132b3576132b261323f565b5b6132be848285613275565b509392505050565b600082601f8301126132db576132da6130f7565b5b81356132eb848260208601613284565b91505092915050565b600080600080600060a086880312156133105761330f612d4e565b5b600061331e88828901612da1565b955050602061332f88828901612da1565b945050604086013567ffffffffffffffff8111156133505761334f612d53565b5b61335c88828901613211565b935050606086013567ffffffffffffffff81111561337d5761337c612d53565b5b61338988828901613211565b925050608086013567ffffffffffffffff8111156133aa576133a9612d53565b5b6133b6888289016132c6565b9150509295509295909350565b600060ff82169050919050565b6133d9816133c3565b82525050565b60006020820190506133f460008301846133d0565b92915050565b600067ffffffffffffffff821115613415576134146130fc565b5b602082029050602081019050919050565b6000613439613434846133fa565b61315c565b9050808382526020820190506020840283018581111561345c5761345b6131a3565b5b835b8181101561348557806134718882612da1565b84526020840193505060208101905061345e565b5050509392505050565b600082601f8301126134a4576134a36130f7565b5b81356134b4848260208601613426565b91505092915050565b600080604083850312156134d4576134d3612d4e565b5b600083013567ffffffffffffffff8111156134f2576134f1612d53565b5b6134fe8582860161348f565b925050602083013567ffffffffffffffff81111561351f5761351e612d53565b5b61352b85828601613211565b9150509250929050565b600081519050919050565b600082825260208201905092915050565b6000819050602082019050919050565b61356a81612db6565b82525050565b600061357c8383613561565b60208301905092915050565b6000602082019050919050565b60006135a082613535565b6135aa8185613540565b93506135b583613551565b8060005b838110156135e65781516135cd8882613570565b97506135d883613588565b9250506001810190506135b9565b5085935050505092915050565b6000602082019050818103600083015261360d8184613595565b905092915050565b60008060006060848603121561362e5761362d612d4e565b5b600061363c86828701612da1565b935050602061364d86828701612dd7565b925050604061365e86828701612dd7565b9150509250925092565b600067ffffffffffffffff821115613683576136826130fc565b5b61368c82612f8d565b9050602081019050919050565b60006136ac6136a784613668565b61315c565b9050828152602081018484840111156136c8576136c761323f565b5b6136d3848285613275565b509392505050565b600082601f8301126136f0576136ef6130f7565b5b8135613700848260208601613699565b91505092915050565b60006020828403121561371f5761371e612d4e565b5b600082013567ffffffffffffffff81111561373d5761373c612d53565b5b613749848285016136db565b91505092915050565b600080fd5b60008083601f84011261376d5761376c6130f7565b5b8235905067ffffffffffffffff81111561378a57613789613752565b5b6020830191508360208202830111156137a6576137a56131a3565b5b9250929050565b6000806000604084860312156137c6576137c5612d4e565b5b600084013567ffffffffffffffff8111156137e4576137e3612d53565b5b6137f086828701613757565b9350935050602084013567ffffffffffffffff81111561381357613812612d53565b5b61381f868287016132c6565b9150509250925092565b600060208201905061383e6000830184613066565b92915050565b6000806040838503121561385b5761385a612d4e565b5b600061386985828601612da1565b925050602061387a858286016130b5565b9150509250929050565b6000806040838503121561389b5761389a612d4e565b5b60006138a985828601612da1565b925050602083013567ffffffffffffffff8111156138ca576138c9612d53565b5b6138d685828601613211565b9150509250929050565b6000819050919050565b6138f3816138e0565b82525050565b600060208201905061390e60008301846138ea565b92915050565b6000806040838503121561392b5761392a612d4e565b5b600061393985828601612da1565b925050602061394a85828601612da1565b9150509250929050565b600080600080600060a086880312156139705761396f612d4e565b5b600061397e88828901612da1565b955050602061398f88828901612da1565b94505060406139a088828901612dd7565b93505060606139b188828901612dd7565b925050608086013567ffffffffffffffff8111156139d2576139d1612d53565b5b6139de888289016132c6565b9150509295509295909350565b7f4e487b7100000000000000000000000000000000000000000000000000000000600052602260045260246000fd5b60006002820490506001821680613a3257607f821691505b602082108103613a4557613a446139eb565b5b50919050565b7f45524331313535547261646561626c65237572693a204e4f4e4558495354454e60008201527f545f544f4b454e00000000000000000000000000000000000000000000000000602082015250565b6000613aa7602783612f49565b9150613ab282613a4b565b604082019050919050565b60006020820190508181036000830152613ad681613a9a565b9050919050565b600081905092915050565b60008190508160005260206000209050919050565b60008154613b0a81613a1a565b613b148186613add565b94506001821660008114613b2f5760018114613b4057613b73565b60ff19831686528186019350613b73565b613b4985613ae8565b60005b83811015613b6b57815481890152600182019150602081019050613b4c565b838801955050505b50505092915050565b6000613b8782612f3e565b613b918185613add565b9350613ba1818560208601612f5a565b80840191505092915050565b6000613bb98285613afd565b9150613bc58284613b7c565b91508190509392505050565b7f57726f6e6720656e6420646561646c696e650000000000000000000000000000600082015250565b6000613c07601283612f49565b9150613c1282613bd1565b602082019050919050565b60006020820190508181036000830152613c3681613bfa565b9050919050565b7f494e56414c49445f544f4b454e49440000000000000000000000000000000000600082015250565b6000613c73600f83612f49565b9150613c7e82613c3d565b602082019050919050565b60006020820190508181036000830152613ca281613c66565b9050919050565b7f4e487b7100000000000000000000000000000000000000000000000000000000600052601160045260246000fd5b6000613ce382612db6565b9150613cee83612db6565b9250817fffffffffffffffffffffffffffffffffffffffffffffffffffffffffffffffff0483118215151615613d2757613d26613ca9565b5b828202905092915050565b7f4e487b7100000000000000000000000000000000000000000000000000000000600052601260045260246000fd5b6000613d6c82612db6565b9150613d7783612db6565b925082613d8757613d86613d32565b5b828204905092915050565b7f45524331313535237361666542617463685472616e7366657246726f6d3a204960008201527f4e56414c49445f4f50455241544f520000000000000000000000000000000000602082015250565b6000613dee602f83612f49565b9150613df982613d92565b604082019050919050565b60006020820190508181036000830152613e1d81613de1565b9050919050565b7f45524331313535237361666542617463685472616e7366657246726f6d3a204960008201527f4e56414c49445f524543495049454e5400000000000000000000000000000000602082015250565b6000613e80603083612f49565b9150613e8b82613e24565b604082019050919050565b60006020820190508181036000830152613eaf81613e73565b9050919050565b6000613ec1826133c3565b9150613ecc836133c3565b92508260ff03821115613ee257613ee1613ca9565b5b828201905092915050565b7f455243313135352362616c616e63654f6642617463683a20494e56414c49445f60008201527f41525241595f4c454e4754480000000000000000000000000000000000000000602082015250565b6000613f49602c83612f49565b9150613f5482613eed565b604082019050919050565b60006020820190508181036000830152613f7881613f3c565b9050919050565b7f4e487b7100000000000000000000000000000000000000000000000000000000600052603260045260246000fd5b6000613fb982612db6565b91507fffffffffffffffffffffffffffffffffffffffffffffffffffffffffffffffff8203613feb57613fea613ca9565b5b600182019050919050565b7f4d696e74696e6720697320506175736564000000000000000000000000000000600082015250565b600061402c601183612f49565b915061403782613ff6565b602082019050919050565b6000602082019050818103600083015261405b8161401f565b9050919050565b7f446561646c696e65206e6f7420796574206f7665720000000000000000000000600082015250565b6000614098601583612f49565b91506140a382614062565b602082019050919050565b600060208201905081810360008301526140c78161408b565b9050919050565b60006140d982612db6565b91506140e483612db6565b9250827fffffffffffffffffffffffffffffffffffffffffffffffffffffffffffffffff0382111561411957614118613ca9565b5b828201905092915050565b7f416d6f756e74204d617465726961206578636565646564000000000000000000600082015250565b600061415a601783612f49565b915061416582614124565b602082019050919050565b600060208201905081810360008301526141898161414d565b9050919050565b7f416d6f756e74205072696d61204d617465726961206578636565646564000000600082015250565b60006141c6601d83612f49565b91506141d182614190565b602082019050919050565b600060208201905081810360008301526141f5816141b9565b9050919050565b7f57726f6e67207369676e65720000000000000000000000000000000000000000600082015250565b6000614232600c83612f49565b915061423d826141fc565b602082019050919050565b6000602082019050818103600083015261426181614225565b9050919050565b7f4d696e74696e67206e6f74207965742073746172746564000000000000000000600082015250565b600061429e601783612f49565b91506142a982614268565b602082019050919050565b600060208201905081810360008301526142cd81614291565b9050919050565b7f4d696e74696e6720616c726561647920656e6465640000000000000000000000600082015250565b600061430a601583612f49565b9150614315826142d4565b602082019050919050565b60006020820190508181036000830152614339816142fd565b9050919050565b7f57726f6e67204d617465726961205369676e6174757265000000000000000000600082015250565b6000614376601783612f49565b915061438182614340565b602082019050919050565b600060208201905081810360008301526143a581614369565b9050919050565b7f4e6f20746f6b656e732073706563696669656400000000000000000000000000600082015250565b60006143e2601383612f49565b91506143ed826143ac565b602082019050919050565b60006020820190508181036000830152614411816143d5565b9050919050565b7f546f6b656e20616c726561647920757365640000000000000000000000000000600082015250565b600061444e601283612f49565b915061445982614418565b602082019050919050565b6000602082019050818103600083015261447d81614441565b9050919050565b60008151905061449381612d8a565b92915050565b6000602082840312156144af576144ae612d4e565b5b60006144bd84828501614484565b91505092915050565b7f4e6f7420746f6b656e206f776e65720000000000000000000000000000000000600082015250565b60006144fc600f83612f49565b9150614507826144c6565b602082019050919050565b6000602082019050818103600083015261452b816144ef565b9050919050565b7f41204d6174657269612073686f756c642062652063726561746564206669727360008201527f7400000000000000000000000000000000000000000000000000000000000000602082015250565b600061458e602183612f49565b915061459982614532565b604082019050919050565b600060208201905081810360008301526145bd81614581565b9050919050565b7f4552433131353523736166655472616e7366657246726f6d3a20494e56414c4960008201527f445f4f50455241544f5200000000000000000000000000000000000000000000602082015250565b6000614620602a83612f49565b915061462b826145c4565b604082019050919050565b6000602082019050818103600083015261464f81614613565b9050919050565b7f4552433131353523736166655472616e7366657246726f6d3a20494e56414c4960008201527f445f524543495049454e54000000000000000000000000000000000000000000602082015250565b60006146b2602b83612f49565b91506146bd82614656565b604082019050919050565b600060208201905081810360008301526146e1816146a5565b9050919050565b7f4f776e61626c653a206e6577206f776e657220697320746865207a65726f206160008201527f6464726573730000000000000000000000000000000000000000000000000000602082015250565b6000614744602683612f49565b915061474f826146e8565b604082019050919050565b6000602082019050818103600083015261477381614737565b9050919050565b7f4f776e61626c653a2063616c6c6572206973206e6f7420746865206f776e6572600082015250565b60006147b0602083612f49565b91506147bb8261477a565b602082019050919050565b600060208201905081810360008301526147df816147a3565b9050919050565b60006147f182612db6565b91506147fc83612db6565b92508282101561480f5761480e613ca9565b5b828203905092915050565b600061482582612db6565b915061483083612db6565b9250826148405761483f613d32565b5b828206905092915050565b7f45524331313535235f7361666542617463685472616e7366657246726f6d3a2060008201527f494e56414c49445f4152524159535f4c454e4754480000000000000000000000602082015250565b60006148a7603583612f49565b91506148b28261484b565b604082019050919050565b600060208201905081810360008301526148d68161489a565b9050919050565b600060408201905081810360008301526148f78185613595565b9050818103602083015261490b8184613595565b90509392505050565b600081519050919050565b600082825260208201905092915050565b600061493b82614914565b614945818561491f565b9350614955818560208601612f5a565b61495e81612f8d565b840191505092915050565b600060a08201905061497e6000830188613066565b61498b6020830187613066565b818103604083015261499d8186613595565b905081810360608301526149b18185613595565b905081810360808301526149c58184614930565b90509695505050505050565b6000815190506149e081612e82565b92915050565b6000602082840312156149fc576149fb612d4e565b5b6000614a0a848285016149d1565b91505092915050565b60008160e01c9050919050565b600060033d1115614a3f5760046000803e614a3c600051614a13565b90505b90565b600060443d10614acf57614a54612d44565b60043d036004823e80513d602482011167ffffffffffffffff82111715614a7c575050614acf565b808201805167ffffffffffffffff811115614a9a5750505050614acf565b80602083010160043d038501811115614ab7575050505050614acf565b614ac68260200185018661312b565b82955050505050505b90565b7f455243313135353a207472616e7366657220746f206e6f6e204552433131353560008201527f526563656976657220696d706c656d656e746572000000000000000000000000602082015250565b6000614b2e603483612f49565b9150614b3982614ad2565b604082019050919050565b60006020820190508181036000830152614b5d81614b21565b9050919050565b7f455243313135353a204552433131353552656365697665722072656a6563746560008201527f6420746f6b656e73000000000000000000000000000000000000000000000000602082015250565b6000614bc0602883612f49565b9150614bcb82614b64565b604082019050919050565b60006020820190508181036000830152614bef81614bb3565b9050919050565b60008160601b9050919050565b6000614c0e82614bf6565b9050919050565b6000614c2082614c03565b9050919050565b614c38614c3382612d78565b614c15565b82525050565b600081905092915050565b614c5281612db6565b82525050565b6000614c648383614c49565b60208301905092915050565b6000614c7b82613535565b614c858185614c3e565b9350614c9083613551565b8060005b83811015614cc1578151614ca88882614c58565b9750614cb383613588565b925050600181019050614c94565b5085935050505092915050565b6000614cda8285614c27565b601482019150614cea8284614c70565b91508190509392505050565b6000604082019050614d0b6000830185612e2c565b614d186020830184612e2c565b9392505050565b600060a082019050614d346000830188613066565b614d416020830187613066565b614d4e6040830186612e2c565b614d5b6060830185612e2c565b8181036080830152614d6d8184614930565b90509695505050505050565b7f455243313135354d696e744275726e2362617463684d696e743a20494e56414c60008201527f49445f4152524159535f4c454e47544800000000000000000000000000000000602082015250565b6000614dd5603083612f49565b9150614de082614d79565b604082019050919050565b60006020820190508181036000830152614e0481614dc8565b9050919050565b7f19457468657265756d205369676e6564204d6573736167653a0a333200000000600082015250565b6000614e41601c83613add565b9150614e4c82614e0b565b601c82019050919050565b6000819050919050565b614e72614e6d826138e0565b614e57565b82525050565b6000614e8382614e34565b9150614e8f8284614e61565b60208201915081905092915050565b6000608082019050614eb360008301876138ea565b614ec060208301866133d0565b614ecd60408301856138ea565b614eda60608301846138ea565b95945050505050565b6000614eee826133c3565b915060ff8203614f0157614f00613ca9565b5b600182019050919050565b7f696e76616c6964207369676e6174757265206c656e6774680000000000000000600082015250565b6000614f42601883612f49565b9150614f4d82614f0c565b602082019050919050565b60006020820190508181036000830152614f7181614f35565b905091905056fea2646970667358221220d75828d3b7592e7c16b4a319d3ee821bdfd8b00473766e061e177d1a8cbb293c64736f6c634300080d0033",
  "linkReferences": {},
  "deployedLinkReferences": {}
}