{
  "_format": "hh-sol-artifact-1",
  "contractName": "VerifySignature",
  "sourceName": "contracts/VerifySignature.sol",
  "abi": [
    {
      "inputs": [
        {
          "internalType": "bytes32",
          "name": "_messageHash",
          "type": "bytes32"
        }
      ],
      "name": "getEthSignedMessageHash",
      "outputs": [
        {
          "internalType": "bytes32",
          "name": "",
          "type": "bytes32"
        }
      ],
      "stateMutability": "pure",
      "type": "function"
    },
    {
      "inputs": [
        {
          "internalType": "address",
          "name": "account",
          "type": "address"
        },
        {
          "internalType": "uint256",
          "name": "tokenId",
          "type": "uint256"
        }
      ],
      "name": "getMessageHash",
      "outputs": [
        {
          "internalType": "bytes32",
          "name": "",
          "type": "bytes32"
        }
      ],
      "stateMutability": "pure",
      "type": "function"
    },
    {
      "inputs": [
        {
          "internalType": "address",
          "name": "signer",
          "type": "address"
        },
        {
          "internalType": "address",
          "name": "account",
          "type": "address"
        },
        {
          "internalType": "uint256",
          "name": "tokenId",
          "type": "uint256"
        },
        {
          "internalType": "bytes",
          "name": "signature",
          "type": "bytes"
        }
      ],
      "name": "verify",
      "outputs": [
        {
          "internalType": "bool",
          "name": "",
          "type": "bool"
        }
      ],
      "stateMutability": "pure",
      "type": "function"
    }
  ],
  "bytecode": "0x610844610053600b82828239805160001a607314610046577f4e487b7100000000000000000000000000000000000000000000000000000000600052600060045260246000fd5b30600052607381538281f3fe730000000000000000000000000000000000000000301460806040526004361061004b5760003560e01c8063512c91df1461005057806393e9f8fc14610080578063fa540801146100b0575b600080fd5b61006a60048036038101906100659190610322565b6100e0565b604051610077919061037b565b60405180910390f35b61009a600480360381019061009591906104dc565b610113565b6040516100a7919061057a565b60405180910390f35b6100ca60048036038101906100c591906105c1565b610173565b6040516100d7919061037b565b60405180910390f35b600082826040516020016100f5929190610657565b60405160208183030381529060405280519060200120905092915050565b60008061012085856100e0565b9050600061012d82610173565b90508673ffffffffffffffffffffffffffffffffffffffff1661015082866101a3565b73ffffffffffffffffffffffffffffffffffffffff161492505050949350505050565b60008160405160200161018691906106fb565b604051602081830303815290604052805190602001209050919050565b6000806000806101b285610212565b925092509250600186828585604051600081526020016040526040516101db949392919061074c565b6020604051602081039080840390855afa1580156101fd573d6000803e3d6000fd5b50505060206040510351935050505092915050565b6000806000604184511461025b576040517f08c379a0000000000000000000000000000000000000000000000000000000008152600401610252906107ee565b60405180910390fd5b6020840151925060408401519150606084015160001a90509193909250565b6000604051905090565b600080fd5b600080fd5b600073ffffffffffffffffffffffffffffffffffffffff82169050919050565b60006102b98261028e565b9050919050565b6102c9816102ae565b81146102d457600080fd5b50565b6000813590506102e6816102c0565b92915050565b6000819050919050565b6102ff816102ec565b811461030a57600080fd5b50565b60008135905061031c816102f6565b92915050565b6000806040838503121561033957610338610284565b5b6000610347858286016102d7565b92505060206103588582860161030d565b9150509250929050565b6000819050919050565b61037581610362565b82525050565b6000602082019050610390600083018461036c565b92915050565b600080fd5b600080fd5b6000601f19601f8301169050919050565b7f4e487b7100000000000000000000000000000000000000000000000000000000600052604160045260246000fd5b6103e9826103a0565b810181811067ffffffffffffffff82111715610408576104076103b1565b5b80604052505050565b600061041b61027a565b905061042782826103e0565b919050565b600067ffffffffffffffff821115610447576104466103b1565b5b610450826103a0565b9050602081019050919050565b82818337600083830152505050565b600061047f61047a8461042c565b610411565b90508281526020810184848401111561049b5761049a61039b565b5b6104a684828561045d565b509392505050565b600082601f8301126104c3576104c2610396565b5b81356104d384826020860161046c565b91505092915050565b600080600080608085870312156104f6576104f5610284565b5b6000610504878288016102d7565b9450506020610515878288016102d7565b93505060406105268782880161030d565b925050606085013567ffffffffffffffff81111561054757610546610289565b5b610553878288016104ae565b91505092959194509250565b60008115159050919050565b6105748161055f565b82525050565b600060208201905061058f600083018461056b565b92915050565b61059e81610362565b81146105a957600080fd5b50565b6000813590506105bb81610595565b92915050565b6000602082840312156105d7576105d6610284565b5b60006105e5848285016105ac565b91505092915050565b60008160601b9050919050565b6000610606826105ee565b9050919050565b6000610618826105fb565b9050919050565b61063061062b826102ae565b61060d565b82525050565b6000819050919050565b61065161064c826102ec565b610636565b82525050565b6000610663828561061f565b6014820191506106738284610640565b6020820191508190509392505050565b600081905092915050565b7f19457468657265756d205369676e6564204d6573736167653a0a333200000000600082015250565b60006106c4601c83610683565b91506106cf8261068e565b601c82019050919050565b6000819050919050565b6106f56106f082610362565b6106da565b82525050565b6000610706826106b7565b915061071282846106e4565b60208201915081905092915050565b61072a81610362565b82525050565b600060ff82169050919050565b61074681610730565b82525050565b60006080820190506107616000830187610721565b61076e602083018661073d565b61077b6040830185610721565b6107886060830184610721565b95945050505050565b600082825260208201905092915050565b7f696e76616c6964207369676e6174757265206c656e6774680000000000000000600082015250565b60006107d8601883610791565b91506107e3826107a2565b602082019050919050565b60006020820190508181036000830152610807816107cb565b905091905056fea2646970667358221220260f973d8acb75cec4c50ac31d10eb9a82edfba01482786dc82c785eb7c5096c64736f6c634300080d0033",
  "linkReferences": {},
  "deployedLinkReferences": {}
}