{
  "_format": "hh-sol-artifact-1",
  "contractName": "MateriaMock",
  "sourceName": "contracts/mocks/MateriaMock.sol",
  "abi": [
    {
      "inputs": [
        {
          "internalType": "string",
          "name": "_name",
          "type": "string"
        },
        {
          "internalType": "string",
          "name": "_symbol",
          "type": "string"
        },
        {
          "internalType": "string",
          "name": "_metadataURI",
          "type": "string"
        },
        {
          "internalType": "uint64",
          "name": "start",
          "type": "uint64"
        },
        {
          "internalType": "uint64",
          "name": "end",
          "type": "uint64"
        },
        {
          "internalType": "bytes32",
          "name": "merkleRoot",
          "type": "bytes32"
        },
        {
          "internalType": "address",
          "name": "signer",
          "type": "address"
        },
        {
          "internalType": "address",
          "name": "antonym",
          "type": "address"
        }
      ],
      "stateMutability": "nonpayable",
      "type": "constructor"
    },
    {
      "anonymous": false,
      "inputs": [
        {
          "indexed": true,
          "internalType": "address",
          "name": "_owner",
          "type": "address"
        },
        {
          "indexed": true,
          "internalType": "address",
          "name": "_operator",
          "type": "address"
        },
        {
          "indexed": false,
          "internalType": "bool",
          "name": "_approved",
          "type": "bool"
        }
      ],
      "name": "ApprovalForAll",
      "type": "event"
    },
    {
      "anonymous": false,
      "inputs": [
        {
          "indexed": true,
          "internalType": "address",
          "name": "previousOwner",
          "type": "address"
        },
        {
          "indexed": true,
          "internalType": "address",
          "name": "newOwner",
          "type": "address"
        }
      ],
      "name": "OwnershipTransferred",
      "type": "event"
    },
    {
      "anonymous": false,
      "inputs": [
        {
          "indexed": true,
          "internalType": "address",
          "name": "_operator",
          "type": "address"
        },
        {
          "indexed": true,
          "internalType": "address",
          "name": "_from",
          "type": "address"
        },
        {
          "indexed": true,
          "internalType": "address",
          "name": "_to",
          "type": "address"
        },
        {
          "indexed": false,
          "internalType": "uint256[]",
          "name": "_ids",
          "type": "uint256[]"
        },
        {
          "indexed": false,
          "internalType": "uint256[]",
          "name": "_amounts",
          "type": "uint256[]"
        }
      ],
      "name": "TransferBatch",
      "type": "event"
    },
    {
      "anonymous": false,
      "inputs": [
        {
          "indexed": true,
          "internalType": "address",
          "name": "_operator",
          "type": "address"
        },
        {
          "indexed": true,
          "internalType": "address",
          "name": "_from",
          "type": "address"
        },
        {
          "indexed": true,
          "internalType": "address",
          "name": "_to",
          "type": "address"
        },
        {
          "indexed": false,
          "internalType": "uint256",
          "name": "_id",
          "type": "uint256"
        },
        {
          "indexed": false,
          "internalType": "uint256",
          "name": "_amount",
          "type": "uint256"
        }
      ],
      "name": "TransferSingle",
      "type": "event"
    },
    {
      "anonymous": false,
      "inputs": [
        {
          "indexed": false,
          "internalType": "string",
          "name": "_uri",
          "type": "string"
        },
        {
          "indexed": true,
          "internalType": "uint256",
          "name": "_id",
          "type": "uint256"
        }
      ],
      "name": "URI",
      "type": "event"
    },
    {
      "inputs": [
        {
          "internalType": "bool",
          "name": "allow",
          "type": "bool"
        }
      ],
      "name": "allowMinting",
      "outputs": [],
      "stateMutability": "nonpayable",
      "type": "function"
    },
    {
      "inputs": [
        {
          "internalType": "address",
          "name": "_owner",
          "type": "address"
        },
        {
          "internalType": "uint256",
          "name": "_id",
          "type": "uint256"
        }
      ],
      "name": "balanceOf",
      "outputs": [
        {
          "internalType": "uint256",
          "name": "",
          "type": "uint256"
        }
      ],
      "stateMutability": "view",
      "type": "function"
    },
    {
      "inputs": [
        {
          "internalType": "address[]",
          "name": "_owners",
          "type": "address[]"
        },
        {
          "internalType": "uint256[]",
          "name": "_ids",
          "type": "uint256[]"
        }
      ],
      "name": "balanceOfBatch",
      "outputs": [
        {
          "internalType": "uint256[]",
          "name": "",
          "type": "uint256[]"
        }
      ],
      "stateMutability": "view",
      "type": "function"
    },
    {
      "inputs": [],
      "name": "getNextTokenID",
      "outputs": [
        {
          "internalType": "uint8",
          "name": "",
          "type": "uint8"
        }
      ],
      "stateMutability": "view",
      "type": "function"
    },
    {
      "inputs": [
        {
          "internalType": "address",
          "name": "_owner",
          "type": "address"
        },
        {
          "internalType": "address",
          "name": "_operator",
          "type": "address"
        }
      ],
      "name": "isApprovedForAll",
      "outputs": [
        {
          "internalType": "bool",
          "name": "isOperator",
          "type": "bool"
        }
      ],
      "stateMutability": "view",
      "type": "function"
    },
    {
      "inputs": [
        {
          "internalType": "address",
          "name": "account",
          "type": "address"
        },
        {
          "internalType": "uint256",
          "name": "tokenId",
          "type": "uint256"
        }
      ],
      "name": "messageHash",
      "outputs": [
        {
          "internalType": "bytes32",
          "name": "",
          "type": "bytes32"
        }
      ],
      "stateMutability": "pure",
      "type": "function"
    },
    {
      "inputs": [
        {
          "internalType": "address",
          "name": "to",
          "type": "address"
        },
        {
          "internalType": "uint16",
          "name": "amountMateria",
          "type": "uint16"
        },
        {
          "internalType": "uint16",
          "name": "amountPrimaMateria",
          "type": "uint16"
        }
      ],
      "name": "mintBatchMateria",
      "outputs": [],
      "stateMutability": "nonpayable",
      "type": "function"
    },
    {
      "inputs": [
        {
          "internalType": "uint256",
          "name": "antonymTokenId",
          "type": "uint256"
        },
        {
          "internalType": "bytes",
          "name": "signature",
          "type": "bytes"
        }
      ],
      "name": "mintMateria",
      "outputs": [],
      "stateMutability": "nonpayable",
      "type": "function"
    },
    {
      "inputs": [
        {
          "internalType": "uint256",
          "name": "antonymTokenId",
          "type": "uint256"
        },
        {
          "internalType": "bytes",
          "name": "signature",
          "type": "bytes"
        },
        {
          "internalType": "bytes32[]",
          "name": "proof",
          "type": "bytes32[]"
        }
      ],
      "name": "mintPrimaMateria",
      "outputs": [],
      "stateMutability": "nonpayable",
      "type": "function"
    },
    {
      "inputs": [],
      "name": "name",
      "outputs": [
        {
          "internalType": "string",
          "name": "",
          "type": "string"
        }
      ],
      "stateMutability": "view",
      "type": "function"
    },
    {
      "inputs": [],
      "name": "owner",
      "outputs": [
        {
          "internalType": "address",
          "name": "",
          "type": "address"
        }
      ],
      "stateMutability": "view",
      "type": "function"
    },
    {
      "inputs": [],
      "name": "renounceOwnership",
      "outputs": [],
      "stateMutability": "nonpayable",
      "type": "function"
    },
    {
      "inputs": [
        {
          "internalType": "address",
          "name": "_from",
          "type": "address"
        },
        {
          "internalType": "address",
          "name": "_to",
          "type": "address"
        },
        {
          "internalType": "uint256[]",
          "name": "_ids",
          "type": "uint256[]"
        },
        {
          "internalType": "uint256[]",
          "name": "_amounts",
          "type": "uint256[]"
        },
        {
          "internalType": "bytes",
          "name": "_data",
          "type": "bytes"
        }
      ],
      "name": "safeBatchTransferFrom",
      "outputs": [],
      "stateMutability": "nonpayable",
      "type": "function"
    },
    {
      "inputs": [
        {
          "internalType": "address",
          "name": "_from",
          "type": "address"
        },
        {
          "internalType": "address",
          "name": "_to",
          "type": "address"
        },
        {
          "internalType": "uint256",
          "name": "_id",
          "type": "uint256"
        },
        {
          "internalType": "uint256",
          "name": "_amount",
          "type": "uint256"
        },
        {
          "internalType": "bytes",
          "name": "_data",
          "type": "bytes"
        }
      ],
      "name": "safeTransferFrom",
      "outputs": [],
      "stateMutability": "nonpayable",
      "type": "function"
    },
    {
      "inputs": [
        {
          "internalType": "address",
          "name": "_operator",
          "type": "address"
        },
        {
          "internalType": "bool",
          "name": "_approved",
          "type": "bool"
        }
      ],
      "name": "setApprovalForAll",
      "outputs": [],
      "stateMutability": "nonpayable",
      "type": "function"
    },
    {
      "inputs": [
        {
          "internalType": "string",
          "name": "_newBaseMetadataURI",
          "type": "string"
        }
      ],
      "name": "setBaseMetadataURI",
      "outputs": [],
      "stateMutability": "nonpayable",
      "type": "function"
    },
    {
      "inputs": [
        {
          "internalType": "uint64",
          "name": "end",
          "type": "uint64"
        }
      ],
      "name": "setDeadline",
      "outputs": [],
      "stateMutability": "nonpayable",
      "type": "function"
    },
    {
      "inputs": [
        {
          "internalType": "address",
          "name": "signer",
          "type": "address"
        }
      ],
      "name": "setSigner",
      "outputs": [],
      "stateMutability": "nonpayable",
      "type": "function"
    },
    {
      "inputs": [
        {
          "internalType": "bytes4",
          "name": "_interfaceID",
          "type": "bytes4"
        }
      ],
      "name": "supportsInterface",
      "outputs": [
        {
          "internalType": "bool",
          "name": "",
          "type": "bool"
        }
      ],
      "stateMutability": "view",
      "type": "function"
    },
    {
      "inputs": [],
      "name": "symbol",
      "outputs": [
        {
          "internalType": "string",
          "name": "",
          "type": "string"
        }
      ],
      "stateMutability": "view",
      "type": "function"
    },
    {
      "inputs": [
        {
          "internalType": "uint8",
          "name": "",
          "type": "uint8"
        }
      ],
      "name": "tokenSupply",
      "outputs": [
        {
          "internalType": "uint16",
          "name": "",
          "type": "uint16"
        }
      ],
      "stateMutability": "view",
      "type": "function"
    },
    {
      "inputs": [
        {
          "internalType": "uint8",
          "name": "_id",
          "type": "uint8"
        }
      ],
      "name": "totalSupply",
      "outputs": [
        {
          "internalType": "uint16",
          "name": "",
          "type": "uint16"
        }
      ],
      "stateMutability": "view",
      "type": "function"
    },
    {
      "inputs": [
        {
          "internalType": "address",
          "name": "newOwner",
          "type": "address"
        }
      ],
      "name": "transferOwnership",
      "outputs": [],
      "stateMutability": "nonpayable",
      "type": "function"
    },
    {
      "inputs": [
        {
          "internalType": "uint256",
          "name": "_id",
          "type": "uint256"
        }
      ],
      "name": "uri",
      "outputs": [
        {
          "internalType": "string",
          "name": "",
          "type": "string"
        }
      ],
      "stateMutability": "view",
      "type": "function"
    },
    {
      "inputs": [
        {
          "internalType": "uint8",
          "name": "_id",
          "type": "uint8"
        }
      ],
      "name": "uri",
      "outputs": [
        {
          "internalType": "string",
          "name": "",
          "type": "string"
        }
      ],
      "stateMutability": "view",
      "type": "function"
    }
  ],
  "bytecode": "0x60806040526001600a60146101000a81548160ff0219169083151502179055503480156200002c57600080fd5b5060405162005fd438038062005fd48339818101604052810190620000529190620007a8565b87878762000075620000696200038c60201b60201c565b6200039460201b60201c565b82600590805190602001906200008d92919062000476565b508160069080519060200190620000a692919062000476565b50620000b8816200045a60201b60201c565b505050428567ffffffffffffffff16116200010a576040517f08c379a000000000000000000000000000000000000000000000000000000000815260040162000101906200092f565b60405180910390fd5b8467ffffffffffffffff168467ffffffffffffffff16118015620001375750428467ffffffffffffffff16115b62000179576040517f08c379a00000000000000000000000000000000000000000000000000000000081526004016200017090620009a1565b60405180910390fd5b600073ffffffffffffffffffffffffffffffffffffffff168273ffffffffffffffffffffffffffffffffffffffff1603620001eb576040517f08c379a0000000000000000000000000000000000000000000000000000000008152600401620001e29062000a13565b60405180910390fd5b6000830362000231576040517f08c379a0000000000000000000000000000000000000000000000000000000008152600401620002289062000a85565b60405180910390fd5b600073ffffffffffffffffffffffffffffffffffffffff168173ffffffffffffffffffffffffffffffffffffffff1603620002a3576040517f08c379a00000000000000000000000000000000000000000000000000000000081526004016200029a9062000af7565b60405180910390fd5b84600760006101000a81548167ffffffffffffffff021916908367ffffffffffffffff16021790555083600760086101000a81548167ffffffffffffffff021916908367ffffffffffffffff16021790555081600960006101000a81548173ffffffffffffffffffffffffffffffffffffffff021916908373ffffffffffffffffffffffffffffffffffffffff1602179055508260088190555080600a60006101000a81548173ffffffffffffffffffffffffffffffffffffffff021916908373ffffffffffffffffffffffffffffffffffffffff160217905550505050505050505062000b7d565b600033905090565b6000600360009054906101000a900473ffffffffffffffffffffffffffffffffffffffff16905081600360006101000a81548173ffffffffffffffffffffffffffffffffffffffff021916908373ffffffffffffffffffffffffffffffffffffffff1602179055508173ffffffffffffffffffffffffffffffffffffffff168173ffffffffffffffffffffffffffffffffffffffff167f8be0079c531659141344cd1fd0a4f28419497f9722a3daafe3b4186f6b6457e060405160405180910390a35050565b80600290805190602001906200047292919062000476565b5050565b828054620004849062000b48565b90600052602060002090601f016020900481019282620004a85760008555620004f4565b82601f10620004c357805160ff1916838001178555620004f4565b82800160010185558215620004f4579182015b82811115620004f3578251825591602001919060010190620004d6565b5b50905062000503919062000507565b5090565b5b808211156200052257600081600090555060010162000508565b5090565b6000604051905090565b600080fd5b600080fd5b600080fd5b600080fd5b6000601f19601f8301169050919050565b7f4e487b7100000000000000000000000000000000000000000000000000000000600052604160045260246000fd5b6200058f8262000544565b810181811067ffffffffffffffff82111715620005b157620005b062000555565b5b80604052505050565b6000620005c662000526565b9050620005d4828262000584565b919050565b600067ffffffffffffffff821115620005f757620005f662000555565b5b620006028262000544565b9050602081019050919050565b60005b838110156200062f57808201518184015260208101905062000612565b838111156200063f576000848401525b50505050565b60006200065c6200065684620005d9565b620005ba565b9050828152602081018484840111156200067b576200067a6200053f565b5b620006888482856200060f565b509392505050565b600082601f830112620006a857620006a76200053a565b5b8151620006ba84826020860162000645565b91505092915050565b600067ffffffffffffffff82169050919050565b620006e281620006c3565b8114620006ee57600080fd5b50565b6000815190506200070281620006d7565b92915050565b6000819050919050565b6200071d8162000708565b81146200072957600080fd5b50565b6000815190506200073d8162000712565b92915050565b600073ffffffffffffffffffffffffffffffffffffffff82169050919050565b6000620007708262000743565b9050919050565b620007828162000763565b81146200078e57600080fd5b50565b600081519050620007a28162000777565b92915050565b600080600080600080600080610100898b031215620007cc57620007cb62000530565b5b600089015167ffffffffffffffff811115620007ed57620007ec62000535565b5b620007fb8b828c0162000690565b985050602089015167ffffffffffffffff8111156200081f576200081e62000535565b5b6200082d8b828c0162000690565b975050604089015167ffffffffffffffff81111562000851576200085062000535565b5b6200085f8b828c0162000690565b9650506060620008728b828c01620006f1565b9550506080620008858b828c01620006f1565b94505060a0620008988b828c016200072c565b93505060c0620008ab8b828c0162000791565b92505060e0620008be8b828c0162000791565b9150509295985092959890939650565b600082825260208201905092915050565b7f53746172742063616e6e6f7420626520696e2074686520706173740000000000600082015250565b600062000917601b83620008ce565b91506200092482620008df565b602082019050919050565b600060208201905081810360008301526200094a8162000908565b9050919050565b7f57726f6e6720656e6420646561646c696e650000000000000000000000000000600082015250565b600062000989601283620008ce565b9150620009968262000951565b602082019050919050565b60006020820190508181036000830152620009bc816200097a565b9050919050565b7f57726f6e67207369676e65720000000000000000000000000000000000000000600082015250565b6000620009fb600c83620008ce565b915062000a0882620009c3565b602082019050919050565b6000602082019050818103600083015262000a2e81620009ec565b9050919050565b7f57726f6e67204d65726b6c65526f6f7400000000000000000000000000000000600082015250565b600062000a6d601083620008ce565b915062000a7a8262000a35565b602082019050919050565b6000602082019050818103600083015262000aa08162000a5e565b9050919050565b7f57726f6e67204e46540000000000000000000000000000000000000000000000600082015250565b600062000adf600983620008ce565b915062000aec8262000aa7565b602082019050919050565b6000602082019050818103600083015262000b128162000ad0565b9050919050565b7f4e487b7100000000000000000000000000000000000000000000000000000000600052602260045260246000fd5b6000600282049050600182168062000b6157607f821691505b60208210810362000b775762000b7662000b19565b5b50919050565b6154478062000b8d6000396000f3fe608060405234801561001057600080fd5b50600436106101725760003560e01c80636c19e783116100de578063a22cb46511610097578063e985e9c511610071578063e985e9c514610445578063f242432a14610475578063f2fde38b14610491578063f7ade491146104ad57610172565b8063a22cb465146103dd578063aebc0483146103f9578063e11208d61461041557610172565b80636c19e78314610343578063715018a61461035f57806379e91fa8146103695780637e518ec8146103855780638da5cb5b146103a157806395d89b41146103bf57610172565b80633e0981d7116101305780633e0981d71461025d578063496d9f44146102795780634a198119146102a95780634bc85491146102c75780634e1273f4146102f75780635d7633ec1461032757610172565b8062fdd58e1461017757806301ffc9a7146101a757806306fdde03146101d75780630e89341c146101f55780632c5a8e86146102255780632eb2c2d614610241575b600080fd5b610191600480360381019061018c919061322a565b6104dd565b60405161019e9190613279565b60405180910390f35b6101c160048036038101906101bc91906132ec565b610537565b6040516101ce9190613334565b60405180910390f35b6101df6105b8565b6040516101ec91906133e8565b60405180910390f35b61020f600480360381019061020a919061340a565b610646565b60405161021c91906133e8565b60405180910390f35b61023f600480360381019061023a9190613463565b61067a565b005b61025b6004803603810190610256919061368d565b61069f565b005b610277600480360381019061027291906137b7565b6107ae565b005b610293600480360381019061028e9190613880565b610c5e565b6040516102a091906138ca565b60405180910390f35b6102b1610c8f565b6040516102be91906138f4565b60405180910390f35b6102e160048036038101906102dc919061322a565b610cb2565b6040516102ee9190613928565b60405180910390f35b610311600480360381019061030c9190613a06565b610d36565b60405161031e9190613b3c565b60405180910390f35b610341600480360381019061033c9190613b8a565b610e97565b005b61035d60048036038101906103589190613bdd565b611184565b005b61036761123f565b005b610383600480360381019061037e9190613c0a565b611253565b005b61039f600480360381019061039a9190613d07565b611601565b005b6103a9611615565b6040516103b69190613d5f565b60405180910390f35b6103c761163f565b6040516103d491906133e8565b60405180910390f35b6103f760048036038101906103f29190613d7a565b6116cd565b005b610413600480360381019061040e9190613dfa565b6117ca565b005b61042f600480360381019061042a9190613880565b61187f565b60405161043c91906133e8565b60405180910390f35b61045f600480360381019061045a9190613e27565b61192a565b60405161046c9190613334565b60405180910390f35b61048f600480360381019061048a9190613e67565b6119be565b005b6104ab60048036038101906104a69190613bdd565b611acd565b005b6104c760048036038101906104c29190613880565b611b50565b6040516104d491906138ca565b60405180910390f35b60008060008473ffffffffffffffffffffffffffffffffffffffff1673ffffffffffffffffffffffffffffffffffffffff168152602001908152602001600020600083815260200190815260200160002054905092915050565b60007fd9b67a26000000000000000000000000000000000000000000000000000000007bffffffffffffffffffffffffffffffffffffffffffffffffffffffff1916827bffffffffffffffffffffffffffffffffffffffffffffffffffffffff1916036105a757600190506105b3565b6105b082611b71565b90505b919050565b600580546105c590613f2d565b80601f01602080910402602001604051908101604052809291908181526020018280546105f190613f2d565b801561063e5780601f106106135761010080835404028352916020019161063e565b820191906000526020600020905b81548152906001019060200180831161062157829003601f168201915b505050505081565b6060600261065383611bf2565b60405160200161066492919061407a565b6040516020818303038152906040529050919050565b610682611d67565b80600a60146101000a81548160ff02191690831515021790555050565b8473ffffffffffffffffffffffffffffffffffffffff163373ffffffffffffffffffffffffffffffffffffffff1614806106df57506106de853361192a565b5b61071e576040517f08c379a00000000000000000000000000000000000000000000000000000000081526004016107159061411b565b60405180910390fd5b600073ffffffffffffffffffffffffffffffffffffffff168473ffffffffffffffffffffffffffffffffffffffff160361078d576040517f08c379a0000000000000000000000000000000000000000000000000000000008152600401610784906141ad565b60405180910390fd5b61079985858585611de5565b6107a7858585855a866120d9565b5050505050565b600a60149054906101000a900460ff166107fd576040517f08c379a00000000000000000000000000000000000000000000000000000000081526004016107f490614219565b60405180910390fd5b42600760009054906101000a900467ffffffffffffffff1667ffffffffffffffff161115610860576040517f08c379a000000000000000000000000000000000000000000000000000000000815260040161085790614285565b60405180910390fd5b42600760089054906101000a900467ffffffffffffffff1667ffffffffffffffff16116108c2576040517f08c379a00000000000000000000000000000000000000000000000000000000081526004016108b9906142f1565b60405180910390fd5b600561ffff16600160046000600260ff16815260200190815260200160002060009054906101000a900461ffff166108fa9190614340565b61ffff16111561093f576040517f08c379a0000000000000000000000000000000000000000000000000000000008152600401610936906143c4565b60405180910390fd5b600c600085815260200190815260200160002060009054906101000a900460ff16156109a0576040517f08c379a000000000000000000000000000000000000000000000000000000000815260040161099790614430565b60405180910390fd5b60006109aa6122b0565b90508073ffffffffffffffffffffffffffffffffffffffff16600a60009054906101000a900473ffffffffffffffffffffffffffffffffffffffff1673ffffffffffffffffffffffffffffffffffffffff16636352211e876040518263ffffffff1660e01b8152600401610a1e9190613279565b602060405180830381865afa158015610a3b573d6000803e3d6000fd5b505050506040513d601f19601f82011682018060405250810190610a5f9190614465565b73ffffffffffffffffffffffffffffffffffffffff1614610ab5576040517f08c379a0000000000000000000000000000000000000000000000000000000008152600401610aac906144de565b60405180910390fd5b610ac08186866122b8565b610aff576040517f08c379a0000000000000000000000000000000000000000000000000000000008152600401610af69061454a565b60405180910390fd5b610b096001612363565b610b48576040517f08c379a0000000000000000000000000000000000000000000000000000000008152600401610b3f906145dc565b60405180910390fd5b600085604051602001610b5b919061461d565b604051602081830303815290604052805190602001209050610bbe81858580806020026020016040519081016040528093929190818152602001838360200280828437600081840152601f19601f8201169050808301925050505050505061239a565b610bfd576040517f08c379a0000000000000000000000000000000000000000000000000000000008152600401610bf490614684565b60405180910390fd5b6001600c600088815260200190815260200160002060006101000a81548160ff021916908315150217905550610c336002612363565b610c4857610c428260016123b1565b50610c56565b610c558260026001612426565b5b505050505050565b6000600460008360ff1660ff16815260200190815260200160002060009054906101000a900461ffff169050919050565b60006001600360149054906101000a900460ff16610cad91906146a4565b905090565b600073__$5f0992d95fe464c261089015ed9f461e6e$__63512c91df84846040518363ffffffff1660e01b8152600401610ced9291906146f9565b602060405180830381865af4158015610d0a573d6000803e3d6000fd5b505050506040513d601f19601f82011682018060405250810190610d2e919061474e565b905092915050565b60608151835114610d7c576040517f08c379a0000000000000000000000000000000000000000000000000000000008152600401610d73906147ed565b60405180910390fd5b6000835167ffffffffffffffff811115610d9957610d98613495565b5b604051908082528060200260200182016040528015610dc75781602001602082028036833780820191505090505b50905060005b8451811015610e8c57600080868381518110610dec57610deb61480d565b5b602002602001015173ffffffffffffffffffffffffffffffffffffffff1673ffffffffffffffffffffffffffffffffffffffff1681526020019081526020016000206000858381518110610e4357610e4261480d565b5b6020026020010151815260200190815260200160002054828281518110610e6d57610e6c61480d565b5b6020026020010181815250508080610e849061483c565b915050610dcd565b508091505092915050565b610e9f611d67565b600a60149054906101000a900460ff16610eee576040517f08c379a0000000000000000000000000000000000000000000000000000000008152600401610ee590614219565b60405180910390fd5b42600760089054906101000a900467ffffffffffffffff1667ffffffffffffffff1610610f50576040517f08c379a0000000000000000000000000000000000000000000000000000000008152600401610f47906148d0565b60405180910390fd5b606461ffff168260046000600160ff16815260200190815260200160002060009054906101000a900461ffff16610f879190614340565b61ffff161115610fcc576040517f08c379a0000000000000000000000000000000000000000000000000000000008152600401610fc39061493c565b60405180910390fd5b600561ffff168160046000600260ff16815260200190815260200160002060009054906101000a900461ffff166110039190614340565b61ffff161115611048576040517f08c379a000000000000000000000000000000000000000000000000000000000815260040161103f906143c4565b60405180910390fd5b6000600267ffffffffffffffff81111561106557611064613495565b5b6040519080825280602002602001820160405280156110935781602001602082028036833780820191505090505b5090506001816000815181106110ac576110ab61480d565b5b6020026020010181815250506002816001815181106110ce576110cd61480d565b5b6020026020010181815250506000600267ffffffffffffffff8111156110f7576110f6613495565b5b6040519080825280602002602001820160405280156111255781602001602082028036833780820191505090505b5090508361ffff16816000815181106111415761114061480d565b5b6020026020010181815250508261ffff16816001815181106111665761116561480d565b5b60200260200101818152505061117d85838361249d565b5050505050565b61118c611d67565b600073ffffffffffffffffffffffffffffffffffffffff168173ffffffffffffffffffffffffffffffffffffffff16036111fb576040517f08c379a00000000000000000000000000000000000000000000000000000000081526004016111f2906149a8565b60405180910390fd5b80600960006101000a81548173ffffffffffffffffffffffffffffffffffffffff021916908373ffffffffffffffffffffffffffffffffffffffff16021790555050565b611247611d67565b611251600061256d565b565b600a60149054906101000a900460ff166112a2576040517f08c379a000000000000000000000000000000000000000000000000000000000815260040161129990614219565b60405180910390fd5b42600760009054906101000a900467ffffffffffffffff1667ffffffffffffffff161115611305576040517f08c379a00000000000000000000000000000000000000000000000000000000081526004016112fc90614285565b60405180910390fd5b42600760089054906101000a900467ffffffffffffffff1667ffffffffffffffff1611611367576040517f08c379a000000000000000000000000000000000000000000000000000000000815260040161135e906142f1565b60405180910390fd5b606461ffff16600160046000600160ff16815260200190815260200160002060009054906101000a900461ffff1661139f9190614340565b61ffff1611156113e4576040517f08c379a00000000000000000000000000000000000000000000000000000000081526004016113db9061493c565b60405180910390fd5b600b600083815260200190815260200160002060009054906101000a900460ff1615611445576040517f08c379a000000000000000000000000000000000000000000000000000000000815260040161143c90614430565b60405180910390fd5b600061144f6122b0565b90508073ffffffffffffffffffffffffffffffffffffffff16600a60009054906101000a900473ffffffffffffffffffffffffffffffffffffffff1673ffffffffffffffffffffffffffffffffffffffff16636352211e856040518263ffffffff1660e01b81526004016114c39190613279565b602060405180830381865afa1580156114e0573d6000803e3d6000fd5b505050506040513d601f19601f820116820180604052508101906115049190614465565b73ffffffffffffffffffffffffffffffffffffffff161461155a576040517f08c379a0000000000000000000000000000000000000000000000000000000008152600401611551906144de565b60405180910390fd5b6115658184846122b8565b6115a4576040517f08c379a000000000000000000000000000000000000000000000000000000000815260040161159b9061454a565b60405180910390fd5b6001600b600085815260200190815260200160002060006101000a81548160ff0219169083151502179055506115da6001612363565b6115ef576115e98160016123b1565b506115fc565b6115fb81600180612426565b5b505050565b611609611d67565b61161281612633565b50565b6000600360009054906101000a900473ffffffffffffffffffffffffffffffffffffffff16905090565b6006805461164c90613f2d565b80601f016020809104026020016040519081016040528092919081815260200182805461167890613f2d565b80156116c55780601f1061169a576101008083540402835291602001916116c5565b820191906000526020600020905b8154815290600101906020018083116116a857829003601f168201915b505050505081565b80600160003373ffffffffffffffffffffffffffffffffffffffff1673ffffffffffffffffffffffffffffffffffffffff16815260200190815260200160002060008473ffffffffffffffffffffffffffffffffffffffff1673ffffffffffffffffffffffffffffffffffffffff16815260200190815260200160002060006101000a81548160ff0219169083151502179055508173ffffffffffffffffffffffffffffffffffffffff163373ffffffffffffffffffffffffffffffffffffffff167f17307eab39ab6107e8899845ad3d59bd9653f200f220920489ca2b5937696c31836040516117be9190613334565b60405180910390a35050565b6117d2611d67565b600760009054906101000a900467ffffffffffffffff1667ffffffffffffffff168167ffffffffffffffff161180156118145750428167ffffffffffffffff16115b611853576040517f08c379a000000000000000000000000000000000000000000000000000000000815260040161184a90614a14565b60405180910390fd5b80600760086101000a81548167ffffffffffffffff021916908367ffffffffffffffff16021790555050565b606061188a82612363565b6118c9576040517f08c379a00000000000000000000000000000000000000000000000000000000081526004016118c090614aa6565b60405180910390fd5b6000600280546118d890613f2d565b9050116118f45760405180602001604052806000815250611923565b60026119028360ff1661264d565b604051602001611913929190614ac6565b6040516020818303038152906040525b9050919050565b6000600160008473ffffffffffffffffffffffffffffffffffffffff1673ffffffffffffffffffffffffffffffffffffffff16815260200190815260200160002060008373ffffffffffffffffffffffffffffffffffffffff1673ffffffffffffffffffffffffffffffffffffffff16815260200190815260200160002060009054906101000a900460ff16905092915050565b8473ffffffffffffffffffffffffffffffffffffffff163373ffffffffffffffffffffffffffffffffffffffff1614806119fe57506119fd853361192a565b5b611a3d576040517f08c379a0000000000000000000000000000000000000000000000000000000008152600401611a3490614b5c565b60405180910390fd5b600073ffffffffffffffffffffffffffffffffffffffff168473ffffffffffffffffffffffffffffffffffffffff1603611aac576040517f08c379a0000000000000000000000000000000000000000000000000000000008152600401611aa390614bee565b60405180910390fd5b611ab8858585856127ad565b611ac6858585855a8661299b565b5050505050565b611ad5611d67565b600073ffffffffffffffffffffffffffffffffffffffff168173ffffffffffffffffffffffffffffffffffffffff1603611b44576040517f08c379a0000000000000000000000000000000000000000000000000000000008152600401611b3b90614c80565b60405180910390fd5b611b4d8161256d565b50565b60046020528060005260406000206000915054906101000a900461ffff1681565b60007f0e89341c000000000000000000000000000000000000000000000000000000007bffffffffffffffffffffffffffffffffffffffffffffffffffffffff1916827bffffffffffffffffffffffffffffffffffffffffffffffffffffffff191603611be15760019050611bed565b611bea82612b72565b90505b919050565b606060008203611c39576040518060400160405280600181526020017f30000000000000000000000000000000000000000000000000000000000000008152509050611d62565b6000829050600083905060005b60008314611c70578080611c599061483c565b915050600a83611c699190614ccf565b9250611c46565b60008167ffffffffffffffff811115611c8c57611c8b613495565b5b6040519080825280601f01601f191660200182016040528015611cbe5781602001600182028036833780820191505090505b5090506000600183611cd09190614d00565b90505b60008414611d5957600a84611ce89190614d34565b6030611cf49190614d65565b60f81b828280611d0390614dbb565b935081518110611d1657611d1561480d565b5b60200101907effffffffffffffffffffffffffffffffffffffffffffffffffffffffffffff1916908160001a905350600a84611d529190614ccf565b9350611cd3565b81955050505050505b919050565b611d6f6122b0565b73ffffffffffffffffffffffffffffffffffffffff16611d8d611615565b73ffffffffffffffffffffffffffffffffffffffff1614611de3576040517f08c379a0000000000000000000000000000000000000000000000000000000008152600401611dda90614e30565b60405180910390fd5b565b8051825114611e29576040517f08c379a0000000000000000000000000000000000000000000000000000000008152600401611e2090614ec2565b60405180910390fd5b60008251905060005b8181101561205357611ed0838281518110611e5057611e4f61480d565b5b60200260200101516000808973ffffffffffffffffffffffffffffffffffffffff1673ffffffffffffffffffffffffffffffffffffffff1681526020019081526020016000206000878581518110611eab57611eaa61480d565b5b6020026020010151815260200190815260200160002054612bf390919063ffffffff16565b6000808873ffffffffffffffffffffffffffffffffffffffff1673ffffffffffffffffffffffffffffffffffffffff1681526020019081526020016000206000868481518110611f2357611f2261480d565b5b6020026020010151815260200190815260200160002081905550611fd3838281518110611f5357611f5261480d565b5b60200260200101516000808873ffffffffffffffffffffffffffffffffffffffff1673ffffffffffffffffffffffffffffffffffffffff1681526020019081526020016000206000878581518110611fae57611fad61480d565b5b6020026020010151815260200190815260200160002054612c0990919063ffffffff16565b6000808773ffffffffffffffffffffffffffffffffffffffff1673ffffffffffffffffffffffffffffffffffffffff16815260200190815260200160002060008684815181106120265761202561480d565b5b6020026020010151815260200190815260200160002081905550808061204b9061483c565b915050611e32565b508373ffffffffffffffffffffffffffffffffffffffff168573ffffffffffffffffffffffffffffffffffffffff163373ffffffffffffffffffffffffffffffffffffffff167f4a39dc06d4c0dbc64b70af90fd698a233a518aa5d07e595d983b8c0526c8f7fb86866040516120ca929190614ee2565b60405180910390a45050505050565b6120f88573ffffffffffffffffffffffffffffffffffffffff16612c1f565b156122a8578473ffffffffffffffffffffffffffffffffffffffff1663bc197c8133888787866040518663ffffffff1660e01b815260040161213e959493929190614f6e565b6020604051808303816000875af192505050801561217a57506040513d601f19601f820116820180604052508101906121779190614feb565b60015b61221f57612186615025565b806308c379a0036121e2575061219a615047565b806121a557506121e4565b806040517f08c379a00000000000000000000000000000000000000000000000000000000081526004016121d991906133e8565b60405180910390fd5b505b6040517f08c379a000000000000000000000000000000000000000000000000000000000815260040161221690615149565b60405180910390fd5b63bc197c8160e01b7bffffffffffffffffffffffffffffffffffffffffffffffffffffffff1916817bffffffffffffffffffffffffffffffffffffffffffffffffffffffff1916146122a6576040517f08c379a000000000000000000000000000000000000000000000000000000000815260040161229d906151db565b60405180910390fd5b505b505050505050565b600033905090565b600073__$5f0992d95fe464c261089015ed9f461e6e$__6393e9f8fc600960009054906101000a900473ffffffffffffffffffffffffffffffffffffffff168686866040518563ffffffff1660e01b81526004016123199493929190615245565b602060405180830381865af4158015612336573d6000803e3d6000fd5b505050506040513d601f19601f8201168201806040525081019061235a91906152a6565b90509392505050565b600080600460008460ff1660ff16815260200190815260200160002060009054906101000a900461ffff1661ffff16119050919050565b60006123a98260085485612c42565b905092915050565b6000806123bc610c8f565b90506123c6612c59565b6123e8848260ff168561ffff1660405180602001604052806000815250612c93565b82600460008360ff1660ff16815260200190815260200160002060006101000a81548161ffff021916908361ffff1602179055508091505092915050565b612448838360ff168361ffff1660405180602001604052806000815250612c93565b80600460008460ff1660ff16815260200190815260200160002060008282829054906101000a900461ffff1661247e9190614340565b92506101000a81548161ffff021916908361ffff160217905550505050565b60005b825181101561254c5760008382815181106124be576124bd61480d565b5b6020026020010151905060008383815181106124dd576124dc61480d565b5b6020026020010151905080600460008460ff1660ff16815260200190815260200160002060008282829054906101000a900461ffff1661251d9190614340565b92506101000a81548161ffff021916908361ffff160217905550505080806125449061483c565b9150506124a0565b5061256883838360405180602001604052806000815250612ddc565b505050565b6000600360009054906101000a900473ffffffffffffffffffffffffffffffffffffffff16905081600360006101000a81548173ffffffffffffffffffffffffffffffffffffffff021916908373ffffffffffffffffffffffffffffffffffffffff1602179055508173ffffffffffffffffffffffffffffffffffffffff168173ffffffffffffffffffffffffffffffffffffffff167f8be0079c531659141344cd1fd0a4f28419497f9722a3daafe3b4186f6b6457e060405160405180910390a35050565b80600290805190602001906126499291906130df565b5050565b606060008203612694576040518060400160405280600181526020017f300000000000000000000000000000000000000000000000000000000000000081525090506127a8565b600082905060005b600082146126c65780806126af9061483c565b915050600a826126bf9190614ccf565b915061269c565b60008167ffffffffffffffff8111156126e2576126e1613495565b5b6040519080825280601f01601f1916602001820160405280156127145781602001600182028036833780820191505090505b5090505b600085146127a15760018261272d9190614d00565b9150600a8561273c9190614d34565b60306127489190614d65565b60f81b81838151811061275e5761275d61480d565b5b60200101907effffffffffffffffffffffffffffffffffffffffffffffffffffffffffffff1916908160001a905350600a8561279a9190614ccf565b9450612718565b8093505050505b919050565b61280f816000808773ffffffffffffffffffffffffffffffffffffffff1673ffffffffffffffffffffffffffffffffffffffff168152602001908152602001600020600085815260200190815260200160002054612bf390919063ffffffff16565b6000808673ffffffffffffffffffffffffffffffffffffffff1673ffffffffffffffffffffffffffffffffffffffff1681526020019081526020016000206000848152602001908152602001600020819055506128c4816000808673ffffffffffffffffffffffffffffffffffffffff1673ffffffffffffffffffffffffffffffffffffffff168152602001908152602001600020600085815260200190815260200160002054612c0990919063ffffffff16565b6000808573ffffffffffffffffffffffffffffffffffffffff1673ffffffffffffffffffffffffffffffffffffffff1681526020019081526020016000206000848152602001908152602001600020819055508273ffffffffffffffffffffffffffffffffffffffff168473ffffffffffffffffffffffffffffffffffffffff163373ffffffffffffffffffffffffffffffffffffffff167fc3d58168c5ae7397731d063d5bbf3d657854427343f4c083240f7aacaa2d0f62858560405161298d9291906152d3565b60405180910390a450505050565b6129ba8573ffffffffffffffffffffffffffffffffffffffff16612c1f565b15612b6a578473ffffffffffffffffffffffffffffffffffffffff1663f23a6e6133888787866040518663ffffffff1660e01b8152600401612a009594939291906152fc565b6020604051808303816000875af1925050508015612a3c57506040513d601f19601f82011682018060405250810190612a399190614feb565b60015b612ae157612a48615025565b806308c379a003612aa45750612a5c615047565b80612a675750612aa6565b806040517f08c379a0000000000000000000000000000000000000000000000000000000008152600401612a9b91906133e8565b60405180910390fd5b505b6040517f08c379a0000000000000000000000000000000000000000000000000000000008152600401612ad890615149565b60405180910390fd5b63f23a6e6160e01b7bffffffffffffffffffffffffffffffffffffffffffffffffffffffff1916817bffffffffffffffffffffffffffffffffffffffffffffffffffffffff191614612b68576040517f08c379a0000000000000000000000000000000000000000000000000000000008152600401612b5f906151db565b60405180910390fd5b505b505050505050565b60007fd9b67a26000000000000000000000000000000000000000000000000000000007bffffffffffffffffffffffffffffffffffffffffffffffffffffffff1916827bffffffffffffffffffffffffffffffffffffffffffffffffffffffff191603612be25760019050612bee565b612beb82612fdd565b90505b919050565b60008183612c019190614d00565b905092915050565b60008183612c179190614d65565b905092915050565b6000808273ffffffffffffffffffffffffffffffffffffffff163b119050919050565b600082612c4f8584613047565b1490509392505050565b6003601481819054906101000a900460ff1680929190612c7890615356565b91906101000a81548160ff021916908360ff16021790555050565b612cf5826000808773ffffffffffffffffffffffffffffffffffffffff1673ffffffffffffffffffffffffffffffffffffffff168152602001908152602001600020600086815260200190815260200160002054612c0990919063ffffffff16565b6000808673ffffffffffffffffffffffffffffffffffffffff1673ffffffffffffffffffffffffffffffffffffffff1681526020019081526020016000206000858152602001908152602001600020819055508373ffffffffffffffffffffffffffffffffffffffff16600073ffffffffffffffffffffffffffffffffffffffff163373ffffffffffffffffffffffffffffffffffffffff167fc3d58168c5ae7397731d063d5bbf3d657854427343f4c083240f7aacaa2d0f628686604051612dbf9291906152d3565b60405180910390a4612dd660008585855a8661299b565b50505050565b8151835114612e20576040517f08c379a0000000000000000000000000000000000000000000000000000000008152600401612e17906153f1565b60405180910390fd5b60008351905060005b81811015612f4757612ec7848281518110612e4757612e4661480d565b5b60200260200101516000808973ffffffffffffffffffffffffffffffffffffffff1673ffffffffffffffffffffffffffffffffffffffff1681526020019081526020016000206000888581518110612ea257612ea161480d565b5b6020026020010151815260200190815260200160002054612c0990919063ffffffff16565b6000808873ffffffffffffffffffffffffffffffffffffffff1673ffffffffffffffffffffffffffffffffffffffff1681526020019081526020016000206000878481518110612f1a57612f1961480d565b5b60200260200101518152602001908152602001600020819055508080612f3f9061483c565b915050612e29565b508473ffffffffffffffffffffffffffffffffffffffff16600073ffffffffffffffffffffffffffffffffffffffff163373ffffffffffffffffffffffffffffffffffffffff167f4a39dc06d4c0dbc64b70af90fd698a233a518aa5d07e595d983b8c0526c8f7fb8787604051612fbf929190614ee2565b60405180910390a4612fd660008686865a876120d9565b5050505050565b60007f01ffc9a7000000000000000000000000000000000000000000000000000000007bffffffffffffffffffffffffffffffffffffffffffffffffffffffff1916827bffffffffffffffffffffffffffffffffffffffffffffffffffffffff1916149050919050565b60008082905060005b84518110156130925761307d828683815181106130705761306f61480d565b5b602002602001015161309d565b9150808061308a9061483c565b915050613050565b508091505092915050565b60008183106130b5576130b082846130c8565b6130c0565b6130bf83836130c8565b5b905092915050565b600082600052816020526040600020905092915050565b8280546130eb90613f2d565b90600052602060002090601f01602090048101928261310d5760008555613154565b82601f1061312657805160ff1916838001178555613154565b82800160010185558215613154579182015b82811115613153578251825591602001919060010190613138565b5b5090506131619190613165565b5090565b5b8082111561317e576000816000905550600101613166565b5090565b6000604051905090565b600080fd5b600080fd5b600073ffffffffffffffffffffffffffffffffffffffff82169050919050565b60006131c182613196565b9050919050565b6131d1816131b6565b81146131dc57600080fd5b50565b6000813590506131ee816131c8565b92915050565b6000819050919050565b613207816131f4565b811461321257600080fd5b50565b600081359050613224816131fe565b92915050565b600080604083850312156132415761324061318c565b5b600061324f858286016131df565b925050602061326085828601613215565b9150509250929050565b613273816131f4565b82525050565b600060208201905061328e600083018461326a565b92915050565b60007fffffffff0000000000000000000000000000000000000000000000000000000082169050919050565b6132c981613294565b81146132d457600080fd5b50565b6000813590506132e6816132c0565b92915050565b6000602082840312156133025761330161318c565b5b6000613310848285016132d7565b91505092915050565b60008115159050919050565b61332e81613319565b82525050565b60006020820190506133496000830184613325565b92915050565b600081519050919050565b600082825260208201905092915050565b60005b8381101561338957808201518184015260208101905061336e565b83811115613398576000848401525b50505050565b6000601f19601f8301169050919050565b60006133ba8261334f565b6133c4818561335a565b93506133d481856020860161336b565b6133dd8161339e565b840191505092915050565b6000602082019050818103600083015261340281846133af565b905092915050565b6000602082840312156134205761341f61318c565b5b600061342e84828501613215565b91505092915050565b61344081613319565b811461344b57600080fd5b50565b60008135905061345d81613437565b92915050565b6000602082840312156134795761347861318c565b5b60006134878482850161344e565b91505092915050565b600080fd5b7f4e487b7100000000000000000000000000000000000000000000000000000000600052604160045260246000fd5b6134cd8261339e565b810181811067ffffffffffffffff821117156134ec576134eb613495565b5b80604052505050565b60006134ff613182565b905061350b82826134c4565b919050565b600067ffffffffffffffff82111561352b5761352a613495565b5b602082029050602081019050919050565b600080fd5b600061355461354f84613510565b6134f5565b905080838252602082019050602084028301858111156135775761357661353c565b5b835b818110156135a0578061358c8882613215565b845260208401935050602081019050613579565b5050509392505050565b600082601f8301126135bf576135be613490565b5b81356135cf848260208601613541565b91505092915050565b600080fd5b600067ffffffffffffffff8211156135f8576135f7613495565b5b6136018261339e565b9050602081019050919050565b82818337600083830152505050565b600061363061362b846135dd565b6134f5565b90508281526020810184848401111561364c5761364b6135d8565b5b61365784828561360e565b509392505050565b600082601f83011261367457613673613490565b5b813561368484826020860161361d565b91505092915050565b600080600080600060a086880312156136a9576136a861318c565b5b60006136b7888289016131df565b95505060206136c8888289016131df565b945050604086013567ffffffffffffffff8111156136e9576136e8613191565b5b6136f5888289016135aa565b935050606086013567ffffffffffffffff81111561371657613715613191565b5b613722888289016135aa565b925050608086013567ffffffffffffffff81111561374357613742613191565b5b61374f8882890161365f565b9150509295509295909350565b600080fd5b60008083601f84011261377757613776613490565b5b8235905067ffffffffffffffff8111156137945761379361375c565b5b6020830191508360208202830111156137b0576137af61353c565b5b9250929050565b600080600080606085870312156137d1576137d061318c565b5b60006137df87828801613215565b945050602085013567ffffffffffffffff811115613800576137ff613191565b5b61380c8782880161365f565b935050604085013567ffffffffffffffff81111561382d5761382c613191565b5b61383987828801613761565b925092505092959194509250565b600060ff82169050919050565b61385d81613847565b811461386857600080fd5b50565b60008135905061387a81613854565b92915050565b6000602082840312156138965761389561318c565b5b60006138a48482850161386b565b91505092915050565b600061ffff82169050919050565b6138c4816138ad565b82525050565b60006020820190506138df60008301846138bb565b92915050565b6138ee81613847565b82525050565b600060208201905061390960008301846138e5565b92915050565b6000819050919050565b6139228161390f565b82525050565b600060208201905061393d6000830184613919565b92915050565b600067ffffffffffffffff82111561395e5761395d613495565b5b602082029050602081019050919050565b600061398261397d84613943565b6134f5565b905080838252602082019050602084028301858111156139a5576139a461353c565b5b835b818110156139ce57806139ba88826131df565b8452602084019350506020810190506139a7565b5050509392505050565b600082601f8301126139ed576139ec613490565b5b81356139fd84826020860161396f565b91505092915050565b60008060408385031215613a1d57613a1c61318c565b5b600083013567ffffffffffffffff811115613a3b57613a3a613191565b5b613a47858286016139d8565b925050602083013567ffffffffffffffff811115613a6857613a67613191565b5b613a74858286016135aa565b9150509250929050565b600081519050919050565b600082825260208201905092915050565b6000819050602082019050919050565b613ab3816131f4565b82525050565b6000613ac58383613aaa565b60208301905092915050565b6000602082019050919050565b6000613ae982613a7e565b613af38185613a89565b9350613afe83613a9a565b8060005b83811015613b2f578151613b168882613ab9565b9750613b2183613ad1565b925050600181019050613b02565b5085935050505092915050565b60006020820190508181036000830152613b568184613ade565b905092915050565b613b67816138ad565b8114613b7257600080fd5b50565b600081359050613b8481613b5e565b92915050565b600080600060608486031215613ba357613ba261318c565b5b6000613bb1868287016131df565b9350506020613bc286828701613b75565b9250506040613bd386828701613b75565b9150509250925092565b600060208284031215613bf357613bf261318c565b5b6000613c01848285016131df565b91505092915050565b60008060408385031215613c2157613c2061318c565b5b6000613c2f85828601613215565b925050602083013567ffffffffffffffff811115613c5057613c4f613191565b5b613c5c8582860161365f565b9150509250929050565b600067ffffffffffffffff821115613c8157613c80613495565b5b613c8a8261339e565b9050602081019050919050565b6000613caa613ca584613c66565b6134f5565b905082815260208101848484011115613cc657613cc56135d8565b5b613cd184828561360e565b509392505050565b600082601f830112613cee57613ced613490565b5b8135613cfe848260208601613c97565b91505092915050565b600060208284031215613d1d57613d1c61318c565b5b600082013567ffffffffffffffff811115613d3b57613d3a613191565b5b613d4784828501613cd9565b91505092915050565b613d59816131b6565b82525050565b6000602082019050613d746000830184613d50565b92915050565b60008060408385031215613d9157613d9061318c565b5b6000613d9f858286016131df565b9250506020613db08582860161344e565b9150509250929050565b600067ffffffffffffffff82169050919050565b613dd781613dba565b8114613de257600080fd5b50565b600081359050613df481613dce565b92915050565b600060208284031215613e1057613e0f61318c565b5b6000613e1e84828501613de5565b91505092915050565b60008060408385031215613e3e57613e3d61318c565b5b6000613e4c858286016131df565b9250506020613e5d858286016131df565b9150509250929050565b600080600080600060a08688031215613e8357613e8261318c565b5b6000613e91888289016131df565b9550506020613ea2888289016131df565b9450506040613eb388828901613215565b9350506060613ec488828901613215565b925050608086013567ffffffffffffffff811115613ee557613ee4613191565b5b613ef18882890161365f565b9150509295509295909350565b7f4e487b7100000000000000000000000000000000000000000000000000000000600052602260045260246000fd5b60006002820490506001821680613f4557607f821691505b602082108103613f5857613f57613efe565b5b50919050565b600081905092915050565b60008190508160005260206000209050919050565b60008154613f8b81613f2d565b613f958186613f5e565b94506001821660008114613fb05760018114613fc157613ff4565b60ff19831686528186019350613ff4565b613fca85613f69565b60005b83811015613fec57815481890152600182019150602081019050613fcd565b838801955050505b50505092915050565b60006140088261334f565b6140128185613f5e565b935061402281856020860161336b565b80840191505092915050565b7f2e6a736f6e000000000000000000000000000000000000000000000000000000600082015250565b6000614064600583613f5e565b915061406f8261402e565b600582019050919050565b60006140868285613f7e565b91506140928284613ffd565b915061409d82614057565b91508190509392505050565b7f45524331313535237361666542617463685472616e7366657246726f6d3a204960008201527f4e56414c49445f4f50455241544f520000000000000000000000000000000000602082015250565b6000614105602f8361335a565b9150614110826140a9565b604082019050919050565b60006020820190508181036000830152614134816140f8565b9050919050565b7f45524331313535237361666542617463685472616e7366657246726f6d3a204960008201527f4e56414c49445f524543495049454e5400000000000000000000000000000000602082015250565b600061419760308361335a565b91506141a28261413b565b604082019050919050565b600060208201905081810360008301526141c68161418a565b9050919050565b7f4d696e74696e6720697320506175736564000000000000000000000000000000600082015250565b600061420360118361335a565b915061420e826141cd565b602082019050919050565b60006020820190508181036000830152614232816141f6565b9050919050565b7f4d696e74696e67206e6f74207965742073746172746564000000000000000000600082015250565b600061426f60178361335a565b915061427a82614239565b602082019050919050565b6000602082019050818103600083015261429e81614262565b9050919050565b7f4d696e74696e6720616c726561647920656e6465640000000000000000000000600082015250565b60006142db60158361335a565b91506142e6826142a5565b602082019050919050565b6000602082019050818103600083015261430a816142ce565b9050919050565b7f4e487b7100000000000000000000000000000000000000000000000000000000600052601160045260246000fd5b600061434b826138ad565b9150614356836138ad565b92508261ffff0382111561436d5761436c614311565b5b828201905092915050565b7f416d6f756e74205072696d61204d617465726961206578636565646564000000600082015250565b60006143ae601d8361335a565b91506143b982614378565b602082019050919050565b600060208201905081810360008301526143dd816143a1565b9050919050565b7f546f6b656e20616c726561647920757365640000000000000000000000000000600082015250565b600061441a60128361335a565b9150614425826143e4565b602082019050919050565b600060208201905081810360008301526144498161440d565b9050919050565b60008151905061445f816131c8565b92915050565b60006020828403121561447b5761447a61318c565b5b600061448984828501614450565b91505092915050565b7f4e6f7420746f6b656e206f776e65720000000000000000000000000000000000600082015250565b60006144c8600f8361335a565b91506144d382614492565b602082019050919050565b600060208201905081810360008301526144f7816144bb565b9050919050565b7f57726f6e67207369676e61747572650000000000000000000000000000000000600082015250565b6000614534600f8361335a565b915061453f826144fe565b602082019050919050565b6000602082019050818103600083015261456381614527565b9050919050565b7f41204d6174657269612073686f756c642062652063726561746564206669727360008201527f7400000000000000000000000000000000000000000000000000000000000000602082015250565b60006145c660218361335a565b91506145d18261456a565b604082019050919050565b600060208201905081810360008301526145f5816145b9565b9050919050565b6000819050919050565b614617614612826131f4565b6145fc565b82525050565b60006146298284614606565b60208201915081905092915050565b7f496e76616c6964206d65726b6c652070726f6f66000000000000000000000000600082015250565b600061466e60148361335a565b915061467982614638565b602082019050919050565b6000602082019050818103600083015261469d81614661565b9050919050565b60006146af82613847565b91506146ba83613847565b92508260ff038211156146d0576146cf614311565b5b828201905092915050565b6146e4816131b6565b82525050565b6146f3816131f4565b82525050565b600060408201905061470e60008301856146db565b61471b60208301846146ea565b9392505050565b61472b8161390f565b811461473657600080fd5b50565b60008151905061474881614722565b92915050565b6000602082840312156147645761476361318c565b5b600061477284828501614739565b91505092915050565b7f455243313135352362616c616e63654f6642617463683a20494e56414c49445f60008201527f41525241595f4c454e4754480000000000000000000000000000000000000000602082015250565b60006147d7602c8361335a565b91506147e28261477b565b604082019050919050565b60006020820190508181036000830152614806816147ca565b9050919050565b7f4e487b7100000000000000000000000000000000000000000000000000000000600052603260045260246000fd5b6000614847826131f4565b91507fffffffffffffffffffffffffffffffffffffffffffffffffffffffffffffffff820361487957614878614311565b5b600182019050919050565b7f446561646c696e65206e6f7420796574206f7665720000000000000000000000600082015250565b60006148ba60158361335a565b91506148c582614884565b602082019050919050565b600060208201905081810360008301526148e9816148ad565b9050919050565b7f416d6f756e74204d617465726961206578636565646564000000000000000000600082015250565b600061492660178361335a565b9150614931826148f0565b602082019050919050565b6000602082019050818103600083015261495581614919565b9050919050565b7f57726f6e67207369676e65720000000000000000000000000000000000000000600082015250565b6000614992600c8361335a565b915061499d8261495c565b602082019050919050565b600060208201905081810360008301526149c181614985565b9050919050565b7f57726f6e6720656e6420646561646c696e650000000000000000000000000000600082015250565b60006149fe60128361335a565b9150614a09826149c8565b602082019050919050565b60006020820190508181036000830152614a2d816149f1565b9050919050565b7f4552433732315472616461626c65237572693a204e4f4e4558495354454e545f60008201527f544f4b454e000000000000000000000000000000000000000000000000000000602082015250565b6000614a9060258361335a565b9150614a9b82614a34565b604082019050919050565b60006020820190508181036000830152614abf81614a83565b9050919050565b6000614ad28285613f7e565b9150614ade8284613ffd565b91508190509392505050565b7f4552433131353523736166655472616e7366657246726f6d3a20494e56414c4960008201527f445f4f50455241544f5200000000000000000000000000000000000000000000602082015250565b6000614b46602a8361335a565b9150614b5182614aea565b604082019050919050565b60006020820190508181036000830152614b7581614b39565b9050919050565b7f4552433131353523736166655472616e7366657246726f6d3a20494e56414c4960008201527f445f524543495049454e54000000000000000000000000000000000000000000602082015250565b6000614bd8602b8361335a565b9150614be382614b7c565b604082019050919050565b60006020820190508181036000830152614c0781614bcb565b9050919050565b7f4f776e61626c653a206e6577206f776e657220697320746865207a65726f206160008201527f6464726573730000000000000000000000000000000000000000000000000000602082015250565b6000614c6a60268361335a565b9150614c7582614c0e565b604082019050919050565b60006020820190508181036000830152614c9981614c5d565b9050919050565b7f4e487b7100000000000000000000000000000000000000000000000000000000600052601260045260246000fd5b6000614cda826131f4565b9150614ce5836131f4565b925082614cf557614cf4614ca0565b5b828204905092915050565b6000614d0b826131f4565b9150614d16836131f4565b925082821015614d2957614d28614311565b5b828203905092915050565b6000614d3f826131f4565b9150614d4a836131f4565b925082614d5a57614d59614ca0565b5b828206905092915050565b6000614d70826131f4565b9150614d7b836131f4565b9250827fffffffffffffffffffffffffffffffffffffffffffffffffffffffffffffffff03821115614db057614daf614311565b5b828201905092915050565b6000614dc6826131f4565b915060008203614dd957614dd8614311565b5b600182039050919050565b7f4f776e61626c653a2063616c6c6572206973206e6f7420746865206f776e6572600082015250565b6000614e1a60208361335a565b9150614e2582614de4565b602082019050919050565b60006020820190508181036000830152614e4981614e0d565b9050919050565b7f45524331313535235f7361666542617463685472616e7366657246726f6d3a2060008201527f494e56414c49445f4152524159535f4c454e4754480000000000000000000000602082015250565b6000614eac60358361335a565b9150614eb782614e50565b604082019050919050565b60006020820190508181036000830152614edb81614e9f565b9050919050565b60006040820190508181036000830152614efc8185613ade565b90508181036020830152614f108184613ade565b90509392505050565b600081519050919050565b600082825260208201905092915050565b6000614f4082614f19565b614f4a8185614f24565b9350614f5a81856020860161336b565b614f638161339e565b840191505092915050565b600060a082019050614f836000830188613d50565b614f906020830187613d50565b8181036040830152614fa28186613ade565b90508181036060830152614fb68185613ade565b90508181036080830152614fca8184614f35565b90509695505050505050565b600081519050614fe5816132c0565b92915050565b6000602082840312156150015761500061318c565b5b600061500f84828501614fd6565b91505092915050565b60008160e01c9050919050565b600060033d11156150445760046000803e615041600051615018565b90505b90565b600060443d106150d457615059613182565b60043d036004823e80513d602482011167ffffffffffffffff821117156150815750506150d4565b808201805167ffffffffffffffff81111561509f57505050506150d4565b80602083010160043d0385018111156150bc5750505050506150d4565b6150cb826020018501866134c4565b82955050505050505b90565b7f455243313135353a207472616e7366657220746f206e6f6e204552433131353560008201527f526563656976657220696d706c656d656e746572000000000000000000000000602082015250565b600061513360348361335a565b915061513e826150d7565b604082019050919050565b6000602082019050818103600083015261516281615126565b9050919050565b7f455243313135353a204552433131353552656365697665722072656a6563746560008201527f6420746f6b656e73000000000000000000000000000000000000000000000000602082015250565b60006151c560288361335a565b91506151d082615169565b604082019050919050565b600060208201905081810360008301526151f4816151b8565b9050919050565b600082825260208201905092915050565b600061521782614f19565b61522181856151fb565b935061523181856020860161336b565b61523a8161339e565b840191505092915050565b600060808201905061525a60008301876146db565b61526760208301866146db565b61527460408301856146ea565b8181036060830152615286818461520c565b905095945050505050565b6000815190506152a081613437565b92915050565b6000602082840312156152bc576152bb61318c565b5b60006152ca84828501615291565b91505092915050565b60006040820190506152e8600083018561326a565b6152f5602083018461326a565b9392505050565b600060a0820190506153116000830188613d50565b61531e6020830187613d50565b61532b604083018661326a565b615338606083018561326a565b818103608083015261534a8184614f35565b90509695505050505050565b600061536182613847565b915060ff820361537457615373614311565b5b600182019050919050565b7f455243313135354d696e744275726e2362617463684d696e743a20494e56414c60008201527f49445f4152524159535f4c454e47544800000000000000000000000000000000602082015250565b60006153db60308361335a565b91506153e68261537f565b604082019050919050565b6000602082019050818103600083015261540a816153ce565b905091905056fea2646970667358221220536cfa1118be3b7b79e198f1f7100db1627ce4eb641eda704ac3429879ffbf2a64736f6c634300080d0033",
  "linkReferences": {
    "contracts/mocks/VerifySignatureMock.sol": {
      "VerifySignatureMock": [
        {
          "length": 20,
          "start": 6211
        },
        {
          "length": 20,
          "start": 11849
        }
      ]
    }
  },
  "deployedLinkReferences": {
    "contracts/mocks/VerifySignatureMock.sol": {
      "VerifySignatureMock": [
        {
          "length": 20,
          "start": 3254
        },
        {
          "length": 20,
          "start": 8892
        }
      ]
    }
  }
}