{
  "_format": "hh-sol-artifact-1",
  "contractName": "MateriaMock",
  "sourceName": "contracts/mocks/MateriaMock.sol",
  "abi": [
    {
      "inputs": [
        {
          "internalType": "string",
          "name": "_name",
          "type": "string"
        },
        {
          "internalType": "string",
          "name": "_symbol",
          "type": "string"
        },
        {
          "internalType": "string",
          "name": "_metadataURI",
          "type": "string"
        },
        {
          "internalType": "uint256",
          "name": "end",
          "type": "uint256"
        },
        {
          "internalType": "address",
          "name": "signer",
          "type": "address"
        },
        {
          "internalType": "address",
          "name": "antonym",
          "type": "address"
        },
        {
          "internalType": "uint256[]",
          "name": "antonym1of1Tokens",
          "type": "uint256[]"
        }
      ],
      "stateMutability": "nonpayable",
      "type": "constructor"
    },
    {
      "anonymous": false,
      "inputs": [
        {
          "indexed": true,
          "internalType": "address",
          "name": "_owner",
          "type": "address"
        },
        {
          "indexed": true,
          "internalType": "address",
          "name": "_operator",
          "type": "address"
        },
        {
          "indexed": false,
          "internalType": "bool",
          "name": "_approved",
          "type": "bool"
        }
      ],
      "name": "ApprovalForAll",
      "type": "event"
    },
    {
      "anonymous": false,
      "inputs": [
        {
          "indexed": true,
          "internalType": "address",
          "name": "previousOwner",
          "type": "address"
        },
        {
          "indexed": true,
          "internalType": "address",
          "name": "newOwner",
          "type": "address"
        }
      ],
      "name": "OwnershipTransferred",
      "type": "event"
    },
    {
      "anonymous": false,
      "inputs": [
        {
          "indexed": true,
          "internalType": "address",
          "name": "_operator",
          "type": "address"
        },
        {
          "indexed": true,
          "internalType": "address",
          "name": "_from",
          "type": "address"
        },
        {
          "indexed": true,
          "internalType": "address",
          "name": "_to",
          "type": "address"
        },
        {
          "indexed": false,
          "internalType": "uint256[]",
          "name": "_ids",
          "type": "uint256[]"
        },
        {
          "indexed": false,
          "internalType": "uint256[]",
          "name": "_amounts",
          "type": "uint256[]"
        }
      ],
      "name": "TransferBatch",
      "type": "event"
    },
    {
      "anonymous": false,
      "inputs": [
        {
          "indexed": true,
          "internalType": "address",
          "name": "_operator",
          "type": "address"
        },
        {
          "indexed": true,
          "internalType": "address",
          "name": "_from",
          "type": "address"
        },
        {
          "indexed": true,
          "internalType": "address",
          "name": "_to",
          "type": "address"
        },
        {
          "indexed": false,
          "internalType": "uint256",
          "name": "_id",
          "type": "uint256"
        },
        {
          "indexed": false,
          "internalType": "uint256",
          "name": "_amount",
          "type": "uint256"
        }
      ],
      "name": "TransferSingle",
      "type": "event"
    },
    {
      "anonymous": false,
      "inputs": [
        {
          "indexed": false,
          "internalType": "string",
          "name": "_uri",
          "type": "string"
        },
        {
          "indexed": true,
          "internalType": "uint256",
          "name": "_id",
          "type": "uint256"
        }
      ],
      "name": "URI",
      "type": "event"
    },
    {
      "inputs": [
        {
          "internalType": "bool",
          "name": "allow",
          "type": "bool"
        }
      ],
      "name": "allowMinting",
      "outputs": [],
      "stateMutability": "nonpayable",
      "type": "function"
    },
    {
      "inputs": [
        {
          "internalType": "address",
          "name": "_owner",
          "type": "address"
        },
        {
          "internalType": "uint256",
          "name": "_id",
          "type": "uint256"
        }
      ],
      "name": "balanceOf",
      "outputs": [
        {
          "internalType": "uint256",
          "name": "",
          "type": "uint256"
        }
      ],
      "stateMutability": "view",
      "type": "function"
    },
    {
      "inputs": [
        {
          "internalType": "address[]",
          "name": "_owners",
          "type": "address[]"
        },
        {
          "internalType": "uint256[]",
          "name": "_ids",
          "type": "uint256[]"
        }
      ],
      "name": "balanceOfBatch",
      "outputs": [
        {
          "internalType": "uint256[]",
          "name": "",
          "type": "uint256[]"
        }
      ],
      "stateMutability": "view",
      "type": "function"
    },
    {
      "inputs": [],
      "name": "getNextTokenID",
      "outputs": [
        {
          "internalType": "uint8",
          "name": "",
          "type": "uint8"
        }
      ],
      "stateMutability": "view",
      "type": "function"
    },
    {
      "inputs": [
        {
          "internalType": "uint256",
          "name": "",
          "type": "uint256"
        }
      ],
      "name": "isAntonymTokenUsed",
      "outputs": [
        {
          "internalType": "uint256",
          "name": "",
          "type": "uint256"
        }
      ],
      "stateMutability": "view",
      "type": "function"
    },
    {
      "inputs": [
        {
          "internalType": "address",
          "name": "_owner",
          "type": "address"
        },
        {
          "internalType": "address",
          "name": "_operator",
          "type": "address"
        }
      ],
      "name": "isApprovedForAll",
      "outputs": [
        {
          "internalType": "bool",
          "name": "isOperator",
          "type": "bool"
        }
      ],
      "stateMutability": "view",
      "type": "function"
    },
    {
      "inputs": [
        {
          "internalType": "address",
          "name": "account",
          "type": "address"
        },
        {
          "internalType": "uint256[]",
          "name": "tokenIds",
          "type": "uint256[]"
        }
      ],
      "name": "messageHash",
      "outputs": [
        {
          "internalType": "bytes32",
          "name": "",
          "type": "bytes32"
        }
      ],
      "stateMutability": "pure",
      "type": "function"
    },
    {
      "inputs": [
        {
          "internalType": "uint256[]",
          "name": "tokenIds",
          "type": "uint256[]"
        },
        {
          "internalType": "bytes",
          "name": "signature",
          "type": "bytes"
        }
      ],
      "name": "mint",
      "outputs": [],
      "stateMutability": "nonpayable",
      "type": "function"
    },
    {
      "inputs": [
        {
          "internalType": "address",
          "name": "to",
          "type": "address"
        },
        {
          "internalType": "uint256",
          "name": "amountMateria",
          "type": "uint256"
        },
        {
          "internalType": "uint256",
          "name": "amountPrimaMateria",
          "type": "uint256"
        }
      ],
      "name": "mintBatchMateria",
      "outputs": [],
      "stateMutability": "nonpayable",
      "type": "function"
    },
    {
      "inputs": [],
      "name": "name",
      "outputs": [
        {
          "internalType": "string",
          "name": "",
          "type": "string"
        }
      ],
      "stateMutability": "view",
      "type": "function"
    },
    {
      "inputs": [],
      "name": "owner",
      "outputs": [
        {
          "internalType": "address",
          "name": "",
          "type": "address"
        }
      ],
      "stateMutability": "view",
      "type": "function"
    },
    {
      "inputs": [],
      "name": "renounceOwnership",
      "outputs": [],
      "stateMutability": "nonpayable",
      "type": "function"
    },
    {
      "inputs": [
        {
          "internalType": "uint256",
          "name": "_tokenId",
          "type": "uint256"
        },
        {
          "internalType": "uint256",
          "name": "_salePrice",
          "type": "uint256"
        }
      ],
      "name": "royaltyInfo",
      "outputs": [
        {
          "internalType": "address",
          "name": "receiver",
          "type": "address"
        },
        {
          "internalType": "uint256",
          "name": "royaltyAmount",
          "type": "uint256"
        }
      ],
      "stateMutability": "view",
      "type": "function"
    },
    {
      "inputs": [
        {
          "internalType": "address",
          "name": "_from",
          "type": "address"
        },
        {
          "internalType": "address",
          "name": "_to",
          "type": "address"
        },
        {
          "internalType": "uint256[]",
          "name": "_ids",
          "type": "uint256[]"
        },
        {
          "internalType": "uint256[]",
          "name": "_amounts",
          "type": "uint256[]"
        },
        {
          "internalType": "bytes",
          "name": "_data",
          "type": "bytes"
        }
      ],
      "name": "safeBatchTransferFrom",
      "outputs": [],
      "stateMutability": "nonpayable",
      "type": "function"
    },
    {
      "inputs": [
        {
          "internalType": "address",
          "name": "_from",
          "type": "address"
        },
        {
          "internalType": "address",
          "name": "_to",
          "type": "address"
        },
        {
          "internalType": "uint256",
          "name": "_id",
          "type": "uint256"
        },
        {
          "internalType": "uint256",
          "name": "_amount",
          "type": "uint256"
        },
        {
          "internalType": "bytes",
          "name": "_data",
          "type": "bytes"
        }
      ],
      "name": "safeTransferFrom",
      "outputs": [],
      "stateMutability": "nonpayable",
      "type": "function"
    },
    {
      "inputs": [
        {
          "internalType": "address",
          "name": "_operator",
          "type": "address"
        },
        {
          "internalType": "bool",
          "name": "_approved",
          "type": "bool"
        }
      ],
      "name": "setApprovalForAll",
      "outputs": [],
      "stateMutability": "nonpayable",
      "type": "function"
    },
    {
      "inputs": [
        {
          "internalType": "string",
          "name": "_newBaseMetadataURI",
          "type": "string"
        }
      ],
      "name": "setBaseMetadataURI",
      "outputs": [],
      "stateMutability": "nonpayable",
      "type": "function"
    },
    {
      "inputs": [
        {
          "internalType": "uint256",
          "name": "end",
          "type": "uint256"
        }
      ],
      "name": "setDeadline",
      "outputs": [],
      "stateMutability": "nonpayable",
      "type": "function"
    },
    {
      "inputs": [
        {
          "internalType": "address",
          "name": "royaltyAddress",
          "type": "address"
        }
      ],
      "name": "setRoyaltyAddress",
      "outputs": [],
      "stateMutability": "nonpayable",
      "type": "function"
    },
    {
      "inputs": [
        {
          "internalType": "uint256",
          "name": "royaltyBasisPoints",
          "type": "uint256"
        }
      ],
      "name": "setRoyaltyRate",
      "outputs": [],
      "stateMutability": "nonpayable",
      "type": "function"
    },
    {
      "inputs": [
        {
          "internalType": "address",
          "name": "signer",
          "type": "address"
        }
      ],
      "name": "setSigner",
      "outputs": [],
      "stateMutability": "nonpayable",
      "type": "function"
    },
    {
      "inputs": [
        {
          "internalType": "bytes4",
          "name": "interfaceId",
          "type": "bytes4"
        }
      ],
      "name": "supportsInterface",
      "outputs": [
        {
          "internalType": "bool",
          "name": "",
          "type": "bool"
        }
      ],
      "stateMutability": "view",
      "type": "function"
    },
    {
      "inputs": [],
      "name": "symbol",
      "outputs": [
        {
          "internalType": "string",
          "name": "",
          "type": "string"
        }
      ],
      "stateMutability": "view",
      "type": "function"
    },
    {
      "inputs": [
        {
          "internalType": "uint256",
          "name": "",
          "type": "uint256"
        }
      ],
      "name": "tokenSupply",
      "outputs": [
        {
          "internalType": "uint256",
          "name": "",
          "type": "uint256"
        }
      ],
      "stateMutability": "view",
      "type": "function"
    },
    {
      "inputs": [
        {
          "internalType": "uint256",
          "name": "tokenId",
          "type": "uint256"
        }
      ],
      "name": "tokenURI",
      "outputs": [
        {
          "internalType": "string",
          "name": "",
          "type": "string"
        }
      ],
      "stateMutability": "view",
      "type": "function"
    },
    {
      "inputs": [
        {
          "internalType": "uint256",
          "name": "_id",
          "type": "uint256"
        }
      ],
      "name": "totalSupply",
      "outputs": [
        {
          "internalType": "uint256",
          "name": "",
          "type": "uint256"
        }
      ],
      "stateMutability": "view",
      "type": "function"
    },
    {
      "inputs": [
        {
          "internalType": "address",
          "name": "newOwner",
          "type": "address"
        }
      ],
      "name": "transferOwnership",
      "outputs": [],
      "stateMutability": "nonpayable",
      "type": "function"
    },
    {
      "inputs": [
        {
          "internalType": "uint256",
          "name": "_id",
          "type": "uint256"
        }
      ],
      "name": "uri",
      "outputs": [
        {
          "internalType": "string",
          "name": "",
          "type": "string"
        }
      ],
      "stateMutability": "view",
      "type": "function"
    }
  ],
  "bytecode": "0x60806040523480156200001157600080fd5b50604051620059cd380380620059cd83398181016040528101906200003791906200076d565b8686866200005a6200004e620002bb60201b60201c565b620002c360201b60201c565b826005908051906020019062000072929190620003a5565b5081600690805190602001906200008b929190620003a5565b506200009d816200038960201b60201c565b505050600073ffffffffffffffffffffffffffffffffffffffff168373ffffffffffffffffffffffffffffffffffffffff160362000112576040517f08c379a00000000000000000000000000000000000000000000000000000000081526004016200010990620008fd565b60405180910390fd5b600073ffffffffffffffffffffffffffffffffffffffff168273ffffffffffffffffffffffffffffffffffffffff160362000184576040517f08c379a00000000000000000000000000000000000000000000000000000000081526004016200017b906200096f565b60405180910390fd5b600f815114620001cb576040517f08c379a0000000000000000000000000000000000000000000000000000000008152600401620001c290620009e1565b60405180910390fd5b8360078190555082600a60006101000a81548173ffffffffffffffffffffffffffffffffffffffff021916908373ffffffffffffffffffffffffffffffffffffffff16021790555081600b60006101000a81548173ffffffffffffffffffffffffffffffffffffffff021916908373ffffffffffffffffffffffffffffffffffffffff16021790555060005b8151811015620002ad576001600c60008484815181106200027d576200027c62000a03565b5b60200260200101518152602001908152602001600020819055508080620002a49062000a61565b91505062000257565b505050505050505062000b12565b600033905090565b6000600360009054906101000a900473ffffffffffffffffffffffffffffffffffffffff16905081600360006101000a81548173ffffffffffffffffffffffffffffffffffffffff021916908373ffffffffffffffffffffffffffffffffffffffff1602179055508173ffffffffffffffffffffffffffffffffffffffff168173ffffffffffffffffffffffffffffffffffffffff167f8be0079c531659141344cd1fd0a4f28419497f9722a3daafe3b4186f6b6457e060405160405180910390a35050565b8060029080519060200190620003a1929190620003a5565b5050565b828054620003b39062000add565b90600052602060002090601f016020900481019282620003d7576000855562000423565b82601f10620003f257805160ff191683800117855562000423565b8280016001018555821562000423579182015b828111156200042257825182559160200191906001019062000405565b5b50905062000432919062000436565b5090565b5b808211156200045157600081600090555060010162000437565b5090565b6000604051905090565b600080fd5b600080fd5b600080fd5b600080fd5b6000601f19601f8301169050919050565b7f4e487b7100000000000000000000000000000000000000000000000000000000600052604160045260246000fd5b620004be8262000473565b810181811067ffffffffffffffff82111715620004e057620004df62000484565b5b80604052505050565b6000620004f562000455565b9050620005038282620004b3565b919050565b600067ffffffffffffffff82111562000526576200052562000484565b5b620005318262000473565b9050602081019050919050565b60005b838110156200055e57808201518184015260208101905062000541565b838111156200056e576000848401525b50505050565b60006200058b620005858462000508565b620004e9565b905082815260208101848484011115620005aa57620005a96200046e565b5b620005b78482856200053e565b509392505050565b600082601f830112620005d757620005d662000469565b5b8151620005e984826020860162000574565b91505092915050565b6000819050919050565b6200060781620005f2565b81146200061357600080fd5b50565b6000815190506200062781620005fc565b92915050565b600073ffffffffffffffffffffffffffffffffffffffff82169050919050565b60006200065a826200062d565b9050919050565b6200066c816200064d565b81146200067857600080fd5b50565b6000815190506200068c8162000661565b92915050565b600067ffffffffffffffff821115620006b057620006af62000484565b5b602082029050602081019050919050565b600080fd5b6000620006dd620006d78462000692565b620004e9565b90508083825260208201905060208402830185811115620007035762000702620006c1565b5b835b818110156200073057806200071b888262000616565b84526020840193505060208101905062000705565b5050509392505050565b600082601f83011262000752576200075162000469565b5b815162000764848260208601620006c6565b91505092915050565b600080600080600080600060e0888a0312156200078f576200078e6200045f565b5b600088015167ffffffffffffffff811115620007b057620007af62000464565b5b620007be8a828b01620005bf565b975050602088015167ffffffffffffffff811115620007e257620007e162000464565b5b620007f08a828b01620005bf565b965050604088015167ffffffffffffffff81111562000814576200081362000464565b5b620008228a828b01620005bf565b9550506060620008358a828b0162000616565b9450506080620008488a828b016200067b565b93505060a06200085b8a828b016200067b565b92505060c088015167ffffffffffffffff8111156200087f576200087e62000464565b5b6200088d8a828b016200073a565b91505092959891949750929550565b600082825260208201905092915050565b7f57726f6e67207369676e65720000000000000000000000000000000000000000600082015250565b6000620008e5600c836200089c565b9150620008f282620008ad565b602082019050919050565b600060208201905081810360008301526200091881620008d6565b9050919050565b7f57726f6e67204e46540000000000000000000000000000000000000000000000600082015250565b6000620009576009836200089c565b915062000964826200091f565b602082019050919050565b600060208201905081810360008301526200098a8162000948565b9050919050565b7f57726f6e672061727261792073697a6500000000000000000000000000000000600082015250565b6000620009c96010836200089c565b9150620009d68262000991565b602082019050919050565b60006020820190508181036000830152620009fc81620009ba565b9050919050565b7f4e487b7100000000000000000000000000000000000000000000000000000000600052603260045260246000fd5b7f4e487b7100000000000000000000000000000000000000000000000000000000600052601160045260246000fd5b600062000a6e82620005f2565b91507fffffffffffffffffffffffffffffffffffffffffffffffffffffffffffffffff820362000aa35762000aa262000a32565b5b600182019050919050565b7f4e487b7100000000000000000000000000000000000000000000000000000000600052602260045260246000fd5b6000600282049050600182168062000af657607f821691505b60208210810362000b0c5762000b0b62000aae565b5b50919050565b614eab8062000b226000396000f3fe608060405234801561001057600080fd5b50600436106101c35760003560e01c80636c19e783116100f9578063bd85b03911610097578063e0a0bffc11610071578063e0a0bffc14610513578063e985e9c514610543578063f242432a14610573578063f2fde38b1461058f576101c3565b8063bd85b03914610483578063c87b56dd146104b3578063d9aceeb7146104e3576101c3565b80638bb2513b116100d35780638bb2513b1461040f5780638da5cb5b1461042b57806395d89b4114610449578063a22cb46514610467576101c3565b80636c19e783146103cd578063715018a6146103e95780637e518ec8146103f3576101c3565b80632a55205a116101665780634a198119116101405780634a198119146103475780634e1273f414610365578063537782a214610395578063697b0ad4146103b1576101c3565b80632a55205a146102de5780632c5a8e861461030f5780632eb2c2d61461032b576101c3565b806306fdde03116101a257806306fdde03146102445780630e89341c14610262578063195199f6146102925780632693ebf2146102ae576101c3565b8062fdd58e146101c857806301ffc9a7146101f857806306d254da14610228575b600080fd5b6101e260048036038101906101dd9190612db4565b6105ab565b6040516101ef9190612e03565b60405180910390f35b610212600480360381019061020d9190612e76565b610605565b60405161021f9190612ebe565b60405180910390f35b610242600480360381019061023d9190612ed9565b61066d565b005b61024c6106b9565b6040516102599190612f9f565b60405180910390f35b61027c60048036038101906102779190612fc1565b610747565b6040516102899190612f9f565b60405180910390f35b6102ac60048036038101906102a79190612fc1565b6107ef565b005b6102c860048036038101906102c39190612fc1565b610843565b6040516102d59190612e03565b60405180910390f35b6102f860048036038101906102f39190612fee565b61085b565b60405161030692919061303d565b60405180910390f35b61032960048036038101906103249190613092565b6108ef565b005b610345600480360381019061034091906132bc565b610914565b005b61034f610a23565b60405161035c91906133a7565b60405180910390f35b61037f600480360381019061037a9190613485565b610a46565b60405161038c91906135bb565b60405180910390f35b6103af60048036038101906103aa9190612fc1565b610ba7565b005b6103cb60048036038101906103c691906135dd565b610bb9565b005b6103e760048036038101906103e29190612ed9565b610e4e565b005b6103f1610f09565b005b61040d600480360381019061040891906136d1565b610f1d565b005b6104296004803603810190610424919061371a565b610f31565b005b6104336113a1565b6040516104409190613792565b60405180910390f35b6104516113cb565b60405161045e9190612f9f565b60405180910390f35b610481600480360381019061047c91906137ad565b611459565b005b61049d60048036038101906104989190612fc1565b611556565b6040516104aa9190612e03565b60405180910390f35b6104cd60048036038101906104c89190612fc1565b611573565b6040516104da9190612f9f565b60405180910390f35b6104fd60048036038101906104f89190612fc1565b611585565b60405161050a9190612e03565b60405180910390f35b61052d600480360381019061052891906137ed565b61159d565b60405161053a9190613862565b60405180910390f35b61055d6004803603810190610558919061387d565b6115b1565b60405161056a9190612ebe565b60405180910390f35b61058d600480360381019061058891906138bd565b611645565b005b6105a960048036038101906105a49190612ed9565b611754565b005b60008060008473ffffffffffffffffffffffffffffffffffffffff1673ffffffffffffffffffffffffffffffffffffffff168152602001908152602001600020600083815260200190815260200160002054905092915050565b6000632a55205a60e01b7bffffffffffffffffffffffffffffffffffffffffffffffffffffffff1916827bffffffffffffffffffffffffffffffffffffffffffffffffffffffff19160361065c5760019050610668565b610665826117d7565b90505b919050565b610675611858565b80600960016101000a81548173ffffffffffffffffffffffffffffffffffffffff021916908373ffffffffffffffffffffffffffffffffffffffff16021790555050565b600580546106c690613983565b80601f01602080910402602001604051908101604052809291908181526020018280546106f290613983565b801561073f5780601f106107145761010080835404028352916020019161073f565b820191906000526020600020905b81548152906001019060200180831161072257829003601f168201915b505050505081565b6060610752826118d6565b610791576040517f08c379a000000000000000000000000000000000000000000000000000000000815260040161078890613a26565b60405180910390fd5b6000600280546107a090613983565b9050116107bc57604051806020016040528060008152506107e8565b60026107c7836118f5565b6040516020016107d8929190613b16565b6040516020818303038152906040525b9050919050565b6107f7611858565b428111610839576040517f08c379a000000000000000000000000000000000000000000000000000000000815260040161083090613b86565b60405180910390fd5b8060078190555050565b60046020528060005260406000206000915090505481565b600080610867846118d6565b6108a6576040517f08c379a000000000000000000000000000000000000000000000000000000000815260040161089d90613bf2565b60405180910390fd5b600960019054906101000a900473ffffffffffffffffffffffffffffffffffffffff16612710600854856108da9190613c41565b6108e49190613cca565b915091509250929050565b6108f7611858565b80600960006101000a81548160ff02191690831515021790555050565b8473ffffffffffffffffffffffffffffffffffffffff163373ffffffffffffffffffffffffffffffffffffffff161480610954575061095385336115b1565b5b610993576040517f08c379a000000000000000000000000000000000000000000000000000000000815260040161098a90613d6d565b60405180910390fd5b600073ffffffffffffffffffffffffffffffffffffffff168473ffffffffffffffffffffffffffffffffffffffff1603610a02576040517f08c379a00000000000000000000000000000000000000000000000000000000081526004016109f990613dff565b60405180910390fd5b610a0e85858585611a55565b610a1c858585855a86611d49565b5050505050565b60006001600360149054906101000a900460ff16610a419190613e1f565b905090565b60608151835114610a8c576040517f08c379a0000000000000000000000000000000000000000000000000000000008152600401610a8390613ec8565b60405180910390fd5b6000835167ffffffffffffffff811115610aa957610aa86130c4565b5b604051908082528060200260200182016040528015610ad75781602001602082028036833780820191505090505b50905060005b8451811015610b9c57600080868381518110610afc57610afb613ee8565b5b602002602001015173ffffffffffffffffffffffffffffffffffffffff1673ffffffffffffffffffffffffffffffffffffffff1681526020019081526020016000206000858381518110610b5357610b52613ee8565b5b6020026020010151815260200190815260200160002054828281518110610b7d57610b7c613ee8565b5b6020026020010181815250508080610b9490613f17565b915050610add565b508091505092915050565b610baf611858565b8060088190555050565b610bc1611858565b600960009054906101000a900460ff16610c10576040517f08c379a0000000000000000000000000000000000000000000000000000000008152600401610c0790613fab565b60405180910390fd5b4260075410610c54576040517f08c379a0000000000000000000000000000000000000000000000000000000008152600401610c4b90614017565b60405180910390fd5b605582600460006001815260200190815260200160002054610c769190614037565b1115610cb7576040517f08c379a0000000000000000000000000000000000000000000000000000000008152600401610cae906140d9565b60405180910390fd5b600f81600460006002815260200190815260200160002054610cd99190614037565b1115610d1a576040517f08c379a0000000000000000000000000000000000000000000000000000000008152600401610d1190614145565b60405180910390fd5b6000600267ffffffffffffffff811115610d3757610d366130c4565b5b604051908082528060200260200182016040528015610d655781602001602082028036833780820191505090505b509050600181600081518110610d7e57610d7d613ee8565b5b602002602001018181525050600281600181518110610da057610d9f613ee8565b5b6020026020010181815250506000600267ffffffffffffffff811115610dc957610dc86130c4565b5b604051908082528060200260200182016040528015610df75781602001602082028036833780820191505090505b5090508381600081518110610e0f57610e0e613ee8565b5b6020026020010181815250508281600181518110610e3057610e2f613ee8565b5b602002602001018181525050610e47858383611f20565b5050505050565b610e56611858565b600073ffffffffffffffffffffffffffffffffffffffff168173ffffffffffffffffffffffffffffffffffffffff1603610ec5576040517f08c379a0000000000000000000000000000000000000000000000000000000008152600401610ebc906141b1565b60405180910390fd5b80600a60006101000a81548173ffffffffffffffffffffffffffffffffffffffff021916908373ffffffffffffffffffffffffffffffffffffffff16021790555050565b610f11611858565b610f1b6000611fd1565b565b610f25611858565b610f2e81612097565b50565b600960009054906101000a900460ff16610f80576040517f08c379a0000000000000000000000000000000000000000000000000000000008152600401610f7790613fab565b60405180910390fd5b4260075411610fc4576040517f08c379a0000000000000000000000000000000000000000000000000000000008152600401610fbb9061421d565b60405180910390fd5b6000610fce6120b1565b9050610fdb8184846120b9565b61101a576040517f08c379a000000000000000000000000000000000000000000000000000000000815260040161101190614289565b60405180910390fd5b60008351905060008111611063576040517f08c379a000000000000000000000000000000000000000000000000000000000815260040161105a906142f5565b60405180910390fd5b60008060005b8381101561125d57600087828151811061108657611085613ee8565b5b602002602001015190506000600d600083815260200190815260200160002054146110e6576040517f08c379a00000000000000000000000000000000000000000000000000000000081526004016110dd90614361565b60405180910390fd5b8573ffffffffffffffffffffffffffffffffffffffff16600b60009054906101000a900473ffffffffffffffffffffffffffffffffffffffff1673ffffffffffffffffffffffffffffffffffffffff16636352211e836040518263ffffffff1660e01b81526004016111589190612e03565b6020604051808303816000875af1158015611177573d6000803e3d6000fd5b505050506040513d601f19601f8201168201806040525081019061119b9190614396565b73ffffffffffffffffffffffffffffffffffffffff16146111f1576040517f08c379a00000000000000000000000000000000000000000000000000000000081526004016111e89061440f565b60405180910390fd5b6001600d6000838152602001908152602001600020819055506001600c60008381526020019081526020016000205403611239576001836112329190614037565b9250611249565b6001846112469190614037565b93505b50808061125590613f17565b915050611069565b5060008211156112d7576055826004600060018152602001908152602001600020546112899190614037565b11156112ca576040517f08c379a00000000000000000000000000000000000000000000000000000000081526004016112c1906140d9565b60405180910390fd5b6112d6846001846120f2565b5b6000811115611399576112ea60016118d6565b611329576040517f08c379a0000000000000000000000000000000000000000000000000000000008152600401611320906144a1565b60405180910390fd5b600f8160046000600281526020019081526020016000205461134b9190614037565b111561138c576040517f08c379a000000000000000000000000000000000000000000000000000000000815260040161138390614145565b60405180910390fd5b611398846002836120f2565b5b505050505050565b6000600360009054906101000a900473ffffffffffffffffffffffffffffffffffffffff16905090565b600680546113d890613983565b80601f016020809104026020016040519081016040528092919081815260200182805461140490613983565b80156114515780601f1061142657610100808354040283529160200191611451565b820191906000526020600020905b81548152906001019060200180831161143457829003601f168201915b505050505081565b80600160003373ffffffffffffffffffffffffffffffffffffffff1673ffffffffffffffffffffffffffffffffffffffff16815260200190815260200160002060008473ffffffffffffffffffffffffffffffffffffffff1673ffffffffffffffffffffffffffffffffffffffff16815260200190815260200160002060006101000a81548160ff0219169083151502179055508173ffffffffffffffffffffffffffffffffffffffff163373ffffffffffffffffffffffffffffffffffffffff167f17307eab39ab6107e8899845ad3d59bd9653f200f220920489ca2b5937696c318360405161154a9190612ebe565b60405180910390a35050565b600060046000838152602001908152602001600020549050919050565b606061157e82610747565b9050919050565b600d6020528060005260406000206000915090505481565b60006115a98383612123565b905092915050565b6000600160008473ffffffffffffffffffffffffffffffffffffffff1673ffffffffffffffffffffffffffffffffffffffff16815260200190815260200160002060008373ffffffffffffffffffffffffffffffffffffffff1673ffffffffffffffffffffffffffffffffffffffff16815260200190815260200160002060009054906101000a900460ff16905092915050565b8473ffffffffffffffffffffffffffffffffffffffff163373ffffffffffffffffffffffffffffffffffffffff161480611685575061168485336115b1565b5b6116c4576040517f08c379a00000000000000000000000000000000000000000000000000000000081526004016116bb90614533565b60405180910390fd5b600073ffffffffffffffffffffffffffffffffffffffff168473ffffffffffffffffffffffffffffffffffffffff1603611733576040517f08c379a000000000000000000000000000000000000000000000000000000000815260040161172a906145c5565b60405180910390fd5b61173f85858585612156565b61174d858585855a86612344565b5050505050565b61175c611858565b600073ffffffffffffffffffffffffffffffffffffffff168173ffffffffffffffffffffffffffffffffffffffff16036117cb576040517f08c379a00000000000000000000000000000000000000000000000000000000081526004016117c290614657565b60405180910390fd5b6117d481611fd1565b50565b60007fd9b67a26000000000000000000000000000000000000000000000000000000007bffffffffffffffffffffffffffffffffffffffffffffffffffffffff1916827bffffffffffffffffffffffffffffffffffffffffffffffffffffffff1916036118475760019050611853565b6118508261251b565b90505b919050565b6118606120b1565b73ffffffffffffffffffffffffffffffffffffffff1661187e6113a1565b73ffffffffffffffffffffffffffffffffffffffff16146118d4576040517f08c379a00000000000000000000000000000000000000000000000000000000081526004016118cb906146c3565b60405180910390fd5b565b6000806004600084815260200190815260200160002054119050919050565b60606000820361193c576040518060400160405280600181526020017f30000000000000000000000000000000000000000000000000000000000000008152509050611a50565b600082905060005b6000821461196e57808061195790613f17565b915050600a826119679190613cca565b9150611944565b60008167ffffffffffffffff81111561198a576119896130c4565b5b6040519080825280601f01601f1916602001820160405280156119bc5781602001600182028036833780820191505090505b5090505b60008514611a49576001826119d591906146e3565b9150600a856119e49190614717565b60306119f09190614037565b60f81b818381518110611a0657611a05613ee8565b5b60200101907effffffffffffffffffffffffffffffffffffffffffffffffffffffffffffff1916908160001a905350600a85611a429190613cca565b94506119c0565b8093505050505b919050565b8051825114611a99576040517f08c379a0000000000000000000000000000000000000000000000000000000008152600401611a90906147ba565b60405180910390fd5b60008251905060005b81811015611cc357611b40838281518110611ac057611abf613ee8565b5b60200260200101516000808973ffffffffffffffffffffffffffffffffffffffff1673ffffffffffffffffffffffffffffffffffffffff1681526020019081526020016000206000878581518110611b1b57611b1a613ee8565b5b602002602001015181526020019081526020016000205461259c90919063ffffffff16565b6000808873ffffffffffffffffffffffffffffffffffffffff1673ffffffffffffffffffffffffffffffffffffffff1681526020019081526020016000206000868481518110611b9357611b92613ee8565b5b6020026020010151815260200190815260200160002081905550611c43838281518110611bc357611bc2613ee8565b5b60200260200101516000808873ffffffffffffffffffffffffffffffffffffffff1673ffffffffffffffffffffffffffffffffffffffff1681526020019081526020016000206000878581518110611c1e57611c1d613ee8565b5b60200260200101518152602001908152602001600020546125b290919063ffffffff16565b6000808773ffffffffffffffffffffffffffffffffffffffff1673ffffffffffffffffffffffffffffffffffffffff1681526020019081526020016000206000868481518110611c9657611c95613ee8565b5b60200260200101518152602001908152602001600020819055508080611cbb90613f17565b915050611aa2565b508373ffffffffffffffffffffffffffffffffffffffff168573ffffffffffffffffffffffffffffffffffffffff163373ffffffffffffffffffffffffffffffffffffffff167f4a39dc06d4c0dbc64b70af90fd698a233a518aa5d07e595d983b8c0526c8f7fb8686604051611d3a9291906147da565b60405180910390a45050505050565b611d688573ffffffffffffffffffffffffffffffffffffffff166125c8565b15611f18578473ffffffffffffffffffffffffffffffffffffffff1663bc197c8133888787866040518663ffffffff1660e01b8152600401611dae959493929190614866565b6020604051808303816000875af1925050508015611dea57506040513d601f19601f82011682018060405250810190611de791906148e3565b60015b611e8f57611df661491d565b806308c379a003611e525750611e0a61493f565b80611e155750611e54565b806040517f08c379a0000000000000000000000000000000000000000000000000000000008152600401611e499190612f9f565b60405180910390fd5b505b6040517f08c379a0000000000000000000000000000000000000000000000000000000008152600401611e8690614a41565b60405180910390fd5b63bc197c8160e01b7bffffffffffffffffffffffffffffffffffffffffffffffffffffffff1916817bffffffffffffffffffffffffffffffffffffffffffffffffffffffff191614611f16576040517f08c379a0000000000000000000000000000000000000000000000000000000008152600401611f0d90614ad3565b60405180910390fd5b505b505050505050565b60005b8251811015611fb0576000838281518110611f4157611f40613ee8565b5b602002602001015190506000838381518110611f6057611f5f613ee8565b5b602002602001015190508061ffff16600460008460ff1681526020019081526020016000206000828254611f949190614037565b9250508190555050508080611fa890613f17565b915050611f23565b50611fcc838383604051806020016040528060008152506125eb565b505050565b6000600360009054906101000a900473ffffffffffffffffffffffffffffffffffffffff16905081600360006101000a81548173ffffffffffffffffffffffffffffffffffffffff021916908373ffffffffffffffffffffffffffffffffffffffff1602179055508173ffffffffffffffffffffffffffffffffffffffff168173ffffffffffffffffffffffffffffffffffffffff167f8be0079c531659141344cd1fd0a4f28419497f9722a3daafe3b4186f6b6457e060405160405180910390a35050565b80600290805190602001906120ad929190612c69565b5050565b600033905090565b60006120e9600a60009054906101000a900473ffffffffffffffffffffffffffffffffffffffff168585856127ec565b90509392505050565b6120fe8260ff166118d6565b6121125761210c838261284c565b5061211e565b61211d8383836128a4565b5b505050565b60008282604051602001612138929190614bcb565b60405160208183030381529060405280519060200120905092915050565b6121b8816000808773ffffffffffffffffffffffffffffffffffffffff1673ffffffffffffffffffffffffffffffffffffffff16815260200190815260200160002060008581526020019081526020016000205461259c90919063ffffffff16565b6000808673ffffffffffffffffffffffffffffffffffffffff1673ffffffffffffffffffffffffffffffffffffffff16815260200190815260200160002060008481526020019081526020016000208190555061226d816000808673ffffffffffffffffffffffffffffffffffffffff1673ffffffffffffffffffffffffffffffffffffffff1681526020019081526020016000206000858152602001908152602001600020546125b290919063ffffffff16565b6000808573ffffffffffffffffffffffffffffffffffffffff1673ffffffffffffffffffffffffffffffffffffffff1681526020019081526020016000206000848152602001908152602001600020819055508273ffffffffffffffffffffffffffffffffffffffff168473ffffffffffffffffffffffffffffffffffffffff163373ffffffffffffffffffffffffffffffffffffffff167fc3d58168c5ae7397731d063d5bbf3d657854427343f4c083240f7aacaa2d0f628585604051612336929190614bf3565b60405180910390a450505050565b6123638573ffffffffffffffffffffffffffffffffffffffff166125c8565b15612513578473ffffffffffffffffffffffffffffffffffffffff1663f23a6e6133888787866040518663ffffffff1660e01b81526004016123a9959493929190614c1c565b6020604051808303816000875af19250505080156123e557506040513d601f19601f820116820180604052508101906123e291906148e3565b60015b61248a576123f161491d565b806308c379a00361244d575061240561493f565b80612410575061244f565b806040517f08c379a00000000000000000000000000000000000000000000000000000000081526004016124449190612f9f565b60405180910390fd5b505b6040517f08c379a000000000000000000000000000000000000000000000000000000000815260040161248190614a41565b60405180910390fd5b63f23a6e6160e01b7bffffffffffffffffffffffffffffffffffffffffffffffffffffffff1916817bffffffffffffffffffffffffffffffffffffffffffffffffffffffff191614612511576040517f08c379a000000000000000000000000000000000000000000000000000000000815260040161250890614ad3565b60405180910390fd5b505b505050505050565b60007f0e89341c000000000000000000000000000000000000000000000000000000007bffffffffffffffffffffffffffffffffffffffffffffffffffffffff1916827bffffffffffffffffffffffffffffffffffffffffffffffffffffffff19160361258b5760019050612597565b612594826128f4565b90505b919050565b600081836125aa91906146e3565b905092915050565b600081836125c09190614037565b905092915050565b6000808273ffffffffffffffffffffffffffffffffffffffff163b119050919050565b815183511461262f576040517f08c379a000000000000000000000000000000000000000000000000000000000815260040161262690614ce8565b60405180910390fd5b60008351905060005b81811015612756576126d684828151811061265657612655613ee8565b5b60200260200101516000808973ffffffffffffffffffffffffffffffffffffffff1673ffffffffffffffffffffffffffffffffffffffff16815260200190815260200160002060008885815181106126b1576126b0613ee8565b5b60200260200101518152602001908152602001600020546125b290919063ffffffff16565b6000808873ffffffffffffffffffffffffffffffffffffffff1673ffffffffffffffffffffffffffffffffffffffff168152602001908152602001600020600087848151811061272957612728613ee8565b5b6020026020010151815260200190815260200160002081905550808061274e90613f17565b915050612638565b508473ffffffffffffffffffffffffffffffffffffffff16600073ffffffffffffffffffffffffffffffffffffffff163373ffffffffffffffffffffffffffffffffffffffff167f4a39dc06d4c0dbc64b70af90fd698a233a518aa5d07e595d983b8c0526c8f7fb87876040516127ce9291906147da565b60405180910390a46127e560008686865a87611d49565b5050505050565b6000806127f98585612123565b9050600061280682612975565b90508673ffffffffffffffffffffffffffffffffffffffff1661282982866129a5565b73ffffffffffffffffffffffffffffffffffffffff161492505050949350505050565b600080612857610a23565b9050612861612a14565b61287f848260ff168560405180602001604052806000815250612a4e565b82600460008360ff168152602001908152602001600020819055508091505092915050565b6128c2838360ff168360405180602001604052806000815250612a4e565b80600460008460ff16815260200190815260200160002060008282546128e89190614037565b92505081905550505050565b60007fd9b67a26000000000000000000000000000000000000000000000000000000007bffffffffffffffffffffffffffffffffffffffffffffffffffffffff1916827bffffffffffffffffffffffffffffffffffffffffffffffffffffffff1916036129645760019050612970565b61296d82612b97565b90505b919050565b6000816040516020016129889190614d75565b604051602081830303815290604052805190602001209050919050565b6000806000806129b485612c01565b925092509250600186828585604051600081526020016040526040516129dd9493929190614d9b565b6020604051602081039080840390855afa1580156129ff573d6000803e3d6000fd5b50505060206040510351935050505092915050565b6003601481819054906101000a900460ff1680929190612a3390614de0565b91906101000a81548160ff021916908360ff16021790555050565b612ab0826000808773ffffffffffffffffffffffffffffffffffffffff1673ffffffffffffffffffffffffffffffffffffffff1681526020019081526020016000206000868152602001908152602001600020546125b290919063ffffffff16565b6000808673ffffffffffffffffffffffffffffffffffffffff1673ffffffffffffffffffffffffffffffffffffffff1681526020019081526020016000206000858152602001908152602001600020819055508373ffffffffffffffffffffffffffffffffffffffff16600073ffffffffffffffffffffffffffffffffffffffff163373ffffffffffffffffffffffffffffffffffffffff167fc3d58168c5ae7397731d063d5bbf3d657854427343f4c083240f7aacaa2d0f628686604051612b7a929190614bf3565b60405180910390a4612b9160008585855a86612344565b50505050565b60007f01ffc9a7000000000000000000000000000000000000000000000000000000007bffffffffffffffffffffffffffffffffffffffffffffffffffffffff1916827bffffffffffffffffffffffffffffffffffffffffffffffffffffffff1916149050919050565b60008060006041845114612c4a576040517f08c379a0000000000000000000000000000000000000000000000000000000008152600401612c4190614e55565b60405180910390fd5b6020840151925060408401519150606084015160001a90509193909250565b828054612c7590613983565b90600052602060002090601f016020900481019282612c975760008555612cde565b82601f10612cb057805160ff1916838001178555612cde565b82800160010185558215612cde579182015b82811115612cdd578251825591602001919060010190612cc2565b5b509050612ceb9190612cef565b5090565b5b80821115612d08576000816000905550600101612cf0565b5090565b6000604051905090565b600080fd5b600080fd5b600073ffffffffffffffffffffffffffffffffffffffff82169050919050565b6000612d4b82612d20565b9050919050565b612d5b81612d40565b8114612d6657600080fd5b50565b600081359050612d7881612d52565b92915050565b6000819050919050565b612d9181612d7e565b8114612d9c57600080fd5b50565b600081359050612dae81612d88565b92915050565b60008060408385031215612dcb57612dca612d16565b5b6000612dd985828601612d69565b9250506020612dea85828601612d9f565b9150509250929050565b612dfd81612d7e565b82525050565b6000602082019050612e186000830184612df4565b92915050565b60007fffffffff0000000000000000000000000000000000000000000000000000000082169050919050565b612e5381612e1e565b8114612e5e57600080fd5b50565b600081359050612e7081612e4a565b92915050565b600060208284031215612e8c57612e8b612d16565b5b6000612e9a84828501612e61565b91505092915050565b60008115159050919050565b612eb881612ea3565b82525050565b6000602082019050612ed36000830184612eaf565b92915050565b600060208284031215612eef57612eee612d16565b5b6000612efd84828501612d69565b91505092915050565b600081519050919050565b600082825260208201905092915050565b60005b83811015612f40578082015181840152602081019050612f25565b83811115612f4f576000848401525b50505050565b6000601f19601f8301169050919050565b6000612f7182612f06565b612f7b8185612f11565b9350612f8b818560208601612f22565b612f9481612f55565b840191505092915050565b60006020820190508181036000830152612fb98184612f66565b905092915050565b600060208284031215612fd757612fd6612d16565b5b6000612fe584828501612d9f565b91505092915050565b6000806040838503121561300557613004612d16565b5b600061301385828601612d9f565b925050602061302485828601612d9f565b9150509250929050565b61303781612d40565b82525050565b6000604082019050613052600083018561302e565b61305f6020830184612df4565b9392505050565b61306f81612ea3565b811461307a57600080fd5b50565b60008135905061308c81613066565b92915050565b6000602082840312156130a8576130a7612d16565b5b60006130b68482850161307d565b91505092915050565b600080fd5b7f4e487b7100000000000000000000000000000000000000000000000000000000600052604160045260246000fd5b6130fc82612f55565b810181811067ffffffffffffffff8211171561311b5761311a6130c4565b5b80604052505050565b600061312e612d0c565b905061313a82826130f3565b919050565b600067ffffffffffffffff82111561315a576131596130c4565b5b602082029050602081019050919050565b600080fd5b600061318361317e8461313f565b613124565b905080838252602082019050602084028301858111156131a6576131a561316b565b5b835b818110156131cf57806131bb8882612d9f565b8452602084019350506020810190506131a8565b5050509392505050565b600082601f8301126131ee576131ed6130bf565b5b81356131fe848260208601613170565b91505092915050565b600080fd5b600067ffffffffffffffff821115613227576132266130c4565b5b61323082612f55565b9050602081019050919050565b82818337600083830152505050565b600061325f61325a8461320c565b613124565b90508281526020810184848401111561327b5761327a613207565b5b61328684828561323d565b509392505050565b600082601f8301126132a3576132a26130bf565b5b81356132b384826020860161324c565b91505092915050565b600080600080600060a086880312156132d8576132d7612d16565b5b60006132e688828901612d69565b95505060206132f788828901612d69565b945050604086013567ffffffffffffffff81111561331857613317612d1b565b5b613324888289016131d9565b935050606086013567ffffffffffffffff81111561334557613344612d1b565b5b613351888289016131d9565b925050608086013567ffffffffffffffff81111561337257613371612d1b565b5b61337e8882890161328e565b9150509295509295909350565b600060ff82169050919050565b6133a18161338b565b82525050565b60006020820190506133bc6000830184613398565b92915050565b600067ffffffffffffffff8211156133dd576133dc6130c4565b5b602082029050602081019050919050565b60006134016133fc846133c2565b613124565b905080838252602082019050602084028301858111156134245761342361316b565b5b835b8181101561344d57806134398882612d69565b845260208401935050602081019050613426565b5050509392505050565b600082601f83011261346c5761346b6130bf565b5b813561347c8482602086016133ee565b91505092915050565b6000806040838503121561349c5761349b612d16565b5b600083013567ffffffffffffffff8111156134ba576134b9612d1b565b5b6134c685828601613457565b925050602083013567ffffffffffffffff8111156134e7576134e6612d1b565b5b6134f3858286016131d9565b9150509250929050565b600081519050919050565b600082825260208201905092915050565b6000819050602082019050919050565b61353281612d7e565b82525050565b60006135448383613529565b60208301905092915050565b6000602082019050919050565b6000613568826134fd565b6135728185613508565b935061357d83613519565b8060005b838110156135ae5781516135958882613538565b97506135a083613550565b925050600181019050613581565b5085935050505092915050565b600060208201905081810360008301526135d5818461355d565b905092915050565b6000806000606084860312156135f6576135f5612d16565b5b600061360486828701612d69565b935050602061361586828701612d9f565b925050604061362686828701612d9f565b9150509250925092565b600067ffffffffffffffff82111561364b5761364a6130c4565b5b61365482612f55565b9050602081019050919050565b600061367461366f84613630565b613124565b9050828152602081018484840111156136905761368f613207565b5b61369b84828561323d565b509392505050565b600082601f8301126136b8576136b76130bf565b5b81356136c8848260208601613661565b91505092915050565b6000602082840312156136e7576136e6612d16565b5b600082013567ffffffffffffffff81111561370557613704612d1b565b5b613711848285016136a3565b91505092915050565b6000806040838503121561373157613730612d16565b5b600083013567ffffffffffffffff81111561374f5761374e612d1b565b5b61375b858286016131d9565b925050602083013567ffffffffffffffff81111561377c5761377b612d1b565b5b6137888582860161328e565b9150509250929050565b60006020820190506137a7600083018461302e565b92915050565b600080604083850312156137c4576137c3612d16565b5b60006137d285828601612d69565b92505060206137e38582860161307d565b9150509250929050565b6000806040838503121561380457613803612d16565b5b600061381285828601612d69565b925050602083013567ffffffffffffffff81111561383357613832612d1b565b5b61383f858286016131d9565b9150509250929050565b6000819050919050565b61385c81613849565b82525050565b60006020820190506138776000830184613853565b92915050565b6000806040838503121561389457613893612d16565b5b60006138a285828601612d69565b92505060206138b385828601612d69565b9150509250929050565b600080600080600060a086880312156138d9576138d8612d16565b5b60006138e788828901612d69565b95505060206138f888828901612d69565b945050604061390988828901612d9f565b935050606061391a88828901612d9f565b925050608086013567ffffffffffffffff81111561393b5761393a612d1b565b5b6139478882890161328e565b9150509295509295909350565b7f4e487b7100000000000000000000000000000000000000000000000000000000600052602260045260246000fd5b6000600282049050600182168061399b57607f821691505b6020821081036139ae576139ad613954565b5b50919050565b7f45524331313535547261646561626c65237572693a204e4f4e4558495354454e60008201527f545f544f4b454e00000000000000000000000000000000000000000000000000602082015250565b6000613a10602783612f11565b9150613a1b826139b4565b604082019050919050565b60006020820190508181036000830152613a3f81613a03565b9050919050565b600081905092915050565b60008190508160005260206000209050919050565b60008154613a7381613983565b613a7d8186613a46565b94506001821660008114613a985760018114613aa957613adc565b60ff19831686528186019350613adc565b613ab285613a51565b60005b83811015613ad457815481890152600182019150602081019050613ab5565b838801955050505b50505092915050565b6000613af082612f06565b613afa8185613a46565b9350613b0a818560208601612f22565b80840191505092915050565b6000613b228285613a66565b9150613b2e8284613ae5565b91508190509392505050565b7f57726f6e6720656e6420646561646c696e650000000000000000000000000000600082015250565b6000613b70601283612f11565b9150613b7b82613b3a565b602082019050919050565b60006020820190508181036000830152613b9f81613b63565b9050919050565b7f494e56414c49445f544f4b454e49440000000000000000000000000000000000600082015250565b6000613bdc600f83612f11565b9150613be782613ba6565b602082019050919050565b60006020820190508181036000830152613c0b81613bcf565b9050919050565b7f4e487b7100000000000000000000000000000000000000000000000000000000600052601160045260246000fd5b6000613c4c82612d7e565b9150613c5783612d7e565b9250817fffffffffffffffffffffffffffffffffffffffffffffffffffffffffffffffff0483118215151615613c9057613c8f613c12565b5b828202905092915050565b7f4e487b7100000000000000000000000000000000000000000000000000000000600052601260045260246000fd5b6000613cd582612d7e565b9150613ce083612d7e565b925082613cf057613cef613c9b565b5b828204905092915050565b7f45524331313535237361666542617463685472616e7366657246726f6d3a204960008201527f4e56414c49445f4f50455241544f520000000000000000000000000000000000602082015250565b6000613d57602f83612f11565b9150613d6282613cfb565b604082019050919050565b60006020820190508181036000830152613d8681613d4a565b9050919050565b7f45524331313535237361666542617463685472616e7366657246726f6d3a204960008201527f4e56414c49445f524543495049454e5400000000000000000000000000000000602082015250565b6000613de9603083612f11565b9150613df482613d8d565b604082019050919050565b60006020820190508181036000830152613e1881613ddc565b9050919050565b6000613e2a8261338b565b9150613e358361338b565b92508260ff03821115613e4b57613e4a613c12565b5b828201905092915050565b7f455243313135352362616c616e63654f6642617463683a20494e56414c49445f60008201527f41525241595f4c454e4754480000000000000000000000000000000000000000602082015250565b6000613eb2602c83612f11565b9150613ebd82613e56565b604082019050919050565b60006020820190508181036000830152613ee181613ea5565b9050919050565b7f4e487b7100000000000000000000000000000000000000000000000000000000600052603260045260246000fd5b6000613f2282612d7e565b91507fffffffffffffffffffffffffffffffffffffffffffffffffffffffffffffffff8203613f5457613f53613c12565b5b600182019050919050565b7f4d696e74696e6720697320506175736564000000000000000000000000000000600082015250565b6000613f95601183612f11565b9150613fa082613f5f565b602082019050919050565b60006020820190508181036000830152613fc481613f88565b9050919050565b7f446561646c696e65206e6f7420796574206f7665720000000000000000000000600082015250565b6000614001601583612f11565b915061400c82613fcb565b602082019050919050565b6000602082019050818103600083015261403081613ff4565b9050919050565b600061404282612d7e565b915061404d83612d7e565b9250827fffffffffffffffffffffffffffffffffffffffffffffffffffffffffffffffff0382111561408257614081613c12565b5b828201905092915050565b7f416d6f756e74204d617465726961206578636565646564000000000000000000600082015250565b60006140c3601783612f11565b91506140ce8261408d565b602082019050919050565b600060208201905081810360008301526140f2816140b6565b9050919050565b7f416d6f756e74205072696d61204d617465726961206578636565646564000000600082015250565b600061412f601d83612f11565b915061413a826140f9565b602082019050919050565b6000602082019050818103600083015261415e81614122565b9050919050565b7f57726f6e67207369676e65720000000000000000000000000000000000000000600082015250565b600061419b600c83612f11565b91506141a682614165565b602082019050919050565b600060208201905081810360008301526141ca8161418e565b9050919050565b7f4d696e74696e6720616c726561647920656e6465640000000000000000000000600082015250565b6000614207601583612f11565b9150614212826141d1565b602082019050919050565b60006020820190508181036000830152614236816141fa565b9050919050565b7f57726f6e67204d617465726961205369676e6174757265000000000000000000600082015250565b6000614273601783612f11565b915061427e8261423d565b602082019050919050565b600060208201905081810360008301526142a281614266565b9050919050565b7f4e6f20746f6b656e732073706563696669656400000000000000000000000000600082015250565b60006142df601383612f11565b91506142ea826142a9565b602082019050919050565b6000602082019050818103600083015261430e816142d2565b9050919050565b7f546f6b656e20616c726561647920757365640000000000000000000000000000600082015250565b600061434b601283612f11565b915061435682614315565b602082019050919050565b6000602082019050818103600083015261437a8161433e565b9050919050565b60008151905061439081612d52565b92915050565b6000602082840312156143ac576143ab612d16565b5b60006143ba84828501614381565b91505092915050565b7f4e6f7420746f6b656e206f776e65720000000000000000000000000000000000600082015250565b60006143f9600f83612f11565b9150614404826143c3565b602082019050919050565b60006020820190508181036000830152614428816143ec565b9050919050565b7f41204d6174657269612073686f756c642062652063726561746564206669727360008201527f7400000000000000000000000000000000000000000000000000000000000000602082015250565b600061448b602183612f11565b91506144968261442f565b604082019050919050565b600060208201905081810360008301526144ba8161447e565b9050919050565b7f4552433131353523736166655472616e7366657246726f6d3a20494e56414c4960008201527f445f4f50455241544f5200000000000000000000000000000000000000000000602082015250565b600061451d602a83612f11565b9150614528826144c1565b604082019050919050565b6000602082019050818103600083015261454c81614510565b9050919050565b7f4552433131353523736166655472616e7366657246726f6d3a20494e56414c4960008201527f445f524543495049454e54000000000000000000000000000000000000000000602082015250565b60006145af602b83612f11565b91506145ba82614553565b604082019050919050565b600060208201905081810360008301526145de816145a2565b9050919050565b7f4f776e61626c653a206e6577206f776e657220697320746865207a65726f206160008201527f6464726573730000000000000000000000000000000000000000000000000000602082015250565b6000614641602683612f11565b915061464c826145e5565b604082019050919050565b6000602082019050818103600083015261467081614634565b9050919050565b7f4f776e61626c653a2063616c6c6572206973206e6f7420746865206f776e6572600082015250565b60006146ad602083612f11565b91506146b882614677565b602082019050919050565b600060208201905081810360008301526146dc816146a0565b9050919050565b60006146ee82612d7e565b91506146f983612d7e565b92508282101561470c5761470b613c12565b5b828203905092915050565b600061472282612d7e565b915061472d83612d7e565b92508261473d5761473c613c9b565b5b828206905092915050565b7f45524331313535235f7361666542617463685472616e7366657246726f6d3a2060008201527f494e56414c49445f4152524159535f4c454e4754480000000000000000000000602082015250565b60006147a4603583612f11565b91506147af82614748565b604082019050919050565b600060208201905081810360008301526147d381614797565b9050919050565b600060408201905081810360008301526147f4818561355d565b90508181036020830152614808818461355d565b90509392505050565b600081519050919050565b600082825260208201905092915050565b600061483882614811565b614842818561481c565b9350614852818560208601612f22565b61485b81612f55565b840191505092915050565b600060a08201905061487b600083018861302e565b614888602083018761302e565b818103604083015261489a818661355d565b905081810360608301526148ae818561355d565b905081810360808301526148c2818461482d565b90509695505050505050565b6000815190506148dd81612e4a565b92915050565b6000602082840312156148f9576148f8612d16565b5b6000614907848285016148ce565b91505092915050565b60008160e01c9050919050565b600060033d111561493c5760046000803e614939600051614910565b90505b90565b600060443d106149cc57614951612d0c565b60043d036004823e80513d602482011167ffffffffffffffff821117156149795750506149cc565b808201805167ffffffffffffffff81111561499757505050506149cc565b80602083010160043d0385018111156149b45750505050506149cc565b6149c3826020018501866130f3565b82955050505050505b90565b7f455243313135353a207472616e7366657220746f206e6f6e204552433131353560008201527f526563656976657220696d706c656d656e746572000000000000000000000000602082015250565b6000614a2b603483612f11565b9150614a36826149cf565b604082019050919050565b60006020820190508181036000830152614a5a81614a1e565b9050919050565b7f455243313135353a204552433131353552656365697665722072656a6563746560008201527f6420746f6b656e73000000000000000000000000000000000000000000000000602082015250565b6000614abd602883612f11565b9150614ac882614a61565b604082019050919050565b60006020820190508181036000830152614aec81614ab0565b9050919050565b60008160601b9050919050565b6000614b0b82614af3565b9050919050565b6000614b1d82614b00565b9050919050565b614b35614b3082612d40565b614b12565b82525050565b600081905092915050565b614b4f81612d7e565b82525050565b6000614b618383614b46565b60208301905092915050565b6000614b78826134fd565b614b828185614b3b565b9350614b8d83613519565b8060005b83811015614bbe578151614ba58882614b55565b9750614bb083613550565b925050600181019050614b91565b5085935050505092915050565b6000614bd78285614b24565b601482019150614be78284614b6d565b91508190509392505050565b6000604082019050614c086000830185612df4565b614c156020830184612df4565b9392505050565b600060a082019050614c31600083018861302e565b614c3e602083018761302e565b614c4b6040830186612df4565b614c586060830185612df4565b8181036080830152614c6a818461482d565b90509695505050505050565b7f455243313135354d696e744275726e2362617463684d696e743a20494e56414c60008201527f49445f4152524159535f4c454e47544800000000000000000000000000000000602082015250565b6000614cd2603083612f11565b9150614cdd82614c76565b604082019050919050565b60006020820190508181036000830152614d0181614cc5565b9050919050565b7f19457468657265756d205369676e6564204d6573736167653a0a333200000000600082015250565b6000614d3e601c83613a46565b9150614d4982614d08565b601c82019050919050565b6000819050919050565b614d6f614d6a82613849565b614d54565b82525050565b6000614d8082614d31565b9150614d8c8284614d5e565b60208201915081905092915050565b6000608082019050614db06000830187613853565b614dbd6020830186613398565b614dca6040830185613853565b614dd76060830184613853565b95945050505050565b6000614deb8261338b565b915060ff8203614dfe57614dfd613c12565b5b600182019050919050565b7f696e76616c6964207369676e6174757265206c656e6774680000000000000000600082015250565b6000614e3f601883612f11565b9150614e4a82614e09565b602082019050919050565b60006020820190508181036000830152614e6e81614e32565b905091905056fea264697066735822122037abe85cdc7f0a3677329a8533702c825614f4a8fd79c8fd3bdc7b049551371e64736f6c634300080d0033",
  "linkReferences": {},
  "deployedLinkReferences": {}
}