{
  "_format": "hh-sol-artifact-1",
  "contractName": "MateriaMock",
  "sourceName": "contracts/mocks/MateriaMock.sol",
  "abi": [
    {
      "inputs": [
        {
          "internalType": "string",
          "name": "_name",
          "type": "string"
        },
        {
          "internalType": "string",
          "name": "_symbol",
          "type": "string"
        },
        {
          "internalType": "string",
          "name": "_metadataURI",
          "type": "string"
        },
        {
          "internalType": "uint64",
          "name": "start",
          "type": "uint64"
        },
        {
          "internalType": "uint64",
          "name": "end",
          "type": "uint64"
        },
        {
          "internalType": "bytes32",
          "name": "merkleRoot",
          "type": "bytes32"
        },
        {
          "internalType": "address",
          "name": "signer",
          "type": "address"
        },
        {
          "internalType": "address",
          "name": "antonym",
          "type": "address"
        }
      ],
      "stateMutability": "nonpayable",
      "type": "constructor"
    },
    {
      "anonymous": false,
      "inputs": [
        {
          "indexed": true,
          "internalType": "address",
          "name": "_owner",
          "type": "address"
        },
        {
          "indexed": true,
          "internalType": "address",
          "name": "_operator",
          "type": "address"
        },
        {
          "indexed": false,
          "internalType": "bool",
          "name": "_approved",
          "type": "bool"
        }
      ],
      "name": "ApprovalForAll",
      "type": "event"
    },
    {
      "anonymous": false,
      "inputs": [
        {
          "indexed": true,
          "internalType": "address",
          "name": "previousOwner",
          "type": "address"
        },
        {
          "indexed": true,
          "internalType": "address",
          "name": "newOwner",
          "type": "address"
        }
      ],
      "name": "OwnershipTransferred",
      "type": "event"
    },
    {
      "anonymous": false,
      "inputs": [
        {
          "indexed": true,
          "internalType": "address",
          "name": "_operator",
          "type": "address"
        },
        {
          "indexed": true,
          "internalType": "address",
          "name": "_from",
          "type": "address"
        },
        {
          "indexed": true,
          "internalType": "address",
          "name": "_to",
          "type": "address"
        },
        {
          "indexed": false,
          "internalType": "uint256[]",
          "name": "_ids",
          "type": "uint256[]"
        },
        {
          "indexed": false,
          "internalType": "uint256[]",
          "name": "_amounts",
          "type": "uint256[]"
        }
      ],
      "name": "TransferBatch",
      "type": "event"
    },
    {
      "anonymous": false,
      "inputs": [
        {
          "indexed": true,
          "internalType": "address",
          "name": "_operator",
          "type": "address"
        },
        {
          "indexed": true,
          "internalType": "address",
          "name": "_from",
          "type": "address"
        },
        {
          "indexed": true,
          "internalType": "address",
          "name": "_to",
          "type": "address"
        },
        {
          "indexed": false,
          "internalType": "uint256",
          "name": "_id",
          "type": "uint256"
        },
        {
          "indexed": false,
          "internalType": "uint256",
          "name": "_amount",
          "type": "uint256"
        }
      ],
      "name": "TransferSingle",
      "type": "event"
    },
    {
      "anonymous": false,
      "inputs": [
        {
          "indexed": false,
          "internalType": "string",
          "name": "_uri",
          "type": "string"
        },
        {
          "indexed": true,
          "internalType": "uint256",
          "name": "_id",
          "type": "uint256"
        }
      ],
      "name": "URI",
      "type": "event"
    },
    {
      "inputs": [
        {
          "internalType": "bool",
          "name": "allow",
          "type": "bool"
        }
      ],
      "name": "allowMinting",
      "outputs": [],
      "stateMutability": "nonpayable",
      "type": "function"
    },
    {
      "inputs": [
        {
          "internalType": "address",
          "name": "_owner",
          "type": "address"
        },
        {
          "internalType": "uint256",
          "name": "_id",
          "type": "uint256"
        }
      ],
      "name": "balanceOf",
      "outputs": [
        {
          "internalType": "uint256",
          "name": "",
          "type": "uint256"
        }
      ],
      "stateMutability": "view",
      "type": "function"
    },
    {
      "inputs": [
        {
          "internalType": "address[]",
          "name": "_owners",
          "type": "address[]"
        },
        {
          "internalType": "uint256[]",
          "name": "_ids",
          "type": "uint256[]"
        }
      ],
      "name": "balanceOfBatch",
      "outputs": [
        {
          "internalType": "uint256[]",
          "name": "",
          "type": "uint256[]"
        }
      ],
      "stateMutability": "view",
      "type": "function"
    },
    {
      "inputs": [],
      "name": "getNextTokenID",
      "outputs": [
        {
          "internalType": "uint8",
          "name": "",
          "type": "uint8"
        }
      ],
      "stateMutability": "view",
      "type": "function"
    },
    {
      "inputs": [
        {
          "internalType": "address",
          "name": "_owner",
          "type": "address"
        },
        {
          "internalType": "address",
          "name": "_operator",
          "type": "address"
        }
      ],
      "name": "isApprovedForAll",
      "outputs": [
        {
          "internalType": "bool",
          "name": "isOperator",
          "type": "bool"
        }
      ],
      "stateMutability": "view",
      "type": "function"
    },
    {
      "inputs": [
        {
          "internalType": "address",
          "name": "account",
          "type": "address"
        },
        {
          "internalType": "uint256",
          "name": "tokenId",
          "type": "uint256"
        }
      ],
      "name": "messageHash",
      "outputs": [
        {
          "internalType": "bytes32",
          "name": "",
          "type": "bytes32"
        }
      ],
      "stateMutability": "pure",
      "type": "function"
    },
    {
      "inputs": [
        {
          "internalType": "address",
          "name": "to",
          "type": "address"
        },
        {
          "internalType": "uint256",
          "name": "amountMateria",
          "type": "uint256"
        },
        {
          "internalType": "uint256",
          "name": "amountPrimaMateria",
          "type": "uint256"
        }
      ],
      "name": "mintBatchMateria",
      "outputs": [],
      "stateMutability": "nonpayable",
      "type": "function"
    },
    {
      "inputs": [
        {
          "internalType": "uint256",
          "name": "antonymTokenId",
          "type": "uint256"
        },
        {
          "internalType": "bytes",
          "name": "signature",
          "type": "bytes"
        }
      ],
      "name": "mintMateria",
      "outputs": [],
      "stateMutability": "nonpayable",
      "type": "function"
    },
    {
      "inputs": [
        {
          "internalType": "uint256",
          "name": "antonymTokenId",
          "type": "uint256"
        },
        {
          "internalType": "bytes",
          "name": "signature",
          "type": "bytes"
        },
        {
          "internalType": "bytes32[]",
          "name": "proof",
          "type": "bytes32[]"
        }
      ],
      "name": "mintPrimaMateria",
      "outputs": [],
      "stateMutability": "nonpayable",
      "type": "function"
    },
    {
      "inputs": [],
      "name": "name",
      "outputs": [
        {
          "internalType": "string",
          "name": "",
          "type": "string"
        }
      ],
      "stateMutability": "view",
      "type": "function"
    },
    {
      "inputs": [],
      "name": "owner",
      "outputs": [
        {
          "internalType": "address",
          "name": "",
          "type": "address"
        }
      ],
      "stateMutability": "view",
      "type": "function"
    },
    {
      "inputs": [],
      "name": "renounceOwnership",
      "outputs": [],
      "stateMutability": "nonpayable",
      "type": "function"
    },
    {
      "inputs": [
        {
          "internalType": "address",
          "name": "_from",
          "type": "address"
        },
        {
          "internalType": "address",
          "name": "_to",
          "type": "address"
        },
        {
          "internalType": "uint256[]",
          "name": "_ids",
          "type": "uint256[]"
        },
        {
          "internalType": "uint256[]",
          "name": "_amounts",
          "type": "uint256[]"
        },
        {
          "internalType": "bytes",
          "name": "_data",
          "type": "bytes"
        }
      ],
      "name": "safeBatchTransferFrom",
      "outputs": [],
      "stateMutability": "nonpayable",
      "type": "function"
    },
    {
      "inputs": [
        {
          "internalType": "address",
          "name": "_from",
          "type": "address"
        },
        {
          "internalType": "address",
          "name": "_to",
          "type": "address"
        },
        {
          "internalType": "uint256",
          "name": "_id",
          "type": "uint256"
        },
        {
          "internalType": "uint256",
          "name": "_amount",
          "type": "uint256"
        },
        {
          "internalType": "bytes",
          "name": "_data",
          "type": "bytes"
        }
      ],
      "name": "safeTransferFrom",
      "outputs": [],
      "stateMutability": "nonpayable",
      "type": "function"
    },
    {
      "inputs": [
        {
          "internalType": "address",
          "name": "_operator",
          "type": "address"
        },
        {
          "internalType": "bool",
          "name": "_approved",
          "type": "bool"
        }
      ],
      "name": "setApprovalForAll",
      "outputs": [],
      "stateMutability": "nonpayable",
      "type": "function"
    },
    {
      "inputs": [
        {
          "internalType": "string",
          "name": "_newBaseMetadataURI",
          "type": "string"
        }
      ],
      "name": "setBaseMetadataURI",
      "outputs": [],
      "stateMutability": "nonpayable",
      "type": "function"
    },
    {
      "inputs": [
        {
          "internalType": "uint64",
          "name": "end",
          "type": "uint64"
        }
      ],
      "name": "setDeadline",
      "outputs": [],
      "stateMutability": "nonpayable",
      "type": "function"
    },
    {
      "inputs": [
        {
          "internalType": "address",
          "name": "signer",
          "type": "address"
        }
      ],
      "name": "setSigner",
      "outputs": [],
      "stateMutability": "nonpayable",
      "type": "function"
    },
    {
      "inputs": [
        {
          "internalType": "bytes4",
          "name": "_interfaceID",
          "type": "bytes4"
        }
      ],
      "name": "supportsInterface",
      "outputs": [
        {
          "internalType": "bool",
          "name": "",
          "type": "bool"
        }
      ],
      "stateMutability": "view",
      "type": "function"
    },
    {
      "inputs": [],
      "name": "symbol",
      "outputs": [
        {
          "internalType": "string",
          "name": "",
          "type": "string"
        }
      ],
      "stateMutability": "view",
      "type": "function"
    },
    {
      "inputs": [
        {
          "internalType": "uint8",
          "name": "",
          "type": "uint8"
        }
      ],
      "name": "tokenSupply",
      "outputs": [
        {
          "internalType": "uint16",
          "name": "",
          "type": "uint16"
        }
      ],
      "stateMutability": "view",
      "type": "function"
    },
    {
      "inputs": [
        {
          "internalType": "uint8",
          "name": "_id",
          "type": "uint8"
        }
      ],
      "name": "totalSupply",
      "outputs": [
        {
          "internalType": "uint16",
          "name": "",
          "type": "uint16"
        }
      ],
      "stateMutability": "view",
      "type": "function"
    },
    {
      "inputs": [
        {
          "internalType": "address",
          "name": "newOwner",
          "type": "address"
        }
      ],
      "name": "transferOwnership",
      "outputs": [],
      "stateMutability": "nonpayable",
      "type": "function"
    },
    {
      "inputs": [
        {
          "internalType": "uint256",
          "name": "_id",
          "type": "uint256"
        }
      ],
      "name": "uri",
      "outputs": [
        {
          "internalType": "string",
          "name": "",
          "type": "string"
        }
      ],
      "stateMutability": "view",
      "type": "function"
    },
    {
      "inputs": [
        {
          "internalType": "uint8",
          "name": "_id",
          "type": "uint8"
        }
      ],
      "name": "uri",
      "outputs": [
        {
          "internalType": "string",
          "name": "",
          "type": "string"
        }
      ],
      "stateMutability": "view",
      "type": "function"
    }
  ],
  "bytecode": "0x60806040526001600760106101000a81548160ff0219169083151502179055503480156200002c57600080fd5b5060405162005f3e38038062005f3e833981810160405281019062000052919062000792565b87878762000075620000696200037660201b60201c565b6200037e60201b60201c565b82600590805190602001906200008d92919062000460565b508160069080519060200190620000a692919062000460565b50620000b8816200044460201b60201c565b505050428567ffffffffffffffff16116200010a576040517f08c379a0000000000000000000000000000000000000000000000000000000008152600401620001019062000919565b60405180910390fd5b8467ffffffffffffffff168467ffffffffffffffff161162000163576040517f08c379a00000000000000000000000000000000000000000000000000000000081526004016200015a906200098b565b60405180910390fd5b600073ffffffffffffffffffffffffffffffffffffffff168273ffffffffffffffffffffffffffffffffffffffff1603620001d5576040517f08c379a0000000000000000000000000000000000000000000000000000000008152600401620001cc90620009fd565b60405180910390fd5b600083036200021b576040517f08c379a0000000000000000000000000000000000000000000000000000000008152600401620002129062000a6f565b60405180910390fd5b600073ffffffffffffffffffffffffffffffffffffffff168173ffffffffffffffffffffffffffffffffffffffff16036200028d576040517f08c379a0000000000000000000000000000000000000000000000000000000008152600401620002849062000ae1565b60405180910390fd5b84600760006101000a81548167ffffffffffffffff021916908367ffffffffffffffff16021790555083600760086101000a81548167ffffffffffffffff021916908367ffffffffffffffff16021790555081600860006101000a81548173ffffffffffffffffffffffffffffffffffffffff021916908373ffffffffffffffffffffffffffffffffffffffff16021790555082600a8190555080600960006101000a81548173ffffffffffffffffffffffffffffffffffffffff021916908373ffffffffffffffffffffffffffffffffffffffff160217905550505050505050505062000b67565b600033905090565b6000600360009054906101000a900473ffffffffffffffffffffffffffffffffffffffff16905081600360006101000a81548173ffffffffffffffffffffffffffffffffffffffff021916908373ffffffffffffffffffffffffffffffffffffffff1602179055508173ffffffffffffffffffffffffffffffffffffffff168173ffffffffffffffffffffffffffffffffffffffff167f8be0079c531659141344cd1fd0a4f28419497f9722a3daafe3b4186f6b6457e060405160405180910390a35050565b80600290805190602001906200045c92919062000460565b5050565b8280546200046e9062000b32565b90600052602060002090601f016020900481019282620004925760008555620004de565b82601f10620004ad57805160ff1916838001178555620004de565b82800160010185558215620004de579182015b82811115620004dd578251825591602001919060010190620004c0565b5b509050620004ed9190620004f1565b5090565b5b808211156200050c576000816000905550600101620004f2565b5090565b6000604051905090565b600080fd5b600080fd5b600080fd5b600080fd5b6000601f19601f8301169050919050565b7f4e487b7100000000000000000000000000000000000000000000000000000000600052604160045260246000fd5b62000579826200052e565b810181811067ffffffffffffffff821117156200059b576200059a6200053f565b5b80604052505050565b6000620005b062000510565b9050620005be82826200056e565b919050565b600067ffffffffffffffff821115620005e157620005e06200053f565b5b620005ec826200052e565b9050602081019050919050565b60005b8381101562000619578082015181840152602081019050620005fc565b8381111562000629576000848401525b50505050565b6000620006466200064084620005c3565b620005a4565b90508281526020810184848401111562000665576200066462000529565b5b62000672848285620005f9565b509392505050565b600082601f83011262000692576200069162000524565b5b8151620006a48482602086016200062f565b91505092915050565b600067ffffffffffffffff82169050919050565b620006cc81620006ad565b8114620006d857600080fd5b50565b600081519050620006ec81620006c1565b92915050565b6000819050919050565b6200070781620006f2565b81146200071357600080fd5b50565b6000815190506200072781620006fc565b92915050565b600073ffffffffffffffffffffffffffffffffffffffff82169050919050565b60006200075a826200072d565b9050919050565b6200076c816200074d565b81146200077857600080fd5b50565b6000815190506200078c8162000761565b92915050565b600080600080600080600080610100898b031215620007b657620007b56200051a565b5b600089015167ffffffffffffffff811115620007d757620007d66200051f565b5b620007e58b828c016200067a565b985050602089015167ffffffffffffffff8111156200080957620008086200051f565b5b620008178b828c016200067a565b975050604089015167ffffffffffffffff8111156200083b576200083a6200051f565b5b620008498b828c016200067a565b96505060606200085c8b828c01620006db565b95505060806200086f8b828c01620006db565b94505060a0620008828b828c0162000716565b93505060c0620008958b828c016200077b565b92505060e0620008a88b828c016200077b565b9150509295985092959890939650565b600082825260208201905092915050565b7f53746172742063616e6e6f7420626520696e2074686520706173740000000000600082015250565b600062000901601b83620008b8565b91506200090e82620008c9565b602082019050919050565b600060208201905081810360008301526200093481620008f2565b9050919050565b7f57726f6e6720656e6420646561646c696e650000000000000000000000000000600082015250565b600062000973601283620008b8565b915062000980826200093b565b602082019050919050565b60006020820190508181036000830152620009a68162000964565b9050919050565b7f57726f6e67207369676e65720000000000000000000000000000000000000000600082015250565b6000620009e5600c83620008b8565b9150620009f282620009ad565b602082019050919050565b6000602082019050818103600083015262000a1881620009d6565b9050919050565b7f57726f6e67204d65726b6c65526f6f7400000000000000000000000000000000600082015250565b600062000a57601083620008b8565b915062000a648262000a1f565b602082019050919050565b6000602082019050818103600083015262000a8a8162000a48565b9050919050565b7f57726f6e67204e46540000000000000000000000000000000000000000000000600082015250565b600062000ac9600983620008b8565b915062000ad68262000a91565b602082019050919050565b6000602082019050818103600083015262000afc8162000aba565b9050919050565b7f4e487b7100000000000000000000000000000000000000000000000000000000600052602260045260246000fd5b6000600282049050600182168062000b4b57607f821691505b60208210810362000b615762000b6062000b03565b5b50919050565b6153c78062000b776000396000f3fe608060405234801561001057600080fd5b50600436106101725760003560e01c80636c19e783116100de578063a22cb46511610097578063e985e9c511610071578063e985e9c514610445578063f242432a14610475578063f2fde38b14610491578063f7ade491146104ad57610172565b8063a22cb465146103dd578063aebc0483146103f9578063e11208d61461041557610172565b80636c19e78314610343578063715018a61461035f57806379e91fa8146103695780637e518ec8146103855780638da5cb5b146103a157806395d89b41146103bf57610172565b80633e0981d7116101305780633e0981d71461025d578063496d9f44146102795780634a198119146102a95780634bc85491146102c75780634e1273f4146102f7578063697b0ad41461032757610172565b8062fdd58e1461017757806301ffc9a7146101a757806306fdde03146101d75780630e89341c146101f55780632c5a8e86146102255780632eb2c2d614610241575b600080fd5b610191600480360381019061018c91906131d6565b6104dd565b60405161019e9190613225565b60405180910390f35b6101c160048036038101906101bc9190613298565b610537565b6040516101ce91906132e0565b60405180910390f35b6101df6105b8565b6040516101ec9190613394565b60405180910390f35b61020f600480360381019061020a91906133b6565b610646565b60405161021c9190613394565b60405180910390f35b61023f600480360381019061023a919061340f565b61067a565b005b61025b60048036038101906102569190613639565b61069f565b005b61027760048036038101906102729190613763565b6107ae565b005b610293600480360381019061028e919061382c565b610c3c565b6040516102a09190613876565b60405180910390f35b6102b1610c6d565b6040516102be91906138a0565b60405180910390f35b6102e160048036038101906102dc91906131d6565b610c90565b6040516102ee91906138d4565b60405180910390f35b610311600480360381019061030c91906139b2565b610d14565b60405161031e9190613ae8565b60405180910390f35b610341600480360381019061033c9190613b0a565b610e75565b005b61035d60048036038101906103589190613b5d565b611152565b005b61036761120d565b005b610383600480360381019061037e9190613b8a565b611221565b005b61039f600480360381019061039a9190613c87565b6115ad565b005b6103a96115c1565b6040516103b69190613cdf565b60405180910390f35b6103c76115eb565b6040516103d49190613394565b60405180910390f35b6103f760048036038101906103f29190613cfa565b611679565b005b610413600480360381019061040e9190613d7a565b611776565b005b61042f600480360381019061042a919061382c565b61182b565b60405161043c9190613394565b60405180910390f35b61045f600480360381019061045a9190613da7565b6118d6565b60405161046c91906132e0565b60405180910390f35b61048f600480360381019061048a9190613de7565b61196a565b005b6104ab60048036038101906104a69190613b5d565b611a79565b005b6104c760048036038101906104c2919061382c565b611afc565b6040516104d49190613876565b60405180910390f35b60008060008473ffffffffffffffffffffffffffffffffffffffff1673ffffffffffffffffffffffffffffffffffffffff168152602001908152602001600020600083815260200190815260200160002054905092915050565b60007fd9b67a26000000000000000000000000000000000000000000000000000000007bffffffffffffffffffffffffffffffffffffffffffffffffffffffff1916827bffffffffffffffffffffffffffffffffffffffffffffffffffffffff1916036105a757600190506105b3565b6105b082611b1d565b90505b919050565b600580546105c590613ead565b80601f01602080910402602001604051908101604052809291908181526020018280546105f190613ead565b801561063e5780601f106106135761010080835404028352916020019161063e565b820191906000526020600020905b81548152906001019060200180831161062157829003601f168201915b505050505081565b6060600261065383611b9e565b604051602001610664929190613ffa565b6040516020818303038152906040529050919050565b610682611d13565b80600760106101000a81548160ff02191690831515021790555050565b8473ffffffffffffffffffffffffffffffffffffffff163373ffffffffffffffffffffffffffffffffffffffff1614806106df57506106de85336118d6565b5b61071e576040517f08c379a00000000000000000000000000000000000000000000000000000000081526004016107159061409b565b60405180910390fd5b600073ffffffffffffffffffffffffffffffffffffffff168473ffffffffffffffffffffffffffffffffffffffff160361078d576040517f08c379a00000000000000000000000000000000000000000000000000000000081526004016107849061412d565b60405180910390fd5b61079985858585611d91565b6107a7858585855a86612085565b5050505050565b600760109054906101000a900460ff166107fd576040517f08c379a00000000000000000000000000000000000000000000000000000000081526004016107f490614199565b60405180910390fd5b42600760009054906101000a900467ffffffffffffffff1667ffffffffffffffff161115610860576040517f08c379a000000000000000000000000000000000000000000000000000000000815260040161085790614205565b60405180910390fd5b42600760089054906101000a900467ffffffffffffffff1667ffffffffffffffff16116108c2576040517f08c379a00000000000000000000000000000000000000000000000000000000081526004016108b990614271565b60405180910390fd5b6005600160046000600260ff16815260200190815260200160002060009054906101000a900461ffff166108f691906142c0565b61ffff16111561093b576040517f08c379a000000000000000000000000000000000000000000000000000000000815260040161093290614344565b60405180910390fd5b6000600c60008681526020019081526020016000205414610991576040517f08c379a0000000000000000000000000000000000000000000000000000000008152600401610988906143b0565b60405180910390fd5b600061099b61225c565b90508073ffffffffffffffffffffffffffffffffffffffff16600960009054906101000a900473ffffffffffffffffffffffffffffffffffffffff1673ffffffffffffffffffffffffffffffffffffffff16636352211e876040518263ffffffff1660e01b8152600401610a0f9190613225565b602060405180830381865afa158015610a2c573d6000803e3d6000fd5b505050506040513d601f19601f82011682018060405250810190610a5091906143e5565b73ffffffffffffffffffffffffffffffffffffffff1614610aa6576040517f08c379a0000000000000000000000000000000000000000000000000000000008152600401610a9d9061445e565b60405180910390fd5b610ab1818686612264565b610af0576040517f08c379a0000000000000000000000000000000000000000000000000000000008152600401610ae7906144ca565b60405180910390fd5b610afa600161230f565b610b39576040517f08c379a0000000000000000000000000000000000000000000000000000000008152600401610b309061455c565b60405180910390fd5b600085604051602001610b4c919061459d565b604051602081830303815290604052805190602001209050610baf81858580806020026020016040519081016040528093929190818152602001838360200280828437600081840152601f19601f82011690508083019250505050505050612346565b610bee576040517f08c379a0000000000000000000000000000000000000000000000000000000008152600401610be590614604565b60405180910390fd5b6001600c600088815260200190815260200160002081905550610c11600261230f565b610c2657610c2082600161235d565b50610c34565b610c3382600260016123d2565b5b505050505050565b6000600460008360ff1660ff16815260200190815260200160002060009054906101000a900461ffff169050919050565b60006001600360149054906101000a900460ff16610c8b9190614624565b905090565b600073__$5f0992d95fe464c261089015ed9f461e6e$__63512c91df84846040518363ffffffff1660e01b8152600401610ccb929190614679565b602060405180830381865af4158015610ce8573d6000803e3d6000fd5b505050506040513d601f19601f82011682018060405250810190610d0c91906146ce565b905092915050565b60608151835114610d5a576040517f08c379a0000000000000000000000000000000000000000000000000000000008152600401610d519061476d565b60405180910390fd5b6000835167ffffffffffffffff811115610d7757610d76613441565b5b604051908082528060200260200182016040528015610da55781602001602082028036833780820191505090505b50905060005b8451811015610e6a57600080868381518110610dca57610dc961478d565b5b602002602001015173ffffffffffffffffffffffffffffffffffffffff1673ffffffffffffffffffffffffffffffffffffffff1681526020019081526020016000206000858381518110610e2157610e2061478d565b5b6020026020010151815260200190815260200160002054828281518110610e4b57610e4a61478d565b5b6020026020010181815250508080610e62906147bc565b915050610dab565b508091505092915050565b610e7d611d13565b600760109054906101000a900460ff16610ecc576040517f08c379a0000000000000000000000000000000000000000000000000000000008152600401610ec390614199565b60405180910390fd5b42600760089054906101000a900467ffffffffffffffff1667ffffffffffffffff1610610f2e576040517f08c379a0000000000000000000000000000000000000000000000000000000008152600401610f2590614850565b60405180910390fd5b60648260046000600160ff16815260200190815260200160002060009054906101000a900461ffff1661ffff16610f659190614870565b1115610fa6576040517f08c379a0000000000000000000000000000000000000000000000000000000008152600401610f9d90614912565b60405180910390fd5b60058160046000600260ff16815260200190815260200160002060009054906101000a900461ffff1661ffff16610fdd9190614870565b111561101e576040517f08c379a000000000000000000000000000000000000000000000000000000000815260040161101590614344565b60405180910390fd5b6000600267ffffffffffffffff81111561103b5761103a613441565b5b6040519080825280602002602001820160405280156110695781602001602082028036833780820191505090505b5090506001816000815181106110825761108161478d565b5b6020026020010181815250506002816001815181106110a4576110a361478d565b5b6020026020010181815250506000600267ffffffffffffffff8111156110cd576110cc613441565b5b6040519080825280602002602001820160405280156110fb5781602001602082028036833780820191505090505b50905083816000815181106111135761111261478d565b5b60200260200101818152505082816001815181106111345761113361478d565b5b60200260200101818152505061114b858383612449565b5050505050565b61115a611d13565b600073ffffffffffffffffffffffffffffffffffffffff168173ffffffffffffffffffffffffffffffffffffffff16036111c9576040517f08c379a00000000000000000000000000000000000000000000000000000000081526004016111c09061497e565b60405180910390fd5b80600860006101000a81548173ffffffffffffffffffffffffffffffffffffffff021916908373ffffffffffffffffffffffffffffffffffffffff16021790555050565b611215611d13565b61121f6000612519565b565b600760109054906101000a900460ff16611270576040517f08c379a000000000000000000000000000000000000000000000000000000000815260040161126790614199565b60405180910390fd5b42600760009054906101000a900467ffffffffffffffff1667ffffffffffffffff1611156112d3576040517f08c379a00000000000000000000000000000000000000000000000000000000081526004016112ca90614205565b60405180910390fd5b42600760089054906101000a900467ffffffffffffffff1667ffffffffffffffff1611611335576040517f08c379a000000000000000000000000000000000000000000000000000000000815260040161132c90614271565b60405180910390fd5b6064600160046000600160ff16815260200190815260200160002060009054906101000a900461ffff1661136991906142c0565b61ffff1611156113ae576040517f08c379a00000000000000000000000000000000000000000000000000000000081526004016113a590614912565b60405180910390fd5b6000600b60008481526020019081526020016000205414611404576040517f08c379a00000000000000000000000000000000000000000000000000000000081526004016113fb906143b0565b60405180910390fd5b600061140e61225c565b90508073ffffffffffffffffffffffffffffffffffffffff16600960009054906101000a900473ffffffffffffffffffffffffffffffffffffffff1673ffffffffffffffffffffffffffffffffffffffff16636352211e856040518263ffffffff1660e01b81526004016114829190613225565b602060405180830381865afa15801561149f573d6000803e3d6000fd5b505050506040513d601f19601f820116820180604052508101906114c391906143e5565b73ffffffffffffffffffffffffffffffffffffffff1614611519576040517f08c379a00000000000000000000000000000000000000000000000000000000081526004016115109061445e565b60405180910390fd5b611524818484612264565b611563576040517f08c379a000000000000000000000000000000000000000000000000000000000815260040161155a906144ca565b60405180910390fd5b6001600b600085815260200190815260200160002081905550611586600161230f565b61159b5761159581600161235d565b506115a8565b6115a7816001806123d2565b5b505050565b6115b5611d13565b6115be816125df565b50565b6000600360009054906101000a900473ffffffffffffffffffffffffffffffffffffffff16905090565b600680546115f890613ead565b80601f016020809104026020016040519081016040528092919081815260200182805461162490613ead565b80156116715780601f1061164657610100808354040283529160200191611671565b820191906000526020600020905b81548152906001019060200180831161165457829003601f168201915b505050505081565b80600160003373ffffffffffffffffffffffffffffffffffffffff1673ffffffffffffffffffffffffffffffffffffffff16815260200190815260200160002060008473ffffffffffffffffffffffffffffffffffffffff1673ffffffffffffffffffffffffffffffffffffffff16815260200190815260200160002060006101000a81548160ff0219169083151502179055508173ffffffffffffffffffffffffffffffffffffffff163373ffffffffffffffffffffffffffffffffffffffff167f17307eab39ab6107e8899845ad3d59bd9653f200f220920489ca2b5937696c318360405161176a91906132e0565b60405180910390a35050565b61177e611d13565b600760009054906101000a900467ffffffffffffffff1667ffffffffffffffff168167ffffffffffffffff161180156117c05750428167ffffffffffffffff16115b6117ff576040517f08c379a00000000000000000000000000000000000000000000000000000000081526004016117f6906149ea565b60405180910390fd5b80600760086101000a81548167ffffffffffffffff021916908367ffffffffffffffff16021790555050565b60606118368261230f565b611875576040517f08c379a000000000000000000000000000000000000000000000000000000000815260040161186c90614a7c565b60405180910390fd5b60006002805461188490613ead565b9050116118a057604051806020016040528060008152506118cf565b60026118ae8360ff166125f9565b6040516020016118bf929190614a9c565b6040516020818303038152906040525b9050919050565b6000600160008473ffffffffffffffffffffffffffffffffffffffff1673ffffffffffffffffffffffffffffffffffffffff16815260200190815260200160002060008373ffffffffffffffffffffffffffffffffffffffff1673ffffffffffffffffffffffffffffffffffffffff16815260200190815260200160002060009054906101000a900460ff16905092915050565b8473ffffffffffffffffffffffffffffffffffffffff163373ffffffffffffffffffffffffffffffffffffffff1614806119aa57506119a985336118d6565b5b6119e9576040517f08c379a00000000000000000000000000000000000000000000000000000000081526004016119e090614b32565b60405180910390fd5b600073ffffffffffffffffffffffffffffffffffffffff168473ffffffffffffffffffffffffffffffffffffffff1603611a58576040517f08c379a0000000000000000000000000000000000000000000000000000000008152600401611a4f90614bc4565b60405180910390fd5b611a6485858585612759565b611a72858585855a86612947565b5050505050565b611a81611d13565b600073ffffffffffffffffffffffffffffffffffffffff168173ffffffffffffffffffffffffffffffffffffffff1603611af0576040517f08c379a0000000000000000000000000000000000000000000000000000000008152600401611ae790614c56565b60405180910390fd5b611af981612519565b50565b60046020528060005260406000206000915054906101000a900461ffff1681565b60007f0e89341c000000000000000000000000000000000000000000000000000000007bffffffffffffffffffffffffffffffffffffffffffffffffffffffff1916827bffffffffffffffffffffffffffffffffffffffffffffffffffffffff191603611b8d5760019050611b99565b611b9682612b1e565b90505b919050565b606060008203611be5576040518060400160405280600181526020017f30000000000000000000000000000000000000000000000000000000000000008152509050611d0e565b6000829050600083905060005b60008314611c1c578080611c05906147bc565b915050600a83611c159190614ca5565b9250611bf2565b60008167ffffffffffffffff811115611c3857611c37613441565b5b6040519080825280601f01601f191660200182016040528015611c6a5781602001600182028036833780820191505090505b5090506000600183611c7c9190614cd6565b90505b60008414611d0557600a84611c949190614d0a565b6030611ca09190614870565b60f81b828280611caf90614d3b565b935081518110611cc257611cc161478d565b5b60200101907effffffffffffffffffffffffffffffffffffffffffffffffffffffffffffff1916908160001a905350600a84611cfe9190614ca5565b9350611c7f565b81955050505050505b919050565b611d1b61225c565b73ffffffffffffffffffffffffffffffffffffffff16611d396115c1565b73ffffffffffffffffffffffffffffffffffffffff1614611d8f576040517f08c379a0000000000000000000000000000000000000000000000000000000008152600401611d8690614db0565b60405180910390fd5b565b8051825114611dd5576040517f08c379a0000000000000000000000000000000000000000000000000000000008152600401611dcc90614e42565b60405180910390fd5b60008251905060005b81811015611fff57611e7c838281518110611dfc57611dfb61478d565b5b60200260200101516000808973ffffffffffffffffffffffffffffffffffffffff1673ffffffffffffffffffffffffffffffffffffffff1681526020019081526020016000206000878581518110611e5757611e5661478d565b5b6020026020010151815260200190815260200160002054612b9f90919063ffffffff16565b6000808873ffffffffffffffffffffffffffffffffffffffff1673ffffffffffffffffffffffffffffffffffffffff1681526020019081526020016000206000868481518110611ecf57611ece61478d565b5b6020026020010151815260200190815260200160002081905550611f7f838281518110611eff57611efe61478d565b5b60200260200101516000808873ffffffffffffffffffffffffffffffffffffffff1673ffffffffffffffffffffffffffffffffffffffff1681526020019081526020016000206000878581518110611f5a57611f5961478d565b5b6020026020010151815260200190815260200160002054612bb590919063ffffffff16565b6000808773ffffffffffffffffffffffffffffffffffffffff1673ffffffffffffffffffffffffffffffffffffffff1681526020019081526020016000206000868481518110611fd257611fd161478d565b5b60200260200101518152602001908152602001600020819055508080611ff7906147bc565b915050611dde565b508373ffffffffffffffffffffffffffffffffffffffff168573ffffffffffffffffffffffffffffffffffffffff163373ffffffffffffffffffffffffffffffffffffffff167f4a39dc06d4c0dbc64b70af90fd698a233a518aa5d07e595d983b8c0526c8f7fb8686604051612076929190614e62565b60405180910390a45050505050565b6120a48573ffffffffffffffffffffffffffffffffffffffff16612bcb565b15612254578473ffffffffffffffffffffffffffffffffffffffff1663bc197c8133888787866040518663ffffffff1660e01b81526004016120ea959493929190614eee565b6020604051808303816000875af192505050801561212657506040513d601f19601f820116820180604052508101906121239190614f6b565b60015b6121cb57612132614fa5565b806308c379a00361218e5750612146614fc7565b806121515750612190565b806040517f08c379a00000000000000000000000000000000000000000000000000000000081526004016121859190613394565b60405180910390fd5b505b6040517f08c379a00000000000000000000000000000000000000000000000000000000081526004016121c2906150c9565b60405180910390fd5b63bc197c8160e01b7bffffffffffffffffffffffffffffffffffffffffffffffffffffffff1916817bffffffffffffffffffffffffffffffffffffffffffffffffffffffff191614612252576040517f08c379a00000000000000000000000000000000000000000000000000000000081526004016122499061515b565b60405180910390fd5b505b505050505050565b600033905090565b600073__$5f0992d95fe464c261089015ed9f461e6e$__6393e9f8fc600860009054906101000a900473ffffffffffffffffffffffffffffffffffffffff168686866040518563ffffffff1660e01b81526004016122c594939291906151c5565b602060405180830381865af41580156122e2573d6000803e3d6000fd5b505050506040513d601f19601f820116820180604052508101906123069190615226565b90509392505050565b600080600460008460ff1660ff16815260200190815260200160002060009054906101000a900461ffff1661ffff16119050919050565b600061235582600a5485612bee565b905092915050565b600080612368610c6d565b9050612372612c05565b612394848260ff168561ffff1660405180602001604052806000815250612c3f565b82600460008360ff1660ff16815260200190815260200160002060006101000a81548161ffff021916908361ffff1602179055508091505092915050565b6123f4838360ff168361ffff1660405180602001604052806000815250612c3f565b80600460008460ff1660ff16815260200190815260200160002060008282829054906101000a900461ffff1661242a91906142c0565b92506101000a81548161ffff021916908361ffff160217905550505050565b60005b82518110156124f857600083828151811061246a5761246961478d565b5b6020026020010151905060008383815181106124895761248861478d565b5b6020026020010151905080600460008460ff1660ff16815260200190815260200160002060008282829054906101000a900461ffff166124c991906142c0565b92506101000a81548161ffff021916908361ffff160217905550505080806124f0906147bc565b91505061244c565b5061251483838360405180602001604052806000815250612d88565b505050565b6000600360009054906101000a900473ffffffffffffffffffffffffffffffffffffffff16905081600360006101000a81548173ffffffffffffffffffffffffffffffffffffffff021916908373ffffffffffffffffffffffffffffffffffffffff1602179055508173ffffffffffffffffffffffffffffffffffffffff168173ffffffffffffffffffffffffffffffffffffffff167f8be0079c531659141344cd1fd0a4f28419497f9722a3daafe3b4186f6b6457e060405160405180910390a35050565b80600290805190602001906125f592919061308b565b5050565b606060008203612640576040518060400160405280600181526020017f30000000000000000000000000000000000000000000000000000000000000008152509050612754565b600082905060005b6000821461267257808061265b906147bc565b915050600a8261266b9190614ca5565b9150612648565b60008167ffffffffffffffff81111561268e5761268d613441565b5b6040519080825280601f01601f1916602001820160405280156126c05781602001600182028036833780820191505090505b5090505b6000851461274d576001826126d99190614cd6565b9150600a856126e89190614d0a565b60306126f49190614870565b60f81b81838151811061270a5761270961478d565b5b60200101907effffffffffffffffffffffffffffffffffffffffffffffffffffffffffffff1916908160001a905350600a856127469190614ca5565b94506126c4565b8093505050505b919050565b6127bb816000808773ffffffffffffffffffffffffffffffffffffffff1673ffffffffffffffffffffffffffffffffffffffff168152602001908152602001600020600085815260200190815260200160002054612b9f90919063ffffffff16565b6000808673ffffffffffffffffffffffffffffffffffffffff1673ffffffffffffffffffffffffffffffffffffffff168152602001908152602001600020600084815260200190815260200160002081905550612870816000808673ffffffffffffffffffffffffffffffffffffffff1673ffffffffffffffffffffffffffffffffffffffff168152602001908152602001600020600085815260200190815260200160002054612bb590919063ffffffff16565b6000808573ffffffffffffffffffffffffffffffffffffffff1673ffffffffffffffffffffffffffffffffffffffff1681526020019081526020016000206000848152602001908152602001600020819055508273ffffffffffffffffffffffffffffffffffffffff168473ffffffffffffffffffffffffffffffffffffffff163373ffffffffffffffffffffffffffffffffffffffff167fc3d58168c5ae7397731d063d5bbf3d657854427343f4c083240f7aacaa2d0f628585604051612939929190615253565b60405180910390a450505050565b6129668573ffffffffffffffffffffffffffffffffffffffff16612bcb565b15612b16578473ffffffffffffffffffffffffffffffffffffffff1663f23a6e6133888787866040518663ffffffff1660e01b81526004016129ac95949392919061527c565b6020604051808303816000875af19250505080156129e857506040513d601f19601f820116820180604052508101906129e59190614f6b565b60015b612a8d576129f4614fa5565b806308c379a003612a505750612a08614fc7565b80612a135750612a52565b806040517f08c379a0000000000000000000000000000000000000000000000000000000008152600401612a479190613394565b60405180910390fd5b505b6040517f08c379a0000000000000000000000000000000000000000000000000000000008152600401612a84906150c9565b60405180910390fd5b63f23a6e6160e01b7bffffffffffffffffffffffffffffffffffffffffffffffffffffffff1916817bffffffffffffffffffffffffffffffffffffffffffffffffffffffff191614612b14576040517f08c379a0000000000000000000000000000000000000000000000000000000008152600401612b0b9061515b565b60405180910390fd5b505b505050505050565b60007fd9b67a26000000000000000000000000000000000000000000000000000000007bffffffffffffffffffffffffffffffffffffffffffffffffffffffff1916827bffffffffffffffffffffffffffffffffffffffffffffffffffffffff191603612b8e5760019050612b9a565b612b9782612f89565b90505b919050565b60008183612bad9190614cd6565b905092915050565b60008183612bc39190614870565b905092915050565b6000808273ffffffffffffffffffffffffffffffffffffffff163b119050919050565b600082612bfb8584612ff3565b1490509392505050565b6003601481819054906101000a900460ff1680929190612c24906152d6565b91906101000a81548160ff021916908360ff16021790555050565b612ca1826000808773ffffffffffffffffffffffffffffffffffffffff1673ffffffffffffffffffffffffffffffffffffffff168152602001908152602001600020600086815260200190815260200160002054612bb590919063ffffffff16565b6000808673ffffffffffffffffffffffffffffffffffffffff1673ffffffffffffffffffffffffffffffffffffffff1681526020019081526020016000206000858152602001908152602001600020819055508373ffffffffffffffffffffffffffffffffffffffff16600073ffffffffffffffffffffffffffffffffffffffff163373ffffffffffffffffffffffffffffffffffffffff167fc3d58168c5ae7397731d063d5bbf3d657854427343f4c083240f7aacaa2d0f628686604051612d6b929190615253565b60405180910390a4612d8260008585855a86612947565b50505050565b8151835114612dcc576040517f08c379a0000000000000000000000000000000000000000000000000000000008152600401612dc390615371565b60405180910390fd5b60008351905060005b81811015612ef357612e73848281518110612df357612df261478d565b5b60200260200101516000808973ffffffffffffffffffffffffffffffffffffffff1673ffffffffffffffffffffffffffffffffffffffff1681526020019081526020016000206000888581518110612e4e57612e4d61478d565b5b6020026020010151815260200190815260200160002054612bb590919063ffffffff16565b6000808873ffffffffffffffffffffffffffffffffffffffff1673ffffffffffffffffffffffffffffffffffffffff1681526020019081526020016000206000878481518110612ec657612ec561478d565b5b60200260200101518152602001908152602001600020819055508080612eeb906147bc565b915050612dd5565b508473ffffffffffffffffffffffffffffffffffffffff16600073ffffffffffffffffffffffffffffffffffffffff163373ffffffffffffffffffffffffffffffffffffffff167f4a39dc06d4c0dbc64b70af90fd698a233a518aa5d07e595d983b8c0526c8f7fb8787604051612f6b929190614e62565b60405180910390a4612f8260008686865a87612085565b5050505050565b60007f01ffc9a7000000000000000000000000000000000000000000000000000000007bffffffffffffffffffffffffffffffffffffffffffffffffffffffff1916827bffffffffffffffffffffffffffffffffffffffffffffffffffffffff1916149050919050565b60008082905060005b845181101561303e576130298286838151811061301c5761301b61478d565b5b6020026020010151613049565b91508080613036906147bc565b915050612ffc565b508091505092915050565b60008183106130615761305c8284613074565b61306c565b61306b8383613074565b5b905092915050565b600082600052816020526040600020905092915050565b82805461309790613ead565b90600052602060002090601f0160209004810192826130b95760008555613100565b82601f106130d257805160ff1916838001178555613100565b82800160010185558215613100579182015b828111156130ff5782518255916020019190600101906130e4565b5b50905061310d9190613111565b5090565b5b8082111561312a576000816000905550600101613112565b5090565b6000604051905090565b600080fd5b600080fd5b600073ffffffffffffffffffffffffffffffffffffffff82169050919050565b600061316d82613142565b9050919050565b61317d81613162565b811461318857600080fd5b50565b60008135905061319a81613174565b92915050565b6000819050919050565b6131b3816131a0565b81146131be57600080fd5b50565b6000813590506131d0816131aa565b92915050565b600080604083850312156131ed576131ec613138565b5b60006131fb8582860161318b565b925050602061320c858286016131c1565b9150509250929050565b61321f816131a0565b82525050565b600060208201905061323a6000830184613216565b92915050565b60007fffffffff0000000000000000000000000000000000000000000000000000000082169050919050565b61327581613240565b811461328057600080fd5b50565b6000813590506132928161326c565b92915050565b6000602082840312156132ae576132ad613138565b5b60006132bc84828501613283565b91505092915050565b60008115159050919050565b6132da816132c5565b82525050565b60006020820190506132f560008301846132d1565b92915050565b600081519050919050565b600082825260208201905092915050565b60005b8381101561333557808201518184015260208101905061331a565b83811115613344576000848401525b50505050565b6000601f19601f8301169050919050565b6000613366826132fb565b6133708185613306565b9350613380818560208601613317565b6133898161334a565b840191505092915050565b600060208201905081810360008301526133ae818461335b565b905092915050565b6000602082840312156133cc576133cb613138565b5b60006133da848285016131c1565b91505092915050565b6133ec816132c5565b81146133f757600080fd5b50565b600081359050613409816133e3565b92915050565b60006020828403121561342557613424613138565b5b6000613433848285016133fa565b91505092915050565b600080fd5b7f4e487b7100000000000000000000000000000000000000000000000000000000600052604160045260246000fd5b6134798261334a565b810181811067ffffffffffffffff8211171561349857613497613441565b5b80604052505050565b60006134ab61312e565b90506134b78282613470565b919050565b600067ffffffffffffffff8211156134d7576134d6613441565b5b602082029050602081019050919050565b600080fd5b60006135006134fb846134bc565b6134a1565b90508083825260208201905060208402830185811115613523576135226134e8565b5b835b8181101561354c578061353888826131c1565b845260208401935050602081019050613525565b5050509392505050565b600082601f83011261356b5761356a61343c565b5b813561357b8482602086016134ed565b91505092915050565b600080fd5b600067ffffffffffffffff8211156135a4576135a3613441565b5b6135ad8261334a565b9050602081019050919050565b82818337600083830152505050565b60006135dc6135d784613589565b6134a1565b9050828152602081018484840111156135f8576135f7613584565b5b6136038482856135ba565b509392505050565b600082601f8301126136205761361f61343c565b5b81356136308482602086016135c9565b91505092915050565b600080600080600060a0868803121561365557613654613138565b5b60006136638882890161318b565b95505060206136748882890161318b565b945050604086013567ffffffffffffffff8111156136955761369461313d565b5b6136a188828901613556565b935050606086013567ffffffffffffffff8111156136c2576136c161313d565b5b6136ce88828901613556565b925050608086013567ffffffffffffffff8111156136ef576136ee61313d565b5b6136fb8882890161360b565b9150509295509295909350565b600080fd5b60008083601f8401126137235761372261343c565b5b8235905067ffffffffffffffff8111156137405761373f613708565b5b60208301915083602082028301111561375c5761375b6134e8565b5b9250929050565b6000806000806060858703121561377d5761377c613138565b5b600061378b878288016131c1565b945050602085013567ffffffffffffffff8111156137ac576137ab61313d565b5b6137b88782880161360b565b935050604085013567ffffffffffffffff8111156137d9576137d861313d565b5b6137e58782880161370d565b925092505092959194509250565b600060ff82169050919050565b613809816137f3565b811461381457600080fd5b50565b60008135905061382681613800565b92915050565b60006020828403121561384257613841613138565b5b600061385084828501613817565b91505092915050565b600061ffff82169050919050565b61387081613859565b82525050565b600060208201905061388b6000830184613867565b92915050565b61389a816137f3565b82525050565b60006020820190506138b56000830184613891565b92915050565b6000819050919050565b6138ce816138bb565b82525050565b60006020820190506138e960008301846138c5565b92915050565b600067ffffffffffffffff82111561390a57613909613441565b5b602082029050602081019050919050565b600061392e613929846138ef565b6134a1565b90508083825260208201905060208402830185811115613951576139506134e8565b5b835b8181101561397a5780613966888261318b565b845260208401935050602081019050613953565b5050509392505050565b600082601f8301126139995761399861343c565b5b81356139a984826020860161391b565b91505092915050565b600080604083850312156139c9576139c8613138565b5b600083013567ffffffffffffffff8111156139e7576139e661313d565b5b6139f385828601613984565b925050602083013567ffffffffffffffff811115613a1457613a1361313d565b5b613a2085828601613556565b9150509250929050565b600081519050919050565b600082825260208201905092915050565b6000819050602082019050919050565b613a5f816131a0565b82525050565b6000613a718383613a56565b60208301905092915050565b6000602082019050919050565b6000613a9582613a2a565b613a9f8185613a35565b9350613aaa83613a46565b8060005b83811015613adb578151613ac28882613a65565b9750613acd83613a7d565b925050600181019050613aae565b5085935050505092915050565b60006020820190508181036000830152613b028184613a8a565b905092915050565b600080600060608486031215613b2357613b22613138565b5b6000613b318682870161318b565b9350506020613b42868287016131c1565b9250506040613b53868287016131c1565b9150509250925092565b600060208284031215613b7357613b72613138565b5b6000613b818482850161318b565b91505092915050565b60008060408385031215613ba157613ba0613138565b5b6000613baf858286016131c1565b925050602083013567ffffffffffffffff811115613bd057613bcf61313d565b5b613bdc8582860161360b565b9150509250929050565b600067ffffffffffffffff821115613c0157613c00613441565b5b613c0a8261334a565b9050602081019050919050565b6000613c2a613c2584613be6565b6134a1565b905082815260208101848484011115613c4657613c45613584565b5b613c518482856135ba565b509392505050565b600082601f830112613c6e57613c6d61343c565b5b8135613c7e848260208601613c17565b91505092915050565b600060208284031215613c9d57613c9c613138565b5b600082013567ffffffffffffffff811115613cbb57613cba61313d565b5b613cc784828501613c59565b91505092915050565b613cd981613162565b82525050565b6000602082019050613cf46000830184613cd0565b92915050565b60008060408385031215613d1157613d10613138565b5b6000613d1f8582860161318b565b9250506020613d30858286016133fa565b9150509250929050565b600067ffffffffffffffff82169050919050565b613d5781613d3a565b8114613d6257600080fd5b50565b600081359050613d7481613d4e565b92915050565b600060208284031215613d9057613d8f613138565b5b6000613d9e84828501613d65565b91505092915050565b60008060408385031215613dbe57613dbd613138565b5b6000613dcc8582860161318b565b9250506020613ddd8582860161318b565b9150509250929050565b600080600080600060a08688031215613e0357613e02613138565b5b6000613e118882890161318b565b9550506020613e228882890161318b565b9450506040613e33888289016131c1565b9350506060613e44888289016131c1565b925050608086013567ffffffffffffffff811115613e6557613e6461313d565b5b613e718882890161360b565b9150509295509295909350565b7f4e487b7100000000000000000000000000000000000000000000000000000000600052602260045260246000fd5b60006002820490506001821680613ec557607f821691505b602082108103613ed857613ed7613e7e565b5b50919050565b600081905092915050565b60008190508160005260206000209050919050565b60008154613f0b81613ead565b613f158186613ede565b94506001821660008114613f305760018114613f4157613f74565b60ff19831686528186019350613f74565b613f4a85613ee9565b60005b83811015613f6c57815481890152600182019150602081019050613f4d565b838801955050505b50505092915050565b6000613f88826132fb565b613f928185613ede565b9350613fa2818560208601613317565b80840191505092915050565b7f2e6a736f6e000000000000000000000000000000000000000000000000000000600082015250565b6000613fe4600583613ede565b9150613fef82613fae565b600582019050919050565b60006140068285613efe565b91506140128284613f7d565b915061401d82613fd7565b91508190509392505050565b7f45524331313535237361666542617463685472616e7366657246726f6d3a204960008201527f4e56414c49445f4f50455241544f520000000000000000000000000000000000602082015250565b6000614085602f83613306565b915061409082614029565b604082019050919050565b600060208201905081810360008301526140b481614078565b9050919050565b7f45524331313535237361666542617463685472616e7366657246726f6d3a204960008201527f4e56414c49445f524543495049454e5400000000000000000000000000000000602082015250565b6000614117603083613306565b9150614122826140bb565b604082019050919050565b600060208201905081810360008301526141468161410a565b9050919050565b7f4d696e74696e6720697320506175736564000000000000000000000000000000600082015250565b6000614183601183613306565b915061418e8261414d565b602082019050919050565b600060208201905081810360008301526141b281614176565b9050919050565b7f4d696e74696e67206e6f74207965742073746172746564000000000000000000600082015250565b60006141ef601783613306565b91506141fa826141b9565b602082019050919050565b6000602082019050818103600083015261421e816141e2565b9050919050565b7f4d696e74696e6720616c726561647920656e6465640000000000000000000000600082015250565b600061425b601583613306565b915061426682614225565b602082019050919050565b6000602082019050818103600083015261428a8161424e565b9050919050565b7f4e487b7100000000000000000000000000000000000000000000000000000000600052601160045260246000fd5b60006142cb82613859565b91506142d683613859565b92508261ffff038211156142ed576142ec614291565b5b828201905092915050565b7f416d6f756e74205072696d61204d617465726961206578636565646564000000600082015250565b600061432e601d83613306565b9150614339826142f8565b602082019050919050565b6000602082019050818103600083015261435d81614321565b9050919050565b7f546f6b656e20616c726561647920757365640000000000000000000000000000600082015250565b600061439a601283613306565b91506143a582614364565b602082019050919050565b600060208201905081810360008301526143c98161438d565b9050919050565b6000815190506143df81613174565b92915050565b6000602082840312156143fb576143fa613138565b5b6000614409848285016143d0565b91505092915050565b7f4e6f7420746f6b656e206f776e65720000000000000000000000000000000000600082015250565b6000614448600f83613306565b915061445382614412565b602082019050919050565b600060208201905081810360008301526144778161443b565b9050919050565b7f57726f6e67207369676e61747572650000000000000000000000000000000000600082015250565b60006144b4600f83613306565b91506144bf8261447e565b602082019050919050565b600060208201905081810360008301526144e3816144a7565b9050919050565b7f41204d6174657269612073686f756c642062652063726561746564206669727360008201527f7400000000000000000000000000000000000000000000000000000000000000602082015250565b6000614546602183613306565b9150614551826144ea565b604082019050919050565b6000602082019050818103600083015261457581614539565b9050919050565b6000819050919050565b614597614592826131a0565b61457c565b82525050565b60006145a98284614586565b60208201915081905092915050565b7f496e76616c6964206d65726b6c652070726f6f66000000000000000000000000600082015250565b60006145ee601483613306565b91506145f9826145b8565b602082019050919050565b6000602082019050818103600083015261461d816145e1565b9050919050565b600061462f826137f3565b915061463a836137f3565b92508260ff038211156146505761464f614291565b5b828201905092915050565b61466481613162565b82525050565b614673816131a0565b82525050565b600060408201905061468e600083018561465b565b61469b602083018461466a565b9392505050565b6146ab816138bb565b81146146b657600080fd5b50565b6000815190506146c8816146a2565b92915050565b6000602082840312156146e4576146e3613138565b5b60006146f2848285016146b9565b91505092915050565b7f455243313135352362616c616e63654f6642617463683a20494e56414c49445f60008201527f41525241595f4c454e4754480000000000000000000000000000000000000000602082015250565b6000614757602c83613306565b9150614762826146fb565b604082019050919050565b600060208201905081810360008301526147868161474a565b9050919050565b7f4e487b7100000000000000000000000000000000000000000000000000000000600052603260045260246000fd5b60006147c7826131a0565b91507fffffffffffffffffffffffffffffffffffffffffffffffffffffffffffffffff82036147f9576147f8614291565b5b600182019050919050565b7f446561646c696e65206e6f7420796574206f7665720000000000000000000000600082015250565b600061483a601583613306565b915061484582614804565b602082019050919050565b600060208201905081810360008301526148698161482d565b9050919050565b600061487b826131a0565b9150614886836131a0565b9250827fffffffffffffffffffffffffffffffffffffffffffffffffffffffffffffffff038211156148bb576148ba614291565b5b828201905092915050565b7f416d6f756e74204d617465726961206578636565646564000000000000000000600082015250565b60006148fc601783613306565b9150614907826148c6565b602082019050919050565b6000602082019050818103600083015261492b816148ef565b9050919050565b7f57726f6e67207369676e65720000000000000000000000000000000000000000600082015250565b6000614968600c83613306565b915061497382614932565b602082019050919050565b600060208201905081810360008301526149978161495b565b9050919050565b7f57726f6e6720656e6420646561646c696e650000000000000000000000000000600082015250565b60006149d4601283613306565b91506149df8261499e565b602082019050919050565b60006020820190508181036000830152614a03816149c7565b9050919050565b7f4552433732315472616461626c65237572693a204e4f4e4558495354454e545f60008201527f544f4b454e000000000000000000000000000000000000000000000000000000602082015250565b6000614a66602583613306565b9150614a7182614a0a565b604082019050919050565b60006020820190508181036000830152614a9581614a59565b9050919050565b6000614aa88285613efe565b9150614ab48284613f7d565b91508190509392505050565b7f4552433131353523736166655472616e7366657246726f6d3a20494e56414c4960008201527f445f4f50455241544f5200000000000000000000000000000000000000000000602082015250565b6000614b1c602a83613306565b9150614b2782614ac0565b604082019050919050565b60006020820190508181036000830152614b4b81614b0f565b9050919050565b7f4552433131353523736166655472616e7366657246726f6d3a20494e56414c4960008201527f445f524543495049454e54000000000000000000000000000000000000000000602082015250565b6000614bae602b83613306565b9150614bb982614b52565b604082019050919050565b60006020820190508181036000830152614bdd81614ba1565b9050919050565b7f4f776e61626c653a206e6577206f776e657220697320746865207a65726f206160008201527f6464726573730000000000000000000000000000000000000000000000000000602082015250565b6000614c40602683613306565b9150614c4b82614be4565b604082019050919050565b60006020820190508181036000830152614c6f81614c33565b9050919050565b7f4e487b7100000000000000000000000000000000000000000000000000000000600052601260045260246000fd5b6000614cb0826131a0565b9150614cbb836131a0565b925082614ccb57614cca614c76565b5b828204905092915050565b6000614ce1826131a0565b9150614cec836131a0565b925082821015614cff57614cfe614291565b5b828203905092915050565b6000614d15826131a0565b9150614d20836131a0565b925082614d3057614d2f614c76565b5b828206905092915050565b6000614d46826131a0565b915060008203614d5957614d58614291565b5b600182039050919050565b7f4f776e61626c653a2063616c6c6572206973206e6f7420746865206f776e6572600082015250565b6000614d9a602083613306565b9150614da582614d64565b602082019050919050565b60006020820190508181036000830152614dc981614d8d565b9050919050565b7f45524331313535235f7361666542617463685472616e7366657246726f6d3a2060008201527f494e56414c49445f4152524159535f4c454e4754480000000000000000000000602082015250565b6000614e2c603583613306565b9150614e3782614dd0565b604082019050919050565b60006020820190508181036000830152614e5b81614e1f565b9050919050565b60006040820190508181036000830152614e7c8185613a8a565b90508181036020830152614e908184613a8a565b90509392505050565b600081519050919050565b600082825260208201905092915050565b6000614ec082614e99565b614eca8185614ea4565b9350614eda818560208601613317565b614ee38161334a565b840191505092915050565b600060a082019050614f036000830188613cd0565b614f106020830187613cd0565b8181036040830152614f228186613a8a565b90508181036060830152614f368185613a8a565b90508181036080830152614f4a8184614eb5565b90509695505050505050565b600081519050614f658161326c565b92915050565b600060208284031215614f8157614f80613138565b5b6000614f8f84828501614f56565b91505092915050565b60008160e01c9050919050565b600060033d1115614fc45760046000803e614fc1600051614f98565b90505b90565b600060443d1061505457614fd961312e565b60043d036004823e80513d602482011167ffffffffffffffff82111715615001575050615054565b808201805167ffffffffffffffff81111561501f5750505050615054565b80602083010160043d03850181111561503c575050505050615054565b61504b82602001850186613470565b82955050505050505b90565b7f455243313135353a207472616e7366657220746f206e6f6e204552433131353560008201527f526563656976657220696d706c656d656e746572000000000000000000000000602082015250565b60006150b3603483613306565b91506150be82615057565b604082019050919050565b600060208201905081810360008301526150e2816150a6565b9050919050565b7f455243313135353a204552433131353552656365697665722072656a6563746560008201527f6420746f6b656e73000000000000000000000000000000000000000000000000602082015250565b6000615145602883613306565b9150615150826150e9565b604082019050919050565b6000602082019050818103600083015261517481615138565b9050919050565b600082825260208201905092915050565b600061519782614e99565b6151a1818561517b565b93506151b1818560208601613317565b6151ba8161334a565b840191505092915050565b60006080820190506151da600083018761465b565b6151e7602083018661465b565b6151f4604083018561466a565b8181036060830152615206818461518c565b905095945050505050565b600081519050615220816133e3565b92915050565b60006020828403121561523c5761523b613138565b5b600061524a84828501615211565b91505092915050565b60006040820190506152686000830185613216565b6152756020830184613216565b9392505050565b600060a0820190506152916000830188613cd0565b61529e6020830187613cd0565b6152ab6040830186613216565b6152b86060830185613216565b81810360808301526152ca8184614eb5565b90509695505050505050565b60006152e1826137f3565b915060ff82036152f4576152f3614291565b5b600182019050919050565b7f455243313135354d696e744275726e2362617463684d696e743a20494e56414c60008201527f49445f4152524159535f4c454e47544800000000000000000000000000000000602082015250565b600061535b603083613306565b9150615366826152ff565b604082019050919050565b6000602082019050818103600083015261538a8161534e565b905091905056fea264697066735822122036edbfeea1a619857aaaef5862e496e8beb58d877a05b31f008d7d886d6dba6864736f6c634300080d0033",
  "linkReferences": {
    "contracts/mocks/VerifySignatureMock.sol": {
      "VerifySignatureMock": [
        {
          "length": 20,
          "start": 6155
        },
        {
          "length": 20,
          "start": 11743
        }
      ]
    }
  },
  "deployedLinkReferences": {
    "contracts/mocks/VerifySignatureMock.sol": {
      "VerifySignatureMock": [
        {
          "length": 20,
          "start": 3220
        },
        {
          "length": 20,
          "start": 8808
        }
      ]
    }
  }
}