{
  "_format": "hh-sol-artifact-1",
  "contractName": "MateriaMock",
  "sourceName": "contracts/mocks/MateriaMock.sol",
  "abi": [
    {
      "inputs": [
        {
          "internalType": "string",
          "name": "_name",
          "type": "string"
        },
        {
          "internalType": "string",
          "name": "_symbol",
          "type": "string"
        },
        {
          "internalType": "string",
          "name": "_metadataURI",
          "type": "string"
        },
        {
          "internalType": "uint64",
          "name": "start",
          "type": "uint64"
        },
        {
          "internalType": "uint64",
          "name": "end",
          "type": "uint64"
        },
        {
          "internalType": "bytes32",
          "name": "merkleRoot",
          "type": "bytes32"
        },
        {
          "internalType": "address",
          "name": "signer",
          "type": "address"
        },
        {
          "internalType": "address",
          "name": "antonym",
          "type": "address"
        }
      ],
      "stateMutability": "nonpayable",
      "type": "constructor"
    },
    {
      "anonymous": false,
      "inputs": [
        {
          "indexed": true,
          "internalType": "address",
          "name": "_owner",
          "type": "address"
        },
        {
          "indexed": true,
          "internalType": "address",
          "name": "_operator",
          "type": "address"
        },
        {
          "indexed": false,
          "internalType": "bool",
          "name": "_approved",
          "type": "bool"
        }
      ],
      "name": "ApprovalForAll",
      "type": "event"
    },
    {
      "anonymous": false,
      "inputs": [
        {
          "indexed": true,
          "internalType": "address",
          "name": "previousOwner",
          "type": "address"
        },
        {
          "indexed": true,
          "internalType": "address",
          "name": "newOwner",
          "type": "address"
        }
      ],
      "name": "OwnershipTransferred",
      "type": "event"
    },
    {
      "anonymous": false,
      "inputs": [
        {
          "indexed": true,
          "internalType": "address",
          "name": "_operator",
          "type": "address"
        },
        {
          "indexed": true,
          "internalType": "address",
          "name": "_from",
          "type": "address"
        },
        {
          "indexed": true,
          "internalType": "address",
          "name": "_to",
          "type": "address"
        },
        {
          "indexed": false,
          "internalType": "uint256[]",
          "name": "_ids",
          "type": "uint256[]"
        },
        {
          "indexed": false,
          "internalType": "uint256[]",
          "name": "_amounts",
          "type": "uint256[]"
        }
      ],
      "name": "TransferBatch",
      "type": "event"
    },
    {
      "anonymous": false,
      "inputs": [
        {
          "indexed": true,
          "internalType": "address",
          "name": "_operator",
          "type": "address"
        },
        {
          "indexed": true,
          "internalType": "address",
          "name": "_from",
          "type": "address"
        },
        {
          "indexed": true,
          "internalType": "address",
          "name": "_to",
          "type": "address"
        },
        {
          "indexed": false,
          "internalType": "uint256",
          "name": "_id",
          "type": "uint256"
        },
        {
          "indexed": false,
          "internalType": "uint256",
          "name": "_amount",
          "type": "uint256"
        }
      ],
      "name": "TransferSingle",
      "type": "event"
    },
    {
      "anonymous": false,
      "inputs": [
        {
          "indexed": false,
          "internalType": "string",
          "name": "_uri",
          "type": "string"
        },
        {
          "indexed": true,
          "internalType": "uint256",
          "name": "_id",
          "type": "uint256"
        }
      ],
      "name": "URI",
      "type": "event"
    },
    {
      "inputs": [
        {
          "internalType": "bool",
          "name": "allow",
          "type": "bool"
        }
      ],
      "name": "allowMinting",
      "outputs": [],
      "stateMutability": "nonpayable",
      "type": "function"
    },
    {
      "inputs": [
        {
          "internalType": "address",
          "name": "_owner",
          "type": "address"
        },
        {
          "internalType": "uint256",
          "name": "_id",
          "type": "uint256"
        }
      ],
      "name": "balanceOf",
      "outputs": [
        {
          "internalType": "uint256",
          "name": "",
          "type": "uint256"
        }
      ],
      "stateMutability": "view",
      "type": "function"
    },
    {
      "inputs": [
        {
          "internalType": "address[]",
          "name": "_owners",
          "type": "address[]"
        },
        {
          "internalType": "uint256[]",
          "name": "_ids",
          "type": "uint256[]"
        }
      ],
      "name": "balanceOfBatch",
      "outputs": [
        {
          "internalType": "uint256[]",
          "name": "",
          "type": "uint256[]"
        }
      ],
      "stateMutability": "view",
      "type": "function"
    },
    {
      "inputs": [],
      "name": "getNextTokenID",
      "outputs": [
        {
          "internalType": "uint8",
          "name": "",
          "type": "uint8"
        }
      ],
      "stateMutability": "view",
      "type": "function"
    },
    {
      "inputs": [
        {
          "internalType": "address",
          "name": "_owner",
          "type": "address"
        },
        {
          "internalType": "address",
          "name": "_operator",
          "type": "address"
        }
      ],
      "name": "isApprovedForAll",
      "outputs": [
        {
          "internalType": "bool",
          "name": "isOperator",
          "type": "bool"
        }
      ],
      "stateMutability": "view",
      "type": "function"
    },
    {
      "inputs": [
        {
          "internalType": "address",
          "name": "account",
          "type": "address"
        },
        {
          "internalType": "uint256",
          "name": "tokenId",
          "type": "uint256"
        }
      ],
      "name": "messageHash",
      "outputs": [
        {
          "internalType": "bytes32",
          "name": "",
          "type": "bytes32"
        }
      ],
      "stateMutability": "pure",
      "type": "function"
    },
    {
      "inputs": [
        {
          "internalType": "address",
          "name": "to",
          "type": "address"
        },
        {
          "internalType": "uint256",
          "name": "amountMateria",
          "type": "uint256"
        },
        {
          "internalType": "uint256",
          "name": "amountPrimaMateria",
          "type": "uint256"
        }
      ],
      "name": "mintBatchMateria",
      "outputs": [],
      "stateMutability": "nonpayable",
      "type": "function"
    },
    {
      "inputs": [
        {
          "internalType": "uint256",
          "name": "antonymTokenId",
          "type": "uint256"
        },
        {
          "internalType": "bytes",
          "name": "signature",
          "type": "bytes"
        }
      ],
      "name": "mintMateria",
      "outputs": [],
      "stateMutability": "nonpayable",
      "type": "function"
    },
    {
      "inputs": [
        {
          "internalType": "uint256",
          "name": "antonymTokenId",
          "type": "uint256"
        },
        {
          "internalType": "bytes",
          "name": "signature",
          "type": "bytes"
        },
        {
          "internalType": "bytes32[]",
          "name": "proof",
          "type": "bytes32[]"
        }
      ],
      "name": "mintPrimaMateria",
      "outputs": [],
      "stateMutability": "nonpayable",
      "type": "function"
    },
    {
      "inputs": [],
      "name": "name",
      "outputs": [
        {
          "internalType": "string",
          "name": "",
          "type": "string"
        }
      ],
      "stateMutability": "view",
      "type": "function"
    },
    {
      "inputs": [],
      "name": "owner",
      "outputs": [
        {
          "internalType": "address",
          "name": "",
          "type": "address"
        }
      ],
      "stateMutability": "view",
      "type": "function"
    },
    {
      "inputs": [],
      "name": "renounceOwnership",
      "outputs": [],
      "stateMutability": "nonpayable",
      "type": "function"
    },
    {
      "inputs": [
        {
          "internalType": "address",
          "name": "_from",
          "type": "address"
        },
        {
          "internalType": "address",
          "name": "_to",
          "type": "address"
        },
        {
          "internalType": "uint256[]",
          "name": "_ids",
          "type": "uint256[]"
        },
        {
          "internalType": "uint256[]",
          "name": "_amounts",
          "type": "uint256[]"
        },
        {
          "internalType": "bytes",
          "name": "_data",
          "type": "bytes"
        }
      ],
      "name": "safeBatchTransferFrom",
      "outputs": [],
      "stateMutability": "nonpayable",
      "type": "function"
    },
    {
      "inputs": [
        {
          "internalType": "address",
          "name": "_from",
          "type": "address"
        },
        {
          "internalType": "address",
          "name": "_to",
          "type": "address"
        },
        {
          "internalType": "uint256",
          "name": "_id",
          "type": "uint256"
        },
        {
          "internalType": "uint256",
          "name": "_amount",
          "type": "uint256"
        },
        {
          "internalType": "bytes",
          "name": "_data",
          "type": "bytes"
        }
      ],
      "name": "safeTransferFrom",
      "outputs": [],
      "stateMutability": "nonpayable",
      "type": "function"
    },
    {
      "inputs": [
        {
          "internalType": "address",
          "name": "_operator",
          "type": "address"
        },
        {
          "internalType": "bool",
          "name": "_approved",
          "type": "bool"
        }
      ],
      "name": "setApprovalForAll",
      "outputs": [],
      "stateMutability": "nonpayable",
      "type": "function"
    },
    {
      "inputs": [
        {
          "internalType": "string",
          "name": "_newBaseMetadataURI",
          "type": "string"
        }
      ],
      "name": "setBaseMetadataURI",
      "outputs": [],
      "stateMutability": "nonpayable",
      "type": "function"
    },
    {
      "inputs": [
        {
          "internalType": "uint64",
          "name": "end",
          "type": "uint64"
        }
      ],
      "name": "setDeadline",
      "outputs": [],
      "stateMutability": "nonpayable",
      "type": "function"
    },
    {
      "inputs": [
        {
          "internalType": "address",
          "name": "signer",
          "type": "address"
        }
      ],
      "name": "setSigner",
      "outputs": [],
      "stateMutability": "nonpayable",
      "type": "function"
    },
    {
      "inputs": [
        {
          "internalType": "bytes4",
          "name": "_interfaceID",
          "type": "bytes4"
        }
      ],
      "name": "supportsInterface",
      "outputs": [
        {
          "internalType": "bool",
          "name": "",
          "type": "bool"
        }
      ],
      "stateMutability": "view",
      "type": "function"
    },
    {
      "inputs": [],
      "name": "symbol",
      "outputs": [
        {
          "internalType": "string",
          "name": "",
          "type": "string"
        }
      ],
      "stateMutability": "view",
      "type": "function"
    },
    {
      "inputs": [
        {
          "internalType": "uint256",
          "name": "",
          "type": "uint256"
        }
      ],
      "name": "tokenSupply",
      "outputs": [
        {
          "internalType": "uint256",
          "name": "",
          "type": "uint256"
        }
      ],
      "stateMutability": "view",
      "type": "function"
    },
    {
      "inputs": [
        {
          "internalType": "uint256",
          "name": "_id",
          "type": "uint256"
        }
      ],
      "name": "totalSupply",
      "outputs": [
        {
          "internalType": "uint256",
          "name": "",
          "type": "uint256"
        }
      ],
      "stateMutability": "view",
      "type": "function"
    },
    {
      "inputs": [
        {
          "internalType": "address",
          "name": "newOwner",
          "type": "address"
        }
      ],
      "name": "transferOwnership",
      "outputs": [],
      "stateMutability": "nonpayable",
      "type": "function"
    },
    {
      "inputs": [
        {
          "internalType": "uint256",
          "name": "_id",
          "type": "uint256"
        }
      ],
      "name": "uri",
      "outputs": [
        {
          "internalType": "string",
          "name": "",
          "type": "string"
        }
      ],
      "stateMutability": "view",
      "type": "function"
    }
  ],
  "bytecode": "0x60806040526001600760106101000a81548160ff0219169083151502179055503480156200002c57600080fd5b5060405162005aee38038062005aee833981810160405281019062000052919062000792565b87878762000075620000696200037660201b60201c565b6200037e60201b60201c565b82600590805190602001906200008d92919062000460565b508160069080519060200190620000a692919062000460565b50620000b8816200044460201b60201c565b505050428567ffffffffffffffff16116200010a576040517f08c379a0000000000000000000000000000000000000000000000000000000008152600401620001019062000919565b60405180910390fd5b8467ffffffffffffffff168467ffffffffffffffff161162000163576040517f08c379a00000000000000000000000000000000000000000000000000000000081526004016200015a906200098b565b60405180910390fd5b600073ffffffffffffffffffffffffffffffffffffffff168273ffffffffffffffffffffffffffffffffffffffff1603620001d5576040517f08c379a0000000000000000000000000000000000000000000000000000000008152600401620001cc90620009fd565b60405180910390fd5b600083036200021b576040517f08c379a0000000000000000000000000000000000000000000000000000000008152600401620002129062000a6f565b60405180910390fd5b600073ffffffffffffffffffffffffffffffffffffffff168173ffffffffffffffffffffffffffffffffffffffff16036200028d576040517f08c379a0000000000000000000000000000000000000000000000000000000008152600401620002849062000ae1565b60405180910390fd5b84600760006101000a81548167ffffffffffffffff021916908367ffffffffffffffff16021790555083600760086101000a81548167ffffffffffffffff021916908367ffffffffffffffff16021790555081600860006101000a81548173ffffffffffffffffffffffffffffffffffffffff021916908373ffffffffffffffffffffffffffffffffffffffff16021790555082600a8190555080600960006101000a81548173ffffffffffffffffffffffffffffffffffffffff021916908373ffffffffffffffffffffffffffffffffffffffff160217905550505050505050505062000b67565b600033905090565b6000600360009054906101000a900473ffffffffffffffffffffffffffffffffffffffff16905081600360006101000a81548173ffffffffffffffffffffffffffffffffffffffff021916908373ffffffffffffffffffffffffffffffffffffffff1602179055508173ffffffffffffffffffffffffffffffffffffffff168173ffffffffffffffffffffffffffffffffffffffff167f8be0079c531659141344cd1fd0a4f28419497f9722a3daafe3b4186f6b6457e060405160405180910390a35050565b80600290805190602001906200045c92919062000460565b5050565b8280546200046e9062000b32565b90600052602060002090601f016020900481019282620004925760008555620004de565b82601f10620004ad57805160ff1916838001178555620004de565b82800160010185558215620004de579182015b82811115620004dd578251825591602001919060010190620004c0565b5b509050620004ed9190620004f1565b5090565b5b808211156200050c576000816000905550600101620004f2565b5090565b6000604051905090565b600080fd5b600080fd5b600080fd5b600080fd5b6000601f19601f8301169050919050565b7f4e487b7100000000000000000000000000000000000000000000000000000000600052604160045260246000fd5b62000579826200052e565b810181811067ffffffffffffffff821117156200059b576200059a6200053f565b5b80604052505050565b6000620005b062000510565b9050620005be82826200056e565b919050565b600067ffffffffffffffff821115620005e157620005e06200053f565b5b620005ec826200052e565b9050602081019050919050565b60005b8381101562000619578082015181840152602081019050620005fc565b8381111562000629576000848401525b50505050565b6000620006466200064084620005c3565b620005a4565b90508281526020810184848401111562000665576200066462000529565b5b62000672848285620005f9565b509392505050565b600082601f83011262000692576200069162000524565b5b8151620006a48482602086016200062f565b91505092915050565b600067ffffffffffffffff82169050919050565b620006cc81620006ad565b8114620006d857600080fd5b50565b600081519050620006ec81620006c1565b92915050565b6000819050919050565b6200070781620006f2565b81146200071357600080fd5b50565b6000815190506200072781620006fc565b92915050565b600073ffffffffffffffffffffffffffffffffffffffff82169050919050565b60006200075a826200072d565b9050919050565b6200076c816200074d565b81146200077857600080fd5b50565b6000815190506200078c8162000761565b92915050565b600080600080600080600080610100898b031215620007b657620007b56200051a565b5b600089015167ffffffffffffffff811115620007d757620007d66200051f565b5b620007e58b828c016200067a565b985050602089015167ffffffffffffffff8111156200080957620008086200051f565b5b620008178b828c016200067a565b975050604089015167ffffffffffffffff8111156200083b576200083a6200051f565b5b620008498b828c016200067a565b96505060606200085c8b828c01620006db565b95505060806200086f8b828c01620006db565b94505060a0620008828b828c0162000716565b93505060c0620008958b828c016200077b565b92505060e0620008a88b828c016200077b565b9150509295985092959890939650565b600082825260208201905092915050565b7f53746172742063616e6e6f7420626520696e2074686520706173740000000000600082015250565b600062000901601b83620008b8565b91506200090e82620008c9565b602082019050919050565b600060208201905081810360008301526200093481620008f2565b9050919050565b7f57726f6e6720656e6420646561646c696e650000000000000000000000000000600082015250565b600062000973601283620008b8565b915062000980826200093b565b602082019050919050565b60006020820190508181036000830152620009a68162000964565b9050919050565b7f57726f6e67207369676e65720000000000000000000000000000000000000000600082015250565b6000620009e5600c83620008b8565b9150620009f282620009ad565b602082019050919050565b6000602082019050818103600083015262000a1881620009d6565b9050919050565b7f57726f6e67204d65726b6c65526f6f7400000000000000000000000000000000600082015250565b600062000a57601083620008b8565b915062000a648262000a1f565b602082019050919050565b6000602082019050818103600083015262000a8a8162000a48565b9050919050565b7f57726f6e67204e46540000000000000000000000000000000000000000000000600082015250565b600062000ac9600983620008b8565b915062000ad68262000a91565b602082019050919050565b6000602082019050818103600083015262000afc8162000aba565b9050919050565b7f4e487b7100000000000000000000000000000000000000000000000000000000600052602260045260246000fd5b6000600282049050600182168062000b4b57607f821691505b60208210810362000b615762000b6062000b03565b5b50919050565b614f778062000b776000396000f3fe608060405234801561001057600080fd5b50600436106101575760003560e01c80636c19e783116100c3578063a22cb4651161007c578063a22cb465146103c2578063aebc0483146103de578063bd85b039146103fa578063e985e9c51461042a578063f242432a1461045a578063f2fde38b1461047657610157565b80636c19e78314610328578063715018a61461034457806379e91fa81461034e5780637e518ec81461036a5780638da5cb5b1461038657806395d89b41146103a457610157565b80632eb2c2d6116101155780632eb2c2d6146102565780633e0981d7146102725780634a1981191461028e5780634bc85491146102ac5780634e1273f4146102dc578063697b0ad41461030c57610157565b8062fdd58e1461015c57806301ffc9a71461018c57806306fdde03146101bc5780630e89341c146101da5780632693ebf21461020a5780632c5a8e861461023a575b600080fd5b61017660048036038101906101719190612ef3565b610492565b6040516101839190612f42565b60405180910390f35b6101a660048036038101906101a19190612fb5565b6104ec565b6040516101b39190612ffd565b60405180910390f35b6101c461056d565b6040516101d191906130b1565b60405180910390f35b6101f460048036038101906101ef91906130d3565b6105fb565b60405161020191906130b1565b60405180910390f35b610224600480360381019061021f91906130d3565b6106a3565b6040516102319190612f42565b60405180910390f35b610254600480360381019061024f919061312c565b6106bb565b005b610270600480360381019061026b9190613356565b6106e0565b005b61028c60048036038101906102879190613480565b6107ef565b005b610296610c68565b6040516102a3919061352c565b60405180910390f35b6102c660048036038101906102c19190612ef3565b610c8b565b6040516102d39190613560565b60405180910390f35b6102f660048036038101906102f1919061363e565b610d0f565b6040516103039190613774565b60405180910390f35b61032660048036038101906103219190613796565b610e70565b005b610342600480360381019061033d91906137e9565b611123565b005b61034c6111de565b005b61036860048036038101906103639190613816565b6111f2565b005b610384600480360381019061037f9190613913565b611569565b005b61038e61157d565b60405161039b919061396b565b60405180910390f35b6103ac6115a7565b6040516103b991906130b1565b60405180910390f35b6103dc60048036038101906103d79190613986565b611635565b005b6103f860048036038101906103f39190613a06565b611732565b005b610414600480360381019061040f91906130d3565b6117e7565b6040516104219190612f42565b60405180910390f35b610444600480360381019061043f9190613a33565b611804565b6040516104519190612ffd565b60405180910390f35b610474600480360381019061046f9190613a73565b611898565b005b610490600480360381019061048b91906137e9565b6119a7565b005b60008060008473ffffffffffffffffffffffffffffffffffffffff1673ffffffffffffffffffffffffffffffffffffffff168152602001908152602001600020600083815260200190815260200160002054905092915050565b60007fd9b67a26000000000000000000000000000000000000000000000000000000007bffffffffffffffffffffffffffffffffffffffffffffffffffffffff1916827bffffffffffffffffffffffffffffffffffffffffffffffffffffffff19160361055c5760019050610568565b61056582611a2a565b90505b919050565b6005805461057a90613b39565b80601f01602080910402602001604051908101604052809291908181526020018280546105a690613b39565b80156105f35780601f106105c8576101008083540402835291602001916105f3565b820191906000526020600020905b8154815290600101906020018083116105d657829003601f168201915b505050505081565b606061060682611aab565b610645576040517f08c379a000000000000000000000000000000000000000000000000000000000815260040161063c90613bdc565b60405180910390fd5b60006002805461065490613b39565b905011610670576040518060200160405280600081525061069c565b600261067b83611aca565b60405160200161068c929190613ccc565b6040516020818303038152906040525b9050919050565b60046020528060005260406000206000915090505481565b6106c3611c2a565b80600760106101000a81548160ff02191690831515021790555050565b8473ffffffffffffffffffffffffffffffffffffffff163373ffffffffffffffffffffffffffffffffffffffff161480610720575061071f8533611804565b5b61075f576040517f08c379a000000000000000000000000000000000000000000000000000000000815260040161075690613d62565b60405180910390fd5b600073ffffffffffffffffffffffffffffffffffffffff168473ffffffffffffffffffffffffffffffffffffffff16036107ce576040517f08c379a00000000000000000000000000000000000000000000000000000000081526004016107c590613df4565b60405180910390fd5b6107da85858585611ca8565b6107e8858585855a86611f9c565b5050505050565b600760109054906101000a900460ff1661083e576040517f08c379a000000000000000000000000000000000000000000000000000000000815260040161083590613e60565b60405180910390fd5b42600760009054906101000a900467ffffffffffffffff1667ffffffffffffffff1611156108a1576040517f08c379a000000000000000000000000000000000000000000000000000000000815260040161089890613ecc565b60405180910390fd5b42600760089054906101000a900467ffffffffffffffff1667ffffffffffffffff1611610903576040517f08c379a00000000000000000000000000000000000000000000000000000000081526004016108fa90613f38565b60405180910390fd5b600560016004600060028152602001908152602001600020546109269190613f87565b1115610967576040517f08c379a000000000000000000000000000000000000000000000000000000000815260040161095e90614029565b60405180910390fd5b6000600c600086815260200190815260200160002054146109bd576040517f08c379a00000000000000000000000000000000000000000000000000000000081526004016109b490614095565b60405180910390fd5b60006109c7612173565b90508073ffffffffffffffffffffffffffffffffffffffff16600960009054906101000a900473ffffffffffffffffffffffffffffffffffffffff1673ffffffffffffffffffffffffffffffffffffffff16636352211e876040518263ffffffff1660e01b8152600401610a3b9190612f42565b602060405180830381865afa158015610a58573d6000803e3d6000fd5b505050506040513d601f19601f82011682018060405250810190610a7c91906140ca565b73ffffffffffffffffffffffffffffffffffffffff1614610ad2576040517f08c379a0000000000000000000000000000000000000000000000000000000008152600401610ac990614143565b60405180910390fd5b610add81868661217b565b610b1c576040517f08c379a0000000000000000000000000000000000000000000000000000000008152600401610b13906141af565b60405180910390fd5b610b266001611aab565b610b65576040517f08c379a0000000000000000000000000000000000000000000000000000000008152600401610b5c90614241565b60405180910390fd5b600085604051602001610b789190614282565b604051602081830303815290604052805190602001209050610bdb81858580806020026020016040519081016040528093929190818152602001838360200280828437600081840152601f19601f82011690508083019250505050505050612226565b610c1a576040517f08c379a0000000000000000000000000000000000000000000000000000000008152600401610c11906142e9565b60405180910390fd5b6001600c600088815260200190815260200160002081905550610c3d6002611aab565b610c5257610c4c82600161223d565b50610c60565b610c5f8260026001612295565b5b505050505050565b60006001600360149054906101000a900460ff16610c869190614309565b905090565b600073__$5f0992d95fe464c261089015ed9f461e6e$__63512c91df84846040518363ffffffff1660e01b8152600401610cc692919061435e565b602060405180830381865af4158015610ce3573d6000803e3d6000fd5b505050506040513d601f19601f82011682018060405250810190610d0791906143b3565b905092915050565b60608151835114610d55576040517f08c379a0000000000000000000000000000000000000000000000000000000008152600401610d4c90614452565b60405180910390fd5b6000835167ffffffffffffffff811115610d7257610d7161315e565b5b604051908082528060200260200182016040528015610da05781602001602082028036833780820191505090505b50905060005b8451811015610e6557600080868381518110610dc557610dc4614472565b5b602002602001015173ffffffffffffffffffffffffffffffffffffffff1673ffffffffffffffffffffffffffffffffffffffff1681526020019081526020016000206000858381518110610e1c57610e1b614472565b5b6020026020010151815260200190815260200160002054828281518110610e4657610e45614472565b5b6020026020010181815250508080610e5d906144a1565b915050610da6565b508091505092915050565b610e78611c2a565b600760109054906101000a900460ff16610ec7576040517f08c379a0000000000000000000000000000000000000000000000000000000008152600401610ebe90613e60565b60405180910390fd5b42600760089054906101000a900467ffffffffffffffff1667ffffffffffffffff1610610f29576040517f08c379a0000000000000000000000000000000000000000000000000000000008152600401610f2090614535565b60405180910390fd5b606482600460006001815260200190815260200160002054610f4b9190613f87565b1115610f8c576040517f08c379a0000000000000000000000000000000000000000000000000000000008152600401610f83906145a1565b60405180910390fd5b600581600460006002815260200190815260200160002054610fae9190613f87565b1115610fef576040517f08c379a0000000000000000000000000000000000000000000000000000000008152600401610fe690614029565b60405180910390fd5b6000600267ffffffffffffffff81111561100c5761100b61315e565b5b60405190808252806020026020018201604052801561103a5781602001602082028036833780820191505090505b50905060018160008151811061105357611052614472565b5b60200260200101818152505060028160018151811061107557611074614472565b5b6020026020010181815250506000600267ffffffffffffffff81111561109e5761109d61315e565b5b6040519080825280602002602001820160405280156110cc5781602001602082028036833780820191505090505b50905083816000815181106110e4576110e3614472565b5b602002602001018181525050828160018151811061110557611104614472565b5b60200260200101818152505061111c8583836122e5565b5050505050565b61112b611c2a565b600073ffffffffffffffffffffffffffffffffffffffff168173ffffffffffffffffffffffffffffffffffffffff160361119a576040517f08c379a00000000000000000000000000000000000000000000000000000000081526004016111919061460d565b60405180910390fd5b80600860006101000a81548173ffffffffffffffffffffffffffffffffffffffff021916908373ffffffffffffffffffffffffffffffffffffffff16021790555050565b6111e6611c2a565b6111f06000612396565b565b600760109054906101000a900460ff16611241576040517f08c379a000000000000000000000000000000000000000000000000000000000815260040161123890613e60565b60405180910390fd5b42600760009054906101000a900467ffffffffffffffff1667ffffffffffffffff1611156112a4576040517f08c379a000000000000000000000000000000000000000000000000000000000815260040161129b90613ecc565b60405180910390fd5b42600760089054906101000a900467ffffffffffffffff1667ffffffffffffffff1611611306576040517f08c379a00000000000000000000000000000000000000000000000000000000081526004016112fd90613f38565b60405180910390fd5b606460016004600060018152602001908152602001600020546113299190613f87565b111561136a576040517f08c379a0000000000000000000000000000000000000000000000000000000008152600401611361906145a1565b60405180910390fd5b6000600b600084815260200190815260200160002054146113c0576040517f08c379a00000000000000000000000000000000000000000000000000000000081526004016113b790614095565b60405180910390fd5b60006113ca612173565b90508073ffffffffffffffffffffffffffffffffffffffff16600960009054906101000a900473ffffffffffffffffffffffffffffffffffffffff1673ffffffffffffffffffffffffffffffffffffffff16636352211e856040518263ffffffff1660e01b815260040161143e9190612f42565b602060405180830381865afa15801561145b573d6000803e3d6000fd5b505050506040513d601f19601f8201168201806040525081019061147f91906140ca565b73ffffffffffffffffffffffffffffffffffffffff16146114d5576040517f08c379a00000000000000000000000000000000000000000000000000000000081526004016114cc90614143565b60405180910390fd5b6114e081848461217b565b61151f576040517f08c379a0000000000000000000000000000000000000000000000000000000008152600401611516906141af565b60405180910390fd5b6001600b6000858152602001908152602001600020819055506115426001611aab565b6115575761155181600161223d565b50611564565b61156381600180612295565b5b505050565b611571611c2a565b61157a8161245c565b50565b6000600360009054906101000a900473ffffffffffffffffffffffffffffffffffffffff16905090565b600680546115b490613b39565b80601f01602080910402602001604051908101604052809291908181526020018280546115e090613b39565b801561162d5780601f106116025761010080835404028352916020019161162d565b820191906000526020600020905b81548152906001019060200180831161161057829003601f168201915b505050505081565b80600160003373ffffffffffffffffffffffffffffffffffffffff1673ffffffffffffffffffffffffffffffffffffffff16815260200190815260200160002060008473ffffffffffffffffffffffffffffffffffffffff1673ffffffffffffffffffffffffffffffffffffffff16815260200190815260200160002060006101000a81548160ff0219169083151502179055508173ffffffffffffffffffffffffffffffffffffffff163373ffffffffffffffffffffffffffffffffffffffff167f17307eab39ab6107e8899845ad3d59bd9653f200f220920489ca2b5937696c31836040516117269190612ffd565b60405180910390a35050565b61173a611c2a565b600760009054906101000a900467ffffffffffffffff1667ffffffffffffffff168167ffffffffffffffff1611801561177c5750428167ffffffffffffffff16115b6117bb576040517f08c379a00000000000000000000000000000000000000000000000000000000081526004016117b290614679565b60405180910390fd5b80600760086101000a81548167ffffffffffffffff021916908367ffffffffffffffff16021790555050565b600060046000838152602001908152602001600020549050919050565b6000600160008473ffffffffffffffffffffffffffffffffffffffff1673ffffffffffffffffffffffffffffffffffffffff16815260200190815260200160002060008373ffffffffffffffffffffffffffffffffffffffff1673ffffffffffffffffffffffffffffffffffffffff16815260200190815260200160002060009054906101000a900460ff16905092915050565b8473ffffffffffffffffffffffffffffffffffffffff163373ffffffffffffffffffffffffffffffffffffffff1614806118d857506118d78533611804565b5b611917576040517f08c379a000000000000000000000000000000000000000000000000000000000815260040161190e9061470b565b60405180910390fd5b600073ffffffffffffffffffffffffffffffffffffffff168473ffffffffffffffffffffffffffffffffffffffff1603611986576040517f08c379a000000000000000000000000000000000000000000000000000000000815260040161197d9061479d565b60405180910390fd5b61199285858585612476565b6119a0858585855a86612664565b5050505050565b6119af611c2a565b600073ffffffffffffffffffffffffffffffffffffffff168173ffffffffffffffffffffffffffffffffffffffff1603611a1e576040517f08c379a0000000000000000000000000000000000000000000000000000000008152600401611a159061482f565b60405180910390fd5b611a2781612396565b50565b60007f0e89341c000000000000000000000000000000000000000000000000000000007bffffffffffffffffffffffffffffffffffffffffffffffffffffffff1916827bffffffffffffffffffffffffffffffffffffffffffffffffffffffff191603611a9a5760019050611aa6565b611aa38261283b565b90505b919050565b6000806004600084815260200190815260200160002054119050919050565b606060008203611b11576040518060400160405280600181526020017f30000000000000000000000000000000000000000000000000000000000000008152509050611c25565b600082905060005b60008214611b43578080611b2c906144a1565b915050600a82611b3c919061487e565b9150611b19565b60008167ffffffffffffffff811115611b5f57611b5e61315e565b5b6040519080825280601f01601f191660200182016040528015611b915781602001600182028036833780820191505090505b5090505b60008514611c1e57600182611baa91906148af565b9150600a85611bb991906148e3565b6030611bc59190613f87565b60f81b818381518110611bdb57611bda614472565b5b60200101907effffffffffffffffffffffffffffffffffffffffffffffffffffffffffffff1916908160001a905350600a85611c17919061487e565b9450611b95565b8093505050505b919050565b611c32612173565b73ffffffffffffffffffffffffffffffffffffffff16611c5061157d565b73ffffffffffffffffffffffffffffffffffffffff1614611ca6576040517f08c379a0000000000000000000000000000000000000000000000000000000008152600401611c9d90614960565b60405180910390fd5b565b8051825114611cec576040517f08c379a0000000000000000000000000000000000000000000000000000000008152600401611ce3906149f2565b60405180910390fd5b60008251905060005b81811015611f1657611d93838281518110611d1357611d12614472565b5b60200260200101516000808973ffffffffffffffffffffffffffffffffffffffff1673ffffffffffffffffffffffffffffffffffffffff1681526020019081526020016000206000878581518110611d6e57611d6d614472565b5b60200260200101518152602001908152602001600020546128bc90919063ffffffff16565b6000808873ffffffffffffffffffffffffffffffffffffffff1673ffffffffffffffffffffffffffffffffffffffff1681526020019081526020016000206000868481518110611de657611de5614472565b5b6020026020010151815260200190815260200160002081905550611e96838281518110611e1657611e15614472565b5b60200260200101516000808873ffffffffffffffffffffffffffffffffffffffff1673ffffffffffffffffffffffffffffffffffffffff1681526020019081526020016000206000878581518110611e7157611e70614472565b5b60200260200101518152602001908152602001600020546128d290919063ffffffff16565b6000808773ffffffffffffffffffffffffffffffffffffffff1673ffffffffffffffffffffffffffffffffffffffff1681526020019081526020016000206000868481518110611ee957611ee8614472565b5b60200260200101518152602001908152602001600020819055508080611f0e906144a1565b915050611cf5565b508373ffffffffffffffffffffffffffffffffffffffff168573ffffffffffffffffffffffffffffffffffffffff163373ffffffffffffffffffffffffffffffffffffffff167f4a39dc06d4c0dbc64b70af90fd698a233a518aa5d07e595d983b8c0526c8f7fb8686604051611f8d929190614a12565b60405180910390a45050505050565b611fbb8573ffffffffffffffffffffffffffffffffffffffff166128e8565b1561216b578473ffffffffffffffffffffffffffffffffffffffff1663bc197c8133888787866040518663ffffffff1660e01b8152600401612001959493929190614a9e565b6020604051808303816000875af192505050801561203d57506040513d601f19601f8201168201806040525081019061203a9190614b1b565b60015b6120e257612049614b55565b806308c379a0036120a5575061205d614b77565b8061206857506120a7565b806040517f08c379a000000000000000000000000000000000000000000000000000000000815260040161209c91906130b1565b60405180910390fd5b505b6040517f08c379a00000000000000000000000000000000000000000000000000000000081526004016120d990614c79565b60405180910390fd5b63bc197c8160e01b7bffffffffffffffffffffffffffffffffffffffffffffffffffffffff1916817bffffffffffffffffffffffffffffffffffffffffffffffffffffffff191614612169576040517f08c379a000000000000000000000000000000000000000000000000000000000815260040161216090614d0b565b60405180910390fd5b505b505050505050565b600033905090565b600073__$5f0992d95fe464c261089015ed9f461e6e$__6393e9f8fc600860009054906101000a900473ffffffffffffffffffffffffffffffffffffffff168686866040518563ffffffff1660e01b81526004016121dc9493929190614d75565b602060405180830381865af41580156121f9573d6000803e3d6000fd5b505050506040513d601f19601f8201168201806040525081019061221d9190614dd6565b90509392505050565b600061223582600a548561290b565b905092915050565b600080612248610c68565b9050612252612922565b612270848260ff16856040518060200160405280600081525061295c565b82600460008360ff168152602001908152602001600020819055508091505092915050565b6122b3838360ff16836040518060200160405280600081525061295c565b80600460008460ff16815260200190815260200160002060008282546122d99190613f87565b92505081905550505050565b60005b825181101561237557600083828151811061230657612305614472565b5b60200260200101519050600083838151811061232557612324614472565b5b602002602001015190508061ffff16600460008460ff16815260200190815260200160002060008282546123599190613f87565b925050819055505050808061236d906144a1565b9150506122e8565b5061239183838360405180602001604052806000815250612aa5565b505050565b6000600360009054906101000a900473ffffffffffffffffffffffffffffffffffffffff16905081600360006101000a81548173ffffffffffffffffffffffffffffffffffffffff021916908373ffffffffffffffffffffffffffffffffffffffff1602179055508173ffffffffffffffffffffffffffffffffffffffff168173ffffffffffffffffffffffffffffffffffffffff167f8be0079c531659141344cd1fd0a4f28419497f9722a3daafe3b4186f6b6457e060405160405180910390a35050565b8060029080519060200190612472929190612da8565b5050565b6124d8816000808773ffffffffffffffffffffffffffffffffffffffff1673ffffffffffffffffffffffffffffffffffffffff1681526020019081526020016000206000858152602001908152602001600020546128bc90919063ffffffff16565b6000808673ffffffffffffffffffffffffffffffffffffffff1673ffffffffffffffffffffffffffffffffffffffff16815260200190815260200160002060008481526020019081526020016000208190555061258d816000808673ffffffffffffffffffffffffffffffffffffffff1673ffffffffffffffffffffffffffffffffffffffff1681526020019081526020016000206000858152602001908152602001600020546128d290919063ffffffff16565b6000808573ffffffffffffffffffffffffffffffffffffffff1673ffffffffffffffffffffffffffffffffffffffff1681526020019081526020016000206000848152602001908152602001600020819055508273ffffffffffffffffffffffffffffffffffffffff168473ffffffffffffffffffffffffffffffffffffffff163373ffffffffffffffffffffffffffffffffffffffff167fc3d58168c5ae7397731d063d5bbf3d657854427343f4c083240f7aacaa2d0f628585604051612656929190614e03565b60405180910390a450505050565b6126838573ffffffffffffffffffffffffffffffffffffffff166128e8565b15612833578473ffffffffffffffffffffffffffffffffffffffff1663f23a6e6133888787866040518663ffffffff1660e01b81526004016126c9959493929190614e2c565b6020604051808303816000875af192505050801561270557506040513d601f19601f820116820180604052508101906127029190614b1b565b60015b6127aa57612711614b55565b806308c379a00361276d5750612725614b77565b80612730575061276f565b806040517f08c379a000000000000000000000000000000000000000000000000000000000815260040161276491906130b1565b60405180910390fd5b505b6040517f08c379a00000000000000000000000000000000000000000000000000000000081526004016127a190614c79565b60405180910390fd5b63f23a6e6160e01b7bffffffffffffffffffffffffffffffffffffffffffffffffffffffff1916817bffffffffffffffffffffffffffffffffffffffffffffffffffffffff191614612831576040517f08c379a000000000000000000000000000000000000000000000000000000000815260040161282890614d0b565b60405180910390fd5b505b505050505050565b60007fd9b67a26000000000000000000000000000000000000000000000000000000007bffffffffffffffffffffffffffffffffffffffffffffffffffffffff1916827bffffffffffffffffffffffffffffffffffffffffffffffffffffffff1916036128ab57600190506128b7565b6128b482612ca6565b90505b919050565b600081836128ca91906148af565b905092915050565b600081836128e09190613f87565b905092915050565b6000808273ffffffffffffffffffffffffffffffffffffffff163b119050919050565b6000826129188584612d10565b1490509392505050565b6003601481819054906101000a900460ff168092919061294190614e86565b91906101000a81548160ff021916908360ff16021790555050565b6129be826000808773ffffffffffffffffffffffffffffffffffffffff1673ffffffffffffffffffffffffffffffffffffffff1681526020019081526020016000206000868152602001908152602001600020546128d290919063ffffffff16565b6000808673ffffffffffffffffffffffffffffffffffffffff1673ffffffffffffffffffffffffffffffffffffffff1681526020019081526020016000206000858152602001908152602001600020819055508373ffffffffffffffffffffffffffffffffffffffff16600073ffffffffffffffffffffffffffffffffffffffff163373ffffffffffffffffffffffffffffffffffffffff167fc3d58168c5ae7397731d063d5bbf3d657854427343f4c083240f7aacaa2d0f628686604051612a88929190614e03565b60405180910390a4612a9f60008585855a86612664565b50505050565b8151835114612ae9576040517f08c379a0000000000000000000000000000000000000000000000000000000008152600401612ae090614f21565b60405180910390fd5b60008351905060005b81811015612c1057612b90848281518110612b1057612b0f614472565b5b60200260200101516000808973ffffffffffffffffffffffffffffffffffffffff1673ffffffffffffffffffffffffffffffffffffffff1681526020019081526020016000206000888581518110612b6b57612b6a614472565b5b60200260200101518152602001908152602001600020546128d290919063ffffffff16565b6000808873ffffffffffffffffffffffffffffffffffffffff1673ffffffffffffffffffffffffffffffffffffffff1681526020019081526020016000206000878481518110612be357612be2614472565b5b60200260200101518152602001908152602001600020819055508080612c08906144a1565b915050612af2565b508473ffffffffffffffffffffffffffffffffffffffff16600073ffffffffffffffffffffffffffffffffffffffff163373ffffffffffffffffffffffffffffffffffffffff167f4a39dc06d4c0dbc64b70af90fd698a233a518aa5d07e595d983b8c0526c8f7fb8787604051612c88929190614a12565b60405180910390a4612c9f60008686865a87611f9c565b5050505050565b60007f01ffc9a7000000000000000000000000000000000000000000000000000000007bffffffffffffffffffffffffffffffffffffffffffffffffffffffff1916827bffffffffffffffffffffffffffffffffffffffffffffffffffffffff1916149050919050565b60008082905060005b8451811015612d5b57612d4682868381518110612d3957612d38614472565b5b6020026020010151612d66565b91508080612d53906144a1565b915050612d19565b508091505092915050565b6000818310612d7e57612d798284612d91565b612d89565b612d888383612d91565b5b905092915050565b600082600052816020526040600020905092915050565b828054612db490613b39565b90600052602060002090601f016020900481019282612dd65760008555612e1d565b82601f10612def57805160ff1916838001178555612e1d565b82800160010185558215612e1d579182015b82811115612e1c578251825591602001919060010190612e01565b5b509050612e2a9190612e2e565b5090565b5b80821115612e47576000816000905550600101612e2f565b5090565b6000604051905090565b600080fd5b600080fd5b600073ffffffffffffffffffffffffffffffffffffffff82169050919050565b6000612e8a82612e5f565b9050919050565b612e9a81612e7f565b8114612ea557600080fd5b50565b600081359050612eb781612e91565b92915050565b6000819050919050565b612ed081612ebd565b8114612edb57600080fd5b50565b600081359050612eed81612ec7565b92915050565b60008060408385031215612f0a57612f09612e55565b5b6000612f1885828601612ea8565b9250506020612f2985828601612ede565b9150509250929050565b612f3c81612ebd565b82525050565b6000602082019050612f576000830184612f33565b92915050565b60007fffffffff0000000000000000000000000000000000000000000000000000000082169050919050565b612f9281612f5d565b8114612f9d57600080fd5b50565b600081359050612faf81612f89565b92915050565b600060208284031215612fcb57612fca612e55565b5b6000612fd984828501612fa0565b91505092915050565b60008115159050919050565b612ff781612fe2565b82525050565b60006020820190506130126000830184612fee565b92915050565b600081519050919050565b600082825260208201905092915050565b60005b83811015613052578082015181840152602081019050613037565b83811115613061576000848401525b50505050565b6000601f19601f8301169050919050565b600061308382613018565b61308d8185613023565b935061309d818560208601613034565b6130a681613067565b840191505092915050565b600060208201905081810360008301526130cb8184613078565b905092915050565b6000602082840312156130e9576130e8612e55565b5b60006130f784828501612ede565b91505092915050565b61310981612fe2565b811461311457600080fd5b50565b60008135905061312681613100565b92915050565b60006020828403121561314257613141612e55565b5b600061315084828501613117565b91505092915050565b600080fd5b7f4e487b7100000000000000000000000000000000000000000000000000000000600052604160045260246000fd5b61319682613067565b810181811067ffffffffffffffff821117156131b5576131b461315e565b5b80604052505050565b60006131c8612e4b565b90506131d4828261318d565b919050565b600067ffffffffffffffff8211156131f4576131f361315e565b5b602082029050602081019050919050565b600080fd5b600061321d613218846131d9565b6131be565b905080838252602082019050602084028301858111156132405761323f613205565b5b835b8181101561326957806132558882612ede565b845260208401935050602081019050613242565b5050509392505050565b600082601f83011261328857613287613159565b5b813561329884826020860161320a565b91505092915050565b600080fd5b600067ffffffffffffffff8211156132c1576132c061315e565b5b6132ca82613067565b9050602081019050919050565b82818337600083830152505050565b60006132f96132f4846132a6565b6131be565b905082815260208101848484011115613315576133146132a1565b5b6133208482856132d7565b509392505050565b600082601f83011261333d5761333c613159565b5b813561334d8482602086016132e6565b91505092915050565b600080600080600060a0868803121561337257613371612e55565b5b600061338088828901612ea8565b955050602061339188828901612ea8565b945050604086013567ffffffffffffffff8111156133b2576133b1612e5a565b5b6133be88828901613273565b935050606086013567ffffffffffffffff8111156133df576133de612e5a565b5b6133eb88828901613273565b925050608086013567ffffffffffffffff81111561340c5761340b612e5a565b5b61341888828901613328565b9150509295509295909350565b600080fd5b60008083601f8401126134405761343f613159565b5b8235905067ffffffffffffffff81111561345d5761345c613425565b5b60208301915083602082028301111561347957613478613205565b5b9250929050565b6000806000806060858703121561349a57613499612e55565b5b60006134a887828801612ede565b945050602085013567ffffffffffffffff8111156134c9576134c8612e5a565b5b6134d587828801613328565b935050604085013567ffffffffffffffff8111156134f6576134f5612e5a565b5b6135028782880161342a565b925092505092959194509250565b600060ff82169050919050565b61352681613510565b82525050565b6000602082019050613541600083018461351d565b92915050565b6000819050919050565b61355a81613547565b82525050565b60006020820190506135756000830184613551565b92915050565b600067ffffffffffffffff8211156135965761359561315e565b5b602082029050602081019050919050565b60006135ba6135b58461357b565b6131be565b905080838252602082019050602084028301858111156135dd576135dc613205565b5b835b8181101561360657806135f28882612ea8565b8452602084019350506020810190506135df565b5050509392505050565b600082601f83011261362557613624613159565b5b81356136358482602086016135a7565b91505092915050565b6000806040838503121561365557613654612e55565b5b600083013567ffffffffffffffff81111561367357613672612e5a565b5b61367f85828601613610565b925050602083013567ffffffffffffffff8111156136a05761369f612e5a565b5b6136ac85828601613273565b9150509250929050565b600081519050919050565b600082825260208201905092915050565b6000819050602082019050919050565b6136eb81612ebd565b82525050565b60006136fd83836136e2565b60208301905092915050565b6000602082019050919050565b6000613721826136b6565b61372b81856136c1565b9350613736836136d2565b8060005b8381101561376757815161374e88826136f1565b975061375983613709565b92505060018101905061373a565b5085935050505092915050565b6000602082019050818103600083015261378e8184613716565b905092915050565b6000806000606084860312156137af576137ae612e55565b5b60006137bd86828701612ea8565b93505060206137ce86828701612ede565b92505060406137df86828701612ede565b9150509250925092565b6000602082840312156137ff576137fe612e55565b5b600061380d84828501612ea8565b91505092915050565b6000806040838503121561382d5761382c612e55565b5b600061383b85828601612ede565b925050602083013567ffffffffffffffff81111561385c5761385b612e5a565b5b61386885828601613328565b9150509250929050565b600067ffffffffffffffff82111561388d5761388c61315e565b5b61389682613067565b9050602081019050919050565b60006138b66138b184613872565b6131be565b9050828152602081018484840111156138d2576138d16132a1565b5b6138dd8482856132d7565b509392505050565b600082601f8301126138fa576138f9613159565b5b813561390a8482602086016138a3565b91505092915050565b60006020828403121561392957613928612e55565b5b600082013567ffffffffffffffff81111561394757613946612e5a565b5b613953848285016138e5565b91505092915050565b61396581612e7f565b82525050565b6000602082019050613980600083018461395c565b92915050565b6000806040838503121561399d5761399c612e55565b5b60006139ab85828601612ea8565b92505060206139bc85828601613117565b9150509250929050565b600067ffffffffffffffff82169050919050565b6139e3816139c6565b81146139ee57600080fd5b50565b600081359050613a00816139da565b92915050565b600060208284031215613a1c57613a1b612e55565b5b6000613a2a848285016139f1565b91505092915050565b60008060408385031215613a4a57613a49612e55565b5b6000613a5885828601612ea8565b9250506020613a6985828601612ea8565b9150509250929050565b600080600080600060a08688031215613a8f57613a8e612e55565b5b6000613a9d88828901612ea8565b9550506020613aae88828901612ea8565b9450506040613abf88828901612ede565b9350506060613ad088828901612ede565b925050608086013567ffffffffffffffff811115613af157613af0612e5a565b5b613afd88828901613328565b9150509295509295909350565b7f4e487b7100000000000000000000000000000000000000000000000000000000600052602260045260246000fd5b60006002820490506001821680613b5157607f821691505b602082108103613b6457613b63613b0a565b5b50919050565b7f45524331313535547261646561626c65237572693a204e4f4e4558495354454e60008201527f545f544f4b454e00000000000000000000000000000000000000000000000000602082015250565b6000613bc6602783613023565b9150613bd182613b6a565b604082019050919050565b60006020820190508181036000830152613bf581613bb9565b9050919050565b600081905092915050565b60008190508160005260206000209050919050565b60008154613c2981613b39565b613c338186613bfc565b94506001821660008114613c4e5760018114613c5f57613c92565b60ff19831686528186019350613c92565b613c6885613c07565b60005b83811015613c8a57815481890152600182019150602081019050613c6b565b838801955050505b50505092915050565b6000613ca682613018565b613cb08185613bfc565b9350613cc0818560208601613034565b80840191505092915050565b6000613cd88285613c1c565b9150613ce48284613c9b565b91508190509392505050565b7f45524331313535237361666542617463685472616e7366657246726f6d3a204960008201527f4e56414c49445f4f50455241544f520000000000000000000000000000000000602082015250565b6000613d4c602f83613023565b9150613d5782613cf0565b604082019050919050565b60006020820190508181036000830152613d7b81613d3f565b9050919050565b7f45524331313535237361666542617463685472616e7366657246726f6d3a204960008201527f4e56414c49445f524543495049454e5400000000000000000000000000000000602082015250565b6000613dde603083613023565b9150613de982613d82565b604082019050919050565b60006020820190508181036000830152613e0d81613dd1565b9050919050565b7f4d696e74696e6720697320506175736564000000000000000000000000000000600082015250565b6000613e4a601183613023565b9150613e5582613e14565b602082019050919050565b60006020820190508181036000830152613e7981613e3d565b9050919050565b7f4d696e74696e67206e6f74207965742073746172746564000000000000000000600082015250565b6000613eb6601783613023565b9150613ec182613e80565b602082019050919050565b60006020820190508181036000830152613ee581613ea9565b9050919050565b7f4d696e74696e6720616c726561647920656e6465640000000000000000000000600082015250565b6000613f22601583613023565b9150613f2d82613eec565b602082019050919050565b60006020820190508181036000830152613f5181613f15565b9050919050565b7f4e487b7100000000000000000000000000000000000000000000000000000000600052601160045260246000fd5b6000613f9282612ebd565b9150613f9d83612ebd565b9250827fffffffffffffffffffffffffffffffffffffffffffffffffffffffffffffffff03821115613fd257613fd1613f58565b5b828201905092915050565b7f416d6f756e74205072696d61204d617465726961206578636565646564000000600082015250565b6000614013601d83613023565b915061401e82613fdd565b602082019050919050565b6000602082019050818103600083015261404281614006565b9050919050565b7f546f6b656e20616c726561647920757365640000000000000000000000000000600082015250565b600061407f601283613023565b915061408a82614049565b602082019050919050565b600060208201905081810360008301526140ae81614072565b9050919050565b6000815190506140c481612e91565b92915050565b6000602082840312156140e0576140df612e55565b5b60006140ee848285016140b5565b91505092915050565b7f4e6f7420746f6b656e206f776e65720000000000000000000000000000000000600082015250565b600061412d600f83613023565b9150614138826140f7565b602082019050919050565b6000602082019050818103600083015261415c81614120565b9050919050565b7f57726f6e67207369676e61747572650000000000000000000000000000000000600082015250565b6000614199600f83613023565b91506141a482614163565b602082019050919050565b600060208201905081810360008301526141c88161418c565b9050919050565b7f41204d6174657269612073686f756c642062652063726561746564206669727360008201527f7400000000000000000000000000000000000000000000000000000000000000602082015250565b600061422b602183613023565b9150614236826141cf565b604082019050919050565b6000602082019050818103600083015261425a8161421e565b9050919050565b6000819050919050565b61427c61427782612ebd565b614261565b82525050565b600061428e828461426b565b60208201915081905092915050565b7f496e76616c6964206d65726b6c652070726f6f66000000000000000000000000600082015250565b60006142d3601483613023565b91506142de8261429d565b602082019050919050565b60006020820190508181036000830152614302816142c6565b9050919050565b600061431482613510565b915061431f83613510565b92508260ff0382111561433557614334613f58565b5b828201905092915050565b61434981612e7f565b82525050565b61435881612ebd565b82525050565b60006040820190506143736000830185614340565b614380602083018461434f565b9392505050565b61439081613547565b811461439b57600080fd5b50565b6000815190506143ad81614387565b92915050565b6000602082840312156143c9576143c8612e55565b5b60006143d78482850161439e565b91505092915050565b7f455243313135352362616c616e63654f6642617463683a20494e56414c49445f60008201527f41525241595f4c454e4754480000000000000000000000000000000000000000602082015250565b600061443c602c83613023565b9150614447826143e0565b604082019050919050565b6000602082019050818103600083015261446b8161442f565b9050919050565b7f4e487b7100000000000000000000000000000000000000000000000000000000600052603260045260246000fd5b60006144ac82612ebd565b91507fffffffffffffffffffffffffffffffffffffffffffffffffffffffffffffffff82036144de576144dd613f58565b5b600182019050919050565b7f446561646c696e65206e6f7420796574206f7665720000000000000000000000600082015250565b600061451f601583613023565b915061452a826144e9565b602082019050919050565b6000602082019050818103600083015261454e81614512565b9050919050565b7f416d6f756e74204d617465726961206578636565646564000000000000000000600082015250565b600061458b601783613023565b915061459682614555565b602082019050919050565b600060208201905081810360008301526145ba8161457e565b9050919050565b7f57726f6e67207369676e65720000000000000000000000000000000000000000600082015250565b60006145f7600c83613023565b9150614602826145c1565b602082019050919050565b60006020820190508181036000830152614626816145ea565b9050919050565b7f57726f6e6720656e6420646561646c696e650000000000000000000000000000600082015250565b6000614663601283613023565b915061466e8261462d565b602082019050919050565b6000602082019050818103600083015261469281614656565b9050919050565b7f4552433131353523736166655472616e7366657246726f6d3a20494e56414c4960008201527f445f4f50455241544f5200000000000000000000000000000000000000000000602082015250565b60006146f5602a83613023565b915061470082614699565b604082019050919050565b60006020820190508181036000830152614724816146e8565b9050919050565b7f4552433131353523736166655472616e7366657246726f6d3a20494e56414c4960008201527f445f524543495049454e54000000000000000000000000000000000000000000602082015250565b6000614787602b83613023565b91506147928261472b565b604082019050919050565b600060208201905081810360008301526147b68161477a565b9050919050565b7f4f776e61626c653a206e6577206f776e657220697320746865207a65726f206160008201527f6464726573730000000000000000000000000000000000000000000000000000602082015250565b6000614819602683613023565b9150614824826147bd565b604082019050919050565b600060208201905081810360008301526148488161480c565b9050919050565b7f4e487b7100000000000000000000000000000000000000000000000000000000600052601260045260246000fd5b600061488982612ebd565b915061489483612ebd565b9250826148a4576148a361484f565b5b828204905092915050565b60006148ba82612ebd565b91506148c583612ebd565b9250828210156148d8576148d7613f58565b5b828203905092915050565b60006148ee82612ebd565b91506148f983612ebd565b9250826149095761490861484f565b5b828206905092915050565b7f4f776e61626c653a2063616c6c6572206973206e6f7420746865206f776e6572600082015250565b600061494a602083613023565b915061495582614914565b602082019050919050565b600060208201905081810360008301526149798161493d565b9050919050565b7f45524331313535235f7361666542617463685472616e7366657246726f6d3a2060008201527f494e56414c49445f4152524159535f4c454e4754480000000000000000000000602082015250565b60006149dc603583613023565b91506149e782614980565b604082019050919050565b60006020820190508181036000830152614a0b816149cf565b9050919050565b60006040820190508181036000830152614a2c8185613716565b90508181036020830152614a408184613716565b90509392505050565b600081519050919050565b600082825260208201905092915050565b6000614a7082614a49565b614a7a8185614a54565b9350614a8a818560208601613034565b614a9381613067565b840191505092915050565b600060a082019050614ab3600083018861395c565b614ac0602083018761395c565b8181036040830152614ad28186613716565b90508181036060830152614ae68185613716565b90508181036080830152614afa8184614a65565b90509695505050505050565b600081519050614b1581612f89565b92915050565b600060208284031215614b3157614b30612e55565b5b6000614b3f84828501614b06565b91505092915050565b60008160e01c9050919050565b600060033d1115614b745760046000803e614b71600051614b48565b90505b90565b600060443d10614c0457614b89612e4b565b60043d036004823e80513d602482011167ffffffffffffffff82111715614bb1575050614c04565b808201805167ffffffffffffffff811115614bcf5750505050614c04565b80602083010160043d038501811115614bec575050505050614c04565b614bfb8260200185018661318d565b82955050505050505b90565b7f455243313135353a207472616e7366657220746f206e6f6e204552433131353560008201527f526563656976657220696d706c656d656e746572000000000000000000000000602082015250565b6000614c63603483613023565b9150614c6e82614c07565b604082019050919050565b60006020820190508181036000830152614c9281614c56565b9050919050565b7f455243313135353a204552433131353552656365697665722072656a6563746560008201527f6420746f6b656e73000000000000000000000000000000000000000000000000602082015250565b6000614cf5602883613023565b9150614d0082614c99565b604082019050919050565b60006020820190508181036000830152614d2481614ce8565b9050919050565b600082825260208201905092915050565b6000614d4782614a49565b614d518185614d2b565b9350614d61818560208601613034565b614d6a81613067565b840191505092915050565b6000608082019050614d8a6000830187614340565b614d976020830186614340565b614da4604083018561434f565b8181036060830152614db68184614d3c565b905095945050505050565b600081519050614dd081613100565b92915050565b600060208284031215614dec57614deb612e55565b5b6000614dfa84828501614dc1565b91505092915050565b6000604082019050614e186000830185612f33565b614e256020830184612f33565b9392505050565b600060a082019050614e41600083018861395c565b614e4e602083018761395c565b614e5b6040830186612f33565b614e686060830185612f33565b8181036080830152614e7a8184614a65565b90509695505050505050565b6000614e9182613510565b915060ff8203614ea457614ea3613f58565b5b600182019050919050565b7f455243313135354d696e744275726e2362617463684d696e743a20494e56414c60008201527f49445f4152524159535f4c454e47544800000000000000000000000000000000602082015250565b6000614f0b603083613023565b9150614f1682614eaf565b604082019050919050565b60006020820190508181036000830152614f3a81614efe565b905091905056fea264697066735822122028bf4371a7b8cc4865f272b902d039c40fb147c01d85b79d8b974813f430353164736f6c634300080d0033",
  "linkReferences": {
    "contracts/mocks/VerifySignatureMock.sol": {
      "VerifySignatureMock": [
        {
          "length": 20,
          "start": 6150
        },
        {
          "length": 20,
          "start": 11510
        }
      ]
    }
  },
  "deployedLinkReferences": {
    "contracts/mocks/VerifySignatureMock.sol": {
      "VerifySignatureMock": [
        {
          "length": 20,
          "start": 3215
        },
        {
          "length": 20,
          "start": 8575
        }
      ]
    }
  }
}