{
  "_format": "hh-sol-artifact-1",
  "contractName": "Antonym",
  "sourceName": "contracts/FashionNFT.sol",
  "abi": [
    {
      "inputs": [],
      "stateMutability": "nonpayable",
      "type": "constructor"
    },
    {
      "inputs": [],
      "name": "ApprovalCallerNotOwnerNorApproved",
      "type": "error"
    },
    {
      "inputs": [],
      "name": "ApprovalQueryForNonexistentToken",
      "type": "error"
    },
    {
      "inputs": [],
      "name": "ApprovalToCurrentOwner",
      "type": "error"
    },
    {
      "inputs": [],
      "name": "ApproveToCaller",
      "type": "error"
    },
    {
      "inputs": [],
      "name": "BalanceQueryForZeroAddress",
      "type": "error"
    },
    {
      "inputs": [],
      "name": "MintToZeroAddress",
      "type": "error"
    },
    {
      "inputs": [],
      "name": "MintZeroQuantity",
      "type": "error"
    },
    {
      "inputs": [],
      "name": "MintedQueryForZeroAddress",
      "type": "error"
    },
    {
      "inputs": [],
      "name": "OwnerIndexOutOfBounds",
      "type": "error"
    },
    {
      "inputs": [],
      "name": "OwnerQueryForNonexistentToken",
      "type": "error"
    },
    {
      "inputs": [],
      "name": "TokenIndexOutOfBounds",
      "type": "error"
    },
    {
      "inputs": [],
      "name": "TransferCallerNotOwnerNorApproved",
      "type": "error"
    },
    {
      "inputs": [],
      "name": "TransferFromIncorrectOwner",
      "type": "error"
    },
    {
      "inputs": [],
      "name": "TransferToNonERC721ReceiverImplementer",
      "type": "error"
    },
    {
      "inputs": [],
      "name": "TransferToZeroAddress",
      "type": "error"
    },
    {
      "anonymous": false,
      "inputs": [
        {
          "indexed": true,
          "internalType": "address",
          "name": "owner",
          "type": "address"
        },
        {
          "indexed": true,
          "internalType": "address",
          "name": "approved",
          "type": "address"
        },
        {
          "indexed": true,
          "internalType": "uint256",
          "name": "tokenId",
          "type": "uint256"
        }
      ],
      "name": "Approval",
      "type": "event"
    },
    {
      "anonymous": false,
      "inputs": [
        {
          "indexed": true,
          "internalType": "address",
          "name": "owner",
          "type": "address"
        },
        {
          "indexed": true,
          "internalType": "address",
          "name": "operator",
          "type": "address"
        },
        {
          "indexed": false,
          "internalType": "bool",
          "name": "approved",
          "type": "bool"
        }
      ],
      "name": "ApprovalForAll",
      "type": "event"
    },
    {
      "anonymous": false,
      "inputs": [
        {
          "indexed": true,
          "internalType": "address",
          "name": "previousOwner",
          "type": "address"
        },
        {
          "indexed": true,
          "internalType": "address",
          "name": "newOwner",
          "type": "address"
        }
      ],
      "name": "OwnershipTransferred",
      "type": "event"
    },
    {
      "anonymous": false,
      "inputs": [
        {
          "indexed": true,
          "internalType": "address",
          "name": "from",
          "type": "address"
        },
        {
          "indexed": true,
          "internalType": "address",
          "name": "to",
          "type": "address"
        },
        {
          "indexed": true,
          "internalType": "uint256",
          "name": "tokenId",
          "type": "uint256"
        }
      ],
      "name": "Transfer",
      "type": "event"
    },
    {
      "inputs": [],
      "name": "MAX_SALE_QUANTITY",
      "outputs": [
        {
          "internalType": "uint256",
          "name": "",
          "type": "uint256"
        }
      ],
      "stateMutability": "view",
      "type": "function"
    },
    {
      "inputs": [],
      "name": "RESERVE_MAX",
      "outputs": [
        {
          "internalType": "uint256",
          "name": "",
          "type": "uint256"
        }
      ],
      "stateMutability": "view",
      "type": "function"
    },
    {
      "inputs": [],
      "name": "TOTAL_MAX",
      "outputs": [
        {
          "internalType": "uint256",
          "name": "",
          "type": "uint256"
        }
      ],
      "stateMutability": "view",
      "type": "function"
    },
    {
      "inputs": [],
      "name": "WHITELIST_MAX",
      "outputs": [
        {
          "internalType": "uint256",
          "name": "",
          "type": "uint256"
        }
      ],
      "stateMutability": "view",
      "type": "function"
    },
    {
      "inputs": [],
      "name": "activateSale",
      "outputs": [],
      "stateMutability": "nonpayable",
      "type": "function"
    },
    {
      "inputs": [],
      "name": "activateWhitelist",
      "outputs": [],
      "stateMutability": "nonpayable",
      "type": "function"
    },
    {
      "inputs": [
        {
          "internalType": "address",
          "name": "to",
          "type": "address"
        },
        {
          "internalType": "uint256",
          "name": "tokenId",
          "type": "uint256"
        }
      ],
      "name": "approve",
      "outputs": [],
      "stateMutability": "nonpayable",
      "type": "function"
    },
    {
      "inputs": [
        {
          "internalType": "address",
          "name": "owner",
          "type": "address"
        }
      ],
      "name": "balanceOf",
      "outputs": [
        {
          "internalType": "uint256",
          "name": "",
          "type": "uint256"
        }
      ],
      "stateMutability": "view",
      "type": "function"
    },
    {
      "inputs": [
        {
          "internalType": "uint256",
          "name": "_quantity",
          "type": "uint256"
        }
      ],
      "name": "buy",
      "outputs": [],
      "stateMutability": "payable",
      "type": "function"
    },
    {
      "inputs": [],
      "name": "daVariables",
      "outputs": [
        {
          "internalType": "uint64",
          "name": "saleStartPrice",
          "type": "uint64"
        },
        {
          "internalType": "uint64",
          "name": "duration",
          "type": "uint64"
        },
        {
          "internalType": "uint64",
          "name": "interval",
          "type": "uint64"
        },
        {
          "internalType": "uint64",
          "name": "decreaseRate",
          "type": "uint64"
        }
      ],
      "stateMutability": "view",
      "type": "function"
    },
    {
      "inputs": [
        {
          "internalType": "uint256",
          "name": "tokenId",
          "type": "uint256"
        }
      ],
      "name": "getApproved",
      "outputs": [
        {
          "internalType": "address",
          "name": "",
          "type": "address"
        }
      ],
      "stateMutability": "view",
      "type": "function"
    },
    {
      "inputs": [],
      "name": "getCurrentPrice",
      "outputs": [
        {
          "internalType": "uint256",
          "name": "",
          "type": "uint256"
        }
      ],
      "stateMutability": "view",
      "type": "function"
    },
    {
      "inputs": [
        {
          "internalType": "address",
          "name": "owner",
          "type": "address"
        },
        {
          "internalType": "address",
          "name": "operator",
          "type": "address"
        }
      ],
      "name": "isApprovedForAll",
      "outputs": [
        {
          "internalType": "bool",
          "name": "",
          "type": "bool"
        }
      ],
      "stateMutability": "view",
      "type": "function"
    },
    {
      "inputs": [
        {
          "internalType": "uint256",
          "name": "_quantity",
          "type": "uint256"
        }
      ],
      "name": "mintWhitelist",
      "outputs": [],
      "stateMutability": "payable",
      "type": "function"
    },
    {
      "inputs": [],
      "name": "name",
      "outputs": [
        {
          "internalType": "string",
          "name": "",
          "type": "string"
        }
      ],
      "stateMutability": "view",
      "type": "function"
    },
    {
      "inputs": [
        {
          "internalType": "address",
          "name": "owner",
          "type": "address"
        }
      ],
      "name": "numberMinted",
      "outputs": [
        {
          "internalType": "uint256",
          "name": "",
          "type": "uint256"
        }
      ],
      "stateMutability": "view",
      "type": "function"
    },
    {
      "inputs": [],
      "name": "owner",
      "outputs": [
        {
          "internalType": "address",
          "name": "",
          "type": "address"
        }
      ],
      "stateMutability": "view",
      "type": "function"
    },
    {
      "inputs": [
        {
          "internalType": "uint256",
          "name": "tokenId",
          "type": "uint256"
        }
      ],
      "name": "ownerOf",
      "outputs": [
        {
          "internalType": "address",
          "name": "",
          "type": "address"
        }
      ],
      "stateMutability": "view",
      "type": "function"
    },
    {
      "inputs": [
        {
          "internalType": "address",
          "name": "_account",
          "type": "address"
        },
        {
          "internalType": "uint256",
          "name": "_quantity",
          "type": "uint256"
        }
      ],
      "name": "releaseReserve",
      "outputs": [],
      "stateMutability": "nonpayable",
      "type": "function"
    },
    {
      "inputs": [],
      "name": "renounceOwnership",
      "outputs": [],
      "stateMutability": "nonpayable",
      "type": "function"
    },
    {
      "inputs": [],
      "name": "reserveCount",
      "outputs": [
        {
          "internalType": "uint256",
          "name": "",
          "type": "uint256"
        }
      ],
      "stateMutability": "view",
      "type": "function"
    },
    {
      "inputs": [],
      "name": "revealed",
      "outputs": [
        {
          "internalType": "bool",
          "name": "",
          "type": "bool"
        }
      ],
      "stateMutability": "view",
      "type": "function"
    },
    {
      "inputs": [
        {
          "internalType": "uint256",
          "name": "_tokenId",
          "type": "uint256"
        },
        {
          "internalType": "uint256",
          "name": "_salePrice",
          "type": "uint256"
        }
      ],
      "name": "royaltyInfo",
      "outputs": [
        {
          "internalType": "address",
          "name": "receiver",
          "type": "address"
        },
        {
          "internalType": "uint256",
          "name": "royaltyAmount",
          "type": "uint256"
        }
      ],
      "stateMutability": "view",
      "type": "function"
    },
    {
      "inputs": [
        {
          "internalType": "address",
          "name": "from",
          "type": "address"
        },
        {
          "internalType": "address",
          "name": "to",
          "type": "address"
        },
        {
          "internalType": "uint256",
          "name": "tokenId",
          "type": "uint256"
        }
      ],
      "name": "safeTransferFrom",
      "outputs": [],
      "stateMutability": "nonpayable",
      "type": "function"
    },
    {
      "inputs": [
        {
          "internalType": "address",
          "name": "from",
          "type": "address"
        },
        {
          "internalType": "address",
          "name": "to",
          "type": "address"
        },
        {
          "internalType": "uint256",
          "name": "tokenId",
          "type": "uint256"
        },
        {
          "internalType": "bytes",
          "name": "_data",
          "type": "bytes"
        }
      ],
      "name": "safeTransferFrom",
      "outputs": [],
      "stateMutability": "nonpayable",
      "type": "function"
    },
    {
      "inputs": [],
      "name": "saleActive",
      "outputs": [
        {
          "internalType": "bool",
          "name": "",
          "type": "bool"
        }
      ],
      "stateMutability": "view",
      "type": "function"
    },
    {
      "inputs": [],
      "name": "saleMax",
      "outputs": [
        {
          "internalType": "uint256",
          "name": "",
          "type": "uint256"
        }
      ],
      "stateMutability": "view",
      "type": "function"
    },
    {
      "inputs": [
        {
          "internalType": "address",
          "name": "operator",
          "type": "address"
        },
        {
          "internalType": "bool",
          "name": "approved",
          "type": "bool"
        }
      ],
      "name": "setApprovalForAll",
      "outputs": [],
      "stateMutability": "nonpayable",
      "type": "function"
    },
    {
      "inputs": [
        {
          "internalType": "string",
          "name": "_baseURI",
          "type": "string"
        },
        {
          "internalType": "bool",
          "name": "reveal",
          "type": "bool"
        }
      ],
      "name": "setBaseURI",
      "outputs": [],
      "stateMutability": "nonpayable",
      "type": "function"
    },
    {
      "inputs": [
        {
          "internalType": "address",
          "name": "_paymentAddress",
          "type": "address"
        }
      ],
      "name": "setPaymentAddress",
      "outputs": [],
      "stateMutability": "nonpayable",
      "type": "function"
    },
    {
      "inputs": [
        {
          "internalType": "uint96",
          "name": "_royaltyBasisPoints",
          "type": "uint96"
        }
      ],
      "name": "setRoyalty",
      "outputs": [],
      "stateMutability": "nonpayable",
      "type": "function"
    },
    {
      "inputs": [
        {
          "internalType": "address",
          "name": "_royaltyAddress",
          "type": "address"
        }
      ],
      "name": "setRoyaltyAddress",
      "outputs": [],
      "stateMutability": "nonpayable",
      "type": "function"
    },
    {
      "inputs": [
        {
          "internalType": "uint32",
          "name": "_startTime",
          "type": "uint32"
        },
        {
          "internalType": "uint64",
          "name": "_saleStartPrice",
          "type": "uint64"
        },
        {
          "internalType": "uint64",
          "name": "_duration",
          "type": "uint64"
        },
        {
          "internalType": "uint64",
          "name": "_interval",
          "type": "uint64"
        },
        {
          "internalType": "uint64",
          "name": "_decreaseRate",
          "type": "uint64"
        }
      ],
      "name": "setSaleVariables",
      "outputs": [],
      "stateMutability": "nonpayable",
      "type": "function"
    },
    {
      "inputs": [
        {
          "internalType": "address[]",
          "name": "whitelisters",
          "type": "address[]"
        },
        {
          "internalType": "bool",
          "name": "ogStatus",
          "type": "bool"
        }
      ],
      "name": "setWhitelist",
      "outputs": [],
      "stateMutability": "nonpayable",
      "type": "function"
    },
    {
      "inputs": [
        {
          "internalType": "uint256",
          "name": "_newPrice",
          "type": "uint256"
        }
      ],
      "name": "setWhitelistPrice",
      "outputs": [],
      "stateMutability": "nonpayable",
      "type": "function"
    },
    {
      "inputs": [],
      "name": "startTime",
      "outputs": [
        {
          "internalType": "uint32",
          "name": "",
          "type": "uint32"
        }
      ],
      "stateMutability": "view",
      "type": "function"
    },
    {
      "inputs": [
        {
          "internalType": "bytes4",
          "name": "interfaceId",
          "type": "bytes4"
        }
      ],
      "name": "supportsInterface",
      "outputs": [
        {
          "internalType": "bool",
          "name": "",
          "type": "bool"
        }
      ],
      "stateMutability": "view",
      "type": "function"
    },
    {
      "inputs": [],
      "name": "symbol",
      "outputs": [
        {
          "internalType": "string",
          "name": "",
          "type": "string"
        }
      ],
      "stateMutability": "view",
      "type": "function"
    },
    {
      "inputs": [
        {
          "internalType": "uint256",
          "name": "index",
          "type": "uint256"
        }
      ],
      "name": "tokenByIndex",
      "outputs": [
        {
          "internalType": "uint256",
          "name": "",
          "type": "uint256"
        }
      ],
      "stateMutability": "view",
      "type": "function"
    },
    {
      "inputs": [
        {
          "internalType": "address",
          "name": "owner",
          "type": "address"
        },
        {
          "internalType": "uint256",
          "name": "index",
          "type": "uint256"
        }
      ],
      "name": "tokenOfOwnerByIndex",
      "outputs": [
        {
          "internalType": "uint256",
          "name": "",
          "type": "uint256"
        }
      ],
      "stateMutability": "view",
      "type": "function"
    },
    {
      "inputs": [
        {
          "internalType": "uint256",
          "name": "_tokenId",
          "type": "uint256"
        }
      ],
      "name": "tokenURI",
      "outputs": [
        {
          "internalType": "string",
          "name": "",
          "type": "string"
        }
      ],
      "stateMutability": "view",
      "type": "function"
    },
    {
      "inputs": [],
      "name": "totalSupply",
      "outputs": [
        {
          "internalType": "uint256",
          "name": "",
          "type": "uint256"
        }
      ],
      "stateMutability": "view",
      "type": "function"
    },
    {
      "inputs": [
        {
          "internalType": "address",
          "name": "from",
          "type": "address"
        },
        {
          "internalType": "address",
          "name": "to",
          "type": "address"
        },
        {
          "internalType": "uint256",
          "name": "tokenId",
          "type": "uint256"
        }
      ],
      "name": "transferFrom",
      "outputs": [],
      "stateMutability": "nonpayable",
      "type": "function"
    },
    {
      "inputs": [],
      "name": "transferFunds",
      "outputs": [],
      "stateMutability": "nonpayable",
      "type": "function"
    },
    {
      "inputs": [
        {
          "internalType": "address",
          "name": "newOwner",
          "type": "address"
        }
      ],
      "name": "transferOwnership",
      "outputs": [],
      "stateMutability": "nonpayable",
      "type": "function"
    },
    {
      "inputs": [],
      "name": "whitelistActive",
      "outputs": [
        {
          "internalType": "bool",
          "name": "",
          "type": "bool"
        }
      ],
      "stateMutability": "view",
      "type": "function"
    },
    {
      "inputs": [],
      "name": "whitelistCount",
      "outputs": [
        {
          "internalType": "uint256",
          "name": "",
          "type": "uint256"
        }
      ],
      "stateMutability": "view",
      "type": "function"
    },
    {
      "inputs": [],
      "name": "whitelistPrice",
      "outputs": [
        {
          "internalType": "uint256",
          "name": "",
          "type": "uint256"
        }
      ],
      "stateMutability": "view",
      "type": "function"
    },
    {
      "inputs": [
        {
          "internalType": "address",
          "name": "",
          "type": "address"
        }
      ],
      "name": "whitelists",
      "outputs": [
        {
          "internalType": "uint256",
          "name": "",
          "type": "uint256"
        }
      ],
      "stateMutability": "view",
      "type": "function"
    }
  ],
  "bytecode": "0x608060405267029140851372800060095561032a601160146101000a8154816bffffffffffffffffffffffff02191690836bffffffffffffffffffffffff1602179055503480156200005057600080fd5b506040518060400160405280600781526020017f416e746f6e796d000000000000000000000000000000000000000000000000008152506040518060400160405280600781526020017f414e544f4e594d000000000000000000000000000000000000000000000000008152508160029080519060200190620000d5929190620001e5565b508060039080519060200190620000ee929190620001e5565b50505062000111620001056200011760201b60201c565b6200011f60201b60201c565b620002f9565b600033905090565b6000600860009054906101000a900473ffffffffffffffffffffffffffffffffffffffff16905081600860006101000a81548173ffffffffffffffffffffffffffffffffffffffff021916908373ffffffffffffffffffffffffffffffffffffffff1602179055508173ffffffffffffffffffffffffffffffffffffffff168173ffffffffffffffffffffffffffffffffffffffff167f8be0079c531659141344cd1fd0a4f28419497f9722a3daafe3b4186f6b6457e060405160405180910390a35050565b828054620001f390620002c4565b90600052602060002090601f01602090048101928262000217576000855562000263565b82601f106200023257805160ff191683800117855562000263565b8280016001018555821562000263579182015b828111156200026257825182559160200191906001019062000245565b5b50905062000272919062000276565b5090565b5b808211156200029157600081600090555060010162000277565b5090565b7f4e487b7100000000000000000000000000000000000000000000000000000000600052602260045260246000fd5b60006002820490506001821680620002dd57607f821691505b602082108103620002f357620002f262000295565b5b50919050565b6150ff80620003096000396000f3fe6080604052600436106102ae5760003560e01c806368428a1b11610175578063b64b21ca116100dc578063d96a094a11610095578063eb91d37e1161006f578063eb91d37e14610a84578063f2624b5d14610aaf578063f2fde38b14610ada578063fc1a1c3614610b03576102ae565b8063d96a094a146109ee578063dc33e68114610a0a578063e985e9c514610a47576102ae565b8063b64b21ca146108f4578063b88d4fde1461091d578063c3dc6ecf14610946578063c721f08d14610971578063c87b56dd14610988578063cac92669146109c5576102ae565b806389e877a31161012e57806389e877a31461080a5780638da5cb5b1461082157806395d89b411461084c578063a08a81d714610877578063a22cb465146108a2578063accb1639146108cb576102ae565b806368428a1b1461070e57806370a0823114610739578063715018a614610776578063717d57d31461078d57806378e97925146107b65780637c7b2ff0146107e1576102ae565b80632ec7be0b116102195780634618163e116101d25780634618163e146105f95780634f6ccce71461061557806351830227146106525780635e1e10041461067d5780636352211e146106a657806365db29c3146106e3576102ae565b80632ec7be0b146104fd5780632f745c59146105285780633c271a05146105655780633c68eb811461058e578063414fb760146105a557806342842e0e146105d0576102ae565b806316317c211161026b57806316317c21146103d5578063166bfa041461040057806318160ddd1461042e5780631e7be2101461045957806323b872dd146104965780632a55205a146104bf576102ae565b806301ffc9a7146102b357806302ce5813146102f057806306d254da1461031b57806306fdde0314610344578063081812fc1461036f578063095ea7b3146103ac575b600080fd5b3480156102bf57600080fd5b506102da60048036038101906102d59190613bc3565b610b2e565b6040516102e79190613c0b565b60405180910390f35b3480156102fc57600080fd5b50610305610b96565b6040516103129190613c0b565b60405180910390f35b34801561032757600080fd5b50610342600480360381019061033d9190613c84565b610ba9565b005b34801561035057600080fd5b50610359610bf5565b6040516103669190613d4a565b60405180910390f35b34801561037b57600080fd5b5061039660048036038101906103919190613da2565b610c87565b6040516103a39190613dde565b60405180910390f35b3480156103b857600080fd5b506103d360048036038101906103ce9190613df9565b610d03565b005b3480156103e157600080fd5b506103ea610e0d565b6040516103f79190613e48565b60405180910390f35b34801561040c57600080fd5b50610415610e13565b6040516104259493929190613e86565b60405180910390f35b34801561043a57600080fd5b50610443610e81565b6040516104509190613e48565b60405180910390f35b34801561046557600080fd5b50610480600480360381019061047b9190613c84565b610e8f565b60405161048d9190613e48565b60405180910390f35b3480156104a257600080fd5b506104bd60048036038101906104b89190613ecb565b610ea7565b005b3480156104cb57600080fd5b506104e660048036038101906104e19190613f1e565b610eb7565b6040516104f4929190613f5e565b60405180910390f35b34801561050957600080fd5b50610512610f71565b60405161051f9190613e48565b60405180910390f35b34801561053457600080fd5b5061054f600480360381019061054a9190613df9565b610fcc565b60405161055c9190613e48565b60405180910390f35b34801561057157600080fd5b5061058c60048036038101906105879190614018565b6111a3565b005b34801561059a57600080fd5b506105a3611254565b005b3480156105b157600080fd5b506105ba61132d565b6040516105c79190613e48565b60405180910390f35b3480156105dc57600080fd5b506105f760048036038101906105f29190613ecb565b611332565b005b610613600480360381019061060e9190613da2565b611352565b005b34801561062157600080fd5b5061063c60048036038101906106379190613da2565b611626565b6040516106499190613e48565b60405180910390f35b34801561065e57600080fd5b5061066761176a565b6040516106749190613c0b565b60405180910390f35b34801561068957600080fd5b506106a4600480360381019061069f9190613c84565b61177d565b005b3480156106b257600080fd5b506106cd60048036038101906106c89190613da2565b6117c9565b6040516106da9190613dde565b60405180910390f35b3480156106ef57600080fd5b506106f86117df565b6040516107059190613e48565b60405180910390f35b34801561071a57600080fd5b506107236117e5565b6040516107309190613c0b565b60405180910390f35b34801561074557600080fd5b50610760600480360381019061075b9190613c84565b6117f8565b60405161076d9190613e48565b60405180910390f35b34801561078257600080fd5b5061078b6118c7565b005b34801561079957600080fd5b506107b460048036038101906107af9190613da2565b6118db565b005b3480156107c257600080fd5b506107cb6118ed565b6040516107d89190614097565b60405180910390f35b3480156107ed57600080fd5b506108086004803603810190610803919061410a565b611903565b005b34801561081657600080fd5b5061081f611a57565b005b34801561082d57600080fd5b50610836611ab1565b6040516108439190613dde565b60405180910390f35b34801561085857600080fd5b50610861611adb565b60405161086e9190613d4a565b60405180910390f35b34801561088357600080fd5b5061088c611b6d565b6040516108999190613e48565b60405180910390f35b3480156108ae57600080fd5b506108c960048036038101906108c49190614185565b611b73565b005b3480156108d757600080fd5b506108f260048036038101906108ed9190613df9565b611cea565b005b34801561090057600080fd5b5061091b6004803603810190610916919061421b565b611da8565b005b34801561092957600080fd5b50610944600480360381019061093f91906143ab565b611e01565b005b34801561095257600080fd5b5061095b611e54565b6040516109689190613e48565b60405180910390f35b34801561097d57600080fd5b50610986611e59565b005b34801561099457600080fd5b506109af60048036038101906109aa9190613da2565b611fbc565b6040516109bc9190613d4a565b60405180910390f35b3480156109d157600080fd5b506109ec60048036038101906109e79190614472565b6120e0565b005b610a086004803603810190610a039190613da2565b61211c565b005b348015610a1657600080fd5b50610a316004803603810190610a2c9190613c84565b61251e565b604051610a3e9190613e48565b60405180910390f35b348015610a5357600080fd5b50610a6e6004803603810190610a69919061449f565b612530565b604051610a7b9190613c0b565b60405180910390f35b348015610a9057600080fd5b50610a996125c4565b604051610aa69190613e48565b60405180910390f35b348015610abb57600080fd5b50610ac46127b2565b604051610ad19190613e48565b60405180910390f35b348015610ae657600080fd5b50610b016004803603810190610afc9190613c84565b6127b8565b005b348015610b0f57600080fd5b50610b1861283b565b604051610b259190613e48565b60405180910390f35b6000632a55205a60e01b7bffffffffffffffffffffffffffffffffffffffffffffffffffffffff1916827bffffffffffffffffffffffffffffffffffffffffffffffffffffffff191603610b855760019050610b91565b610b8e82612841565b90505b919050565b600c60059054906101000a900460ff1681565b610bb1612923565b80601160006101000a81548173ffffffffffffffffffffffffffffffffffffffff021916908373ffffffffffffffffffffffffffffffffffffffff16021790555050565b606060028054610c049061450e565b80601f0160208091040260200160405190810160405280929190818152602001828054610c309061450e565b8015610c7d5780601f10610c5257610100808354040283529160200191610c7d565b820191906000526020600020905b815481529060010190602001808311610c6057829003601f168201915b5050505050905090565b6000610c92826129a1565b610cc8576040517fcf4700e400000000000000000000000000000000000000000000000000000000815260040160405180910390fd5b6006600083815260200190815260200160002060009054906101000a900473ffffffffffffffffffffffffffffffffffffffff169050919050565b6000610d0e826117c9565b90508073ffffffffffffffffffffffffffffffffffffffff168373ffffffffffffffffffffffffffffffffffffffff1603610d75576040517f943f7b8c00000000000000000000000000000000000000000000000000000000815260040160405180910390fd5b8073ffffffffffffffffffffffffffffffffffffffff16610d946129db565b73ffffffffffffffffffffffffffffffffffffffff1614158015610dc65750610dc481610dbf6129db565b612530565b155b15610dfd576040517fcfb3b94200000000000000000000000000000000000000000000000000000000815260040160405180910390fd5b610e088383836129e3565b505050565b600b5481565b600d8060000160009054906101000a900467ffffffffffffffff16908060000160089054906101000a900467ffffffffffffffff16908060000160109054906101000a900467ffffffffffffffff16908060000160189054906101000a900467ffffffffffffffff16905084565b600060015460005403905090565b600e6020528060005260406000206000915090505481565b610eb2838383612a95565b505050565b600080610ec3846129a1565b610f02576040517f08c379a0000000000000000000000000000000000000000000000000000000008152600401610ef99061458b565b60405180910390fd5b601160009054906101000a900473ffffffffffffffffffffffffffffffffffffffff16612710601160149054906101000a90046bffffffffffffffffffffffff166bffffffffffffffffffffffff1685610f5c91906145da565b610f669190614663565b915091509250929050565b6000600c60069054906101000a900460ff16610faa5761113060586122b8610f999190614694565b610fa39190614694565b9050610fc9565b600a5460586122b8610fbc9190614694565b610fc69190614694565b90505b90565b6000610fd7836117f8565b821061100f576040517f0ddac30e00000000000000000000000000000000000000000000000000000000815260040160405180910390fd5b60008054905060008060005b83811015611197576000600460008381526020019081526020016000206040518060600160405290816000820160009054906101000a900473ffffffffffffffffffffffffffffffffffffffff1673ffffffffffffffffffffffffffffffffffffffff1673ffffffffffffffffffffffffffffffffffffffff1681526020016000820160149054906101000a900467ffffffffffffffff1667ffffffffffffffff1667ffffffffffffffff16815260200160008201601c9054906101000a900460ff16151515158152505090508060400151156110f8575061118a565b600073ffffffffffffffffffffffffffffffffffffffff16816000015173ffffffffffffffffffffffffffffffffffffffff161461113857806000015192505b8773ffffffffffffffffffffffffffffffffffffffff168373ffffffffffffffffffffffffffffffffffffffff16036111885786840361117f57819550505050505061119d565b83806001019450505b505b808060010191505061101b565b50600080fd5b92915050565b6111ab612923565b6000816111b95760016111bc565b60025b60ff16905060005b8484905081101561124d5781600e60008787858181106111e7576111e66146c8565b5b90506020020160208101906111fc9190613c84565b73ffffffffffffffffffffffffffffffffffffffff1673ffffffffffffffffffffffffffffffffffffffff168152602001908152602001600020819055508080611245906146f7565b9150506111c4565b5050505050565b61125c612923565b6000601060019054906101000a900473ffffffffffffffffffffffffffffffffffffffff1673ffffffffffffffffffffffffffffffffffffffff16476040516112a490614770565b60006040518083038185875af1925050503d80600081146112e1576040519150601f19603f3d011682016040523d82523d6000602084013e6112e6565b606091505b505090508061132a576040517f08c379a0000000000000000000000000000000000000000000000000000000008152600401611321906147d1565b60405180910390fd5b50565b605881565b61134d83838360405180602001604052806000815250611e01565b505050565b600c60069054906101000a900460ff16156113a2576040517f08c379a00000000000000000000000000000000000000000000000000000000081526004016113999061483d565b60405180910390fd5b600c60059054906101000a900460ff166113f1576040517f08c379a00000000000000000000000000000000000000000000000000000000081526004016113e8906148a9565b60405180910390fd5b6000600e60003373ffffffffffffffffffffffffffffffffffffffff1673ffffffffffffffffffffffffffffffffffffffff16815260200190815260200160002054905061113082600a5461144691906148c9565b1115611487576040517f08c379a000000000000000000000000000000000000000000000000000000000815260040161147e9061496b565b60405180910390fd5b600081141580156114985750808211155b6114d7576040517f08c379a00000000000000000000000000000000000000000000000000000000081526004016114ce906149d7565b60405180910390fd5b816009546114e591906145da565b3414611526576040517f08c379a000000000000000000000000000000000000000000000000000000000815260040161151d90614a43565b60405180910390fd5b80820361157557600e60003373ffffffffffffffffffffffffffffffffffffffff1673ffffffffffffffffffffffffffffffffffffffff16815260200190815260200160002060009055611604565b81600e60003373ffffffffffffffffffffffffffffffffffffffff1673ffffffffffffffffffffffffffffffffffffffff168152602001908152602001600020546115c09190614694565b600e60003373ffffffffffffffffffffffffffffffffffffffff1673ffffffffffffffffffffffffffffffffffffffff168152602001908152602001600020819055505b81600a5461161291906148c9565b600a819055506116223383612f84565b5050565b60008060005490506000805b82811015611732576000600460008381526020019081526020016000206040518060600160405290816000820160009054906101000a900473ffffffffffffffffffffffffffffffffffffffff1673ffffffffffffffffffffffffffffffffffffffff1673ffffffffffffffffffffffffffffffffffffffff1681526020016000820160149054906101000a900467ffffffffffffffff1667ffffffffffffffff1667ffffffffffffffff16815260200160008201601c9054906101000a900460ff161515151581525050905080604001516117245785830361171b5781945050505050611765565b82806001019350505b508080600101915050611632565b506040517fa723001c00000000000000000000000000000000000000000000000000000000815260040160405180910390fd5b919050565b601060009054906101000a900460ff1681565b611785612923565b80601060016101000a81548173ffffffffffffffffffffffffffffffffffffffff021916908373ffffffffffffffffffffffffffffffffffffffff16021790555050565b60006117d482612fa2565b600001519050919050565b61113081565b600c60049054906101000a900460ff1681565b60008073ffffffffffffffffffffffffffffffffffffffff168273ffffffffffffffffffffffffffffffffffffffff160361185f576040517f8f4eb60400000000000000000000000000000000000000000000000000000000815260040160405180910390fd5b600560008373ffffffffffffffffffffffffffffffffffffffff1673ffffffffffffffffffffffffffffffffffffffff16815260200190815260200160002060000160009054906101000a900467ffffffffffffffff1667ffffffffffffffff169050919050565b6118cf612923565b6118d9600061321e565b565b6118e3612923565b8060098190555050565b600c60009054906101000a900463ffffffff1681565b61190b612923565b600c60049054906101000a900460ff161561192557600080fd5b84600c60006101000a81548163ffffffff021916908363ffffffff16021790555060405180608001604052808567ffffffffffffffff1681526020018467ffffffffffffffff1681526020018367ffffffffffffffff1681526020018267ffffffffffffffff16815250600d60008201518160000160006101000a81548167ffffffffffffffff021916908367ffffffffffffffff16021790555060208201518160000160086101000a81548167ffffffffffffffff021916908367ffffffffffffffff16021790555060408201518160000160106101000a81548167ffffffffffffffff021916908367ffffffffffffffff16021790555060608201518160000160186101000a81548167ffffffffffffffff021916908367ffffffffffffffff1602179055509050505050505050565b611a5f612923565b600c60059054906101000a900460ff1615611a93576000600c60056101000a81548160ff0219169083151502179055611aae565b6001600c60056101000a81548160ff02191690831515021790555b50565b6000600860009054906101000a900473ffffffffffffffffffffffffffffffffffffffff16905090565b606060038054611aea9061450e565b80601f0160208091040260200160405190810160405280929190818152602001828054611b169061450e565b8015611b635780601f10611b3857610100808354040283529160200191611b63565b820191906000526020600020905b815481529060010190602001808311611b4657829003601f168201915b5050505050905090565b6122b881565b611b7b6129db565b73ffffffffffffffffffffffffffffffffffffffff168273ffffffffffffffffffffffffffffffffffffffff1603611bdf576040517fb06307db00000000000000000000000000000000000000000000000000000000815260040160405180910390fd5b8060076000611bec6129db565b73ffffffffffffffffffffffffffffffffffffffff1673ffffffffffffffffffffffffffffffffffffffff16815260200190815260200160002060008473ffffffffffffffffffffffffffffffffffffffff1673ffffffffffffffffffffffffffffffffffffffff16815260200190815260200160002060006101000a81548160ff0219169083151502179055508173ffffffffffffffffffffffffffffffffffffffff16611c996129db565b73ffffffffffffffffffffffffffffffffffffffff167f17307eab39ab6107e8899845ad3d59bd9653f200f220920489ca2b5937696c3183604051611cde9190613c0b565b60405180910390a35050565b611cf2612923565b60008111611d35576040517f08c379a0000000000000000000000000000000000000000000000000000000008152600401611d2c90614aaf565b60405180910390fd5b605881600b54611d4591906148c9565b1115611d86576040517f08c379a0000000000000000000000000000000000000000000000000000000008152600401611d7d90614b1b565b60405180910390fd5b80600b54611d9491906148c9565b600b81905550611da48282612f84565b5050565b611db0612923565b601060009054906101000a900460ff16158015611dca5750805b15611dea5780601060006101000a81548160ff0219169083151502179055505b8282600f9190611dfb929190613a71565b50505050565b611e0c848484612a95565b611e18848484846132e4565b611e4e576040517fd1a57ed600000000000000000000000000000000000000000000000000000000815260040160405180910390fd5b50505050565b600381565b611e61612923565b6000600d60000160009054906101000a900467ffffffffffffffff1667ffffffffffffffff1603611ec7576040517f08c379a0000000000000000000000000000000000000000000000000000000008152600401611ebe90614b87565b60405180910390fd5b600c60069054906101000a900460ff16611ef7576001600c60066101000a81548160ff0219169083151502179055505b600c60059054906101000a900460ff1615611f28576000600c60056101000a81548160ff0219169083151502179055505b6000600c60009054906101000a900463ffffffff1663ffffffff1603611f6a5742600c60006101000a81548163ffffffff021916908363ffffffff1602179055505b600c60049054906101000a900460ff1615611f9e576000600c60046101000a81548160ff0219169083151502179055611fb9565b6001600c60046101000a81548160ff02191690831515021790555b50565b6060611fc7826129a1565b612006576040517f08c379a0000000000000000000000000000000000000000000000000000000008152600401611ffd9061458b565b60405180910390fd5b601060009054906101000a900460ff161561204d57600f61202683613462565b604051602001612037929190614c77565b60405160208183030381529060405290506120db565b600f805461205a9061450e565b80601f01602080910402602001604051908101604052809291908181526020018280546120869061450e565b80156120d35780601f106120a8576101008083540402835291602001916120d3565b820191906000526020600020905b8154815290600101906020018083116120b657829003601f168201915b505050505090505b919050565b6120e8612923565b80601160146101000a8154816bffffffffffffffffffffffff02191690836bffffffffffffffffffffffff16021790555050565b600c60049054906101000a900460ff1661216b576040517f08c379a000000000000000000000000000000000000000000000000000000000815260040161216290614ce7565b60405180910390fd5b3373ffffffffffffffffffffffffffffffffffffffff163273ffffffffffffffffffffffffffffffffffffffff16146121d9576040517f08c379a00000000000000000000000000000000000000000000000000000000081526004016121d090614d53565b60405180910390fd5b6003816121e5336135c2565b6121ef91906148c9565b1115612230576040517f08c379a000000000000000000000000000000000000000000000000000000000815260040161222790614dbf565b60405180910390fd5b60586122b861223f9190614694565b81600b5461224b610e81565b6122559190614694565b61225f91906148c9565b11156122a0576040517f08c379a000000000000000000000000000000000000000000000000000000000815260040161229790614e2b565b60405180910390fd5b600080600d6040518060800160405290816000820160009054906101000a900467ffffffffffffffff1667ffffffffffffffff1667ffffffffffffffff1681526020016000820160089054906101000a900467ffffffffffffffff1667ffffffffffffffff1667ffffffffffffffff1681526020016000820160109054906101000a900467ffffffffffffffff1667ffffffffffffffff1667ffffffffffffffff1681526020016000820160189054906101000a900467ffffffffffffffff1667ffffffffffffffff1667ffffffffffffffff16815250509050806020015167ffffffffffffffff16600c60009054906101000a900463ffffffff1663ffffffff16426123ad9190614694565b106123c757826009546123c091906145da565b915061245f565b6000816040015167ffffffffffffffff16600c60009054906101000a900463ffffffff1663ffffffff16426123fc9190614694565b6124069190614663565b905083826060015167ffffffffffffffff168261242391906145da565b600d60000160009054906101000a900467ffffffffffffffff1667ffffffffffffffff166124519190614694565b61245b91906145da565b9250505b813410156124a2576040517f08c379a000000000000000000000000000000000000000000000000000000000815260040161249990614e97565b60405180910390fd5b6124be3384604051806020016040528060008152506001613691565b81341115612519573373ffffffffffffffffffffffffffffffffffffffff166108fc83346124ec9190614694565b9081150290604051600060405180830381858888f19350505050158015612517573d6000803e3d6000fd5b505b505050565b6000612529826135c2565b9050919050565b6000600760008473ffffffffffffffffffffffffffffffffffffffff1673ffffffffffffffffffffffffffffffffffffffff16815260200190815260200160002060008373ffffffffffffffffffffffffffffffffffffffff1673ffffffffffffffffffffffffffffffffffffffff16815260200190815260200160002060009054906101000a900460ff16905092915050565b6000600c60049054906101000a900460ff1661260557600d60000160009054906101000a900467ffffffffffffffff1667ffffffffffffffff1690506127af565b6000600d6040518060800160405290816000820160009054906101000a900467ffffffffffffffff1667ffffffffffffffff1667ffffffffffffffff1681526020016000820160089054906101000a900467ffffffffffffffff1667ffffffffffffffff1667ffffffffffffffff1681526020016000820160109054906101000a900467ffffffffffffffff1667ffffffffffffffff1667ffffffffffffffff1681526020016000820160189054906101000a900467ffffffffffffffff1667ffffffffffffffff1667ffffffffffffffff16815250509050806020015167ffffffffffffffff16600c60009054906101000a900463ffffffff1663ffffffff16426127119190614694565b10612721576009549150506127af565b6000816040015167ffffffffffffffff16600c60009054906101000a900463ffffffff1663ffffffff16426127569190614694565b6127609190614663565b9050816060015167ffffffffffffffff168161277c91906145da565b600d60000160009054906101000a900467ffffffffffffffff1667ffffffffffffffff166127aa9190614694565b925050505b90565b600a5481565b6127c0612923565b600073ffffffffffffffffffffffffffffffffffffffff168173ffffffffffffffffffffffffffffffffffffffff160361282f576040517f08c379a000000000000000000000000000000000000000000000000000000000815260040161282690614f29565b60405180910390fd5b6128388161321e565b50565b60095481565b60007f80ac58cd000000000000000000000000000000000000000000000000000000007bffffffffffffffffffffffffffffffffffffffffffffffffffffffff1916827bffffffffffffffffffffffffffffffffffffffffffffffffffffffff1916148061290c57507f5b5e139f000000000000000000000000000000000000000000000000000000007bffffffffffffffffffffffffffffffffffffffffffffffffffffffff1916827bffffffffffffffffffffffffffffffffffffffffffffffffffffffff1916145b8061291c575061291b826139c6565b5b9050919050565b61292b6129db565b73ffffffffffffffffffffffffffffffffffffffff16612949611ab1565b73ffffffffffffffffffffffffffffffffffffffff161461299f576040517f08c379a000000000000000000000000000000000000000000000000000000000815260040161299690614f95565b60405180910390fd5b565b60008054821080156129d4575060046000838152602001908152602001600020600001601c9054906101000a900460ff16155b9050919050565b600033905090565b826006600084815260200190815260200160002060006101000a81548173ffffffffffffffffffffffffffffffffffffffff021916908373ffffffffffffffffffffffffffffffffffffffff160217905550818373ffffffffffffffffffffffffffffffffffffffff168273ffffffffffffffffffffffffffffffffffffffff167f8c5be1e5ebec7d5bd14f71427d1e84f3dd0314c0f7b2291e5b200ac8c7c3b92560405160405180910390a4505050565b6000612aa082612fa2565b90506000816000015173ffffffffffffffffffffffffffffffffffffffff16612ac76129db565b73ffffffffffffffffffffffffffffffffffffffff161480612afa5750612af98260000151612af46129db565b612530565b5b80612b3f5750612b086129db565b73ffffffffffffffffffffffffffffffffffffffff16612b2784610c87565b73ffffffffffffffffffffffffffffffffffffffff16145b905080612b78576040517f59c896be00000000000000000000000000000000000000000000000000000000815260040160405180910390fd5b8473ffffffffffffffffffffffffffffffffffffffff16826000015173ffffffffffffffffffffffffffffffffffffffff1614612be1576040517fa114810000000000000000000000000000000000000000000000000000000000815260040160405180910390fd5b600073ffffffffffffffffffffffffffffffffffffffff168473ffffffffffffffffffffffffffffffffffffffff1603612c47576040517fea553b3400000000000000000000000000000000000000000000000000000000815260040160405180910390fd5b612c548585856001613a30565b612c6460008484600001516129e3565b6001600560008773ffffffffffffffffffffffffffffffffffffffff1673ffffffffffffffffffffffffffffffffffffffff16815260200190815260200160002060000160008282829054906101000a900467ffffffffffffffff160392506101000a81548167ffffffffffffffff021916908367ffffffffffffffff1602179055506001600560008673ffffffffffffffffffffffffffffffffffffffff1673ffffffffffffffffffffffffffffffffffffffff16815260200190815260200160002060000160008282829054906101000a900467ffffffffffffffff160192506101000a81548167ffffffffffffffff021916908367ffffffffffffffff160217905550836004600085815260200190815260200160002060000160006101000a81548173ffffffffffffffffffffffffffffffffffffffff021916908373ffffffffffffffffffffffffffffffffffffffff160217905550426004600085815260200190815260200160002060000160146101000a81548167ffffffffffffffff021916908367ffffffffffffffff1602179055506000600184019050600073ffffffffffffffffffffffffffffffffffffffff166004600083815260200190815260200160002060000160009054906101000a900473ffffffffffffffffffffffffffffffffffffffff1673ffffffffffffffffffffffffffffffffffffffff1603612f1457600054811015612f135782600001516004600083815260200190815260200160002060000160006101000a81548173ffffffffffffffffffffffffffffffffffffffff021916908373ffffffffffffffffffffffffffffffffffffffff16021790555082602001516004600083815260200190815260200160002060000160146101000a81548167ffffffffffffffff021916908367ffffffffffffffff1602179055505b5b50828473ffffffffffffffffffffffffffffffffffffffff168673ffffffffffffffffffffffffffffffffffffffff167fddf252ad1be2c89b69c2b068fc378daa952ba7f163c4a11628f55a4df523b3ef60405160405180910390a4612f7d8585856001613a36565b5050505050565b612f9e828260405180602001604052806000815250613a3c565b5050565b612faa613af7565b60008290506000548110156131e7576000600460008381526020019081526020016000206040518060600160405290816000820160009054906101000a900473ffffffffffffffffffffffffffffffffffffffff1673ffffffffffffffffffffffffffffffffffffffff1673ffffffffffffffffffffffffffffffffffffffff1681526020016000820160149054906101000a900467ffffffffffffffff1667ffffffffffffffff1667ffffffffffffffff16815260200160008201601c9054906101000a900460ff161515151581525050905080604001516131e557600073ffffffffffffffffffffffffffffffffffffffff16816000015173ffffffffffffffffffffffffffffffffffffffff16146130c9578092505050613219565b5b6001156131e457818060019003925050600460008381526020019081526020016000206040518060600160405290816000820160009054906101000a900473ffffffffffffffffffffffffffffffffffffffff1673ffffffffffffffffffffffffffffffffffffffff1673ffffffffffffffffffffffffffffffffffffffff1681526020016000820160149054906101000a900467ffffffffffffffff1667ffffffffffffffff1667ffffffffffffffff16815260200160008201601c9054906101000a900460ff1615151515815250509050600073ffffffffffffffffffffffffffffffffffffffff16816000015173ffffffffffffffffffffffffffffffffffffffff16146131df578092505050613219565b6130ca565b5b505b6040517fdf2d9b4200000000000000000000000000000000000000000000000000000000815260040160405180910390fd5b919050565b6000600860009054906101000a900473ffffffffffffffffffffffffffffffffffffffff16905081600860006101000a81548173ffffffffffffffffffffffffffffffffffffffff021916908373ffffffffffffffffffffffffffffffffffffffff1602179055508173ffffffffffffffffffffffffffffffffffffffff168173ffffffffffffffffffffffffffffffffffffffff167f8be0079c531659141344cd1fd0a4f28419497f9722a3daafe3b4186f6b6457e060405160405180910390a35050565b60006133058473ffffffffffffffffffffffffffffffffffffffff16613a4e565b15613455578373ffffffffffffffffffffffffffffffffffffffff1663150b7a0261332e6129db565b8786866040518563ffffffff1660e01b8152600401613350949392919061500a565b6020604051808303816000875af192505050801561338c57506040513d601f19601f82011682018060405250810190613389919061506b565b60015b613405573d80600081146133bc576040519150601f19603f3d011682016040523d82523d6000602084013e6133c1565b606091505b5060008151036133fd576040517fd1a57ed600000000000000000000000000000000000000000000000000000000815260040160405180910390fd5b805181602001fd5b63150b7a0260e01b7bffffffffffffffffffffffffffffffffffffffffffffffffffffffff1916817bffffffffffffffffffffffffffffffffffffffffffffffffffffffff19161491505061345a565b600190505b949350505050565b6060600082036134a9576040518060400160405280600181526020017f300000000000000000000000000000000000000000000000000000000000000081525090506135bd565b600082905060005b600082146134db5780806134c4906146f7565b915050600a826134d49190614663565b91506134b1565b60008167ffffffffffffffff8111156134f7576134f6614280565b5b6040519080825280601f01601f1916602001820160405280156135295781602001600182028036833780820191505090505b5090505b600085146135b6576001826135429190614694565b9150600a856135519190615098565b603061355d91906148c9565b60f81b818381518110613573576135726146c8565b5b60200101907effffffffffffffffffffffffffffffffffffffffffffffffffffffffffffff1916908160001a905350600a856135af9190614663565b945061352d565b8093505050505b919050565b60008073ffffffffffffffffffffffffffffffffffffffff168273ffffffffffffffffffffffffffffffffffffffff1603613629576040517f35ebb31900000000000000000000000000000000000000000000000000000000815260040160405180910390fd5b600560008373ffffffffffffffffffffffffffffffffffffffff1673ffffffffffffffffffffffffffffffffffffffff16815260200190815260200160002060000160089054906101000a900467ffffffffffffffff1667ffffffffffffffff169050919050565b600080549050600073ffffffffffffffffffffffffffffffffffffffff168573ffffffffffffffffffffffffffffffffffffffff16036136fd576040517f2e07630000000000000000000000000000000000000000000000000000000000815260040160405180910390fd5b60008403613737576040517fb562e8dd00000000000000000000000000000000000000000000000000000000815260040160405180910390fd5b6137446000868387613a30565b83600560008773ffffffffffffffffffffffffffffffffffffffff1673ffffffffffffffffffffffffffffffffffffffff16815260200190815260200160002060000160008282829054906101000a900467ffffffffffffffff160192506101000a81548167ffffffffffffffff021916908367ffffffffffffffff16021790555083600560008773ffffffffffffffffffffffffffffffffffffffff1673ffffffffffffffffffffffffffffffffffffffff16815260200190815260200160002060000160088282829054906101000a900467ffffffffffffffff160192506101000a81548167ffffffffffffffff021916908367ffffffffffffffff160217905550846004600083815260200190815260200160002060000160006101000a81548173ffffffffffffffffffffffffffffffffffffffff021916908373ffffffffffffffffffffffffffffffffffffffff160217905550426004600083815260200190815260200160002060000160146101000a81548167ffffffffffffffff021916908367ffffffffffffffff160217905550600081905060005b858110156139a957818773ffffffffffffffffffffffffffffffffffffffff16600073ffffffffffffffffffffffffffffffffffffffff167fddf252ad1be2c89b69c2b068fc378daa952ba7f163c4a11628f55a4df523b3ef60405160405180910390a483801561395d575061395b60008884886132e4565b155b15613994576040517fd1a57ed600000000000000000000000000000000000000000000000000000000815260040160405180910390fd5b818060010192505080806001019150506138e2565b5080600081905550506139bf6000868387613a36565b5050505050565b60007f01ffc9a7000000000000000000000000000000000000000000000000000000007bffffffffffffffffffffffffffffffffffffffffffffffffffffffff1916827bffffffffffffffffffffffffffffffffffffffffffffffffffffffff1916149050919050565b50505050565b50505050565b613a498383836001613691565b505050565b6000808273ffffffffffffffffffffffffffffffffffffffff163b119050919050565b828054613a7d9061450e565b90600052602060002090601f016020900481019282613a9f5760008555613ae6565b82601f10613ab857803560ff1916838001178555613ae6565b82800160010185558215613ae6579182015b82811115613ae5578235825591602001919060010190613aca565b5b509050613af39190613b3a565b5090565b6040518060600160405280600073ffffffffffffffffffffffffffffffffffffffff168152602001600067ffffffffffffffff1681526020016000151581525090565b5b80821115613b53576000816000905550600101613b3b565b5090565b6000604051905090565b600080fd5b600080fd5b60007fffffffff0000000000000000000000000000000000000000000000000000000082169050919050565b613ba081613b6b565b8114613bab57600080fd5b50565b600081359050613bbd81613b97565b92915050565b600060208284031215613bd957613bd8613b61565b5b6000613be784828501613bae565b91505092915050565b60008115159050919050565b613c0581613bf0565b82525050565b6000602082019050613c206000830184613bfc565b92915050565b600073ffffffffffffffffffffffffffffffffffffffff82169050919050565b6000613c5182613c26565b9050919050565b613c6181613c46565b8114613c6c57600080fd5b50565b600081359050613c7e81613c58565b92915050565b600060208284031215613c9a57613c99613b61565b5b6000613ca884828501613c6f565b91505092915050565b600081519050919050565b600082825260208201905092915050565b60005b83811015613ceb578082015181840152602081019050613cd0565b83811115613cfa576000848401525b50505050565b6000601f19601f8301169050919050565b6000613d1c82613cb1565b613d268185613cbc565b9350613d36818560208601613ccd565b613d3f81613d00565b840191505092915050565b60006020820190508181036000830152613d648184613d11565b905092915050565b6000819050919050565b613d7f81613d6c565b8114613d8a57600080fd5b50565b600081359050613d9c81613d76565b92915050565b600060208284031215613db857613db7613b61565b5b6000613dc684828501613d8d565b91505092915050565b613dd881613c46565b82525050565b6000602082019050613df36000830184613dcf565b92915050565b60008060408385031215613e1057613e0f613b61565b5b6000613e1e85828601613c6f565b9250506020613e2f85828601613d8d565b9150509250929050565b613e4281613d6c565b82525050565b6000602082019050613e5d6000830184613e39565b92915050565b600067ffffffffffffffff82169050919050565b613e8081613e63565b82525050565b6000608082019050613e9b6000830187613e77565b613ea86020830186613e77565b613eb56040830185613e77565b613ec26060830184613e77565b95945050505050565b600080600060608486031215613ee457613ee3613b61565b5b6000613ef286828701613c6f565b9350506020613f0386828701613c6f565b9250506040613f1486828701613d8d565b9150509250925092565b60008060408385031215613f3557613f34613b61565b5b6000613f4385828601613d8d565b9250506020613f5485828601613d8d565b9150509250929050565b6000604082019050613f736000830185613dcf565b613f806020830184613e39565b9392505050565b600080fd5b600080fd5b600080fd5b60008083601f840112613fac57613fab613f87565b5b8235905067ffffffffffffffff811115613fc957613fc8613f8c565b5b602083019150836020820283011115613fe557613fe4613f91565b5b9250929050565b613ff581613bf0565b811461400057600080fd5b50565b60008135905061401281613fec565b92915050565b60008060006040848603121561403157614030613b61565b5b600084013567ffffffffffffffff81111561404f5761404e613b66565b5b61405b86828701613f96565b9350935050602061406e86828701614003565b9150509250925092565b600063ffffffff82169050919050565b61409181614078565b82525050565b60006020820190506140ac6000830184614088565b92915050565b6140bb81614078565b81146140c657600080fd5b50565b6000813590506140d8816140b2565b92915050565b6140e781613e63565b81146140f257600080fd5b50565b600081359050614104816140de565b92915050565b600080600080600060a0868803121561412657614125613b61565b5b6000614134888289016140c9565b9550506020614145888289016140f5565b9450506040614156888289016140f5565b9350506060614167888289016140f5565b9250506080614178888289016140f5565b9150509295509295909350565b6000806040838503121561419c5761419b613b61565b5b60006141aa85828601613c6f565b92505060206141bb85828601614003565b9150509250929050565b60008083601f8401126141db576141da613f87565b5b8235905067ffffffffffffffff8111156141f8576141f7613f8c565b5b60208301915083600182028301111561421457614213613f91565b5b9250929050565b60008060006040848603121561423457614233613b61565b5b600084013567ffffffffffffffff81111561425257614251613b66565b5b61425e868287016141c5565b9350935050602061427186828701614003565b9150509250925092565b600080fd5b7f4e487b7100000000000000000000000000000000000000000000000000000000600052604160045260246000fd5b6142b882613d00565b810181811067ffffffffffffffff821117156142d7576142d6614280565b5b80604052505050565b60006142ea613b57565b90506142f682826142af565b919050565b600067ffffffffffffffff82111561431657614315614280565b5b61431f82613d00565b9050602081019050919050565b82818337600083830152505050565b600061434e614349846142fb565b6142e0565b90508281526020810184848401111561436a5761436961427b565b5b61437584828561432c565b509392505050565b600082601f83011261439257614391613f87565b5b81356143a284826020860161433b565b91505092915050565b600080600080608085870312156143c5576143c4613b61565b5b60006143d387828801613c6f565b94505060206143e487828801613c6f565b93505060406143f587828801613d8d565b925050606085013567ffffffffffffffff81111561441657614415613b66565b5b6144228782880161437d565b91505092959194509250565b60006bffffffffffffffffffffffff82169050919050565b61444f8161442e565b811461445a57600080fd5b50565b60008135905061446c81614446565b92915050565b60006020828403121561448857614487613b61565b5b60006144968482850161445d565b91505092915050565b600080604083850312156144b6576144b5613b61565b5b60006144c485828601613c6f565b92505060206144d585828601613c6f565b9150509250929050565b7f4e487b7100000000000000000000000000000000000000000000000000000000600052602260045260246000fd5b6000600282049050600182168061452657607f821691505b602082108103614539576145386144df565b5b50919050565b7f43616e6e6f74207175657279206e6f6e2d6578697374656e7420746f6b656e00600082015250565b6000614575601f83613cbc565b91506145808261453f565b602082019050919050565b600060208201905081810360008301526145a481614568565b9050919050565b7f4e487b7100000000000000000000000000000000000000000000000000000000600052601160045260246000fd5b60006145e582613d6c565b91506145f083613d6c565b9250817fffffffffffffffffffffffffffffffffffffffffffffffffffffffffffffffff0483118215151615614629576146286145ab565b5b828202905092915050565b7f4e487b7100000000000000000000000000000000000000000000000000000000600052601260045260246000fd5b600061466e82613d6c565b915061467983613d6c565b92508261468957614688614634565b5b828204905092915050565b600061469f82613d6c565b91506146aa83613d6c565b9250828210156146bd576146bc6145ab565b5b828203905092915050565b7f4e487b7100000000000000000000000000000000000000000000000000000000600052603260045260246000fd5b600061470282613d6c565b91507fffffffffffffffffffffffffffffffffffffffffffffffffffffffffffffffff8203614734576147336145ab565b5b600182019050919050565b600081905092915050565b50565b600061475a60008361473f565b91506147658261474a565b600082019050919050565b600061477b8261474d565b9150819050919050565b7f5452414e534645525f4641494c45440000000000000000000000000000000000600082015250565b60006147bb600f83613cbc565b91506147c682614785565b602082019050919050565b600060208201905081810360008301526147ea816147ae565b9050919050565b7f57484954454c4953545f454e4445440000000000000000000000000000000000600082015250565b6000614827600f83613cbc565b9150614832826147f1565b602082019050919050565b600060208201905081810360008301526148568161481a565b9050919050565b7f57484954454c4953545f494e4143544956450000000000000000000000000000600082015250565b6000614893601283613cbc565b915061489e8261485d565b602082019050919050565b600060208201905081810360008301526148c281614886565b9050919050565b60006148d482613d6c565b91506148df83613d6c565b9250827fffffffffffffffffffffffffffffffffffffffffffffffffffffffffffffffff03821115614914576149136145ab565b5b828201905092915050565b7f57484954454c4953545f4d415845440000000000000000000000000000000000600082015250565b6000614955600f83613cbc565b91506149608261491f565b602082019050919050565b6000602082019050818103600083015261498481614948565b9050919050565b7f554e415554484f52495a45440000000000000000000000000000000000000000600082015250565b60006149c1600c83613cbc565b91506149cc8261498b565b602082019050919050565b600060208201905081810360008301526149f0816149b4565b9050919050565b7f494e434f52524543545f45544800000000000000000000000000000000000000600082015250565b6000614a2d600d83613cbc565b9150614a38826149f7565b602082019050919050565b60006020820190508181036000830152614a5c81614a20565b9050919050565b7f494e56414c49445f5155414e5449545900000000000000000000000000000000600082015250565b6000614a99601083613cbc565b9150614aa482614a63565b602082019050919050565b60006020820190508181036000830152614ac881614a8c565b9050919050565b7f524553455256455f4d4158454400000000000000000000000000000000000000600082015250565b6000614b05600d83613cbc565b9150614b1082614acf565b602082019050919050565b60006020820190508181036000830152614b3481614af8565b9050919050565b7f53414c455f5641524941424c45535f4e4f545f53455400000000000000000000600082015250565b6000614b71601683613cbc565b9150614b7c82614b3b565b602082019050919050565b60006020820190508181036000830152614ba081614b64565b9050919050565b600081905092915050565b60008190508160005260206000209050919050565b60008154614bd48161450e565b614bde8186614ba7565b94506001821660008114614bf95760018114614c0a57614c3d565b60ff19831686528186019350614c3d565b614c1385614bb2565b60005b83811015614c3557815481890152600182019150602081019050614c16565b838801955050505b50505092915050565b6000614c5182613cb1565b614c5b8185614ba7565b9350614c6b818560208601613ccd565b80840191505092915050565b6000614c838285614bc7565b9150614c8f8284614c46565b91508190509392505050565b7f53414c455f494e41435449564500000000000000000000000000000000000000600082015250565b6000614cd1600d83613cbc565b9150614cdc82614c9b565b602082019050919050565b60006020820190508181036000830152614d0081614cc4565b9050919050565b7f4e4f545f454f4100000000000000000000000000000000000000000000000000600082015250565b6000614d3d600783613cbc565b9150614d4882614d07565b602082019050919050565b60006020820190508181036000830152614d6c81614d30565b9050919050565b7f5155414e544954595f4d41584544000000000000000000000000000000000000600082015250565b6000614da9600e83613cbc565b9150614db482614d73565b602082019050919050565b60006020820190508181036000830152614dd881614d9c565b9050919050565b7f53414c455f4d4158454400000000000000000000000000000000000000000000600082015250565b6000614e15600a83613cbc565b9150614e2082614ddf565b602082019050919050565b60006020820190508181036000830152614e4481614e08565b9050919050565b7f494e53554646494349454e545f45544800000000000000000000000000000000600082015250565b6000614e81601083613cbc565b9150614e8c82614e4b565b602082019050919050565b60006020820190508181036000830152614eb081614e74565b9050919050565b7f4f776e61626c653a206e6577206f776e657220697320746865207a65726f206160008201527f6464726573730000000000000000000000000000000000000000000000000000602082015250565b6000614f13602683613cbc565b9150614f1e82614eb7565b604082019050919050565b60006020820190508181036000830152614f4281614f06565b9050919050565b7f4f776e61626c653a2063616c6c6572206973206e6f7420746865206f776e6572600082015250565b6000614f7f602083613cbc565b9150614f8a82614f49565b602082019050919050565b60006020820190508181036000830152614fae81614f72565b9050919050565b600081519050919050565b600082825260208201905092915050565b6000614fdc82614fb5565b614fe68185614fc0565b9350614ff6818560208601613ccd565b614fff81613d00565b840191505092915050565b600060808201905061501f6000830187613dcf565b61502c6020830186613dcf565b6150396040830185613e39565b818103606083015261504b8184614fd1565b905095945050505050565b60008151905061506581613b97565b92915050565b60006020828403121561508157615080613b61565b5b600061508f84828501615056565b91505092915050565b60006150a382613d6c565b91506150ae83613d6c565b9250826150be576150bd614634565b5b82820690509291505056fea264697066735822122063be27df2f6181dbda09bd91c8003b3171810bcfaf03ab7955de403c6cd6dedf64736f6c634300080d0033",
  "linkReferences": {},
  "deployedLinkReferences": {}
}