{
  "_format": "hh-sol-artifact-1",
  "contractName": "Antonym",
  "sourceName": "contracts/FashionNFT.sol",
  "abi": [
    {
      "inputs": [],
      "stateMutability": "nonpayable",
      "type": "constructor"
    },
    {
      "inputs": [],
      "name": "ApprovalCallerNotOwnerNorApproved",
      "type": "error"
    },
    {
      "inputs": [],
      "name": "ApprovalQueryForNonexistentToken",
      "type": "error"
    },
    {
      "inputs": [],
      "name": "ApprovalToCurrentOwner",
      "type": "error"
    },
    {
      "inputs": [],
      "name": "ApproveToCaller",
      "type": "error"
    },
    {
      "inputs": [],
      "name": "BalanceQueryForZeroAddress",
      "type": "error"
    },
    {
      "inputs": [],
      "name": "MintToZeroAddress",
      "type": "error"
    },
    {
      "inputs": [],
      "name": "MintZeroQuantity",
      "type": "error"
    },
    {
      "inputs": [],
      "name": "MintedQueryForZeroAddress",
      "type": "error"
    },
    {
      "inputs": [],
      "name": "OwnerQueryForNonexistentToken",
      "type": "error"
    },
    {
      "inputs": [],
      "name": "TransferCallerNotOwnerNorApproved",
      "type": "error"
    },
    {
      "inputs": [],
      "name": "TransferFromIncorrectOwner",
      "type": "error"
    },
    {
      "inputs": [],
      "name": "TransferToNonERC721ReceiverImplementer",
      "type": "error"
    },
    {
      "inputs": [],
      "name": "TransferToZeroAddress",
      "type": "error"
    },
    {
      "anonymous": false,
      "inputs": [
        {
          "indexed": true,
          "internalType": "address",
          "name": "owner",
          "type": "address"
        },
        {
          "indexed": true,
          "internalType": "address",
          "name": "approved",
          "type": "address"
        },
        {
          "indexed": true,
          "internalType": "uint256",
          "name": "tokenId",
          "type": "uint256"
        }
      ],
      "name": "Approval",
      "type": "event"
    },
    {
      "anonymous": false,
      "inputs": [
        {
          "indexed": true,
          "internalType": "address",
          "name": "owner",
          "type": "address"
        },
        {
          "indexed": true,
          "internalType": "address",
          "name": "operator",
          "type": "address"
        },
        {
          "indexed": false,
          "internalType": "bool",
          "name": "approved",
          "type": "bool"
        }
      ],
      "name": "ApprovalForAll",
      "type": "event"
    },
    {
      "anonymous": false,
      "inputs": [
        {
          "indexed": true,
          "internalType": "address",
          "name": "previousOwner",
          "type": "address"
        },
        {
          "indexed": true,
          "internalType": "address",
          "name": "newOwner",
          "type": "address"
        }
      ],
      "name": "OwnershipTransferred",
      "type": "event"
    },
    {
      "anonymous": false,
      "inputs": [
        {
          "indexed": true,
          "internalType": "address",
          "name": "from",
          "type": "address"
        },
        {
          "indexed": true,
          "internalType": "address",
          "name": "to",
          "type": "address"
        },
        {
          "indexed": true,
          "internalType": "uint256",
          "name": "tokenId",
          "type": "uint256"
        }
      ],
      "name": "Transfer",
      "type": "event"
    },
    {
      "inputs": [],
      "name": "MAX_SALE_QUANTITY",
      "outputs": [
        {
          "internalType": "uint256",
          "name": "",
          "type": "uint256"
        }
      ],
      "stateMutability": "view",
      "type": "function"
    },
    {
      "inputs": [],
      "name": "RESERVE_MAX",
      "outputs": [
        {
          "internalType": "uint256",
          "name": "",
          "type": "uint256"
        }
      ],
      "stateMutability": "view",
      "type": "function"
    },
    {
      "inputs": [],
      "name": "TOTAL_MAX",
      "outputs": [
        {
          "internalType": "uint256",
          "name": "",
          "type": "uint256"
        }
      ],
      "stateMutability": "view",
      "type": "function"
    },
    {
      "inputs": [],
      "name": "WHITELIST_MAX",
      "outputs": [
        {
          "internalType": "uint256",
          "name": "",
          "type": "uint256"
        }
      ],
      "stateMutability": "view",
      "type": "function"
    },
    {
      "inputs": [],
      "name": "activateSale",
      "outputs": [],
      "stateMutability": "nonpayable",
      "type": "function"
    },
    {
      "inputs": [],
      "name": "activateWhitelist",
      "outputs": [],
      "stateMutability": "nonpayable",
      "type": "function"
    },
    {
      "inputs": [
        {
          "internalType": "address",
          "name": "to",
          "type": "address"
        },
        {
          "internalType": "uint256",
          "name": "tokenId",
          "type": "uint256"
        }
      ],
      "name": "approve",
      "outputs": [],
      "stateMutability": "nonpayable",
      "type": "function"
    },
    {
      "inputs": [
        {
          "internalType": "address",
          "name": "owner",
          "type": "address"
        }
      ],
      "name": "balanceOf",
      "outputs": [
        {
          "internalType": "uint256",
          "name": "",
          "type": "uint256"
        }
      ],
      "stateMutability": "view",
      "type": "function"
    },
    {
      "inputs": [
        {
          "internalType": "uint256",
          "name": "_quantity",
          "type": "uint256"
        }
      ],
      "name": "buy",
      "outputs": [],
      "stateMutability": "payable",
      "type": "function"
    },
    {
      "inputs": [],
      "name": "daVariables",
      "outputs": [
        {
          "internalType": "uint64",
          "name": "saleStartPrice",
          "type": "uint64"
        },
        {
          "internalType": "uint64",
          "name": "duration",
          "type": "uint64"
        },
        {
          "internalType": "uint64",
          "name": "interval",
          "type": "uint64"
        },
        {
          "internalType": "uint64",
          "name": "decreaseRate",
          "type": "uint64"
        }
      ],
      "stateMutability": "view",
      "type": "function"
    },
    {
      "inputs": [
        {
          "internalType": "uint256",
          "name": "tokenId",
          "type": "uint256"
        }
      ],
      "name": "getApproved",
      "outputs": [
        {
          "internalType": "address",
          "name": "",
          "type": "address"
        }
      ],
      "stateMutability": "view",
      "type": "function"
    },
    {
      "inputs": [],
      "name": "getCurrentPrice",
      "outputs": [
        {
          "internalType": "uint256",
          "name": "",
          "type": "uint256"
        }
      ],
      "stateMutability": "view",
      "type": "function"
    },
    {
      "inputs": [
        {
          "internalType": "address",
          "name": "owner",
          "type": "address"
        },
        {
          "internalType": "address",
          "name": "operator",
          "type": "address"
        }
      ],
      "name": "isApprovedForAll",
      "outputs": [
        {
          "internalType": "bool",
          "name": "",
          "type": "bool"
        }
      ],
      "stateMutability": "view",
      "type": "function"
    },
    {
      "inputs": [
        {
          "internalType": "uint256",
          "name": "_quantity",
          "type": "uint256"
        }
      ],
      "name": "mintWhitelist",
      "outputs": [],
      "stateMutability": "payable",
      "type": "function"
    },
    {
      "inputs": [],
      "name": "name",
      "outputs": [
        {
          "internalType": "string",
          "name": "",
          "type": "string"
        }
      ],
      "stateMutability": "view",
      "type": "function"
    },
    {
      "inputs": [
        {
          "internalType": "address",
          "name": "owner",
          "type": "address"
        }
      ],
      "name": "numberMinted",
      "outputs": [
        {
          "internalType": "uint256",
          "name": "",
          "type": "uint256"
        }
      ],
      "stateMutability": "view",
      "type": "function"
    },
    {
      "inputs": [],
      "name": "owner",
      "outputs": [
        {
          "internalType": "address",
          "name": "",
          "type": "address"
        }
      ],
      "stateMutability": "view",
      "type": "function"
    },
    {
      "inputs": [
        {
          "internalType": "uint256",
          "name": "tokenId",
          "type": "uint256"
        }
      ],
      "name": "ownerOf",
      "outputs": [
        {
          "internalType": "address",
          "name": "",
          "type": "address"
        }
      ],
      "stateMutability": "view",
      "type": "function"
    },
    {
      "inputs": [
        {
          "internalType": "address",
          "name": "_account",
          "type": "address"
        },
        {
          "internalType": "uint256",
          "name": "_quantity",
          "type": "uint256"
        }
      ],
      "name": "releaseReserve",
      "outputs": [],
      "stateMutability": "nonpayable",
      "type": "function"
    },
    {
      "inputs": [],
      "name": "renounceOwnership",
      "outputs": [],
      "stateMutability": "nonpayable",
      "type": "function"
    },
    {
      "inputs": [],
      "name": "reserveCount",
      "outputs": [
        {
          "internalType": "uint256",
          "name": "",
          "type": "uint256"
        }
      ],
      "stateMutability": "view",
      "type": "function"
    },
    {
      "inputs": [],
      "name": "revealed",
      "outputs": [
        {
          "internalType": "bool",
          "name": "",
          "type": "bool"
        }
      ],
      "stateMutability": "view",
      "type": "function"
    },
    {
      "inputs": [
        {
          "internalType": "uint256",
          "name": "_tokenId",
          "type": "uint256"
        },
        {
          "internalType": "uint256",
          "name": "_salePrice",
          "type": "uint256"
        }
      ],
      "name": "royaltyInfo",
      "outputs": [
        {
          "internalType": "address",
          "name": "receiver",
          "type": "address"
        },
        {
          "internalType": "uint256",
          "name": "royaltyAmount",
          "type": "uint256"
        }
      ],
      "stateMutability": "view",
      "type": "function"
    },
    {
      "inputs": [
        {
          "internalType": "address",
          "name": "from",
          "type": "address"
        },
        {
          "internalType": "address",
          "name": "to",
          "type": "address"
        },
        {
          "internalType": "uint256",
          "name": "tokenId",
          "type": "uint256"
        }
      ],
      "name": "safeTransferFrom",
      "outputs": [],
      "stateMutability": "nonpayable",
      "type": "function"
    },
    {
      "inputs": [
        {
          "internalType": "address",
          "name": "from",
          "type": "address"
        },
        {
          "internalType": "address",
          "name": "to",
          "type": "address"
        },
        {
          "internalType": "uint256",
          "name": "tokenId",
          "type": "uint256"
        },
        {
          "internalType": "bytes",
          "name": "_data",
          "type": "bytes"
        }
      ],
      "name": "safeTransferFrom",
      "outputs": [],
      "stateMutability": "nonpayable",
      "type": "function"
    },
    {
      "inputs": [],
      "name": "saleActive",
      "outputs": [
        {
          "internalType": "bool",
          "name": "",
          "type": "bool"
        }
      ],
      "stateMutability": "view",
      "type": "function"
    },
    {
      "inputs": [],
      "name": "saleMax",
      "outputs": [
        {
          "internalType": "uint256",
          "name": "",
          "type": "uint256"
        }
      ],
      "stateMutability": "view",
      "type": "function"
    },
    {
      "inputs": [
        {
          "internalType": "address",
          "name": "operator",
          "type": "address"
        },
        {
          "internalType": "bool",
          "name": "approved",
          "type": "bool"
        }
      ],
      "name": "setApprovalForAll",
      "outputs": [],
      "stateMutability": "nonpayable",
      "type": "function"
    },
    {
      "inputs": [
        {
          "internalType": "string",
          "name": "_baseURI",
          "type": "string"
        },
        {
          "internalType": "bool",
          "name": "reveal",
          "type": "bool"
        }
      ],
      "name": "setBaseURI",
      "outputs": [],
      "stateMutability": "nonpayable",
      "type": "function"
    },
    {
      "inputs": [
        {
          "internalType": "address",
          "name": "_paymentAddress",
          "type": "address"
        }
      ],
      "name": "setPaymentAddress",
      "outputs": [],
      "stateMutability": "nonpayable",
      "type": "function"
    },
    {
      "inputs": [
        {
          "internalType": "uint96",
          "name": "_royaltyBasisPoints",
          "type": "uint96"
        }
      ],
      "name": "setRoyalty",
      "outputs": [],
      "stateMutability": "nonpayable",
      "type": "function"
    },
    {
      "inputs": [
        {
          "internalType": "address",
          "name": "_royaltyAddress",
          "type": "address"
        }
      ],
      "name": "setRoyaltyAddress",
      "outputs": [],
      "stateMutability": "nonpayable",
      "type": "function"
    },
    {
      "inputs": [
        {
          "internalType": "uint32",
          "name": "_startTime",
          "type": "uint32"
        },
        {
          "internalType": "uint64",
          "name": "_saleStartPrice",
          "type": "uint64"
        },
        {
          "internalType": "uint64",
          "name": "_duration",
          "type": "uint64"
        },
        {
          "internalType": "uint64",
          "name": "_interval",
          "type": "uint64"
        },
        {
          "internalType": "uint64",
          "name": "_decreaseRate",
          "type": "uint64"
        }
      ],
      "name": "setSaleVariables",
      "outputs": [],
      "stateMutability": "nonpayable",
      "type": "function"
    },
    {
      "inputs": [
        {
          "internalType": "address[]",
          "name": "whitelisters",
          "type": "address[]"
        },
        {
          "internalType": "bool",
          "name": "ogStatus",
          "type": "bool"
        }
      ],
      "name": "setWhitelist",
      "outputs": [],
      "stateMutability": "nonpayable",
      "type": "function"
    },
    {
      "inputs": [
        {
          "internalType": "uint256",
          "name": "_newPrice",
          "type": "uint256"
        }
      ],
      "name": "setWhitelistPrice",
      "outputs": [],
      "stateMutability": "nonpayable",
      "type": "function"
    },
    {
      "inputs": [],
      "name": "startTime",
      "outputs": [
        {
          "internalType": "uint32",
          "name": "",
          "type": "uint32"
        }
      ],
      "stateMutability": "view",
      "type": "function"
    },
    {
      "inputs": [
        {
          "internalType": "bytes4",
          "name": "interfaceId",
          "type": "bytes4"
        }
      ],
      "name": "supportsInterface",
      "outputs": [
        {
          "internalType": "bool",
          "name": "",
          "type": "bool"
        }
      ],
      "stateMutability": "view",
      "type": "function"
    },
    {
      "inputs": [],
      "name": "symbol",
      "outputs": [
        {
          "internalType": "string",
          "name": "",
          "type": "string"
        }
      ],
      "stateMutability": "view",
      "type": "function"
    },
    {
      "inputs": [
        {
          "internalType": "uint256",
          "name": "_tokenId",
          "type": "uint256"
        }
      ],
      "name": "tokenURI",
      "outputs": [
        {
          "internalType": "string",
          "name": "",
          "type": "string"
        }
      ],
      "stateMutability": "view",
      "type": "function"
    },
    {
      "inputs": [],
      "name": "totalSupply",
      "outputs": [
        {
          "internalType": "uint256",
          "name": "",
          "type": "uint256"
        }
      ],
      "stateMutability": "view",
      "type": "function"
    },
    {
      "inputs": [
        {
          "internalType": "address",
          "name": "from",
          "type": "address"
        },
        {
          "internalType": "address",
          "name": "to",
          "type": "address"
        },
        {
          "internalType": "uint256",
          "name": "tokenId",
          "type": "uint256"
        }
      ],
      "name": "transferFrom",
      "outputs": [],
      "stateMutability": "nonpayable",
      "type": "function"
    },
    {
      "inputs": [],
      "name": "transferFunds",
      "outputs": [],
      "stateMutability": "nonpayable",
      "type": "function"
    },
    {
      "inputs": [
        {
          "internalType": "address",
          "name": "newOwner",
          "type": "address"
        }
      ],
      "name": "transferOwnership",
      "outputs": [],
      "stateMutability": "nonpayable",
      "type": "function"
    },
    {
      "inputs": [],
      "name": "whitelistActive",
      "outputs": [
        {
          "internalType": "bool",
          "name": "",
          "type": "bool"
        }
      ],
      "stateMutability": "view",
      "type": "function"
    },
    {
      "inputs": [],
      "name": "whitelistCount",
      "outputs": [
        {
          "internalType": "uint256",
          "name": "",
          "type": "uint256"
        }
      ],
      "stateMutability": "view",
      "type": "function"
    },
    {
      "inputs": [],
      "name": "whitelistPrice",
      "outputs": [
        {
          "internalType": "uint256",
          "name": "",
          "type": "uint256"
        }
      ],
      "stateMutability": "view",
      "type": "function"
    },
    {
      "inputs": [
        {
          "internalType": "address",
          "name": "",
          "type": "address"
        }
      ],
      "name": "whitelists",
      "outputs": [
        {
          "internalType": "uint256",
          "name": "",
          "type": "uint256"
        }
      ],
      "stateMutability": "view",
      "type": "function"
    }
  ],
  "bytecode": "0x608060405267029140851372800060095561032a601160146101000a8154816bffffffffffffffffffffffff02191690836bffffffffffffffffffffffff1602179055503480156200005057600080fd5b506040518060400160405280600781526020017f416e746f6e796d000000000000000000000000000000000000000000000000008152506040518060400160405280600781526020017f414e544f4e594d000000000000000000000000000000000000000000000000008152508160029080519060200190620000d5929190620001e5565b508060039080519060200190620000ee929190620001e5565b50505062000111620001056200011760201b60201c565b6200011f60201b60201c565b620002f9565b600033905090565b6000600860009054906101000a900473ffffffffffffffffffffffffffffffffffffffff16905081600860006101000a81548173ffffffffffffffffffffffffffffffffffffffff021916908373ffffffffffffffffffffffffffffffffffffffff1602179055508173ffffffffffffffffffffffffffffffffffffffff168173ffffffffffffffffffffffffffffffffffffffff167f8be0079c531659141344cd1fd0a4f28419497f9722a3daafe3b4186f6b6457e060405160405180910390a35050565b828054620001f390620002c4565b90600052602060002090601f01602090048101928262000217576000855562000263565b82601f106200023257805160ff191683800117855562000263565b8280016001018555821562000263579182015b828111156200026257825182559160200191906001019062000245565b5b50905062000272919062000276565b5090565b5b808211156200029157600081600090555060010162000277565b5090565b7f4e487b7100000000000000000000000000000000000000000000000000000000600052602260045260246000fd5b60006002820490506001821680620002dd57607f821691505b602082108103620002f357620002f262000295565b5b50919050565b614d4480620003096000396000f3fe6080604052600436106102885760003560e01c806370a082311161015a578063b88d4fde116100c1578063dc33e6811161007a578063dc33e6811461096a578063e985e9c5146109a7578063eb91d37e146109e4578063f2624b5d14610a0f578063f2fde38b14610a3a578063fc1a1c3614610a6357610288565b8063b88d4fde1461087d578063c3dc6ecf146108a6578063c721f08d146108d1578063c87b56dd146108e8578063cac9266914610925578063d96a094a1461094e57610288565b80638da5cb5b116101135780638da5cb5b1461078157806395d89b41146107ac578063a08a81d7146107d7578063a22cb46514610802578063accb16391461082b578063b64b21ca1461085457610288565b806370a0823114610699578063715018a6146106d6578063717d57d3146106ed57806378e97925146107165780637c7b2ff01461074157806389e877a31461076a57610288565b80632a55205a116101fe5780634618163e116101b75780634618163e1461059657806351830227146105b25780635e1e1004146105dd5780636352211e1461060657806365db29c31461064357806368428a1b1461066e57610288565b80632a55205a146104995780632ec7be0b146104d75780633c271a05146105025780633c68eb811461052b578063414fb7601461054257806342842e0e1461056d57610288565b8063095ea7b311610250578063095ea7b31461038657806316317c21146103af578063166bfa04146103da57806318160ddd146104085780631e7be2101461043357806323b872dd1461047057610288565b806301ffc9a71461028d57806302ce5813146102ca57806306d254da146102f557806306fdde031461031e578063081812fc14610349575b600080fd5b34801561029957600080fd5b506102b460048036038101906102af9190613808565b610a8e565b6040516102c19190613850565b60405180910390f35b3480156102d657600080fd5b506102df610af6565b6040516102ec9190613850565b60405180910390f35b34801561030157600080fd5b5061031c600480360381019061031791906138c9565b610b09565b005b34801561032a57600080fd5b50610333610b55565b604051610340919061398f565b60405180910390f35b34801561035557600080fd5b50610370600480360381019061036b91906139e7565b610be7565b60405161037d9190613a23565b60405180910390f35b34801561039257600080fd5b506103ad60048036038101906103a89190613a3e565b610c63565b005b3480156103bb57600080fd5b506103c4610d6d565b6040516103d19190613a8d565b60405180910390f35b3480156103e657600080fd5b506103ef610d73565b6040516103ff9493929190613acb565b60405180910390f35b34801561041457600080fd5b5061041d610de1565b60405161042a9190613a8d565b60405180910390f35b34801561043f57600080fd5b5061045a600480360381019061045591906138c9565b610def565b6040516104679190613a8d565b60405180910390f35b34801561047c57600080fd5b5061049760048036038101906104929190613b10565b610e07565b005b3480156104a557600080fd5b506104c060048036038101906104bb9190613b63565b610e17565b6040516104ce929190613ba3565b60405180910390f35b3480156104e357600080fd5b506104ec610ed1565b6040516104f99190613a8d565b60405180910390f35b34801561050e57600080fd5b5061052960048036038101906105249190613c5d565b610f2c565b005b34801561053757600080fd5b50610540610fdd565b005b34801561054e57600080fd5b506105576110b6565b6040516105649190613a8d565b60405180910390f35b34801561057957600080fd5b50610594600480360381019061058f9190613b10565b6110bb565b005b6105b060048036038101906105ab91906139e7565b6110db565b005b3480156105be57600080fd5b506105c76113af565b6040516105d49190613850565b60405180910390f35b3480156105e957600080fd5b5061060460048036038101906105ff91906138c9565b6113c2565b005b34801561061257600080fd5b5061062d600480360381019061062891906139e7565b61140e565b60405161063a9190613a23565b60405180910390f35b34801561064f57600080fd5b50610658611424565b6040516106659190613a8d565b60405180910390f35b34801561067a57600080fd5b5061068361142a565b6040516106909190613850565b60405180910390f35b3480156106a557600080fd5b506106c060048036038101906106bb91906138c9565b61143d565b6040516106cd9190613a8d565b60405180910390f35b3480156106e257600080fd5b506106eb61150c565b005b3480156106f957600080fd5b50610714600480360381019061070f91906139e7565b611520565b005b34801561072257600080fd5b5061072b611532565b6040516107389190613cdc565b60405180910390f35b34801561074d57600080fd5b5061076860048036038101906107639190613d4f565b611548565b005b34801561077657600080fd5b5061077f61169c565b005b34801561078d57600080fd5b506107966116f6565b6040516107a39190613a23565b60405180910390f35b3480156107b857600080fd5b506107c1611720565b6040516107ce919061398f565b60405180910390f35b3480156107e357600080fd5b506107ec6117b2565b6040516107f99190613a8d565b60405180910390f35b34801561080e57600080fd5b5061082960048036038101906108249190613dca565b6117b8565b005b34801561083757600080fd5b50610852600480360381019061084d9190613a3e565b61192f565b005b34801561086057600080fd5b5061087b60048036038101906108769190613e60565b6119ed565b005b34801561088957600080fd5b506108a4600480360381019061089f9190613ff0565b611a46565b005b3480156108b257600080fd5b506108bb611a99565b6040516108c89190613a8d565b60405180910390f35b3480156108dd57600080fd5b506108e6611a9e565b005b3480156108f457600080fd5b5061090f600480360381019061090a91906139e7565b611c01565b60405161091c919061398f565b60405180910390f35b34801561093157600080fd5b5061094c600480360381019061094791906140b7565b611d25565b005b610968600480360381019061096391906139e7565b611d61565b005b34801561097657600080fd5b50610991600480360381019061098c91906138c9565b612163565b60405161099e9190613a8d565b60405180910390f35b3480156109b357600080fd5b506109ce60048036038101906109c991906140e4565b612175565b6040516109db9190613850565b60405180910390f35b3480156109f057600080fd5b506109f9612209565b604051610a069190613a8d565b60405180910390f35b348015610a1b57600080fd5b50610a246123f7565b604051610a319190613a8d565b60405180910390f35b348015610a4657600080fd5b50610a616004803603810190610a5c91906138c9565b6123fd565b005b348015610a6f57600080fd5b50610a78612480565b604051610a859190613a8d565b60405180910390f35b6000632a55205a60e01b7bffffffffffffffffffffffffffffffffffffffffffffffffffffffff1916827bffffffffffffffffffffffffffffffffffffffffffffffffffffffff191603610ae55760019050610af1565b610aee82612486565b90505b919050565b600c60059054906101000a900460ff1681565b610b11612568565b80601160006101000a81548173ffffffffffffffffffffffffffffffffffffffff021916908373ffffffffffffffffffffffffffffffffffffffff16021790555050565b606060028054610b6490614153565b80601f0160208091040260200160405190810160405280929190818152602001828054610b9090614153565b8015610bdd5780601f10610bb257610100808354040283529160200191610bdd565b820191906000526020600020905b815481529060010190602001808311610bc057829003601f168201915b5050505050905090565b6000610bf2826125e6565b610c28576040517fcf4700e400000000000000000000000000000000000000000000000000000000815260040160405180910390fd5b6006600083815260200190815260200160002060009054906101000a900473ffffffffffffffffffffffffffffffffffffffff169050919050565b6000610c6e8261140e565b90508073ffffffffffffffffffffffffffffffffffffffff168373ffffffffffffffffffffffffffffffffffffffff1603610cd5576040517f943f7b8c00000000000000000000000000000000000000000000000000000000815260040160405180910390fd5b8073ffffffffffffffffffffffffffffffffffffffff16610cf4612620565b73ffffffffffffffffffffffffffffffffffffffff1614158015610d265750610d2481610d1f612620565b612175565b155b15610d5d576040517fcfb3b94200000000000000000000000000000000000000000000000000000000815260040160405180910390fd5b610d68838383612628565b505050565b600b5481565b600d8060000160009054906101000a900467ffffffffffffffff16908060000160089054906101000a900467ffffffffffffffff16908060000160109054906101000a900467ffffffffffffffff16908060000160189054906101000a900467ffffffffffffffff16905084565b600060015460005403905090565b600e6020528060005260406000206000915090505481565b610e128383836126da565b505050565b600080610e23846125e6565b610e62576040517f08c379a0000000000000000000000000000000000000000000000000000000008152600401610e59906141d0565b60405180910390fd5b601160009054906101000a900473ffffffffffffffffffffffffffffffffffffffff16612710601160149054906101000a90046bffffffffffffffffffffffff166bffffffffffffffffffffffff1685610ebc919061421f565b610ec691906142a8565b915091509250929050565b6000600c60069054906101000a900460ff16610f0a5761113060586122b8610ef991906142d9565b610f0391906142d9565b9050610f29565b600a5460586122b8610f1c91906142d9565b610f2691906142d9565b90505b90565b610f34612568565b600081610f42576001610f45565b60025b60ff16905060005b84849050811015610fd65781600e6000878785818110610f7057610f6f61430d565b5b9050602002016020810190610f8591906138c9565b73ffffffffffffffffffffffffffffffffffffffff1673ffffffffffffffffffffffffffffffffffffffff168152602001908152602001600020819055508080610fce9061433c565b915050610f4d565b5050505050565b610fe5612568565b6000601060019054906101000a900473ffffffffffffffffffffffffffffffffffffffff1673ffffffffffffffffffffffffffffffffffffffff164760405161102d906143b5565b60006040518083038185875af1925050503d806000811461106a576040519150601f19603f3d011682016040523d82523d6000602084013e61106f565b606091505b50509050806110b3576040517f08c379a00000000000000000000000000000000000000000000000000000000081526004016110aa90614416565b60405180910390fd5b50565b605881565b6110d683838360405180602001604052806000815250611a46565b505050565b600c60069054906101000a900460ff161561112b576040517f08c379a000000000000000000000000000000000000000000000000000000000815260040161112290614482565b60405180910390fd5b600c60059054906101000a900460ff1661117a576040517f08c379a0000000000000000000000000000000000000000000000000000000008152600401611171906144ee565b60405180910390fd5b6000600e60003373ffffffffffffffffffffffffffffffffffffffff1673ffffffffffffffffffffffffffffffffffffffff16815260200190815260200160002054905061113082600a546111cf919061450e565b1115611210576040517f08c379a0000000000000000000000000000000000000000000000000000000008152600401611207906145b0565b60405180910390fd5b600081141580156112215750808211155b611260576040517f08c379a00000000000000000000000000000000000000000000000000000000081526004016112579061461c565b60405180910390fd5b8160095461126e919061421f565b34146112af576040517f08c379a00000000000000000000000000000000000000000000000000000000081526004016112a690614688565b60405180910390fd5b8082036112fe57600e60003373ffffffffffffffffffffffffffffffffffffffff1673ffffffffffffffffffffffffffffffffffffffff1681526020019081526020016000206000905561138d565b81600e60003373ffffffffffffffffffffffffffffffffffffffff1673ffffffffffffffffffffffffffffffffffffffff1681526020019081526020016000205461134991906142d9565b600e60003373ffffffffffffffffffffffffffffffffffffffff1673ffffffffffffffffffffffffffffffffffffffff168152602001908152602001600020819055505b81600a5461139b919061450e565b600a819055506113ab3383612bc9565b5050565b601060009054906101000a900460ff1681565b6113ca612568565b80601060016101000a81548173ffffffffffffffffffffffffffffffffffffffff021916908373ffffffffffffffffffffffffffffffffffffffff16021790555050565b600061141982612be7565b600001519050919050565b61113081565b600c60049054906101000a900460ff1681565b60008073ffffffffffffffffffffffffffffffffffffffff168273ffffffffffffffffffffffffffffffffffffffff16036114a4576040517f8f4eb60400000000000000000000000000000000000000000000000000000000815260040160405180910390fd5b600560008373ffffffffffffffffffffffffffffffffffffffff1673ffffffffffffffffffffffffffffffffffffffff16815260200190815260200160002060000160009054906101000a900467ffffffffffffffff1667ffffffffffffffff169050919050565b611514612568565b61151e6000612e63565b565b611528612568565b8060098190555050565b600c60009054906101000a900463ffffffff1681565b611550612568565b600c60049054906101000a900460ff161561156a57600080fd5b84600c60006101000a81548163ffffffff021916908363ffffffff16021790555060405180608001604052808567ffffffffffffffff1681526020018467ffffffffffffffff1681526020018367ffffffffffffffff1681526020018267ffffffffffffffff16815250600d60008201518160000160006101000a81548167ffffffffffffffff021916908367ffffffffffffffff16021790555060208201518160000160086101000a81548167ffffffffffffffff021916908367ffffffffffffffff16021790555060408201518160000160106101000a81548167ffffffffffffffff021916908367ffffffffffffffff16021790555060608201518160000160186101000a81548167ffffffffffffffff021916908367ffffffffffffffff1602179055509050505050505050565b6116a4612568565b600c60059054906101000a900460ff16156116d8576000600c60056101000a81548160ff02191690831515021790556116f3565b6001600c60056101000a81548160ff02191690831515021790555b50565b6000600860009054906101000a900473ffffffffffffffffffffffffffffffffffffffff16905090565b60606003805461172f90614153565b80601f016020809104026020016040519081016040528092919081815260200182805461175b90614153565b80156117a85780601f1061177d576101008083540402835291602001916117a8565b820191906000526020600020905b81548152906001019060200180831161178b57829003601f168201915b5050505050905090565b6122b881565b6117c0612620565b73ffffffffffffffffffffffffffffffffffffffff168273ffffffffffffffffffffffffffffffffffffffff1603611824576040517fb06307db00000000000000000000000000000000000000000000000000000000815260040160405180910390fd5b8060076000611831612620565b73ffffffffffffffffffffffffffffffffffffffff1673ffffffffffffffffffffffffffffffffffffffff16815260200190815260200160002060008473ffffffffffffffffffffffffffffffffffffffff1673ffffffffffffffffffffffffffffffffffffffff16815260200190815260200160002060006101000a81548160ff0219169083151502179055508173ffffffffffffffffffffffffffffffffffffffff166118de612620565b73ffffffffffffffffffffffffffffffffffffffff167f17307eab39ab6107e8899845ad3d59bd9653f200f220920489ca2b5937696c31836040516119239190613850565b60405180910390a35050565b611937612568565b6000811161197a576040517f08c379a0000000000000000000000000000000000000000000000000000000008152600401611971906146f4565b60405180910390fd5b605881600b5461198a919061450e565b11156119cb576040517f08c379a00000000000000000000000000000000000000000000000000000000081526004016119c290614760565b60405180910390fd5b80600b546119d9919061450e565b600b819055506119e98282612bc9565b5050565b6119f5612568565b601060009054906101000a900460ff16158015611a0f5750805b15611a2f5780601060006101000a81548160ff0219169083151502179055505b8282600f9190611a409291906136b6565b50505050565b611a518484846126da565b611a5d84848484612f29565b611a93576040517fd1a57ed600000000000000000000000000000000000000000000000000000000815260040160405180910390fd5b50505050565b600381565b611aa6612568565b6000600d60000160009054906101000a900467ffffffffffffffff1667ffffffffffffffff1603611b0c576040517f08c379a0000000000000000000000000000000000000000000000000000000008152600401611b03906147cc565b60405180910390fd5b600c60069054906101000a900460ff16611b3c576001600c60066101000a81548160ff0219169083151502179055505b600c60059054906101000a900460ff1615611b6d576000600c60056101000a81548160ff0219169083151502179055505b6000600c60009054906101000a900463ffffffff1663ffffffff1603611baf5742600c60006101000a81548163ffffffff021916908363ffffffff1602179055505b600c60049054906101000a900460ff1615611be3576000600c60046101000a81548160ff0219169083151502179055611bfe565b6001600c60046101000a81548160ff02191690831515021790555b50565b6060611c0c826125e6565b611c4b576040517f08c379a0000000000000000000000000000000000000000000000000000000008152600401611c42906141d0565b60405180910390fd5b601060009054906101000a900460ff1615611c9257600f611c6b836130a7565b604051602001611c7c9291906148bc565b6040516020818303038152906040529050611d20565b600f8054611c9f90614153565b80601f0160208091040260200160405190810160405280929190818152602001828054611ccb90614153565b8015611d185780601f10611ced57610100808354040283529160200191611d18565b820191906000526020600020905b815481529060010190602001808311611cfb57829003601f168201915b505050505090505b919050565b611d2d612568565b80601160146101000a8154816bffffffffffffffffffffffff02191690836bffffffffffffffffffffffff16021790555050565b600c60049054906101000a900460ff16611db0576040517f08c379a0000000000000000000000000000000000000000000000000000000008152600401611da79061492c565b60405180910390fd5b3373ffffffffffffffffffffffffffffffffffffffff163273ffffffffffffffffffffffffffffffffffffffff1614611e1e576040517f08c379a0000000000000000000000000000000000000000000000000000000008152600401611e1590614998565b60405180910390fd5b600381611e2a33613207565b611e34919061450e565b1115611e75576040517f08c379a0000000000000000000000000000000000000000000000000000000008152600401611e6c90614a04565b60405180910390fd5b60586122b8611e8491906142d9565b81600b54611e90610de1565b611e9a91906142d9565b611ea4919061450e565b1115611ee5576040517f08c379a0000000000000000000000000000000000000000000000000000000008152600401611edc90614a70565b60405180910390fd5b600080600d6040518060800160405290816000820160009054906101000a900467ffffffffffffffff1667ffffffffffffffff1667ffffffffffffffff1681526020016000820160089054906101000a900467ffffffffffffffff1667ffffffffffffffff1667ffffffffffffffff1681526020016000820160109054906101000a900467ffffffffffffffff1667ffffffffffffffff1667ffffffffffffffff1681526020016000820160189054906101000a900467ffffffffffffffff1667ffffffffffffffff1667ffffffffffffffff16815250509050806020015167ffffffffffffffff16600c60009054906101000a900463ffffffff1663ffffffff1642611ff291906142d9565b1061200c5782600954612005919061421f565b91506120a4565b6000816040015167ffffffffffffffff16600c60009054906101000a900463ffffffff1663ffffffff164261204191906142d9565b61204b91906142a8565b905083826060015167ffffffffffffffff1682612068919061421f565b600d60000160009054906101000a900467ffffffffffffffff1667ffffffffffffffff1661209691906142d9565b6120a0919061421f565b9250505b813410156120e7576040517f08c379a00000000000000000000000000000000000000000000000000000000081526004016120de90614adc565b60405180910390fd5b61210333846040518060200160405280600081525060016132d6565b8134111561215e573373ffffffffffffffffffffffffffffffffffffffff166108fc833461213191906142d9565b9081150290604051600060405180830381858888f1935050505015801561215c573d6000803e3d6000fd5b505b505050565b600061216e82613207565b9050919050565b6000600760008473ffffffffffffffffffffffffffffffffffffffff1673ffffffffffffffffffffffffffffffffffffffff16815260200190815260200160002060008373ffffffffffffffffffffffffffffffffffffffff1673ffffffffffffffffffffffffffffffffffffffff16815260200190815260200160002060009054906101000a900460ff16905092915050565b6000600c60049054906101000a900460ff1661224a57600d60000160009054906101000a900467ffffffffffffffff1667ffffffffffffffff1690506123f4565b6000600d6040518060800160405290816000820160009054906101000a900467ffffffffffffffff1667ffffffffffffffff1667ffffffffffffffff1681526020016000820160089054906101000a900467ffffffffffffffff1667ffffffffffffffff1667ffffffffffffffff1681526020016000820160109054906101000a900467ffffffffffffffff1667ffffffffffffffff1667ffffffffffffffff1681526020016000820160189054906101000a900467ffffffffffffffff1667ffffffffffffffff1667ffffffffffffffff16815250509050806020015167ffffffffffffffff16600c60009054906101000a900463ffffffff1663ffffffff164261235691906142d9565b10612366576009549150506123f4565b6000816040015167ffffffffffffffff16600c60009054906101000a900463ffffffff1663ffffffff164261239b91906142d9565b6123a591906142a8565b9050816060015167ffffffffffffffff16816123c1919061421f565b600d60000160009054906101000a900467ffffffffffffffff1667ffffffffffffffff166123ef91906142d9565b925050505b90565b600a5481565b612405612568565b600073ffffffffffffffffffffffffffffffffffffffff168173ffffffffffffffffffffffffffffffffffffffff1603612474576040517f08c379a000000000000000000000000000000000000000000000000000000000815260040161246b90614b6e565b60405180910390fd5b61247d81612e63565b50565b60095481565b60007f80ac58cd000000000000000000000000000000000000000000000000000000007bffffffffffffffffffffffffffffffffffffffffffffffffffffffff1916827bffffffffffffffffffffffffffffffffffffffffffffffffffffffff1916148061255157507f5b5e139f000000000000000000000000000000000000000000000000000000007bffffffffffffffffffffffffffffffffffffffffffffffffffffffff1916827bffffffffffffffffffffffffffffffffffffffffffffffffffffffff1916145b8061256157506125608261360b565b5b9050919050565b612570612620565b73ffffffffffffffffffffffffffffffffffffffff1661258e6116f6565b73ffffffffffffffffffffffffffffffffffffffff16146125e4576040517f08c379a00000000000000000000000000000000000000000000000000000000081526004016125db90614bda565b60405180910390fd5b565b6000805482108015612619575060046000838152602001908152602001600020600001601c9054906101000a900460ff16155b9050919050565b600033905090565b826006600084815260200190815260200160002060006101000a81548173ffffffffffffffffffffffffffffffffffffffff021916908373ffffffffffffffffffffffffffffffffffffffff160217905550818373ffffffffffffffffffffffffffffffffffffffff168273ffffffffffffffffffffffffffffffffffffffff167f8c5be1e5ebec7d5bd14f71427d1e84f3dd0314c0f7b2291e5b200ac8c7c3b92560405160405180910390a4505050565b60006126e582612be7565b90506000816000015173ffffffffffffffffffffffffffffffffffffffff1661270c612620565b73ffffffffffffffffffffffffffffffffffffffff16148061273f575061273e8260000151612739612620565b612175565b5b80612784575061274d612620565b73ffffffffffffffffffffffffffffffffffffffff1661276c84610be7565b73ffffffffffffffffffffffffffffffffffffffff16145b9050806127bd576040517f59c896be00000000000000000000000000000000000000000000000000000000815260040160405180910390fd5b8473ffffffffffffffffffffffffffffffffffffffff16826000015173ffffffffffffffffffffffffffffffffffffffff1614612826576040517fa114810000000000000000000000000000000000000000000000000000000000815260040160405180910390fd5b600073ffffffffffffffffffffffffffffffffffffffff168473ffffffffffffffffffffffffffffffffffffffff160361288c576040517fea553b3400000000000000000000000000000000000000000000000000000000815260040160405180910390fd5b6128998585856001613675565b6128a96000848460000151612628565b6001600560008773ffffffffffffffffffffffffffffffffffffffff1673ffffffffffffffffffffffffffffffffffffffff16815260200190815260200160002060000160008282829054906101000a900467ffffffffffffffff160392506101000a81548167ffffffffffffffff021916908367ffffffffffffffff1602179055506001600560008673ffffffffffffffffffffffffffffffffffffffff1673ffffffffffffffffffffffffffffffffffffffff16815260200190815260200160002060000160008282829054906101000a900467ffffffffffffffff160192506101000a81548167ffffffffffffffff021916908367ffffffffffffffff160217905550836004600085815260200190815260200160002060000160006101000a81548173ffffffffffffffffffffffffffffffffffffffff021916908373ffffffffffffffffffffffffffffffffffffffff160217905550426004600085815260200190815260200160002060000160146101000a81548167ffffffffffffffff021916908367ffffffffffffffff1602179055506000600184019050600073ffffffffffffffffffffffffffffffffffffffff166004600083815260200190815260200160002060000160009054906101000a900473ffffffffffffffffffffffffffffffffffffffff1673ffffffffffffffffffffffffffffffffffffffff1603612b5957600054811015612b585782600001516004600083815260200190815260200160002060000160006101000a81548173ffffffffffffffffffffffffffffffffffffffff021916908373ffffffffffffffffffffffffffffffffffffffff16021790555082602001516004600083815260200190815260200160002060000160146101000a81548167ffffffffffffffff021916908367ffffffffffffffff1602179055505b5b50828473ffffffffffffffffffffffffffffffffffffffff168673ffffffffffffffffffffffffffffffffffffffff167fddf252ad1be2c89b69c2b068fc378daa952ba7f163c4a11628f55a4df523b3ef60405160405180910390a4612bc2858585600161367b565b5050505050565b612be3828260405180602001604052806000815250613681565b5050565b612bef61373c565b6000829050600054811015612e2c576000600460008381526020019081526020016000206040518060600160405290816000820160009054906101000a900473ffffffffffffffffffffffffffffffffffffffff1673ffffffffffffffffffffffffffffffffffffffff1673ffffffffffffffffffffffffffffffffffffffff1681526020016000820160149054906101000a900467ffffffffffffffff1667ffffffffffffffff1667ffffffffffffffff16815260200160008201601c9054906101000a900460ff16151515158152505090508060400151612e2a57600073ffffffffffffffffffffffffffffffffffffffff16816000015173ffffffffffffffffffffffffffffffffffffffff1614612d0e578092505050612e5e565b5b600115612e2957818060019003925050600460008381526020019081526020016000206040518060600160405290816000820160009054906101000a900473ffffffffffffffffffffffffffffffffffffffff1673ffffffffffffffffffffffffffffffffffffffff1673ffffffffffffffffffffffffffffffffffffffff1681526020016000820160149054906101000a900467ffffffffffffffff1667ffffffffffffffff1667ffffffffffffffff16815260200160008201601c9054906101000a900460ff1615151515815250509050600073ffffffffffffffffffffffffffffffffffffffff16816000015173ffffffffffffffffffffffffffffffffffffffff1614612e24578092505050612e5e565b612d0f565b5b505b6040517fdf2d9b4200000000000000000000000000000000000000000000000000000000815260040160405180910390fd5b919050565b6000600860009054906101000a900473ffffffffffffffffffffffffffffffffffffffff16905081600860006101000a81548173ffffffffffffffffffffffffffffffffffffffff021916908373ffffffffffffffffffffffffffffffffffffffff1602179055508173ffffffffffffffffffffffffffffffffffffffff168173ffffffffffffffffffffffffffffffffffffffff167f8be0079c531659141344cd1fd0a4f28419497f9722a3daafe3b4186f6b6457e060405160405180910390a35050565b6000612f4a8473ffffffffffffffffffffffffffffffffffffffff16613693565b1561309a578373ffffffffffffffffffffffffffffffffffffffff1663150b7a02612f73612620565b8786866040518563ffffffff1660e01b8152600401612f959493929190614c4f565b6020604051808303816000875af1925050508015612fd157506040513d601f19601f82011682018060405250810190612fce9190614cb0565b60015b61304a573d8060008114613001576040519150601f19603f3d011682016040523d82523d6000602084013e613006565b606091505b506000815103613042576040517fd1a57ed600000000000000000000000000000000000000000000000000000000815260040160405180910390fd5b805181602001fd5b63150b7a0260e01b7bffffffffffffffffffffffffffffffffffffffffffffffffffffffff1916817bffffffffffffffffffffffffffffffffffffffffffffffffffffffff19161491505061309f565b600190505b949350505050565b6060600082036130ee576040518060400160405280600181526020017f30000000000000000000000000000000000000000000000000000000000000008152509050613202565b600082905060005b600082146131205780806131099061433c565b915050600a8261311991906142a8565b91506130f6565b60008167ffffffffffffffff81111561313c5761313b613ec5565b5b6040519080825280601f01601f19166020018201604052801561316e5781602001600182028036833780820191505090505b5090505b600085146131fb5760018261318791906142d9565b9150600a856131969190614cdd565b60306131a2919061450e565b60f81b8183815181106131b8576131b761430d565b5b60200101907effffffffffffffffffffffffffffffffffffffffffffffffffffffffffffff1916908160001a905350600a856131f491906142a8565b9450613172565b8093505050505b919050565b60008073ffffffffffffffffffffffffffffffffffffffff168273ffffffffffffffffffffffffffffffffffffffff160361326e576040517f35ebb31900000000000000000000000000000000000000000000000000000000815260040160405180910390fd5b600560008373ffffffffffffffffffffffffffffffffffffffff1673ffffffffffffffffffffffffffffffffffffffff16815260200190815260200160002060000160089054906101000a900467ffffffffffffffff1667ffffffffffffffff169050919050565b600080549050600073ffffffffffffffffffffffffffffffffffffffff168573ffffffffffffffffffffffffffffffffffffffff1603613342576040517f2e07630000000000000000000000000000000000000000000000000000000000815260040160405180910390fd5b6000840361337c576040517fb562e8dd00000000000000000000000000000000000000000000000000000000815260040160405180910390fd5b6133896000868387613675565b83600560008773ffffffffffffffffffffffffffffffffffffffff1673ffffffffffffffffffffffffffffffffffffffff16815260200190815260200160002060000160008282829054906101000a900467ffffffffffffffff160192506101000a81548167ffffffffffffffff021916908367ffffffffffffffff16021790555083600560008773ffffffffffffffffffffffffffffffffffffffff1673ffffffffffffffffffffffffffffffffffffffff16815260200190815260200160002060000160088282829054906101000a900467ffffffffffffffff160192506101000a81548167ffffffffffffffff021916908367ffffffffffffffff160217905550846004600083815260200190815260200160002060000160006101000a81548173ffffffffffffffffffffffffffffffffffffffff021916908373ffffffffffffffffffffffffffffffffffffffff160217905550426004600083815260200190815260200160002060000160146101000a81548167ffffffffffffffff021916908367ffffffffffffffff160217905550600081905060005b858110156135ee57818773ffffffffffffffffffffffffffffffffffffffff16600073ffffffffffffffffffffffffffffffffffffffff167fddf252ad1be2c89b69c2b068fc378daa952ba7f163c4a11628f55a4df523b3ef60405160405180910390a48380156135a257506135a06000888488612f29565b155b156135d9576040517fd1a57ed600000000000000000000000000000000000000000000000000000000815260040160405180910390fd5b81806001019250508080600101915050613527565b508060008190555050613604600086838761367b565b5050505050565b60007f01ffc9a7000000000000000000000000000000000000000000000000000000007bffffffffffffffffffffffffffffffffffffffffffffffffffffffff1916827bffffffffffffffffffffffffffffffffffffffffffffffffffffffff1916149050919050565b50505050565b50505050565b61368e83838360016132d6565b505050565b6000808273ffffffffffffffffffffffffffffffffffffffff163b119050919050565b8280546136c290614153565b90600052602060002090601f0160209004810192826136e4576000855561372b565b82601f106136fd57803560ff191683800117855561372b565b8280016001018555821561372b579182015b8281111561372a57823582559160200191906001019061370f565b5b509050613738919061377f565b5090565b6040518060600160405280600073ffffffffffffffffffffffffffffffffffffffff168152602001600067ffffffffffffffff1681526020016000151581525090565b5b80821115613798576000816000905550600101613780565b5090565b6000604051905090565b600080fd5b600080fd5b60007fffffffff0000000000000000000000000000000000000000000000000000000082169050919050565b6137e5816137b0565b81146137f057600080fd5b50565b600081359050613802816137dc565b92915050565b60006020828403121561381e5761381d6137a6565b5b600061382c848285016137f3565b91505092915050565b60008115159050919050565b61384a81613835565b82525050565b60006020820190506138656000830184613841565b92915050565b600073ffffffffffffffffffffffffffffffffffffffff82169050919050565b60006138968261386b565b9050919050565b6138a68161388b565b81146138b157600080fd5b50565b6000813590506138c38161389d565b92915050565b6000602082840312156138df576138de6137a6565b5b60006138ed848285016138b4565b91505092915050565b600081519050919050565b600082825260208201905092915050565b60005b83811015613930578082015181840152602081019050613915565b8381111561393f576000848401525b50505050565b6000601f19601f8301169050919050565b6000613961826138f6565b61396b8185613901565b935061397b818560208601613912565b61398481613945565b840191505092915050565b600060208201905081810360008301526139a98184613956565b905092915050565b6000819050919050565b6139c4816139b1565b81146139cf57600080fd5b50565b6000813590506139e1816139bb565b92915050565b6000602082840312156139fd576139fc6137a6565b5b6000613a0b848285016139d2565b91505092915050565b613a1d8161388b565b82525050565b6000602082019050613a386000830184613a14565b92915050565b60008060408385031215613a5557613a546137a6565b5b6000613a63858286016138b4565b9250506020613a74858286016139d2565b9150509250929050565b613a87816139b1565b82525050565b6000602082019050613aa26000830184613a7e565b92915050565b600067ffffffffffffffff82169050919050565b613ac581613aa8565b82525050565b6000608082019050613ae06000830187613abc565b613aed6020830186613abc565b613afa6040830185613abc565b613b076060830184613abc565b95945050505050565b600080600060608486031215613b2957613b286137a6565b5b6000613b37868287016138b4565b9350506020613b48868287016138b4565b9250506040613b59868287016139d2565b9150509250925092565b60008060408385031215613b7a57613b796137a6565b5b6000613b88858286016139d2565b9250506020613b99858286016139d2565b9150509250929050565b6000604082019050613bb86000830185613a14565b613bc56020830184613a7e565b9392505050565b600080fd5b600080fd5b600080fd5b60008083601f840112613bf157613bf0613bcc565b5b8235905067ffffffffffffffff811115613c0e57613c0d613bd1565b5b602083019150836020820283011115613c2a57613c29613bd6565b5b9250929050565b613c3a81613835565b8114613c4557600080fd5b50565b600081359050613c5781613c31565b92915050565b600080600060408486031215613c7657613c756137a6565b5b600084013567ffffffffffffffff811115613c9457613c936137ab565b5b613ca086828701613bdb565b93509350506020613cb386828701613c48565b9150509250925092565b600063ffffffff82169050919050565b613cd681613cbd565b82525050565b6000602082019050613cf16000830184613ccd565b92915050565b613d0081613cbd565b8114613d0b57600080fd5b50565b600081359050613d1d81613cf7565b92915050565b613d2c81613aa8565b8114613d3757600080fd5b50565b600081359050613d4981613d23565b92915050565b600080600080600060a08688031215613d6b57613d6a6137a6565b5b6000613d7988828901613d0e565b9550506020613d8a88828901613d3a565b9450506040613d9b88828901613d3a565b9350506060613dac88828901613d3a565b9250506080613dbd88828901613d3a565b9150509295509295909350565b60008060408385031215613de157613de06137a6565b5b6000613def858286016138b4565b9250506020613e0085828601613c48565b9150509250929050565b60008083601f840112613e2057613e1f613bcc565b5b8235905067ffffffffffffffff811115613e3d57613e3c613bd1565b5b602083019150836001820283011115613e5957613e58613bd6565b5b9250929050565b600080600060408486031215613e7957613e786137a6565b5b600084013567ffffffffffffffff811115613e9757613e966137ab565b5b613ea386828701613e0a565b93509350506020613eb686828701613c48565b9150509250925092565b600080fd5b7f4e487b7100000000000000000000000000000000000000000000000000000000600052604160045260246000fd5b613efd82613945565b810181811067ffffffffffffffff82111715613f1c57613f1b613ec5565b5b80604052505050565b6000613f2f61379c565b9050613f3b8282613ef4565b919050565b600067ffffffffffffffff821115613f5b57613f5a613ec5565b5b613f6482613945565b9050602081019050919050565b82818337600083830152505050565b6000613f93613f8e84613f40565b613f25565b905082815260208101848484011115613faf57613fae613ec0565b5b613fba848285613f71565b509392505050565b600082601f830112613fd757613fd6613bcc565b5b8135613fe7848260208601613f80565b91505092915050565b6000806000806080858703121561400a576140096137a6565b5b6000614018878288016138b4565b9450506020614029878288016138b4565b935050604061403a878288016139d2565b925050606085013567ffffffffffffffff81111561405b5761405a6137ab565b5b61406787828801613fc2565b91505092959194509250565b60006bffffffffffffffffffffffff82169050919050565b61409481614073565b811461409f57600080fd5b50565b6000813590506140b18161408b565b92915050565b6000602082840312156140cd576140cc6137a6565b5b60006140db848285016140a2565b91505092915050565b600080604083850312156140fb576140fa6137a6565b5b6000614109858286016138b4565b925050602061411a858286016138b4565b9150509250929050565b7f4e487b7100000000000000000000000000000000000000000000000000000000600052602260045260246000fd5b6000600282049050600182168061416b57607f821691505b60208210810361417e5761417d614124565b5b50919050565b7f43616e6e6f74207175657279206e6f6e2d6578697374656e7420746f6b656e00600082015250565b60006141ba601f83613901565b91506141c582614184565b602082019050919050565b600060208201905081810360008301526141e9816141ad565b9050919050565b7f4e487b7100000000000000000000000000000000000000000000000000000000600052601160045260246000fd5b600061422a826139b1565b9150614235836139b1565b9250817fffffffffffffffffffffffffffffffffffffffffffffffffffffffffffffffff048311821515161561426e5761426d6141f0565b5b828202905092915050565b7f4e487b7100000000000000000000000000000000000000000000000000000000600052601260045260246000fd5b60006142b3826139b1565b91506142be836139b1565b9250826142ce576142cd614279565b5b828204905092915050565b60006142e4826139b1565b91506142ef836139b1565b925082821015614302576143016141f0565b5b828203905092915050565b7f4e487b7100000000000000000000000000000000000000000000000000000000600052603260045260246000fd5b6000614347826139b1565b91507fffffffffffffffffffffffffffffffffffffffffffffffffffffffffffffffff8203614379576143786141f0565b5b600182019050919050565b600081905092915050565b50565b600061439f600083614384565b91506143aa8261438f565b600082019050919050565b60006143c082614392565b9150819050919050565b7f5452414e534645525f4641494c45440000000000000000000000000000000000600082015250565b6000614400600f83613901565b915061440b826143ca565b602082019050919050565b6000602082019050818103600083015261442f816143f3565b9050919050565b7f57484954454c4953545f454e4445440000000000000000000000000000000000600082015250565b600061446c600f83613901565b915061447782614436565b602082019050919050565b6000602082019050818103600083015261449b8161445f565b9050919050565b7f57484954454c4953545f494e4143544956450000000000000000000000000000600082015250565b60006144d8601283613901565b91506144e3826144a2565b602082019050919050565b60006020820190508181036000830152614507816144cb565b9050919050565b6000614519826139b1565b9150614524836139b1565b9250827fffffffffffffffffffffffffffffffffffffffffffffffffffffffffffffffff03821115614559576145586141f0565b5b828201905092915050565b7f57484954454c4953545f4d415845440000000000000000000000000000000000600082015250565b600061459a600f83613901565b91506145a582614564565b602082019050919050565b600060208201905081810360008301526145c98161458d565b9050919050565b7f554e415554484f52495a45440000000000000000000000000000000000000000600082015250565b6000614606600c83613901565b9150614611826145d0565b602082019050919050565b60006020820190508181036000830152614635816145f9565b9050919050565b7f494e434f52524543545f45544800000000000000000000000000000000000000600082015250565b6000614672600d83613901565b915061467d8261463c565b602082019050919050565b600060208201905081810360008301526146a181614665565b9050919050565b7f494e56414c49445f5155414e5449545900000000000000000000000000000000600082015250565b60006146de601083613901565b91506146e9826146a8565b602082019050919050565b6000602082019050818103600083015261470d816146d1565b9050919050565b7f524553455256455f4d4158454400000000000000000000000000000000000000600082015250565b600061474a600d83613901565b915061475582614714565b602082019050919050565b600060208201905081810360008301526147798161473d565b9050919050565b7f53414c455f5641524941424c45535f4e4f545f53455400000000000000000000600082015250565b60006147b6601683613901565b91506147c182614780565b602082019050919050565b600060208201905081810360008301526147e5816147a9565b9050919050565b600081905092915050565b60008190508160005260206000209050919050565b6000815461481981614153565b61482381866147ec565b9450600182166000811461483e576001811461484f57614882565b60ff19831686528186019350614882565b614858856147f7565b60005b8381101561487a5781548189015260018201915060208101905061485b565b838801955050505b50505092915050565b6000614896826138f6565b6148a081856147ec565b93506148b0818560208601613912565b80840191505092915050565b60006148c8828561480c565b91506148d4828461488b565b91508190509392505050565b7f53414c455f494e41435449564500000000000000000000000000000000000000600082015250565b6000614916600d83613901565b9150614921826148e0565b602082019050919050565b6000602082019050818103600083015261494581614909565b9050919050565b7f4e4f545f454f4100000000000000000000000000000000000000000000000000600082015250565b6000614982600783613901565b915061498d8261494c565b602082019050919050565b600060208201905081810360008301526149b181614975565b9050919050565b7f5155414e544954595f4d41584544000000000000000000000000000000000000600082015250565b60006149ee600e83613901565b91506149f9826149b8565b602082019050919050565b60006020820190508181036000830152614a1d816149e1565b9050919050565b7f53414c455f4d4158454400000000000000000000000000000000000000000000600082015250565b6000614a5a600a83613901565b9150614a6582614a24565b602082019050919050565b60006020820190508181036000830152614a8981614a4d565b9050919050565b7f494e53554646494349454e545f45544800000000000000000000000000000000600082015250565b6000614ac6601083613901565b9150614ad182614a90565b602082019050919050565b60006020820190508181036000830152614af581614ab9565b9050919050565b7f4f776e61626c653a206e6577206f776e657220697320746865207a65726f206160008201527f6464726573730000000000000000000000000000000000000000000000000000602082015250565b6000614b58602683613901565b9150614b6382614afc565b604082019050919050565b60006020820190508181036000830152614b8781614b4b565b9050919050565b7f4f776e61626c653a2063616c6c6572206973206e6f7420746865206f776e6572600082015250565b6000614bc4602083613901565b9150614bcf82614b8e565b602082019050919050565b60006020820190508181036000830152614bf381614bb7565b9050919050565b600081519050919050565b600082825260208201905092915050565b6000614c2182614bfa565b614c2b8185614c05565b9350614c3b818560208601613912565b614c4481613945565b840191505092915050565b6000608082019050614c646000830187613a14565b614c716020830186613a14565b614c7e6040830185613a7e565b8181036060830152614c908184614c16565b905095945050505050565b600081519050614caa816137dc565b92915050565b600060208284031215614cc657614cc56137a6565b5b6000614cd484828501614c9b565b91505092915050565b6000614ce8826139b1565b9150614cf3836139b1565b925082614d0357614d02614279565b5b82820690509291505056fea2646970667358221220084386c775f347d7d128f07efcb88e2e84a74076ba552b5ff25e33411dc9b08264736f6c634300080d0033",
  "linkReferences": {},
  "deployedLinkReferences": {}
}