{
  "_format": "hh-sol-artifact-1",
  "contractName": "ZZZ3",
  "sourceName": "contracts/zzz.sol",
  "abi": [
    {
      "inputs": [],
      "stateMutability": "nonpayable",
      "type": "constructor"
    },
    {
      "anonymous": false,
      "inputs": [
        {
          "indexed": true,
          "internalType": "address",
          "name": "owner",
          "type": "address"
        },
        {
          "indexed": true,
          "internalType": "address",
          "name": "spender",
          "type": "address"
        },
        {
          "indexed": false,
          "internalType": "uint256",
          "name": "value",
          "type": "uint256"
        }
      ],
      "name": "Approval",
      "type": "event"
    },
    {
      "anonymous": false,
      "inputs": [
        {
          "indexed": true,
          "internalType": "address",
          "name": "delegator",
          "type": "address"
        },
        {
          "indexed": true,
          "internalType": "address",
          "name": "fromDelegate",
          "type": "address"
        },
        {
          "indexed": true,
          "internalType": "address",
          "name": "toDelegate",
          "type": "address"
        }
      ],
      "name": "DelegateChanged",
      "type": "event"
    },
    {
      "anonymous": false,
      "inputs": [
        {
          "indexed": true,
          "internalType": "address",
          "name": "delegate",
          "type": "address"
        },
        {
          "indexed": false,
          "internalType": "uint256",
          "name": "previousBalance",
          "type": "uint256"
        },
        {
          "indexed": false,
          "internalType": "uint256",
          "name": "newBalance",
          "type": "uint256"
        }
      ],
      "name": "DelegateVotesChanged",
      "type": "event"
    },
    {
      "anonymous": false,
      "inputs": [
        {
          "indexed": false,
          "internalType": "address",
          "name": "account",
          "type": "address"
        }
      ],
      "name": "Paused",
      "type": "event"
    },
    {
      "anonymous": false,
      "inputs": [
        {
          "indexed": true,
          "internalType": "bytes32",
          "name": "role",
          "type": "bytes32"
        },
        {
          "indexed": true,
          "internalType": "bytes32",
          "name": "previousAdminRole",
          "type": "bytes32"
        },
        {
          "indexed": true,
          "internalType": "bytes32",
          "name": "newAdminRole",
          "type": "bytes32"
        }
      ],
      "name": "RoleAdminChanged",
      "type": "event"
    },
    {
      "anonymous": false,
      "inputs": [
        {
          "indexed": true,
          "internalType": "bytes32",
          "name": "role",
          "type": "bytes32"
        },
        {
          "indexed": true,
          "internalType": "address",
          "name": "account",
          "type": "address"
        },
        {
          "indexed": true,
          "internalType": "address",
          "name": "sender",
          "type": "address"
        }
      ],
      "name": "RoleGranted",
      "type": "event"
    },
    {
      "anonymous": false,
      "inputs": [
        {
          "indexed": true,
          "internalType": "bytes32",
          "name": "role",
          "type": "bytes32"
        },
        {
          "indexed": true,
          "internalType": "address",
          "name": "account",
          "type": "address"
        },
        {
          "indexed": true,
          "internalType": "address",
          "name": "sender",
          "type": "address"
        }
      ],
      "name": "RoleRevoked",
      "type": "event"
    },
    {
      "anonymous": false,
      "inputs": [
        {
          "indexed": true,
          "internalType": "address",
          "name": "from",
          "type": "address"
        },
        {
          "indexed": true,
          "internalType": "address",
          "name": "to",
          "type": "address"
        },
        {
          "indexed": false,
          "internalType": "uint256",
          "name": "value",
          "type": "uint256"
        }
      ],
      "name": "Transfer",
      "type": "event"
    },
    {
      "anonymous": false,
      "inputs": [
        {
          "indexed": false,
          "internalType": "address",
          "name": "account",
          "type": "address"
        }
      ],
      "name": "Unpaused",
      "type": "event"
    },
    {
      "inputs": [],
      "name": "DEFAULT_ADMIN_ROLE",
      "outputs": [
        {
          "internalType": "bytes32",
          "name": "",
          "type": "bytes32"
        }
      ],
      "stateMutability": "view",
      "type": "function"
    },
    {
      "inputs": [],
      "name": "DOMAIN_SEPARATOR",
      "outputs": [
        {
          "internalType": "bytes32",
          "name": "",
          "type": "bytes32"
        }
      ],
      "stateMutability": "view",
      "type": "function"
    },
    {
      "inputs": [],
      "name": "KYCED_USER_ROLE",
      "outputs": [
        {
          "internalType": "bytes32",
          "name": "",
          "type": "bytes32"
        }
      ],
      "stateMutability": "view",
      "type": "function"
    },
    {
      "inputs": [],
      "name": "KYC_MANAGER",
      "outputs": [
        {
          "internalType": "bytes32",
          "name": "",
          "type": "bytes32"
        }
      ],
      "stateMutability": "view",
      "type": "function"
    },
    {
      "inputs": [],
      "name": "MINTER_ROLE",
      "outputs": [
        {
          "internalType": "bytes32",
          "name": "",
          "type": "bytes32"
        }
      ],
      "stateMutability": "view",
      "type": "function"
    },
    {
      "inputs": [],
      "name": "PAUSER_ROLE",
      "outputs": [
        {
          "internalType": "bytes32",
          "name": "",
          "type": "bytes32"
        }
      ],
      "stateMutability": "view",
      "type": "function"
    },
    {
      "inputs": [
        {
          "internalType": "address",
          "name": "owner",
          "type": "address"
        },
        {
          "internalType": "address",
          "name": "spender",
          "type": "address"
        }
      ],
      "name": "allowance",
      "outputs": [
        {
          "internalType": "uint256",
          "name": "",
          "type": "uint256"
        }
      ],
      "stateMutability": "view",
      "type": "function"
    },
    {
      "inputs": [
        {
          "internalType": "address",
          "name": "spender",
          "type": "address"
        },
        {
          "internalType": "uint256",
          "name": "amount",
          "type": "uint256"
        }
      ],
      "name": "approve",
      "outputs": [
        {
          "internalType": "bool",
          "name": "",
          "type": "bool"
        }
      ],
      "stateMutability": "nonpayable",
      "type": "function"
    },
    {
      "inputs": [
        {
          "internalType": "address",
          "name": "account",
          "type": "address"
        }
      ],
      "name": "balanceOf",
      "outputs": [
        {
          "internalType": "uint256",
          "name": "",
          "type": "uint256"
        }
      ],
      "stateMutability": "view",
      "type": "function"
    },
    {
      "inputs": [
        {
          "internalType": "uint256",
          "name": "amount",
          "type": "uint256"
        }
      ],
      "name": "burn",
      "outputs": [],
      "stateMutability": "nonpayable",
      "type": "function"
    },
    {
      "inputs": [
        {
          "internalType": "address",
          "name": "account",
          "type": "address"
        },
        {
          "internalType": "uint256",
          "name": "amount",
          "type": "uint256"
        }
      ],
      "name": "burnFrom",
      "outputs": [],
      "stateMutability": "nonpayable",
      "type": "function"
    },
    {
      "inputs": [
        {
          "internalType": "address",
          "name": "account",
          "type": "address"
        },
        {
          "internalType": "uint32",
          "name": "pos",
          "type": "uint32"
        }
      ],
      "name": "checkpoints",
      "outputs": [
        {
          "components": [
            {
              "internalType": "uint32",
              "name": "fromBlock",
              "type": "uint32"
            },
            {
              "internalType": "uint224",
              "name": "votes",
              "type": "uint224"
            }
          ],
          "internalType": "struct ERC20Votes.Checkpoint",
          "name": "",
          "type": "tuple"
        }
      ],
      "stateMutability": "view",
      "type": "function"
    },
    {
      "inputs": [],
      "name": "decimals",
      "outputs": [
        {
          "internalType": "uint8",
          "name": "",
          "type": "uint8"
        }
      ],
      "stateMutability": "view",
      "type": "function"
    },
    {
      "inputs": [
        {
          "internalType": "address",
          "name": "spender",
          "type": "address"
        },
        {
          "internalType": "uint256",
          "name": "subtractedValue",
          "type": "uint256"
        }
      ],
      "name": "decreaseAllowance",
      "outputs": [
        {
          "internalType": "bool",
          "name": "",
          "type": "bool"
        }
      ],
      "stateMutability": "nonpayable",
      "type": "function"
    },
    {
      "inputs": [
        {
          "internalType": "address",
          "name": "delegatee",
          "type": "address"
        }
      ],
      "name": "delegate",
      "outputs": [],
      "stateMutability": "nonpayable",
      "type": "function"
    },
    {
      "inputs": [
        {
          "internalType": "address",
          "name": "delegatee",
          "type": "address"
        },
        {
          "internalType": "uint256",
          "name": "nonce",
          "type": "uint256"
        },
        {
          "internalType": "uint256",
          "name": "expiry",
          "type": "uint256"
        },
        {
          "internalType": "uint8",
          "name": "v",
          "type": "uint8"
        },
        {
          "internalType": "bytes32",
          "name": "r",
          "type": "bytes32"
        },
        {
          "internalType": "bytes32",
          "name": "s",
          "type": "bytes32"
        }
      ],
      "name": "delegateBySig",
      "outputs": [],
      "stateMutability": "nonpayable",
      "type": "function"
    },
    {
      "inputs": [
        {
          "internalType": "address",
          "name": "account",
          "type": "address"
        }
      ],
      "name": "delegates",
      "outputs": [
        {
          "internalType": "address",
          "name": "",
          "type": "address"
        }
      ],
      "stateMutability": "view",
      "type": "function"
    },
    {
      "inputs": [
        {
          "internalType": "uint256",
          "name": "blockNumber",
          "type": "uint256"
        }
      ],
      "name": "getPastTotalSupply",
      "outputs": [
        {
          "internalType": "uint256",
          "name": "",
          "type": "uint256"
        }
      ],
      "stateMutability": "view",
      "type": "function"
    },
    {
      "inputs": [
        {
          "internalType": "address",
          "name": "account",
          "type": "address"
        },
        {
          "internalType": "uint256",
          "name": "blockNumber",
          "type": "uint256"
        }
      ],
      "name": "getPastVotes",
      "outputs": [
        {
          "internalType": "uint256",
          "name": "",
          "type": "uint256"
        }
      ],
      "stateMutability": "view",
      "type": "function"
    },
    {
      "inputs": [
        {
          "internalType": "bytes32",
          "name": "role",
          "type": "bytes32"
        }
      ],
      "name": "getRoleAdmin",
      "outputs": [
        {
          "internalType": "bytes32",
          "name": "",
          "type": "bytes32"
        }
      ],
      "stateMutability": "view",
      "type": "function"
    },
    {
      "inputs": [
        {
          "internalType": "address",
          "name": "account",
          "type": "address"
        }
      ],
      "name": "getVotes",
      "outputs": [
        {
          "internalType": "uint256",
          "name": "",
          "type": "uint256"
        }
      ],
      "stateMutability": "view",
      "type": "function"
    },
    {
      "inputs": [
        {
          "internalType": "bytes32",
          "name": "role",
          "type": "bytes32"
        },
        {
          "internalType": "address",
          "name": "account",
          "type": "address"
        }
      ],
      "name": "grantRole",
      "outputs": [],
      "stateMutability": "nonpayable",
      "type": "function"
    },
    {
      "inputs": [
        {
          "internalType": "bytes32",
          "name": "role",
          "type": "bytes32"
        },
        {
          "internalType": "address",
          "name": "account",
          "type": "address"
        }
      ],
      "name": "hasRole",
      "outputs": [
        {
          "internalType": "bool",
          "name": "",
          "type": "bool"
        }
      ],
      "stateMutability": "view",
      "type": "function"
    },
    {
      "inputs": [
        {
          "internalType": "address",
          "name": "spender",
          "type": "address"
        },
        {
          "internalType": "uint256",
          "name": "addedValue",
          "type": "uint256"
        }
      ],
      "name": "increaseAllowance",
      "outputs": [
        {
          "internalType": "bool",
          "name": "",
          "type": "bool"
        }
      ],
      "stateMutability": "nonpayable",
      "type": "function"
    },
    {
      "inputs": [
        {
          "internalType": "address",
          "name": "to",
          "type": "address"
        },
        {
          "internalType": "uint256",
          "name": "amount",
          "type": "uint256"
        }
      ],
      "name": "mint",
      "outputs": [],
      "stateMutability": "nonpayable",
      "type": "function"
    },
    {
      "inputs": [],
      "name": "name",
      "outputs": [
        {
          "internalType": "string",
          "name": "",
          "type": "string"
        }
      ],
      "stateMutability": "view",
      "type": "function"
    },
    {
      "inputs": [
        {
          "internalType": "address",
          "name": "owner",
          "type": "address"
        }
      ],
      "name": "nonces",
      "outputs": [
        {
          "internalType": "uint256",
          "name": "",
          "type": "uint256"
        }
      ],
      "stateMutability": "view",
      "type": "function"
    },
    {
      "inputs": [
        {
          "internalType": "address",
          "name": "account",
          "type": "address"
        }
      ],
      "name": "numCheckpoints",
      "outputs": [
        {
          "internalType": "uint32",
          "name": "",
          "type": "uint32"
        }
      ],
      "stateMutability": "view",
      "type": "function"
    },
    {
      "inputs": [],
      "name": "pause",
      "outputs": [],
      "stateMutability": "nonpayable",
      "type": "function"
    },
    {
      "inputs": [],
      "name": "paused",
      "outputs": [
        {
          "internalType": "bool",
          "name": "",
          "type": "bool"
        }
      ],
      "stateMutability": "view",
      "type": "function"
    },
    {
      "inputs": [
        {
          "internalType": "address",
          "name": "owner",
          "type": "address"
        },
        {
          "internalType": "address",
          "name": "spender",
          "type": "address"
        },
        {
          "internalType": "uint256",
          "name": "value",
          "type": "uint256"
        },
        {
          "internalType": "uint256",
          "name": "deadline",
          "type": "uint256"
        },
        {
          "internalType": "uint8",
          "name": "v",
          "type": "uint8"
        },
        {
          "internalType": "bytes32",
          "name": "r",
          "type": "bytes32"
        },
        {
          "internalType": "bytes32",
          "name": "s",
          "type": "bytes32"
        }
      ],
      "name": "permit",
      "outputs": [],
      "stateMutability": "nonpayable",
      "type": "function"
    },
    {
      "inputs": [
        {
          "internalType": "bytes32",
          "name": "role",
          "type": "bytes32"
        },
        {
          "internalType": "address",
          "name": "account",
          "type": "address"
        }
      ],
      "name": "renounceRole",
      "outputs": [],
      "stateMutability": "nonpayable",
      "type": "function"
    },
    {
      "inputs": [
        {
          "internalType": "bytes32",
          "name": "role",
          "type": "bytes32"
        },
        {
          "internalType": "address",
          "name": "account",
          "type": "address"
        }
      ],
      "name": "revokeRole",
      "outputs": [],
      "stateMutability": "nonpayable",
      "type": "function"
    },
    {
      "inputs": [
        {
          "internalType": "bytes4",
          "name": "interfaceId",
          "type": "bytes4"
        }
      ],
      "name": "supportsInterface",
      "outputs": [
        {
          "internalType": "bool",
          "name": "",
          "type": "bool"
        }
      ],
      "stateMutability": "view",
      "type": "function"
    },
    {
      "inputs": [],
      "name": "symbol",
      "outputs": [
        {
          "internalType": "string",
          "name": "",
          "type": "string"
        }
      ],
      "stateMutability": "view",
      "type": "function"
    },
    {
      "inputs": [],
      "name": "totalSupply",
      "outputs": [
        {
          "internalType": "uint256",
          "name": "",
          "type": "uint256"
        }
      ],
      "stateMutability": "view",
      "type": "function"
    },
    {
      "inputs": [
        {
          "internalType": "address",
          "name": "to",
          "type": "address"
        },
        {
          "internalType": "uint256",
          "name": "amount",
          "type": "uint256"
        }
      ],
      "name": "transfer",
      "outputs": [
        {
          "internalType": "bool",
          "name": "",
          "type": "bool"
        }
      ],
      "stateMutability": "nonpayable",
      "type": "function"
    },
    {
      "inputs": [
        {
          "internalType": "address",
          "name": "from",
          "type": "address"
        },
        {
          "internalType": "address",
          "name": "to",
          "type": "address"
        },
        {
          "internalType": "uint256",
          "name": "amount",
          "type": "uint256"
        }
      ],
      "name": "transferFrom",
      "outputs": [
        {
          "internalType": "bool",
          "name": "",
          "type": "bool"
        }
      ],
      "stateMutability": "nonpayable",
      "type": "function"
    },
    {
      "inputs": [],
      "name": "unpause",
      "outputs": [],
      "stateMutability": "nonpayable",
      "type": "function"
    }
  ],
  "bytecode": "0x6101406040523480156200001257600080fd5b506040518060400160405280600481526020017f5a5a5a3200000000000000000000000000000000000000000000000000000000815250806040518060400160405280600181526020017f31000000000000000000000000000000000000000000000000000000000000008152506040518060400160405280600481526020017f5a5a5a32000000000000000000000000000000000000000000000000000000008152506040518060400160405280600481526020017f5a5a5a320000000000000000000000000000000000000000000000000000000081525081600390805190602001906200010492919062000570565b5080600490805190602001906200011d92919062000570565b5050506000600560006101000a81548160ff02191690831515021790555060008280519060200120905060008280519060200120905060007f8b73c3c69bb8fe3d512ecc4cf759cc79239f7b179b0ffacaa9a75d522b39400f90508260e081815250508161010081815250504660a08181525050620001a48184846200034b60201b60201c565b608081815250503073ffffffffffffffffffffffffffffffffffffffff1660c08173ffffffffffffffffffffffffffffffffffffffff1681525050806101208181525050505050505050620002036000801b336200038760201b60201c565b620002357f65d7a28e3265b37a6474929f336521b332c1681b933f6cb9f3376673440d862a336200038760201b60201c565b6200027b7f9f2df0fed2c77648de5860a4cc508cd0818c85b8b8a1ab4ceeef8d981c8956a673496581157bc98e83a89a44a560fe7a1b7596fae26200038760201b60201c565b620002c17ff4351d3a6f0598dcbd21952df4d9212ee5611fdf4b037ec5233b833487c8168873496581157bc98e83a89a44a560fe7a1b7596fae26200038760201b60201c565b620003137ff4351d3a6f0598dcbd21952df4d9212ee5611fdf4b037ec5233b833487c816887f1df25ad963bcdf5796797f14b691a634f65032f90fca9c8f59fd3b590a07e9496200047960201b60201c565b620003457f1df25ad963bcdf5796797f14b691a634f65032f90fca9c8f59fd3b590a07e949336200038760201b60201c565b6200075c565b60008383834630604051602001620003689594939291906200069b565b6040516020818303038152906040528051906020012090509392505050565b620003998282620004dd60201b60201c565b620004755760016006600084815260200190815260200160002060000160008373ffffffffffffffffffffffffffffffffffffffff1673ffffffffffffffffffffffffffffffffffffffff16815260200190815260200160002060006101000a81548160ff0219169083151502179055506200041a6200054860201b60201c565b73ffffffffffffffffffffffffffffffffffffffff168173ffffffffffffffffffffffffffffffffffffffff16837f2f8788117e7eff1d82e926ec794901d17c78024a50270940304540a733656f0d60405160405180910390a45b5050565b60006200048c836200055060201b60201c565b90508160066000858152602001908152602001600020600101819055508181847fbd79b86ffe0ab8e8776151514217cd7cacd52c909f66475c3af44e129f0b00ff60405160405180910390a4505050565b60006006600084815260200190815260200160002060000160008373ffffffffffffffffffffffffffffffffffffffff1673ffffffffffffffffffffffffffffffffffffffff16815260200190815260200160002060009054906101000a900460ff16905092915050565b600033905090565b600060066000838152602001908152602001600020600101549050919050565b8280546200057e9062000727565b90600052602060002090601f016020900481019282620005a25760008555620005ee565b82601f10620005bd57805160ff1916838001178555620005ee565b82800160010185558215620005ee579182015b82811115620005ed578251825591602001919060010190620005d0565b5b509050620005fd919062000601565b5090565b5b808211156200061c57600081600090555060010162000602565b5090565b6000819050919050565b620006358162000620565b82525050565b6000819050919050565b62000650816200063b565b82525050565b600073ffffffffffffffffffffffffffffffffffffffff82169050919050565b6000620006838262000656565b9050919050565b620006958162000676565b82525050565b600060a082019050620006b260008301886200062a565b620006c160208301876200062a565b620006d060408301866200062a565b620006df606083018562000645565b620006ee60808301846200068a565b9695505050505050565b7f4e487b7100000000000000000000000000000000000000000000000000000000600052602260045260246000fd5b600060028204905060018216806200074057607f821691505b602082108103620007565762000755620006f8565b5b50919050565b60805160a05160c05160e0516101005161012051614bd0620007ac6000396000611bae01526000611bf001526000611bcf01526000611b0401526000611b5a01526000611b830152614bd06000f3fe608060405234801561001057600080fd5b506004361061023d5760003560e01c806370a082311161013b578063a9059cbb116100b8578063d8a84e9b1161007c578063d8a84e9b14610712578063dd62ed3e14610730578063e63ab1e914610760578063f1127ed81461077e578063f83f3180146107ae5761023d565b8063a9059cbb14610670578063c3cda520146106a0578063d505accf146106bc578063d5391393146106d8578063d547741f146106f65761023d565b806391d14854116100ff57806391d14854146105a457806395d89b41146105d45780639ab24eb0146105f2578063a217fddf14610622578063a457c2d7146106405761023d565b806370a08231146104ee57806379cc67901461051e5780637ecebe001461053a5780638456cb591461056a5780638e539e8c146105745761023d565b806336568abe116101c957806342966c681161018d57806342966c6814610438578063587cde1e146104545780635c19a95c146104845780635c975abb146104a05780636fcfff45146104be5761023d565b806336568abe1461039657806339509351146103b25780633a46b1a8146103e25780633f4ba83a1461041257806340c10f191461041c5761023d565b806323b872dd1161021057806323b872dd146102de578063248a9ca31461030e5780632f2ff15d1461033e578063313ce5671461035a5780633644e515146103785761023d565b806301ffc9a71461024257806306fdde0314610272578063095ea7b31461029057806318160ddd146102c0575b600080fd5b61025c60048036038101906102579190613224565b6107cc565b604051610269919061326c565b60405180910390f35b61027a610846565b6040516102879190613320565b60405180910390f35b6102aa60048036038101906102a591906133d6565b6108d8565b6040516102b7919061326c565b60405180910390f35b6102c86108fb565b6040516102d59190613425565b60405180910390f35b6102f860048036038101906102f39190613440565b610905565b604051610305919061326c565b60405180910390f35b610328600480360381019061032391906134c9565b610934565b6040516103359190613505565b60405180910390f35b61035860048036038101906103539190613520565b610954565b005b610362610975565b60405161036f919061357c565b60405180910390f35b61038061097e565b60405161038d9190613505565b60405180910390f35b6103b060048036038101906103ab9190613520565b61098d565b005b6103cc60048036038101906103c791906133d6565b610a10565b6040516103d9919061326c565b60405180910390f35b6103fc60048036038101906103f791906133d6565b610a47565b6040516104099190613425565b60405180910390f35b61041a610adb565b005b610436600480360381019061043191906133d6565b610b10565b005b610452600480360381019061044d9190613597565b610b49565b005b61046e600480360381019061046991906135c4565b610b5d565b60405161047b9190613600565b60405180910390f35b61049e600480360381019061049991906135c4565b610bc6565b005b6104a8610bda565b6040516104b5919061326c565b60405180910390f35b6104d860048036038101906104d391906135c4565b610bf1565b6040516104e5919061363a565b60405180910390f35b610508600480360381019061050391906135c4565b610c45565b6040516105159190613425565b60405180910390f35b610538600480360381019061053391906133d6565b610c8d565b005b610554600480360381019061054f91906135c4565b610cad565b6040516105619190613425565b60405180910390f35b610572610cfd565b005b61058e60048036038101906105899190613597565b610d32565b60405161059b9190613425565b60405180910390f35b6105be60048036038101906105b99190613520565b610d88565b6040516105cb919061326c565b60405180910390f35b6105dc610df3565b6040516105e99190613320565b60405180910390f35b61060c600480360381019061060791906135c4565b610e85565b6040516106199190613425565b60405180910390f35b61062a610f96565b6040516106379190613505565b60405180910390f35b61065a600480360381019061065591906133d6565b610f9d565b604051610667919061326c565b60405180910390f35b61068a600480360381019061068591906133d6565b611014565b604051610697919061326c565b60405180910390f35b6106ba60048036038101906106b59190613681565b611037565b005b6106d660048036038101906106d1919061370e565b61113b565b005b6106e061127d565b6040516106ed9190613505565b60405180910390f35b610710600480360381019061070b9190613520565b6112a1565b005b61071a6112c2565b6040516107279190613505565b60405180910390f35b61074a600480360381019061074591906137b0565b6112e6565b6040516107579190613425565b60405180910390f35b61076861136d565b6040516107759190613505565b60405180910390f35b6107986004803603810190610793919061381c565b611391565b6040516107a591906138d1565b60405180910390f35b6107b66114a1565b6040516107c39190613505565b60405180910390f35b60007f7965db0b000000000000000000000000000000000000000000000000000000007bffffffffffffffffffffffffffffffffffffffffffffffffffffffff1916827bffffffffffffffffffffffffffffffffffffffffffffffffffffffff1916148061083f575061083e826114c5565b5b9050919050565b6060600380546108559061391b565b80601f01602080910402602001604051908101604052809291908181526020018280546108819061391b565b80156108ce5780601f106108a3576101008083540402835291602001916108ce565b820191906000526020600020905b8154815290600101906020018083116108b157829003601f168201915b5050505050905090565b6000806108e361152f565b90506108f0818585611537565b600191505092915050565b6000600254905090565b60008061091061152f565b905061091d858285611700565b61092885858561178c565b60019150509392505050565b600060066000838152602001908152602001600020600101549050919050565b61095d82610934565b61096681611a0b565b6109708383611a1f565b505050565b60006012905090565b6000610988611b00565b905090565b61099561152f565b73ffffffffffffffffffffffffffffffffffffffff168173ffffffffffffffffffffffffffffffffffffffff1614610a02576040517f08c379a00000000000000000000000000000000000000000000000000000000081526004016109f9906139be565b60405180910390fd5b610a0c8282611c1a565b5050565b600080610a1b61152f565b9050610a3c818585610a2d85896112e6565b610a379190613a0d565b611537565b600191505092915050565b6000438210610a8b576040517f08c379a0000000000000000000000000000000000000000000000000000000008152600401610a8290613aaf565b60405180910390fd5b610ad3600a60008573ffffffffffffffffffffffffffffffffffffffff1673ffffffffffffffffffffffffffffffffffffffff16815260200190815260200160002083611cfc565b905092915050565b7f65d7a28e3265b37a6474929f336521b332c1681b933f6cb9f3376673440d862a610b0581611a0b565b610b0d611e08565b50565b7f9f2df0fed2c77648de5860a4cc508cd0818c85b8b8a1ab4ceeef8d981c8956a6610b3a81611a0b565b610b448383611e6b565b505050565b610b5a610b5461152f565b82611e79565b50565b6000600960008373ffffffffffffffffffffffffffffffffffffffff1673ffffffffffffffffffffffffffffffffffffffff16815260200190815260200160002060009054906101000a900473ffffffffffffffffffffffffffffffffffffffff169050919050565b610bd7610bd161152f565b82611e87565b50565b6000600560009054906101000a900460ff16905090565b6000610c3e600a60008473ffffffffffffffffffffffffffffffffffffffff1673ffffffffffffffffffffffffffffffffffffffff16815260200190815260200160002080549050611fa1565b9050919050565b60008060008373ffffffffffffffffffffffffffffffffffffffff1673ffffffffffffffffffffffffffffffffffffffff168152602001908152602001600020549050919050565b610c9f82610c9961152f565b83611700565b610ca98282611e79565b5050565b6000610cf6600760008473ffffffffffffffffffffffffffffffffffffffff1673ffffffffffffffffffffffffffffffffffffffff168152602001908152602001600020611ff4565b9050919050565b7f65d7a28e3265b37a6474929f336521b332c1681b933f6cb9f3376673440d862a610d2781611a0b565b610d2f612002565b50565b6000438210610d76576040517f08c379a0000000000000000000000000000000000000000000000000000000008152600401610d6d90613aaf565b60405180910390fd5b610d81600b83611cfc565b9050919050565b60006006600084815260200190815260200160002060000160008373ffffffffffffffffffffffffffffffffffffffff1673ffffffffffffffffffffffffffffffffffffffff16815260200190815260200160002060009054906101000a900460ff16905092915050565b606060048054610e029061391b565b80601f0160208091040260200160405190810160405280929190818152602001828054610e2e9061391b565b8015610e7b5780601f10610e5057610100808354040283529160200191610e7b565b820191906000526020600020905b815481529060010190602001808311610e5e57829003601f168201915b5050505050905090565b600080600a60008473ffffffffffffffffffffffffffffffffffffffff1673ffffffffffffffffffffffffffffffffffffffff16815260200190815260200160002080549050905060008114610f6d57600a60008473ffffffffffffffffffffffffffffffffffffffff1673ffffffffffffffffffffffffffffffffffffffff168152602001908152602001600020600182610f219190613acf565b81548110610f3257610f31613b03565b5b9060005260206000200160000160049054906101000a90047bffffffffffffffffffffffffffffffffffffffffffffffffffffffff16610f70565b60005b7bffffffffffffffffffffffffffffffffffffffffffffffffffffffff16915050919050565b6000801b81565b600080610fa861152f565b90506000610fb682866112e6565b905083811015610ffb576040517f08c379a0000000000000000000000000000000000000000000000000000000008152600401610ff290613ba4565b60405180910390fd5b6110088286868403611537565b60019250505092915050565b60008061101f61152f565b905061102c81858561178c565b600191505092915050565b8342111561107a576040517f08c379a000000000000000000000000000000000000000000000000000000000815260040161107190613c10565b60405180910390fd5b60006110dc6110d47fe48329057bfd03d55e49b547132e39cffd9c1820ad7b9d4c5307691425d15adf8989896040516020016110b99493929190613c30565b60405160208183030381529060405280519060200120612065565b85858561207f565b90506110e7816120aa565b8614611128576040517f08c379a000000000000000000000000000000000000000000000000000000000815260040161111f90613cc1565b60405180910390fd5b6111328188611e87565b50505050505050565b8342111561117e576040517f08c379a000000000000000000000000000000000000000000000000000000000815260040161117590613d2d565b60405180910390fd5b60007f6e71edae12b1b97f4d1f60370fef10105fa2faae0126114a169c64845d6126c98888886111ad8c6120aa565b896040516020016111c396959493929190613d4d565b60405160208183030381529060405280519060200120905060006111e682612065565b905060006111f68287878761207f565b90508973ffffffffffffffffffffffffffffffffffffffff168173ffffffffffffffffffffffffffffffffffffffff1614611266576040517f08c379a000000000000000000000000000000000000000000000000000000000815260040161125d90613dfa565b60405180910390fd5b6112718a8a8a611537565b50505050505050505050565b7f9f2df0fed2c77648de5860a4cc508cd0818c85b8b8a1ab4ceeef8d981c8956a681565b6112aa82610934565b6112b381611a0b565b6112bd8383611c1a565b505050565b7ff4351d3a6f0598dcbd21952df4d9212ee5611fdf4b037ec5233b833487c8168881565b6000600160008473ffffffffffffffffffffffffffffffffffffffff1673ffffffffffffffffffffffffffffffffffffffff16815260200190815260200160002060008373ffffffffffffffffffffffffffffffffffffffff1673ffffffffffffffffffffffffffffffffffffffff16815260200190815260200160002054905092915050565b7f65d7a28e3265b37a6474929f336521b332c1681b933f6cb9f3376673440d862a81565b611399613189565b600a60008473ffffffffffffffffffffffffffffffffffffffff1673ffffffffffffffffffffffffffffffffffffffff1681526020019081526020016000208263ffffffff16815481106113f0576113ef613b03565b5b906000526020600020016040518060400160405290816000820160009054906101000a900463ffffffff1663ffffffff1663ffffffff1681526020016000820160049054906101000a90047bffffffffffffffffffffffffffffffffffffffffffffffffffffffff167bffffffffffffffffffffffffffffffffffffffffffffffffffffffff167bffffffffffffffffffffffffffffffffffffffffffffffffffffffff1681525050905092915050565b7f1df25ad963bcdf5796797f14b691a634f65032f90fca9c8f59fd3b590a07e94981565b60007f01ffc9a7000000000000000000000000000000000000000000000000000000007bffffffffffffffffffffffffffffffffffffffffffffffffffffffff1916827bffffffffffffffffffffffffffffffffffffffffffffffffffffffff1916149050919050565b600033905090565b600073ffffffffffffffffffffffffffffffffffffffff168373ffffffffffffffffffffffffffffffffffffffff16036115a6576040517f08c379a000000000000000000000000000000000000000000000000000000000815260040161159d90613e8c565b60405180910390fd5b600073ffffffffffffffffffffffffffffffffffffffff168273ffffffffffffffffffffffffffffffffffffffff1603611615576040517f08c379a000000000000000000000000000000000000000000000000000000000815260040161160c90613f1e565b60405180910390fd5b80600160008573ffffffffffffffffffffffffffffffffffffffff1673ffffffffffffffffffffffffffffffffffffffff16815260200190815260200160002060008473ffffffffffffffffffffffffffffffffffffffff1673ffffffffffffffffffffffffffffffffffffffff168152602001908152602001600020819055508173ffffffffffffffffffffffffffffffffffffffff168373ffffffffffffffffffffffffffffffffffffffff167f8c5be1e5ebec7d5bd14f71427d1e84f3dd0314c0f7b2291e5b200ac8c7c3b925836040516116f39190613425565b60405180910390a3505050565b600061170c84846112e6565b90507fffffffffffffffffffffffffffffffffffffffffffffffffffffffffffffffff81146117865781811015611778576040517f08c379a000000000000000000000000000000000000000000000000000000000815260040161176f90613f8a565b60405180910390fd5b6117858484848403611537565b5b50505050565b600073ffffffffffffffffffffffffffffffffffffffff168373ffffffffffffffffffffffffffffffffffffffff16036117fb576040517f08c379a00000000000000000000000000000000000000000000000000000000081526004016117f29061401c565b60405180910390fd5b600073ffffffffffffffffffffffffffffffffffffffff168273ffffffffffffffffffffffffffffffffffffffff160361186a576040517f08c379a0000000000000000000000000000000000000000000000000000000008152600401611861906140ae565b60405180910390fd5b611875838383612108565b60008060008573ffffffffffffffffffffffffffffffffffffffff1673ffffffffffffffffffffffffffffffffffffffff168152602001908152602001600020549050818110156118fb576040517f08c379a00000000000000000000000000000000000000000000000000000000081526004016118f290614140565b60405180910390fd5b8181036000808673ffffffffffffffffffffffffffffffffffffffff1673ffffffffffffffffffffffffffffffffffffffff16815260200190815260200160002081905550816000808573ffffffffffffffffffffffffffffffffffffffff1673ffffffffffffffffffffffffffffffffffffffff168152602001908152602001600020600082825461198e9190613a0d565b925050819055508273ffffffffffffffffffffffffffffffffffffffff168473ffffffffffffffffffffffffffffffffffffffff167fddf252ad1be2c89b69c2b068fc378daa952ba7f163c4a11628f55a4df523b3ef846040516119f29190613425565b60405180910390a3611a0584848461214b565b50505050565b611a1c81611a1761152f565b61215b565b50565b611a298282610d88565b611afc5760016006600084815260200190815260200160002060000160008373ffffffffffffffffffffffffffffffffffffffff1673ffffffffffffffffffffffffffffffffffffffff16815260200190815260200160002060006101000a81548160ff021916908315150217905550611aa161152f565b73ffffffffffffffffffffffffffffffffffffffff168173ffffffffffffffffffffffffffffffffffffffff16837f2f8788117e7eff1d82e926ec794901d17c78024a50270940304540a733656f0d60405160405180910390a45b5050565b60007f000000000000000000000000000000000000000000000000000000000000000073ffffffffffffffffffffffffffffffffffffffff163073ffffffffffffffffffffffffffffffffffffffff16148015611b7c57507f000000000000000000000000000000000000000000000000000000000000000046145b15611ba9577f00000000000000000000000000000000000000000000000000000000000000009050611c17565b611c147f00000000000000000000000000000000000000000000000000000000000000007f00000000000000000000000000000000000000000000000000000000000000007f00000000000000000000000000000000000000000000000000000000000000006121f8565b90505b90565b611c248282610d88565b15611cf85760006006600084815260200190815260200160002060000160008373ffffffffffffffffffffffffffffffffffffffff1673ffffffffffffffffffffffffffffffffffffffff16815260200190815260200160002060006101000a81548160ff021916908315150217905550611c9d61152f565b73ffffffffffffffffffffffffffffffffffffffff168173ffffffffffffffffffffffffffffffffffffffff16837ff6391f5c32d9c69d2a47ea670b442974b53935d1edc7fd64eb21e047a839171b60405160405180910390a45b5050565b6000808380549050905060005b81811015611d7b576000611d1d8284612232565b905084868281548110611d3357611d32613b03565b5b9060005260206000200160000160009054906101000a900463ffffffff1663ffffffff161115611d6557809250611d75565b600181611d729190613a0d565b91505b50611d09565b60008214611ddd5784600183611d919190613acf565b81548110611da257611da1613b03565b5b9060005260206000200160000160049054906101000a90047bffffffffffffffffffffffffffffffffffffffffffffffffffffffff16611de0565b60005b7bffffffffffffffffffffffffffffffffffffffffffffffffffffffff169250505092915050565b611e10612258565b6000600560006101000a81548160ff0219169083151502179055507f5db9ee0a495bf2e6ff9c91a7834c1ba4fdd244a5e8aa4e537bd38aeae4b073aa611e5461152f565b604051611e619190613600565b60405180910390a1565b611e7582826122a1565b5050565b611e83828261232e565b5050565b6000611e9283610b5d565b90506000611e9f84610c45565b905082600960008673ffffffffffffffffffffffffffffffffffffffff1673ffffffffffffffffffffffffffffffffffffffff16815260200190815260200160002060006101000a81548173ffffffffffffffffffffffffffffffffffffffff021916908373ffffffffffffffffffffffffffffffffffffffff1602179055508273ffffffffffffffffffffffffffffffffffffffff168273ffffffffffffffffffffffffffffffffffffffff168573ffffffffffffffffffffffffffffffffffffffff167f3134e8a2e6d97e929a7e54011ea5485d7d196dd5f0ba4d4ef95803e8e3fc257f60405160405180910390a4611f9b82848361234c565b50505050565b600063ffffffff8016821115611fec576040517f08c379a0000000000000000000000000000000000000000000000000000000008152600401611fe3906141d2565b60405180910390fd5b819050919050565b600081600001549050919050565b61200a612545565b6001600560006101000a81548160ff0219169083151502179055507f62e78cea01bee320cd4e420270b5ea74000d11b0c9f74754ebdbfc544b05a25861204e61152f565b60405161205b9190613600565b60405180910390a1565b6000612078612072611b00565b8361258f565b9050919050565b6000806000612090878787876125c2565b9150915061209d816126ce565b8192505050949350505050565b600080600760008473ffffffffffffffffffffffffffffffffffffffff1673ffffffffffffffffffffffffffffffffffffffff16815260200190815260200160002090506120f781611ff4565b91506121028161289a565b50919050565b612110612545565b7ff4351d3a6f0598dcbd21952df4d9212ee5611fdf4b037ec5233b833487c8168861213a81611a0b565b6121458484846128b0565b50505050565b6121568383836128b5565b505050565b6121658282610d88565b6121f45761218a8173ffffffffffffffffffffffffffffffffffffffff1660146128e0565b6121988360001c60206128e0565b6040516020016121a99291906142c6565b6040516020818303038152906040526040517f08c379a00000000000000000000000000000000000000000000000000000000081526004016121eb9190613320565b60405180910390fd5b5050565b60008383834630604051602001612213959493929190614300565b6040516020818303038152906040528051906020012090509392505050565b600060028284186122439190614382565b8284166122509190613a0d565b905092915050565b612260610bda565b61229f576040517f08c379a0000000000000000000000000000000000000000000000000000000008152600401612296906143ff565b60405180910390fd5b565b6122ab8282612b1c565b6122b3612c7b565b7bffffffffffffffffffffffffffffffffffffffffffffffffffffffff166122d96108fb565b111561231a576040517f08c379a000000000000000000000000000000000000000000000000000000000815260040161231190614491565b60405180910390fd5b612328600b612c9f83612cb5565b50505050565b6123388282612f2d565b612346600b61310383612cb5565b50505050565b8173ffffffffffffffffffffffffffffffffffffffff168373ffffffffffffffffffffffffffffffffffffffff16141580156123885750600081115b1561254057600073ffffffffffffffffffffffffffffffffffffffff168373ffffffffffffffffffffffffffffffffffffffff16146124665760008061240f600a60008773ffffffffffffffffffffffffffffffffffffffff1673ffffffffffffffffffffffffffffffffffffffff16815260200190815260200160002061310385612cb5565b915091508473ffffffffffffffffffffffffffffffffffffffff167fdec2bacdd2f05b59de34da9b523dff8be42e5e38e818c82fdb0bae774387a724838360405161245b9291906144b1565b60405180910390a250505b600073ffffffffffffffffffffffffffffffffffffffff168273ffffffffffffffffffffffffffffffffffffffff161461253f576000806124e8600a60008673ffffffffffffffffffffffffffffffffffffffff1673ffffffffffffffffffffffffffffffffffffffff168152602001908152602001600020612c9f85612cb5565b915091508373ffffffffffffffffffffffffffffffffffffffff167fdec2bacdd2f05b59de34da9b523dff8be42e5e38e818c82fdb0bae774387a72483836040516125349291906144b1565b60405180910390a250505b5b505050565b61254d610bda565b1561258d576040517f08c379a000000000000000000000000000000000000000000000000000000000815260040161258490614526565b60405180910390fd5b565b600082826040516020016125a49291906145b3565b60405160208183030381529060405280519060200120905092915050565b6000807f7fffffffffffffffffffffffffffffff5d576e7357a4501ddfe92f46681b20a08360001c11156125fd5760006003915091506126c5565b601b8560ff16141580156126155750601c8560ff1614155b156126275760006004915091506126c5565b60006001878787876040516000815260200160405260405161264c94939291906145ea565b6020604051602081039080840390855afa15801561266e573d6000803e3d6000fd5b505050602060405103519050600073ffffffffffffffffffffffffffffffffffffffff168173ffffffffffffffffffffffffffffffffffffffff16036126bc576000600192509250506126c5565b80600092509250505b94509492505050565b600060048111156126e2576126e161462f565b5b8160048111156126f5576126f461462f565b5b0315612897576001600481111561270f5761270e61462f565b5b8160048111156127225761272161462f565b5b03612762576040517f08c379a0000000000000000000000000000000000000000000000000000000008152600401612759906146aa565b60405180910390fd5b600260048111156127765761277561462f565b5b8160048111156127895761278861462f565b5b036127c9576040517f08c379a00000000000000000000000000000000000000000000000000000000081526004016127c090614716565b60405180910390fd5b600360048111156127dd576127dc61462f565b5b8160048111156127f0576127ef61462f565b5b03612830576040517f08c379a0000000000000000000000000000000000000000000000000000000008152600401612827906147a8565b60405180910390fd5b6004808111156128435761284261462f565b5b8160048111156128565761285561462f565b5b03612896576040517f08c379a000000000000000000000000000000000000000000000000000000000815260040161288d9061483a565b60405180910390fd5b5b50565b6001816000016000828254019250508190555050565b505050565b6128c0838383613119565b6128db6128cc84610b5d565b6128d584610b5d565b8361234c565b505050565b6060600060028360026128f3919061485a565b6128fd9190613a0d565b67ffffffffffffffff811115612916576129156148b4565b5b6040519080825280601f01601f1916602001820160405280156129485781602001600182028036833780820191505090505b5090507f3000000000000000000000000000000000000000000000000000000000000000816000815181106129805761297f613b03565b5b60200101907effffffffffffffffffffffffffffffffffffffffffffffffffffffffffffff1916908160001a9053507f7800000000000000000000000000000000000000000000000000000000000000816001815181106129e4576129e3613b03565b5b60200101907effffffffffffffffffffffffffffffffffffffffffffffffffffffffffffff1916908160001a90535060006001846002612a24919061485a565b612a2e9190613a0d565b90505b6001811115612ace577f3031323334353637383961626364656600000000000000000000000000000000600f861660108110612a7057612a6f613b03565b5b1a60f81b828281518110612a8757612a86613b03565b5b60200101907effffffffffffffffffffffffffffffffffffffffffffffffffffffffffffff1916908160001a905350600485901c945080612ac7906148e3565b9050612a31565b5060008414612b12576040517f08c379a0000000000000000000000000000000000000000000000000000000008152600401612b0990614958565b60405180910390fd5b8091505092915050565b600073ffffffffffffffffffffffffffffffffffffffff168273ffffffffffffffffffffffffffffffffffffffff1603612b8b576040517f08c379a0000000000000000000000000000000000000000000000000000000008152600401612b82906149c4565b60405180910390fd5b612b9760008383612108565b8060026000828254612ba99190613a0d565b92505081905550806000808473ffffffffffffffffffffffffffffffffffffffff1673ffffffffffffffffffffffffffffffffffffffff1681526020019081526020016000206000828254612bfe9190613a0d565b925050819055508173ffffffffffffffffffffffffffffffffffffffff16600073ffffffffffffffffffffffffffffffffffffffff167fddf252ad1be2c89b69c2b068fc378daa952ba7f163c4a11628f55a4df523b3ef83604051612c639190613425565b60405180910390a3612c776000838361214b565b5050565b60007bffffffffffffffffffffffffffffffffffffffffffffffffffffffff905090565b60008183612cad9190613a0d565b905092915050565b60008060008580549050905060008114612d235785600182612cd79190613acf565b81548110612ce857612ce7613b03565b5b9060005260206000200160000160049054906101000a90047bffffffffffffffffffffffffffffffffffffffffffffffffffffffff16612d26565b60005b7bffffffffffffffffffffffffffffffffffffffffffffffffffffffff169250612d5483858763ffffffff16565b9150600081118015612da757504386600183612d709190613acf565b81548110612d8157612d80613b03565b5b9060005260206000200160000160009054906101000a900463ffffffff1663ffffffff16145b15612e3457612db58261311e565b86600183612dc39190613acf565b81548110612dd457612dd3613b03565b5b9060005260206000200160000160046101000a8154817bffffffffffffffffffffffffffffffffffffffffffffffffffffffff02191690837bffffffffffffffffffffffffffffffffffffffffffffffffffffffff160217905550612f24565b856040518060400160405280612e4943611fa1565b63ffffffff168152602001612e5d8561311e565b7bffffffffffffffffffffffffffffffffffffffffffffffffffffffff168152509080600181540180825580915050600190039060005260206000200160009091909190915060008201518160000160006101000a81548163ffffffff021916908363ffffffff16021790555060208201518160000160046101000a8154817bffffffffffffffffffffffffffffffffffffffffffffffffffffffff02191690837bffffffffffffffffffffffffffffffffffffffffffffffffffffffff16021790555050505b50935093915050565b600073ffffffffffffffffffffffffffffffffffffffff168273ffffffffffffffffffffffffffffffffffffffff1603612f9c576040517f08c379a0000000000000000000000000000000000000000000000000000000008152600401612f9390614a56565b60405180910390fd5b612fa882600083612108565b60008060008473ffffffffffffffffffffffffffffffffffffffff1673ffffffffffffffffffffffffffffffffffffffff1681526020019081526020016000205490508181101561302e576040517f08c379a000000000000000000000000000000000000000000000000000000000815260040161302590614ae8565b60405180910390fd5b8181036000808573ffffffffffffffffffffffffffffffffffffffff1673ffffffffffffffffffffffffffffffffffffffff1681526020019081526020016000208190555081600260008282546130859190613acf565b92505081905550600073ffffffffffffffffffffffffffffffffffffffff168373ffffffffffffffffffffffffffffffffffffffff167fddf252ad1be2c89b69c2b068fc378daa952ba7f163c4a11628f55a4df523b3ef846040516130ea9190613425565b60405180910390a36130fe8360008461214b565b505050565b600081836131119190613acf565b905092915050565b505050565b60007bffffffffffffffffffffffffffffffffffffffffffffffffffffffff8016821115613181576040517f08c379a000000000000000000000000000000000000000000000000000000000815260040161317890614b7a565b60405180910390fd5b819050919050565b6040518060400160405280600063ffffffff16815260200160007bffffffffffffffffffffffffffffffffffffffffffffffffffffffff1681525090565b600080fd5b60007fffffffff0000000000000000000000000000000000000000000000000000000082169050919050565b613201816131cc565b811461320c57600080fd5b50565b60008135905061321e816131f8565b92915050565b60006020828403121561323a576132396131c7565b5b60006132488482850161320f565b91505092915050565b60008115159050919050565b61326681613251565b82525050565b6000602082019050613281600083018461325d565b92915050565b600081519050919050565b600082825260208201905092915050565b60005b838110156132c15780820151818401526020810190506132a6565b838111156132d0576000848401525b50505050565b6000601f19601f8301169050919050565b60006132f282613287565b6132fc8185613292565b935061330c8185602086016132a3565b613315816132d6565b840191505092915050565b6000602082019050818103600083015261333a81846132e7565b905092915050565b600073ffffffffffffffffffffffffffffffffffffffff82169050919050565b600061336d82613342565b9050919050565b61337d81613362565b811461338857600080fd5b50565b60008135905061339a81613374565b92915050565b6000819050919050565b6133b3816133a0565b81146133be57600080fd5b50565b6000813590506133d0816133aa565b92915050565b600080604083850312156133ed576133ec6131c7565b5b60006133fb8582860161338b565b925050602061340c858286016133c1565b9150509250929050565b61341f816133a0565b82525050565b600060208201905061343a6000830184613416565b92915050565b600080600060608486031215613459576134586131c7565b5b60006134678682870161338b565b93505060206134788682870161338b565b9250506040613489868287016133c1565b9150509250925092565b6000819050919050565b6134a681613493565b81146134b157600080fd5b50565b6000813590506134c38161349d565b92915050565b6000602082840312156134df576134de6131c7565b5b60006134ed848285016134b4565b91505092915050565b6134ff81613493565b82525050565b600060208201905061351a60008301846134f6565b92915050565b60008060408385031215613537576135366131c7565b5b6000613545858286016134b4565b92505060206135568582860161338b565b9150509250929050565b600060ff82169050919050565b61357681613560565b82525050565b6000602082019050613591600083018461356d565b92915050565b6000602082840312156135ad576135ac6131c7565b5b60006135bb848285016133c1565b91505092915050565b6000602082840312156135da576135d96131c7565b5b60006135e88482850161338b565b91505092915050565b6135fa81613362565b82525050565b600060208201905061361560008301846135f1565b92915050565b600063ffffffff82169050919050565b6136348161361b565b82525050565b600060208201905061364f600083018461362b565b92915050565b61365e81613560565b811461366957600080fd5b50565b60008135905061367b81613655565b92915050565b60008060008060008060c0878903121561369e5761369d6131c7565b5b60006136ac89828a0161338b565b96505060206136bd89828a016133c1565b95505060406136ce89828a016133c1565b94505060606136df89828a0161366c565b93505060806136f089828a016134b4565b92505060a061370189828a016134b4565b9150509295509295509295565b600080600080600080600060e0888a03121561372d5761372c6131c7565b5b600061373b8a828b0161338b565b975050602061374c8a828b0161338b565b965050604061375d8a828b016133c1565b955050606061376e8a828b016133c1565b945050608061377f8a828b0161366c565b93505060a06137908a828b016134b4565b92505060c06137a18a828b016134b4565b91505092959891949750929550565b600080604083850312156137c7576137c66131c7565b5b60006137d58582860161338b565b92505060206137e68582860161338b565b9150509250929050565b6137f98161361b565b811461380457600080fd5b50565b600081359050613816816137f0565b92915050565b60008060408385031215613833576138326131c7565b5b60006138418582860161338b565b925050602061385285828601613807565b9150509250929050565b6138658161361b565b82525050565b60007bffffffffffffffffffffffffffffffffffffffffffffffffffffffff82169050919050565b61389c8161386b565b82525050565b6040820160008201516138b8600085018261385c565b5060208201516138cb6020850182613893565b50505050565b60006040820190506138e660008301846138a2565b92915050565b7f4e487b7100000000000000000000000000000000000000000000000000000000600052602260045260246000fd5b6000600282049050600182168061393357607f821691505b602082108103613946576139456138ec565b5b50919050565b7f416363657373436f6e74726f6c3a2063616e206f6e6c792072656e6f756e636560008201527f20726f6c657320666f722073656c660000000000000000000000000000000000602082015250565b60006139a8602f83613292565b91506139b38261394c565b604082019050919050565b600060208201905081810360008301526139d78161399b565b9050919050565b7f4e487b7100000000000000000000000000000000000000000000000000000000600052601160045260246000fd5b6000613a18826133a0565b9150613a23836133a0565b9250827fffffffffffffffffffffffffffffffffffffffffffffffffffffffffffffffff03821115613a5857613a576139de565b5b828201905092915050565b7f4552433230566f7465733a20626c6f636b206e6f7420796574206d696e656400600082015250565b6000613a99601f83613292565b9150613aa482613a63565b602082019050919050565b60006020820190508181036000830152613ac881613a8c565b9050919050565b6000613ada826133a0565b9150613ae5836133a0565b925082821015613af857613af76139de565b5b828203905092915050565b7f4e487b7100000000000000000000000000000000000000000000000000000000600052603260045260246000fd5b7f45524332303a2064656372656173656420616c6c6f77616e63652062656c6f7760008201527f207a65726f000000000000000000000000000000000000000000000000000000602082015250565b6000613b8e602583613292565b9150613b9982613b32565b604082019050919050565b60006020820190508181036000830152613bbd81613b81565b9050919050565b7f4552433230566f7465733a207369676e61747572652065787069726564000000600082015250565b6000613bfa601d83613292565b9150613c0582613bc4565b602082019050919050565b60006020820190508181036000830152613c2981613bed565b9050919050565b6000608082019050613c4560008301876134f6565b613c5260208301866135f1565b613c5f6040830185613416565b613c6c6060830184613416565b95945050505050565b7f4552433230566f7465733a20696e76616c6964206e6f6e636500000000000000600082015250565b6000613cab601983613292565b9150613cb682613c75565b602082019050919050565b60006020820190508181036000830152613cda81613c9e565b9050919050565b7f45524332305065726d69743a206578706972656420646561646c696e65000000600082015250565b6000613d17601d83613292565b9150613d2282613ce1565b602082019050919050565b60006020820190508181036000830152613d4681613d0a565b9050919050565b600060c082019050613d6260008301896134f6565b613d6f60208301886135f1565b613d7c60408301876135f1565b613d896060830186613416565b613d966080830185613416565b613da360a0830184613416565b979650505050505050565b7f45524332305065726d69743a20696e76616c6964207369676e61747572650000600082015250565b6000613de4601e83613292565b9150613def82613dae565b602082019050919050565b60006020820190508181036000830152613e1381613dd7565b9050919050565b7f45524332303a20617070726f76652066726f6d20746865207a65726f2061646460008201527f7265737300000000000000000000000000000000000000000000000000000000602082015250565b6000613e76602483613292565b9150613e8182613e1a565b604082019050919050565b60006020820190508181036000830152613ea581613e69565b9050919050565b7f45524332303a20617070726f766520746f20746865207a65726f20616464726560008201527f7373000000000000000000000000000000000000000000000000000000000000602082015250565b6000613f08602283613292565b9150613f1382613eac565b604082019050919050565b60006020820190508181036000830152613f3781613efb565b9050919050565b7f45524332303a20696e73756666696369656e7420616c6c6f77616e6365000000600082015250565b6000613f74601d83613292565b9150613f7f82613f3e565b602082019050919050565b60006020820190508181036000830152613fa381613f67565b9050919050565b7f45524332303a207472616e736665722066726f6d20746865207a65726f20616460008201527f6472657373000000000000000000000000000000000000000000000000000000602082015250565b6000614006602583613292565b915061401182613faa565b604082019050919050565b6000602082019050818103600083015261403581613ff9565b9050919050565b7f45524332303a207472616e7366657220746f20746865207a65726f206164647260008201527f6573730000000000000000000000000000000000000000000000000000000000602082015250565b6000614098602383613292565b91506140a38261403c565b604082019050919050565b600060208201905081810360008301526140c78161408b565b9050919050565b7f45524332303a207472616e7366657220616d6f756e742065786365656473206260008201527f616c616e63650000000000000000000000000000000000000000000000000000602082015250565b600061412a602683613292565b9150614135826140ce565b604082019050919050565b600060208201905081810360008301526141598161411d565b9050919050565b7f53616665436173743a2076616c756520646f65736e27742066697420696e203360008201527f3220626974730000000000000000000000000000000000000000000000000000602082015250565b60006141bc602683613292565b91506141c782614160565b604082019050919050565b600060208201905081810360008301526141eb816141af565b9050919050565b600081905092915050565b7f416363657373436f6e74726f6c3a206163636f756e7420000000000000000000600082015250565b60006142336017836141f2565b915061423e826141fd565b601782019050919050565b600061425482613287565b61425e81856141f2565b935061426e8185602086016132a3565b80840191505092915050565b7f206973206d697373696e6720726f6c6520000000000000000000000000000000600082015250565b60006142b06011836141f2565b91506142bb8261427a565b601182019050919050565b60006142d182614226565b91506142dd8285614249565b91506142e8826142a3565b91506142f48284614249565b91508190509392505050565b600060a08201905061431560008301886134f6565b61432260208301876134f6565b61432f60408301866134f6565b61433c6060830185613416565b61434960808301846135f1565b9695505050505050565b7f4e487b7100000000000000000000000000000000000000000000000000000000600052601260045260246000fd5b600061438d826133a0565b9150614398836133a0565b9250826143a8576143a7614353565b5b828204905092915050565b7f5061757361626c653a206e6f7420706175736564000000000000000000000000600082015250565b60006143e9601483613292565b91506143f4826143b3565b602082019050919050565b60006020820190508181036000830152614418816143dc565b9050919050565b7f4552433230566f7465733a20746f74616c20737570706c79207269736b73206f60008201527f766572666c6f77696e6720766f74657300000000000000000000000000000000602082015250565b600061447b603083613292565b91506144868261441f565b604082019050919050565b600060208201905081810360008301526144aa8161446e565b9050919050565b60006040820190506144c66000830185613416565b6144d36020830184613416565b9392505050565b7f5061757361626c653a2070617573656400000000000000000000000000000000600082015250565b6000614510601083613292565b915061451b826144da565b602082019050919050565b6000602082019050818103600083015261453f81614503565b9050919050565b7f1901000000000000000000000000000000000000000000000000000000000000600082015250565b600061457c6002836141f2565b915061458782614546565b600282019050919050565b6000819050919050565b6145ad6145a882613493565b614592565b82525050565b60006145be8261456f565b91506145ca828561459c565b6020820191506145da828461459c565b6020820191508190509392505050565b60006080820190506145ff60008301876134f6565b61460c602083018661356d565b61461960408301856134f6565b61462660608301846134f6565b95945050505050565b7f4e487b7100000000000000000000000000000000000000000000000000000000600052602160045260246000fd5b7f45434453413a20696e76616c6964207369676e61747572650000000000000000600082015250565b6000614694601883613292565b915061469f8261465e565b602082019050919050565b600060208201905081810360008301526146c381614687565b9050919050565b7f45434453413a20696e76616c6964207369676e6174757265206c656e67746800600082015250565b6000614700601f83613292565b915061470b826146ca565b602082019050919050565b6000602082019050818103600083015261472f816146f3565b9050919050565b7f45434453413a20696e76616c6964207369676e6174757265202773272076616c60008201527f7565000000000000000000000000000000000000000000000000000000000000602082015250565b6000614792602283613292565b915061479d82614736565b604082019050919050565b600060208201905081810360008301526147c181614785565b9050919050565b7f45434453413a20696e76616c6964207369676e6174757265202776272076616c60008201527f7565000000000000000000000000000000000000000000000000000000000000602082015250565b6000614824602283613292565b915061482f826147c8565b604082019050919050565b6000602082019050818103600083015261485381614817565b9050919050565b6000614865826133a0565b9150614870836133a0565b9250817fffffffffffffffffffffffffffffffffffffffffffffffffffffffffffffffff04831182151516156148a9576148a86139de565b5b828202905092915050565b7f4e487b7100000000000000000000000000000000000000000000000000000000600052604160045260246000fd5b60006148ee826133a0565b915060008203614901576149006139de565b5b600182039050919050565b7f537472696e67733a20686578206c656e67746820696e73756666696369656e74600082015250565b6000614942602083613292565b915061494d8261490c565b602082019050919050565b6000602082019050818103600083015261497181614935565b9050919050565b7f45524332303a206d696e7420746f20746865207a65726f206164647265737300600082015250565b60006149ae601f83613292565b91506149b982614978565b602082019050919050565b600060208201905081810360008301526149dd816149a1565b9050919050565b7f45524332303a206275726e2066726f6d20746865207a65726f2061646472657360008201527f7300000000000000000000000000000000000000000000000000000000000000602082015250565b6000614a40602183613292565b9150614a4b826149e4565b604082019050919050565b60006020820190508181036000830152614a6f81614a33565b9050919050565b7f45524332303a206275726e20616d6f756e7420657863656564732062616c616e60008201527f6365000000000000000000000000000000000000000000000000000000000000602082015250565b6000614ad2602283613292565b9150614add82614a76565b604082019050919050565b60006020820190508181036000830152614b0181614ac5565b9050919050565b7f53616665436173743a2076616c756520646f65736e27742066697420696e203260008201527f3234206269747300000000000000000000000000000000000000000000000000602082015250565b6000614b64602783613292565b9150614b6f82614b08565b604082019050919050565b60006020820190508181036000830152614b9381614b57565b905091905056fea2646970667358221220048ef34cf43e139dc24500768e7210d8af097dec10ef8dae93436004be117cdf64736f6c634300080d0033",
  "linkReferences": {},
  "deployedLinkReferences": {}
}