{
  "_format": "hh-sol-artifact-1",
  "contractName": "VerifySignatureMock",
  "sourceName": "contracts/mocks/VerifySignatureMock.sol",
  "abi": [
    {
      "inputs": [],
      "name": "getAnything",
      "outputs": [
        {
          "internalType": "uint256",
          "name": "",
          "type": "uint256"
        }
      ],
      "stateMutability": "pure",
      "type": "function"
    },
    {
      "inputs": [
        {
          "internalType": "bytes32",
          "name": "_messageHash",
          "type": "bytes32"
        }
      ],
      "name": "getEthSignedMessageHash",
      "outputs": [
        {
          "internalType": "bytes32",
          "name": "",
          "type": "bytes32"
        }
      ],
      "stateMutability": "pure",
      "type": "function"
    },
    {
      "inputs": [
        {
          "internalType": "address",
          "name": "account",
          "type": "address"
        },
        {
          "internalType": "uint256",
          "name": "tokenId",
          "type": "uint256"
        }
      ],
      "name": "getMessageHash",
      "outputs": [
        {
          "internalType": "bytes32",
          "name": "",
          "type": "bytes32"
        }
      ],
      "stateMutability": "pure",
      "type": "function"
    },
    {
      "inputs": [
        {
          "internalType": "address",
          "name": "signer",
          "type": "address"
        },
        {
          "internalType": "address",
          "name": "account",
          "type": "address"
        },
        {
          "internalType": "uint256",
          "name": "tokenId",
          "type": "uint256"
        },
        {
          "internalType": "bytes",
          "name": "signature",
          "type": "bytes"
        }
      ],
      "name": "verify",
      "outputs": [
        {
          "internalType": "bool",
          "name": "",
          "type": "bool"
        }
      ],
      "stateMutability": "pure",
      "type": "function"
    }
  ],
  "bytecode": "0x6108a0610053600b82828239805160001a607314610046577f4e487b7100000000000000000000000000000000000000000000000000000000600052600060045260246000fd5b30600052607381538281f3fe73000000000000000000000000000000000000000030146080604052600436106100565760003560e01c8063512c91df1461005b57806355cbf3bf1461008b57806393e9f8fc146100a9578063fa540801146100d9575b600080fd5b61007560048036038101906100709190610354565b610109565b60405161008291906103ad565b60405180910390f35b61009361013c565b6040516100a091906103d7565b60405180910390f35b6100c360048036038101906100be9190610538565b610145565b6040516100d091906105d6565b60405180910390f35b6100f360048036038101906100ee919061061d565b6101a5565b60405161010091906103ad565b60405180910390f35b6000828260405160200161011e9291906106b3565b60405160208183030381529060405280519060200120905092915050565b60006067905090565b6000806101528585610109565b9050600061015f826101a5565b90508673ffffffffffffffffffffffffffffffffffffffff1661018282866101d5565b73ffffffffffffffffffffffffffffffffffffffff161492505050949350505050565b6000816040516020016101b89190610757565b604051602081830303815290604052805190602001209050919050565b6000806000806101e485610244565b9250925092506001868285856040516000815260200160405260405161020d94939291906107a8565b6020604051602081039080840390855afa15801561022f573d6000803e3d6000fd5b50505060206040510351935050505092915050565b6000806000604184511461028d576040517f08c379a00000000000000000000000000000000000000000000000000000000081526004016102849061084a565b60405180910390fd5b6020840151925060408401519150606084015160001a90509193909250565b6000604051905090565b600080fd5b600080fd5b600073ffffffffffffffffffffffffffffffffffffffff82169050919050565b60006102eb826102c0565b9050919050565b6102fb816102e0565b811461030657600080fd5b50565b600081359050610318816102f2565b92915050565b6000819050919050565b6103318161031e565b811461033c57600080fd5b50565b60008135905061034e81610328565b92915050565b6000806040838503121561036b5761036a6102b6565b5b600061037985828601610309565b925050602061038a8582860161033f565b9150509250929050565b6000819050919050565b6103a781610394565b82525050565b60006020820190506103c2600083018461039e565b92915050565b6103d18161031e565b82525050565b60006020820190506103ec60008301846103c8565b92915050565b600080fd5b600080fd5b6000601f19601f8301169050919050565b7f4e487b7100000000000000000000000000000000000000000000000000000000600052604160045260246000fd5b610445826103fc565b810181811067ffffffffffffffff821117156104645761046361040d565b5b80604052505050565b60006104776102ac565b9050610483828261043c565b919050565b600067ffffffffffffffff8211156104a3576104a261040d565b5b6104ac826103fc565b9050602081019050919050565b82818337600083830152505050565b60006104db6104d684610488565b61046d565b9050828152602081018484840111156104f7576104f66103f7565b5b6105028482856104b9565b509392505050565b600082601f83011261051f5761051e6103f2565b5b813561052f8482602086016104c8565b91505092915050565b60008060008060808587031215610552576105516102b6565b5b600061056087828801610309565b945050602061057187828801610309565b93505060406105828782880161033f565b925050606085013567ffffffffffffffff8111156105a3576105a26102bb565b5b6105af8782880161050a565b91505092959194509250565b60008115159050919050565b6105d0816105bb565b82525050565b60006020820190506105eb60008301846105c7565b92915050565b6105fa81610394565b811461060557600080fd5b50565b600081359050610617816105f1565b92915050565b600060208284031215610633576106326102b6565b5b600061064184828501610608565b91505092915050565b60008160601b9050919050565b60006106628261064a565b9050919050565b600061067482610657565b9050919050565b61068c610687826102e0565b610669565b82525050565b6000819050919050565b6106ad6106a88261031e565b610692565b82525050565b60006106bf828561067b565b6014820191506106cf828461069c565b6020820191508190509392505050565b600081905092915050565b7f19457468657265756d205369676e6564204d6573736167653a0a333200000000600082015250565b6000610720601c836106df565b915061072b826106ea565b601c82019050919050565b6000819050919050565b61075161074c82610394565b610736565b82525050565b600061076282610713565b915061076e8284610740565b60208201915081905092915050565b61078681610394565b82525050565b600060ff82169050919050565b6107a28161078c565b82525050565b60006080820190506107bd600083018761077d565b6107ca6020830186610799565b6107d7604083018561077d565b6107e4606083018461077d565b95945050505050565b600082825260208201905092915050565b7f696e76616c6964207369676e6174757265206c656e6774680000000000000000600082015250565b60006108346018836107ed565b915061083f826107fe565b602082019050919050565b6000602082019050818103600083015261086381610827565b905091905056fea264697066735822122015b4385638f1ef46e33afe135ff2fe6eda4bc154a61262cee505e7585b75c96d64736f6c634300080d0033",
  "linkReferences": {},
  "deployedLinkReferences": {}
}