{
  "_format": "hh-sol-artifact-1",
  "contractName": "Antonym",
  "sourceName": "contracts/FashionNFT.sol",
  "abi": [
    {
      "inputs": [],
      "stateMutability": "nonpayable",
      "type": "constructor"
    },
    {
      "inputs": [],
      "name": "ApprovalCallerNotOwnerNorApproved",
      "type": "error"
    },
    {
      "inputs": [],
      "name": "ApprovalQueryForNonexistentToken",
      "type": "error"
    },
    {
      "inputs": [],
      "name": "ApprovalToCurrentOwner",
      "type": "error"
    },
    {
      "inputs": [],
      "name": "ApproveToCaller",
      "type": "error"
    },
    {
      "inputs": [],
      "name": "BalanceQueryForZeroAddress",
      "type": "error"
    },
    {
      "inputs": [],
      "name": "MintToZeroAddress",
      "type": "error"
    },
    {
      "inputs": [],
      "name": "MintZeroQuantity",
      "type": "error"
    },
    {
      "inputs": [],
      "name": "MintedQueryForZeroAddress",
      "type": "error"
    },
    {
      "inputs": [],
      "name": "OwnerIndexOutOfBounds",
      "type": "error"
    },
    {
      "inputs": [],
      "name": "OwnerQueryForNonexistentToken",
      "type": "error"
    },
    {
      "inputs": [],
      "name": "TokenIndexOutOfBounds",
      "type": "error"
    },
    {
      "inputs": [],
      "name": "TransferCallerNotOwnerNorApproved",
      "type": "error"
    },
    {
      "inputs": [],
      "name": "TransferFromIncorrectOwner",
      "type": "error"
    },
    {
      "inputs": [],
      "name": "TransferToNonERC721ReceiverImplementer",
      "type": "error"
    },
    {
      "inputs": [],
      "name": "TransferToZeroAddress",
      "type": "error"
    },
    {
      "anonymous": false,
      "inputs": [
        {
          "indexed": true,
          "internalType": "address",
          "name": "owner",
          "type": "address"
        },
        {
          "indexed": true,
          "internalType": "address",
          "name": "approved",
          "type": "address"
        },
        {
          "indexed": true,
          "internalType": "uint256",
          "name": "tokenId",
          "type": "uint256"
        }
      ],
      "name": "Approval",
      "type": "event"
    },
    {
      "anonymous": false,
      "inputs": [
        {
          "indexed": true,
          "internalType": "address",
          "name": "owner",
          "type": "address"
        },
        {
          "indexed": true,
          "internalType": "address",
          "name": "operator",
          "type": "address"
        },
        {
          "indexed": false,
          "internalType": "bool",
          "name": "approved",
          "type": "bool"
        }
      ],
      "name": "ApprovalForAll",
      "type": "event"
    },
    {
      "anonymous": false,
      "inputs": [
        {
          "indexed": true,
          "internalType": "address",
          "name": "previousOwner",
          "type": "address"
        },
        {
          "indexed": true,
          "internalType": "address",
          "name": "newOwner",
          "type": "address"
        }
      ],
      "name": "OwnershipTransferred",
      "type": "event"
    },
    {
      "anonymous": false,
      "inputs": [
        {
          "indexed": true,
          "internalType": "address",
          "name": "from",
          "type": "address"
        },
        {
          "indexed": true,
          "internalType": "address",
          "name": "to",
          "type": "address"
        },
        {
          "indexed": true,
          "internalType": "uint256",
          "name": "tokenId",
          "type": "uint256"
        }
      ],
      "name": "Transfer",
      "type": "event"
    },
    {
      "inputs": [],
      "name": "MAX_SALE_QUANTITY",
      "outputs": [
        {
          "internalType": "uint256",
          "name": "",
          "type": "uint256"
        }
      ],
      "stateMutability": "view",
      "type": "function"
    },
    {
      "inputs": [],
      "name": "RESERVE_MAX",
      "outputs": [
        {
          "internalType": "uint256",
          "name": "",
          "type": "uint256"
        }
      ],
      "stateMutability": "view",
      "type": "function"
    },
    {
      "inputs": [],
      "name": "TOTAL_MAX",
      "outputs": [
        {
          "internalType": "uint256",
          "name": "",
          "type": "uint256"
        }
      ],
      "stateMutability": "view",
      "type": "function"
    },
    {
      "inputs": [],
      "name": "WHITELIST_MAX",
      "outputs": [
        {
          "internalType": "uint256",
          "name": "",
          "type": "uint256"
        }
      ],
      "stateMutability": "view",
      "type": "function"
    },
    {
      "inputs": [],
      "name": "activateSale",
      "outputs": [],
      "stateMutability": "nonpayable",
      "type": "function"
    },
    {
      "inputs": [],
      "name": "activateWhitelist",
      "outputs": [],
      "stateMutability": "nonpayable",
      "type": "function"
    },
    {
      "inputs": [
        {
          "internalType": "address",
          "name": "to",
          "type": "address"
        },
        {
          "internalType": "uint256",
          "name": "tokenId",
          "type": "uint256"
        }
      ],
      "name": "approve",
      "outputs": [],
      "stateMutability": "nonpayable",
      "type": "function"
    },
    {
      "inputs": [
        {
          "internalType": "address",
          "name": "owner",
          "type": "address"
        }
      ],
      "name": "balanceOf",
      "outputs": [
        {
          "internalType": "uint256",
          "name": "",
          "type": "uint256"
        }
      ],
      "stateMutability": "view",
      "type": "function"
    },
    {
      "inputs": [
        {
          "internalType": "uint256",
          "name": "_quantity",
          "type": "uint256"
        }
      ],
      "name": "buy",
      "outputs": [],
      "stateMutability": "payable",
      "type": "function"
    },
    {
      "inputs": [],
      "name": "daVariables",
      "outputs": [
        {
          "internalType": "uint64",
          "name": "saleStartPrice",
          "type": "uint64"
        },
        {
          "internalType": "uint64",
          "name": "duration",
          "type": "uint64"
        },
        {
          "internalType": "uint64",
          "name": "interval",
          "type": "uint64"
        },
        {
          "internalType": "uint64",
          "name": "decreaseRate",
          "type": "uint64"
        }
      ],
      "stateMutability": "view",
      "type": "function"
    },
    {
      "inputs": [
        {
          "internalType": "uint256",
          "name": "tokenId",
          "type": "uint256"
        }
      ],
      "name": "getApproved",
      "outputs": [
        {
          "internalType": "address",
          "name": "",
          "type": "address"
        }
      ],
      "stateMutability": "view",
      "type": "function"
    },
    {
      "inputs": [],
      "name": "getCurrentPrice",
      "outputs": [
        {
          "internalType": "uint256",
          "name": "",
          "type": "uint256"
        }
      ],
      "stateMutability": "view",
      "type": "function"
    },
    {
      "inputs": [
        {
          "internalType": "address",
          "name": "owner",
          "type": "address"
        },
        {
          "internalType": "address",
          "name": "operator",
          "type": "address"
        }
      ],
      "name": "isApprovedForAll",
      "outputs": [
        {
          "internalType": "bool",
          "name": "",
          "type": "bool"
        }
      ],
      "stateMutability": "view",
      "type": "function"
    },
    {
      "inputs": [
        {
          "internalType": "uint256",
          "name": "_quantity",
          "type": "uint256"
        }
      ],
      "name": "mintWhitelist",
      "outputs": [],
      "stateMutability": "payable",
      "type": "function"
    },
    {
      "inputs": [],
      "name": "name",
      "outputs": [
        {
          "internalType": "string",
          "name": "",
          "type": "string"
        }
      ],
      "stateMutability": "view",
      "type": "function"
    },
    {
      "inputs": [
        {
          "internalType": "address",
          "name": "owner",
          "type": "address"
        }
      ],
      "name": "numberMinted",
      "outputs": [
        {
          "internalType": "uint256",
          "name": "",
          "type": "uint256"
        }
      ],
      "stateMutability": "view",
      "type": "function"
    },
    {
      "inputs": [],
      "name": "owner",
      "outputs": [
        {
          "internalType": "address",
          "name": "",
          "type": "address"
        }
      ],
      "stateMutability": "view",
      "type": "function"
    },
    {
      "inputs": [
        {
          "internalType": "uint256",
          "name": "tokenId",
          "type": "uint256"
        }
      ],
      "name": "ownerOf",
      "outputs": [
        {
          "internalType": "address",
          "name": "",
          "type": "address"
        }
      ],
      "stateMutability": "view",
      "type": "function"
    },
    {
      "inputs": [
        {
          "internalType": "address",
          "name": "_account",
          "type": "address"
        },
        {
          "internalType": "uint256",
          "name": "_quantity",
          "type": "uint256"
        }
      ],
      "name": "releaseReserve",
      "outputs": [],
      "stateMutability": "nonpayable",
      "type": "function"
    },
    {
      "inputs": [],
      "name": "renounceOwnership",
      "outputs": [],
      "stateMutability": "nonpayable",
      "type": "function"
    },
    {
      "inputs": [],
      "name": "reserveCount",
      "outputs": [
        {
          "internalType": "uint256",
          "name": "",
          "type": "uint256"
        }
      ],
      "stateMutability": "view",
      "type": "function"
    },
    {
      "inputs": [],
      "name": "revealed",
      "outputs": [
        {
          "internalType": "bool",
          "name": "",
          "type": "bool"
        }
      ],
      "stateMutability": "view",
      "type": "function"
    },
    {
      "inputs": [
        {
          "internalType": "uint256",
          "name": "_tokenId",
          "type": "uint256"
        },
        {
          "internalType": "uint256",
          "name": "_salePrice",
          "type": "uint256"
        }
      ],
      "name": "royaltyInfo",
      "outputs": [
        {
          "internalType": "address",
          "name": "receiver",
          "type": "address"
        },
        {
          "internalType": "uint256",
          "name": "royaltyAmount",
          "type": "uint256"
        }
      ],
      "stateMutability": "view",
      "type": "function"
    },
    {
      "inputs": [
        {
          "internalType": "address",
          "name": "from",
          "type": "address"
        },
        {
          "internalType": "address",
          "name": "to",
          "type": "address"
        },
        {
          "internalType": "uint256",
          "name": "tokenId",
          "type": "uint256"
        }
      ],
      "name": "safeTransferFrom",
      "outputs": [],
      "stateMutability": "nonpayable",
      "type": "function"
    },
    {
      "inputs": [
        {
          "internalType": "address",
          "name": "from",
          "type": "address"
        },
        {
          "internalType": "address",
          "name": "to",
          "type": "address"
        },
        {
          "internalType": "uint256",
          "name": "tokenId",
          "type": "uint256"
        },
        {
          "internalType": "bytes",
          "name": "_data",
          "type": "bytes"
        }
      ],
      "name": "safeTransferFrom",
      "outputs": [],
      "stateMutability": "nonpayable",
      "type": "function"
    },
    {
      "inputs": [],
      "name": "saleActive",
      "outputs": [
        {
          "internalType": "bool",
          "name": "",
          "type": "bool"
        }
      ],
      "stateMutability": "view",
      "type": "function"
    },
    {
      "inputs": [],
      "name": "saleMax",
      "outputs": [
        {
          "internalType": "uint256",
          "name": "",
          "type": "uint256"
        }
      ],
      "stateMutability": "view",
      "type": "function"
    },
    {
      "inputs": [
        {
          "internalType": "address",
          "name": "operator",
          "type": "address"
        },
        {
          "internalType": "bool",
          "name": "approved",
          "type": "bool"
        }
      ],
      "name": "setApprovalForAll",
      "outputs": [],
      "stateMutability": "nonpayable",
      "type": "function"
    },
    {
      "inputs": [
        {
          "internalType": "string",
          "name": "_baseURI",
          "type": "string"
        },
        {
          "internalType": "bool",
          "name": "reveal",
          "type": "bool"
        }
      ],
      "name": "setBaseURI",
      "outputs": [],
      "stateMutability": "nonpayable",
      "type": "function"
    },
    {
      "inputs": [
        {
          "internalType": "address",
          "name": "_paymentAddress",
          "type": "address"
        }
      ],
      "name": "setPaymentAddress",
      "outputs": [],
      "stateMutability": "nonpayable",
      "type": "function"
    },
    {
      "inputs": [
        {
          "internalType": "uint96",
          "name": "_royaltyBasisPoints",
          "type": "uint96"
        }
      ],
      "name": "setRoyalty",
      "outputs": [],
      "stateMutability": "nonpayable",
      "type": "function"
    },
    {
      "inputs": [
        {
          "internalType": "address",
          "name": "_royaltyAddress",
          "type": "address"
        }
      ],
      "name": "setRoyaltyAddress",
      "outputs": [],
      "stateMutability": "nonpayable",
      "type": "function"
    },
    {
      "inputs": [
        {
          "internalType": "uint32",
          "name": "_startTime",
          "type": "uint32"
        },
        {
          "internalType": "uint64",
          "name": "_saleStartPrice",
          "type": "uint64"
        },
        {
          "internalType": "uint64",
          "name": "_duration",
          "type": "uint64"
        },
        {
          "internalType": "uint64",
          "name": "_interval",
          "type": "uint64"
        },
        {
          "internalType": "uint64",
          "name": "_decreaseRate",
          "type": "uint64"
        }
      ],
      "name": "setSaleVariables",
      "outputs": [],
      "stateMutability": "nonpayable",
      "type": "function"
    },
    {
      "inputs": [
        {
          "internalType": "address[]",
          "name": "whitelisters",
          "type": "address[]"
        },
        {
          "internalType": "bool",
          "name": "ogStatus",
          "type": "bool"
        }
      ],
      "name": "setWhitelist",
      "outputs": [],
      "stateMutability": "nonpayable",
      "type": "function"
    },
    {
      "inputs": [
        {
          "internalType": "uint256",
          "name": "_newPrice",
          "type": "uint256"
        }
      ],
      "name": "setWhitelistPrice",
      "outputs": [],
      "stateMutability": "nonpayable",
      "type": "function"
    },
    {
      "inputs": [],
      "name": "startTime",
      "outputs": [
        {
          "internalType": "uint32",
          "name": "",
          "type": "uint32"
        }
      ],
      "stateMutability": "view",
      "type": "function"
    },
    {
      "inputs": [
        {
          "internalType": "bytes4",
          "name": "interfaceId",
          "type": "bytes4"
        }
      ],
      "name": "supportsInterface",
      "outputs": [
        {
          "internalType": "bool",
          "name": "",
          "type": "bool"
        }
      ],
      "stateMutability": "view",
      "type": "function"
    },
    {
      "inputs": [],
      "name": "symbol",
      "outputs": [
        {
          "internalType": "string",
          "name": "",
          "type": "string"
        }
      ],
      "stateMutability": "view",
      "type": "function"
    },
    {
      "inputs": [
        {
          "internalType": "uint256",
          "name": "index",
          "type": "uint256"
        }
      ],
      "name": "tokenByIndex",
      "outputs": [
        {
          "internalType": "uint256",
          "name": "",
          "type": "uint256"
        }
      ],
      "stateMutability": "view",
      "type": "function"
    },
    {
      "inputs": [
        {
          "internalType": "address",
          "name": "owner",
          "type": "address"
        },
        {
          "internalType": "uint256",
          "name": "index",
          "type": "uint256"
        }
      ],
      "name": "tokenOfOwnerByIndex",
      "outputs": [
        {
          "internalType": "uint256",
          "name": "",
          "type": "uint256"
        }
      ],
      "stateMutability": "view",
      "type": "function"
    },
    {
      "inputs": [
        {
          "internalType": "uint256",
          "name": "_tokenId",
          "type": "uint256"
        }
      ],
      "name": "tokenURI",
      "outputs": [
        {
          "internalType": "string",
          "name": "",
          "type": "string"
        }
      ],
      "stateMutability": "view",
      "type": "function"
    },
    {
      "inputs": [],
      "name": "totalSupply",
      "outputs": [
        {
          "internalType": "uint256",
          "name": "",
          "type": "uint256"
        }
      ],
      "stateMutability": "view",
      "type": "function"
    },
    {
      "inputs": [
        {
          "internalType": "address",
          "name": "from",
          "type": "address"
        },
        {
          "internalType": "address",
          "name": "to",
          "type": "address"
        },
        {
          "internalType": "uint256",
          "name": "tokenId",
          "type": "uint256"
        }
      ],
      "name": "transferFrom",
      "outputs": [],
      "stateMutability": "nonpayable",
      "type": "function"
    },
    {
      "inputs": [],
      "name": "transferFunds",
      "outputs": [],
      "stateMutability": "nonpayable",
      "type": "function"
    },
    {
      "inputs": [
        {
          "internalType": "address",
          "name": "newOwner",
          "type": "address"
        }
      ],
      "name": "transferOwnership",
      "outputs": [],
      "stateMutability": "nonpayable",
      "type": "function"
    },
    {
      "inputs": [],
      "name": "whitelistActive",
      "outputs": [
        {
          "internalType": "bool",
          "name": "",
          "type": "bool"
        }
      ],
      "stateMutability": "view",
      "type": "function"
    },
    {
      "inputs": [],
      "name": "whitelistCount",
      "outputs": [
        {
          "internalType": "uint256",
          "name": "",
          "type": "uint256"
        }
      ],
      "stateMutability": "view",
      "type": "function"
    },
    {
      "inputs": [],
      "name": "whitelistPrice",
      "outputs": [
        {
          "internalType": "uint256",
          "name": "",
          "type": "uint256"
        }
      ],
      "stateMutability": "view",
      "type": "function"
    },
    {
      "inputs": [
        {
          "internalType": "address",
          "name": "",
          "type": "address"
        }
      ],
      "name": "whitelists",
      "outputs": [
        {
          "internalType": "uint256",
          "name": "",
          "type": "uint256"
        }
      ],
      "stateMutability": "view",
      "type": "function"
    }
  ],
  "bytecode": "0x6080604052655af3107a400060085561032a601060146101000a8154816bffffffffffffffffffffffff02191690836bffffffffffffffffffffffff1602179055503480156200004e57600080fd5b506040518060400160405280600781526020017f416e746f6e796d000000000000000000000000000000000000000000000000008152506040518060400160405280600781526020017f414e544f4e594d000000000000000000000000000000000000000000000000008152508160019080519060200190620000d3929190620001e3565b508060029080519060200190620000ec929190620001e3565b5050506200010f620001036200011560201b60201c565b6200011d60201b60201c565b620002f7565b600033905090565b6000600760009054906101000a900473ffffffffffffffffffffffffffffffffffffffff16905081600760006101000a81548173ffffffffffffffffffffffffffffffffffffffff021916908373ffffffffffffffffffffffffffffffffffffffff1602179055508173ffffffffffffffffffffffffffffffffffffffff168173ffffffffffffffffffffffffffffffffffffffff167f8be0079c531659141344cd1fd0a4f28419497f9722a3daafe3b4186f6b6457e060405160405180910390a35050565b828054620001f190620002c2565b90600052602060002090601f01602090048101928262000215576000855562000261565b82601f106200023057805160ff191683800117855562000261565b8280016001018555821562000261579182015b828111156200026057825182559160200191906001019062000243565b5b50905062000270919062000274565b5090565b5b808211156200028f57600081600090555060010162000275565b5090565b7f4e487b7100000000000000000000000000000000000000000000000000000000600052602260045260246000fd5b60006002820490506001821680620002db57607f821691505b602082108103620002f157620002f062000293565b5b50919050565b61578080620003076000396000f3fe6080604052600436106102ae5760003560e01c806368428a1b11610175578063b64b21ca116100dc578063d96a094a11610095578063eb91d37e1161006f578063eb91d37e14610a84578063f2624b5d14610aaf578063f2fde38b14610ada578063fc1a1c3614610b03576102ae565b8063d96a094a146109ee578063dc33e68114610a0a578063e985e9c514610a47576102ae565b8063b64b21ca146108f4578063b88d4fde1461091d578063c3dc6ecf14610946578063c721f08d14610971578063c87b56dd14610988578063cac92669146109c5576102ae565b806389e877a31161012e57806389e877a31461080a5780638da5cb5b1461082157806395d89b411461084c578063a08a81d714610877578063a22cb465146108a2578063accb1639146108cb576102ae565b806368428a1b1461070e57806370a0823114610739578063715018a614610776578063717d57d31461078d57806378e97925146107b65780637c7b2ff0146107e1576102ae565b80632ec7be0b116102195780634618163e116101d25780634618163e146105f95780634f6ccce71461061557806351830227146106525780635e1e10041461067d5780636352211e146106a657806365db29c3146106e3576102ae565b80632ec7be0b146104fd5780632f745c59146105285780633c271a05146105655780633c68eb811461058e578063414fb760146105a557806342842e0e146105d0576102ae565b806316317c211161026b57806316317c21146103d5578063166bfa041461040057806318160ddd1461042e5780631e7be2101461045957806323b872dd146104965780632a55205a146104bf576102ae565b806301ffc9a7146102b357806302ce5813146102f057806306d254da1461031b57806306fdde0314610344578063081812fc1461036f578063095ea7b3146103ac575b600080fd5b3480156102bf57600080fd5b506102da60048036038101906102d591906142b0565b610b2e565b6040516102e791906142f8565b60405180910390f35b3480156102fc57600080fd5b50610305610b96565b60405161031291906142f8565b60405180910390f35b34801561032757600080fd5b50610342600480360381019061033d9190614371565b610ba9565b005b34801561035057600080fd5b50610359610c69565b6040516103669190614437565b60405180910390f35b34801561037b57600080fd5b506103966004803603810190610391919061448f565b610cfb565b6040516103a391906144cb565b60405180910390f35b3480156103b857600080fd5b506103d360048036038101906103ce91906144e6565b610d77565b005b3480156103e157600080fd5b506103ea610e81565b6040516103f79190614535565b60405180910390f35b34801561040c57600080fd5b50610415610e87565b6040516104259493929190614573565b60405180910390f35b34801561043a57600080fd5b50610443610ef5565b6040516104509190614535565b60405180910390f35b34801561046557600080fd5b50610480600480360381019061047b9190614371565b610f4a565b60405161048d9190614535565b60405180910390f35b3480156104a257600080fd5b506104bd60048036038101906104b891906145b8565b610f62565b005b3480156104cb57600080fd5b506104e660048036038101906104e1919061460b565b610f72565b6040516104f492919061464b565b60405180910390f35b34801561050957600080fd5b5061051261102c565b60405161051f9190614535565b60405180910390f35b34801561053457600080fd5b5061054f600480360381019061054a91906144e6565b611087565b60405161055c9190614535565b60405180910390f35b34801561057157600080fd5b5061058c60048036038101906105879190614705565b61128c565b005b34801561059a57600080fd5b506105a36113b1565b005b3480156105b157600080fd5b506105ba6114fe565b6040516105c79190614535565b60405180910390f35b3480156105dc57600080fd5b506105f760048036038101906105f291906145b8565b611503565b005b610613600480360381019061060e919061448f565b611523565b005b34801561062157600080fd5b5061063c6004803603810190610637919061448f565b6117f7565b6040516106499190614535565b60405180910390f35b34801561065e57600080fd5b50610667611967565b60405161067491906142f8565b60405180910390f35b34801561068957600080fd5b506106a4600480360381019061069f9190614371565b61197a565b005b3480156106b257600080fd5b506106cd60048036038101906106c8919061448f565b611a3a565b6040516106da91906144cb565b60405180910390f35b3480156106ef57600080fd5b506106f8611a50565b6040516107059190614535565b60405180910390f35b34801561071a57600080fd5b50610723611a56565b60405161073091906142f8565b60405180910390f35b34801561074557600080fd5b50610760600480360381019061075b9190614371565b611a69565b60405161076d9190614535565b60405180910390f35b34801561078257600080fd5b5061078b611b38565b005b34801561079957600080fd5b506107b460048036038101906107af919061448f565b611bc0565b005b3480156107c257600080fd5b506107cb611c46565b6040516107d89190614784565b60405180910390f35b3480156107ed57600080fd5b50610808600480360381019061080391906147f7565b611c5c565b005b34801561081657600080fd5b5061081f611e24565b005b34801561082d57600080fd5b50610836611ef2565b60405161084391906144cb565b60405180910390f35b34801561085857600080fd5b50610861611f1c565b60405161086e9190614437565b60405180910390f35b34801561088357600080fd5b5061088c611fae565b6040516108999190614535565b60405180910390f35b3480156108ae57600080fd5b506108c960048036038101906108c49190614872565b611fb4565b005b3480156108d757600080fd5b506108f260048036038101906108ed91906144e6565b61212b565b005b34801561090057600080fd5b5061091b60048036038101906109169190614908565b61225d565b005b34801561092957600080fd5b50610944600480360381019061093f9190614a98565b61232a565b005b34801561095257600080fd5b5061095b61237d565b6040516109689190614535565b60405180910390f35b34801561097d57600080fd5b50610986612382565b005b34801561099457600080fd5b506109af60048036038101906109aa919061448f565b612559565b6040516109bc9190614437565b60405180910390f35b3480156109d157600080fd5b506109ec60048036038101906109e79190614b5f565b61267d565b005b610a086004803603810190610a03919061448f565b61272d565b005b348015610a1657600080fd5b50610a316004803603810190610a2c9190614371565b612ad8565b604051610a3e9190614535565b60405180910390f35b348015610a5357600080fd5b50610a6e6004803603810190610a699190614b8c565b612aea565b604051610a7b91906142f8565b60405180910390f35b348015610a9057600080fd5b50610a99612b7e565b604051610aa69190614535565b60405180910390f35b348015610abb57600080fd5b50610ac4612d6c565b604051610ad19190614535565b60405180910390f35b348015610ae657600080fd5b50610b016004803603810190610afc9190614371565b612d72565b005b348015610b0f57600080fd5b50610b18612e69565b604051610b259190614535565b60405180910390f35b6000632a55205a60e01b7bffffffffffffffffffffffffffffffffffffffffffffffffffffffff1916827bffffffffffffffffffffffffffffffffffffffffffffffffffffffff191603610b855760019050610b91565b610b8e82612e6f565b90505b919050565b600b60059054906101000a900460ff1681565b610bb1612fb9565b73ffffffffffffffffffffffffffffffffffffffff16610bcf611ef2565b73ffffffffffffffffffffffffffffffffffffffff1614610c25576040517f08c379a0000000000000000000000000000000000000000000000000000000008152600401610c1c90614c18565b60405180910390fd5b80601060006101000a81548173ffffffffffffffffffffffffffffffffffffffff021916908373ffffffffffffffffffffffffffffffffffffffff16021790555050565b606060018054610c7890614c67565b80601f0160208091040260200160405190810160405280929190818152602001828054610ca490614c67565b8015610cf15780601f10610cc657610100808354040283529160200191610cf1565b820191906000526020600020905b815481529060010190602001808311610cd457829003601f168201915b5050505050905090565b6000610d0682612fc1565b610d3c576040517fcf4700e400000000000000000000000000000000000000000000000000000000815260040160405180910390fd5b6005600083815260200190815260200160002060009054906101000a900473ffffffffffffffffffffffffffffffffffffffff169050919050565b6000610d8282611a3a565b90508073ffffffffffffffffffffffffffffffffffffffff168373ffffffffffffffffffffffffffffffffffffffff1603610de9576040517f943f7b8c00000000000000000000000000000000000000000000000000000000815260040160405180910390fd5b8073ffffffffffffffffffffffffffffffffffffffff16610e08612fb9565b73ffffffffffffffffffffffffffffffffffffffff1614158015610e3a5750610e3881610e33612fb9565b612aea565b155b15610e71576040517fcfb3b94200000000000000000000000000000000000000000000000000000000815260040160405180910390fd5b610e7c838383613029565b505050565b600a5481565b600c8060000160009054906101000a900467ffffffffffffffff16908060000160089054906101000a900467ffffffffffffffff16908060000160109054906101000a900467ffffffffffffffff16908060000160189054906101000a900467ffffffffffffffff16905084565b60008060109054906101000a90046fffffffffffffffffffffffffffffffff1660008054906101000a90046fffffffffffffffffffffffffffffffff16036fffffffffffffffffffffffffffffffff16905090565b600d6020528060005260406000206000915090505481565b610f6d8383836130db565b505050565b600080610f7e84612fc1565b610fbd576040517f08c379a0000000000000000000000000000000000000000000000000000000008152600401610fb490614ce4565b60405180910390fd5b601060009054906101000a900473ffffffffffffffffffffffffffffffffffffffff16612710601060149054906101000a90046bffffffffffffffffffffffff166bffffffffffffffffffffffff16856110179190614d33565b6110219190614dbc565b915091509250929050565b6000600b60069054906101000a900460ff166110655761113060006122b86110549190614ded565b61105e9190614ded565b9050611084565b60095460006122b86110779190614ded565b6110819190614ded565b90505b90565b600061109283611a69565b82106110ca576040517f0ddac30e00000000000000000000000000000000000000000000000000000000815260040160405180910390fd5b60008060009054906101000a90046fffffffffffffffffffffffffffffffff166fffffffffffffffffffffffffffffffff16905060008060005b83811015611280576000600360008381526020019081526020016000206040518060600160405290816000820160009054906101000a900473ffffffffffffffffffffffffffffffffffffffff1673ffffffffffffffffffffffffffffffffffffffff1673ffffffffffffffffffffffffffffffffffffffff1681526020016000820160149054906101000a900467ffffffffffffffff1667ffffffffffffffff1667ffffffffffffffff16815260200160008201601c9054906101000a900460ff16151515158152505090508060400151156111e15750611273565b600073ffffffffffffffffffffffffffffffffffffffff16816000015173ffffffffffffffffffffffffffffffffffffffff161461122157806000015192505b8773ffffffffffffffffffffffffffffffffffffffff168373ffffffffffffffffffffffffffffffffffffffff160361127157868403611268578195505050505050611286565b83806001019450505b505b8080600101915050611104565b50600080fd5b92915050565b611294612fb9565b73ffffffffffffffffffffffffffffffffffffffff166112b2611ef2565b73ffffffffffffffffffffffffffffffffffffffff1614611308576040517f08c379a00000000000000000000000000000000000000000000000000000000081526004016112ff90614c18565b60405180910390fd5b600081611316576001611319565b60025b60ff16905060005b848490508110156113aa5781600d600087878581811061134457611343614e21565b5b90506020020160208101906113599190614371565b73ffffffffffffffffffffffffffffffffffffffff1673ffffffffffffffffffffffffffffffffffffffff1681526020019081526020016000208190555080806113a290614e50565b915050611321565b5050505050565b6113b9612fb9565b73ffffffffffffffffffffffffffffffffffffffff166113d7611ef2565b73ffffffffffffffffffffffffffffffffffffffff161461142d576040517f08c379a000000000000000000000000000000000000000000000000000000000815260040161142490614c18565b60405180910390fd5b6000600f60019054906101000a900473ffffffffffffffffffffffffffffffffffffffff1673ffffffffffffffffffffffffffffffffffffffff164760405161147590614ec9565b60006040518083038185875af1925050503d80600081146114b2576040519150601f19603f3d011682016040523d82523d6000602084013e6114b7565b606091505b50509050806114fb576040517f08c379a00000000000000000000000000000000000000000000000000000000081526004016114f290614f2a565b60405180910390fd5b50565b600081565b61151e8383836040518060200160405280600081525061232a565b505050565b600b60069054906101000a900460ff1615611573576040517f08c379a000000000000000000000000000000000000000000000000000000000815260040161156a90614f96565b60405180910390fd5b600b60059054906101000a900460ff166115c2576040517f08c379a00000000000000000000000000000000000000000000000000000000081526004016115b990615002565b60405180910390fd5b6000600d60003373ffffffffffffffffffffffffffffffffffffffff1673ffffffffffffffffffffffffffffffffffffffff168152602001908152602001600020549050611130826009546116179190615022565b1115611658576040517f08c379a000000000000000000000000000000000000000000000000000000000815260040161164f906150c4565b60405180910390fd5b600081141580156116695750808211155b6116a8576040517f08c379a000000000000000000000000000000000000000000000000000000000815260040161169f90615130565b60405180910390fd5b816008546116b69190614d33565b34146116f7576040517f08c379a00000000000000000000000000000000000000000000000000000000081526004016116ee9061519c565b60405180910390fd5b80820361174657600d60003373ffffffffffffffffffffffffffffffffffffffff1673ffffffffffffffffffffffffffffffffffffffff168152602001908152602001600020600090556117d5565b81600d60003373ffffffffffffffffffffffffffffffffffffffff1673ffffffffffffffffffffffffffffffffffffffff168152602001908152602001600020546117919190614ded565b600d60003373ffffffffffffffffffffffffffffffffffffffff1673ffffffffffffffffffffffffffffffffffffffff168152602001908152602001600020819055505b816009546117e39190615022565b6009819055506117f333836135f6565b5050565b60008060008054906101000a90046fffffffffffffffffffffffffffffffff166fffffffffffffffffffffffffffffffff1690506000805b8281101561192f576000600360008381526020019081526020016000206040518060600160405290816000820160009054906101000a900473ffffffffffffffffffffffffffffffffffffffff1673ffffffffffffffffffffffffffffffffffffffff1673ffffffffffffffffffffffffffffffffffffffff1681526020016000820160149054906101000a900467ffffffffffffffff1667ffffffffffffffff1667ffffffffffffffff16815260200160008201601c9054906101000a900460ff16151515158152505090508060400151611921578583036119185781945050505050611962565b82806001019350505b50808060010191505061182f565b506040517fa723001c00000000000000000000000000000000000000000000000000000000815260040160405180910390fd5b919050565b600f60009054906101000a900460ff1681565b611982612fb9565b73ffffffffffffffffffffffffffffffffffffffff166119a0611ef2565b73ffffffffffffffffffffffffffffffffffffffff16146119f6576040517f08c379a00000000000000000000000000000000000000000000000000000000081526004016119ed90614c18565b60405180910390fd5b80600f60016101000a81548173ffffffffffffffffffffffffffffffffffffffff021916908373ffffffffffffffffffffffffffffffffffffffff16021790555050565b6000611a4582613614565b600001519050919050565b61113081565b600b60049054906101000a900460ff1681565b60008073ffffffffffffffffffffffffffffffffffffffff168273ffffffffffffffffffffffffffffffffffffffff1603611ad0576040517f8f4eb60400000000000000000000000000000000000000000000000000000000815260040160405180910390fd5b600460008373ffffffffffffffffffffffffffffffffffffffff1673ffffffffffffffffffffffffffffffffffffffff16815260200190815260200160002060000160009054906101000a900467ffffffffffffffff1667ffffffffffffffff169050919050565b611b40612fb9565b73ffffffffffffffffffffffffffffffffffffffff16611b5e611ef2565b73ffffffffffffffffffffffffffffffffffffffff1614611bb4576040517f08c379a0000000000000000000000000000000000000000000000000000000008152600401611bab90614c18565b60405180910390fd5b611bbe60006138bc565b565b611bc8612fb9565b73ffffffffffffffffffffffffffffffffffffffff16611be6611ef2565b73ffffffffffffffffffffffffffffffffffffffff1614611c3c576040517f08c379a0000000000000000000000000000000000000000000000000000000008152600401611c3390614c18565b60405180910390fd5b8060088190555050565b600b60009054906101000a900463ffffffff1681565b611c64612fb9565b73ffffffffffffffffffffffffffffffffffffffff16611c82611ef2565b73ffffffffffffffffffffffffffffffffffffffff1614611cd8576040517f08c379a0000000000000000000000000000000000000000000000000000000008152600401611ccf90614c18565b60405180910390fd5b600b60049054906101000a900460ff1615611cf257600080fd5b84600b60006101000a81548163ffffffff021916908363ffffffff16021790555060405180608001604052808567ffffffffffffffff1681526020018467ffffffffffffffff1681526020018367ffffffffffffffff1681526020018267ffffffffffffffff16815250600c60008201518160000160006101000a81548167ffffffffffffffff021916908367ffffffffffffffff16021790555060208201518160000160086101000a81548167ffffffffffffffff021916908367ffffffffffffffff16021790555060408201518160000160106101000a81548167ffffffffffffffff021916908367ffffffffffffffff16021790555060608201518160000160186101000a81548167ffffffffffffffff021916908367ffffffffffffffff1602179055509050505050505050565b611e2c612fb9565b73ffffffffffffffffffffffffffffffffffffffff16611e4a611ef2565b73ffffffffffffffffffffffffffffffffffffffff1614611ea0576040517f08c379a0000000000000000000000000000000000000000000000000000000008152600401611e9790614c18565b60405180910390fd5b600b60059054906101000a900460ff1615611ed4576000600b60056101000a81548160ff0219169083151502179055611eef565b6001600b60056101000a81548160ff02191690831515021790555b50565b6000600760009054906101000a900473ffffffffffffffffffffffffffffffffffffffff16905090565b606060028054611f2b90614c67565b80601f0160208091040260200160405190810160405280929190818152602001828054611f5790614c67565b8015611fa45780601f10611f7957610100808354040283529160200191611fa4565b820191906000526020600020905b815481529060010190602001808311611f8757829003601f168201915b5050505050905090565b6122b881565b611fbc612fb9565b73ffffffffffffffffffffffffffffffffffffffff168273ffffffffffffffffffffffffffffffffffffffff1603612020576040517fb06307db00000000000000000000000000000000000000000000000000000000815260040160405180910390fd5b806006600061202d612fb9565b73ffffffffffffffffffffffffffffffffffffffff1673ffffffffffffffffffffffffffffffffffffffff16815260200190815260200160002060008473ffffffffffffffffffffffffffffffffffffffff1673ffffffffffffffffffffffffffffffffffffffff16815260200190815260200160002060006101000a81548160ff0219169083151502179055508173ffffffffffffffffffffffffffffffffffffffff166120da612fb9565b73ffffffffffffffffffffffffffffffffffffffff167f17307eab39ab6107e8899845ad3d59bd9653f200f220920489ca2b5937696c318360405161211f91906142f8565b60405180910390a35050565b612133612fb9565b73ffffffffffffffffffffffffffffffffffffffff16612151611ef2565b73ffffffffffffffffffffffffffffffffffffffff16146121a7576040517f08c379a000000000000000000000000000000000000000000000000000000000815260040161219e90614c18565b60405180910390fd5b600081116121ea576040517f08c379a00000000000000000000000000000000000000000000000000000000081526004016121e190615208565b60405180910390fd5b600081600a546121fa9190615022565b111561223b576040517f08c379a000000000000000000000000000000000000000000000000000000000815260040161223290615274565b60405180910390fd5b80600a546122499190615022565b600a8190555061225982826135f6565b5050565b612265612fb9565b73ffffffffffffffffffffffffffffffffffffffff16612283611ef2565b73ffffffffffffffffffffffffffffffffffffffff16146122d9576040517f08c379a00000000000000000000000000000000000000000000000000000000081526004016122d090614c18565b60405180910390fd5b600f60009054906101000a900460ff161580156122f35750805b156123135780600f60006101000a81548160ff0219169083151502179055505b8282600e919061232492919061415e565b50505050565b6123358484846130db565b61234184848484613982565b612377576040517fd1a57ed600000000000000000000000000000000000000000000000000000000815260040160405180910390fd5b50505050565b600381565b61238a612fb9565b73ffffffffffffffffffffffffffffffffffffffff166123a8611ef2565b73ffffffffffffffffffffffffffffffffffffffff16146123fe576040517f08c379a00000000000000000000000000000000000000000000000000000000081526004016123f590614c18565b60405180910390fd5b6000600c60000160009054906101000a900467ffffffffffffffff1667ffffffffffffffff1603612464576040517f08c379a000000000000000000000000000000000000000000000000000000000815260040161245b906152e0565b60405180910390fd5b600b60069054906101000a900460ff16612494576001600b60066101000a81548160ff0219169083151502179055505b600b60059054906101000a900460ff16156124c5576000600b60056101000a81548160ff0219169083151502179055505b6000600b60009054906101000a900463ffffffff1663ffffffff16036125075742600b60006101000a81548163ffffffff021916908363ffffffff1602179055505b600b60049054906101000a900460ff161561253b576000600b60046101000a81548160ff0219169083151502179055612556565b6001600b60046101000a81548160ff02191690831515021790555b50565b606061256482612fc1565b6125a3576040517f08c379a000000000000000000000000000000000000000000000000000000000815260040161259a90614ce4565b60405180910390fd5b600f60009054906101000a900460ff16156125ea57600e6125c383613b00565b6040516020016125d49291906153d0565b6040516020818303038152906040529050612678565b600e80546125f790614c67565b80601f016020809104026020016040519081016040528092919081815260200182805461262390614c67565b80156126705780601f1061264557610100808354040283529160200191612670565b820191906000526020600020905b81548152906001019060200180831161265357829003601f168201915b505050505090505b919050565b612685612fb9565b73ffffffffffffffffffffffffffffffffffffffff166126a3611ef2565b73ffffffffffffffffffffffffffffffffffffffff16146126f9576040517f08c379a00000000000000000000000000000000000000000000000000000000081526004016126f090614c18565b60405180910390fd5b80601060146101000a8154816bffffffffffffffffffffffff02191690836bffffffffffffffffffffffff16021790555050565b600b60049054906101000a900460ff1661277c576040517f08c379a000000000000000000000000000000000000000000000000000000000815260040161277390615440565b60405180910390fd5b3373ffffffffffffffffffffffffffffffffffffffff163273ffffffffffffffffffffffffffffffffffffffff16146127ea576040517f08c379a00000000000000000000000000000000000000000000000000000000081526004016127e1906154ac565b60405180910390fd5b60006122b86127f99190614ded565b81600a54612805610ef5565b61280f9190614ded565b6128199190615022565b111561285a576040517f08c379a000000000000000000000000000000000000000000000000000000000815260040161285190615518565b60405180910390fd5b600080600c6040518060800160405290816000820160009054906101000a900467ffffffffffffffff1667ffffffffffffffff1667ffffffffffffffff1681526020016000820160089054906101000a900467ffffffffffffffff1667ffffffffffffffff1667ffffffffffffffff1681526020016000820160109054906101000a900467ffffffffffffffff1667ffffffffffffffff1667ffffffffffffffff1681526020016000820160189054906101000a900467ffffffffffffffff1667ffffffffffffffff1667ffffffffffffffff16815250509050806020015167ffffffffffffffff16600b60009054906101000a900463ffffffff1663ffffffff16426129679190614ded565b10612981578260085461297a9190614d33565b9150612a19565b6000816040015167ffffffffffffffff16600b60009054906101000a900463ffffffff1663ffffffff16426129b69190614ded565b6129c09190614dbc565b905083826060015167ffffffffffffffff16826129dd9190614d33565b600c60000160009054906101000a900467ffffffffffffffff1667ffffffffffffffff16612a0b9190614ded565b612a159190614d33565b9250505b81341015612a5c576040517f08c379a0000000000000000000000000000000000000000000000000000000008152600401612a5390615584565b60405180910390fd5b612a783384604051806020016040528060008152506001613c60565b81341115612ad3573373ffffffffffffffffffffffffffffffffffffffff166108fc8334612aa69190614ded565b9081150290604051600060405180830381858888f19350505050158015612ad1573d6000803e3d6000fd5b505b505050565b6000612ae382613ff4565b9050919050565b6000600660008473ffffffffffffffffffffffffffffffffffffffff1673ffffffffffffffffffffffffffffffffffffffff16815260200190815260200160002060008373ffffffffffffffffffffffffffffffffffffffff1673ffffffffffffffffffffffffffffffffffffffff16815260200190815260200160002060009054906101000a900460ff16905092915050565b6000600b60049054906101000a900460ff16612bbf57600c60000160009054906101000a900467ffffffffffffffff1667ffffffffffffffff169050612d69565b6000600c6040518060800160405290816000820160009054906101000a900467ffffffffffffffff1667ffffffffffffffff1667ffffffffffffffff1681526020016000820160089054906101000a900467ffffffffffffffff1667ffffffffffffffff1667ffffffffffffffff1681526020016000820160109054906101000a900467ffffffffffffffff1667ffffffffffffffff1667ffffffffffffffff1681526020016000820160189054906101000a900467ffffffffffffffff1667ffffffffffffffff1667ffffffffffffffff16815250509050806020015167ffffffffffffffff16600b60009054906101000a900463ffffffff1663ffffffff1642612ccb9190614ded565b10612cdb57600854915050612d69565b6000816040015167ffffffffffffffff16600b60009054906101000a900463ffffffff1663ffffffff1642612d109190614ded565b612d1a9190614dbc565b9050816060015167ffffffffffffffff1681612d369190614d33565b600c60000160009054906101000a900467ffffffffffffffff1667ffffffffffffffff16612d649190614ded565b925050505b90565b60095481565b612d7a612fb9565b73ffffffffffffffffffffffffffffffffffffffff16612d98611ef2565b73ffffffffffffffffffffffffffffffffffffffff1614612dee576040517f08c379a0000000000000000000000000000000000000000000000000000000008152600401612de590614c18565b60405180910390fd5b600073ffffffffffffffffffffffffffffffffffffffff168173ffffffffffffffffffffffffffffffffffffffff1603612e5d576040517f08c379a0000000000000000000000000000000000000000000000000000000008152600401612e5490615616565b60405180910390fd5b612e66816138bc565b50565b60085481565b60007f80ac58cd000000000000000000000000000000000000000000000000000000007bffffffffffffffffffffffffffffffffffffffffffffffffffffffff1916827bffffffffffffffffffffffffffffffffffffffffffffffffffffffff19161480612f3a57507f5b5e139f000000000000000000000000000000000000000000000000000000007bffffffffffffffffffffffffffffffffffffffffffffffffffffffff1916827bffffffffffffffffffffffffffffffffffffffffffffffffffffffff1916145b80612fa257507f780e9d63000000000000000000000000000000000000000000000000000000007bffffffffffffffffffffffffffffffffffffffffffffffffffffffff1916827bffffffffffffffffffffffffffffffffffffffffffffffffffffffff1916145b80612fb25750612fb1826140c3565b5b9050919050565b600033905090565b60008060009054906101000a90046fffffffffffffffffffffffffffffffff166fffffffffffffffffffffffffffffffff1682108015613022575060036000838152602001908152602001600020600001601c9054906101000a900460ff16155b9050919050565b826005600084815260200190815260200160002060006101000a81548173ffffffffffffffffffffffffffffffffffffffff021916908373ffffffffffffffffffffffffffffffffffffffff160217905550818373ffffffffffffffffffffffffffffffffffffffff168273ffffffffffffffffffffffffffffffffffffffff167f8c5be1e5ebec7d5bd14f71427d1e84f3dd0314c0f7b2291e5b200ac8c7c3b92560405160405180910390a4505050565b60006130e682613614565b90506000816000015173ffffffffffffffffffffffffffffffffffffffff1661310d612fb9565b73ffffffffffffffffffffffffffffffffffffffff161480613140575061313f826000015161313a612fb9565b612aea565b5b80613185575061314e612fb9565b73ffffffffffffffffffffffffffffffffffffffff1661316d84610cfb565b73ffffffffffffffffffffffffffffffffffffffff16145b9050806131be576040517f59c896be00000000000000000000000000000000000000000000000000000000815260040160405180910390fd5b8473ffffffffffffffffffffffffffffffffffffffff16826000015173ffffffffffffffffffffffffffffffffffffffff1614613227576040517fa114810000000000000000000000000000000000000000000000000000000000815260040160405180910390fd5b600073ffffffffffffffffffffffffffffffffffffffff168473ffffffffffffffffffffffffffffffffffffffff160361328d576040517fea553b3400000000000000000000000000000000000000000000000000000000815260040160405180910390fd5b61329a858585600161412d565b6132aa6000848460000151613029565b6001600460008773ffffffffffffffffffffffffffffffffffffffff1673ffffffffffffffffffffffffffffffffffffffff16815260200190815260200160002060000160008282829054906101000a900467ffffffffffffffff160392506101000a81548167ffffffffffffffff021916908367ffffffffffffffff1602179055506001600460008673ffffffffffffffffffffffffffffffffffffffff1673ffffffffffffffffffffffffffffffffffffffff16815260200190815260200160002060000160008282829054906101000a900467ffffffffffffffff160192506101000a81548167ffffffffffffffff021916908367ffffffffffffffff160217905550836003600085815260200190815260200160002060000160006101000a81548173ffffffffffffffffffffffffffffffffffffffff021916908373ffffffffffffffffffffffffffffffffffffffff160217905550426003600085815260200190815260200160002060000160146101000a81548167ffffffffffffffff021916908367ffffffffffffffff1602179055506000600184019050600073ffffffffffffffffffffffffffffffffffffffff166003600083815260200190815260200160002060000160009054906101000a900473ffffffffffffffffffffffffffffffffffffffff1673ffffffffffffffffffffffffffffffffffffffff16036135865760008054906101000a90046fffffffffffffffffffffffffffffffff166fffffffffffffffffffffffffffffffff168110156135855782600001516003600083815260200190815260200160002060000160006101000a81548173ffffffffffffffffffffffffffffffffffffffff021916908373ffffffffffffffffffffffffffffffffffffffff16021790555082602001516003600083815260200190815260200160002060000160146101000a81548167ffffffffffffffff021916908367ffffffffffffffff1602179055505b5b50828473ffffffffffffffffffffffffffffffffffffffff168673ffffffffffffffffffffffffffffffffffffffff167fddf252ad1be2c89b69c2b068fc378daa952ba7f163c4a11628f55a4df523b3ef60405160405180910390a46135ef8585856001614133565b5050505050565b613610828260405180602001604052806000815250614139565b5050565b61361c6141e4565b600082905060008054906101000a90046fffffffffffffffffffffffffffffffff166fffffffffffffffffffffffffffffffff16811015613885576000600360008381526020019081526020016000206040518060600160405290816000820160009054906101000a900473ffffffffffffffffffffffffffffffffffffffff1673ffffffffffffffffffffffffffffffffffffffff1673ffffffffffffffffffffffffffffffffffffffff1681526020016000820160149054906101000a900467ffffffffffffffff1667ffffffffffffffff1667ffffffffffffffff16815260200160008201601c9054906101000a900460ff1615151515815250509050806040015161388357600073ffffffffffffffffffffffffffffffffffffffff16816000015173ffffffffffffffffffffffffffffffffffffffff16146137675780925050506138b7565b5b60011561388257818060019003925050600360008381526020019081526020016000206040518060600160405290816000820160009054906101000a900473ffffffffffffffffffffffffffffffffffffffff1673ffffffffffffffffffffffffffffffffffffffff1673ffffffffffffffffffffffffffffffffffffffff1681526020016000820160149054906101000a900467ffffffffffffffff1667ffffffffffffffff1667ffffffffffffffff16815260200160008201601c9054906101000a900460ff1615151515815250509050600073ffffffffffffffffffffffffffffffffffffffff16816000015173ffffffffffffffffffffffffffffffffffffffff161461387d5780925050506138b7565b613768565b5b505b6040517fdf2d9b4200000000000000000000000000000000000000000000000000000000815260040160405180910390fd5b919050565b6000600760009054906101000a900473ffffffffffffffffffffffffffffffffffffffff16905081600760006101000a81548173ffffffffffffffffffffffffffffffffffffffff021916908373ffffffffffffffffffffffffffffffffffffffff1602179055508173ffffffffffffffffffffffffffffffffffffffff168173ffffffffffffffffffffffffffffffffffffffff167f8be0079c531659141344cd1fd0a4f28419497f9722a3daafe3b4186f6b6457e060405160405180910390a35050565b60006139a38473ffffffffffffffffffffffffffffffffffffffff1661414b565b15613af3578373ffffffffffffffffffffffffffffffffffffffff1663150b7a026139cc612fb9565b8786866040518563ffffffff1660e01b81526004016139ee949392919061568b565b6020604051808303816000875af1925050508015613a2a57506040513d601f19601f82011682018060405250810190613a2791906156ec565b60015b613aa3573d8060008114613a5a576040519150601f19603f3d011682016040523d82523d6000602084013e613a5f565b606091505b506000815103613a9b576040517fd1a57ed600000000000000000000000000000000000000000000000000000000815260040160405180910390fd5b805181602001fd5b63150b7a0260e01b7bffffffffffffffffffffffffffffffffffffffffffffffffffffffff1916817bffffffffffffffffffffffffffffffffffffffffffffffffffffffff191614915050613af8565b600190505b949350505050565b606060008203613b47576040518060400160405280600181526020017f30000000000000000000000000000000000000000000000000000000000000008152509050613c5b565b600082905060005b60008214613b79578080613b6290614e50565b915050600a82613b729190614dbc565b9150613b4f565b60008167ffffffffffffffff811115613b9557613b9461496d565b5b6040519080825280601f01601f191660200182016040528015613bc75781602001600182028036833780820191505090505b5090505b60008514613c5457600182613be09190614ded565b9150600a85613bef9190615719565b6030613bfb9190615022565b60f81b818381518110613c1157613c10614e21565b5b60200101907effffffffffffffffffffffffffffffffffffffffffffffffffffffffffffff1916908160001a905350600a85613c4d9190614dbc565b9450613bcb565b8093505050505b919050565b60008060009054906101000a90046fffffffffffffffffffffffffffffffff166fffffffffffffffffffffffffffffffff169050600073ffffffffffffffffffffffffffffffffffffffff168573ffffffffffffffffffffffffffffffffffffffff1603613cfa576040517f2e07630000000000000000000000000000000000000000000000000000000000815260040160405180910390fd5b60008403613d34576040517fb562e8dd00000000000000000000000000000000000000000000000000000000815260040160405180910390fd5b613d41600086838761412d565b83600460008773ffffffffffffffffffffffffffffffffffffffff1673ffffffffffffffffffffffffffffffffffffffff16815260200190815260200160002060000160008282829054906101000a900467ffffffffffffffff160192506101000a81548167ffffffffffffffff021916908367ffffffffffffffff16021790555083600460008773ffffffffffffffffffffffffffffffffffffffff1673ffffffffffffffffffffffffffffffffffffffff16815260200190815260200160002060000160088282829054906101000a900467ffffffffffffffff160192506101000a81548167ffffffffffffffff021916908367ffffffffffffffff160217905550846003600083815260200190815260200160002060000160006101000a81548173ffffffffffffffffffffffffffffffffffffffff021916908373ffffffffffffffffffffffffffffffffffffffff160217905550426003600083815260200190815260200160002060000160146101000a81548167ffffffffffffffff021916908367ffffffffffffffff160217905550600081905060005b85811015613fa657818773ffffffffffffffffffffffffffffffffffffffff16600073ffffffffffffffffffffffffffffffffffffffff167fddf252ad1be2c89b69c2b068fc378daa952ba7f163c4a11628f55a4df523b3ef60405160405180910390a4838015613f5a5750613f586000888488613982565b155b15613f91576040517fd1a57ed600000000000000000000000000000000000000000000000000000000815260040160405180910390fd5b81806001019250508080600101915050613edf565b50806000806101000a8154816fffffffffffffffffffffffffffffffff02191690836fffffffffffffffffffffffffffffffff16021790555050613fed6000868387614133565b5050505050565b60008073ffffffffffffffffffffffffffffffffffffffff168273ffffffffffffffffffffffffffffffffffffffff160361405b576040517f35ebb31900000000000000000000000000000000000000000000000000000000815260040160405180910390fd5b600460008373ffffffffffffffffffffffffffffffffffffffff1673ffffffffffffffffffffffffffffffffffffffff16815260200190815260200160002060000160089054906101000a900467ffffffffffffffff1667ffffffffffffffff169050919050565b60007f01ffc9a7000000000000000000000000000000000000000000000000000000007bffffffffffffffffffffffffffffffffffffffffffffffffffffffff1916827bffffffffffffffffffffffffffffffffffffffffffffffffffffffff1916149050919050565b50505050565b50505050565b6141468383836001613c60565b505050565b600080823b905060008111915050919050565b82805461416a90614c67565b90600052602060002090601f01602090048101928261418c57600085556141d3565b82601f106141a557803560ff19168380011785556141d3565b828001600101855582156141d3579182015b828111156141d25782358255916020019190600101906141b7565b5b5090506141e09190614227565b5090565b6040518060600160405280600073ffffffffffffffffffffffffffffffffffffffff168152602001600067ffffffffffffffff1681526020016000151581525090565b5b80821115614240576000816000905550600101614228565b5090565b6000604051905090565b600080fd5b600080fd5b60007fffffffff0000000000000000000000000000000000000000000000000000000082169050919050565b61428d81614258565b811461429857600080fd5b50565b6000813590506142aa81614284565b92915050565b6000602082840312156142c6576142c561424e565b5b60006142d48482850161429b565b91505092915050565b60008115159050919050565b6142f2816142dd565b82525050565b600060208201905061430d60008301846142e9565b92915050565b600073ffffffffffffffffffffffffffffffffffffffff82169050919050565b600061433e82614313565b9050919050565b61434e81614333565b811461435957600080fd5b50565b60008135905061436b81614345565b92915050565b6000602082840312156143875761438661424e565b5b60006143958482850161435c565b91505092915050565b600081519050919050565b600082825260208201905092915050565b60005b838110156143d85780820151818401526020810190506143bd565b838111156143e7576000848401525b50505050565b6000601f19601f8301169050919050565b60006144098261439e565b61441381856143a9565b93506144238185602086016143ba565b61442c816143ed565b840191505092915050565b6000602082019050818103600083015261445181846143fe565b905092915050565b6000819050919050565b61446c81614459565b811461447757600080fd5b50565b60008135905061448981614463565b92915050565b6000602082840312156144a5576144a461424e565b5b60006144b38482850161447a565b91505092915050565b6144c581614333565b82525050565b60006020820190506144e060008301846144bc565b92915050565b600080604083850312156144fd576144fc61424e565b5b600061450b8582860161435c565b925050602061451c8582860161447a565b9150509250929050565b61452f81614459565b82525050565b600060208201905061454a6000830184614526565b92915050565b600067ffffffffffffffff82169050919050565b61456d81614550565b82525050565b60006080820190506145886000830187614564565b6145956020830186614564565b6145a26040830185614564565b6145af6060830184614564565b95945050505050565b6000806000606084860312156145d1576145d061424e565b5b60006145df8682870161435c565b93505060206145f08682870161435c565b92505060406146018682870161447a565b9150509250925092565b600080604083850312156146225761462161424e565b5b60006146308582860161447a565b92505060206146418582860161447a565b9150509250929050565b600060408201905061466060008301856144bc565b61466d6020830184614526565b9392505050565b600080fd5b600080fd5b600080fd5b60008083601f84011261469957614698614674565b5b8235905067ffffffffffffffff8111156146b6576146b5614679565b5b6020830191508360208202830111156146d2576146d161467e565b5b9250929050565b6146e2816142dd565b81146146ed57600080fd5b50565b6000813590506146ff816146d9565b92915050565b60008060006040848603121561471e5761471d61424e565b5b600084013567ffffffffffffffff81111561473c5761473b614253565b5b61474886828701614683565b9350935050602061475b868287016146f0565b9150509250925092565b600063ffffffff82169050919050565b61477e81614765565b82525050565b60006020820190506147996000830184614775565b92915050565b6147a881614765565b81146147b357600080fd5b50565b6000813590506147c58161479f565b92915050565b6147d481614550565b81146147df57600080fd5b50565b6000813590506147f1816147cb565b92915050565b600080600080600060a086880312156148135761481261424e565b5b6000614821888289016147b6565b9550506020614832888289016147e2565b9450506040614843888289016147e2565b9350506060614854888289016147e2565b9250506080614865888289016147e2565b9150509295509295909350565b600080604083850312156148895761488861424e565b5b60006148978582860161435c565b92505060206148a8858286016146f0565b9150509250929050565b60008083601f8401126148c8576148c7614674565b5b8235905067ffffffffffffffff8111156148e5576148e4614679565b5b6020830191508360018202830111156149015761490061467e565b5b9250929050565b6000806000604084860312156149215761492061424e565b5b600084013567ffffffffffffffff81111561493f5761493e614253565b5b61494b868287016148b2565b9350935050602061495e868287016146f0565b9150509250925092565b600080fd5b7f4e487b7100000000000000000000000000000000000000000000000000000000600052604160045260246000fd5b6149a5826143ed565b810181811067ffffffffffffffff821117156149c4576149c361496d565b5b80604052505050565b60006149d7614244565b90506149e3828261499c565b919050565b600067ffffffffffffffff821115614a0357614a0261496d565b5b614a0c826143ed565b9050602081019050919050565b82818337600083830152505050565b6000614a3b614a36846149e8565b6149cd565b905082815260208101848484011115614a5757614a56614968565b5b614a62848285614a19565b509392505050565b600082601f830112614a7f57614a7e614674565b5b8135614a8f848260208601614a28565b91505092915050565b60008060008060808587031215614ab257614ab161424e565b5b6000614ac08782880161435c565b9450506020614ad18782880161435c565b9350506040614ae28782880161447a565b925050606085013567ffffffffffffffff811115614b0357614b02614253565b5b614b0f87828801614a6a565b91505092959194509250565b60006bffffffffffffffffffffffff82169050919050565b614b3c81614b1b565b8114614b4757600080fd5b50565b600081359050614b5981614b33565b92915050565b600060208284031215614b7557614b7461424e565b5b6000614b8384828501614b4a565b91505092915050565b60008060408385031215614ba357614ba261424e565b5b6000614bb18582860161435c565b9250506020614bc28582860161435c565b9150509250929050565b7f4f776e61626c653a2063616c6c6572206973206e6f7420746865206f776e6572600082015250565b6000614c026020836143a9565b9150614c0d82614bcc565b602082019050919050565b60006020820190508181036000830152614c3181614bf5565b9050919050565b7f4e487b7100000000000000000000000000000000000000000000000000000000600052602260045260246000fd5b60006002820490506001821680614c7f57607f821691505b602082108103614c9257614c91614c38565b5b50919050565b7f43616e6e6f74207175657279206e6f6e2d6578697374656e7420746f6b656e00600082015250565b6000614cce601f836143a9565b9150614cd982614c98565b602082019050919050565b60006020820190508181036000830152614cfd81614cc1565b9050919050565b7f4e487b7100000000000000000000000000000000000000000000000000000000600052601160045260246000fd5b6000614d3e82614459565b9150614d4983614459565b9250817fffffffffffffffffffffffffffffffffffffffffffffffffffffffffffffffff0483118215151615614d8257614d81614d04565b5b828202905092915050565b7f4e487b7100000000000000000000000000000000000000000000000000000000600052601260045260246000fd5b6000614dc782614459565b9150614dd283614459565b925082614de257614de1614d8d565b5b828204905092915050565b6000614df882614459565b9150614e0383614459565b925082821015614e1657614e15614d04565b5b828203905092915050565b7f4e487b7100000000000000000000000000000000000000000000000000000000600052603260045260246000fd5b6000614e5b82614459565b91507fffffffffffffffffffffffffffffffffffffffffffffffffffffffffffffffff8203614e8d57614e8c614d04565b5b600182019050919050565b600081905092915050565b50565b6000614eb3600083614e98565b9150614ebe82614ea3565b600082019050919050565b6000614ed482614ea6565b9150819050919050565b7f5452414e534645525f4641494c45440000000000000000000000000000000000600082015250565b6000614f14600f836143a9565b9150614f1f82614ede565b602082019050919050565b60006020820190508181036000830152614f4381614f07565b9050919050565b7f57484954454c4953545f454e4445440000000000000000000000000000000000600082015250565b6000614f80600f836143a9565b9150614f8b82614f4a565b602082019050919050565b60006020820190508181036000830152614faf81614f73565b9050919050565b7f57484954454c4953545f494e4143544956450000000000000000000000000000600082015250565b6000614fec6012836143a9565b9150614ff782614fb6565b602082019050919050565b6000602082019050818103600083015261501b81614fdf565b9050919050565b600061502d82614459565b915061503883614459565b9250827fffffffffffffffffffffffffffffffffffffffffffffffffffffffffffffffff0382111561506d5761506c614d04565b5b828201905092915050565b7f57484954454c4953545f4d415845440000000000000000000000000000000000600082015250565b60006150ae600f836143a9565b91506150b982615078565b602082019050919050565b600060208201905081810360008301526150dd816150a1565b9050919050565b7f554e415554484f52495a45440000000000000000000000000000000000000000600082015250565b600061511a600c836143a9565b9150615125826150e4565b602082019050919050565b600060208201905081810360008301526151498161510d565b9050919050565b7f494e434f52524543545f45544800000000000000000000000000000000000000600082015250565b6000615186600d836143a9565b915061519182615150565b602082019050919050565b600060208201905081810360008301526151b581615179565b9050919050565b7f494e56414c49445f5155414e5449545900000000000000000000000000000000600082015250565b60006151f26010836143a9565b91506151fd826151bc565b602082019050919050565b60006020820190508181036000830152615221816151e5565b9050919050565b7f524553455256455f4d4158454400000000000000000000000000000000000000600082015250565b600061525e600d836143a9565b915061526982615228565b602082019050919050565b6000602082019050818103600083015261528d81615251565b9050919050565b7f53414c455f5641524941424c45535f4e4f545f53455400000000000000000000600082015250565b60006152ca6016836143a9565b91506152d582615294565b602082019050919050565b600060208201905081810360008301526152f9816152bd565b9050919050565b600081905092915050565b60008190508160005260206000209050919050565b6000815461532d81614c67565b6153378186615300565b94506001821660008114615352576001811461536357615396565b60ff19831686528186019350615396565b61536c8561530b565b60005b8381101561538e5781548189015260018201915060208101905061536f565b838801955050505b50505092915050565b60006153aa8261439e565b6153b48185615300565b93506153c48185602086016143ba565b80840191505092915050565b60006153dc8285615320565b91506153e8828461539f565b91508190509392505050565b7f53414c455f494e41435449564500000000000000000000000000000000000000600082015250565b600061542a600d836143a9565b9150615435826153f4565b602082019050919050565b600060208201905081810360008301526154598161541d565b9050919050565b7f4e4f545f454f4100000000000000000000000000000000000000000000000000600082015250565b60006154966007836143a9565b91506154a182615460565b602082019050919050565b600060208201905081810360008301526154c581615489565b9050919050565b7f53414c455f4d4158454400000000000000000000000000000000000000000000600082015250565b6000615502600a836143a9565b915061550d826154cc565b602082019050919050565b60006020820190508181036000830152615531816154f5565b9050919050565b7f494e53554646494349454e545f45544800000000000000000000000000000000600082015250565b600061556e6010836143a9565b915061557982615538565b602082019050919050565b6000602082019050818103600083015261559d81615561565b9050919050565b7f4f776e61626c653a206e6577206f776e657220697320746865207a65726f206160008201527f6464726573730000000000000000000000000000000000000000000000000000602082015250565b60006156006026836143a9565b915061560b826155a4565b604082019050919050565b6000602082019050818103600083015261562f816155f3565b9050919050565b600081519050919050565b600082825260208201905092915050565b600061565d82615636565b6156678185615641565b93506156778185602086016143ba565b615680816143ed565b840191505092915050565b60006080820190506156a060008301876144bc565b6156ad60208301866144bc565b6156ba6040830185614526565b81810360608301526156cc8184615652565b905095945050505050565b6000815190506156e681614284565b92915050565b6000602082840312156157025761570161424e565b5b6000615710848285016156d7565b91505092915050565b600061572482614459565b915061572f83614459565b92508261573f5761573e614d8d565b5b82820690509291505056fea2646970667358221220cb8162595ae0ebacb964d643226e7c0a172690a6eefb6dfbec9e7cb72a58567c64736f6c634300080d0033",
  "linkReferences": {},
  "deployedLinkReferences": {}
}