{
  "_format": "hh-sol-artifact-1",
  "contractName": "MerkleProofWrapper",
  "sourceName": "contracts/MerkleProofWrapper.sol",
  "abi": [
    {
      "inputs": [
        {
          "internalType": "uint256[]",
          "name": "tokenIds",
          "type": "uint256[]"
        }
      ],
      "name": "getLeaves",
      "outputs": [
        {
          "internalType": "bytes32[]",
          "name": "leaves",
          "type": "bytes32[]"
        }
      ],
      "stateMutability": "pure",
      "type": "function"
    },
    {
      "inputs": [
        {
          "internalType": "uint256[]",
          "name": "tokenIds",
          "type": "uint256[]"
        },
        {
          "internalType": "bytes32[]",
          "name": "proofs",
          "type": "bytes32[]"
        },
        {
          "internalType": "bool[]",
          "name": "proofFlag",
          "type": "bool[]"
        },
        {
          "internalType": "bytes32",
          "name": "root",
          "type": "bytes32"
        }
      ],
      "name": "multiProofVerify",
      "outputs": [
        {
          "internalType": "bool",
          "name": "",
          "type": "bool"
        }
      ],
      "stateMutability": "pure",
      "type": "function"
    },
    {
      "inputs": [
        {
          "internalType": "bytes32[]",
          "name": "proofs",
          "type": "bytes32[]"
        },
        {
          "internalType": "bool[]",
          "name": "proofFlag",
          "type": "bool[]"
        },
        {
          "internalType": "bytes32",
          "name": "root",
          "type": "bytes32"
        },
        {
          "internalType": "bytes32[]",
          "name": "leaves",
          "type": "bytes32[]"
        }
      ],
      "name": "multiProofVerifyCalldata",
      "outputs": [
        {
          "internalType": "bool",
          "name": "",
          "type": "bool"
        }
      ],
      "stateMutability": "pure",
      "type": "function"
    },
    {
      "inputs": [
        {
          "internalType": "bytes32[]",
          "name": "proofs",
          "type": "bytes32[]"
        },
        {
          "internalType": "bool[]",
          "name": "proofFlag",
          "type": "bool[]"
        },
        {
          "internalType": "bytes32[]",
          "name": "leaves",
          "type": "bytes32[]"
        }
      ],
      "name": "processMultiProof",
      "outputs": [
        {
          "internalType": "bytes32",
          "name": "",
          "type": "bytes32"
        }
      ],
      "stateMutability": "pure",
      "type": "function"
    },
    {
      "inputs": [
        {
          "internalType": "bytes32[]",
          "name": "proofs",
          "type": "bytes32[]"
        },
        {
          "internalType": "bool[]",
          "name": "proofFlag",
          "type": "bool[]"
        },
        {
          "internalType": "bytes32[]",
          "name": "leaves",
          "type": "bytes32[]"
        }
      ],
      "name": "processMultiProofCalldata",
      "outputs": [
        {
          "internalType": "bytes32",
          "name": "",
          "type": "bytes32"
        }
      ],
      "stateMutability": "pure",
      "type": "function"
    },
    {
      "inputs": [
        {
          "internalType": "bytes32[]",
          "name": "proof",
          "type": "bytes32[]"
        },
        {
          "internalType": "bytes32",
          "name": "leaf",
          "type": "bytes32"
        }
      ],
      "name": "processProof",
      "outputs": [
        {
          "internalType": "bytes32",
          "name": "",
          "type": "bytes32"
        }
      ],
      "stateMutability": "pure",
      "type": "function"
    },
    {
      "inputs": [
        {
          "internalType": "bytes32[]",
          "name": "proof",
          "type": "bytes32[]"
        },
        {
          "internalType": "bytes32",
          "name": "leaf",
          "type": "bytes32"
        }
      ],
      "name": "processProofCalldata",
      "outputs": [
        {
          "internalType": "bytes32",
          "name": "",
          "type": "bytes32"
        }
      ],
      "stateMutability": "pure",
      "type": "function"
    },
    {
      "inputs": [
        {
          "internalType": "bytes32[]",
          "name": "proof",
          "type": "bytes32[]"
        },
        {
          "internalType": "bytes32",
          "name": "root",
          "type": "bytes32"
        },
        {
          "internalType": "bytes32",
          "name": "leaf",
          "type": "bytes32"
        }
      ],
      "name": "verify",
      "outputs": [
        {
          "internalType": "bool",
          "name": "",
          "type": "bool"
        }
      ],
      "stateMutability": "pure",
      "type": "function"
    },
    {
      "inputs": [
        {
          "internalType": "bytes32[]",
          "name": "proof",
          "type": "bytes32[]"
        },
        {
          "internalType": "bytes32",
          "name": "root",
          "type": "bytes32"
        },
        {
          "internalType": "bytes32",
          "name": "leaf",
          "type": "bytes32"
        }
      ],
      "name": "verifyCalldata",
      "outputs": [
        {
          "internalType": "bool",
          "name": "",
          "type": "bool"
        }
      ],
      "stateMutability": "pure",
      "type": "function"
    }
  ],
  "bytecode": "0x608060405234801561001057600080fd5b50611872806100206000396000f3fe608060405234801561001057600080fd5b50600436106100935760003560e01c80637ffe9d8c116100665780637ffe9d8c14610158578063862aac9614610188578063e05cc48a146101b8578063ea5d3eb6146101e8578063f514972c1461021857610093565b806332712d221461009857806353b0f85f146100c85780635a9a49c7146100f857806362702a6b14610128575b600080fd5b6100b260048036038101906100ad9190610dbb565b610248565b6040516100bf9190610e7b565b60405180910390f35b6100e260048036038101906100dd9190610e96565b610262565b6040516100ef9190610e7b565b60405180910390f35b610112600480360381019061010d9190610ef6565b610278565b60405161011f9190610f80565b60405180910390f35b610142600480360381019061013d9190610f9b565b61028e565b60405161014f9190610e7b565b60405180910390f35b610172600480360381019061016d9190610ff7565b6102a2565b60405161017f9190610f80565b60405180910390f35b6101a2600480360381019061019d919061106b565b6102ba565b6040516101af9190610f80565b60405180910390f35b6101d260048036038101906101cd9190611227565b6102d6565b6040516101df919061132e565b60405180910390f35b61020260048036038101906101fd919061143f565b6103af565b60405161020f9190610e7b565b60405180910390f35b610232600480360381019061022d919061153c565b6103c5565b60405161023f9190610f80565b60405180910390f35b600061025786868686866104b2565b905095945050505050565b600061026f84848461076a565b90509392505050565b60006102858484846107c2565b90509392505050565b600061029a83836107d9565b905092915050565b60006102b08585858561082f565b9050949350505050565b60006102ca878787878787610848565b90509695505050505050565b6060815167ffffffffffffffff8111156102f3576102f2610c47565b5b6040519080825280602002602001820160405280156103215781602001602082028036833780820191505090505b50905060005b82518110156103a9576000838281518110610345576103446115fc565b5b6020026020010151905080604051602001610360919061163a565b60405160208183030381529060405280519060200120838381518110610389576103886115fc565b5b6020026020010181815250505080806103a190611684565b915050610327565b50919050565b60006103bc848484610865565b90509392505050565b60008086869050905060008167ffffffffffffffff8111156103ea576103e9610c47565b5b6040519080825280602002602001820160405280156104185781602001602082028036833780820191505090505b50905060005b8281101561049857888882818110610439576104386115fc565b5b9050602002013560405160200161045091906116ed565b60405160208183030381529060405280519060200120828281518110610479576104786115fc565b5b602002602001018181525050808061049090611684565b91505061041e565b506104a586868684610b0c565b9250505095945050505050565b60008082519050600085859050905080600189899050846104d39190611708565b6104dd919061175e565b1461051d576040517f08c379a0000000000000000000000000000000000000000000000000000000008152600401610514906117ef565b60405180910390fd5b60008167ffffffffffffffff81111561053957610538610c47565b5b6040519080825280602002602001820160405280156105675781602001602082028036833780820191505090505b5090506000806000805b858110156106cd5760008785106105ae5785848061058e90611684565b9550815181106105a1576105a06115fc565b5b60200260200101516105d6565b8985806105ba90611684565b9650815181106105cd576105cc6115fc565b5b60200260200101515b905060008c8c848181106105ed576105ec6115fc565b5b9050602002016020810190610602919061180f565b610631578e8e858061061390611684565b9650818110610625576106246115fc565b5b9050602002013561068d565b8886106106645786858061064490611684565b965081518110610657576106566115fc565b5b602002602001015161068c565b8a868061067090611684565b975081518110610683576106826115fc565b5b60200260200101515b5b90506106998282610b25565b8784815181106106ac576106ab6115fc565b5b602002602001018181525050505080806106c590611684565b915050610571565b50600085111561070b57836001866106e5919061175e565b815181106106f6576106f56115fc565b5b60200260200101519650505050505050610761565b600086111561073d5787600081518110610728576107276115fc565b5b60200260200101519650505050505050610761565b8b8b6000818110610751576107506115fc565b5b9050602002013596505050505050505b95945050505050565b60008082905060005b858590508110156107b6576107a182878784818110610795576107946115fc565b5b90506020020135610b25565b915080806107ae90611684565b915050610773565b50809150509392505050565b6000826107cf85846107d9565b1490509392505050565b60008082905060005b84518110156108245761080f82868381518110610802576108016115fc565b5b6020026020010151610b25565b9150808061081c90611684565b9150506107e2565b508091505092915050565b60008261083d86868561076a565b149050949350505050565b60008261085888888888876104b2565b1490509695505050505050565b600080825190506000845190508060018751846108829190611708565b61088c919061175e565b146108cc576040517f08c379a00000000000000000000000000000000000000000000000000000000081526004016108c3906117ef565b60405180910390fd5b60008167ffffffffffffffff8111156108e8576108e7610c47565b5b6040519080825280602002602001820160405280156109165781602001602082028036833780820191505090505b5090506000806000805b85811015610a7057600087851061095d5785848061093d90611684565b9550815181106109505761094f6115fc565b5b6020026020010151610985565b89858061096990611684565b96508151811061097c5761097b6115fc565b5b60200260200101515b905060008b838151811061099c5761099b6115fc565b5b60200260200101516109d4578c84806109b490611684565b9550815181106109c7576109c66115fc565b5b6020026020010151610a30565b888610610a07578685806109e790611684565b9650815181106109fa576109f96115fc565b5b6020026020010151610a2f565b8a8680610a1390611684565b975081518110610a2657610a256115fc565b5b60200260200101515b5b9050610a3c8282610b25565b878481518110610a4f57610a4e6115fc565b5b60200260200101818152505050508080610a6890611684565b915050610920565b506000851115610aae5783600186610a88919061175e565b81518110610a9957610a986115fc565b5b60200260200101519650505050505050610b05565b6000861115610ae05787600081518110610acb57610aca6115fc565b5b60200260200101519650505050505050610b05565b89600081518110610af457610af36115fc565b5b602002602001015196505050505050505b9392505050565b600082610b1a868685610865565b149050949350505050565b6000818310610b3d57610b388284610b50565b610b48565b610b478383610b50565b5b905092915050565b600082600052816020526040600020905092915050565b6000604051905090565b600080fd5b600080fd5b600080fd5b600080fd5b600080fd5b60008083601f840112610ba057610b9f610b7b565b5b8235905067ffffffffffffffff811115610bbd57610bbc610b80565b5b602083019150836020820283011115610bd957610bd8610b85565b5b9250929050565b60008083601f840112610bf657610bf5610b7b565b5b8235905067ffffffffffffffff811115610c1357610c12610b80565b5b602083019150836020820283011115610c2f57610c2e610b85565b5b9250929050565b6000601f19601f8301169050919050565b7f4e487b7100000000000000000000000000000000000000000000000000000000600052604160045260246000fd5b610c7f82610c36565b810181811067ffffffffffffffff82111715610c9e57610c9d610c47565b5b80604052505050565b6000610cb1610b67565b9050610cbd8282610c76565b919050565b600067ffffffffffffffff821115610cdd57610cdc610c47565b5b602082029050602081019050919050565b6000819050919050565b610d0181610cee565b8114610d0c57600080fd5b50565b600081359050610d1e81610cf8565b92915050565b6000610d37610d3284610cc2565b610ca7565b90508083825260208201905060208402830185811115610d5a57610d59610b85565b5b835b81811015610d835780610d6f8882610d0f565b845260208401935050602081019050610d5c565b5050509392505050565b600082601f830112610da257610da1610b7b565b5b8135610db2848260208601610d24565b91505092915050565b600080600080600060608688031215610dd757610dd6610b71565b5b600086013567ffffffffffffffff811115610df557610df4610b76565b5b610e0188828901610b8a565b9550955050602086013567ffffffffffffffff811115610e2457610e23610b76565b5b610e3088828901610be0565b9350935050604086013567ffffffffffffffff811115610e5357610e52610b76565b5b610e5f88828901610d8d565b9150509295509295909350565b610e7581610cee565b82525050565b6000602082019050610e906000830184610e6c565b92915050565b600080600060408486031215610eaf57610eae610b71565b5b600084013567ffffffffffffffff811115610ecd57610ecc610b76565b5b610ed986828701610b8a565b93509350506020610eec86828701610d0f565b9150509250925092565b600080600060608486031215610f0f57610f0e610b71565b5b600084013567ffffffffffffffff811115610f2d57610f2c610b76565b5b610f3986828701610d8d565b9350506020610f4a86828701610d0f565b9250506040610f5b86828701610d0f565b9150509250925092565b60008115159050919050565b610f7a81610f65565b82525050565b6000602082019050610f956000830184610f71565b92915050565b60008060408385031215610fb257610fb1610b71565b5b600083013567ffffffffffffffff811115610fd057610fcf610b76565b5b610fdc85828601610d8d565b9250506020610fed85828601610d0f565b9150509250929050565b6000806000806060858703121561101157611010610b71565b5b600085013567ffffffffffffffff81111561102f5761102e610b76565b5b61103b87828801610b8a565b9450945050602061104e87828801610d0f565b925050604061105f87828801610d0f565b91505092959194509250565b6000806000806000806080878903121561108857611087610b71565b5b600087013567ffffffffffffffff8111156110a6576110a5610b76565b5b6110b289828a01610b8a565b9650965050602087013567ffffffffffffffff8111156110d5576110d4610b76565b5b6110e189828a01610be0565b945094505060406110f489828a01610d0f565b925050606087013567ffffffffffffffff81111561111557611114610b76565b5b61112189828a01610d8d565b9150509295509295509295565b600067ffffffffffffffff82111561114957611148610c47565b5b602082029050602081019050919050565b6000819050919050565b61116d8161115a565b811461117857600080fd5b50565b60008135905061118a81611164565b92915050565b60006111a361119e8461112e565b610ca7565b905080838252602082019050602084028301858111156111c6576111c5610b85565b5b835b818110156111ef57806111db888261117b565b8452602084019350506020810190506111c8565b5050509392505050565b600082601f83011261120e5761120d610b7b565b5b813561121e848260208601611190565b91505092915050565b60006020828403121561123d5761123c610b71565b5b600082013567ffffffffffffffff81111561125b5761125a610b76565b5b611267848285016111f9565b91505092915050565b600081519050919050565b600082825260208201905092915050565b6000819050602082019050919050565b6112a581610cee565b82525050565b60006112b7838361129c565b60208301905092915050565b6000602082019050919050565b60006112db82611270565b6112e5818561127b565b93506112f08361128c565b8060005b8381101561132157815161130888826112ab565b9750611313836112c3565b9250506001810190506112f4565b5085935050505092915050565b6000602082019050818103600083015261134881846112d0565b905092915050565b600067ffffffffffffffff82111561136b5761136a610c47565b5b602082029050602081019050919050565b61138581610f65565b811461139057600080fd5b50565b6000813590506113a28161137c565b92915050565b60006113bb6113b684611350565b610ca7565b905080838252602082019050602084028301858111156113de576113dd610b85565b5b835b8181101561140757806113f38882611393565b8452602084019350506020810190506113e0565b5050509392505050565b600082601f83011261142657611425610b7b565b5b81356114368482602086016113a8565b91505092915050565b60008060006060848603121561145857611457610b71565b5b600084013567ffffffffffffffff81111561147657611475610b76565b5b61148286828701610d8d565b935050602084013567ffffffffffffffff8111156114a3576114a2610b76565b5b6114af86828701611411565b925050604084013567ffffffffffffffff8111156114d0576114cf610b76565b5b6114dc86828701610d8d565b9150509250925092565b60008083601f8401126114fc576114fb610b7b565b5b8235905067ffffffffffffffff81111561151957611518610b80565b5b60208301915083602082028301111561153557611534610b85565b5b9250929050565b60008060008060006080868803121561155857611557610b71565b5b600086013567ffffffffffffffff81111561157657611575610b76565b5b611582888289016114e6565b9550955050602086013567ffffffffffffffff8111156115a5576115a4610b76565b5b6115b188828901610d8d565b935050604086013567ffffffffffffffff8111156115d2576115d1610b76565b5b6115de88828901611411565b92505060606115ef88828901610d0f565b9150509295509295909350565b7f4e487b7100000000000000000000000000000000000000000000000000000000600052603260045260246000fd5b6116348161115a565b82525050565b600060208201905061164f600083018461162b565b92915050565b7f4e487b7100000000000000000000000000000000000000000000000000000000600052601160045260246000fd5b600061168f8261115a565b91507fffffffffffffffffffffffffffffffffffffffffffffffffffffffffffffffff82036116c1576116c0611655565b5b600182019050919050565b6000819050919050565b6116e76116e28261115a565b6116cc565b82525050565b60006116f982846116d6565b60208201915081905092915050565b60006117138261115a565b915061171e8361115a565b9250827fffffffffffffffffffffffffffffffffffffffffffffffffffffffffffffffff0382111561175357611752611655565b5b828201905092915050565b60006117698261115a565b91506117748361115a565b92508282101561178757611786611655565b5b828203905092915050565b600082825260208201905092915050565b7f4d65726b6c6550726f6f663a20696e76616c6964206d756c746970726f6f6600600082015250565b60006117d9601f83611792565b91506117e4826117a3565b602082019050919050565b60006020820190508181036000830152611808816117cc565b9050919050565b60006020828403121561182557611824610b71565b5b600061183384828501611393565b9150509291505056fea264697066735822122019e18100b8c692e6e4628025a6da7e8eef0d30249bafc8176cb4100f1f43dd0764736f6c634300080d0033",
  "linkReferences": {},
  "deployedLinkReferences": {}
}