{
  "_format": "hh-sol-artifact-1",
  "contractName": "ERC1155Tradable",
  "sourceName": "contracts/erc1155/ERC1155Tradable.sol",
  "abi": [
    {
      "inputs": [
        {
          "internalType": "string",
          "name": "_name",
          "type": "string"
        },
        {
          "internalType": "string",
          "name": "_symbol",
          "type": "string"
        },
        {
          "internalType": "string",
          "name": "_metadataURI",
          "type": "string"
        }
      ],
      "stateMutability": "nonpayable",
      "type": "constructor"
    },
    {
      "anonymous": false,
      "inputs": [
        {
          "indexed": true,
          "internalType": "address",
          "name": "_owner",
          "type": "address"
        },
        {
          "indexed": true,
          "internalType": "address",
          "name": "_operator",
          "type": "address"
        },
        {
          "indexed": false,
          "internalType": "bool",
          "name": "_approved",
          "type": "bool"
        }
      ],
      "name": "ApprovalForAll",
      "type": "event"
    },
    {
      "anonymous": false,
      "inputs": [
        {
          "indexed": true,
          "internalType": "address",
          "name": "previousOwner",
          "type": "address"
        },
        {
          "indexed": true,
          "internalType": "address",
          "name": "newOwner",
          "type": "address"
        }
      ],
      "name": "OwnershipTransferred",
      "type": "event"
    },
    {
      "anonymous": false,
      "inputs": [
        {
          "indexed": true,
          "internalType": "address",
          "name": "_operator",
          "type": "address"
        },
        {
          "indexed": true,
          "internalType": "address",
          "name": "_from",
          "type": "address"
        },
        {
          "indexed": true,
          "internalType": "address",
          "name": "_to",
          "type": "address"
        },
        {
          "indexed": false,
          "internalType": "uint256[]",
          "name": "_ids",
          "type": "uint256[]"
        },
        {
          "indexed": false,
          "internalType": "uint256[]",
          "name": "_amounts",
          "type": "uint256[]"
        }
      ],
      "name": "TransferBatch",
      "type": "event"
    },
    {
      "anonymous": false,
      "inputs": [
        {
          "indexed": true,
          "internalType": "address",
          "name": "_operator",
          "type": "address"
        },
        {
          "indexed": true,
          "internalType": "address",
          "name": "_from",
          "type": "address"
        },
        {
          "indexed": true,
          "internalType": "address",
          "name": "_to",
          "type": "address"
        },
        {
          "indexed": false,
          "internalType": "uint256",
          "name": "_id",
          "type": "uint256"
        },
        {
          "indexed": false,
          "internalType": "uint256",
          "name": "_amount",
          "type": "uint256"
        }
      ],
      "name": "TransferSingle",
      "type": "event"
    },
    {
      "anonymous": false,
      "inputs": [
        {
          "indexed": false,
          "internalType": "string",
          "name": "_uri",
          "type": "string"
        },
        {
          "indexed": true,
          "internalType": "uint256",
          "name": "_id",
          "type": "uint256"
        }
      ],
      "name": "URI",
      "type": "event"
    },
    {
      "inputs": [
        {
          "internalType": "address",
          "name": "_owner",
          "type": "address"
        },
        {
          "internalType": "uint256",
          "name": "_id",
          "type": "uint256"
        }
      ],
      "name": "balanceOf",
      "outputs": [
        {
          "internalType": "uint256",
          "name": "",
          "type": "uint256"
        }
      ],
      "stateMutability": "view",
      "type": "function"
    },
    {
      "inputs": [
        {
          "internalType": "address[]",
          "name": "_owners",
          "type": "address[]"
        },
        {
          "internalType": "uint256[]",
          "name": "_ids",
          "type": "uint256[]"
        }
      ],
      "name": "balanceOfBatch",
      "outputs": [
        {
          "internalType": "uint256[]",
          "name": "",
          "type": "uint256[]"
        }
      ],
      "stateMutability": "view",
      "type": "function"
    },
    {
      "inputs": [],
      "name": "getNextTokenID",
      "outputs": [
        {
          "internalType": "uint8",
          "name": "",
          "type": "uint8"
        }
      ],
      "stateMutability": "view",
      "type": "function"
    },
    {
      "inputs": [
        {
          "internalType": "address",
          "name": "_owner",
          "type": "address"
        },
        {
          "internalType": "address",
          "name": "_operator",
          "type": "address"
        }
      ],
      "name": "isApprovedForAll",
      "outputs": [
        {
          "internalType": "bool",
          "name": "isOperator",
          "type": "bool"
        }
      ],
      "stateMutability": "view",
      "type": "function"
    },
    {
      "inputs": [],
      "name": "name",
      "outputs": [
        {
          "internalType": "string",
          "name": "",
          "type": "string"
        }
      ],
      "stateMutability": "view",
      "type": "function"
    },
    {
      "inputs": [],
      "name": "owner",
      "outputs": [
        {
          "internalType": "address",
          "name": "",
          "type": "address"
        }
      ],
      "stateMutability": "view",
      "type": "function"
    },
    {
      "inputs": [],
      "name": "renounceOwnership",
      "outputs": [],
      "stateMutability": "nonpayable",
      "type": "function"
    },
    {
      "inputs": [
        {
          "internalType": "address",
          "name": "_from",
          "type": "address"
        },
        {
          "internalType": "address",
          "name": "_to",
          "type": "address"
        },
        {
          "internalType": "uint256[]",
          "name": "_ids",
          "type": "uint256[]"
        },
        {
          "internalType": "uint256[]",
          "name": "_amounts",
          "type": "uint256[]"
        },
        {
          "internalType": "bytes",
          "name": "_data",
          "type": "bytes"
        }
      ],
      "name": "safeBatchTransferFrom",
      "outputs": [],
      "stateMutability": "nonpayable",
      "type": "function"
    },
    {
      "inputs": [
        {
          "internalType": "address",
          "name": "_from",
          "type": "address"
        },
        {
          "internalType": "address",
          "name": "_to",
          "type": "address"
        },
        {
          "internalType": "uint256",
          "name": "_id",
          "type": "uint256"
        },
        {
          "internalType": "uint256",
          "name": "_amount",
          "type": "uint256"
        },
        {
          "internalType": "bytes",
          "name": "_data",
          "type": "bytes"
        }
      ],
      "name": "safeTransferFrom",
      "outputs": [],
      "stateMutability": "nonpayable",
      "type": "function"
    },
    {
      "inputs": [
        {
          "internalType": "address",
          "name": "_operator",
          "type": "address"
        },
        {
          "internalType": "bool",
          "name": "_approved",
          "type": "bool"
        }
      ],
      "name": "setApprovalForAll",
      "outputs": [],
      "stateMutability": "nonpayable",
      "type": "function"
    },
    {
      "inputs": [
        {
          "internalType": "string",
          "name": "_newBaseMetadataURI",
          "type": "string"
        }
      ],
      "name": "setBaseMetadataURI",
      "outputs": [],
      "stateMutability": "nonpayable",
      "type": "function"
    },
    {
      "inputs": [
        {
          "internalType": "bytes4",
          "name": "_interfaceID",
          "type": "bytes4"
        }
      ],
      "name": "supportsInterface",
      "outputs": [
        {
          "internalType": "bool",
          "name": "",
          "type": "bool"
        }
      ],
      "stateMutability": "view",
      "type": "function"
    },
    {
      "inputs": [],
      "name": "symbol",
      "outputs": [
        {
          "internalType": "string",
          "name": "",
          "type": "string"
        }
      ],
      "stateMutability": "view",
      "type": "function"
    },
    {
      "inputs": [
        {
          "internalType": "uint8",
          "name": "",
          "type": "uint8"
        }
      ],
      "name": "tokenSupply",
      "outputs": [
        {
          "internalType": "uint16",
          "name": "",
          "type": "uint16"
        }
      ],
      "stateMutability": "view",
      "type": "function"
    },
    {
      "inputs": [
        {
          "internalType": "uint8",
          "name": "_id",
          "type": "uint8"
        }
      ],
      "name": "totalSupply",
      "outputs": [
        {
          "internalType": "uint16",
          "name": "",
          "type": "uint16"
        }
      ],
      "stateMutability": "view",
      "type": "function"
    },
    {
      "inputs": [
        {
          "internalType": "address",
          "name": "newOwner",
          "type": "address"
        }
      ],
      "name": "transferOwnership",
      "outputs": [],
      "stateMutability": "nonpayable",
      "type": "function"
    },
    {
      "inputs": [
        {
          "internalType": "uint256",
          "name": "_id",
          "type": "uint256"
        }
      ],
      "name": "uri",
      "outputs": [
        {
          "internalType": "string",
          "name": "",
          "type": "string"
        }
      ],
      "stateMutability": "view",
      "type": "function"
    },
    {
      "inputs": [
        {
          "internalType": "uint8",
          "name": "_id",
          "type": "uint8"
        }
      ],
      "name": "uri",
      "outputs": [
        {
          "internalType": "string",
          "name": "",
          "type": "string"
        }
      ],
      "stateMutability": "view",
      "type": "function"
    }
  ],
  "bytecode": "0x60806040523480156200001157600080fd5b50604051620038e5380380620038e58339818101604052810190620000379190620003da565b620000576200004b620000a360201b60201c565b620000ab60201b60201c565b82600590805190602001906200006f9291906200018d565b508160069080519060200190620000889291906200018d565b506200009a816200017160201b60201c565b505050620004f7565b600033905090565b6000600360009054906101000a900473ffffffffffffffffffffffffffffffffffffffff16905081600360006101000a81548173ffffffffffffffffffffffffffffffffffffffff021916908373ffffffffffffffffffffffffffffffffffffffff1602179055508173ffffffffffffffffffffffffffffffffffffffff168173ffffffffffffffffffffffffffffffffffffffff167f8be0079c531659141344cd1fd0a4f28419497f9722a3daafe3b4186f6b6457e060405160405180910390a35050565b8060029080519060200190620001899291906200018d565b5050565b8280546200019b90620004c2565b90600052602060002090601f016020900481019282620001bf57600085556200020b565b82601f10620001da57805160ff19168380011785556200020b565b828001600101855582156200020b579182015b828111156200020a578251825591602001919060010190620001ed565b5b5090506200021a91906200021e565b5090565b5b80821115620002395760008160009055506001016200021f565b5090565b6000604051905090565b600080fd5b600080fd5b600080fd5b600080fd5b6000601f19601f8301169050919050565b7f4e487b7100000000000000000000000000000000000000000000000000000000600052604160045260246000fd5b620002a6826200025b565b810181811067ffffffffffffffff82111715620002c857620002c76200026c565b5b80604052505050565b6000620002dd6200023d565b9050620002eb82826200029b565b919050565b600067ffffffffffffffff8211156200030e576200030d6200026c565b5b62000319826200025b565b9050602081019050919050565b60005b838110156200034657808201518184015260208101905062000329565b8381111562000356576000848401525b50505050565b6000620003736200036d84620002f0565b620002d1565b90508281526020810184848401111562000392576200039162000256565b5b6200039f84828562000326565b509392505050565b600082601f830112620003bf57620003be62000251565b5b8151620003d18482602086016200035c565b91505092915050565b600080600060608486031215620003f657620003f562000247565b5b600084015167ffffffffffffffff8111156200041757620004166200024c565b5b6200042586828701620003a7565b935050602084015167ffffffffffffffff8111156200044957620004486200024c565b5b6200045786828701620003a7565b925050604084015167ffffffffffffffff8111156200047b576200047a6200024c565b5b6200048986828701620003a7565b9150509250925092565b7f4e487b7100000000000000000000000000000000000000000000000000000000600052602260045260246000fd5b60006002820490506001821680620004db57607f821691505b602082108103620004f157620004f062000493565b5b50919050565b6133de80620005076000396000f3fe608060405234801561001057600080fd5b50600436106101155760003560e01c80637e518ec8116100a2578063e11208d611610071578063e11208d6146102e0578063e985e9c514610310578063f242432a14610340578063f2fde38b1461035c578063f7ade4911461037857610115565b80637e518ec81461026c5780638da5cb5b1461028857806395d89b41146102a6578063a22cb465146102c457610115565b80632eb2c2d6116100e95780632eb2c2d6146101c8578063496d9f44146101e45780634a198119146102145780634e1273f414610232578063715018a61461026257610115565b8062fdd58e1461011a57806301ffc9a71461014a57806306fdde031461017a5780630e89341c14610198575b600080fd5b610134600480360381019061012f9190611ce0565b6103a8565b6040516101419190611d2f565b60405180910390f35b610164600480360381019061015f9190611da2565b610402565b6040516101719190611dea565b60405180910390f35b610182610483565b60405161018f9190611e9e565b60405180910390f35b6101b260048036038101906101ad9190611ec0565b610511565b6040516101bf9190611e9e565b60405180910390f35b6101e260048036038101906101dd91906120ea565b610545565b005b6101fe60048036038101906101f991906121f2565b610654565b60405161020b919061223c565b60405180910390f35b61021c610685565b6040516102299190612266565b60405180910390f35b61024c60048036038101906102479190612344565b6106a8565b604051610259919061247a565b60405180910390f35b61026a610809565b005b6102866004803603810190610281919061253d565b61081d565b005b610290610831565b60405161029d9190612595565b60405180910390f35b6102ae61085b565b6040516102bb9190611e9e565b60405180910390f35b6102de60048036038101906102d991906125dc565b6108e9565b005b6102fa60048036038101906102f591906121f2565b6109e6565b6040516103079190611e9e565b60405180910390f35b61032a6004803603810190610325919061261c565b610a91565b6040516103379190611dea565b60405180910390f35b61035a6004803603810190610355919061265c565b610b25565b005b610376600480360381019061037191906126f3565b610c34565b005b610392600480360381019061038d91906121f2565b610cb7565b60405161039f919061223c565b60405180910390f35b60008060008473ffffffffffffffffffffffffffffffffffffffff1673ffffffffffffffffffffffffffffffffffffffff168152602001908152602001600020600083815260200190815260200160002054905092915050565b60007fd9b67a26000000000000000000000000000000000000000000000000000000007bffffffffffffffffffffffffffffffffffffffffffffffffffffffff1916827bffffffffffffffffffffffffffffffffffffffffffffffffffffffff191603610472576001905061047e565b61047b82610cd8565b90505b919050565b600580546104909061274f565b80601f01602080910402602001604051908101604052809291908181526020018280546104bc9061274f565b80156105095780601f106104de57610100808354040283529160200191610509565b820191906000526020600020905b8154815290600101906020018083116104ec57829003601f168201915b505050505081565b6060600261051e83610d59565b60405160200161052f92919061289c565b6040516020818303038152906040529050919050565b8473ffffffffffffffffffffffffffffffffffffffff163373ffffffffffffffffffffffffffffffffffffffff16148061058557506105848533610a91565b5b6105c4576040517f08c379a00000000000000000000000000000000000000000000000000000000081526004016105bb9061293d565b60405180910390fd5b600073ffffffffffffffffffffffffffffffffffffffff168473ffffffffffffffffffffffffffffffffffffffff1603610633576040517f08c379a000000000000000000000000000000000000000000000000000000000815260040161062a906129cf565b60405180910390fd5b61063f85858585610ece565b61064d858585855a866111c2565b5050505050565b6000600460008360ff1660ff16815260200190815260200160002060009054906101000a900461ffff169050919050565b60006001600360149054906101000a900460ff166106a39190612a1e565b905090565b606081518351146106ee576040517f08c379a00000000000000000000000000000000000000000000000000000000081526004016106e590612ac7565b60405180910390fd5b6000835167ffffffffffffffff81111561070b5761070a611ef2565b5b6040519080825280602002602001820160405280156107395781602001602082028036833780820191505090505b50905060005b84518110156107fe5760008086838151811061075e5761075d612ae7565b5b602002602001015173ffffffffffffffffffffffffffffffffffffffff1673ffffffffffffffffffffffffffffffffffffffff16815260200190815260200160002060008583815181106107b5576107b4612ae7565b5b60200260200101518152602001908152602001600020548282815181106107df576107de612ae7565b5b60200260200101818152505080806107f690612b16565b91505061073f565b508091505092915050565b610811611399565b61081b6000611417565b565b610825611399565b61082e816114dd565b50565b6000600360009054906101000a900473ffffffffffffffffffffffffffffffffffffffff16905090565b600680546108689061274f565b80601f01602080910402602001604051908101604052809291908181526020018280546108949061274f565b80156108e15780601f106108b6576101008083540402835291602001916108e1565b820191906000526020600020905b8154815290600101906020018083116108c457829003601f168201915b505050505081565b80600160003373ffffffffffffffffffffffffffffffffffffffff1673ffffffffffffffffffffffffffffffffffffffff16815260200190815260200160002060008473ffffffffffffffffffffffffffffffffffffffff1673ffffffffffffffffffffffffffffffffffffffff16815260200190815260200160002060006101000a81548160ff0219169083151502179055508173ffffffffffffffffffffffffffffffffffffffff163373ffffffffffffffffffffffffffffffffffffffff167f17307eab39ab6107e8899845ad3d59bd9653f200f220920489ca2b5937696c31836040516109da9190611dea565b60405180910390a35050565b60606109f1826114f7565b610a30576040517f08c379a0000000000000000000000000000000000000000000000000000000008152600401610a2790612bd0565b60405180910390fd5b600060028054610a3f9061274f565b905011610a5b5760405180602001604052806000815250610a8a565b6002610a698360ff1661152e565b604051602001610a7a929190612bf0565b6040516020818303038152906040525b9050919050565b6000600160008473ffffffffffffffffffffffffffffffffffffffff1673ffffffffffffffffffffffffffffffffffffffff16815260200190815260200160002060008373ffffffffffffffffffffffffffffffffffffffff1673ffffffffffffffffffffffffffffffffffffffff16815260200190815260200160002060009054906101000a900460ff16905092915050565b8473ffffffffffffffffffffffffffffffffffffffff163373ffffffffffffffffffffffffffffffffffffffff161480610b655750610b648533610a91565b5b610ba4576040517f08c379a0000000000000000000000000000000000000000000000000000000008152600401610b9b90612c86565b60405180910390fd5b600073ffffffffffffffffffffffffffffffffffffffff168473ffffffffffffffffffffffffffffffffffffffff1603610c13576040517f08c379a0000000000000000000000000000000000000000000000000000000008152600401610c0a90612d18565b60405180910390fd5b610c1f8585858561168e565b610c2d858585855a8661187c565b5050505050565b610c3c611399565b600073ffffffffffffffffffffffffffffffffffffffff168173ffffffffffffffffffffffffffffffffffffffff1603610cab576040517f08c379a0000000000000000000000000000000000000000000000000000000008152600401610ca290612daa565b60405180910390fd5b610cb481611417565b50565b60046020528060005260406000206000915054906101000a900461ffff1681565b60007f0e89341c000000000000000000000000000000000000000000000000000000007bffffffffffffffffffffffffffffffffffffffffffffffffffffffff1916827bffffffffffffffffffffffffffffffffffffffffffffffffffffffff191603610d485760019050610d54565b610d5182611a53565b90505b919050565b606060008203610da0576040518060400160405280600181526020017f30000000000000000000000000000000000000000000000000000000000000008152509050610ec9565b6000829050600083905060005b60008314610dd7578080610dc090612b16565b915050600a83610dd09190612df9565b9250610dad565b60008167ffffffffffffffff811115610df357610df2611ef2565b5b6040519080825280601f01601f191660200182016040528015610e255781602001600182028036833780820191505090505b5090506000600183610e379190612e2a565b90505b60008414610ec057600a84610e4f9190612e5e565b6030610e5b9190612e8f565b60f81b828280610e6a90612ee5565b935081518110610e7d57610e7c612ae7565b5b60200101907effffffffffffffffffffffffffffffffffffffffffffffffffffffffffffff1916908160001a905350600a84610eb99190612df9565b9350610e3a565b81955050505050505b919050565b8051825114610f12576040517f08c379a0000000000000000000000000000000000000000000000000000000008152600401610f0990612f80565b60405180910390fd5b60008251905060005b8181101561113c57610fb9838281518110610f3957610f38612ae7565b5b60200260200101516000808973ffffffffffffffffffffffffffffffffffffffff1673ffffffffffffffffffffffffffffffffffffffff1681526020019081526020016000206000878581518110610f9457610f93612ae7565b5b6020026020010151815260200190815260200160002054611ad490919063ffffffff16565b6000808873ffffffffffffffffffffffffffffffffffffffff1673ffffffffffffffffffffffffffffffffffffffff168152602001908152602001600020600086848151811061100c5761100b612ae7565b5b60200260200101518152602001908152602001600020819055506110bc83828151811061103c5761103b612ae7565b5b60200260200101516000808873ffffffffffffffffffffffffffffffffffffffff1673ffffffffffffffffffffffffffffffffffffffff168152602001908152602001600020600087858151811061109757611096612ae7565b5b6020026020010151815260200190815260200160002054611aea90919063ffffffff16565b6000808773ffffffffffffffffffffffffffffffffffffffff1673ffffffffffffffffffffffffffffffffffffffff168152602001908152602001600020600086848151811061110f5761110e612ae7565b5b6020026020010151815260200190815260200160002081905550808061113490612b16565b915050610f1b565b508373ffffffffffffffffffffffffffffffffffffffff168573ffffffffffffffffffffffffffffffffffffffff163373ffffffffffffffffffffffffffffffffffffffff167f4a39dc06d4c0dbc64b70af90fd698a233a518aa5d07e595d983b8c0526c8f7fb86866040516111b3929190612fa0565b60405180910390a45050505050565b6111e18573ffffffffffffffffffffffffffffffffffffffff16611b00565b15611391578473ffffffffffffffffffffffffffffffffffffffff1663bc197c8133888787866040518663ffffffff1660e01b815260040161122795949392919061302c565b6020604051808303816000875af192505050801561126357506040513d601f19601f8201168201806040525081019061126091906130a9565b60015b6113085761126f6130e3565b806308c379a0036112cb5750611283613105565b8061128e57506112cd565b806040517f08c379a00000000000000000000000000000000000000000000000000000000081526004016112c29190611e9e565b60405180910390fd5b505b6040517f08c379a00000000000000000000000000000000000000000000000000000000081526004016112ff90613207565b60405180910390fd5b63bc197c8160e01b7bffffffffffffffffffffffffffffffffffffffffffffffffffffffff1916817bffffffffffffffffffffffffffffffffffffffffffffffffffffffff19161461138f576040517f08c379a000000000000000000000000000000000000000000000000000000000815260040161138690613299565b60405180910390fd5b505b505050505050565b6113a1611b23565b73ffffffffffffffffffffffffffffffffffffffff166113bf610831565b73ffffffffffffffffffffffffffffffffffffffff1614611415576040517f08c379a000000000000000000000000000000000000000000000000000000000815260040161140c90613305565b60405180910390fd5b565b6000600360009054906101000a900473ffffffffffffffffffffffffffffffffffffffff16905081600360006101000a81548173ffffffffffffffffffffffffffffffffffffffff021916908373ffffffffffffffffffffffffffffffffffffffff1602179055508173ffffffffffffffffffffffffffffffffffffffff168173ffffffffffffffffffffffffffffffffffffffff167f8be0079c531659141344cd1fd0a4f28419497f9722a3daafe3b4186f6b6457e060405160405180910390a35050565b80600290805190602001906114f3929190611b95565b5050565b600080600460008460ff1660ff16815260200190815260200160002060009054906101000a900461ffff1661ffff16119050919050565b606060008203611575576040518060400160405280600181526020017f30000000000000000000000000000000000000000000000000000000000000008152509050611689565b600082905060005b600082146115a757808061159090612b16565b915050600a826115a09190612df9565b915061157d565b60008167ffffffffffffffff8111156115c3576115c2611ef2565b5b6040519080825280601f01601f1916602001820160405280156115f55781602001600182028036833780820191505090505b5090505b600085146116825760018261160e9190612e2a565b9150600a8561161d9190612e5e565b60306116299190612e8f565b60f81b81838151811061163f5761163e612ae7565b5b60200101907effffffffffffffffffffffffffffffffffffffffffffffffffffffffffffff1916908160001a905350600a8561167b9190612df9565b94506115f9565b8093505050505b919050565b6116f0816000808773ffffffffffffffffffffffffffffffffffffffff1673ffffffffffffffffffffffffffffffffffffffff168152602001908152602001600020600085815260200190815260200160002054611ad490919063ffffffff16565b6000808673ffffffffffffffffffffffffffffffffffffffff1673ffffffffffffffffffffffffffffffffffffffff1681526020019081526020016000206000848152602001908152602001600020819055506117a5816000808673ffffffffffffffffffffffffffffffffffffffff1673ffffffffffffffffffffffffffffffffffffffff168152602001908152602001600020600085815260200190815260200160002054611aea90919063ffffffff16565b6000808573ffffffffffffffffffffffffffffffffffffffff1673ffffffffffffffffffffffffffffffffffffffff1681526020019081526020016000206000848152602001908152602001600020819055508273ffffffffffffffffffffffffffffffffffffffff168473ffffffffffffffffffffffffffffffffffffffff163373ffffffffffffffffffffffffffffffffffffffff167fc3d58168c5ae7397731d063d5bbf3d657854427343f4c083240f7aacaa2d0f62858560405161186e929190613325565b60405180910390a450505050565b61189b8573ffffffffffffffffffffffffffffffffffffffff16611b00565b15611a4b578473ffffffffffffffffffffffffffffffffffffffff1663f23a6e6133888787866040518663ffffffff1660e01b81526004016118e195949392919061334e565b6020604051808303816000875af192505050801561191d57506040513d601f19601f8201168201806040525081019061191a91906130a9565b60015b6119c2576119296130e3565b806308c379a003611985575061193d613105565b806119485750611987565b806040517f08c379a000000000000000000000000000000000000000000000000000000000815260040161197c9190611e9e565b60405180910390fd5b505b6040517f08c379a00000000000000000000000000000000000000000000000000000000081526004016119b990613207565b60405180910390fd5b63f23a6e6160e01b7bffffffffffffffffffffffffffffffffffffffffffffffffffffffff1916817bffffffffffffffffffffffffffffffffffffffffffffffffffffffff191614611a49576040517f08c379a0000000000000000000000000000000000000000000000000000000008152600401611a4090613299565b60405180910390fd5b505b505050505050565b60007fd9b67a26000000000000000000000000000000000000000000000000000000007bffffffffffffffffffffffffffffffffffffffffffffffffffffffff1916827bffffffffffffffffffffffffffffffffffffffffffffffffffffffff191603611ac35760019050611acf565b611acc82611b2b565b90505b919050565b60008183611ae29190612e2a565b905092915050565b60008183611af89190612e8f565b905092915050565b6000808273ffffffffffffffffffffffffffffffffffffffff163b119050919050565b600033905090565b60007f01ffc9a7000000000000000000000000000000000000000000000000000000007bffffffffffffffffffffffffffffffffffffffffffffffffffffffff1916827bffffffffffffffffffffffffffffffffffffffffffffffffffffffff1916149050919050565b828054611ba19061274f565b90600052602060002090601f016020900481019282611bc35760008555611c0a565b82601f10611bdc57805160ff1916838001178555611c0a565b82800160010185558215611c0a579182015b82811115611c09578251825591602001919060010190611bee565b5b509050611c179190611c1b565b5090565b5b80821115611c34576000816000905550600101611c1c565b5090565b6000604051905090565b600080fd5b600080fd5b600073ffffffffffffffffffffffffffffffffffffffff82169050919050565b6000611c7782611c4c565b9050919050565b611c8781611c6c565b8114611c9257600080fd5b50565b600081359050611ca481611c7e565b92915050565b6000819050919050565b611cbd81611caa565b8114611cc857600080fd5b50565b600081359050611cda81611cb4565b92915050565b60008060408385031215611cf757611cf6611c42565b5b6000611d0585828601611c95565b9250506020611d1685828601611ccb565b9150509250929050565b611d2981611caa565b82525050565b6000602082019050611d446000830184611d20565b92915050565b60007fffffffff0000000000000000000000000000000000000000000000000000000082169050919050565b611d7f81611d4a565b8114611d8a57600080fd5b50565b600081359050611d9c81611d76565b92915050565b600060208284031215611db857611db7611c42565b5b6000611dc684828501611d8d565b91505092915050565b60008115159050919050565b611de481611dcf565b82525050565b6000602082019050611dff6000830184611ddb565b92915050565b600081519050919050565b600082825260208201905092915050565b60005b83811015611e3f578082015181840152602081019050611e24565b83811115611e4e576000848401525b50505050565b6000601f19601f8301169050919050565b6000611e7082611e05565b611e7a8185611e10565b9350611e8a818560208601611e21565b611e9381611e54565b840191505092915050565b60006020820190508181036000830152611eb88184611e65565b905092915050565b600060208284031215611ed657611ed5611c42565b5b6000611ee484828501611ccb565b91505092915050565b600080fd5b7f4e487b7100000000000000000000000000000000000000000000000000000000600052604160045260246000fd5b611f2a82611e54565b810181811067ffffffffffffffff82111715611f4957611f48611ef2565b5b80604052505050565b6000611f5c611c38565b9050611f688282611f21565b919050565b600067ffffffffffffffff821115611f8857611f87611ef2565b5b602082029050602081019050919050565b600080fd5b6000611fb1611fac84611f6d565b611f52565b90508083825260208201905060208402830185811115611fd457611fd3611f99565b5b835b81811015611ffd5780611fe98882611ccb565b845260208401935050602081019050611fd6565b5050509392505050565b600082601f83011261201c5761201b611eed565b5b813561202c848260208601611f9e565b91505092915050565b600080fd5b600067ffffffffffffffff82111561205557612054611ef2565b5b61205e82611e54565b9050602081019050919050565b82818337600083830152505050565b600061208d6120888461203a565b611f52565b9050828152602081018484840111156120a9576120a8612035565b5b6120b484828561206b565b509392505050565b600082601f8301126120d1576120d0611eed565b5b81356120e184826020860161207a565b91505092915050565b600080600080600060a0868803121561210657612105611c42565b5b600061211488828901611c95565b955050602061212588828901611c95565b945050604086013567ffffffffffffffff81111561214657612145611c47565b5b61215288828901612007565b935050606086013567ffffffffffffffff81111561217357612172611c47565b5b61217f88828901612007565b925050608086013567ffffffffffffffff8111156121a05761219f611c47565b5b6121ac888289016120bc565b9150509295509295909350565b600060ff82169050919050565b6121cf816121b9565b81146121da57600080fd5b50565b6000813590506121ec816121c6565b92915050565b60006020828403121561220857612207611c42565b5b6000612216848285016121dd565b91505092915050565b600061ffff82169050919050565b6122368161221f565b82525050565b6000602082019050612251600083018461222d565b92915050565b612260816121b9565b82525050565b600060208201905061227b6000830184612257565b92915050565b600067ffffffffffffffff82111561229c5761229b611ef2565b5b602082029050602081019050919050565b60006122c06122bb84612281565b611f52565b905080838252602082019050602084028301858111156122e3576122e2611f99565b5b835b8181101561230c57806122f88882611c95565b8452602084019350506020810190506122e5565b5050509392505050565b600082601f83011261232b5761232a611eed565b5b813561233b8482602086016122ad565b91505092915050565b6000806040838503121561235b5761235a611c42565b5b600083013567ffffffffffffffff81111561237957612378611c47565b5b61238585828601612316565b925050602083013567ffffffffffffffff8111156123a6576123a5611c47565b5b6123b285828601612007565b9150509250929050565b600081519050919050565b600082825260208201905092915050565b6000819050602082019050919050565b6123f181611caa565b82525050565b600061240383836123e8565b60208301905092915050565b6000602082019050919050565b6000612427826123bc565b61243181856123c7565b935061243c836123d8565b8060005b8381101561246d57815161245488826123f7565b975061245f8361240f565b925050600181019050612440565b5085935050505092915050565b60006020820190508181036000830152612494818461241c565b905092915050565b600067ffffffffffffffff8211156124b7576124b6611ef2565b5b6124c082611e54565b9050602081019050919050565b60006124e06124db8461249c565b611f52565b9050828152602081018484840111156124fc576124fb612035565b5b61250784828561206b565b509392505050565b600082601f83011261252457612523611eed565b5b81356125348482602086016124cd565b91505092915050565b60006020828403121561255357612552611c42565b5b600082013567ffffffffffffffff81111561257157612570611c47565b5b61257d8482850161250f565b91505092915050565b61258f81611c6c565b82525050565b60006020820190506125aa6000830184612586565b92915050565b6125b981611dcf565b81146125c457600080fd5b50565b6000813590506125d6816125b0565b92915050565b600080604083850312156125f3576125f2611c42565b5b600061260185828601611c95565b9250506020612612858286016125c7565b9150509250929050565b6000806040838503121561263357612632611c42565b5b600061264185828601611c95565b925050602061265285828601611c95565b9150509250929050565b600080600080600060a0868803121561267857612677611c42565b5b600061268688828901611c95565b955050602061269788828901611c95565b94505060406126a888828901611ccb565b93505060606126b988828901611ccb565b925050608086013567ffffffffffffffff8111156126da576126d9611c47565b5b6126e6888289016120bc565b9150509295509295909350565b60006020828403121561270957612708611c42565b5b600061271784828501611c95565b91505092915050565b7f4e487b7100000000000000000000000000000000000000000000000000000000600052602260045260246000fd5b6000600282049050600182168061276757607f821691505b60208210810361277a57612779612720565b5b50919050565b600081905092915050565b60008190508160005260206000209050919050565b600081546127ad8161274f565b6127b78186612780565b945060018216600081146127d257600181146127e357612816565b60ff19831686528186019350612816565b6127ec8561278b565b60005b8381101561280e578154818901526001820191506020810190506127ef565b838801955050505b50505092915050565b600061282a82611e05565b6128348185612780565b9350612844818560208601611e21565b80840191505092915050565b7f2e6a736f6e000000000000000000000000000000000000000000000000000000600082015250565b6000612886600583612780565b915061289182612850565b600582019050919050565b60006128a882856127a0565b91506128b4828461281f565b91506128bf82612879565b91508190509392505050565b7f45524331313535237361666542617463685472616e7366657246726f6d3a204960008201527f4e56414c49445f4f50455241544f520000000000000000000000000000000000602082015250565b6000612927602f83611e10565b9150612932826128cb565b604082019050919050565b600060208201905081810360008301526129568161291a565b9050919050565b7f45524331313535237361666542617463685472616e7366657246726f6d3a204960008201527f4e56414c49445f524543495049454e5400000000000000000000000000000000602082015250565b60006129b9603083611e10565b91506129c48261295d565b604082019050919050565b600060208201905081810360008301526129e8816129ac565b9050919050565b7f4e487b7100000000000000000000000000000000000000000000000000000000600052601160045260246000fd5b6000612a29826121b9565b9150612a34836121b9565b92508260ff03821115612a4a57612a496129ef565b5b828201905092915050565b7f455243313135352362616c616e63654f6642617463683a20494e56414c49445f60008201527f41525241595f4c454e4754480000000000000000000000000000000000000000602082015250565b6000612ab1602c83611e10565b9150612abc82612a55565b604082019050919050565b60006020820190508181036000830152612ae081612aa4565b9050919050565b7f4e487b7100000000000000000000000000000000000000000000000000000000600052603260045260246000fd5b6000612b2182611caa565b91507fffffffffffffffffffffffffffffffffffffffffffffffffffffffffffffffff8203612b5357612b526129ef565b5b600182019050919050565b7f4552433732315472616461626c65237572693a204e4f4e4558495354454e545f60008201527f544f4b454e000000000000000000000000000000000000000000000000000000602082015250565b6000612bba602583611e10565b9150612bc582612b5e565b604082019050919050565b60006020820190508181036000830152612be981612bad565b9050919050565b6000612bfc82856127a0565b9150612c08828461281f565b91508190509392505050565b7f4552433131353523736166655472616e7366657246726f6d3a20494e56414c4960008201527f445f4f50455241544f5200000000000000000000000000000000000000000000602082015250565b6000612c70602a83611e10565b9150612c7b82612c14565b604082019050919050565b60006020820190508181036000830152612c9f81612c63565b9050919050565b7f4552433131353523736166655472616e7366657246726f6d3a20494e56414c4960008201527f445f524543495049454e54000000000000000000000000000000000000000000602082015250565b6000612d02602b83611e10565b9150612d0d82612ca6565b604082019050919050565b60006020820190508181036000830152612d3181612cf5565b9050919050565b7f4f776e61626c653a206e6577206f776e657220697320746865207a65726f206160008201527f6464726573730000000000000000000000000000000000000000000000000000602082015250565b6000612d94602683611e10565b9150612d9f82612d38565b604082019050919050565b60006020820190508181036000830152612dc381612d87565b9050919050565b7f4e487b7100000000000000000000000000000000000000000000000000000000600052601260045260246000fd5b6000612e0482611caa565b9150612e0f83611caa565b925082612e1f57612e1e612dca565b5b828204905092915050565b6000612e3582611caa565b9150612e4083611caa565b925082821015612e5357612e526129ef565b5b828203905092915050565b6000612e6982611caa565b9150612e7483611caa565b925082612e8457612e83612dca565b5b828206905092915050565b6000612e9a82611caa565b9150612ea583611caa565b9250827fffffffffffffffffffffffffffffffffffffffffffffffffffffffffffffffff03821115612eda57612ed96129ef565b5b828201905092915050565b6000612ef082611caa565b915060008203612f0357612f026129ef565b5b600182039050919050565b7f45524331313535235f7361666542617463685472616e7366657246726f6d3a2060008201527f494e56414c49445f4152524159535f4c454e4754480000000000000000000000602082015250565b6000612f6a603583611e10565b9150612f7582612f0e565b604082019050919050565b60006020820190508181036000830152612f9981612f5d565b9050919050565b60006040820190508181036000830152612fba818561241c565b90508181036020830152612fce818461241c565b90509392505050565b600081519050919050565b600082825260208201905092915050565b6000612ffe82612fd7565b6130088185612fe2565b9350613018818560208601611e21565b61302181611e54565b840191505092915050565b600060a0820190506130416000830188612586565b61304e6020830187612586565b8181036040830152613060818661241c565b90508181036060830152613074818561241c565b905081810360808301526130888184612ff3565b90509695505050505050565b6000815190506130a381611d76565b92915050565b6000602082840312156130bf576130be611c42565b5b60006130cd84828501613094565b91505092915050565b60008160e01c9050919050565b600060033d11156131025760046000803e6130ff6000516130d6565b90505b90565b600060443d1061319257613117611c38565b60043d036004823e80513d602482011167ffffffffffffffff8211171561313f575050613192565b808201805167ffffffffffffffff81111561315d5750505050613192565b80602083010160043d03850181111561317a575050505050613192565b61318982602001850186611f21565b82955050505050505b90565b7f455243313135353a207472616e7366657220746f206e6f6e204552433131353560008201527f526563656976657220696d706c656d656e746572000000000000000000000000602082015250565b60006131f1603483611e10565b91506131fc82613195565b604082019050919050565b60006020820190508181036000830152613220816131e4565b9050919050565b7f455243313135353a204552433131353552656365697665722072656a6563746560008201527f6420746f6b656e73000000000000000000000000000000000000000000000000602082015250565b6000613283602883611e10565b915061328e82613227565b604082019050919050565b600060208201905081810360008301526132b281613276565b9050919050565b7f4f776e61626c653a2063616c6c6572206973206e6f7420746865206f776e6572600082015250565b60006132ef602083611e10565b91506132fa826132b9565b602082019050919050565b6000602082019050818103600083015261331e816132e2565b9050919050565b600060408201905061333a6000830185611d20565b6133476020830184611d20565b9392505050565b600060a0820190506133636000830188612586565b6133706020830187612586565b61337d6040830186611d20565b61338a6060830185611d20565b818103608083015261339c8184612ff3565b9050969550505050505056fea26469706673582212202cd6b0346ea826a5625cca678e18c196ead97a78826861f91fae51cccec56bf564736f6c634300080d0033",
  "linkReferences": {},
  "deployedLinkReferences": {}
}