{
  "_format": "hh-sol-artifact-1",
  "contractName": "ERC1155Tradable",
  "sourceName": "contracts/erc1155/ERC1155Tradable.sol",
  "abi": [
    {
      "inputs": [
        {
          "internalType": "string",
          "name": "_name",
          "type": "string"
        },
        {
          "internalType": "string",
          "name": "_symbol",
          "type": "string"
        },
        {
          "internalType": "string",
          "name": "_metadataURI",
          "type": "string"
        },
        {
          "internalType": "address",
          "name": "_proxyRegistryAddress",
          "type": "address"
        },
        {
          "internalType": "address",
          "name": "owner",
          "type": "address"
        }
      ],
      "stateMutability": "nonpayable",
      "type": "constructor"
    },
    {
      "anonymous": false,
      "inputs": [
        {
          "indexed": true,
          "internalType": "address",
          "name": "_owner",
          "type": "address"
        },
        {
          "indexed": true,
          "internalType": "address",
          "name": "_operator",
          "type": "address"
        },
        {
          "indexed": false,
          "internalType": "bool",
          "name": "_approved",
          "type": "bool"
        }
      ],
      "name": "ApprovalForAll",
      "type": "event"
    },
    {
      "anonymous": false,
      "inputs": [
        {
          "indexed": true,
          "internalType": "address",
          "name": "previousOwner",
          "type": "address"
        },
        {
          "indexed": true,
          "internalType": "address",
          "name": "newOwner",
          "type": "address"
        }
      ],
      "name": "OwnershipTransferred",
      "type": "event"
    },
    {
      "anonymous": false,
      "inputs": [
        {
          "indexed": true,
          "internalType": "address",
          "name": "_operator",
          "type": "address"
        },
        {
          "indexed": true,
          "internalType": "address",
          "name": "_from",
          "type": "address"
        },
        {
          "indexed": true,
          "internalType": "address",
          "name": "_to",
          "type": "address"
        },
        {
          "indexed": false,
          "internalType": "uint256[]",
          "name": "_ids",
          "type": "uint256[]"
        },
        {
          "indexed": false,
          "internalType": "uint256[]",
          "name": "_amounts",
          "type": "uint256[]"
        }
      ],
      "name": "TransferBatch",
      "type": "event"
    },
    {
      "anonymous": false,
      "inputs": [
        {
          "indexed": true,
          "internalType": "address",
          "name": "_operator",
          "type": "address"
        },
        {
          "indexed": true,
          "internalType": "address",
          "name": "_from",
          "type": "address"
        },
        {
          "indexed": true,
          "internalType": "address",
          "name": "_to",
          "type": "address"
        },
        {
          "indexed": false,
          "internalType": "uint256",
          "name": "_id",
          "type": "uint256"
        },
        {
          "indexed": false,
          "internalType": "uint256",
          "name": "_amount",
          "type": "uint256"
        }
      ],
      "name": "TransferSingle",
      "type": "event"
    },
    {
      "anonymous": false,
      "inputs": [
        {
          "indexed": false,
          "internalType": "string",
          "name": "_uri",
          "type": "string"
        },
        {
          "indexed": true,
          "internalType": "uint256",
          "name": "_id",
          "type": "uint256"
        }
      ],
      "name": "URI",
      "type": "event"
    },
    {
      "inputs": [
        {
          "internalType": "address",
          "name": "_owner",
          "type": "address"
        },
        {
          "internalType": "uint256",
          "name": "_id",
          "type": "uint256"
        }
      ],
      "name": "balanceOf",
      "outputs": [
        {
          "internalType": "uint256",
          "name": "",
          "type": "uint256"
        }
      ],
      "stateMutability": "view",
      "type": "function"
    },
    {
      "inputs": [
        {
          "internalType": "address[]",
          "name": "_owners",
          "type": "address[]"
        },
        {
          "internalType": "uint256[]",
          "name": "_ids",
          "type": "uint256[]"
        }
      ],
      "name": "balanceOfBatch",
      "outputs": [
        {
          "internalType": "uint256[]",
          "name": "",
          "type": "uint256[]"
        }
      ],
      "stateMutability": "view",
      "type": "function"
    },
    {
      "inputs": [
        {
          "internalType": "address",
          "name": "_to",
          "type": "address"
        },
        {
          "internalType": "uint256[]",
          "name": "_ids",
          "type": "uint256[]"
        },
        {
          "internalType": "uint256[]",
          "name": "_quantities",
          "type": "uint256[]"
        }
      ],
      "name": "batchMint",
      "outputs": [],
      "stateMutability": "nonpayable",
      "type": "function"
    },
    {
      "inputs": [
        {
          "internalType": "address",
          "name": "_initialOwner",
          "type": "address"
        },
        {
          "internalType": "uint256",
          "name": "_initialSupply",
          "type": "uint256"
        }
      ],
      "name": "create",
      "outputs": [
        {
          "internalType": "uint256",
          "name": "",
          "type": "uint256"
        }
      ],
      "stateMutability": "nonpayable",
      "type": "function"
    },
    {
      "inputs": [
        {
          "internalType": "uint256",
          "name": "",
          "type": "uint256"
        }
      ],
      "name": "creators",
      "outputs": [
        {
          "internalType": "address",
          "name": "",
          "type": "address"
        }
      ],
      "stateMutability": "view",
      "type": "function"
    },
    {
      "inputs": [],
      "name": "getNextTokenID",
      "outputs": [
        {
          "internalType": "uint256",
          "name": "",
          "type": "uint256"
        }
      ],
      "stateMutability": "view",
      "type": "function"
    },
    {
      "inputs": [
        {
          "internalType": "address",
          "name": "",
          "type": "address"
        }
      ],
      "name": "isAllowedToCreate",
      "outputs": [
        {
          "internalType": "bool",
          "name": "",
          "type": "bool"
        }
      ],
      "stateMutability": "view",
      "type": "function"
    },
    {
      "inputs": [
        {
          "internalType": "address",
          "name": "_owner",
          "type": "address"
        },
        {
          "internalType": "address",
          "name": "_operator",
          "type": "address"
        }
      ],
      "name": "isApprovedForAll",
      "outputs": [
        {
          "internalType": "bool",
          "name": "isOperator",
          "type": "bool"
        }
      ],
      "stateMutability": "view",
      "type": "function"
    },
    {
      "inputs": [
        {
          "internalType": "address",
          "name": "_to",
          "type": "address"
        },
        {
          "internalType": "uint256",
          "name": "_id",
          "type": "uint256"
        },
        {
          "internalType": "uint256",
          "name": "_quantity",
          "type": "uint256"
        }
      ],
      "name": "mint",
      "outputs": [],
      "stateMutability": "nonpayable",
      "type": "function"
    },
    {
      "inputs": [],
      "name": "name",
      "outputs": [
        {
          "internalType": "string",
          "name": "",
          "type": "string"
        }
      ],
      "stateMutability": "view",
      "type": "function"
    },
    {
      "inputs": [],
      "name": "owner",
      "outputs": [
        {
          "internalType": "address",
          "name": "",
          "type": "address"
        }
      ],
      "stateMutability": "view",
      "type": "function"
    },
    {
      "inputs": [
        {
          "internalType": "address",
          "name": "_from",
          "type": "address"
        },
        {
          "internalType": "address",
          "name": "_to",
          "type": "address"
        },
        {
          "internalType": "uint256[]",
          "name": "_ids",
          "type": "uint256[]"
        },
        {
          "internalType": "uint256[]",
          "name": "_amounts",
          "type": "uint256[]"
        },
        {
          "internalType": "bytes",
          "name": "_data",
          "type": "bytes"
        }
      ],
      "name": "safeBatchTransferFrom",
      "outputs": [],
      "stateMutability": "nonpayable",
      "type": "function"
    },
    {
      "inputs": [
        {
          "internalType": "address",
          "name": "_from",
          "type": "address"
        },
        {
          "internalType": "address",
          "name": "_to",
          "type": "address"
        },
        {
          "internalType": "uint256",
          "name": "_id",
          "type": "uint256"
        },
        {
          "internalType": "uint256",
          "name": "_amount",
          "type": "uint256"
        },
        {
          "internalType": "bytes",
          "name": "_data",
          "type": "bytes"
        }
      ],
      "name": "safeTransferFrom",
      "outputs": [],
      "stateMutability": "nonpayable",
      "type": "function"
    },
    {
      "inputs": [
        {
          "internalType": "address",
          "name": "_account",
          "type": "address"
        },
        {
          "internalType": "bool",
          "name": "_allow",
          "type": "bool"
        }
      ],
      "name": "setAllowToCreate",
      "outputs": [],
      "stateMutability": "nonpayable",
      "type": "function"
    },
    {
      "inputs": [
        {
          "internalType": "address",
          "name": "_operator",
          "type": "address"
        },
        {
          "internalType": "bool",
          "name": "_approved",
          "type": "bool"
        }
      ],
      "name": "setApprovalForAll",
      "outputs": [],
      "stateMutability": "nonpayable",
      "type": "function"
    },
    {
      "inputs": [
        {
          "internalType": "string",
          "name": "_newBaseMetadataURI",
          "type": "string"
        }
      ],
      "name": "setBaseMetadataURI",
      "outputs": [],
      "stateMutability": "nonpayable",
      "type": "function"
    },
    {
      "inputs": [
        {
          "internalType": "address",
          "name": "_to",
          "type": "address"
        },
        {
          "internalType": "uint256[]",
          "name": "_ids",
          "type": "uint256[]"
        }
      ],
      "name": "setCreator",
      "outputs": [],
      "stateMutability": "nonpayable",
      "type": "function"
    },
    {
      "inputs": [
        {
          "internalType": "bytes4",
          "name": "_interfaceID",
          "type": "bytes4"
        }
      ],
      "name": "supportsInterface",
      "outputs": [
        {
          "internalType": "bool",
          "name": "",
          "type": "bool"
        }
      ],
      "stateMutability": "view",
      "type": "function"
    },
    {
      "inputs": [],
      "name": "symbol",
      "outputs": [
        {
          "internalType": "string",
          "name": "",
          "type": "string"
        }
      ],
      "stateMutability": "view",
      "type": "function"
    },
    {
      "inputs": [
        {
          "internalType": "uint256",
          "name": "",
          "type": "uint256"
        }
      ],
      "name": "tokenSupply",
      "outputs": [
        {
          "internalType": "uint256",
          "name": "",
          "type": "uint256"
        }
      ],
      "stateMutability": "view",
      "type": "function"
    },
    {
      "inputs": [
        {
          "internalType": "uint256",
          "name": "_id",
          "type": "uint256"
        }
      ],
      "name": "totalSupply",
      "outputs": [
        {
          "internalType": "uint256",
          "name": "",
          "type": "uint256"
        }
      ],
      "stateMutability": "view",
      "type": "function"
    },
    {
      "inputs": [
        {
          "internalType": "address",
          "name": "newOwner",
          "type": "address"
        }
      ],
      "name": "transferOwnership",
      "outputs": [],
      "stateMutability": "nonpayable",
      "type": "function"
    },
    {
      "inputs": [
        {
          "internalType": "uint256",
          "name": "_id",
          "type": "uint256"
        }
      ],
      "name": "uri",
      "outputs": [
        {
          "internalType": "string",
          "name": "",
          "type": "string"
        }
      ],
      "stateMutability": "view",
      "type": "function"
    }
  ],
  "bytecode": "0x60806040523480156200001157600080fd5b5060405162004847380380620048478339818101604052810190620000379190620004c5565b8062000049816200013160201b60201c565b5084600990805190602001906200006292919062000213565b5083600a90805190602001906200007b92919062000213565b5081600460006101000a81548173ffffffffffffffffffffffffffffffffffffffff021916908373ffffffffffffffffffffffffffffffffffffffff1602179055506001600860008373ffffffffffffffffffffffffffffffffffffffff1673ffffffffffffffffffffffffffffffffffffffff16815260200190815260200160002060006101000a81548160ff0219169083151502179055506200012683620001f760201b60201c565b50505050506200060e565b6000600360009054906101000a900473ffffffffffffffffffffffffffffffffffffffff16905081600360006101000a81548173ffffffffffffffffffffffffffffffffffffffff021916908373ffffffffffffffffffffffffffffffffffffffff1602179055508173ffffffffffffffffffffffffffffffffffffffff168173ffffffffffffffffffffffffffffffffffffffff167f8be0079c531659141344cd1fd0a4f28419497f9722a3daafe3b4186f6b6457e060405160405180910390a35050565b80600290805190602001906200020f92919062000213565b5050565b8280546200022190620005d9565b90600052602060002090601f01602090048101928262000245576000855562000291565b82601f106200026057805160ff191683800117855562000291565b8280016001018555821562000291579182015b828111156200029057825182559160200191906001019062000273565b5b509050620002a09190620002a4565b5090565b5b80821115620002bf576000816000905550600101620002a5565b5090565b6000604051905090565b600080fd5b600080fd5b600080fd5b600080fd5b6000601f19601f8301169050919050565b7f4e487b7100000000000000000000000000000000000000000000000000000000600052604160045260246000fd5b6200032c82620002e1565b810181811067ffffffffffffffff821117156200034e576200034d620002f2565b5b80604052505050565b600062000363620002c3565b905062000371828262000321565b919050565b600067ffffffffffffffff821115620003945762000393620002f2565b5b6200039f82620002e1565b9050602081019050919050565b60005b83811015620003cc578082015181840152602081019050620003af565b83811115620003dc576000848401525b50505050565b6000620003f9620003f38462000376565b62000357565b905082815260208101848484011115620004185762000417620002dc565b5b62000425848285620003ac565b509392505050565b600082601f830112620004455762000444620002d7565b5b815162000457848260208601620003e2565b91505092915050565b600073ffffffffffffffffffffffffffffffffffffffff82169050919050565b60006200048d8262000460565b9050919050565b6200049f8162000480565b8114620004ab57600080fd5b50565b600081519050620004bf8162000494565b92915050565b600080600080600060a08688031215620004e457620004e3620002cd565b5b600086015167ffffffffffffffff811115620005055762000504620002d2565b5b62000513888289016200042d565b955050602086015167ffffffffffffffff811115620005375762000536620002d2565b5b62000545888289016200042d565b945050604086015167ffffffffffffffff811115620005695762000568620002d2565b5b62000577888289016200042d565b93505060606200058a88828901620004ae565b92505060806200059d88828901620004ae565b9150509295509295909350565b7f4e487b7100000000000000000000000000000000000000000000000000000000600052602260045260246000fd5b60006002820490506001821680620005f257607f821691505b602082108103620006085762000607620005aa565b5b50919050565b614229806200061e6000396000f3fe608060405234801561001057600080fd5b506004361061014c5760003560e01c806373f25c38116100c3578063cd53d08e1161007c578063cd53d08e146103d5578063d2a6b51a14610405578063d79cd25514610421578063e985e9c51461043d578063f242432a1461046d578063f2fde38b146104895761014c565b806373f25c38146103015780637e518ec8146103315780638da5cb5b1461034d57806395d89b411461036b578063a22cb46514610389578063bd85b039146103a55761014c565b80630ecaea73116101155780630ecaea731461021b578063156e29f61461024b5780632693ebf2146102675780632eb2c2d6146102975780634a198119146102b35780634e1273f4146102d15761014c565b8062fdd58e1461015157806301ffc9a71461018157806306fdde03146101b15780630ca83480146101cf5780630e89341c146101eb575b600080fd5b61016b60048036038101906101669190612875565b6104a5565b60405161017891906128c4565b60405180910390f35b61019b60048036038101906101969190612937565b6104ff565b6040516101a8919061297f565b60405180910390f35b6101b96105e9565b6040516101c69190612a33565b60405180910390f35b6101e960048036038101906101e49190612b9d565b610677565b005b61020560048036038101906102009190612c28565b6107c9565b6040516102129190612a33565b60405180910390f35b61023560048036038101906102309190612875565b610871565b60405161024291906128c4565b60405180910390f35b61026560048036038101906102609190612c55565b6109b0565b005b610281600480360381019061027c9190612c28565b610b00565b60405161028e91906128c4565b60405180910390f35b6102b160048036038101906102ac9190612d5d565b610b18565b005b6102bb610c27565b6040516102c891906128c4565b60405180910390f35b6102eb60048036038101906102e69190612eef565b610c3d565b6040516102f89190613025565b60405180910390f35b61031b60048036038101906103169190613047565b610d9e565b604051610328919061297f565b60405180910390f35b61034b60048036038101906103469190613115565b610dbe565b005b610355610e46565b604051610362919061316d565b60405180910390f35b610373610e70565b6040516103809190612a33565b60405180910390f35b6103a3600480360381019061039e91906131b4565b610efe565b005b6103bf60048036038101906103ba9190612c28565b610ffb565b6040516103cc91906128c4565b60405180910390f35b6103ef60048036038101906103ea9190612c28565b611018565b6040516103fc919061316d565b60405180910390f35b61041f600480360381019061041a91906131f4565b61104b565b005b61043b600480360381019061043691906131b4565b611108565b005b61045760048036038101906104529190613250565b6111df565b604051610464919061297f565b60405180910390f35b61048760048036038101906104829190613290565b6112d1565b005b6104a3600480360381019061049e9190613047565b6113e0565b005b60008060008473ffffffffffffffffffffffffffffffffffffffff1673ffffffffffffffffffffffffffffffffffffffff168152602001908152602001600020600083815260200190815260200160002054905092915050565b60007fd9b67a26000000000000000000000000000000000000000000000000000000007bffffffffffffffffffffffffffffffffffffffffffffffffffffffff1916827bffffffffffffffffffffffffffffffffffffffffffffffffffffffff191614806105ca57507fc5aa421f000000000000000000000000000000000000000000000000000000007bffffffffffffffffffffffffffffffffffffffffffffffffffffffff1916827bffffffffffffffffffffffffffffffffffffffffffffffffffffffff1916145b156105d857600190506105e4565b6105e1826114d7565b90505b919050565b600980546105f690613356565b80601f016020809104026020016040519081016040528092919081815260200182805461062290613356565b801561066f5780601f106106445761010080835404028352916020019161066f565b820191906000526020600020905b81548152906001019060200180831161065257829003601f168201915b505050505081565b60005b82518110156107a857600083828151811061069857610697613387565b5b602002602001015190506106aa611558565b73ffffffffffffffffffffffffffffffffffffffff166006600083815260200190815260200160002060009054906101000a900473ffffffffffffffffffffffffffffffffffffffff1673ffffffffffffffffffffffffffffffffffffffff161461074a576040517f08c379a000000000000000000000000000000000000000000000000000000000815260040161074190613428565b60405180910390fd5b600083838151811061075f5761075e613387565b5b602002602001015190508060076000848152602001908152602001600020600082825461078c9190613477565b92505081905550505080806107a0906134cd565b91505061067a565b506107c483838360405180602001604052806000815250611560565b505050565b60606107d482611761565b610813576040517f08c379a000000000000000000000000000000000000000000000000000000000815260040161080a90613587565b60405180910390fd5b60006002805461082290613356565b90501161083e576040518060200160405280600081525061086a565b6002610849836117cd565b60405160200161085a929190613677565b6040516020818303038152906040525b9050919050565b60006008600061087f611558565b73ffffffffffffffffffffffffffffffffffffffff1673ffffffffffffffffffffffffffffffffffffffff16815260200190815260200160002060009054906101000a900460ff16610906576040517f08c379a00000000000000000000000000000000000000000000000000000000081526004016108fd906136e7565b60405180910390fd5b6000610910610c27565b905061091a61192d565b610922611558565b6006600083815260200190815260200160002060006101000a81548173ffffffffffffffffffffffffffffffffffffffff021916908373ffffffffffffffffffffffffffffffffffffffff16021790555061098e84828560405180602001604052806000815250611947565b8260076000838152602001908152602001600020819055508091505092915050565b816109b9611558565b73ffffffffffffffffffffffffffffffffffffffff166006600083815260200190815260200160002060009054906101000a900473ffffffffffffffffffffffffffffffffffffffff1673ffffffffffffffffffffffffffffffffffffffff16148015610a76575060086000610a2d611558565b73ffffffffffffffffffffffffffffffffffffffff1673ffffffffffffffffffffffffffffffffffffffff16815260200190815260200160002060009054906101000a900460ff165b610ab5576040517f08c379a0000000000000000000000000000000000000000000000000000000008152600401610aac90613779565b60405180910390fd5b610ad084848460405180602001604052806000815250611947565b81600760008581526020019081526020016000206000828254610af39190613477565b9250508190555050505050565b60076020528060005260406000206000915090505481565b8473ffffffffffffffffffffffffffffffffffffffff163373ffffffffffffffffffffffffffffffffffffffff161480610b585750610b5785336111df565b5b610b97576040517f08c379a0000000000000000000000000000000000000000000000000000000008152600401610b8e9061380b565b60405180910390fd5b600073ffffffffffffffffffffffffffffffffffffffff168473ffffffffffffffffffffffffffffffffffffffff1603610c06576040517f08c379a0000000000000000000000000000000000000000000000000000000008152600401610bfd9061389d565b60405180910390fd5b610c1285858585611a90565b610c20858585855a86611d84565b5050505050565b60006001600554610c389190613477565b905090565b60608151835114610c83576040517f08c379a0000000000000000000000000000000000000000000000000000000008152600401610c7a9061392f565b60405180910390fd5b6000835167ffffffffffffffff811115610ca057610c9f612a5a565b5b604051908082528060200260200182016040528015610cce5781602001602082028036833780820191505090505b50905060005b8451811015610d9357600080868381518110610cf357610cf2613387565b5b602002602001015173ffffffffffffffffffffffffffffffffffffffff1673ffffffffffffffffffffffffffffffffffffffff1681526020019081526020016000206000858381518110610d4a57610d49613387565b5b6020026020010151815260200190815260200160002054828281518110610d7457610d73613387565b5b6020026020010181815250508080610d8b906134cd565b915050610cd4565b508091505092915050565b60086020528060005260406000206000915054906101000a900460ff1681565b610dc6611558565b73ffffffffffffffffffffffffffffffffffffffff16610de4610e46565b73ffffffffffffffffffffffffffffffffffffffff1614610e3a576040517f08c379a0000000000000000000000000000000000000000000000000000000008152600401610e319061399b565b60405180910390fd5b610e4381611f5b565b50565b6000600360009054906101000a900473ffffffffffffffffffffffffffffffffffffffff16905090565b600a8054610e7d90613356565b80601f0160208091040260200160405190810160405280929190818152602001828054610ea990613356565b8015610ef65780601f10610ecb57610100808354040283529160200191610ef6565b820191906000526020600020905b815481529060010190602001808311610ed957829003601f168201915b505050505081565b80600160003373ffffffffffffffffffffffffffffffffffffffff1673ffffffffffffffffffffffffffffffffffffffff16815260200190815260200160002060008473ffffffffffffffffffffffffffffffffffffffff1673ffffffffffffffffffffffffffffffffffffffff16815260200190815260200160002060006101000a81548160ff0219169083151502179055508173ffffffffffffffffffffffffffffffffffffffff163373ffffffffffffffffffffffffffffffffffffffff167f17307eab39ab6107e8899845ad3d59bd9653f200f220920489ca2b5937696c3183604051610fef919061297f565b60405180910390a35050565b600060076000838152602001908152602001600020549050919050565b60066020528060005260406000206000915054906101000a900473ffffffffffffffffffffffffffffffffffffffff1681565b600073ffffffffffffffffffffffffffffffffffffffff168273ffffffffffffffffffffffffffffffffffffffff16036110ba576040517f08c379a00000000000000000000000000000000000000000000000000000000081526004016110b190613a2d565b60405180910390fd5b60005b81518110156111035760008282815181106110db576110da613387565b5b602002602001015190506110ef8482611f75565b5080806110fb906134cd565b9150506110bd565b505050565b611110611558565b73ffffffffffffffffffffffffffffffffffffffff1661112e610e46565b73ffffffffffffffffffffffffffffffffffffffff1614611184576040517f08c379a000000000000000000000000000000000000000000000000000000000815260040161117b9061399b565b60405180910390fd5b80600860008473ffffffffffffffffffffffffffffffffffffffff1673ffffffffffffffffffffffffffffffffffffffff16815260200190815260200160002060006101000a81548160ff0219169083151502179055505050565b600080600460009054906101000a900473ffffffffffffffffffffffffffffffffffffffff1690508273ffffffffffffffffffffffffffffffffffffffff168173ffffffffffffffffffffffffffffffffffffffff1663c4552791866040518263ffffffff1660e01b8152600401611257919061316d565b602060405180830381865afa158015611274573d6000803e3d6000fd5b505050506040513d601f19601f820116820180604052508101906112989190613a8b565b73ffffffffffffffffffffffffffffffffffffffff16036112bd5760019150506112cb565b6112c784846120d1565b9150505b92915050565b8473ffffffffffffffffffffffffffffffffffffffff163373ffffffffffffffffffffffffffffffffffffffff161480611311575061131085336111df565b5b611350576040517f08c379a000000000000000000000000000000000000000000000000000000000815260040161134790613b2a565b60405180910390fd5b600073ffffffffffffffffffffffffffffffffffffffff168473ffffffffffffffffffffffffffffffffffffffff16036113bf576040517f08c379a00000000000000000000000000000000000000000000000000000000081526004016113b690613bbc565b60405180910390fd5b6113cb85858585612165565b6113d9858585855a86612353565b5050505050565b6113e8611558565b73ffffffffffffffffffffffffffffffffffffffff16611406610e46565b73ffffffffffffffffffffffffffffffffffffffff161461145c576040517f08c379a00000000000000000000000000000000000000000000000000000000081526004016114539061399b565b60405180910390fd5b600073ffffffffffffffffffffffffffffffffffffffff168173ffffffffffffffffffffffffffffffffffffffff16036114cb576040517f08c379a00000000000000000000000000000000000000000000000000000000081526004016114c290613c4e565b60405180910390fd5b6114d48161252a565b50565b60007f0e89341c000000000000000000000000000000000000000000000000000000007bffffffffffffffffffffffffffffffffffffffffffffffffffffffff1916827bffffffffffffffffffffffffffffffffffffffffffffffffffffffff1916036115475760019050611553565b611550826125f0565b90505b919050565b600033905090565b81518351146115a4576040517f08c379a000000000000000000000000000000000000000000000000000000000815260040161159b90613ce0565b60405180910390fd5b60008351905060005b818110156116cb5761164b8482815181106115cb576115ca613387565b5b60200260200101516000808973ffffffffffffffffffffffffffffffffffffffff1673ffffffffffffffffffffffffffffffffffffffff168152602001908152602001600020600088858151811061162657611625613387565b5b602002602001015181526020019081526020016000205461267190919063ffffffff16565b6000808873ffffffffffffffffffffffffffffffffffffffff1673ffffffffffffffffffffffffffffffffffffffff168152602001908152602001600020600087848151811061169e5761169d613387565b5b602002602001015181526020019081526020016000208190555080806116c3906134cd565b9150506115ad565b508473ffffffffffffffffffffffffffffffffffffffff16600073ffffffffffffffffffffffffffffffffffffffff163373ffffffffffffffffffffffffffffffffffffffff167f4a39dc06d4c0dbc64b70af90fd698a233a518aa5d07e595d983b8c0526c8f7fb8787604051611743929190613d00565b60405180910390a461175a60008686865a87611d84565b5050505050565b60008073ffffffffffffffffffffffffffffffffffffffff166006600084815260200190815260200160002060009054906101000a900473ffffffffffffffffffffffffffffffffffffffff1673ffffffffffffffffffffffffffffffffffffffff1614159050919050565b606060008203611814576040518060400160405280600181526020017f30000000000000000000000000000000000000000000000000000000000000008152509050611928565b600082905060005b6000821461184657808061182f906134cd565b915050600a8261183f9190613d66565b915061181c565b60008167ffffffffffffffff81111561186257611861612a5a565b5b6040519080825280601f01601f1916602001820160405280156118945781602001600182028036833780820191505090505b5090505b60008514611921576001826118ad9190613d97565b9150600a856118bc9190613dcb565b60306118c89190613477565b60f81b8183815181106118de576118dd613387565b5b60200101907effffffffffffffffffffffffffffffffffffffffffffffffffffffffffffff1916908160001a905350600a8561191a9190613d66565b9450611898565b8093505050505b919050565b60056000815480929190611940906134cd565b9190505550565b6119a9826000808773ffffffffffffffffffffffffffffffffffffffff1673ffffffffffffffffffffffffffffffffffffffff16815260200190815260200160002060008681526020019081526020016000205461267190919063ffffffff16565b6000808673ffffffffffffffffffffffffffffffffffffffff1673ffffffffffffffffffffffffffffffffffffffff1681526020019081526020016000206000858152602001908152602001600020819055508373ffffffffffffffffffffffffffffffffffffffff16600073ffffffffffffffffffffffffffffffffffffffff163373ffffffffffffffffffffffffffffffffffffffff167fc3d58168c5ae7397731d063d5bbf3d657854427343f4c083240f7aacaa2d0f628686604051611a73929190613dfc565b60405180910390a4611a8a60008585855a86612353565b50505050565b8051825114611ad4576040517f08c379a0000000000000000000000000000000000000000000000000000000008152600401611acb90613e97565b60405180910390fd5b60008251905060005b81811015611cfe57611b7b838281518110611afb57611afa613387565b5b60200260200101516000808973ffffffffffffffffffffffffffffffffffffffff1673ffffffffffffffffffffffffffffffffffffffff1681526020019081526020016000206000878581518110611b5657611b55613387565b5b602002602001015181526020019081526020016000205461268790919063ffffffff16565b6000808873ffffffffffffffffffffffffffffffffffffffff1673ffffffffffffffffffffffffffffffffffffffff1681526020019081526020016000206000868481518110611bce57611bcd613387565b5b6020026020010151815260200190815260200160002081905550611c7e838281518110611bfe57611bfd613387565b5b60200260200101516000808873ffffffffffffffffffffffffffffffffffffffff1673ffffffffffffffffffffffffffffffffffffffff1681526020019081526020016000206000878581518110611c5957611c58613387565b5b602002602001015181526020019081526020016000205461267190919063ffffffff16565b6000808773ffffffffffffffffffffffffffffffffffffffff1673ffffffffffffffffffffffffffffffffffffffff1681526020019081526020016000206000868481518110611cd157611cd0613387565b5b60200260200101518152602001908152602001600020819055508080611cf6906134cd565b915050611add565b508373ffffffffffffffffffffffffffffffffffffffff168573ffffffffffffffffffffffffffffffffffffffff163373ffffffffffffffffffffffffffffffffffffffff167f4a39dc06d4c0dbc64b70af90fd698a233a518aa5d07e595d983b8c0526c8f7fb8686604051611d75929190613d00565b60405180910390a45050505050565b611da38573ffffffffffffffffffffffffffffffffffffffff1661269d565b15611f53578473ffffffffffffffffffffffffffffffffffffffff1663bc197c8133888787866040518663ffffffff1660e01b8152600401611de9959493929190613f0c565b6020604051808303816000875af1925050508015611e2557506040513d601f19601f82011682018060405250810190611e229190613f89565b60015b611eca57611e31613fc3565b806308c379a003611e8d5750611e45613fe5565b80611e505750611e8f565b806040517f08c379a0000000000000000000000000000000000000000000000000000000008152600401611e849190612a33565b60405180910390fd5b505b6040517f08c379a0000000000000000000000000000000000000000000000000000000008152600401611ec1906140e7565b60405180910390fd5b63bc197c8160e01b7bffffffffffffffffffffffffffffffffffffffffffffffffffffffff1916817bffffffffffffffffffffffffffffffffffffffffffffffffffffffff191614611f51576040517f08c379a0000000000000000000000000000000000000000000000000000000008152600401611f4890614179565b60405180910390fd5b505b505050505050565b8060029080519060200190611f7192919061272a565b5050565b80611f7e611558565b73ffffffffffffffffffffffffffffffffffffffff166006600083815260200190815260200160002060009054906101000a900473ffffffffffffffffffffffffffffffffffffffff1673ffffffffffffffffffffffffffffffffffffffff1614801561203b575060086000611ff2611558565b73ffffffffffffffffffffffffffffffffffffffff1673ffffffffffffffffffffffffffffffffffffffff16815260200190815260200160002060009054906101000a900460ff165b61207a576040517f08c379a000000000000000000000000000000000000000000000000000000000815260040161207190613779565b60405180910390fd5b826006600084815260200190815260200160002060006101000a81548173ffffffffffffffffffffffffffffffffffffffff021916908373ffffffffffffffffffffffffffffffffffffffff160217905550505050565b6000600160008473ffffffffffffffffffffffffffffffffffffffff1673ffffffffffffffffffffffffffffffffffffffff16815260200190815260200160002060008373ffffffffffffffffffffffffffffffffffffffff1673ffffffffffffffffffffffffffffffffffffffff16815260200190815260200160002060009054906101000a900460ff16905092915050565b6121c7816000808773ffffffffffffffffffffffffffffffffffffffff1673ffffffffffffffffffffffffffffffffffffffff16815260200190815260200160002060008581526020019081526020016000205461268790919063ffffffff16565b6000808673ffffffffffffffffffffffffffffffffffffffff1673ffffffffffffffffffffffffffffffffffffffff16815260200190815260200160002060008481526020019081526020016000208190555061227c816000808673ffffffffffffffffffffffffffffffffffffffff1673ffffffffffffffffffffffffffffffffffffffff16815260200190815260200160002060008581526020019081526020016000205461267190919063ffffffff16565b6000808573ffffffffffffffffffffffffffffffffffffffff1673ffffffffffffffffffffffffffffffffffffffff1681526020019081526020016000206000848152602001908152602001600020819055508273ffffffffffffffffffffffffffffffffffffffff168473ffffffffffffffffffffffffffffffffffffffff163373ffffffffffffffffffffffffffffffffffffffff167fc3d58168c5ae7397731d063d5bbf3d657854427343f4c083240f7aacaa2d0f628585604051612345929190613dfc565b60405180910390a450505050565b6123728573ffffffffffffffffffffffffffffffffffffffff1661269d565b15612522578473ffffffffffffffffffffffffffffffffffffffff1663f23a6e6133888787866040518663ffffffff1660e01b81526004016123b8959493929190614199565b6020604051808303816000875af19250505080156123f457506040513d601f19601f820116820180604052508101906123f19190613f89565b60015b61249957612400613fc3565b806308c379a00361245c5750612414613fe5565b8061241f575061245e565b806040517f08c379a00000000000000000000000000000000000000000000000000000000081526004016124539190612a33565b60405180910390fd5b505b6040517f08c379a0000000000000000000000000000000000000000000000000000000008152600401612490906140e7565b60405180910390fd5b63f23a6e6160e01b7bffffffffffffffffffffffffffffffffffffffffffffffffffffffff1916817bffffffffffffffffffffffffffffffffffffffffffffffffffffffff191614612520576040517f08c379a000000000000000000000000000000000000000000000000000000000815260040161251790614179565b60405180910390fd5b505b505050505050565b6000600360009054906101000a900473ffffffffffffffffffffffffffffffffffffffff16905081600360006101000a81548173ffffffffffffffffffffffffffffffffffffffff021916908373ffffffffffffffffffffffffffffffffffffffff1602179055508173ffffffffffffffffffffffffffffffffffffffff168173ffffffffffffffffffffffffffffffffffffffff167f8be0079c531659141344cd1fd0a4f28419497f9722a3daafe3b4186f6b6457e060405160405180910390a35050565b60007fd9b67a26000000000000000000000000000000000000000000000000000000007bffffffffffffffffffffffffffffffffffffffffffffffffffffffff1916827bffffffffffffffffffffffffffffffffffffffffffffffffffffffff191603612660576001905061266c565b612669826126c0565b90505b919050565b6000818361267f9190613477565b905092915050565b600081836126959190613d97565b905092915050565b6000808273ffffffffffffffffffffffffffffffffffffffff163b119050919050565b60007f01ffc9a7000000000000000000000000000000000000000000000000000000007bffffffffffffffffffffffffffffffffffffffffffffffffffffffff1916827bffffffffffffffffffffffffffffffffffffffffffffffffffffffff1916149050919050565b82805461273690613356565b90600052602060002090601f016020900481019282612758576000855561279f565b82601f1061277157805160ff191683800117855561279f565b8280016001018555821561279f579182015b8281111561279e578251825591602001919060010190612783565b5b5090506127ac91906127b0565b5090565b5b808211156127c95760008160009055506001016127b1565b5090565b6000604051905090565b600080fd5b600080fd5b600073ffffffffffffffffffffffffffffffffffffffff82169050919050565b600061280c826127e1565b9050919050565b61281c81612801565b811461282757600080fd5b50565b60008135905061283981612813565b92915050565b6000819050919050565b6128528161283f565b811461285d57600080fd5b50565b60008135905061286f81612849565b92915050565b6000806040838503121561288c5761288b6127d7565b5b600061289a8582860161282a565b92505060206128ab85828601612860565b9150509250929050565b6128be8161283f565b82525050565b60006020820190506128d960008301846128b5565b92915050565b60007fffffffff0000000000000000000000000000000000000000000000000000000082169050919050565b612914816128df565b811461291f57600080fd5b50565b6000813590506129318161290b565b92915050565b60006020828403121561294d5761294c6127d7565b5b600061295b84828501612922565b91505092915050565b60008115159050919050565b61297981612964565b82525050565b60006020820190506129946000830184612970565b92915050565b600081519050919050565b600082825260208201905092915050565b60005b838110156129d45780820151818401526020810190506129b9565b838111156129e3576000848401525b50505050565b6000601f19601f8301169050919050565b6000612a058261299a565b612a0f81856129a5565b9350612a1f8185602086016129b6565b612a28816129e9565b840191505092915050565b60006020820190508181036000830152612a4d81846129fa565b905092915050565b600080fd5b7f4e487b7100000000000000000000000000000000000000000000000000000000600052604160045260246000fd5b612a92826129e9565b810181811067ffffffffffffffff82111715612ab157612ab0612a5a565b5b80604052505050565b6000612ac46127cd565b9050612ad08282612a89565b919050565b600067ffffffffffffffff821115612af057612aef612a5a565b5b602082029050602081019050919050565b600080fd5b6000612b19612b1484612ad5565b612aba565b90508083825260208201905060208402830185811115612b3c57612b3b612b01565b5b835b81811015612b655780612b518882612860565b845260208401935050602081019050612b3e565b5050509392505050565b600082601f830112612b8457612b83612a55565b5b8135612b94848260208601612b06565b91505092915050565b600080600060608486031215612bb657612bb56127d7565b5b6000612bc48682870161282a565b935050602084013567ffffffffffffffff811115612be557612be46127dc565b5b612bf186828701612b6f565b925050604084013567ffffffffffffffff811115612c1257612c116127dc565b5b612c1e86828701612b6f565b9150509250925092565b600060208284031215612c3e57612c3d6127d7565b5b6000612c4c84828501612860565b91505092915050565b600080600060608486031215612c6e57612c6d6127d7565b5b6000612c7c8682870161282a565b9350506020612c8d86828701612860565b9250506040612c9e86828701612860565b9150509250925092565b600080fd5b600067ffffffffffffffff821115612cc857612cc7612a5a565b5b612cd1826129e9565b9050602081019050919050565b82818337600083830152505050565b6000612d00612cfb84612cad565b612aba565b905082815260208101848484011115612d1c57612d1b612ca8565b5b612d27848285612cde565b509392505050565b600082601f830112612d4457612d43612a55565b5b8135612d54848260208601612ced565b91505092915050565b600080600080600060a08688031215612d7957612d786127d7565b5b6000612d878882890161282a565b9550506020612d988882890161282a565b945050604086013567ffffffffffffffff811115612db957612db86127dc565b5b612dc588828901612b6f565b935050606086013567ffffffffffffffff811115612de657612de56127dc565b5b612df288828901612b6f565b925050608086013567ffffffffffffffff811115612e1357612e126127dc565b5b612e1f88828901612d2f565b9150509295509295909350565b600067ffffffffffffffff821115612e4757612e46612a5a565b5b602082029050602081019050919050565b6000612e6b612e6684612e2c565b612aba565b90508083825260208201905060208402830185811115612e8e57612e8d612b01565b5b835b81811015612eb75780612ea3888261282a565b845260208401935050602081019050612e90565b5050509392505050565b600082601f830112612ed657612ed5612a55565b5b8135612ee6848260208601612e58565b91505092915050565b60008060408385031215612f0657612f056127d7565b5b600083013567ffffffffffffffff811115612f2457612f236127dc565b5b612f3085828601612ec1565b925050602083013567ffffffffffffffff811115612f5157612f506127dc565b5b612f5d85828601612b6f565b9150509250929050565b600081519050919050565b600082825260208201905092915050565b6000819050602082019050919050565b612f9c8161283f565b82525050565b6000612fae8383612f93565b60208301905092915050565b6000602082019050919050565b6000612fd282612f67565b612fdc8185612f72565b9350612fe783612f83565b8060005b83811015613018578151612fff8882612fa2565b975061300a83612fba565b925050600181019050612feb565b5085935050505092915050565b6000602082019050818103600083015261303f8184612fc7565b905092915050565b60006020828403121561305d5761305c6127d7565b5b600061306b8482850161282a565b91505092915050565b600067ffffffffffffffff82111561308f5761308e612a5a565b5b613098826129e9565b9050602081019050919050565b60006130b86130b384613074565b612aba565b9050828152602081018484840111156130d4576130d3612ca8565b5b6130df848285612cde565b509392505050565b600082601f8301126130fc576130fb612a55565b5b813561310c8482602086016130a5565b91505092915050565b60006020828403121561312b5761312a6127d7565b5b600082013567ffffffffffffffff811115613149576131486127dc565b5b613155848285016130e7565b91505092915050565b61316781612801565b82525050565b6000602082019050613182600083018461315e565b92915050565b61319181612964565b811461319c57600080fd5b50565b6000813590506131ae81613188565b92915050565b600080604083850312156131cb576131ca6127d7565b5b60006131d98582860161282a565b92505060206131ea8582860161319f565b9150509250929050565b6000806040838503121561320b5761320a6127d7565b5b60006132198582860161282a565b925050602083013567ffffffffffffffff81111561323a576132396127dc565b5b61324685828601612b6f565b9150509250929050565b60008060408385031215613267576132666127d7565b5b60006132758582860161282a565b92505060206132868582860161282a565b9150509250929050565b600080600080600060a086880312156132ac576132ab6127d7565b5b60006132ba8882890161282a565b95505060206132cb8882890161282a565b94505060406132dc88828901612860565b93505060606132ed88828901612860565b925050608086013567ffffffffffffffff81111561330e5761330d6127dc565b5b61331a88828901612d2f565b9150509295509295909350565b7f4e487b7100000000000000000000000000000000000000000000000000000000600052602260045260246000fd5b6000600282049050600182168061336e57607f821691505b60208210810361338157613380613327565b5b50919050565b7f4e487b7100000000000000000000000000000000000000000000000000000000600052603260045260246000fd5b7f455243313135355472616461626c652362617463684d696e743a204f4e4c595f60008201527f43524541544f525f414c4c4f5745440000000000000000000000000000000000602082015250565b6000613412602f836129a5565b915061341d826133b6565b604082019050919050565b6000602082019050818103600083015261344181613405565b9050919050565b7f4e487b7100000000000000000000000000000000000000000000000000000000600052601160045260246000fd5b60006134828261283f565b915061348d8361283f565b9250827fffffffffffffffffffffffffffffffffffffffffffffffffffffffffffffffff038211156134c2576134c1613448565b5b828201905092915050565b60006134d88261283f565b91507fffffffffffffffffffffffffffffffffffffffffffffffffffffffffffffffff820361350a57613509613448565b5b600182019050919050565b7f4552433732315472616461626c65237572693a204e4f4e4558495354454e545f60008201527f544f4b454e000000000000000000000000000000000000000000000000000000602082015250565b60006135716025836129a5565b915061357c82613515565b604082019050919050565b600060208201905081810360008301526135a081613564565b9050919050565b600081905092915050565b60008190508160005260206000209050919050565b600081546135d481613356565b6135de81866135a7565b945060018216600081146135f9576001811461360a5761363d565b60ff1983168652818601935061363d565b613613856135b2565b60005b8381101561363557815481890152600182019150602081019050613616565b838801955050505b50505092915050565b60006136518261299a565b61365b81856135a7565b935061366b8185602086016129b6565b80840191505092915050565b600061368382856135c7565b915061368f8284613646565b91508190509392505050565b7f4e6f7420616c6c6f776564000000000000000000000000000000000000000000600082015250565b60006136d1600b836129a5565b91506136dc8261369b565b602082019050919050565b60006020820190508181036000830152613700816136c4565b9050919050565b7f455243313135355472616461626c652363726561746f724f6e6c793a204f4e4c60008201527f595f43524541544f525f414c4c4f574544000000000000000000000000000000602082015250565b60006137636031836129a5565b915061376e82613707565b604082019050919050565b6000602082019050818103600083015261379281613756565b9050919050565b7f45524331313535237361666542617463685472616e7366657246726f6d3a204960008201527f4e56414c49445f4f50455241544f520000000000000000000000000000000000602082015250565b60006137f5602f836129a5565b915061380082613799565b604082019050919050565b60006020820190508181036000830152613824816137e8565b9050919050565b7f45524331313535237361666542617463685472616e7366657246726f6d3a204960008201527f4e56414c49445f524543495049454e5400000000000000000000000000000000602082015250565b60006138876030836129a5565b91506138928261382b565b604082019050919050565b600060208201905081810360008301526138b68161387a565b9050919050565b7f455243313135352362616c616e63654f6642617463683a20494e56414c49445f60008201527f41525241595f4c454e4754480000000000000000000000000000000000000000602082015250565b6000613919602c836129a5565b9150613924826138bd565b604082019050919050565b600060208201905081810360008301526139488161390c565b9050919050565b7f4f776e61626c653a2063616c6c6572206973206e6f7420746865206f776e6572600082015250565b60006139856020836129a5565b91506139908261394f565b602082019050919050565b600060208201905081810360008301526139b481613978565b9050919050565b7f455243313135355472616461626c652373657443726561746f723a20494e564160008201527f4c49445f414444524553532e0000000000000000000000000000000000000000602082015250565b6000613a17602c836129a5565b9150613a22826139bb565b604082019050919050565b60006020820190508181036000830152613a4681613a0a565b9050919050565b6000613a5882612801565b9050919050565b613a6881613a4d565b8114613a7357600080fd5b50565b600081519050613a8581613a5f565b92915050565b600060208284031215613aa157613aa06127d7565b5b6000613aaf84828501613a76565b91505092915050565b7f4552433131353523736166655472616e7366657246726f6d3a20494e56414c4960008201527f445f4f50455241544f5200000000000000000000000000000000000000000000602082015250565b6000613b14602a836129a5565b9150613b1f82613ab8565b604082019050919050565b60006020820190508181036000830152613b4381613b07565b9050919050565b7f4552433131353523736166655472616e7366657246726f6d3a20494e56414c4960008201527f445f524543495049454e54000000000000000000000000000000000000000000602082015250565b6000613ba6602b836129a5565b9150613bb182613b4a565b604082019050919050565b60006020820190508181036000830152613bd581613b99565b9050919050565b7f4f776e61626c653a206e6577206f776e657220697320746865207a65726f206160008201527f6464726573730000000000000000000000000000000000000000000000000000602082015250565b6000613c386026836129a5565b9150613c4382613bdc565b604082019050919050565b60006020820190508181036000830152613c6781613c2b565b9050919050565b7f455243313135354d696e744275726e2362617463684d696e743a20494e56414c60008201527f49445f4152524159535f4c454e47544800000000000000000000000000000000602082015250565b6000613cca6030836129a5565b9150613cd582613c6e565b604082019050919050565b60006020820190508181036000830152613cf981613cbd565b9050919050565b60006040820190508181036000830152613d1a8185612fc7565b90508181036020830152613d2e8184612fc7565b90509392505050565b7f4e487b7100000000000000000000000000000000000000000000000000000000600052601260045260246000fd5b6000613d718261283f565b9150613d7c8361283f565b925082613d8c57613d8b613d37565b5b828204905092915050565b6000613da28261283f565b9150613dad8361283f565b925082821015613dc057613dbf613448565b5b828203905092915050565b6000613dd68261283f565b9150613de18361283f565b925082613df157613df0613d37565b5b828206905092915050565b6000604082019050613e1160008301856128b5565b613e1e60208301846128b5565b9392505050565b7f45524331313535235f7361666542617463685472616e7366657246726f6d3a2060008201527f494e56414c49445f4152524159535f4c454e4754480000000000000000000000602082015250565b6000613e816035836129a5565b9150613e8c82613e25565b604082019050919050565b60006020820190508181036000830152613eb081613e74565b9050919050565b600081519050919050565b600082825260208201905092915050565b6000613ede82613eb7565b613ee88185613ec2565b9350613ef88185602086016129b6565b613f01816129e9565b840191505092915050565b600060a082019050613f21600083018861315e565b613f2e602083018761315e565b8181036040830152613f408186612fc7565b90508181036060830152613f548185612fc7565b90508181036080830152613f688184613ed3565b90509695505050505050565b600081519050613f838161290b565b92915050565b600060208284031215613f9f57613f9e6127d7565b5b6000613fad84828501613f74565b91505092915050565b60008160e01c9050919050565b600060033d1115613fe25760046000803e613fdf600051613fb6565b90505b90565b600060443d1061407257613ff76127cd565b60043d036004823e80513d602482011167ffffffffffffffff8211171561401f575050614072565b808201805167ffffffffffffffff81111561403d5750505050614072565b80602083010160043d03850181111561405a575050505050614072565b61406982602001850186612a89565b82955050505050505b90565b7f455243313135353a207472616e7366657220746f206e6f6e204552433131353560008201527f526563656976657220696d706c656d656e746572000000000000000000000000602082015250565b60006140d16034836129a5565b91506140dc82614075565b604082019050919050565b60006020820190508181036000830152614100816140c4565b9050919050565b7f455243313135353a204552433131353552656365697665722072656a6563746560008201527f6420746f6b656e73000000000000000000000000000000000000000000000000602082015250565b60006141636028836129a5565b915061416e82614107565b604082019050919050565b6000602082019050818103600083015261419281614156565b9050919050565b600060a0820190506141ae600083018861315e565b6141bb602083018761315e565b6141c860408301866128b5565b6141d560608301856128b5565b81810360808301526141e78184613ed3565b9050969550505050505056fea2646970667358221220779f1f1329db14ae7d038628c8e23ee87918f792113730e11b48ea550a1112ac64736f6c634300080d0033",
  "linkReferences": {},
  "deployedLinkReferences": {}
}