{
  "_format": "hh-sol-artifact-1",
  "contractName": "ERC1155Tradable",
  "sourceName": "contracts/erc1155/ERC1155Tradable.sol",
  "abi": [
    {
      "inputs": [
        {
          "internalType": "string",
          "name": "_name",
          "type": "string"
        },
        {
          "internalType": "string",
          "name": "_symbol",
          "type": "string"
        },
        {
          "internalType": "string",
          "name": "_metadataURI",
          "type": "string"
        }
      ],
      "stateMutability": "nonpayable",
      "type": "constructor"
    },
    {
      "anonymous": false,
      "inputs": [
        {
          "indexed": true,
          "internalType": "address",
          "name": "_owner",
          "type": "address"
        },
        {
          "indexed": true,
          "internalType": "address",
          "name": "_operator",
          "type": "address"
        },
        {
          "indexed": false,
          "internalType": "bool",
          "name": "_approved",
          "type": "bool"
        }
      ],
      "name": "ApprovalForAll",
      "type": "event"
    },
    {
      "anonymous": false,
      "inputs": [
        {
          "indexed": true,
          "internalType": "address",
          "name": "previousOwner",
          "type": "address"
        },
        {
          "indexed": true,
          "internalType": "address",
          "name": "newOwner",
          "type": "address"
        }
      ],
      "name": "OwnershipTransferred",
      "type": "event"
    },
    {
      "anonymous": false,
      "inputs": [
        {
          "indexed": true,
          "internalType": "address",
          "name": "_operator",
          "type": "address"
        },
        {
          "indexed": true,
          "internalType": "address",
          "name": "_from",
          "type": "address"
        },
        {
          "indexed": true,
          "internalType": "address",
          "name": "_to",
          "type": "address"
        },
        {
          "indexed": false,
          "internalType": "uint256[]",
          "name": "_ids",
          "type": "uint256[]"
        },
        {
          "indexed": false,
          "internalType": "uint256[]",
          "name": "_amounts",
          "type": "uint256[]"
        }
      ],
      "name": "TransferBatch",
      "type": "event"
    },
    {
      "anonymous": false,
      "inputs": [
        {
          "indexed": true,
          "internalType": "address",
          "name": "_operator",
          "type": "address"
        },
        {
          "indexed": true,
          "internalType": "address",
          "name": "_from",
          "type": "address"
        },
        {
          "indexed": true,
          "internalType": "address",
          "name": "_to",
          "type": "address"
        },
        {
          "indexed": false,
          "internalType": "uint256",
          "name": "_id",
          "type": "uint256"
        },
        {
          "indexed": false,
          "internalType": "uint256",
          "name": "_amount",
          "type": "uint256"
        }
      ],
      "name": "TransferSingle",
      "type": "event"
    },
    {
      "anonymous": false,
      "inputs": [
        {
          "indexed": false,
          "internalType": "string",
          "name": "_uri",
          "type": "string"
        },
        {
          "indexed": true,
          "internalType": "uint256",
          "name": "_id",
          "type": "uint256"
        }
      ],
      "name": "URI",
      "type": "event"
    },
    {
      "inputs": [
        {
          "internalType": "address",
          "name": "_owner",
          "type": "address"
        },
        {
          "internalType": "uint256",
          "name": "_id",
          "type": "uint256"
        }
      ],
      "name": "balanceOf",
      "outputs": [
        {
          "internalType": "uint256",
          "name": "",
          "type": "uint256"
        }
      ],
      "stateMutability": "view",
      "type": "function"
    },
    {
      "inputs": [
        {
          "internalType": "address[]",
          "name": "_owners",
          "type": "address[]"
        },
        {
          "internalType": "uint256[]",
          "name": "_ids",
          "type": "uint256[]"
        }
      ],
      "name": "balanceOfBatch",
      "outputs": [
        {
          "internalType": "uint256[]",
          "name": "",
          "type": "uint256[]"
        }
      ],
      "stateMutability": "view",
      "type": "function"
    },
    {
      "inputs": [],
      "name": "getNextTokenID",
      "outputs": [
        {
          "internalType": "uint8",
          "name": "",
          "type": "uint8"
        }
      ],
      "stateMutability": "view",
      "type": "function"
    },
    {
      "inputs": [
        {
          "internalType": "address",
          "name": "_owner",
          "type": "address"
        },
        {
          "internalType": "address",
          "name": "_operator",
          "type": "address"
        }
      ],
      "name": "isApprovedForAll",
      "outputs": [
        {
          "internalType": "bool",
          "name": "isOperator",
          "type": "bool"
        }
      ],
      "stateMutability": "view",
      "type": "function"
    },
    {
      "inputs": [],
      "name": "name",
      "outputs": [
        {
          "internalType": "string",
          "name": "",
          "type": "string"
        }
      ],
      "stateMutability": "view",
      "type": "function"
    },
    {
      "inputs": [],
      "name": "owner",
      "outputs": [
        {
          "internalType": "address",
          "name": "",
          "type": "address"
        }
      ],
      "stateMutability": "view",
      "type": "function"
    },
    {
      "inputs": [],
      "name": "renounceOwnership",
      "outputs": [],
      "stateMutability": "nonpayable",
      "type": "function"
    },
    {
      "inputs": [
        {
          "internalType": "address",
          "name": "_from",
          "type": "address"
        },
        {
          "internalType": "address",
          "name": "_to",
          "type": "address"
        },
        {
          "internalType": "uint256[]",
          "name": "_ids",
          "type": "uint256[]"
        },
        {
          "internalType": "uint256[]",
          "name": "_amounts",
          "type": "uint256[]"
        },
        {
          "internalType": "bytes",
          "name": "_data",
          "type": "bytes"
        }
      ],
      "name": "safeBatchTransferFrom",
      "outputs": [],
      "stateMutability": "nonpayable",
      "type": "function"
    },
    {
      "inputs": [
        {
          "internalType": "address",
          "name": "_from",
          "type": "address"
        },
        {
          "internalType": "address",
          "name": "_to",
          "type": "address"
        },
        {
          "internalType": "uint256",
          "name": "_id",
          "type": "uint256"
        },
        {
          "internalType": "uint256",
          "name": "_amount",
          "type": "uint256"
        },
        {
          "internalType": "bytes",
          "name": "_data",
          "type": "bytes"
        }
      ],
      "name": "safeTransferFrom",
      "outputs": [],
      "stateMutability": "nonpayable",
      "type": "function"
    },
    {
      "inputs": [
        {
          "internalType": "address",
          "name": "_operator",
          "type": "address"
        },
        {
          "internalType": "bool",
          "name": "_approved",
          "type": "bool"
        }
      ],
      "name": "setApprovalForAll",
      "outputs": [],
      "stateMutability": "nonpayable",
      "type": "function"
    },
    {
      "inputs": [
        {
          "internalType": "string",
          "name": "_newBaseMetadataURI",
          "type": "string"
        }
      ],
      "name": "setBaseMetadataURI",
      "outputs": [],
      "stateMutability": "nonpayable",
      "type": "function"
    },
    {
      "inputs": [
        {
          "internalType": "bytes4",
          "name": "_interfaceID",
          "type": "bytes4"
        }
      ],
      "name": "supportsInterface",
      "outputs": [
        {
          "internalType": "bool",
          "name": "",
          "type": "bool"
        }
      ],
      "stateMutability": "view",
      "type": "function"
    },
    {
      "inputs": [],
      "name": "symbol",
      "outputs": [
        {
          "internalType": "string",
          "name": "",
          "type": "string"
        }
      ],
      "stateMutability": "view",
      "type": "function"
    },
    {
      "inputs": [
        {
          "internalType": "uint256",
          "name": "",
          "type": "uint256"
        }
      ],
      "name": "tokenSupply",
      "outputs": [
        {
          "internalType": "uint256",
          "name": "",
          "type": "uint256"
        }
      ],
      "stateMutability": "view",
      "type": "function"
    },
    {
      "inputs": [
        {
          "internalType": "uint256",
          "name": "_id",
          "type": "uint256"
        }
      ],
      "name": "totalSupply",
      "outputs": [
        {
          "internalType": "uint256",
          "name": "",
          "type": "uint256"
        }
      ],
      "stateMutability": "view",
      "type": "function"
    },
    {
      "inputs": [
        {
          "internalType": "address",
          "name": "newOwner",
          "type": "address"
        }
      ],
      "name": "transferOwnership",
      "outputs": [],
      "stateMutability": "nonpayable",
      "type": "function"
    },
    {
      "inputs": [
        {
          "internalType": "uint256",
          "name": "_id",
          "type": "uint256"
        }
      ],
      "name": "uri",
      "outputs": [
        {
          "internalType": "string",
          "name": "",
          "type": "string"
        }
      ],
      "stateMutability": "view",
      "type": "function"
    }
  ],
  "bytecode": "0x60806040523480156200001157600080fd5b5060405162003594380380620035948339818101604052810190620000379190620003da565b620000576200004b620000a360201b60201c565b620000ab60201b60201c565b82600590805190602001906200006f9291906200018d565b508160069080519060200190620000889291906200018d565b506200009a816200017160201b60201c565b505050620004f7565b600033905090565b6000600360009054906101000a900473ffffffffffffffffffffffffffffffffffffffff16905081600360006101000a81548173ffffffffffffffffffffffffffffffffffffffff021916908373ffffffffffffffffffffffffffffffffffffffff1602179055508173ffffffffffffffffffffffffffffffffffffffff168173ffffffffffffffffffffffffffffffffffffffff167f8be0079c531659141344cd1fd0a4f28419497f9722a3daafe3b4186f6b6457e060405160405180910390a35050565b8060029080519060200190620001899291906200018d565b5050565b8280546200019b90620004c2565b90600052602060002090601f016020900481019282620001bf57600085556200020b565b82601f10620001da57805160ff19168380011785556200020b565b828001600101855582156200020b579182015b828111156200020a578251825591602001919060010190620001ed565b5b5090506200021a91906200021e565b5090565b5b80821115620002395760008160009055506001016200021f565b5090565b6000604051905090565b600080fd5b600080fd5b600080fd5b600080fd5b6000601f19601f8301169050919050565b7f4e487b7100000000000000000000000000000000000000000000000000000000600052604160045260246000fd5b620002a6826200025b565b810181811067ffffffffffffffff82111715620002c857620002c76200026c565b5b80604052505050565b6000620002dd6200023d565b9050620002eb82826200029b565b919050565b600067ffffffffffffffff8211156200030e576200030d6200026c565b5b62000319826200025b565b9050602081019050919050565b60005b838110156200034657808201518184015260208101905062000329565b8381111562000356576000848401525b50505050565b6000620003736200036d84620002f0565b620002d1565b90508281526020810184848401111562000392576200039162000256565b5b6200039f84828562000326565b509392505050565b600082601f830112620003bf57620003be62000251565b5b8151620003d18482602086016200035c565b91505092915050565b600080600060608486031215620003f657620003f562000247565b5b600084015167ffffffffffffffff8111156200041757620004166200024c565b5b6200042586828701620003a7565b935050602084015167ffffffffffffffff8111156200044957620004486200024c565b5b6200045786828701620003a7565b925050604084015167ffffffffffffffff8111156200047b576200047a6200024c565b5b6200048986828701620003a7565b9150509250925092565b7f4e487b7100000000000000000000000000000000000000000000000000000000600052602260045260246000fd5b60006002820490506001821680620004db57607f821691505b602082108103620004f157620004f062000493565b5b50919050565b61308d80620005076000396000f3fe608060405234801561001057600080fd5b506004361061010a5760003560e01c8063715018a6116100a2578063a22cb46511610071578063a22cb465146102b9578063bd85b039146102d5578063e985e9c514610305578063f242432a14610335578063f2fde38b146103515761010a565b8063715018a6146102575780637e518ec8146102615780638da5cb5b1461027d57806395d89b411461029b5761010a565b80632693ebf2116100de5780632693ebf2146101bd5780632eb2c2d6146101ed5780634a198119146102095780634e1273f4146102275761010a565b8062fdd58e1461010f57806301ffc9a71461013f57806306fdde031461016f5780630e89341c1461018d575b600080fd5b61012960048036038101906101249190611ac4565b61036d565b6040516101369190611b13565b60405180910390f35b61015960048036038101906101549190611b86565b6103c7565b6040516101669190611bce565b60405180910390f35b610177610448565b6040516101849190611c82565b60405180910390f35b6101a760048036038101906101a29190611ca4565b6104d6565b6040516101b49190611c82565b60405180910390f35b6101d760048036038101906101d29190611ca4565b61057e565b6040516101e49190611b13565b60405180910390f35b61020760048036038101906102029190611ece565b610596565b005b6102116106a5565b60405161021e9190611fb9565b60405180910390f35b610241600480360381019061023c9190612097565b6106c8565b60405161024e91906121cd565b60405180910390f35b61025f610829565b005b61027b60048036038101906102769190612290565b61083d565b005b610285610851565b60405161029291906122e8565b60405180910390f35b6102a361087b565b6040516102b09190611c82565b60405180910390f35b6102d360048036038101906102ce919061232f565b610909565b005b6102ef60048036038101906102ea9190611ca4565b610a06565b6040516102fc9190611b13565b60405180910390f35b61031f600480360381019061031a919061236f565b610a23565b60405161032c9190611bce565b60405180910390f35b61034f600480360381019061034a91906123af565b610ab7565b005b61036b60048036038101906103669190612446565b610bc6565b005b60008060008473ffffffffffffffffffffffffffffffffffffffff1673ffffffffffffffffffffffffffffffffffffffff168152602001908152602001600020600083815260200190815260200160002054905092915050565b60007fd9b67a26000000000000000000000000000000000000000000000000000000007bffffffffffffffffffffffffffffffffffffffffffffffffffffffff1916827bffffffffffffffffffffffffffffffffffffffffffffffffffffffff1916036104375760019050610443565b61044082610c49565b90505b919050565b60058054610455906124a2565b80601f0160208091040260200160405190810160405280929190818152602001828054610481906124a2565b80156104ce5780601f106104a3576101008083540402835291602001916104ce565b820191906000526020600020905b8154815290600101906020018083116104b157829003601f168201915b505050505081565b60606104e182610cca565b610520576040517f08c379a000000000000000000000000000000000000000000000000000000000815260040161051790612545565b60405180910390fd5b60006002805461052f906124a2565b90501161054b5760405180602001604052806000815250610577565b600261055683610ce9565b604051602001610567929190612635565b6040516020818303038152906040525b9050919050565b60046020528060005260406000206000915090505481565b8473ffffffffffffffffffffffffffffffffffffffff163373ffffffffffffffffffffffffffffffffffffffff1614806105d657506105d58533610a23565b5b610615576040517f08c379a000000000000000000000000000000000000000000000000000000000815260040161060c906126cb565b60405180910390fd5b600073ffffffffffffffffffffffffffffffffffffffff168473ffffffffffffffffffffffffffffffffffffffff1603610684576040517f08c379a000000000000000000000000000000000000000000000000000000000815260040161067b9061275d565b60405180910390fd5b61069085858585610e49565b61069e858585855a8661113d565b5050505050565b60006001600360149054906101000a900460ff166106c391906127ac565b905090565b6060815183511461070e576040517f08c379a000000000000000000000000000000000000000000000000000000000815260040161070590612855565b60405180910390fd5b6000835167ffffffffffffffff81111561072b5761072a611cd6565b5b6040519080825280602002602001820160405280156107595781602001602082028036833780820191505090505b50905060005b845181101561081e5760008086838151811061077e5761077d612875565b5b602002602001015173ffffffffffffffffffffffffffffffffffffffff1673ffffffffffffffffffffffffffffffffffffffff16815260200190815260200160002060008583815181106107d5576107d4612875565b5b60200260200101518152602001908152602001600020548282815181106107ff576107fe612875565b5b6020026020010181815250508080610816906128a4565b91505061075f565b508091505092915050565b610831611314565b61083b6000611392565b565b610845611314565b61084e81611458565b50565b6000600360009054906101000a900473ffffffffffffffffffffffffffffffffffffffff16905090565b60068054610888906124a2565b80601f01602080910402602001604051908101604052809291908181526020018280546108b4906124a2565b80156109015780601f106108d657610100808354040283529160200191610901565b820191906000526020600020905b8154815290600101906020018083116108e457829003601f168201915b505050505081565b80600160003373ffffffffffffffffffffffffffffffffffffffff1673ffffffffffffffffffffffffffffffffffffffff16815260200190815260200160002060008473ffffffffffffffffffffffffffffffffffffffff1673ffffffffffffffffffffffffffffffffffffffff16815260200190815260200160002060006101000a81548160ff0219169083151502179055508173ffffffffffffffffffffffffffffffffffffffff163373ffffffffffffffffffffffffffffffffffffffff167f17307eab39ab6107e8899845ad3d59bd9653f200f220920489ca2b5937696c31836040516109fa9190611bce565b60405180910390a35050565b600060046000838152602001908152602001600020549050919050565b6000600160008473ffffffffffffffffffffffffffffffffffffffff1673ffffffffffffffffffffffffffffffffffffffff16815260200190815260200160002060008373ffffffffffffffffffffffffffffffffffffffff1673ffffffffffffffffffffffffffffffffffffffff16815260200190815260200160002060009054906101000a900460ff16905092915050565b8473ffffffffffffffffffffffffffffffffffffffff163373ffffffffffffffffffffffffffffffffffffffff161480610af75750610af68533610a23565b5b610b36576040517f08c379a0000000000000000000000000000000000000000000000000000000008152600401610b2d9061295e565b60405180910390fd5b600073ffffffffffffffffffffffffffffffffffffffff168473ffffffffffffffffffffffffffffffffffffffff1603610ba5576040517f08c379a0000000000000000000000000000000000000000000000000000000008152600401610b9c906129f0565b60405180910390fd5b610bb185858585611472565b610bbf858585855a86611660565b5050505050565b610bce611314565b600073ffffffffffffffffffffffffffffffffffffffff168173ffffffffffffffffffffffffffffffffffffffff1603610c3d576040517f08c379a0000000000000000000000000000000000000000000000000000000008152600401610c3490612a82565b60405180910390fd5b610c4681611392565b50565b60007f0e89341c000000000000000000000000000000000000000000000000000000007bffffffffffffffffffffffffffffffffffffffffffffffffffffffff1916827bffffffffffffffffffffffffffffffffffffffffffffffffffffffff191603610cb95760019050610cc5565b610cc282611837565b90505b919050565b6000806004600084815260200190815260200160002054119050919050565b606060008203610d30576040518060400160405280600181526020017f30000000000000000000000000000000000000000000000000000000000000008152509050610e44565b600082905060005b60008214610d62578080610d4b906128a4565b915050600a82610d5b9190612ad1565b9150610d38565b60008167ffffffffffffffff811115610d7e57610d7d611cd6565b5b6040519080825280601f01601f191660200182016040528015610db05781602001600182028036833780820191505090505b5090505b60008514610e3d57600182610dc99190612b02565b9150600a85610dd89190612b36565b6030610de49190612b67565b60f81b818381518110610dfa57610df9612875565b5b60200101907effffffffffffffffffffffffffffffffffffffffffffffffffffffffffffff1916908160001a905350600a85610e369190612ad1565b9450610db4565b8093505050505b919050565b8051825114610e8d576040517f08c379a0000000000000000000000000000000000000000000000000000000008152600401610e8490612c2f565b60405180910390fd5b60008251905060005b818110156110b757610f34838281518110610eb457610eb3612875565b5b60200260200101516000808973ffffffffffffffffffffffffffffffffffffffff1673ffffffffffffffffffffffffffffffffffffffff1681526020019081526020016000206000878581518110610f0f57610f0e612875565b5b60200260200101518152602001908152602001600020546118b890919063ffffffff16565b6000808873ffffffffffffffffffffffffffffffffffffffff1673ffffffffffffffffffffffffffffffffffffffff1681526020019081526020016000206000868481518110610f8757610f86612875565b5b6020026020010151815260200190815260200160002081905550611037838281518110610fb757610fb6612875565b5b60200260200101516000808873ffffffffffffffffffffffffffffffffffffffff1673ffffffffffffffffffffffffffffffffffffffff168152602001908152602001600020600087858151811061101257611011612875565b5b60200260200101518152602001908152602001600020546118ce90919063ffffffff16565b6000808773ffffffffffffffffffffffffffffffffffffffff1673ffffffffffffffffffffffffffffffffffffffff168152602001908152602001600020600086848151811061108a57611089612875565b5b602002602001015181526020019081526020016000208190555080806110af906128a4565b915050610e96565b508373ffffffffffffffffffffffffffffffffffffffff168573ffffffffffffffffffffffffffffffffffffffff163373ffffffffffffffffffffffffffffffffffffffff167f4a39dc06d4c0dbc64b70af90fd698a233a518aa5d07e595d983b8c0526c8f7fb868660405161112e929190612c4f565b60405180910390a45050505050565b61115c8573ffffffffffffffffffffffffffffffffffffffff166118e4565b1561130c578473ffffffffffffffffffffffffffffffffffffffff1663bc197c8133888787866040518663ffffffff1660e01b81526004016111a2959493929190612cdb565b6020604051808303816000875af19250505080156111de57506040513d601f19601f820116820180604052508101906111db9190612d58565b60015b611283576111ea612d92565b806308c379a00361124657506111fe612db4565b806112095750611248565b806040517f08c379a000000000000000000000000000000000000000000000000000000000815260040161123d9190611c82565b60405180910390fd5b505b6040517f08c379a000000000000000000000000000000000000000000000000000000000815260040161127a90612eb6565b60405180910390fd5b63bc197c8160e01b7bffffffffffffffffffffffffffffffffffffffffffffffffffffffff1916817bffffffffffffffffffffffffffffffffffffffffffffffffffffffff19161461130a576040517f08c379a000000000000000000000000000000000000000000000000000000000815260040161130190612f48565b60405180910390fd5b505b505050505050565b61131c611907565b73ffffffffffffffffffffffffffffffffffffffff1661133a610851565b73ffffffffffffffffffffffffffffffffffffffff1614611390576040517f08c379a000000000000000000000000000000000000000000000000000000000815260040161138790612fb4565b60405180910390fd5b565b6000600360009054906101000a900473ffffffffffffffffffffffffffffffffffffffff16905081600360006101000a81548173ffffffffffffffffffffffffffffffffffffffff021916908373ffffffffffffffffffffffffffffffffffffffff1602179055508173ffffffffffffffffffffffffffffffffffffffff168173ffffffffffffffffffffffffffffffffffffffff167f8be0079c531659141344cd1fd0a4f28419497f9722a3daafe3b4186f6b6457e060405160405180910390a35050565b806002908051906020019061146e929190611979565b5050565b6114d4816000808773ffffffffffffffffffffffffffffffffffffffff1673ffffffffffffffffffffffffffffffffffffffff1681526020019081526020016000206000858152602001908152602001600020546118b890919063ffffffff16565b6000808673ffffffffffffffffffffffffffffffffffffffff1673ffffffffffffffffffffffffffffffffffffffff168152602001908152602001600020600084815260200190815260200160002081905550611589816000808673ffffffffffffffffffffffffffffffffffffffff1673ffffffffffffffffffffffffffffffffffffffff1681526020019081526020016000206000858152602001908152602001600020546118ce90919063ffffffff16565b6000808573ffffffffffffffffffffffffffffffffffffffff1673ffffffffffffffffffffffffffffffffffffffff1681526020019081526020016000206000848152602001908152602001600020819055508273ffffffffffffffffffffffffffffffffffffffff168473ffffffffffffffffffffffffffffffffffffffff163373ffffffffffffffffffffffffffffffffffffffff167fc3d58168c5ae7397731d063d5bbf3d657854427343f4c083240f7aacaa2d0f628585604051611652929190612fd4565b60405180910390a450505050565b61167f8573ffffffffffffffffffffffffffffffffffffffff166118e4565b1561182f578473ffffffffffffffffffffffffffffffffffffffff1663f23a6e6133888787866040518663ffffffff1660e01b81526004016116c5959493929190612ffd565b6020604051808303816000875af192505050801561170157506040513d601f19601f820116820180604052508101906116fe9190612d58565b60015b6117a65761170d612d92565b806308c379a0036117695750611721612db4565b8061172c575061176b565b806040517f08c379a00000000000000000000000000000000000000000000000000000000081526004016117609190611c82565b60405180910390fd5b505b6040517f08c379a000000000000000000000000000000000000000000000000000000000815260040161179d90612eb6565b60405180910390fd5b63f23a6e6160e01b7bffffffffffffffffffffffffffffffffffffffffffffffffffffffff1916817bffffffffffffffffffffffffffffffffffffffffffffffffffffffff19161461182d576040517f08c379a000000000000000000000000000000000000000000000000000000000815260040161182490612f48565b60405180910390fd5b505b505050505050565b60007fd9b67a26000000000000000000000000000000000000000000000000000000007bffffffffffffffffffffffffffffffffffffffffffffffffffffffff1916827bffffffffffffffffffffffffffffffffffffffffffffffffffffffff1916036118a757600190506118b3565b6118b08261190f565b90505b919050565b600081836118c69190612b02565b905092915050565b600081836118dc9190612b67565b905092915050565b6000808273ffffffffffffffffffffffffffffffffffffffff163b119050919050565b600033905090565b60007f01ffc9a7000000000000000000000000000000000000000000000000000000007bffffffffffffffffffffffffffffffffffffffffffffffffffffffff1916827bffffffffffffffffffffffffffffffffffffffffffffffffffffffff1916149050919050565b828054611985906124a2565b90600052602060002090601f0160209004810192826119a757600085556119ee565b82601f106119c057805160ff19168380011785556119ee565b828001600101855582156119ee579182015b828111156119ed5782518255916020019190600101906119d2565b5b5090506119fb91906119ff565b5090565b5b80821115611a18576000816000905550600101611a00565b5090565b6000604051905090565b600080fd5b600080fd5b600073ffffffffffffffffffffffffffffffffffffffff82169050919050565b6000611a5b82611a30565b9050919050565b611a6b81611a50565b8114611a7657600080fd5b50565b600081359050611a8881611a62565b92915050565b6000819050919050565b611aa181611a8e565b8114611aac57600080fd5b50565b600081359050611abe81611a98565b92915050565b60008060408385031215611adb57611ada611a26565b5b6000611ae985828601611a79565b9250506020611afa85828601611aaf565b9150509250929050565b611b0d81611a8e565b82525050565b6000602082019050611b286000830184611b04565b92915050565b60007fffffffff0000000000000000000000000000000000000000000000000000000082169050919050565b611b6381611b2e565b8114611b6e57600080fd5b50565b600081359050611b8081611b5a565b92915050565b600060208284031215611b9c57611b9b611a26565b5b6000611baa84828501611b71565b91505092915050565b60008115159050919050565b611bc881611bb3565b82525050565b6000602082019050611be36000830184611bbf565b92915050565b600081519050919050565b600082825260208201905092915050565b60005b83811015611c23578082015181840152602081019050611c08565b83811115611c32576000848401525b50505050565b6000601f19601f8301169050919050565b6000611c5482611be9565b611c5e8185611bf4565b9350611c6e818560208601611c05565b611c7781611c38565b840191505092915050565b60006020820190508181036000830152611c9c8184611c49565b905092915050565b600060208284031215611cba57611cb9611a26565b5b6000611cc884828501611aaf565b91505092915050565b600080fd5b7f4e487b7100000000000000000000000000000000000000000000000000000000600052604160045260246000fd5b611d0e82611c38565b810181811067ffffffffffffffff82111715611d2d57611d2c611cd6565b5b80604052505050565b6000611d40611a1c565b9050611d4c8282611d05565b919050565b600067ffffffffffffffff821115611d6c57611d6b611cd6565b5b602082029050602081019050919050565b600080fd5b6000611d95611d9084611d51565b611d36565b90508083825260208201905060208402830185811115611db857611db7611d7d565b5b835b81811015611de15780611dcd8882611aaf565b845260208401935050602081019050611dba565b5050509392505050565b600082601f830112611e0057611dff611cd1565b5b8135611e10848260208601611d82565b91505092915050565b600080fd5b600067ffffffffffffffff821115611e3957611e38611cd6565b5b611e4282611c38565b9050602081019050919050565b82818337600083830152505050565b6000611e71611e6c84611e1e565b611d36565b905082815260208101848484011115611e8d57611e8c611e19565b5b611e98848285611e4f565b509392505050565b600082601f830112611eb557611eb4611cd1565b5b8135611ec5848260208601611e5e565b91505092915050565b600080600080600060a08688031215611eea57611ee9611a26565b5b6000611ef888828901611a79565b9550506020611f0988828901611a79565b945050604086013567ffffffffffffffff811115611f2a57611f29611a2b565b5b611f3688828901611deb565b935050606086013567ffffffffffffffff811115611f5757611f56611a2b565b5b611f6388828901611deb565b925050608086013567ffffffffffffffff811115611f8457611f83611a2b565b5b611f9088828901611ea0565b9150509295509295909350565b600060ff82169050919050565b611fb381611f9d565b82525050565b6000602082019050611fce6000830184611faa565b92915050565b600067ffffffffffffffff821115611fef57611fee611cd6565b5b602082029050602081019050919050565b600061201361200e84611fd4565b611d36565b9050808382526020820190506020840283018581111561203657612035611d7d565b5b835b8181101561205f578061204b8882611a79565b845260208401935050602081019050612038565b5050509392505050565b600082601f83011261207e5761207d611cd1565b5b813561208e848260208601612000565b91505092915050565b600080604083850312156120ae576120ad611a26565b5b600083013567ffffffffffffffff8111156120cc576120cb611a2b565b5b6120d885828601612069565b925050602083013567ffffffffffffffff8111156120f9576120f8611a2b565b5b61210585828601611deb565b9150509250929050565b600081519050919050565b600082825260208201905092915050565b6000819050602082019050919050565b61214481611a8e565b82525050565b6000612156838361213b565b60208301905092915050565b6000602082019050919050565b600061217a8261210f565b612184818561211a565b935061218f8361212b565b8060005b838110156121c05781516121a7888261214a565b97506121b283612162565b925050600181019050612193565b5085935050505092915050565b600060208201905081810360008301526121e7818461216f565b905092915050565b600067ffffffffffffffff82111561220a57612209611cd6565b5b61221382611c38565b9050602081019050919050565b600061223361222e846121ef565b611d36565b90508281526020810184848401111561224f5761224e611e19565b5b61225a848285611e4f565b509392505050565b600082601f83011261227757612276611cd1565b5b8135612287848260208601612220565b91505092915050565b6000602082840312156122a6576122a5611a26565b5b600082013567ffffffffffffffff8111156122c4576122c3611a2b565b5b6122d084828501612262565b91505092915050565b6122e281611a50565b82525050565b60006020820190506122fd60008301846122d9565b92915050565b61230c81611bb3565b811461231757600080fd5b50565b60008135905061232981612303565b92915050565b6000806040838503121561234657612345611a26565b5b600061235485828601611a79565b92505060206123658582860161231a565b9150509250929050565b6000806040838503121561238657612385611a26565b5b600061239485828601611a79565b92505060206123a585828601611a79565b9150509250929050565b600080600080600060a086880312156123cb576123ca611a26565b5b60006123d988828901611a79565b95505060206123ea88828901611a79565b94505060406123fb88828901611aaf565b935050606061240c88828901611aaf565b925050608086013567ffffffffffffffff81111561242d5761242c611a2b565b5b61243988828901611ea0565b9150509295509295909350565b60006020828403121561245c5761245b611a26565b5b600061246a84828501611a79565b91505092915050565b7f4e487b7100000000000000000000000000000000000000000000000000000000600052602260045260246000fd5b600060028204905060018216806124ba57607f821691505b6020821081036124cd576124cc612473565b5b50919050565b7f45524331313535547261646561626c65237572693a204e4f4e4558495354454e60008201527f545f544f4b454e00000000000000000000000000000000000000000000000000602082015250565b600061252f602783611bf4565b915061253a826124d3565b604082019050919050565b6000602082019050818103600083015261255e81612522565b9050919050565b600081905092915050565b60008190508160005260206000209050919050565b60008154612592816124a2565b61259c8186612565565b945060018216600081146125b757600181146125c8576125fb565b60ff198316865281860193506125fb565b6125d185612570565b60005b838110156125f3578154818901526001820191506020810190506125d4565b838801955050505b50505092915050565b600061260f82611be9565b6126198185612565565b9350612629818560208601611c05565b80840191505092915050565b60006126418285612585565b915061264d8284612604565b91508190509392505050565b7f45524331313535237361666542617463685472616e7366657246726f6d3a204960008201527f4e56414c49445f4f50455241544f520000000000000000000000000000000000602082015250565b60006126b5602f83611bf4565b91506126c082612659565b604082019050919050565b600060208201905081810360008301526126e4816126a8565b9050919050565b7f45524331313535237361666542617463685472616e7366657246726f6d3a204960008201527f4e56414c49445f524543495049454e5400000000000000000000000000000000602082015250565b6000612747603083611bf4565b9150612752826126eb565b604082019050919050565b600060208201905081810360008301526127768161273a565b9050919050565b7f4e487b7100000000000000000000000000000000000000000000000000000000600052601160045260246000fd5b60006127b782611f9d565b91506127c283611f9d565b92508260ff038211156127d8576127d761277d565b5b828201905092915050565b7f455243313135352362616c616e63654f6642617463683a20494e56414c49445f60008201527f41525241595f4c454e4754480000000000000000000000000000000000000000602082015250565b600061283f602c83611bf4565b915061284a826127e3565b604082019050919050565b6000602082019050818103600083015261286e81612832565b9050919050565b7f4e487b7100000000000000000000000000000000000000000000000000000000600052603260045260246000fd5b60006128af82611a8e565b91507fffffffffffffffffffffffffffffffffffffffffffffffffffffffffffffffff82036128e1576128e061277d565b5b600182019050919050565b7f4552433131353523736166655472616e7366657246726f6d3a20494e56414c4960008201527f445f4f50455241544f5200000000000000000000000000000000000000000000602082015250565b6000612948602a83611bf4565b9150612953826128ec565b604082019050919050565b600060208201905081810360008301526129778161293b565b9050919050565b7f4552433131353523736166655472616e7366657246726f6d3a20494e56414c4960008201527f445f524543495049454e54000000000000000000000000000000000000000000602082015250565b60006129da602b83611bf4565b91506129e58261297e565b604082019050919050565b60006020820190508181036000830152612a09816129cd565b9050919050565b7f4f776e61626c653a206e6577206f776e657220697320746865207a65726f206160008201527f6464726573730000000000000000000000000000000000000000000000000000602082015250565b6000612a6c602683611bf4565b9150612a7782612a10565b604082019050919050565b60006020820190508181036000830152612a9b81612a5f565b9050919050565b7f4e487b7100000000000000000000000000000000000000000000000000000000600052601260045260246000fd5b6000612adc82611a8e565b9150612ae783611a8e565b925082612af757612af6612aa2565b5b828204905092915050565b6000612b0d82611a8e565b9150612b1883611a8e565b925082821015612b2b57612b2a61277d565b5b828203905092915050565b6000612b4182611a8e565b9150612b4c83611a8e565b925082612b5c57612b5b612aa2565b5b828206905092915050565b6000612b7282611a8e565b9150612b7d83611a8e565b9250827fffffffffffffffffffffffffffffffffffffffffffffffffffffffffffffffff03821115612bb257612bb161277d565b5b828201905092915050565b7f45524331313535235f7361666542617463685472616e7366657246726f6d3a2060008201527f494e56414c49445f4152524159535f4c454e4754480000000000000000000000602082015250565b6000612c19603583611bf4565b9150612c2482612bbd565b604082019050919050565b60006020820190508181036000830152612c4881612c0c565b9050919050565b60006040820190508181036000830152612c69818561216f565b90508181036020830152612c7d818461216f565b90509392505050565b600081519050919050565b600082825260208201905092915050565b6000612cad82612c86565b612cb78185612c91565b9350612cc7818560208601611c05565b612cd081611c38565b840191505092915050565b600060a082019050612cf060008301886122d9565b612cfd60208301876122d9565b8181036040830152612d0f818661216f565b90508181036060830152612d23818561216f565b90508181036080830152612d378184612ca2565b90509695505050505050565b600081519050612d5281611b5a565b92915050565b600060208284031215612d6e57612d6d611a26565b5b6000612d7c84828501612d43565b91505092915050565b60008160e01c9050919050565b600060033d1115612db15760046000803e612dae600051612d85565b90505b90565b600060443d10612e4157612dc6611a1c565b60043d036004823e80513d602482011167ffffffffffffffff82111715612dee575050612e41565b808201805167ffffffffffffffff811115612e0c5750505050612e41565b80602083010160043d038501811115612e29575050505050612e41565b612e3882602001850186611d05565b82955050505050505b90565b7f455243313135353a207472616e7366657220746f206e6f6e204552433131353560008201527f526563656976657220696d706c656d656e746572000000000000000000000000602082015250565b6000612ea0603483611bf4565b9150612eab82612e44565b604082019050919050565b60006020820190508181036000830152612ecf81612e93565b9050919050565b7f455243313135353a204552433131353552656365697665722072656a6563746560008201527f6420746f6b656e73000000000000000000000000000000000000000000000000602082015250565b6000612f32602883611bf4565b9150612f3d82612ed6565b604082019050919050565b60006020820190508181036000830152612f6181612f25565b9050919050565b7f4f776e61626c653a2063616c6c6572206973206e6f7420746865206f776e6572600082015250565b6000612f9e602083611bf4565b9150612fa982612f68565b602082019050919050565b60006020820190508181036000830152612fcd81612f91565b9050919050565b6000604082019050612fe96000830185611b04565b612ff66020830184611b04565b9392505050565b600060a08201905061301260008301886122d9565b61301f60208301876122d9565b61302c6040830186611b04565b6130396060830185611b04565b818103608083015261304b8184612ca2565b9050969550505050505056fea264697066735822122009909a5c5f979382094e5a878ea034a81adb0ef359788f5a2ffd3d932fe5766764736f6c634300080d0033",
  "linkReferences": {},
  "deployedLinkReferences": {}
}