{
  "_format": "hh-sol-artifact-1",
  "contractName": "ERC1155Tradable",
  "sourceName": "contracts/erc1155/ERC1155Tradable.sol",
  "abi": [
    {
      "inputs": [
        {
          "internalType": "string",
          "name": "_name",
          "type": "string"
        },
        {
          "internalType": "string",
          "name": "_symbol",
          "type": "string"
        },
        {
          "internalType": "string",
          "name": "_metadataURI",
          "type": "string"
        }
      ],
      "stateMutability": "nonpayable",
      "type": "constructor"
    },
    {
      "anonymous": false,
      "inputs": [
        {
          "indexed": true,
          "internalType": "address",
          "name": "_owner",
          "type": "address"
        },
        {
          "indexed": true,
          "internalType": "address",
          "name": "_operator",
          "type": "address"
        },
        {
          "indexed": false,
          "internalType": "bool",
          "name": "_approved",
          "type": "bool"
        }
      ],
      "name": "ApprovalForAll",
      "type": "event"
    },
    {
      "anonymous": false,
      "inputs": [
        {
          "indexed": true,
          "internalType": "address",
          "name": "previousOwner",
          "type": "address"
        },
        {
          "indexed": true,
          "internalType": "address",
          "name": "newOwner",
          "type": "address"
        }
      ],
      "name": "OwnershipTransferred",
      "type": "event"
    },
    {
      "anonymous": false,
      "inputs": [
        {
          "indexed": true,
          "internalType": "address",
          "name": "_operator",
          "type": "address"
        },
        {
          "indexed": true,
          "internalType": "address",
          "name": "_from",
          "type": "address"
        },
        {
          "indexed": true,
          "internalType": "address",
          "name": "_to",
          "type": "address"
        },
        {
          "indexed": false,
          "internalType": "uint256[]",
          "name": "_ids",
          "type": "uint256[]"
        },
        {
          "indexed": false,
          "internalType": "uint256[]",
          "name": "_amounts",
          "type": "uint256[]"
        }
      ],
      "name": "TransferBatch",
      "type": "event"
    },
    {
      "anonymous": false,
      "inputs": [
        {
          "indexed": true,
          "internalType": "address",
          "name": "_operator",
          "type": "address"
        },
        {
          "indexed": true,
          "internalType": "address",
          "name": "_from",
          "type": "address"
        },
        {
          "indexed": true,
          "internalType": "address",
          "name": "_to",
          "type": "address"
        },
        {
          "indexed": false,
          "internalType": "uint256",
          "name": "_id",
          "type": "uint256"
        },
        {
          "indexed": false,
          "internalType": "uint256",
          "name": "_amount",
          "type": "uint256"
        }
      ],
      "name": "TransferSingle",
      "type": "event"
    },
    {
      "anonymous": false,
      "inputs": [
        {
          "indexed": false,
          "internalType": "string",
          "name": "_uri",
          "type": "string"
        },
        {
          "indexed": true,
          "internalType": "uint256",
          "name": "_id",
          "type": "uint256"
        }
      ],
      "name": "URI",
      "type": "event"
    },
    {
      "inputs": [
        {
          "internalType": "address",
          "name": "_owner",
          "type": "address"
        },
        {
          "internalType": "uint256",
          "name": "_id",
          "type": "uint256"
        }
      ],
      "name": "balanceOf",
      "outputs": [
        {
          "internalType": "uint256",
          "name": "",
          "type": "uint256"
        }
      ],
      "stateMutability": "view",
      "type": "function"
    },
    {
      "inputs": [
        {
          "internalType": "address[]",
          "name": "_owners",
          "type": "address[]"
        },
        {
          "internalType": "uint256[]",
          "name": "_ids",
          "type": "uint256[]"
        }
      ],
      "name": "balanceOfBatch",
      "outputs": [
        {
          "internalType": "uint256[]",
          "name": "",
          "type": "uint256[]"
        }
      ],
      "stateMutability": "view",
      "type": "function"
    },
    {
      "inputs": [],
      "name": "getNextTokenID",
      "outputs": [
        {
          "internalType": "uint8",
          "name": "",
          "type": "uint8"
        }
      ],
      "stateMutability": "view",
      "type": "function"
    },
    {
      "inputs": [
        {
          "internalType": "address",
          "name": "_owner",
          "type": "address"
        },
        {
          "internalType": "address",
          "name": "_operator",
          "type": "address"
        }
      ],
      "name": "isApprovedForAll",
      "outputs": [
        {
          "internalType": "bool",
          "name": "isOperator",
          "type": "bool"
        }
      ],
      "stateMutability": "view",
      "type": "function"
    },
    {
      "inputs": [],
      "name": "name",
      "outputs": [
        {
          "internalType": "string",
          "name": "",
          "type": "string"
        }
      ],
      "stateMutability": "view",
      "type": "function"
    },
    {
      "inputs": [],
      "name": "owner",
      "outputs": [
        {
          "internalType": "address",
          "name": "",
          "type": "address"
        }
      ],
      "stateMutability": "view",
      "type": "function"
    },
    {
      "inputs": [],
      "name": "renounceOwnership",
      "outputs": [],
      "stateMutability": "nonpayable",
      "type": "function"
    },
    {
      "inputs": [
        {
          "internalType": "address",
          "name": "_from",
          "type": "address"
        },
        {
          "internalType": "address",
          "name": "_to",
          "type": "address"
        },
        {
          "internalType": "uint256[]",
          "name": "_ids",
          "type": "uint256[]"
        },
        {
          "internalType": "uint256[]",
          "name": "_amounts",
          "type": "uint256[]"
        },
        {
          "internalType": "bytes",
          "name": "_data",
          "type": "bytes"
        }
      ],
      "name": "safeBatchTransferFrom",
      "outputs": [],
      "stateMutability": "nonpayable",
      "type": "function"
    },
    {
      "inputs": [
        {
          "internalType": "address",
          "name": "_from",
          "type": "address"
        },
        {
          "internalType": "address",
          "name": "_to",
          "type": "address"
        },
        {
          "internalType": "uint256",
          "name": "_id",
          "type": "uint256"
        },
        {
          "internalType": "uint256",
          "name": "_amount",
          "type": "uint256"
        },
        {
          "internalType": "bytes",
          "name": "_data",
          "type": "bytes"
        }
      ],
      "name": "safeTransferFrom",
      "outputs": [],
      "stateMutability": "nonpayable",
      "type": "function"
    },
    {
      "inputs": [
        {
          "internalType": "address",
          "name": "_operator",
          "type": "address"
        },
        {
          "internalType": "bool",
          "name": "_approved",
          "type": "bool"
        }
      ],
      "name": "setApprovalForAll",
      "outputs": [],
      "stateMutability": "nonpayable",
      "type": "function"
    },
    {
      "inputs": [
        {
          "internalType": "string",
          "name": "_newBaseMetadataURI",
          "type": "string"
        }
      ],
      "name": "setBaseMetadataURI",
      "outputs": [],
      "stateMutability": "nonpayable",
      "type": "function"
    },
    {
      "inputs": [
        {
          "internalType": "bytes4",
          "name": "_interfaceID",
          "type": "bytes4"
        }
      ],
      "name": "supportsInterface",
      "outputs": [
        {
          "internalType": "bool",
          "name": "",
          "type": "bool"
        }
      ],
      "stateMutability": "view",
      "type": "function"
    },
    {
      "inputs": [],
      "name": "symbol",
      "outputs": [
        {
          "internalType": "string",
          "name": "",
          "type": "string"
        }
      ],
      "stateMutability": "view",
      "type": "function"
    },
    {
      "inputs": [
        {
          "internalType": "uint256",
          "name": "",
          "type": "uint256"
        }
      ],
      "name": "tokenSupply",
      "outputs": [
        {
          "internalType": "uint256",
          "name": "",
          "type": "uint256"
        }
      ],
      "stateMutability": "view",
      "type": "function"
    },
    {
      "inputs": [
        {
          "internalType": "uint256",
          "name": "tokenId",
          "type": "uint256"
        }
      ],
      "name": "tokenURI",
      "outputs": [
        {
          "internalType": "string",
          "name": "",
          "type": "string"
        }
      ],
      "stateMutability": "view",
      "type": "function"
    },
    {
      "inputs": [
        {
          "internalType": "uint256",
          "name": "_id",
          "type": "uint256"
        }
      ],
      "name": "totalSupply",
      "outputs": [
        {
          "internalType": "uint256",
          "name": "",
          "type": "uint256"
        }
      ],
      "stateMutability": "view",
      "type": "function"
    },
    {
      "inputs": [
        {
          "internalType": "address",
          "name": "newOwner",
          "type": "address"
        }
      ],
      "name": "transferOwnership",
      "outputs": [],
      "stateMutability": "nonpayable",
      "type": "function"
    },
    {
      "inputs": [
        {
          "internalType": "uint256",
          "name": "_id",
          "type": "uint256"
        }
      ],
      "name": "uri",
      "outputs": [
        {
          "internalType": "string",
          "name": "",
          "type": "string"
        }
      ],
      "stateMutability": "view",
      "type": "function"
    }
  ],
  "bytecode": "0x60806040523480156200001157600080fd5b50604051620035e1380380620035e18339818101604052810190620000379190620003da565b620000576200004b620000a360201b60201c565b620000ab60201b60201c565b82600590805190602001906200006f9291906200018d565b508160069080519060200190620000889291906200018d565b506200009a816200017160201b60201c565b505050620004f7565b600033905090565b6000600360009054906101000a900473ffffffffffffffffffffffffffffffffffffffff16905081600360006101000a81548173ffffffffffffffffffffffffffffffffffffffff021916908373ffffffffffffffffffffffffffffffffffffffff1602179055508173ffffffffffffffffffffffffffffffffffffffff168173ffffffffffffffffffffffffffffffffffffffff167f8be0079c531659141344cd1fd0a4f28419497f9722a3daafe3b4186f6b6457e060405160405180910390a35050565b8060029080519060200190620001899291906200018d565b5050565b8280546200019b90620004c2565b90600052602060002090601f016020900481019282620001bf57600085556200020b565b82601f10620001da57805160ff19168380011785556200020b565b828001600101855582156200020b579182015b828111156200020a578251825591602001919060010190620001ed565b5b5090506200021a91906200021e565b5090565b5b80821115620002395760008160009055506001016200021f565b5090565b6000604051905090565b600080fd5b600080fd5b600080fd5b600080fd5b6000601f19601f8301169050919050565b7f4e487b7100000000000000000000000000000000000000000000000000000000600052604160045260246000fd5b620002a6826200025b565b810181811067ffffffffffffffff82111715620002c857620002c76200026c565b5b80604052505050565b6000620002dd6200023d565b9050620002eb82826200029b565b919050565b600067ffffffffffffffff8211156200030e576200030d6200026c565b5b62000319826200025b565b9050602081019050919050565b60005b838110156200034657808201518184015260208101905062000329565b8381111562000356576000848401525b50505050565b6000620003736200036d84620002f0565b620002d1565b90508281526020810184848401111562000392576200039162000256565b5b6200039f84828562000326565b509392505050565b600082601f830112620003bf57620003be62000251565b5b8151620003d18482602086016200035c565b91505092915050565b600080600060608486031215620003f657620003f562000247565b5b600084015167ffffffffffffffff8111156200041757620004166200024c565b5b6200042586828701620003a7565b935050602084015167ffffffffffffffff8111156200044957620004486200024c565b5b6200045786828701620003a7565b925050604084015167ffffffffffffffff8111156200047b576200047a6200024c565b5b6200048986828701620003a7565b9150509250925092565b7f4e487b7100000000000000000000000000000000000000000000000000000000600052602260045260246000fd5b60006002820490506001821680620004db57607f821691505b602082108103620004f157620004f062000493565b5b50919050565b6130da80620005076000396000f3fe608060405234801561001057600080fd5b50600436106101155760003560e01c80637e518ec8116100a2578063bd85b03911610071578063bd85b039146102e0578063c87b56dd14610310578063e985e9c514610340578063f242432a14610370578063f2fde38b1461038c57610115565b80637e518ec81461026c5780638da5cb5b1461028857806395d89b41146102a6578063a22cb465146102c457610115565b80632693ebf2116100e95780632693ebf2146101c85780632eb2c2d6146101f85780634a198119146102145780634e1273f414610232578063715018a61461026257610115565b8062fdd58e1461011a57806301ffc9a71461014a57806306fdde031461017a5780630e89341c14610198575b600080fd5b610134600480360381019061012f9190611b11565b6103a8565b6040516101419190611b60565b60405180910390f35b610164600480360381019061015f9190611bd3565b610402565b6040516101719190611c1b565b60405180910390f35b610182610483565b60405161018f9190611ccf565b60405180910390f35b6101b260048036038101906101ad9190611cf1565b610511565b6040516101bf9190611ccf565b60405180910390f35b6101e260048036038101906101dd9190611cf1565b6105b9565b6040516101ef9190611b60565b60405180910390f35b610212600480360381019061020d9190611f1b565b6105d1565b005b61021c6106e0565b6040516102299190612006565b60405180910390f35b61024c600480360381019061024791906120e4565b610703565b604051610259919061221a565b60405180910390f35b61026a610864565b005b610286600480360381019061028191906122dd565b610878565b005b61029061088c565b60405161029d9190612335565b60405180910390f35b6102ae6108b6565b6040516102bb9190611ccf565b60405180910390f35b6102de60048036038101906102d9919061237c565b610944565b005b6102fa60048036038101906102f59190611cf1565b610a41565b6040516103079190611b60565b60405180910390f35b61032a60048036038101906103259190611cf1565b610a5e565b6040516103379190611ccf565b60405180910390f35b61035a600480360381019061035591906123bc565b610a70565b6040516103679190611c1b565b60405180910390f35b61038a600480360381019061038591906123fc565b610b04565b005b6103a660048036038101906103a19190612493565b610c13565b005b60008060008473ffffffffffffffffffffffffffffffffffffffff1673ffffffffffffffffffffffffffffffffffffffff168152602001908152602001600020600083815260200190815260200160002054905092915050565b60007fd9b67a26000000000000000000000000000000000000000000000000000000007bffffffffffffffffffffffffffffffffffffffffffffffffffffffff1916827bffffffffffffffffffffffffffffffffffffffffffffffffffffffff191603610472576001905061047e565b61047b82610c96565b90505b919050565b60058054610490906124ef565b80601f01602080910402602001604051908101604052809291908181526020018280546104bc906124ef565b80156105095780601f106104de57610100808354040283529160200191610509565b820191906000526020600020905b8154815290600101906020018083116104ec57829003601f168201915b505050505081565b606061051c82610d17565b61055b576040517f08c379a000000000000000000000000000000000000000000000000000000000815260040161055290612592565b60405180910390fd5b60006002805461056a906124ef565b90501161058657604051806020016040528060008152506105b2565b600261059183610d36565b6040516020016105a2929190612682565b6040516020818303038152906040525b9050919050565b60046020528060005260406000206000915090505481565b8473ffffffffffffffffffffffffffffffffffffffff163373ffffffffffffffffffffffffffffffffffffffff16148061061157506106108533610a70565b5b610650576040517f08c379a000000000000000000000000000000000000000000000000000000000815260040161064790612718565b60405180910390fd5b600073ffffffffffffffffffffffffffffffffffffffff168473ffffffffffffffffffffffffffffffffffffffff16036106bf576040517f08c379a00000000000000000000000000000000000000000000000000000000081526004016106b6906127aa565b60405180910390fd5b6106cb85858585610e96565b6106d9858585855a8661118a565b5050505050565b60006001600360149054906101000a900460ff166106fe91906127f9565b905090565b60608151835114610749576040517f08c379a0000000000000000000000000000000000000000000000000000000008152600401610740906128a2565b60405180910390fd5b6000835167ffffffffffffffff81111561076657610765611d23565b5b6040519080825280602002602001820160405280156107945781602001602082028036833780820191505090505b50905060005b8451811015610859576000808683815181106107b9576107b86128c2565b5b602002602001015173ffffffffffffffffffffffffffffffffffffffff1673ffffffffffffffffffffffffffffffffffffffff16815260200190815260200160002060008583815181106108105761080f6128c2565b5b602002602001015181526020019081526020016000205482828151811061083a576108396128c2565b5b6020026020010181815250508080610851906128f1565b91505061079a565b508091505092915050565b61086c611361565b61087660006113df565b565b610880611361565b610889816114a5565b50565b6000600360009054906101000a900473ffffffffffffffffffffffffffffffffffffffff16905090565b600680546108c3906124ef565b80601f01602080910402602001604051908101604052809291908181526020018280546108ef906124ef565b801561093c5780601f106109115761010080835404028352916020019161093c565b820191906000526020600020905b81548152906001019060200180831161091f57829003601f168201915b505050505081565b80600160003373ffffffffffffffffffffffffffffffffffffffff1673ffffffffffffffffffffffffffffffffffffffff16815260200190815260200160002060008473ffffffffffffffffffffffffffffffffffffffff1673ffffffffffffffffffffffffffffffffffffffff16815260200190815260200160002060006101000a81548160ff0219169083151502179055508173ffffffffffffffffffffffffffffffffffffffff163373ffffffffffffffffffffffffffffffffffffffff167f17307eab39ab6107e8899845ad3d59bd9653f200f220920489ca2b5937696c3183604051610a359190611c1b565b60405180910390a35050565b600060046000838152602001908152602001600020549050919050565b6060610a6982610511565b9050919050565b6000600160008473ffffffffffffffffffffffffffffffffffffffff1673ffffffffffffffffffffffffffffffffffffffff16815260200190815260200160002060008373ffffffffffffffffffffffffffffffffffffffff1673ffffffffffffffffffffffffffffffffffffffff16815260200190815260200160002060009054906101000a900460ff16905092915050565b8473ffffffffffffffffffffffffffffffffffffffff163373ffffffffffffffffffffffffffffffffffffffff161480610b445750610b438533610a70565b5b610b83576040517f08c379a0000000000000000000000000000000000000000000000000000000008152600401610b7a906129ab565b60405180910390fd5b600073ffffffffffffffffffffffffffffffffffffffff168473ffffffffffffffffffffffffffffffffffffffff1603610bf2576040517f08c379a0000000000000000000000000000000000000000000000000000000008152600401610be990612a3d565b60405180910390fd5b610bfe858585856114bf565b610c0c858585855a866116ad565b5050505050565b610c1b611361565b600073ffffffffffffffffffffffffffffffffffffffff168173ffffffffffffffffffffffffffffffffffffffff1603610c8a576040517f08c379a0000000000000000000000000000000000000000000000000000000008152600401610c8190612acf565b60405180910390fd5b610c93816113df565b50565b60007f0e89341c000000000000000000000000000000000000000000000000000000007bffffffffffffffffffffffffffffffffffffffffffffffffffffffff1916827bffffffffffffffffffffffffffffffffffffffffffffffffffffffff191603610d065760019050610d12565b610d0f82611884565b90505b919050565b6000806004600084815260200190815260200160002054119050919050565b606060008203610d7d576040518060400160405280600181526020017f30000000000000000000000000000000000000000000000000000000000000008152509050610e91565b600082905060005b60008214610daf578080610d98906128f1565b915050600a82610da89190612b1e565b9150610d85565b60008167ffffffffffffffff811115610dcb57610dca611d23565b5b6040519080825280601f01601f191660200182016040528015610dfd5781602001600182028036833780820191505090505b5090505b60008514610e8a57600182610e169190612b4f565b9150600a85610e259190612b83565b6030610e319190612bb4565b60f81b818381518110610e4757610e466128c2565b5b60200101907effffffffffffffffffffffffffffffffffffffffffffffffffffffffffffff1916908160001a905350600a85610e839190612b1e565b9450610e01565b8093505050505b919050565b8051825114610eda576040517f08c379a0000000000000000000000000000000000000000000000000000000008152600401610ed190612c7c565b60405180910390fd5b60008251905060005b8181101561110457610f81838281518110610f0157610f006128c2565b5b60200260200101516000808973ffffffffffffffffffffffffffffffffffffffff1673ffffffffffffffffffffffffffffffffffffffff1681526020019081526020016000206000878581518110610f5c57610f5b6128c2565b5b602002602001015181526020019081526020016000205461190590919063ffffffff16565b6000808873ffffffffffffffffffffffffffffffffffffffff1673ffffffffffffffffffffffffffffffffffffffff1681526020019081526020016000206000868481518110610fd457610fd36128c2565b5b6020026020010151815260200190815260200160002081905550611084838281518110611004576110036128c2565b5b60200260200101516000808873ffffffffffffffffffffffffffffffffffffffff1673ffffffffffffffffffffffffffffffffffffffff168152602001908152602001600020600087858151811061105f5761105e6128c2565b5b602002602001015181526020019081526020016000205461191b90919063ffffffff16565b6000808773ffffffffffffffffffffffffffffffffffffffff1673ffffffffffffffffffffffffffffffffffffffff16815260200190815260200160002060008684815181106110d7576110d66128c2565b5b602002602001015181526020019081526020016000208190555080806110fc906128f1565b915050610ee3565b508373ffffffffffffffffffffffffffffffffffffffff168573ffffffffffffffffffffffffffffffffffffffff163373ffffffffffffffffffffffffffffffffffffffff167f4a39dc06d4c0dbc64b70af90fd698a233a518aa5d07e595d983b8c0526c8f7fb868660405161117b929190612c9c565b60405180910390a45050505050565b6111a98573ffffffffffffffffffffffffffffffffffffffff16611931565b15611359578473ffffffffffffffffffffffffffffffffffffffff1663bc197c8133888787866040518663ffffffff1660e01b81526004016111ef959493929190612d28565b6020604051808303816000875af192505050801561122b57506040513d601f19601f820116820180604052508101906112289190612da5565b60015b6112d057611237612ddf565b806308c379a003611293575061124b612e01565b806112565750611295565b806040517f08c379a000000000000000000000000000000000000000000000000000000000815260040161128a9190611ccf565b60405180910390fd5b505b6040517f08c379a00000000000000000000000000000000000000000000000000000000081526004016112c790612f03565b60405180910390fd5b63bc197c8160e01b7bffffffffffffffffffffffffffffffffffffffffffffffffffffffff1916817bffffffffffffffffffffffffffffffffffffffffffffffffffffffff191614611357576040517f08c379a000000000000000000000000000000000000000000000000000000000815260040161134e90612f95565b60405180910390fd5b505b505050505050565b611369611954565b73ffffffffffffffffffffffffffffffffffffffff1661138761088c565b73ffffffffffffffffffffffffffffffffffffffff16146113dd576040517f08c379a00000000000000000000000000000000000000000000000000000000081526004016113d490613001565b60405180910390fd5b565b6000600360009054906101000a900473ffffffffffffffffffffffffffffffffffffffff16905081600360006101000a81548173ffffffffffffffffffffffffffffffffffffffff021916908373ffffffffffffffffffffffffffffffffffffffff1602179055508173ffffffffffffffffffffffffffffffffffffffff168173ffffffffffffffffffffffffffffffffffffffff167f8be0079c531659141344cd1fd0a4f28419497f9722a3daafe3b4186f6b6457e060405160405180910390a35050565b80600290805190602001906114bb9291906119c6565b5050565b611521816000808773ffffffffffffffffffffffffffffffffffffffff1673ffffffffffffffffffffffffffffffffffffffff16815260200190815260200160002060008581526020019081526020016000205461190590919063ffffffff16565b6000808673ffffffffffffffffffffffffffffffffffffffff1673ffffffffffffffffffffffffffffffffffffffff1681526020019081526020016000206000848152602001908152602001600020819055506115d6816000808673ffffffffffffffffffffffffffffffffffffffff1673ffffffffffffffffffffffffffffffffffffffff16815260200190815260200160002060008581526020019081526020016000205461191b90919063ffffffff16565b6000808573ffffffffffffffffffffffffffffffffffffffff1673ffffffffffffffffffffffffffffffffffffffff1681526020019081526020016000206000848152602001908152602001600020819055508273ffffffffffffffffffffffffffffffffffffffff168473ffffffffffffffffffffffffffffffffffffffff163373ffffffffffffffffffffffffffffffffffffffff167fc3d58168c5ae7397731d063d5bbf3d657854427343f4c083240f7aacaa2d0f62858560405161169f929190613021565b60405180910390a450505050565b6116cc8573ffffffffffffffffffffffffffffffffffffffff16611931565b1561187c578473ffffffffffffffffffffffffffffffffffffffff1663f23a6e6133888787866040518663ffffffff1660e01b815260040161171295949392919061304a565b6020604051808303816000875af192505050801561174e57506040513d601f19601f8201168201806040525081019061174b9190612da5565b60015b6117f35761175a612ddf565b806308c379a0036117b6575061176e612e01565b8061177957506117b8565b806040517f08c379a00000000000000000000000000000000000000000000000000000000081526004016117ad9190611ccf565b60405180910390fd5b505b6040517f08c379a00000000000000000000000000000000000000000000000000000000081526004016117ea90612f03565b60405180910390fd5b63f23a6e6160e01b7bffffffffffffffffffffffffffffffffffffffffffffffffffffffff1916817bffffffffffffffffffffffffffffffffffffffffffffffffffffffff19161461187a576040517f08c379a000000000000000000000000000000000000000000000000000000000815260040161187190612f95565b60405180910390fd5b505b505050505050565b60007fd9b67a26000000000000000000000000000000000000000000000000000000007bffffffffffffffffffffffffffffffffffffffffffffffffffffffff1916827bffffffffffffffffffffffffffffffffffffffffffffffffffffffff1916036118f45760019050611900565b6118fd8261195c565b90505b919050565b600081836119139190612b4f565b905092915050565b600081836119299190612bb4565b905092915050565b6000808273ffffffffffffffffffffffffffffffffffffffff163b119050919050565b600033905090565b60007f01ffc9a7000000000000000000000000000000000000000000000000000000007bffffffffffffffffffffffffffffffffffffffffffffffffffffffff1916827bffffffffffffffffffffffffffffffffffffffffffffffffffffffff1916149050919050565b8280546119d2906124ef565b90600052602060002090601f0160209004810192826119f45760008555611a3b565b82601f10611a0d57805160ff1916838001178555611a3b565b82800160010185558215611a3b579182015b82811115611a3a578251825591602001919060010190611a1f565b5b509050611a489190611a4c565b5090565b5b80821115611a65576000816000905550600101611a4d565b5090565b6000604051905090565b600080fd5b600080fd5b600073ffffffffffffffffffffffffffffffffffffffff82169050919050565b6000611aa882611a7d565b9050919050565b611ab881611a9d565b8114611ac357600080fd5b50565b600081359050611ad581611aaf565b92915050565b6000819050919050565b611aee81611adb565b8114611af957600080fd5b50565b600081359050611b0b81611ae5565b92915050565b60008060408385031215611b2857611b27611a73565b5b6000611b3685828601611ac6565b9250506020611b4785828601611afc565b9150509250929050565b611b5a81611adb565b82525050565b6000602082019050611b756000830184611b51565b92915050565b60007fffffffff0000000000000000000000000000000000000000000000000000000082169050919050565b611bb081611b7b565b8114611bbb57600080fd5b50565b600081359050611bcd81611ba7565b92915050565b600060208284031215611be957611be8611a73565b5b6000611bf784828501611bbe565b91505092915050565b60008115159050919050565b611c1581611c00565b82525050565b6000602082019050611c306000830184611c0c565b92915050565b600081519050919050565b600082825260208201905092915050565b60005b83811015611c70578082015181840152602081019050611c55565b83811115611c7f576000848401525b50505050565b6000601f19601f8301169050919050565b6000611ca182611c36565b611cab8185611c41565b9350611cbb818560208601611c52565b611cc481611c85565b840191505092915050565b60006020820190508181036000830152611ce98184611c96565b905092915050565b600060208284031215611d0757611d06611a73565b5b6000611d1584828501611afc565b91505092915050565b600080fd5b7f4e487b7100000000000000000000000000000000000000000000000000000000600052604160045260246000fd5b611d5b82611c85565b810181811067ffffffffffffffff82111715611d7a57611d79611d23565b5b80604052505050565b6000611d8d611a69565b9050611d998282611d52565b919050565b600067ffffffffffffffff821115611db957611db8611d23565b5b602082029050602081019050919050565b600080fd5b6000611de2611ddd84611d9e565b611d83565b90508083825260208201905060208402830185811115611e0557611e04611dca565b5b835b81811015611e2e5780611e1a8882611afc565b845260208401935050602081019050611e07565b5050509392505050565b600082601f830112611e4d57611e4c611d1e565b5b8135611e5d848260208601611dcf565b91505092915050565b600080fd5b600067ffffffffffffffff821115611e8657611e85611d23565b5b611e8f82611c85565b9050602081019050919050565b82818337600083830152505050565b6000611ebe611eb984611e6b565b611d83565b905082815260208101848484011115611eda57611ed9611e66565b5b611ee5848285611e9c565b509392505050565b600082601f830112611f0257611f01611d1e565b5b8135611f12848260208601611eab565b91505092915050565b600080600080600060a08688031215611f3757611f36611a73565b5b6000611f4588828901611ac6565b9550506020611f5688828901611ac6565b945050604086013567ffffffffffffffff811115611f7757611f76611a78565b5b611f8388828901611e38565b935050606086013567ffffffffffffffff811115611fa457611fa3611a78565b5b611fb088828901611e38565b925050608086013567ffffffffffffffff811115611fd157611fd0611a78565b5b611fdd88828901611eed565b9150509295509295909350565b600060ff82169050919050565b61200081611fea565b82525050565b600060208201905061201b6000830184611ff7565b92915050565b600067ffffffffffffffff82111561203c5761203b611d23565b5b602082029050602081019050919050565b600061206061205b84612021565b611d83565b9050808382526020820190506020840283018581111561208357612082611dca565b5b835b818110156120ac57806120988882611ac6565b845260208401935050602081019050612085565b5050509392505050565b600082601f8301126120cb576120ca611d1e565b5b81356120db84826020860161204d565b91505092915050565b600080604083850312156120fb576120fa611a73565b5b600083013567ffffffffffffffff81111561211957612118611a78565b5b612125858286016120b6565b925050602083013567ffffffffffffffff81111561214657612145611a78565b5b61215285828601611e38565b9150509250929050565b600081519050919050565b600082825260208201905092915050565b6000819050602082019050919050565b61219181611adb565b82525050565b60006121a38383612188565b60208301905092915050565b6000602082019050919050565b60006121c78261215c565b6121d18185612167565b93506121dc83612178565b8060005b8381101561220d5781516121f48882612197565b97506121ff836121af565b9250506001810190506121e0565b5085935050505092915050565b6000602082019050818103600083015261223481846121bc565b905092915050565b600067ffffffffffffffff82111561225757612256611d23565b5b61226082611c85565b9050602081019050919050565b600061228061227b8461223c565b611d83565b90508281526020810184848401111561229c5761229b611e66565b5b6122a7848285611e9c565b509392505050565b600082601f8301126122c4576122c3611d1e565b5b81356122d484826020860161226d565b91505092915050565b6000602082840312156122f3576122f2611a73565b5b600082013567ffffffffffffffff81111561231157612310611a78565b5b61231d848285016122af565b91505092915050565b61232f81611a9d565b82525050565b600060208201905061234a6000830184612326565b92915050565b61235981611c00565b811461236457600080fd5b50565b60008135905061237681612350565b92915050565b6000806040838503121561239357612392611a73565b5b60006123a185828601611ac6565b92505060206123b285828601612367565b9150509250929050565b600080604083850312156123d3576123d2611a73565b5b60006123e185828601611ac6565b92505060206123f285828601611ac6565b9150509250929050565b600080600080600060a0868803121561241857612417611a73565b5b600061242688828901611ac6565b955050602061243788828901611ac6565b945050604061244888828901611afc565b935050606061245988828901611afc565b925050608086013567ffffffffffffffff81111561247a57612479611a78565b5b61248688828901611eed565b9150509295509295909350565b6000602082840312156124a9576124a8611a73565b5b60006124b784828501611ac6565b91505092915050565b7f4e487b7100000000000000000000000000000000000000000000000000000000600052602260045260246000fd5b6000600282049050600182168061250757607f821691505b60208210810361251a576125196124c0565b5b50919050565b7f45524331313535547261646561626c65237572693a204e4f4e4558495354454e60008201527f545f544f4b454e00000000000000000000000000000000000000000000000000602082015250565b600061257c602783611c41565b915061258782612520565b604082019050919050565b600060208201905081810360008301526125ab8161256f565b9050919050565b600081905092915050565b60008190508160005260206000209050919050565b600081546125df816124ef565b6125e981866125b2565b94506001821660008114612604576001811461261557612648565b60ff19831686528186019350612648565b61261e856125bd565b60005b8381101561264057815481890152600182019150602081019050612621565b838801955050505b50505092915050565b600061265c82611c36565b61266681856125b2565b9350612676818560208601611c52565b80840191505092915050565b600061268e82856125d2565b915061269a8284612651565b91508190509392505050565b7f45524331313535237361666542617463685472616e7366657246726f6d3a204960008201527f4e56414c49445f4f50455241544f520000000000000000000000000000000000602082015250565b6000612702602f83611c41565b915061270d826126a6565b604082019050919050565b60006020820190508181036000830152612731816126f5565b9050919050565b7f45524331313535237361666542617463685472616e7366657246726f6d3a204960008201527f4e56414c49445f524543495049454e5400000000000000000000000000000000602082015250565b6000612794603083611c41565b915061279f82612738565b604082019050919050565b600060208201905081810360008301526127c381612787565b9050919050565b7f4e487b7100000000000000000000000000000000000000000000000000000000600052601160045260246000fd5b600061280482611fea565b915061280f83611fea565b92508260ff03821115612825576128246127ca565b5b828201905092915050565b7f455243313135352362616c616e63654f6642617463683a20494e56414c49445f60008201527f41525241595f4c454e4754480000000000000000000000000000000000000000602082015250565b600061288c602c83611c41565b915061289782612830565b604082019050919050565b600060208201905081810360008301526128bb8161287f565b9050919050565b7f4e487b7100000000000000000000000000000000000000000000000000000000600052603260045260246000fd5b60006128fc82611adb565b91507fffffffffffffffffffffffffffffffffffffffffffffffffffffffffffffffff820361292e5761292d6127ca565b5b600182019050919050565b7f4552433131353523736166655472616e7366657246726f6d3a20494e56414c4960008201527f445f4f50455241544f5200000000000000000000000000000000000000000000602082015250565b6000612995602a83611c41565b91506129a082612939565b604082019050919050565b600060208201905081810360008301526129c481612988565b9050919050565b7f4552433131353523736166655472616e7366657246726f6d3a20494e56414c4960008201527f445f524543495049454e54000000000000000000000000000000000000000000602082015250565b6000612a27602b83611c41565b9150612a32826129cb565b604082019050919050565b60006020820190508181036000830152612a5681612a1a565b9050919050565b7f4f776e61626c653a206e6577206f776e657220697320746865207a65726f206160008201527f6464726573730000000000000000000000000000000000000000000000000000602082015250565b6000612ab9602683611c41565b9150612ac482612a5d565b604082019050919050565b60006020820190508181036000830152612ae881612aac565b9050919050565b7f4e487b7100000000000000000000000000000000000000000000000000000000600052601260045260246000fd5b6000612b2982611adb565b9150612b3483611adb565b925082612b4457612b43612aef565b5b828204905092915050565b6000612b5a82611adb565b9150612b6583611adb565b925082821015612b7857612b776127ca565b5b828203905092915050565b6000612b8e82611adb565b9150612b9983611adb565b925082612ba957612ba8612aef565b5b828206905092915050565b6000612bbf82611adb565b9150612bca83611adb565b9250827fffffffffffffffffffffffffffffffffffffffffffffffffffffffffffffffff03821115612bff57612bfe6127ca565b5b828201905092915050565b7f45524331313535235f7361666542617463685472616e7366657246726f6d3a2060008201527f494e56414c49445f4152524159535f4c454e4754480000000000000000000000602082015250565b6000612c66603583611c41565b9150612c7182612c0a565b604082019050919050565b60006020820190508181036000830152612c9581612c59565b9050919050565b60006040820190508181036000830152612cb681856121bc565b90508181036020830152612cca81846121bc565b90509392505050565b600081519050919050565b600082825260208201905092915050565b6000612cfa82612cd3565b612d048185612cde565b9350612d14818560208601611c52565b612d1d81611c85565b840191505092915050565b600060a082019050612d3d6000830188612326565b612d4a6020830187612326565b8181036040830152612d5c81866121bc565b90508181036060830152612d7081856121bc565b90508181036080830152612d848184612cef565b90509695505050505050565b600081519050612d9f81611ba7565b92915050565b600060208284031215612dbb57612dba611a73565b5b6000612dc984828501612d90565b91505092915050565b60008160e01c9050919050565b600060033d1115612dfe5760046000803e612dfb600051612dd2565b90505b90565b600060443d10612e8e57612e13611a69565b60043d036004823e80513d602482011167ffffffffffffffff82111715612e3b575050612e8e565b808201805167ffffffffffffffff811115612e595750505050612e8e565b80602083010160043d038501811115612e76575050505050612e8e565b612e8582602001850186611d52565b82955050505050505b90565b7f455243313135353a207472616e7366657220746f206e6f6e204552433131353560008201527f526563656976657220696d706c656d656e746572000000000000000000000000602082015250565b6000612eed603483611c41565b9150612ef882612e91565b604082019050919050565b60006020820190508181036000830152612f1c81612ee0565b9050919050565b7f455243313135353a204552433131353552656365697665722072656a6563746560008201527f6420746f6b656e73000000000000000000000000000000000000000000000000602082015250565b6000612f7f602883611c41565b9150612f8a82612f23565b604082019050919050565b60006020820190508181036000830152612fae81612f72565b9050919050565b7f4f776e61626c653a2063616c6c6572206973206e6f7420746865206f776e6572600082015250565b6000612feb602083611c41565b9150612ff682612fb5565b602082019050919050565b6000602082019050818103600083015261301a81612fde565b9050919050565b60006040820190506130366000830185611b51565b6130436020830184611b51565b9392505050565b600060a08201905061305f6000830188612326565b61306c6020830187612326565b6130796040830186611b51565b6130866060830185611b51565b81810360808301526130988184612cef565b9050969550505050505056fea2646970667358221220b20d26c9f08d8e92a80e0d3cd89161fefa70e9d626ddf4ab00ab95e09a6a382f64736f6c634300080d0033",
  "linkReferences": {},
  "deployedLinkReferences": {}
}